:020000040000fa
:10000000f07f0020295c0000f762000043650000db
:1000100000000000000000000000000000000000e0
:10002000000000000000000000000000476d00001c
:100030000000000000000000d15d0000dd6800004d
:100040001b5a00001b5a00001b5a00001b5a0000dc
:10005000d15100001b5a00001b5a00001b5a00001f
:100060001b5a00001b5a00001b5a00001b5a0000bc
:100070001b5a0000ed2400001b5a00001b5a000010
:100080001b5a00001b5a0000ad6600001b5a0000fe
:100090001b5a000000000000000000001b5a000076
:0c00a0001b5a0000000000001b5a00006a
:020000040000fa
:1000ac00f8b5c046f8bc08bc9e467047c15b000062
:1000bc00f8b5c046f8bc08bc9e467047995b00007a
:020000040000fa
:0800cc001c36000001000000d9
:020000040000fa
:1000d400f0b5d6464f464646c0b58cb0c34b5b7aa6
:1000e400002b03d0c24b1b78002b09d1c14b5b7a88
:1000f400002b65d10cb01cbc90469946a246f0bdbd
:100104000021ba4804f0d2fe05000468002cedd0aa
:10011400237b627b12021a43a37b1b041a43e37bf7
:100124001b061343b44a1360b44a137801331370a3
:10013400237c627c12021a43a37c1b041a43e37cd3
:100144001b0613432422a25c2521615c090211438e
:100154002622a25c120411432722a25c12060a433f
:100164000392a74a02922122a25c01922022a25c5d
:100174000092207d627d12020243a07d00040243ae
:10018400e07d00061043217e627e12020a43a17eb6
:1001940009040a43e17e09061143227f667f360281
:1001a4001643a27f12041643e27f1206324300f084
:1001b400fbfd8f4b00221a70280006f09bf895e790
:1001c40001f056fa002895d08e4b19784a07cd08cd
:1001d40001242540ed00d20f03230b40013b5e4276
:1001e400734123405b012a43cd092c40a4011343ee
:1001f4002343854a137049b2002919db814a158ac1
:10020400814b5d80147b1c7391689960967b9e730f
:10021400527b5a731b789b0600d40ee30b78773b12
:10022400dab2632a00d90ce39300784ad3589f4684
:10023400744b5a68744b5a60e0e78c2005f09affbf
:10024400041e00d1fde2724b1b78012b00d0f8e2b2
:10025400704b1b78012b00d9f3e26b4b9b685978e8
:100264006d4a1278914200d0ebe2674a52886b499a
:100274008a4208d06a490988914204d0624a127bb2
:10028400f227022a03d8987803f09efa07005e4bff
:100294009b68db78aa2b32d05e4b1b78012b47d0ae
:1002a4002568002d00d1cce291232b706f705d4b3b
:1002b4001b78ab700322012f08d85b4b1b78eb70c3
:1002c4005a4b1b68db681b782b7102324e4906942b
:1002d400574b059301230493002003900295019248
:1002e4000a781207d20f00924a68498802f0a6f9e8
:1002f400002800d0a5e2200005f0fcffa1e2424b5b
:100304005b689a46494b1b6899460025ff2398462b
:1003140002e01035502dbfd04b465b685e19311d8d
:10032400504606f0fdf90028f3d04346f373f0e796
:100334007b1edbb2012bb3d92568002d00d180e2ee
:1003440091232b7062336b70364b1b78ab70032296
:10035400bce7384b1b78042b00d072e24b78012b9e
:1003640000d96ee22e4b1a882c4b9a420ad0264ba7
:100374009b685b78012b14d0002b25d12e4b0022d7
:100384005a7011e0262002ab9c46604401235b4274
:100394000380234c258006f067f8200006f04ef811
:1003a400e5e7254b06225a70234b0022da70164be0
:1003b4009b68d87803f008fa012809d9124b9b6886
:1003c4009a781e4b1a703ce21b4b01225a70ebe7e1
:1003d4000f4b02221a701a4b1b88002b02d1184ba8
:1003e4000d321a80174b00221a70e7e7843a002076
:1003f400103c0020783a0020fc3a0020bb3b00204f
:10040400bd650000a0390020383a00201c1f000000
:10041400c53b00200d3c00200f3c0020ffff0000e6
:10042400a43b0020ba3b00200e3c0020ec3a002004
:100434005d6d0000c33b0020183a0020c13b002042
:100444002a390020bd3b00208c2005f093fe041eb9
:1004540000d1f6e1bf4b1b78022b00d9f1e1be4b72
:100464009b685a78bd4b1b789a4200d0e9e100683a
:10047400002800d1e5e197230370b94b1b78437042
:10048400b84b1b68db681b788370b34b5a68598878
:100494000694b54d05950125049500250395029014
:1004a400032001901b781b07db0f0093012300201e
:1004b40002f0c4f8002800d0c3e1200005f01affc0
:1004c400bfe1aa4b1b78092b00d0bae1a84c002548
:1004d4006570a64b07221a70a04b18780021e368b8
:1004e4009847e560ade1a34b1b78022b00d0a8e14f
:1004f4004d78052d00d9a4e18b78042b00d9a0e117
:100504001333ca78934200d09be1042c00d8a0e1b5
:10051400cb79053bdbb2f92b00d892e104230433f9
:10052400dbb29c4200d8a9e1ca18d278053ad2b20b
:10053400f92af4d885e10433dbb29c4200d88ae17d
:10054400ca18d278ff2af6d096008b4fbc46b44422
:100554006746fa70ca5c884ff255ca1856786746df
:100564007e709278ba70e6e70133dbb204319d42c3
:1005740009d008786045f7d14878b042f4d1089c96
:1005840022000027f0e7002a1fd1002c00d058e1f8
:100594007a4a13780133dbb21370012b00d850e18f
:1005a400774b00221a80774b1b68934204d06f4a22
:1005b4001278082a05d098476c4b1b78042b00d17d
:1005c4003fe16a4b08221a703be16c4b1f70dce779
:1005d40000216d4804f06afc04000368002b00d17c
:1005e4002fe15d68002d04d01a001632187d002119
:1005f400a847200005f07efe23e15e4b1b78012b0b
:1006040000d01ee1481c04f0ddff0600ff2800d1e5
:1006140017e18c2005f0aefd05000468002c00d124
:100624000fe1504b1f683601230008337a68911993
:1006340004310822180006f0fdfb474a5368197874
:10064400a1755978e1759b782376127b042a39d9f0
:10065400414b9b689c460423200015306146c95ccd
:10066400c1540133d9b29142f8d3013ad1b2617580
:100674000123e374384b1b781b07db0fdab2944673
:100684006622a3547a689219137b7e208343802bbd
:100694001ad00432002006903c4b059301230493a6
:1006a400039316340294019163460093030038497e
:1006b400098801f0c3ff002811d02900324805f051
:1006c40067ffbee00321d2e7002363600c33237489
:1006d4000b3b637429002f4805f05affb1e0280052
:1006e40005f008feade0234b1b78012b00d0a8e0f9
:1006f400194b5d682c781b4b1b685b6818005030e5
:1007040003e01033984200d19be019001a79a24209
:10071400f7d15e796a789642f3d19e79aa789642a7
:10072400efd19b7b01338b738be08c2005f022fd92
:10073400061e00d185e00768002f00d181e09223d6
:100744003b70054b5b680993064b1b685d6800248e
:1007540027e0c0460d3c0020383a00200f3c002022
:100764000e3c0020ec3a0020232b0000c33b002069
:10077400283a0020c53b002078390020bd3b0020ea
:100784002a390020f43a00206c3a00207d2700002a
:10079400a43b0020903a00200134e4b21035052c2b
:1007a4002ad008952b7b7f2bf6d9291d099805f0b3
:1007b400b7ff0028f0d00023089a13737b70052c30
:1007c4001fd002202f4b5a68598806962e4c059448
:1007d4000124049400240394029701901b781b07be
:1007e400db0f00930123002001f028ff002828d10b
:1007f400300005f07ffd24e00123581cf022fa5458
:10080400e0e70223f9e74b78002b1ad11d4b5e6811
:100814001e4b1b685c682700503702e01034a74267
:100824000fd0237b7f2bf9d9211d300005f078fff1
:100834000028f3d00023237303e0154b1b78072b08
:1008440002d004f03afe55e4124b1b680d48984759
:10085400f7e7114b1d704b788a789a42f1d2ca7827
:100864009a42eed30d4b1a7894465e780c4b1f785f
:100874000c49002214001300089078e6064b1d7002
:1008840004235de6383a0020232b0000ec3a0020d4
:10089400c33b0020f83a0020bf3b0020003c00206e
:0808a400bd3b00207839002063
:020000040000fa
:1008ac002c3900201c000000000000002939002019
:1008bc000100000000000000a93b00200100000026
:1008cc00000000006837002050000000000000000d
:1008dc009c38002004000000000000004839002073
:1008ec001c00000000000000d83a002004000000aa
:1008fc0000000000483a00200c000000000000003e
:10090c000c3900201d00000000000000dc3a002023
:10091c000400000000000000aa3b002002000000c0
:10092c0000000000e03a002004000000000000007d
:10093c00ad3b002003000000000000009c360020ae
:10094c006800000000000000402f0020fc050000a3
:10095c0000000000543a00201800000000000000c5
:10096c00b03b00200300000000000000b33b00205f
:10097c000200000000000000b8370020500000000a
:10098c0000000000ac3b0020010000000000000053
:10099c00b53b002002000000000000000c3c0020d1
:1009ac00010000000100000001000000ec3b0020f1
:1009bc00140000000100000000000000b837002007
:1009cc00000000000c3c002000000000c93b00208f
:1009dc0001000000010000001a000000b73b0020dd
:1009ec000200000000000000643900201400000028
:1009fc0000000000e43a00200c00000000000000a1
:100a0c00783900201400000000000000b93b0020e1
:100a1c000200000000000000a83b002001000000c4
:100a2c00000000006c3a00200c00000000000000e8
:100a3c00bb3b00200300000000000000d63a002061
:100a4c0002000000000000008c390020140000009f
:100a5c0000000000f03a002004000000000000003c
:100a6c00be3b002001000000000000009e3b002067
:100a7c000200000000000000bf3b0020010000004d
:100a8c0000000000783a0020180000000000000070
:100a9c00183a00201000000000000000a23b0020cb
:100aac000200000000000000903a00200c00000042
:100abc0000000000f43a00200400000000000000d8
:100acc00c03b002001000000000000002a3900207b
:100adc0002000000000000009c3a00200c00000006
:100aec0000000000c13b00200100000000000000dd
:100afc00a43b00200200000000000000c23b0020cc
:100b0c000300000000000000f83a00200400000080
:100b1c0000000000283a0020100000000000000037
:100b2c00c53b00200100000000000000383a002006
:100b3c001000000000000000fc3a0020040000003f
:100b4c0000000000a63b0020020000000000000096
:100b5c000d3c002003000000010000000301ff0019
:100b6c00003c00200800000001000000ab11223303
:100b7c0044556611103c00200100000001000000eb
:100b8c0001000000d03a0020060000000000000028
:100b9c00003b00201800000000000000c63b0020b5
:100bac000100000000000000a83a0020080000002e
:100bbc0000000000a039002014000000000000001c
:100bcc00a03b00200200000000000000183b0020a9
:100bdc0004000000000000009c3b0020020000000c
:100bec00000000003c350020c000000000000000a8
:100bfc00c73b00200100000000000000e03800208e
:100c0c002c00000000000000b03a0020080000009a
:100c1c0000000000a0380020400000000000000090
:100c2c00fc350020a000000000000000ca3b0020a2
:100c3c000200000001000000010000001c3b00202d
:100c4c0004000000000000005838002044000000a0
:100c5c0000000000203b00201c00000000000000f1
:100c6c00083c00200400000001000000aaaaaaaa67
:100c7c003c3b0020040000000000000000000020ad
:100c8c00402f000000000000403b0020140000003a
:100c9c0000000000b83a002008000000000000002e
:100cac00543b00200c000000000000000437002022
:100cbc006400000000000000603b002014000000f5
:100ccc0000000000b43900202800000000000000e3
:100cdc00743b00201000000000000000dc390020f4
:100cec001400000000000000843b00200400000001
:100cfc0000000000f0390020280000000000000077
:100d0c00883b00200800000000000000c03a0020d2
:100d1c000800000000000000c83b0020010000009b
:100d2c0000000000903b00200400000000000000c8
:100d3c00083800205000000000000000943b002008
:100d4c000400000000000000cc3b0020200000004c
:100d5c000100000001000000030000000000000082
:100d6c000000000000000000000000000000000077
:100d7c00c83a0020c83a002008000000000000001b
:100d8c00983b002004000000000000000000000060
:100d9c00000000006666666666666666666666667f
:020000040000fa
:100dac00f0b5de4657464e464546e0b589b0051cc3
:100dbc0005900e0006911100090a0792029312abde
:100dcc001c78ad06ed0f0396d7b2cbb20193af4ba7
:100ddc001a78af4b1a708c2005f0c8f980460028a1
:100dec0000d14fe10068002800d14de10c23994659
:100dfc0081444b46436005ab1b789c465b0700d592
:100e0c000127032263461a40012a3ed05142514128
:100e1c00c9b2a04b1b8805ae76899e4237d0002301
:100e2c009b4607339a4653460833002f00d0063ba7
:100e3c00019e002e3ad00233dbb204932426b24634
:100e4c00664653461e40202e34d0032a34d0a21cb2
:100e5c00049b9b1803730122531c9c464b469954cc
:100e6c0005ab6d0119782026b1430d431d70eb4382
:100e7c009b0729d0002f7cd0019b002b73d0023212
:100e8c008823416866468b5581e00321c1e7824e79
:100e9c00b34206d04023194301239b4604339a46a0
:100eac00c1e700239b4607339a46bce70833dbb205
:100ebc000493c3e73143c8e70123019300250023c2
:100ecc009b4600210022c7e78023416865464b55ad
:100edc006e4d29784b1cdbb22b70d51c0232466848
:100eec00b1546b4a13705b46002b0ad16a1cd2b208
:100efc0068490b78466873550235edb24b784168fa
:100f0c008b54019b002b00d190e0644a137841680c
:100f1c004b55ab1cdbb20135edb2527841684a55ea
:100f2c00002c0ad0029a1c19e4b2591c1578466898
:100f3c00f5540132cbb29c42f7d1594b149a1a603a
:100f4c00434603600122022105f020f8002800d05e
:100f5c0080e00130159b002b00d18ce0180005f0cf
:100f6c00c5f9012087e00232c823416866468b55db
:100f7c000de0019b002b05d002328c2341686646a4
:100f8c008b5504e00232cc23416866468b553f49b1
:100f9c000b785e1c0e7041688b54511cc9b205abaa
:100fac0004939e7ab446466863467354d11cc9b206
:100fbc008946931cdbb29c46049bdb7a46686146ef
:100fcc0073546b070ad5ff27436849465f54551d78
:100fdc00edb20432d2b243689f5484e7002f0cd098
:100fec0003990b7845684e46ab55551dedb24b78c1
:100ffc000432d2b241688b5475e7039b15000b3554
:10100c00e9b28c46019e494665469446a1462a00a3
:10101c004d1c1f78446867540133e9b29142f7d1f3
:10102c00624601964c460b32d5b25ce71d4b5e68ae
:10103c00370008373200ae1ba4461178b318dbb268
:10104c004468e1540132ba42f7d164462b000833ac
:10105c00dbb265e7144b01221a70144a1378013b7a
:10106c001370159b002b02d0180005f03ff9404679
:10107c0005f03cf9002009b03cbc90469946a246cc
:10108c00ab46f0bd0020f6e70020f4e7c63b00209d
:10109c00c43b0020a03b0020ffff00009c3b002035
:1010ac00183b0020a83a0020103c0020bb3b00203d
:020000040000fa
:1010bc00f0b5de4657464e464546e0b58bb0099036
:1010cc000e001500089314ab1b78994615ab1f78ce
:1010dc0016ab1b789846a34b1b780024072b00d02b
:1010ec002fe14c2a00d92be1022807d14a781202b1
:1010fc000b789b189bb29c4a934277d08c2005f0be
:10110c0035f88346002800d127e10468002c00d173
:10111c0025e1179b6360200008300822310005f0a0
:10112c0085fe4b46237565750023237467746633ff
:10113c004246e2548d4b1b78022b00d0dce0099b1d
:10114c00082b0ad18a4b1b6859680431300005f012
:10115c00e3fa8246002800d080e0cc23a3753378d4
:10116c00e37573782376b37863762a0008992000a8
:10117c001a3005f05bfe0435edb26575002f00d119
:10118c0098e0032323747a4b1b685a680432794b1a
:10119c00198800230693784b0593012304934b463f
:1011ac0003931634029401954346009301230020c7
:1011bc0001f040fa002875d05946704805f0e4f962
:1011cc006f4b1c78002c00d0bbe06e4a137b9268ee
:1011dc006d4909786d4804f075fa6d4b1860431c25
:1011ec0064d0674b01221a703c00aae08a3004f0ec
:1011fc00bdff071e00d1ace00068002800d1aae0ba
:10120c00179b43604b460375457504746623424631
:10121c00c254503b9a4682442a000899504605f025
:10122c0005fe544b198806945a4b059304944b466f
:10123c0003935346029301954346009300233200d7
:10124c00012001f0f7f9041e04d03900524805f0d2
:10125c009bf976e0380005f049f872e016342a0064
:10126c000899200005f0e2fd424b198800230693f3
:10127c00484b059304974b460393029401954346c0
:10128c00009300233200002001f0d4f9041e04d096
:10129c005946414805f078f953e0584605f026f8d0
:1012ac0054464ee0584605f021f889e7344b0022ad
:1012bc001a7046e02e4b1b685a6804322d4b198865
:1012cc00002306933348059004934b46039316343e
:1012dc0002940195434600930123002001f0aaf9e2
:1012ec00041e04d059462c4805f04ef929e0584606
:1012fc0004f0fcff012424e016342a000899200095
:10130c0005f094fd1b4b198800230693214b059384
:10131c0004974b4603930294019543460093002394
:10132c003200002001f086f9041e04d059461a48f8
:10133c0005f02af905e0584604f0d8ff012400e036
:10134c00002420000bb03cbc90469946a246ab460c
:10135c00f0bd0024f5e70024f3e70024f1e70024b6
:10136c00efe7c046c33b0020ffff0000c53b002059
:10137c00ec3a0020a43b00207d2700006c3a0020b2
:10138c00be3b00208c390020b83b002009480000ef
:0c139c00f03a0020b93f00009c3a00200d
:020000040000fa
:1013a80010b586b003780f2b00d193e03ad9102bf3
:1013b80000d1e4e0112b41d1a24b1978a24b1b7844
:1013c800013b0024994201d80131ccb29d4b1c70dd
:1013d8009e4b1b78012b00d10ce19d4b1878062100
:1013e80003f0c0f9c9b24b005918cb005b1a9949f0
:1013f8005b1899490a78501c0870a400974961182d
:101408009748039000200290013001900092152225
:101418000230fff74ffe002810d08d4a13780133b1
:1014280013700be00e2b09d1884b1b78012b07d0ca
:101438008c4b1a78834b1b789a4228d006b010bd83
:1014480016246c44023b2380814b1878062103f054
:1014580089f9c9b24b005918cb005b1a7d4a9b1811
:101468007d490a78501c08707d490391002102913a
:10147800013101910092152221000220fff71afe86
:101488000028dbd0724a137801331370d6e7704b0b
:101498001878062103f066f9c9b24b005918cb0039
:1014a8005b1a6c4a9b186c490a78501c08706c4986
:1014b80003910021029101310191009215226a499c
:1014c8000820fff7f7fd0028b8d0614a13780133e8
:1014d8001370b3e75d4b1b78012b28d0594b1c7850
:1014e800a4005e4be4185a4b1878062103f03af929
:1014f800c9b24b005918cb005b1a56495b185649bc
:101508000a78501c08705649039100210291013154
:1015180001910092152221000320fff7cbfd00283e
:1015280000d18be74a4a13780133137086e71624f3
:101538006c44023b2380464b1878062103f012f9cd
:10154800c9b24b005918cb005b1a424a9b18424952
:101558000a78501c08704249039100210291013118
:1015680001910092152221000220fff7a3fd002817
:1015780000d163e7364a1378013313705ee7334bc3
:101588001b78012b0ad02f4b1a782f4b1b78013b65
:101598009a422bd92b4b00221a704fe716246c4421
:1015a800023b23802a4b1878062103f0dbf8c9b2e6
:1015b8004b005918cb005b1a264a9b1826490a7813
:1015c800501c0870264903910021029101310191b4
:1015d8000092152221000220fff76cfd002800d19f
:1015e8002ce71b4a13780133137027e70132154b98
:1015f8001a7023e716246c44023b2380144b187896
:10160800062103f0aff8c9b24b005918cb005b1a9a
:10161800104a9b1810490a78501c08701049039109
:10162800002102910131019100921522210002202e
:10163800fff740fd002800d100e7054a1378013381
:101648001370fbe6b43b0020bf3b0020c53b0020e5
:10165800b23b0020144a0000b33b00207839002038
:0c166800d55f0000c13b0020bc37002013
:020000040000fa
:10167400f8b50021ab4803f019fc002800d14de176
:101684000268002a00d14be1536819785e7840243f
:101694002640a54b00241c70dc73013c1c8254685a
:1016a400a3783325ab43882b00d197e00ad9c82b04
:1016b4003ad0cc2b6bd08c2b00d1c7e004f01afeaf
:1016c40000201ce1082b00d1ece0802bf6d1964bd6
:1016d4001c7804252543802464422c431c70012477
:1016e400dc73546824791c74546864795c74546899
:1016f40006345c600c00093c1c73546808349c601c
:1017040053685c78230700d5e0e007232340012bce
:1017140000d1dfe0002b00d1fae0032b00d1efe091
:1017240004f0e8fd0020eae0a379ff2b16d07e4dfb
:101734002f7880235b423b432b70002e17d02479f3
:101744002c74546864796c74546808346c600c00ac
:10175400113c2c7354681034ac60d1e7e379ff2b4f
:10176400e5d1714d2b7804273b432b70dfe7247ab6
:101774006d4b1c745468647a5c7454680a345c60fd
:101784000c00133c1c73546812349c60b8e7664d1b
:101794002f7880235b423b432b70002e0ed024799c
:1017a4002c74546864796c7454680e346c600c0046
:1017b400173c2c7354681634ac60a1e7a47b5a4bd5
:1017c4001c745468e47b5c74546810345c600c00d2
:1017d400193c1c73546818349c6091e7a379ff2b5f
:1017e4001ad0514b1d78802464422c431c70012470
:1017f400dc73002e19d153681c7a4b4b1c7454684b
:10180400647a5c7454680a345c600c000d3c1c738c
:1018140054680c349c6073e7e379ff2be1d1424cac
:10182400237804252b432370dbe753681c793e4b54
:101834001c74546864795c74546808345c600c00eb
:101844000b3c1c7354680a349c6059e7364b1d7872
:10185400802464422c431c700124dc73002e10d0bd
:1018640053681c79304b1c74546864795c745468f4
:101874000d345c600c00113c1c73546810349c6083
:101884003ee753685c7b284b1c745468a47b5c74ef
:1018940054680f345c600c00133c1c73546812349d
:1018a4009c602de7a379ff2b07d01f4c0b00083b4e
:1018b400237353680833a36022e7e379ff2bf4d141
:1018c400194c237804252b432370eee704f012fd12
:1018d400002014e0144c23780325ab432370023119
:1018e400c9b253685b18023b1b780f4ca37353684f
:1018f400591801390b78637304f0fcfc0120f8bd1e
:10190400094c23780325ab4301252b432370e6e7d9
:10191400054c237803252b432370e0e70020eee7f2
:0c1924000020ece7783a0020a0390020f9
:020000040000fa
:1019300070b50d007f4b1c78042c00d1e7e04e28d9
:1019400007d059280ad10a787b4b1a770024200047
:1019500070bd0a78784b1a750024f8e7754b5a78f1
:101960000f2a00d1d5e00b2800d1c6e016d95328a4
:101970007cd047d84f2868d089245028e7d16e4cb6
:101980000b880978a1731b0ae373222003f0c6fabf
:10199000e17b232003f0c2fa0024d8e7022800d11b
:1019a00082e00cd9032800d19de0042828d1002c26
:1019b00000d0b4e00c78002cc9d08824c7e70028f8
:1019c0001cd1002c00d0a6e00b785c49d940c90797
:1019d00000d4a2e0082a00d1a3e0082000f0b0f86b
:1019e0000828fad12b78544ad37400221f210820ea
:1019f00004f0e4fe162000f0a3f8a8e78924a6e787
:101a00008924a4e7572840d08924f0289fd10a6868
:101a10004b68494d2a70110a6970110ca970120e99
:101a2000ea702b711a0a6a711a02120eaa711b0e41
:101a3000eb7124242978200003f070fa0135013479
:101a4000e4b22c2cf6d1002481e70b783a4a537586
:101a5000d27e934201d9384b5a75374b5b7d0022b9
:101a60000f212f2004f0aafe002470e7324c0b88cf
:101a7000097821731b0a6373202003f04ffa617bfe
:101a8000212003f04bfa002461e70b782a4ad37631
:101a9000527d9a4201d9284a53750422f0212f2001
:101aa00004f08cfe002452e70878830612d43f230a
:101ab0000340042b00dd0420802318431e4bd875ff
:101ac00003f0acff030000220f21052004f076fe96
:101ad00000243ce742421f2313405b425bb21133b8
:101ae000eada2f20e8e70b78134a93740522602185
:101af000082004f063fe002429e70b780e4a937552
:101b0000032208212e2004f059fe00241fe786241a
:101b10001de781241be7862419e7882417e786241c
:101b200015e7054ad37400221f21082004f046fe61
:101b30000de7c046483900200c39002000f8ff07a7
:020000040000fa
:101b400070b504007c4b5b780f2b07d00338c2b212
:101b5000162a5fd89000794a125897460f286ed0ff
:101b6000754d00232b7104f03bfe08236b70082c8d
:101b700000d1dde0032c00d1dce0201fc3b2152b27
:101b800048d898006e4b1b589f460321022003f053
:101b9000c5f90f2003f0eaf810210e2003f0bef97a
:101ba000654c0f236370012004f0d6ff654b802243
:101bb00052039a61232004f0cfff60783fe05e4b30
:101bc0005b78082b26d00821022003f0a7f901201a
:101bd00004f0c2ff1ee0082b1cd00321022003f0fa
:101be0009df9012004f0b8ff14e0534b5b78082bfb
:101bf00026d00dd9162b01d0192b0bd1082102208c
:101c000003f08cf9012004f0a7ff02f07ffa01e055
:101c1000062bf3d0012003f0a9f81f231840464bf0
:101c2000587063241d001f2809d1012003f09ef87d
:101c30001f2318406870013ce4b2002cf3d170bd42
:101c400002f064fae6e73c4b5b78082b06d0092be0
:101c5000e0d00421022003f061f9dbe702f056fa3c
:101c6000d8e7354b5b78092b11d00cd81f24082bf3
:101c7000d0d10621022003f051f904f0e3fe204008
:101c80000628f6d1c6e7162b01d0192bc2d10821a0
:101c9000022003f043f91f240621022003f03ef93d
:101ca00004f0d0fe20400628f6d1b3e7224b5b7843
:101cb0001f24082b16d004d9092b04d0192ba9d125
:101cc00001e0062ba6d10821022003f027f91f24ea
:101cd0001621022003f022f904f0b4fe2040162859
:101ce000f6d197e71621022003f018f904f0aafeb6
:101cf00020401628f6d18de70f4b5b78082b12d0c9
:101d000005d9092b06d0162b00d083e702e0062b5d
:101d100000d07fe70821022003f000f919210220fa
:101d200003f0fcf876e71921022003f0f7f871e7d9
:101d3000200084e7082082e748390020043f0000a3
:081d4000603f00000044004177
:020000040000fa
:101d4800f0b5c64600b584b001900f000293960026
:101d5800300001f00ff8051e00d1bae0542001f060
:101d680009f8041e58d005633200a521280005f0a3
:101d780069f8236b9846002f54d03b783422a3543b
:101d8800002b09d0012321003431fa5cca54002aff
:101d980002d00133102bf8d143230022e2540a9dcc
:101da800042d00d90425e56265640027a764231d76
:101db8000393180005f055f92000183005f051f983
:101dc800246105235b1ba3616462e7645023e75425
:101dd800301f4044493b9843029a019904f000fea1
:101de80020600b9b002b00d01c6004f029ff3c4aac
:101df8001368013313603b4b1b68002b16d03a4b1a
:101e08001b68002b17d1374b1b68db6ae26a9342c9
:101e180011d8344b1c600ee0280003f081fc01202f
:101e2800404258e034230022e254b8e72d4b1c60ae
:101e38001368012b23d02d4a136801331360e36a1a
:101e48002b4a1268934201d9294a13609800c01896
:101e58008000284b1818039904f066ff04f0b6ffb9
:101e6800214b1b680120002b35d01e4b1b68da6afa
:101e7800e36a9a422fd204f0d7fe01202be01d4dd1
:101e8800280004f046ff2800143004f042ff280020
:101e9800283004f03eff28003c3004f03aff2800c8
:101ea800503004f036ff144e300004f032ff134d6a
:101eb800280004f02eff124804f02bff114804f00c
:101ec80028ff114804f025ff104b1e60104b1d60c1
:101ed800b1e70120404204b004bc9046f0bdc046c2
:101ee800603b0020543b0020843b00206c3b0020da
:101ef800703b002004370020b4390020c839002086
:101f0800dc390020043a0020f0390020583b00203a
:041f18005c3b00200e
:020000040000fa
:101f1c00ea0400004608000046080000ea0600003b
:101f2c00460800004608000046080000460800006d
:101f3c0046080000460800003e0200002e07000084
:101f4c00460800004608000046080000460800004d
:101f5c004c0400004608000046080000460800003b
:101f6c00460800004608000046080000460800002d
:101f7c004608000046080000560300000a0800004e
:101f8c00460800004608000046080000460800000d
:101f9c00c604000046080000460800004608000081
:101fac0046080000460800004608000046080000ed
:101fbc0046080000460800004608000046080000dd
:101fcc0046080000460800004608000046080000cd
:101fdc0046080000460800004608000046080000bd
:101fec0046080000460800004608000046080000ad
:101ffc00460800004608000046080000460800009d
:10200c00460800004608000046080000460800008c
:10201c00460800004608000046080000460800007c
:10202c00460800004608000046080000460800006c
:10203c00460800004608000046080000460800005c
:10204c00460800004608000046080000460800004c
:10205c00460800004608000046080000460800003c
:10206c0046080000fe050000460800004608000077
:10207c00460800004608000046080000460800001c
:10208c00460800004608000046080000460800000c
:10209c00460800004608000046080000d405000071
:020000040000fa
:1020ac0070b50500594c207fc0b2002800d0a7e0c5
:1020bc0000294ad0002d48d0554c6668072434407e
:1020cc00012c5ed05148056042600024446184615b
:1020dc0004614e488160002a58d04c4ad3604b4a68
:1020ec00012111774a4a127e520705d5484a04202d
:1020fc00916a117e0142fbd1454a518b0420014368
:10210c005183117e80200143117640498a68c96849
:10211c00914203d93d48c168891a01613c4949681b
:10212c00490743d139498969914233d2374a1168f9
:10213c00087837498862916901319161002b5ad036
:10214c00334b04229a7501205be0002b59d0002af6
:10215c0057d02f4c666807243440012c0cd02b48e8
:10216c00056042600024446184610461002db0d19b
:10217c00264900208860aee7002943d1dc07eed564
:10218c003fe0cc073dd4002be9d0f7e71f4a0021f4
:10219c00d160a4e71d4a1269002acfd01c4aff2146
:1021ac0091621a490a69013a0a61c7e7174a9168ac
:1021bc0049089160116949081161d1684908d160d9
:1021cc00916892698a420ad210490a681288d2052b
:1021dc00d20d0f4882628a6901328a61aee70b4ade
:1021ec001269002aaad00a4a0a49916207490a6967
:1021fc00013a0a61a2e7064b01229a75012000e020
:10220c00002070bdcc07b9d5fbe7c046e0380020f4
:08221c0000180042ff01000060
:020000040000fa
:10222400f0b5de4657464e464546e0b58bb0534bb7
:102234001c781321200002f097fac9b200290ad0b1
:102244001321200002f054fa0130c3b2099313247d
:1022540000239a466ae01321200002f049fac3b22f
:102264000993122cf3d80bb03cbc90469946a24675
:10227400ab46f0bd3679c6544e4636687668761855
:102284007679b3465e1cf6b25f468755de1cf6b21d
:10229400b3464e463668766871188e79991cc9b271
:1022a40046540433dbb2594642540132d2b21100cf
:1022b400a2421ad22e789642f7d90901304e3668d6
:1022c40076687618377b7f2fd4d86146c154591c61
:1022d400c9b266464654d91cc9b29e1cf6b26746ba
:1022e40087550433dbb24254dfe74f2b07d8c218bb
:1022f400ff210133dbb2117001324f2bf9d9214a8e
:10230400118842460692204a059201220492002234
:1023140003920290019300920123012000f08ef9b0
:10232400002827d01334099b9a459cd28c2003f0b3
:1023340021ff8046002896d00068002893d0772398
:1023440003700e4b1b784370e3b21a00133ad2b2f7
:10235400827051460131c9b28a46c3701100a2424b
:1023640006d20423054dff26b446054eb146a1e727
:102374000423bce7404603f0bdffd3e7bc3b002089
:0c238400ec3a0020a43b0020232b0000ba
:020000040000fa
:10239000f8b503f06dfc002800d08fe04c4c982578
:1023a00080231b066351802636026651db0a636177
:1023b000a530400004f0d0fb9423e6500a2004f03e
:1023c000cbfb66510a24642004f0c6fb1c2002f0fb
:1023d000cdfc0b2805d0013ce4b2002cf3d18527bd
:1023e0006de00821093802f099fd642004f0b4fb87
:1023f00000221f21012004f033fd0a2408280cd0fc
:10240000642004f0a9fb00221f21012004f028fd14
:10241000013ce4b2002cf1d1e1e72e4b08225a70c6
:102420002d4804f001fb00284bd1012002f0a8f94f
:10243000071e4ad1294d08e0284c2600083604f032
:102440001bfc20700134a642f9d128786978090272
:102450000843a97809040143e8780006084302000c
:102460002879697909020843a97909040143e879bf
:1024700000060843030001204042c11712184b41d7
:10248000591c01d1d31cd7d800221549002004f0d3
:10249000e5f8002004f02cfd02f02efc8c2003f067
:1024a0006bfe104b186000280dd0ff210e4804f081
:1024b0004efd084b822252045a6100e08527380005
:1024c000f8bd8527fbe78527f9e78527f7e7c046ad
:1024d0000044004148390020aa3b00200c3900206c
:0c24e000bd6f0000dc3a0020483a0020ec
:020000040000fa
:1024ec0070b5504b586a504b9b7d002b54d04e49c5
:1024fc004c68072214404b4b5a699d699e680b7eb1
:10250c005b0757d5896a474bdb68934252d9002c3d
:10251c0043d1444b5b6899540132434b1b7edb0720
:10252c0016d5414b012119753e4b9b68ab4256d9d0
:10253c003c4b1b68595d3c4b99620135394b1b690f
:10254c00002b01d1b54262d0364bdb68934262d08e
:10255c00344b5a619d61344b1b7e9b0715d5334b15
:10256c001b78002b18d02f4bdb68934211d12d4bcd
:10257c0000221a772c4907240c752c490a701b6a07
:10258c00002b09d0274b1b6a9847284b1b78002b34
:10259c0002d0254b02229a7570bd224b5b68540009
:1025ac00e1520132204b1b7edb07d1d51e4b0121a2
:1025bc00197508e01c4b1b7edb07c9d51a4b012192
:1025cc001975002cb0d0174b9b68ab4213d9154b27
:1025dc001b686900c95a144b99620135aee7114b5f
:1025ec001b69002baad0104bff2199620d490b6976
:1025fc00013b0b61a2e70b4b1b69002b9ed00a4bd6
:10260c000b49996207490b69013b0b6196e7074b34
:10261c00012119709ce7044b01219975033119753f
:10262c0096e7c046e038002000180042c73b002067
:04263c00ffff00009c
:020000040000fa
:10264000f0b5de4657464e464546e0b583b0060037
:102650006846c18000921f000cab187880460dab15
:10266000187882460fab1878834610ab1d788c2003
:1026700003f082fd8146002800d178e00468002c38
:1026800000d176e0734273415b421d4001231d403f
:102690006d01032217401800304081002f4340464f
:1026a0001840c2000f4300216177267701214e4078
:1026b00033409b0117433b4380225242134323750f
:1026c0000099a1616b46da88e283002906d0237d58
:1026d0005b0741d4201d082204f0aefb0e9b23743f
:1026e0000e9b1b0a63740e9b1b0ca3740e9b1b0e8c
:1026f000e374231da361119b2373119b1b0a637356
:10270000119b1b0ca373119b1b0ee37321235a46d1
:10271000e254013b5246e2540433129ae254129bb3
:102720001a0a2523e254129b1b021b0e2622a354d5
:10273000129b1b0e0132a35449460f4803f02aff97
:1027400000280fd103f04eff012003b03cbc90469f
:102750009946a246ab46f0bd201d0222009904f026
:102760006bfbbbe7484603f0c7fd0020ede7002008
:0c277000ebe70020e9e7c046843a0020b7
:020000040000fa
:10277c00f0b5de464f464646c0b588b007008946e0
:10278c009046444b1b78012b08d000297cd0424b3f
:10279c005b7a002b78d000243f4d5ae03e4b5b7a9d
:1027ac00002b71d0002431e08c2003f0dffc834639
:1027bc000068002868d0da230370384b1b683a0194
:1027cc005b689a180432364b19885b460693354b76
:1027dc00059301230493002703970290019365331b
:1027ec00f35c009301230020fff724ff002822d183
:1027fc00584603f07bfd1ee02900274803f0c4fe79
:10280c000134e4b2244b5b7aa3423dd90021224827
:10281c0002f048fb051e37d00668002e34d030007d
:10282c0016304045e8d14b46002b04d102f0c6fed1
:10283c000700ff28b8d1280003f058fde0e731006d
:10284c00154803f0a1fe0134e4b2134b5b7aa342aa
:10285c001ad90021280002f025fb061e14d00368ab
:10286c00002b11d01a7dba42e9d11a0016329045cc
:10287c00e5d15b68002b03d04246494638009847a7
:10288c00300003f033fddee708b01cbc90469946df
:10289c00a346f0bdc53b00206c3a0020ec3a00206a
:0828ac00a43b0020232b0000d7
:020000040000fa
:1028b400f0b5ce4600b584b00400009101921f002b
:1028c4000025442640e0a66b3a000099200002f05f
:1028d400d5f9a36c002b11d0022f00d180e0200089
:1028e40003f072f8002806d104f072fa012004b053
:1028f40004bc9146f0bd04f099f9f5e7636a002b36
:1029040004d10028f0d004f091f9ede72000243040
:1029140002f078f90028e7d004f088f9e4e704f03d
:1029240057fa0020e3e702a804f098f919e000231d
:10293400a35520e045230022e25421e0200001f0c9
:102944006dfd00f05bfe012504f07cf9a36be26be6
:102954009342b8d3022f3ad0019b002bdfd0002d35
:10296400e1d004f035fa04f0d9fa04f06bf9a35d70
:102974005bb20133dbd04523e35c5bb20133d9d0d6
:1029840004f026fa01a902a802f0f8fe002817d1e3
:1029940004f058f9a36b9946e56b04f019faa945bc
:1029a400ccd120001030019904f082f8200001f00d
:1029b40035fd00f023fe0028c5d104f037f9c2e745
:1029c400200001f02bfd00f019fe00208fe7a66b1c
:1029d40002220099200002f051f9a36c002b8dd043
:0829e400002e00d080e77ae725
:020000040000fa
:1029ec00f0b585b004000191002300930025442626
:1029fc00002743e0013ba3632368002b09d0236924
:102a0c00002b0ad104f0e0f901230093009805b0e3
:102a1c00f0bd04f057f8a060f1e72000103002f090
:102a2c00edf80028eed004f0fdf8ebe704f0ccf95b
:102a3c0000230093eae702a804f00cf928e0a7555c
:102a4c0030e04523e75432e004f0f8f8a06801f0d8
:102a5c00bdfd009004f0b8f939e0200001f0dafc7b
:102a6c0000f0c8fd09e0200001f0d4fc00f0c2fd2c
:102a7c00200004f0b3f9002838d1012504f0def869
:102a8c00a36b002bb6d1019b002bcfd0002dd2d045
:102a9c0004f09af904f03efa04f0d0f8a35d5bb2ae
:102aac000133ccd04523e35c5bb20133c9d004f0d5
:102abc008bf901a902a802f05dfe0028d3d12000f9
:102acc0004f08cf90028c8d02368002bbcd020005f
:102adc002430019903f0e8ff200001f09bfc00f08a
:102aec0089fd0028c9d104f09df8c6e7009b002b96
:102afc0000d18be704f0a2f8616a002903d0236ba4
:102b0c001b680521c91aa06802f096f904f05cf95b
:062b1c00002300937ae79c
:020000040000fa
:022b22007047fa
:020000040000fa
:102b240070b588b0414b1b88002b05d0013b9bb28c
:102b34003e4a1380002b29d03d4b1b88002b05d027
:102b4400013b9bb23a4a1380002b23d0394b1b889c
:102b5400002b05d0013b9bb2002b1ed0354a1380bd
:102b6400354b1b88002b05d0013b9bb2002b1ad0a0
:102b7400314a1380314b1b88002b05d0013b9bb29b
:102b8400002b2cd02d4a138008b070bd2c4b002292
:102b94001a70d1e700f0ccffd8e7264b0f221a8039
:102ba400fff73efbdce7244b3c221a800024254d32
:102bb400002603e09e730134052cdbd0e0b22b68c1
:102bc40022015b689b181a7b7f2af4d99a7b002a1e
:102bd400f0d1da7bff2aedd002f0e6fbebe7174bee
:102be4000f221a808c2003f0c5fa041eccd003688f
:102bf400002bc9d07a221a70124a12685268043221
:102c04001149098806901148059001250495002072
:102c140003900293019500900123fff70ffd002814
:102c2400b2d1200003f066fbaee7c0469e3b002015
:102c3400d63a0020a63b0020a23b00202a390020df
:102c4400c23b0020ec3a0020a43b00207155000058
:020000040000fa
:102c540000b583b06b4601225242da80314b002228
:102c64001a70314b01321a70304b314a1a8003f01a
:102c740011fc304b1b78ff2b39d16b46981d03f0a8
:102c8400f3fb2a4803f0dafb2b4a2c4b1b781b017d
:102c940011780b431370fa22294b197801239200ff
:102ca400284802f013fd431c06d0274b64229a6087
:102cb400633a1a73254a1a610a21254804f045f932
:102cc4000a21244804f041f90a21234804f03df97b
:102cd4000a21224804f039f90a21214804f035f97f
:102ce400114b1b78072b07d0002003b000bd1149fe
:102cf400002003f085fdc0e71a4b1b78012b0ad096
:102d0400194b1b88002b02d1174b0f221a80174b2b
:102d140000221a70e8e7164b3c221a80154b2d3a14
:102d24001a80e1e7a83b0020c33b0020a43b00201d
:102d3400341200000f3c00200e3c00200d3c00200b
:102d4400b83b0020252b00008c39002009480000e6
:102d54006c3a00209c3a0020903a0020843a0020eb
:102d6400783a0020c53b00202a390020bd3b0020d2
:082d7400a23b0020a63b002059
:020000040000fa
:102d7c00f8b5040004f0cef8404b1b68002b15d0be
:102d8c003f4b1e68344238d1002c3dd02200083213
:102d9c00530702d007239a430832002a34d0394b08
:102dac001f68974233d338490c6835e0374a5307cc
:102dbc0020d0d11d07239943bd239b019c4662441f
:102dcc00531a0a003048026000214160d318083bb6
:102ddc00072083432948036059601960991a516090
:102dec0013602b4b1960274b1960254b8022120660
:102dfc001a60c5e7bd239b01e4e700f0fbfb04f080
:102e0c0033f900252800f8bd00f0f4fbf7e700f0db
:102e1c00f1fbf4e721001c006368934202d22368a3
:102e2c00002bf7d1154b1b68a3421ed00d6808353b
:102e3c0023680b6063689b1a102b19d86368ff1a00
:102e4c00104a1760124a1268974201d2104a176052
:102e5c001e436660002323600e4a1368013313601f
:102e6c0000f0c8fb002dcdd1c9e700f0c3fbc6e7cd
:102e7c00a0184360626002f027fddfe73c3b0020b6
:102e8c00403b0020443b0020b83a002000000020ca
:082e9c00483b00204c3b0020e4
:020000040000fa
:102ea400f0b583b00d0016001c003f4b1b780422c4
:102eb40093430022012b02d0100003b0f0bd3a4b23
:102ec40002321a7001283fd0002808d0022864d0aa
:102ed4000120a047344b01221a700022ece76b4614
:102ee40000225a716b46981d01235b4203802f4dcb
:102ef4002f4b2b8003f0b8fa280003f09ffaf30756
:102f04000dd46b4659790131c9b2012200e0190090
:102f140052004b1cdbb23242f9d06b4659716b46fe
:102f2400591d002003f06cfc224b01221a701e4b29
:102f340006321a70204b35321a80204b2d3a1a80f3
:102f44000020a0470122b7e76b46981d01235b428e
:102f54000380164f164b3b8003f086fa380003f0cb
:102f64006dfa6b46053300222900300000f074fd31
:102f740001a90870002003f043fc0e4b01221a70d3
:102f8400094b06321a700c4b35321a800b4b2d3a12
:102f94001a800020a04701228ee70120a047024b9f
:102fa40001221a70002287e7c33b0020a43b0020c3
:102fb40034120000c53b0020a23b0020a63b0020a9
:020000040000fa
:102fc400f0b5c64600b582b03a4b1b68002b65d1fc
:102fd400394b1a68013290461a60002a18d0374bd0
:102fe4001b68434521d900230193354b1b68da6ada
:102ff40093009b189b00334a9b58012b01d9012352
:103004000193314b1b68002b4ed0012301934be0fd
:103014002e4a11682e4b1868106019602d4a1368e7
:103024000133136003f04cfad9e700230193274ed0
:10303400370033681b68002b28d03b68db68dc68ea
:103044006368984527d3251d280003f0a2fba36ad3
:10305400002b03d02000183003f09bfbe36a1e4ac8
:103064001268934201d91c4a13609800c01880006a
:10307400144b1818290003f059fe114b1b68e26a1f
:10308400db6a9a42d5d301230193d2e70b4b012289
:1030940052421a60a9e7094a1360a6e70f4a136867
:1030a4000133136000230193019802b004bc9046dd
:1030b400f0bdc046683b0020883b0020783b0020e0
:1030c400543b0020043700208c3b0020583b002058
:1030d4005c3b00207c3b0020703b0020803b0020b8
:020000040000fa
:1030e40010b50b00072800d171e012d9502846d042
:1030f40021d9572800d174e029d9592800d175e085
:10310400f02830d108223c49180003f093fe002037
:103114001ce003284ed006d8012838d045d8364aba
:10312400d27c0a7012e0052849d055d8324a127e62
:103134000a7000200ae04e2817d01bd80b2804d1af
:103144002d4a927d0a70002000e0892010bd53288a
:1031540007d12949087b4a7b120202431a800020c6
:10316400f4e78920f2e78920f0e7234a127d0a7008
:103174000020ebe7204a527d0a700020e6e71e4952
:10318400887bca7b120202431a800020dee71a48b9
:10319400027a417a09021143827a12041143c27af3
:1031a40012060a431a600020d0e7134ad27d0a703f
:1031b4000020cbe7104a927c0a700020c6e70e4933
:1031c400087c4a7c120202431a800020bee70a4aa5
:1031d400927e0a700020b9e7074a527e0a700020e6
:1031e400b4e7054ad27e0a700020afe7024a127f94
:0c31f4000a700020aae7c0460c39002039
:020000040000fa
:1032000030b589b00400394b00221a701e236b447c
:10321000013a1a80364803f097fd3648047436495f
:10322000fff718fd0f2846d00022002302920393d7
:10323000324d0832290002a803f066fc0400012286
:103240005242d317029203930932290002a803f0d5
:103250005bfc002801d0002c36d1082104a802f024
:10326000bffc002807d104a9f030fef761fb04a9d8
:10327000f020fff737ff002003f096fb20490020e5
:1032800003f0c0fa041e2bd01d4c2078002101f061
:10329000bafc1c4b00221a7020781b4b00930023b1
:1032a0001e326a44022101f033ff441ea041c4b221
:1032b000200009b030bd154b1878431e9841c0b2ac
:1032c00001f0c5fe0124f3e708220c4904a803f02d
:1032d000b3fd04a9f020fef72bfb0028c7d0cae7f6
:1032e000074b187801f019fee2e7c046b53b002015
:1032f00019550000ec3b0020ac3b0020003c0020b6
:10330000c93b0020b63b0020815d0000c53b00208a
:020000040000fa
:1033100070b52b4b06225a6001f036f800f0e6ff3c
:1033200003f022fe02f074fe01f0b2fa02f094fd06
:103330002449002000f064fc234b1860234c244bec
:103340002360244b6360244ba360244be360244b35
:103350002361244b6361244ba361244be361244b21
:103360002362244b6362244ba362244be362244b0d
:103370002363244b6363244ba363244be363244bf9
:103380002364002314220121224802f06bf8002359
:1033900014220121204802f065f8204d042240212a
:1033a000280003f015fc2900200002f0bdff03f007
:1033b0009dfb02f035f902f033f9fef7e9ff70bd2d
:1033c0000040004118700000283b002058380020c1
:1033d000256b0000896b0000655400004d680000fb
:1033e000a16b000021620000736e0000d16b000031
:1033f0009568000055620000b9680000856e000005
:10340000716d0000856d0000ef6c0000e96f000039
:10341000f16f0000203b0020243b00201c3b0020db
:020000040000fa
:10342000f0b5c64600b584b00400009101920027b3
:1034300044260023984638e00099200003f060fa03
:103440006b1ea3632369002b06d103f0c3fc01208c
:1034500004b004bc9046f0bd2000103001f0d4fb55
:103460000028f2d003f0e4fbefe703f0b3fc002008
:10347000eee702a803f0f4fb21e04346a35528e061
:1034800045234246e25429e0200000f0c9ff00f045
:10349000b7f809e0200000f0c3ff00f0b1f8200009
:1034a00003f0a2fc002835d1012703f0cdfba56b6a
:1034b000002dc1d1019b002bd7d0002fd9d003f014
:1034c00089fc03f02dfd03f0bffba35d5bb201336c
:1034d000d3d04523e35c5bb20133d1d003f07afc57
:1034e00001a902a802f04cf90028d3d1200003f072
:1034f0007bfc0028c8d020002430019903f0dafac0
:10350000200000f08dff00f07bf80028ccd103f004
:083510008ffbc9e700209be7d7
:020000040000fa
:10351800f8b5374c656b63689b699847606160696b
:1035280003f0a8faa66ae76a0023020092197b4111
:10353800a262e362002d51d02d4c3022a35c0133ee
:10354800a35402f04dfe646b002c06d0a368002b38
:1035580003d101250027264e11e0264d00242e0018
:1035680021e0e06902f0b4fce368002b01d0206997
:103578009847746b002cf0d0a368002bedd125750b
:103588006575a378002b02d1e368002be9d12000f0
:1035980001f04afea378002be6d16770e4e7013416
:1035a8002035052c15d06301f3185b7d002bf6d070
:1035b8006201104b9b1800225a75ab78012beed193
:1035c80061010c4b59186b688b60280000f068f992
:1035d800e5e7074930228b5c013b8b5403f00cfd77
:1035e800040000f02dfc200003f00afdf8bdc046e1
:0835f800a0380020fc35002082
:020000040000fa
:10360000f8b5ce46474680b503f01efb2e4b1a6830
:10361000013a1a601b680024002b03d12b4b1b6856
:10362000002b06d103f0d6fb20000cbc9046994637
:10363000f8bd0024264eb046264f274b99463368e6
:10364000002b22d04346db68dc682000183003f0f2
:10365000a2f8251d280003f09ef8e36a3a68934219
:1036600001d91c4a13609800c01880001b4b181821
:10367000290003f05dfb1a4b1b68db6ae26a9a4281
:10368000ddd301234a461360d9e7002c01d002f0b4
:1036900019ff144b1c68002c0ed00f4e012502e0c0
:1036a000013c002c05d0fff78dfc0028f8d03560d8
:1036b000f6e70c4b00221a60074b1c68002cb1d0b7
:1036c00003f0b6fa0124ade7683b0020603b002020
:1036d000dc390020703b00208c3b002004370020a8
:0836e000543b0020803b002058
:020000040000fa
:1036e800f0b5060085b00f0015001c008b4265d8a8
:1036f80001d1824262d82100280003f0ddfa3900a6
:103708000090300003f0d8fa009b21001b1a1a0021
:103718002800039303f0c4fa00900191019bbb4277
:1037280046d802d1009bb34242d8009b019c039a21
:1037380001200021f61aa74103f0b2fa039b002bdf
:103748002fd0019b009adb0754081c43019b5d089e
:10375800039b9c46bd422ed801d1b4422bd83200df
:103768003b00121bab41012692185b410027b6189b
:103778005f4101235b429c446346002bead18019d8
:103788007941039a04000d003000390003f07cfaf7
:10379800039a06000f0003f083fa241a8d412000d3
:1037a80029000a9b002b01d01e605f6005b0f0bda8
:1037b80000200021c2e7b6197f41dae70020002186
:0237c800efe729
:020000040000fa
:0237ca00704746
:020000040000fa
:1037cc00f0b5c64600b582b001902e4b1e682e4b4c
:1037dc005f687568ff23984600240ae0291d3800ad
:1037ec0002f09aff002848d10134e4b21035052cc0
:1037fc0007d02b7b7f2bf1d84346ff2bf4d1a0466f
:10380c00f2e700244346ff2b3ad0204b1b78002bc9
:10381c002ed11f4b42461a70100100221a4f7b68a2
:10382c00995c73681b189b1819710132082af6d120
:10383c0073681b18197b883a0a431a7373681b1830
:10384c0001210122019d2a401d7b8d4315431d73cf
:10385c0073681b1899730c4b9b68da78736818188b
:10386c0042730c4b42461a7002f0cefd0a4b187094
:10387c00200002b004bc9046f0bda0460124c1e774
:10388c00f124f5e7ec3a0020383a00200d3c0020fa
:0c389c00ba3b0020b93b0020bc3b0020e0
:020000040000fa
:1038a800f0b5de4657464e464546e0b585b08146fa
:1038b800002854d0304b596b83689a4600290cd0a5
:1038c8008b6852460392002290469a4549d30022bb
:1038d80000238b460092019306e052468260264bf5
:1038e8005863012034e0e3465e46b668340000259c
:1038f800009a019b12196b41009201935e46b669ca
:10390800b446002e12d06646b66800210f00009a11
:10391800019bb6185f41474529d8e4d1039b9e42d5
:10392800e1d960465946009a019b01e030005946aa
:103938004c46a0618c61002051468a1a4b469a6019
:103948009b69002b04d04a4691689a68521a9a607b
:1039580005b03cbc90469946a246ab46f0bd002057
:10396800f6e7054b5863816100220120e4e76046d1
:0c3978005946009a019bdbe7a0380020b4
:020000040000fa
:1039840070b50400002927d02c4b1b7f0422f021a2
:103994002c2002f011ff012c34d9284b1b7d01226d
:1039a4000e212c2002f008ff1920fef7c7f8192871
:1039b400fad1234b186801780139c9b201f046fbea
:1039c400204b01221a70204c80256d03a561012033
:1039d40003f0c0f8656170bd00230422f0212c209f
:1039e40002f0eafe012cd8d8072301220e212c2054
:1039f40002f0e2fe13e0154802f08dfd114b0022a7
:103a0400da70d1e7072301220e212c2002f0d4fe24
:103a14000a4b1a7f0e4b1a700e4b01221a70012c9e
:103a2400c2d1084bdb78122be5d8002bbcd09720f1
:103a340002f071fd034b0022da70b5e70c39002067
:103a4400d83a0020483900200044004157020000c1
:083a5400ad3b0020ae3b002059
:020000040000fa
:103a5c00f0b5de4657464e46c0b584b007000d00a3
:103a6c001100019299462d4b00221a7000294cd15d
:103a7c0002abda71f0208000a840f0239b009c463a
:103a8c0060440001264900f02ffe013083b29a46b3
:103a9c00ff239b4600931fe0dcb23378002b08d049
:103aac002900012003f012f9231c8442f4d2031cd8
:103abc00f2e75c4508d202ab07331b7800934b4608
:103acc00002b20d01c70a34602abda1ddb7901332e
:103adc00dbb213701f2b1ad803f07cfa02abda7925
:103aec00012393403b401842eed002abd91d00207d
:103afc0002f082fe0b4b52461a80084b01221a70c0
:103b0c00019c1e00cce7a346dee7ff230093009840
:103b1c0004b01cbc91469a46a346f0bdc23b0020a3
:083b2c0040420f009e3b002007
:020000040000fa
:103b340010b588b02a4bdb78002b03d0294b1b78b7
:103b4400042b11d0264b5878062801d000283ad1ee
:103b5400244b07221a70224bdb689847204b002223
:103b6400da60042008b010bd8c2002f003fb041eb0
:103b740031d00368002b30d081221a701a4a12788f
:103b84005a701a4a12789a70194a1268d2681278ce
:103b9400da70184a11880690174a05920122049295
:103ba400002203920293042301930092033b012019
:103bb400fef744fd03000020002bd3d1200002f0c7
:103bc40099fb0120cee7064b9978064a1170db6811
:103bd40001209847c2e70a20c4e70a20c2e7c0468a
:103be400183a0020c33b00200f3c00200e3c00206c
:0c3bf400ec3a0020a43b002029680000ef
:020000040000fa
:103c000070b50d1e4cd000284dd12848383002f038
:103c100096ff012802d00120404246e02b68234c49
:103c20006360db689847e0600026c822002300211b
:103c300002f0f0f81e4a002302f08ef9022200235f
:103c40008018594120620423eb5623722661194bd8
:103c5000a361194be36100220023a262e362666361
:103c60003023e65463681b68002114489847636852
:103c70001b69002b02d00d4a108b98470b4ce06952
:103c800080b263685b69984763685b689847a02265
:103c900000210b4803f0daf802232370200004e02f
:103ca0000120404201e00120404270bda0380020c8
:103cb000006cdc02ffff0000ff7f000019350000f0
:043cc000fc350020af
:020000040000fa
:103cc40010b52a4b1b68002b03d0294b01221a6024
:103cd40010bd274b00221a60264b1b681b6b264a1b
:103ce4001968914202d1596891422fd0214b18682a
:103cf4001968343103f0baf9204b1b689a00d218c2
:103d040092001f495258002a06d1013b9a00d2184a
:103d140092005258002af8d019489a00d118890004
:103d240041184c6864684c60d218920008328218ba
:103d3400944212d09a00d218920011498a185268fb
:103d4400d1680c4a11600d4a1360c1e79968914229
:103d5400ccd1db689342c9d1cee760689a00d2180f
:103d6400920007498a185060e4e7c046683b002087
:103d74008c3b0020543b0020a5a5a5a5703b00204a
:043d840004370020e0
:020000040000fa
:103d8800f0b583b006000d0001921f0008ab1c7847
:103d980002f076f9002845d0244b1b785bb2022b41
:103da80006d00124644202f091fc200003b0f0bd6b
:103db800002d31d0b54232d31d4b1b78002b0bd0d0
:103dc8001c4b01221978002908d001322033052a1a
:103dd800f8d101246442e6e70022154b012119704d
:103de80000215970197559759c705d600199d960e9
:103df8001f61ad1b9d60104909881404240c0a0436
:103e08001443dc61013189b20c4a914202d00a4a5a
:103e18001180c8e70121fae701246442c3e70124bd
:103e28006442c0e701246442bfe7c046a0380020ce
:103e3800fc3500201c360020ca3b0020ffff000094
:020000040000fa
:103e4800f0b5c64600b52a4b5a6b59691961002a64
:103e580042d09168274b994234d9254b5b6900259c
:103e68001c00244a0023a4185d41214b98465b6836
:103e78009b6998470027060043461b69834203d97c
:103e88001d4a0023b6185f41194b196a00230a001e
:103e980092197b41ab4202d827d1a24225d98e196b
:103ea800134bde61124bdb691b0402d1104b01225c
:103eb800da610f4bd86980b25b685b69984704bccc
:103ec8009046f0bd91680a4b5b6900251c000023f1
:103ed8000a00a4185d41c8e7054b5b6900251c0072
:103ee800044a0023a4185d41bfe7014bdc61d9e710
:0c3ef800a0380020ff7f0000ffff00004a
:020000040000fa
:103f0400d61b0000461c0000141c0000621c0000ac
:103f1400141c0000be1b0000ea1b0000141c00005f
:103f2400141c0000141c0000141c0000141c0000cd
:103f34008a1b0000141c0000141c0000141c000048
:103f4400141c0000141c0000141c0000ac1c000015
:103f5400141c0000141c0000f81c0000461c000087
:103f6400141c0000621c0000141c0000be1b000096
:103f7400ea1b0000141c0000141c0000141c0000a8
:103f8400141c0000141c00008a1b0000141c0000f8
:103f9400141c0000141c0000141c0000141c00005d
:103fa400141c0000ac1c0000141c0000141c0000b5
:043fb400f81c0000f5
:020000040000fa
:103fb800f0b58bb00500099117000021234800f0e7
:103fc80073ff061e19d00468002c16d06368002bf6
:103fd80006d0a27c012a03d03a0009992800984704
:103fe800e37c002b06d02000163001f0e9fa04002b
:103ff800ff2804d1300002f07bf90bb0f0bd8c2013
:1040080002f0b6f8051ef8d00368002bf5d0da22c6
:104018001a700f4a126824015268121904320d49a5
:10402800098806900c480590012004900024039408
:1040380002930190009001230020fef7fdfa00286a
:10404800d8d1280002f054f9d4e7c0469c3a0020a1
:0c405800ec3a0020a43b0020232b0000c9
:020000040000fa
:1040640070b50500254b1c78002c09d05c780f3cfa
:1040740063425c41644204239c438634200070bd47
:10408400002002f03bff0420fdf758fd0f2000f054
:104094006bfe012307228021152002f08dfb1023e3
:1040a4000022ff210e2002f087fb002002f01efff9
:1040b4000620fdf743fd062814d1104b04221a7084
:1040c400ff21072000f028ff0d4b00221a70f02377
:1040d4009b00ab40f022920094466344db08094afb
:1040e4001360cbe7002307228021152002f064fb34
:1040f40008210e2000f010ff8524bfe74839002076
:08410400ab3b0020e03a002073
:020000040000fa
:10410c00f0b583b000221f21012002f0a3fe082885
:10411c0001d003b0f0bd073000f022fe0e2000f0fd
:10412c001ffe019001210e2000f0f2fe002002f093
:10413c00e1fe0921022000f0ebfe01f03dfe04003f
:10414c00154fa0260125bb591d4216d101f034fe96
:10415c00001bfa28f7d91a2000f002fe054208d0fd
:10416c00a843c1b21a2000f0d3fe01f025fe0400d2
:10417c00e9e701210143c9b2f4e70f2000f0f0fd9b
:10418c00064b01221a61002002f0acfe01990e20b0
:10419c0000f0befebde7c0460044004100180040e0
:020000040000fa
:1041ac00f8b51f4e1f4c23689d6800231422012173
:1041bc003000a8471c4d23681b6b1c212800984716
:1041cc0023685b6b29001948984723685b6b2900af
:1041dc0030009847164b174a1a60134e164c114f65
:1041ec00124d07e00f4b1b68db6800210c48984709
:1041fc0002f0e8fe3b689b6b104a310020009847a8
:10420c002368074a12689342ecd02a689342f1d192
:10421c00044b1b689b6a0022054904489847e9e750
:10422c000c3b0020043b0020143b0020003b0020f2
:10423c00083b0020d03a0020103b0020ffff00007c
:020000040000fa
:10424c00f0b585b00600029103921c0002f0f2fe5c
:10425c000190b36bf26b934208d30025022c05d06e
:10426c00019802f0f9fe280005b0f0bd4523f55c7d
:10427c006db2b76b22000299300000f0fbfc6b1c96
:10428c0005d001356db24523f5540125e8e7b36c33
:10429c00002b10d0022c02d10235002fe0d13000bf
:1042ac0001f08efb01250028dad0039a002a12d0e7
:1042bc0001231360d4e7736a0125002bd0d03000a2
:1042cc00243000f09bfc0028cad0039a002a04d0aa
:0e42dc0001231360c4e70125c2e70125c0e7f6
:020000040000fa
:0242ea0070471b
:020000040000fa
:1042ec001d4b00229a619a8c80218a439a841a0071
:1042fc001023d1680b42fcd0184b1b689b0e3f2b34
:10430c0027d09b02802292001343134a93621023fe
:10431c00d1680b42fcd0104b02229a841a00102355
:10432c00d1680b42fcd00e4b0e4a5a601a005378df
:10433c005bb2002bfbdb0a4b0b4a5a800b4a5a80b0
:10434c000b4a5a800b4b0c4a1a62034b00221a621e
:10435c007047203bd5e7c046000800402460800031
:10436c00000c004000070100054000001840000050
:0c437c001b40000000040040400801004d
:020000040000fa
:1043880070b5234b802252031a6012021a61012170
:10439800442299540132995402200532985401322a
:1043a8009854002254241a554f3c5c255c552a3dec
:1043b80033265e5503355a5505355a5504355a5531
:1043c8004235144e5e51403559550f355a55013511
:1043d8005855013558550d35595501355a552f3d04
:1043e8005a5507355a5501355a5507355c554c34d9
:1043f800ff3418555130ff3019545420ff301954e8
:104408003831ff315a543a22ff32e339995470bd9a
:08441800004400410080008017
:020000040000fa
:1044200070b5050002f010fc4523ec5c64b2002c72
:104430001cdd2e0024360be06b6a002b16d03000fa
:1044400000f0e2fb00280ed1013c64b2002c0dd03c
:10445000ab6c002bf0d0280001f0b8fa0028f3d0a4
:1044600002f0a0fdf0e702f09dfdede74523ff22fd
:10447000ea5402f0affc02f0e7fb4423ec5c64b2c8
:10448000002c04dd2b692e001036002b0ed14423a6
:10449000ff22ea5402f09efc70bd02f083fd013c55
:1044a00064b2002cf3d02b69002bf0d0300000f068
:0844b000abfb0028f3d0f0e79c
:020000040000fa
:1044b80070b5224da97b222000f02cfde97b23203a
:1044c80000f028fd24242978200000f023fd013580
:1044d8000134e4b22c2cf6d1184c217b202000f0ba
:1044e80019fd617b212000f015fda37c05226021c8
:1044f800082002f05ff9637d00220f212f2002f0cf
:1045080059f9a37d032208212e2002f053f9e37ef6
:104518000422f0212f2002f04df9e37c00221f2114
:10452800082002f047f9e07d01f074fa0300002248
:104538000f21052002f03ef970bdc0460c3900205d
:020000040000fa
:1045480030b583b080256d00184c194b01930423b6
:10455800009300232a0021001648fdf7f1fb2100f3
:104568000c31154b01930523009300232a001348af
:10457800fdf7e6fb6d0021001831114b0193032371
:10458800009300232a000f48fdf7dafb21002431ad
:104598000d4b01930123009300232a000b48fdf7dc
:1045a800cffb01f0bdf903b030bdc0468863000001
:1045b800343b002039700000383b00203170000087
:1045c800303b0020217000002c3b002029700000a7
:020000040000fa
:1045d80070b5041e3cd0c26a1e4b1b68db6a9a4247
:1045e8002ed28369002b05db1a4b1b68d96a052379
:1045f8005b1a836193009b189b00174ad318626962
:104608009a4205d0134b1b68db6ae36201201ee067
:10461800251d280002f0bbf80e4b1b68db6ae3621d
:104628000e4a1268934201d90c4a13609800c018c8
:104638008000094b1818290002f076fb012006e0db
:10464800044b1b68406cdb6a98428041404270bd55
:104658000020fce7543b002004370020703b00207a
:020000040000fa
:1046680070b5002817d01c4b07221a701b4b1b78fb
:10467800002b07d01a4b1b78002b03d0164b1b7846
:10468800052b10d0174b02221a70013a9a7000209d
:1046980001f054ff70bd0522e021022002f0dcfb8e
:1046a8000d4b1870e2e71920fdf746fa1928fad1e0
:1046b8000d4c80256d03a561183802f049fa656133
:1046c800074a1378013bdbb21370002be2d1034b8e
:1046d80000221a70dee7c046af3b0020ae3b002048
:0c46e800ad3b0020483900200044004198
:020000040000fa
:1046f400002934d00123002210b488422cd3012491
:104704002407a14204d2814202d209011b01f8e725
:10471400e400a14204d2814202d249005b00f8e7de
:10472400884201d3401a1a434c08a04202d3001b0a
:104734005c0822438c08a04202d3001b9c0822433d
:10474400cc08a04202d3001bdc082243002803d07b
:104754001b0901d00909e3e7101c10bc704701b51f
:10476400002002f089fc02bd0029f8d003b5fff750
:0c477400c1ff0ebc4243891a1847c04622
:020000040000fa
:1047800070b504001e4d80235b036b61d22002f0e4
:10479000e3f9802636029423ee500a2002f0dcf979
:1047a0009823ee50642002f0d7f900221f21012047
:1047b00002f056fb0a2508280dd0642002f0ccf93f
:1047c00000221f21012002f04bfb013dedb2002d24
:1047d000f1d1852070bd0b4b08225a7000f0daf839
:1047e00000f0fafa002c07d1fff766fe054b002215
:1047f0001a709a700020ede701f018f8f4e7c0464f
:0848000000440041483900208a
:020000040000fa
:10480800f8b51e4b5b7a002b2cd000251b4c2700db
:1048180008e03100194801f0b9fe0135edb27b7aa4
:10482800ab421cd90021200000f03efb061e18d028
:104838000168002915d00b7c002bead0013bdbb2c4
:104848000b74002be5d14b68002b04d00a001632fc
:10485800087d03219847300001f04afddde7002b71
:1048680000d0f8bd064c206801f052fb054b002231
:104878001a70206801f02cfbf3e7c0466c3a002060
:08488800f03a0020be3b0020c5
:020000040000fa
:1048900010b51e4a137801210b43137053785bb295
:1048a000002bfbdb194901238b610233cb6102230f
:1048b000ff33cb60164b00221a7210321a7520207b
:1048c0001a540c301a540c301a540c301a540c3040
:1048d0001a540c301a540c3008241c540c301a543e
:1048e0000c301a540c301a540c301a540c301a5420
:1048f0000c301a540c301a540b78022213430b70ec
:104900000a0053785bb2002bfbdb10bd001800409f
:044910003c35002012
:020000040000fa
:1049140010b51c4b9b78002b12d01a4b1b7802222b
:1049240093430dd1184b1b68002b14d0154b002258
:104934009a701620fdf702f902f082f81628f8d1d1
:10494400124b5b7a002b0ed10e4b1b78022b13d02b
:10495400052b14d010bd8c2001f00cfc0a4b186000
:104964000028edd0e2e70021084800f09ffa002873
:10497400ead001f0bff9e7e701f0def9eae700f079
:10498400fbffe7e748390020dc3a0020483a0020e2
:020000040000fa
:1049940070b5162000f0e8f90500c121162000f0da
:1049a400bbfa002002f0aafa0620fdf7c7f8062891
:1049b400fad10023072280210f3001f0fdfe0826e2
:1049c400002405226021062002f048faa400a4b2c3
:1049d4000443a4b2012002f0bdf8013ef6b2002e59
:1049e400efd10320fdf7aaf80f2000f0bdf9074b23
:1049f40001221a61002002f079fa200002f0d6faae
:104a04002900162000f088fa70bdc0460018004046
:020000040000fa
:104a140020b2202020b22020b220b220202020204a
:104a2400b220b20d0ab220b220b220b2202020b2ad
:104a34002020b22020b220200d0ab22020b2202053
:104a4400b220b220b22020b22020b220b20d0ab28d
:104a54002020b22020b220b22020b220b220b220e6
:104a640020b20d0ab22020b22020b220b220202091
:104a7400b220b2202020b20d0a20202020202020a5
:104a84002020202020202020202020200d0ac04685
:020000040000fa
:104a940030b583b01a4b1b68002b24d01d686b46bd
:104aa400dc1d0121200000f001fb2178154bd97099
:104ab4004bb2002b15db0331c9b26c1a8c342000c5
:104ac40000f0f4fa6c600e4c21680f4801f060fdb0
:104ad4008c2001f04ffb206000280ad0002001f058
:104ae4002ffd03b030bd01216b46981d00f0defaa6
:104af400f7e70930fdf722f8024b01229a70ede73f
:0c4b0400dc3a002048390020483a00202c
:020000040000fa
:104b100070b504000d00174b1e68174b1868043061
:104b200001f039fe631c0dd03419134b1b685c6017
:104b3000a64210d9114b18680f4b1968043101f0c7
:104b400052fc70bd002defd00b4b196804310c489e
:104b500002f0eef8f5e70b4b1868074b19680431c3
:104b600001f041fc084b1b68a342ead9064b1c60cc
:104b7000e7e7c046883b0020543b00205c3b002018
:0c4b8000f0390020583b0020783b00205a
:020000040000fa
:104b8c00f8b504000e0002f055fa0500a26b0027e0
:104b9c00e36b93420bd94523e35c5bb20132a26316
:104bac005a1c09d001335bb24522a35401272800bb
:104bbc0002f052fa3800f8bda36c002b0ad020008a
:104bcc0000f0fefe01370028f1d0002e11d0012399
:104bdc003360ece7636a0127002be8d02000243017
:104bec0000f00cf80028e2d0002e04d00123336032
:0a4bfc00dde70127dbe70127d9e719
:020000040000fa
:024c06007047f5
:020000040000fa
:104c080070b5c368dc6825001835280001f0bffdc1
:104c1800134b1b68002b1ed1251d280001f0b7fd82
:104c2800e36a104a1268934201d90e4a1360980049
:104c3800c01880000c4b1818290002f075f80b4baf
:104c48001b68e26adb6a00209a4203d9084b0122fa
:104c58001a60013070bd2900064802f065f8eee7d9
:104c6800683b0020703b002004370020543b0020a4
:084c78008c3b0020dc39002018
:020000040000fa
:104c800070b504001600856b026c002a0cd1002060
:104c90002368002b02d00135a56370bda06800f029
:104ca00027fb0023a360f6e7002e0ed1406802f038
:104cb000c3f86368226c9446634463603000a26862
:104cc0009342e8d323686360e5e7c06802f0b4f874
:104cd000236c5a42e3689b18e36021688b4203d23d
:104ce000a3689c466244e2600020022ed3d1002dce
:064cf000d1d0013dcfe729
:020000040000fa
:024cf600704705
:020000040000fa
:104cf800f8b50a21164802f026f90321154802f0f2
:104d080022f9154d154c27005037114e256021000a
:104d1800300001f03bfc8c350834bc42f6d10f4c16
:104d28000f4d2565210050310a4e300001f02efc50
:104d38002b002c33a36521005831300001f026fcec
:104d48005835256621006031300001f01ffcf8bda0
:104d5800543a0020603a0020402f00209c36002062
:044d6800b83400203b
:020000040000fa
:104d6c0010b584b06b46dc1dd871002002f0c2f87f
:104d7c00227880235b4213432370134a94238021af
:104d8c000906d15001f078fc0028fbd101216b46bb
:104d9c00d81d02f0e9f801f06ffc0028fbd10121cd
:104dac000e30684402f0aef801f066fc0028fbd12e
:104dbc00054a982380210906d15002f093f80e235e
:0c4dcc006b44187804b010bd0044004196
:020000040000fa
:104dd80010b5002303220821032001f0ebfc012376
:104de80000220721032001f0e5fc01f041ff040047
:104df800c1b22d2000f08ef8a3b21b0a00220721b1
:104e08002e2001f0d7fc01230622c0212e2001f01c
:104e1800d1fc0123052220212e2001f0cbfc012307
:104e2800072280210c2001f0c5fc08210e2000f08b
:0c4e380071f8ff21162000f06df810bd8d
:020000040000fa
:104e440070b5041e09d0436c8b4200d20b00e26a99
:104e54009a4202d0a16c012900d070bde362a1691d
:104e6400002902db0521cb1aa36193009a18920052
:104e74000c4b9a1863699342efd1251d280001f069
:104e840088fce36a084a1268934201d9064a13600f
:104e94009800c0188000034b1818290001f046ff41
:0c4ea400dbe7c04604370020703b002014
:020000040000fa
:104eb000f8b505000e00437a002b17d004680029ce
:104ec00026d0002c0cd0270000e01c007168206860
:104ed0003368984700280bd163682700002bf4d172
:104ee000002413e06f600be06b600fe000240de026
:104ef0002b68a3420ed063687b606b68a342f1d03d
:104f00006b7a013b6b722b68002bedd02000f8bd53
:0a4f1000271efbd063682b60efe75b
:020000040000fa
:024f1a007047de
:020000040000fa
:104f1c0010b582b06b46dc1dd8719971002001f080
:104f2c00e9ff227840235b4213432370114a9423f8
:104f3c0080210906d15001f09ffb0028fbd10121f3
:104f4c006b46d81d02f010f801f096fb0028fbd13f
:104f5c0001216b46981d02f007f801f08dfb00282b
:104f6c00fbd1044a982380210906d15001f0baffe5
:084f7c0002b010bd0044004129
:020000040000fa
:104f8400f0b5c64600b5144b9846144f144e1d0098
:104f940043461b68002b17d001f054fefb68dc6805
:104fa400201d01f0f6fb3368013b33602b68013ba5
:104fb4002b6001f00dff206b00f0b4fb200000f02b
:104fc400b1fb2b68002be7d1064b1b68012bdfd903
:104fd40001f02cfedce7c046643b0020043a0020cc
:084fe400603b002004370020af
:020000040000fa
:104fec0070b504000d0001f029fe2268216ce36b02
:104ffc004b43d018a0600020a06362605b1ad318ea
:10500c00e360ff234422a3540132a354002d0fd19b
:10501c002369002b03d101f0d7fe012070bd2000c5
:10502c001030fff7ebfd0028f5d001f0fbfdf2e7a7
:10503c002000103001f06bfe2000243001f067fee0
:02504c00e9e792
:020000040000fa
:02504e007047a9
:020000040000fa
:1050500030b583b004000d00002001f051ff134a69
:10506000942380210906d1506b466022da7101f049
:1050700009fb0028fbd101216b46d81d01f07aff06
:1050800001f000fb0028fbd12900200001f072ff95
:1050900001f0f8fa0028fbd1044a98238021090680
:1050a000d15001f025ff03b030bdc046004400419f
:020000040000fa
:1050b00030b583b004000d00002001f021ff134a39
:1050c000942380210906d1506b462022da8001f01a
:1050d000d9fa0028fbd101216b46981d01f04aff47
:1050e00001f0d0fa0028fbd12900200001f010ffc8
:1050f00001f0c8fa0028fbd1044a98238021090650
:10510000d15001f0f5fe03b030bdc046004400416f
:020000040000fa
:1051100070b582b016006b46d871124b1c78002c0b
:1051200002d1200002b070bd0f4b00221a700f4d4b
:10513000069beb602970281d0a00310001f07cfeff
:10514000ac7008236b70053beb70064b04221a70a1
:105150006b46d91d002001f055fbfef7ebfc040067
:10516000dfe7c046c33b00200d3c0020183a00207a
:020000040000fa
:1051700030b589b005008c2000f0feff041e1bd066
:105180000368002b18d082221a700e4a12682d0173
:105190005268521904320c49098806900b48059050
:1051a00001250495002003900293019500900123ae
:1051b000fdf746fa002801d009b030bd200001f00b
:1051c0009bf8f9e7ec3a0020a43b0020232b0000d9
:020000040000fa
:1051d000f8b50024144d154e03e037610134102c4e
:1051e00020d063001b199b00eb181b7adbb2e1b2e5
:1051f0008b42f3d133690127a7401f42eed06300f1
:105200001b199b0008495b58002be6d0080063007f
:1052100019198900411849681b199b001b5808007f
:105220009847dae7f8bdc0463c350020001800403a
:020000040000fa
:1052300010b5164b5a6b002a24d0824205d18369df
:10524000002b17d0002208e01a009369002b1bd016
:105250009842f9d18369002b05d0846899680919af
:105260009960002a08d0836993610023002282613b
:10527000180010bd1a00f4e7044b5a6b92695a6388
:105280000123f3e70023f3e70023f1e7a038002030
:020000040000fa
:1052900070b5040000f0f8fe002825d0200000f0d2
:1052a000fbfd041e1ed043780025002b12d183681d
:1052b000002b01d1436883600c4a3023d35c002b60
:1052c0000cd1200000f0d8f9002323756375013359
:1052d0006370002501f0fef9280070bd2000fef784
:1052e000e3faf1e70125f5e70125f5e7a03800200d
:020000040000fa
:1052f00070b5041e23d0836c013b8364c26a416c89
:105300008a421ed00020002b00d070bd251d280031
:1053100001f041fa606ce06205231b1aa3610a4b9d
:105320001b68984201d9084b186083001818800048
:10533000064b1818290001f0fbfc0120e5e70020ce
:10534000e3e70020e1e7c046703b0020043700207f
:020000040000fa
:1053500010b5114b1b78002b08d00f4b1b78013375
:10536000dbb2022b14d80c4a137010bd0b4b0c4847
:105370001861fa2292009a605a6000211973002382
:10538000084900f0a5f9084b1860431ce5d1ece78b
:10539000014b00221a70e8e7b73b00206439002077
:0c53a000695a0000b83b0020e43a0020ed
:020000040000fa
:1053ac00f8b5ff2808d00401134b1b685b681b1968
:1053bc001b7b7f2b17d8f8bd00240f4f3e0007e056
:1053cc0033685b685b1900221a730134052cf2d028
:1053dc00e0b225013b685b685b191b7b7f2befd927
:1053ec00fff7c0feece7fff7bdfe034b1b685b68e5
:0c53fc001c1900232373dee7ec3a0020ac
:020000040000fa
:1054080000230e4a10b513600d4a13600d4a13604d
:105418000d4a13600d4a13600d4a5362136101333c
:10542800936001f081fd01f056fd0a4c0a4b9c4245
:1054380000d310bd08cc9847f8e7c046983b002039
:105448001438002010380020083800200c380020bc
:0c54580018380020b8000000bc00000064
:020000040000fa
:1054640070b504001d00002906d001291bd00023bb
:105474000360012040421fe00020012b1cd80322be
:105484000021013000f01cff2060002810d0012d05
:105494000ed1002300220021fdf70afa013843420d
:1054a400584140b208e01900100001f0a5fc20604a
:0a54b4002068431e984140b270bd0d
:020000040000fa
:0254be00704735
:020000040000fa
:1054c00010b5134b1b78002b1fd100280dd0114baa
:1054d0001b68002b11d01620fcf732fb1f2401f0b3
:1054e000b1fa20401628fad110e00830fcf728fb6a
:1054f000074b00229a70082008e0054b01229a70a1
:10550000002001f01ff8162000e0122010bdc04658
:0855100048390020dc3a0020bc
:020000040000fa
:1055180010b5114b1878114b19780131c9b21970af
:10552800fff7e5fbfa20400000f0f3ff0c4b1b7877
:10553800022b07d00a4b1878431e9841c0b2fff7d8
:1055480082fd10bd074b1b789b07f3d1054b98686c
:1055580001f0fffceee7c046b13b0020b03b002065
:08556800c53b0020383a002089
:020000040000fa
:1055700010b500291bd0104b1b78022b12d90f4bf2
:1055800000221a800e4b1b68002b04d00d4a1278a3
:10559000082a04d098470b4b1b78042b02d0094be8
:1055a00008221a70044a13780133137010bd024b9d
:1055b00000221a70fae7c046c03b00202a390020ba
:0855c000f43a0020c33b002077
:020000040000fa
:1055c80070b50600124b1c78002c1ed0114b1b68be
:1055d8005b68002004e00130c0b21033a04212d052
:1055e8001a7b7f2af7d935781a799542f3d17578dd
:1055f8005a799542efd1b5789a799542ebd18442a0
:1056080002d1ff2000e0ff2070bdff20fce7c0466c
:08561800bc3b0020ec3a00202d
:020000040000fa
:10562000bff35f8f62b6114bc12189005a58ff202a
:105630008243bf3802435a5010221a60c3208000b0
:105640001a580b491140802212020a431a50802234
:1056500092011a6004301a5806491140c0221204ff
:105660000a431a508022d2021a60704700e100e01b
:08567000ff00ffffffff00ff38
:020000040000fa
:10567800f0b583b00190134c63689b6998476061eb
:10568800606901f0f7f9050000f0aafd01f0b4fc2b
:10569800a66ae76a00232a0092197b41a262e362a4
:1056a80001f0aefc0198fef7fbf8002801d103b029
:1056b800f0bd01f0a1fc0400fef7c2fb200001f0e0
:0856c8009ffcf4e7a03800206c
:020000040000fa
:1056d00070b582b005000e001c1e01d100281ed03e
:1056e000002a04d101246442200002b070bd0d4b99
:1056f000d8680023002100f08dfbfa2292000023dd
:1057000000f02afc0100009433002a000020fef77c
:105710003bfb0400431ce7d0fff7bafde4e701249c
:085720006442e1e7a03800201b
:020000040000fa
:1057280010b500280bd00300083b5b680f4a1268cd
:105738001a4204d0010008390968002900d010bdb8
:10574800083804009343436001f0e6fb084a6368a5
:1057580011688c4663441360200000f0b7f8054ace
:10576800136801331360fdf747ffe8e7403b00206b
:08577800443b0020503b0020df
:020000040000fa
:1057800070b504000d0001f05ffa114b1a682b6828
:10579000591c17d061680f4800682668864202d0fd
:1057a000012691420fd9501a834203d800232b605f
:1057b000012608e09b1a5b182b60200001f050facc
:1057c000002600e0002601f005fb300070bdc04659
:0857d000883b00207c3b002017
:020000040000fa
