:020000040000fa
:10000000f07f0020c1520000e36700006f6800002d
:1000100000000000000000000000000000000000e0
:10002000000000000000000000000000296900003e
:100030000000000000000000a1540000d16000009a
:100040004b6700004b6700004b6700004b670000e8
:10005000214900004b6700004b6700004b67000020
:100060004b6700004b6700004b6700004b670000c8
:100070004b670000d51c00004b6700004b67000079
:100080004b6700004b6700007d5e00004b6700007f
:100090004b67000000000000000000004b670000fc
:0c00a0004b670000000000004b670000f0
:020000040000fa
:1000ac00f8b5c046f8bc08bc9e46704759520000d3
:1000bc00f8b5c046f8bc08bc9e46704731520000eb
:020000040000fa
:0800cc00742b0000010000008c
:020000040000fa
:1000d400f0b58db0cb4b5b7a002b03d0ca4b1b78a9
:1000e400002b05d1c94b5b7a002b61d10db0f0bd5b
:1000f4000021c44804f07efa05000468002cf1d005
:10010400237b627b12021a43a37b1b041a43e37b07
:100114001b061343be4a1360be4a1378013313709f
:10012400237c627c12021a43a37c1b041a43e37ce3
:100134001b0613432422a25c2521615c090211439e
:100144002622a25c120411432722a25c12060a434f
:100154000392b14a02922122a25c01922022a25c63
:100164000092207d627d12020243a07d00040243be
:10017400e07d00061043217e627e12020a43a17ec6
:1001840009040a43e17e09061143227f667f360291
:100194001643a27f12041643e27f1206324300f094
:1001a400abfd994b00221a70280005f065fc99e715
:1001b40000f022ff002899d0984b19784a07cc0800
:1001c40001200440e400d20f03230b40013b5d42b5
:1001d4006b4103405b012243cc092040800113435f
:1001e40003438f4a137049b2002919db8b4a148ade
:1001f4008b4b5c80117b197391689960907b987329
:10020400527b5a731b789b0600d485e10b787f33ad
:10021400dab2162a00d983e19300824ad3589f4662
:100224007e4b5a687e4b5a60e0e78c2005f02cfb2d
:10023400041e00d174e17c4b1b78012b00d96fe1c3
:10024400774b9b685978794a1278914200d067e1dc
:10025400734a528876498a4208d07649098891427d
:1002640004d06f4a127b022a00d961e1987802f027
:1002740031fe02006c4b1b78012b2dd02368002b20
:1002840000d14de1912119705a700220012a08d839
:10029400694a12789a70694a1268d2681278da70d8
:1002a40002305f4d6a6869880694654e059601269a
:1002b400049600260396029301902b781b07db0f0c
:1002c40000930123002001f0adfd002800d027e1b8
:1002d400200005f0d1fb23e10138c0b20128cdd9bb
:1002e4002368002b00d11be191221a7062325a70ec
:1002f4000220d6e7534b1b78042b00d010e14b7837
:10030400012b00d90ce14b4b1a88494b9a420ad075
:10031400434b9b685b78012b14d0002b1ed14a4bb6
:1003240000225a7011e0262002ab9c46604401234f
:100334005b4203803f4d2c8005f042fc280005f011
:1003440029fce5e7404b06225a703f4b0022da7045
:10035400334b9b68987802f0bdfde1e03a4b0122f3
:100364005a70f2e78c2005f08ffa041e00d1d7e012
:100374002d4b1b78022b00d9d2e0294b9b685a786d
:100384002a4b1b789a4200d0cae00368002b00d1a4
:10039400c6e097221a70284a12785a70274a1268bf
:1003a400d26812789a701e48426841880694274d94
:1003b40005950125049500250395029303230193d4
:1003c40003781b07db0f00930123002001f02afdb3
:1003d400002800d0a4e0200005f04efba0e0194b5b
:1003e4001b78092b00d09be0194c00256570154b38
:1003f40007221a700d4b18780021e3689847e560ce
:100404008ee0c046343a0020b13b0020283a002058
:10041400b43a0020553b0020655d00005c390020a3
:10042400f4390020a04a00006b3b0020af3b0020c1
:10043400ffff0000583b0020ae3b0020c03a0020e4
:10044400233500005d3b0020d4390020232d00001b
:10045400e4390020022005f017fa061e60d0056872
:10046400002d5dd092232b70354b5b680993354b7f
:100474001b685f68002404e00134e4b20a37052ce9
:1004840029d008973b7a7f2bf6d93900099805f0d3
:100494002ffd0028f0d00023089a13726b70052cee
:1004a4001ed00224264b5a68598806962648059081
:1004b4000120049000200390029501941b781b07ef
:1004c400db0f0093012301f0adfc002828d130009c
:1004d40005f0d2fa24e001235c1cf022ea54e1e79f
:1004e4000223f9e74b78002b1ad1154b5e68154ba4
:1004f4001b685c682700323702e00a34bc420fd024
:10050400237a7f2bf9d92100300005f0f1fc002873
:10051400f3d00023237203e00c4b1b78072b02d08b
:1005240006f04ff8e2e50a4b1b6805489847f7e7e1
:10053400084b1b78012b00d1d2e6f2229ee6c0467e
:10054400f4390020c03a0020232d00005d3b002038
:08055400ac3a00206b3b0020d3
:020000040000fa
:10055c00103900201c000000000000004e3b002061
:10056c00020000000000000068370020500000006e
:10057c00000000004c3800200400000000000000c7
:10058c002c3900201c00000000000000883a0020dc
:10059c000400000000000000043a00200c000000e1
:1005ac0000000000f03800201d00000000000000da
:1005bc008c3a00200400000000000000523b002098
:1005cc000200000000000000903a0020040000002f
:1005dc00000000005a3b0020020000000000000058
:1005ec000d39002001000000000000009c360020a6
:1005fc006800000000000000402f0020fc050000f7
:10060c0000000000103a002018000000000000005c
:10061c00803a00200600000000000000943a002000
:10062c0018000000000000000e390020020000003d
:10063c00000000005c3b00200100000000000000f6
:10064c00553b00200200000000000000c2380020d2
:10065c000200000000000000863a002002000000aa
:10066c0000000000283a00201800000000000000e4
:10067c00d43900201000000000000000403a002097
:10068c001800000000000000583b00200200000091
:10069c0000000000573b002001000000000000009b
:1006ac005d3b00200100000000000000ac3a00207f
:1006bc000800000000000000e439002020000000c9
:1006cc0000000000b43a002004000000000000000c
:1006dc006b3b002001000000010000000300000043
:1006ec00ae3b0020010000000100000001000000f2
:1006fc00af3b00200100000001000000ff000000e3
:10070c00a03b00200800000001000000ab112233c8
:10071c0044556622b13b002001000000010000009e
:10072c0001000000903800203200000000000000a2
:10073c00543b002001000000000000005e3b002044
:10074c000100000000000000b03b00200100000090
:10075c0001000000010000008c3b00201400000090
:10076c000100000000000000903800200000000094
:10077c00b03b002000000000b23b00200100000054
:10078c00010000001a0000005f3b00200200000086
:10079c000000000048390020140000000000000098
:1007ac00b83a00200c00000000000000613b002063
:1007bc000100000000000000583a00200800000072
:1007cc00000000005c390020140000000000000054
:1007dc00503b00200200000000000000c43a002042
:1007ec0004000000000000004c3b00200200000050
:1007fc0000000000623b0020070000000000000029
:10080c003c350020c000000000000000693b0020c7
:10081c000100000000000000c43800202c00000083
:10082c0000000000603a00200800000000000000fa
:10083c00503800204000000000000000fc35002073
:10084c00a000000000000000ac3b002002000000f3
:10085c000100000001000000c83a00200400000064
:10086c0000000000083800204400000000000000d8
:10087c00cc3a00201c00000000000000a83b002027
:10088c000400000001000000aaaaaaaae83a00206d
:10089c00040000000000000000000020402f0000b9
:1008ac0000000000ec3a00201400000000000000e2
:1008bc00683a00200800000000000000003b002007
:1008cc000c00000000000000043700206400000051
:1008dc00000000000c3b0020140000000000000091
:1008ec00703900202800000000000000203b002090
:1008fc0010000000000000009839002014000000d7
:10090c0000000000303b002004000000000000004c
:10091c00ac3900202800000000000000343b00200f
:10092c000800000000000000703a002008000000e1
:10093c00000000006a3b00200100000000000000e5
:10094c003c3b00200400000000000000b8370020f1
:10095c005000000000000000403b0020040000009c
:10096c00000000006c3b0020200000000100000093
:10097c000100000003000000000000000000000067
:10098c00000000000000000000000000783a002089
:10099c00783a00200800000000000000443b0020d2
:1009ac000800000000000000000000000000000033
:020000040000fa
:1009bc000023f0b506001500b1b007910393079919
:1009cc000b78002b00d10de101235b420c9310ab93
:1009dc0000240e9380230b940d940f930b5d002b2e
:1009ec0001d0252b2ad1002c06d02200300004f097
:1009fc009bff079b1b190793079b1a78252a00d08e
:100a0c00e5e0013304930793022301219c46102750
:100a1c00079803782b2b1ad025d8202b1ad0232bf0
:100a2c001dd02a2b28d004f019fe0d90079b1a78a4
:100a3c00303a092a31d801330793f7e70134cde76f
:100a4c000b9b05930b4301300b930790e0e70423ba
:100a5c000b9a0fe00b9b0593059a08230ae00b9b5e
:100a6c0005933b43efe72d2bead0302bd9d16246cf
:100a7c000b9b05931343e6e72b6801301a1d1b688b
:100a8c0007902a600d93002b07da0b9a5b420592b4
:100a9c00012205990d934a400b920b9bda0702d564
:100aac00022293430b93079b1a782e2a0ed1002215
:100abc00581c0c9207905a782a2a28d10233079393
:100acc002b681a1d1b682a6005930c9307a804f069
:100adc009bff079b0700187805f069fe692800d179
:100aec0083e035dc632800d1dde01bdc252800d158
:100afc00eae0612859d0049b01220793002352425b
:100b0c000c920b930d93784900930232e7e004f0ba
:100b1c00a5fd0c90079b1a78303a092ad6d80133d8
:100b2c000793f7e7642860d06728e4dc2a003900d3
:100b3c0008a805f098f8002800d1b0e0079b0ba995
:100b4c005a1c07921b7808aa300005f0e2fe3de023
:100b5c00702800d17de016dc6e2800d198e06f285b
:100b6c00c9d12b000022390008a802f075fc00281e
:100b7c0000d194e0079b08aa01330ba9300007931e
:100b8c0005f0c5fe22e0752840d078284fd0732898
:100b9c00b1d1802f00d082e0079b2a6801330793e4
:100bac00131d2b601268002389e02a00390008a865
:100bbc0005f059f8002800d171e0079b0ba95a1ccd
:100bcc0007921b7808aa300005f0a3fe2418039b9b
:100bdc001c19a34200dc84e04f22444b1a60012311
:100bec005b420393039831b0f0bd2b000122390016
:100bfc0008a802f031fc002851d0079b08aa013349
:100c0c000ba93000079302f03ffddfe72b00002219
:100c1c00390008a802f020fc002840d0079b08aa45
:100c2c0001330ba93000079305f071fecee72b00c2
:100c3c000022390008a802f00ffc00282fd0079bd7
:100c4c005a1c07921b7808aa0ba9300001f0bbfaba
:100c5c00bce72b000022f02108a802f0fdfb0028c5
:100c6c001dd0079b099a01330793089b13430dd1a1
:100c7c001d4f1637380005f02dfc390002000b9b78
:100c8c0000930d9b300003f0e6fa9fe77823dae738
:100c9c00039b39001a1908a82b0003f045fd079b8c
:100cac000133079393e7802ff9d1079b0133079307
:100cbc002b681a1d1b682a6008aa137001230ba944
:100ccc00300004f0a1f981e7802fe8d10122079bc5
:100cdc000549013307930b9b049300930d9b1c3127
:100cec00d0e703946be6c0463c620000483b002012
:020000040000fa
:100cfc00f0b5de4657464e464546e0b589b0051c74
:100d0c0005900e0006911100090a0792029312ab8e
:100d1c001c78ad06ed0f0396d7b2cbb201938c20a5
:100d2c0004f0aefd8046002800d14ce1006800289c
:100d3c0000d14ae10c23994681444b46436005abf4
:100d4c001b789c465b0700d50127032263461a409b
:100d5c00012a3ed051425141c9b29d4b1b8805ae70
:100d6c0076899e4237d000239b4607339a465346da
:100d7c000833002f00d0063b019e002e3ad00233e0
:100d8c00dbb204932426b246664653461e40202e00
:100d9c0034d0032a34d0a21c049b9b180373012269
:100dac00531c9c464b46995405ab6d011978202673
:100dbc00b1430d431d70eb439b0729d0002f79d015
:100dcc00019b002b70d002328823416866468b55fc
:100ddc007ee00321c1e77f4eb34206d04023194386
:100dec0001239b4604339a46c1e700239b460733f5
:100dfc009a46bce70833dbb20493c3e73143c8e738
:100e0c0001230193002500239b4600210022c7e704
:100e1c008023416865464b556f490b785d1c0d70fe
:100e2c00d51c023241688b545b46002b0ad16a1cdc
:100e3c00d2b267490b78466873550235edb24b78e0
:100e4c0041688b54019b002b00d190e0634a1378ce
:100e5c0041684b55ab1cdbb20135edb252784168a1
:100e6c004a55002c0ad0029a1c19e4b2591c157868
:100e7c004668f5540132cbb29c42f7d1584b149ac8
:100e8c001a60434603600122022104f027fc00286b
:100e9c0000d080e00130159b002b00d18ce01800b5
:100eac0004f0e6fd012087e00232c8234168664663
:100ebc008b550de0019b002b05d002328c23416831
:100ecc0066468b5504e00232cc23416866468b554e
:100edc0041490b785e1c0e7041688b54511cc9b291
:100eec0005ab04939e7ab446466863467354d11c92
:100efc00c9b28946931cdbb29c46049bdb7a4668dc
:100f0c00614673546b070ad5ff27436849465f5403
:100f1c00551dedb20432d2b243689f5484e7002fc2
:100f2c000cd003990b7845684e46ab55551dedb268
:100f3c004b780432d2b241688b5475e7039b150091
:100f4c000b35e9b28c46019e494665469446a1464e
:100f5c002a004d1c1f78446867540133e9b2914252
:100f6c00f7d1624601964c460b32d5b25ce71d4b6d
:100f7c005e68370008373200ae1ba4461178b318f0
:100f8c00dbb24468e1540132ba42f7d164462b001b
:100f9c000833dbb265e7144b01221a70134a13783d
:100fac00013b1370159b002b02d0180004f060fd60
:100fbc00404604f05dfd002009b03cbc90469946cb
:100fcc00a246ab46f0bd0020f6e70020f4e7c04691
:100fdc00503b0020ffff0000613b00204c3b0020f9
:100fec00c43a0020583a0020b13b0020553b002069
:020000040000fa
:100ffc00f8b50021ab4803f0f9fa002800d14de117
:10100c000268002a00d14be1536819785e784024bd
:10101c002640a54b00241c70dc73013c1c825468d8
:10102c00a3783325ab43882b00d197e00ad9c82b82
:10103c003ad0cc2b6bd08c2b00d1c7e004f018fd30
:10104c0000201ce1082b00d1ece0802bf6d1964b54
:10105c001c7804252543802464422c431c700124f5
:10106c00dc73546824791c74546864795c74546817
:10107c0006345c600c00093c1c73546808349c609a
:10108c0053685c78230700d5e0e007232340012b4d
:10109c0000d1dfe0002b00d1fae0032b00d1efe010
:1010ac0004f0e6fc0020eae0a379ff2b16d07e4d7d
:1010bc002f7880235b423b432b70002e17d0247972
:1010cc002c74546864796c74546808346c600c002b
:1010dc00113c2c7354681034ac60d1e7e379ff2bce
:1010ec00e5d1714d2b7804273b432b70dfe7247a35
:1010fc006d4b1c745468647a5c7454680a345c607c
:10110c000c00133c1c73546812349c60b8e7664d99
:10111c002f7880235b423b432b70002e0ed024791a
:10112c002c74546864796c7454680e346c600c00c4
:10113c00173c2c7354681634ac60a1e7a47b5a4b53
:10114c001c745468e47b5c74546810345c600c0050
:10115c00193c1c73546818349c6091e7a379ff2bdd
:10116c001ad0514b1d78802464422c431c700124ee
:10117c00dc73002e19d153681c7a4b4b1c745468c9
:10118c00647a5c7454680a345c600c000d3c1c730b
:10119c0054680c349c6073e7e379ff2be1d1424c2b
:1011ac00237804252b432370dbe753681c793e4bd3
:1011bc001c74546864795c74546808345c600c006a
:1011cc000b3c1c7354680a349c6059e7364b1d78f1
:1011dc00802464422c431c700124dc73002e10d03c
:1011ec0053681c79304b1c74546864795c74546873
:1011fc000d345c600c00113c1c73546810349c6002
:10120c003ee753685c7b284b1c745468a47b5c746d
:10121c0054680f345c600c00133c1c73546812341b
:10122c009c602de7a379ff2b07d01f4c0b00083bcc
:10123c00237353680833a36022e7e379ff2bf4d1bf
:10124c00194c237804252b432370eee704f010fc93
:10125c00002014e0144c23780325ab432370023197
:10126c00c9b253685b18023b1b780f4ca3735368cd
:10127c00591801390b78637304f0fafb0120f8bd9f
:10128c00094c23780325ab4301252b432370e6e758
:10129c00054c237803252b432370e0e70020eee771
:0c12ac000020ece7283a00205c3900200c
:020000040000fa
:1012b80070b50d007f4b1c78042c00d1e7e04e2858
:1012c80007d059280ad10a787b4b1a7700242000c6
:1012d80070bd0a78784b1a750024f8e7754b5a7870
:1012e8000f2a00d1d5e00b2800d1c6e016d9532823
:1012f8007cd047d84f2868d089245028e7d16e4c35
:101308000b880978a1731b0ae373222003f0a6f95e
:10131800e17b232003f0a2f90024d8e7022800d1ba
:1013280082e00cd9032800d19de0042828d1002ca4
:1013380000d0b4e00c78002cc9d08824c7e7002876
:101348001cd1002c00d0a6e00b785c49d940c90715
:1013580000d4a2e0082a00d1a3e0082000f0b0f8e9
:101368000828fad12b78544ad37400221f21082068
:1013780004f008fe162000f0a3f8a8e78924a6e7e1
:101388008924a4e7572840d08924f0289fd10a68e7
:101398004b68494d2a70110a6970110ca970120e18
:1013a800ea702b711a0a6a711a02120eaa711b0ec0
:1013b800eb7124242978200003f050f90135013419
:1013c800e4b22c2cf6d1002481e70b783a4a537505
:1013d800d27e934201d9384b5a75374b5b7d002238
:1013e8000f212f2004f0cefd002470e7324c0b882b
:1013f800097821731b0a6373202003f02ff9617b9e
:10140800212003f02bf9002461e70b782a4ad376d0
:10141800527d9a4201d9284a53750422f0212f207f
:1014280004f0b0fd002452e70878830612d43f2365
:101438000340042b00dd0420802318431e4bd8757d
:1014480003f034fe030000220f21052004f09afd6a
:1014580000243ce742421f2313405b425bb2113336
:10146800eada2f20e8e70b78134a93740522602103
:10147800082004f087fd002429e70b780e4a9375ad
:10148800032208212e2004f07dfd00241fe7862476
:101498001de781241be7862419e7882417e786249b
:1014a80015e7054ad37400221f21082004f06afdbd
:1014b8000de7c0462c390020f038002000f8ff075f
:020000040000fa
:1014c80070b504007c4b5b780f2b07d00338c2b291
:1014d800162a5fd89000794a125897460f286ed07e
:1014e800754d00232b7104f05ffd08236b70082ce9
:1014f80000d1dde0032c00d1dce0201fc3b2152ba6
:1015080048d898006e4b1b589f460321022003f0d1
:10151800a5f80f2002f0caff10210e2003f09ef854
:10152800654c0f236370012004f03aff654b80225d
:1015380052039a61232004f033ff60783fe05e4b4a
:101548005b78082b26d00821022003f087f80120b9
:1015580004f026ff1ee0082b1cd00321022003f014
:101568007df8012004f01cff14e0534b5b78082b36
:1015780026d00dd9162b01d0192b0bd1082102200a
:1015880003f06cf8012004f00bff02f02df901e0e4
:10159800062bf3d0012002f089ff1f231840464b89
:1015a800587063241d001f2809d1012002f07eff16
:1015b8001f2318406870013ce4b2002cf3d170bdc1
:1015c80002f012f9e6e73c4b5b78082b06d0092bb2
:1015d800e0d00421022003f041f8dbe702f004f92f
:1015e800d8e7354b5b78092b11d00cd81f24082b72
:1015f800d0d10621022003f031f804f047fe204044
:101608000628f6d1c6e7162b01d0192bc2d108211e
:10161800022003f023f81f240621022003f01ef8fd
:1016280004f034fe20400628f6d1b3e7224b5b785d
:101638001f24082b16d004d9092b04d0192ba9d1a3
:1016480001e0062ba6d10821022003f007f81f2489
:101658001621022003f002f804f018fe2040162894
:10166800f6d197e71621022002f0f8ff04f00efeeb
:1016780020401628f6d18de70f4b5b78082b12d047
:1016880005d9092b06d0162b00d083e702e0062bdc
:1016980000d07fe70821022002f0e0ff1921022094
:1016a80002f0dcff76e71921022002f0d7ff71e78c
:1016b800200084e7082082e72c390020e03500006c
:0816c8003c3600000044004123
:020000040000fa
:1016d000f0b5c64600b584b001900f0002939600a5
:1016e000300000f0a3fe051e00d1bae0542000f047
:1016f0009dfe041e58d005633200a521280004f089
:10170000dbff236b9846002f54d03b783422a35440
:10171000002b09d0012321003431fa5cca54002a7d
:1017200002d00133102bf8d143230022e2540a9d4a
:10173000042d00d90425e56265640027a764231df4
:101740000393180005f0e0f82000183005f0dcf8ed
:10175000246105235b1ba3616462e7645023e754a3
:10176000301f4044493b9843029a019904f046fdda
:1017700020600b9b002b00d01c6004f08dfe3c4ac7
:101780001368013313603b4b1b68002b16d03a4b98
:101790001b68002b17d1374b1b68db6ae26a934248
:1017a00011d8344b1c600ee0280003f0e1fa012050
:1017b000404258e034230022e254b8e72d4b1c602d
:1017c0001368012b23d02d4a136801331360e36a99
:1017d0002b4a1268934201d9294a13609800c01815
:1017e0008000284b1818039904f0e2fe04f028ff4b
:1017f000214b1b680120002b35d01e4b1b68da6a79
:10180000e36a9a422fd204f03bfe01202be01d4deb
:10181000280004f0c2fe2800143004f0befe2800a8
:10182000283004f0bafe28003c3004f0b6fe280050
:10183000503004f0b2fe144e300004f0aefe134df2
:10184000280004f0aafe124804f0a7fe114804f094
:10185000a4fe114804f0a1fe104b1e60104b1d6049
:10186000b1e70120404204b004bc9046f0bdc04640
:101870000c3b0020003b0020303b0020183b0020a8
:101880001c3b0020043700207039002084390020e0
:1018900098390020c0390020ac390020043b0020da
:0418a000083b0020e1
:020000040000fa
:1018a40070b50500594c207fc0b2002800d0a7e0d5
:1018b40000294ad0002d48d0554c6668072434408e
:1018c400012c5ed05148056042600024446184616b
:1018d40004614e488160002a58d04c4ad3604b4a78
:1018e400012111774a4a127e520705d5484a04203d
:1018f400916a117e0142fbd1454a518b0420014378
:101904005183117e80200143117640498a68c96859
:10191400914203d93d48c168891a01613c4949682b
:10192400490743d139498969914233d2374a116809
:10193400087837498862916901319161002b5ad046
:10194400334b04229a7501205be0002b59d0002a06
:1019540057d02f4c666807243440012c0cd02b48f8
:10196400056042600024446184610461002db0d1ab
:10197400264900208860aee7002943d1dc07eed574
:101984003fe0cc073dd4002be9d0f7e71f4a002104
:10199400d160a4e71d4a1269002acfd01c4aff2156
:1019a40091621a490a69013a0a61c7e7174a9168bc
:1019b40049089160116949081161d1684908d160e9
:1019c400916892698a420ad210490a681288d2053b
:1019d400d20d0f4882628a6901328a61aee70b4aee
:1019e4001269002aaad00a4a0a49916207490a6977
:1019f400013a0a61a2e7064b01229a75012000e030
:101a0400002070bdcc07b9d5fbe7c046c438002020
:081a140000180042ff01000070
:020000040000fa
:101a1c00f8b503f073fc002800d08fe04c4c9825ef
:101a2c0080231b066351802636026651db0a6361f4
:101a3c00a530400004f0b2fc9423e6500a2004f0d8
:101a4c00adfc66510a24642004f0a8fc1c2002f0b2
:101a5c002bfd0b2805d0013ce4b2002cf3d18527db
:101a6c006de00821093802f0f7fd642004f096fcc3
:101a7c0000221f21012004f023fe0a2408280cd088
:101a8c00642004f08bfc00221f21012004f018febe
:101a9c00013ce4b2002cf1d1e1e72e4b08225a7044
:101aac002d4804f0e3fb00284bd1012002f0d4f9bf
:101abc00071e4ad1294d08e0284c2600083604f0b0
:101acc00fdfc20700134a642f9d12878697809020e
:101adc000843a97809040143e8780006084302008a
:101aec002879697909020843a97909040143e8793d
:101afc0000060843030001204042c11712184b4155
:101b0c00591c01d1d31cd7d800221549002004f050
:101b1c0087f9002004f01cfe02f08cfc8c2003f0f2
:101b2c00affe104b186000280dd0ff210e4804f0ba
:101b3c004cfe084b822252045a6100e08527380083
:101b4c00f8bd8527fbe78527f9e78527f7e7c0462a
:101b5c00004400412c390020523b0020f03800207a
:0c1b6c00396800008c3a0020043a002088
:020000040000fa
:101b7800f0b5de4657464e46c0b58ab00891150006
:101b8800099312ab1b78994613ab1b789a4614ab92
:101b98001f78494b1b780024072b00d07fe04c2a84
:101ba80000d97be0022807d14a7812020b789b18eb
:101bb8009bb2424a934238d08c2003f063fe83469e
:101bc800002800d176e006680024002e67d0159b17
:101bd8007360300008300822089904f05ffd4b4616
:101be800337575753474534673746623f754163613
:101bf8002a000999300004f051fd314b19880694e8
:101c0800304b0593534604934b4603930296019534
:101c180000970023089a002000f002f9041e38d02b
:101c28005946294804f072f839e08a3003f02afe50
:101c3800061e3bd0006800283ad0159b43604b46ef
:101c48000375457504746623c754503b9a4682440d
:101c58002a000999504604f021fd194b1988069469
:101c6800184b059304944b460393534602930195ee
:101c780000970023089a012000f0d2f8041e04d02f
:101c88003100114804f042f809e0300003f0f2fe98
:101c980005e0584603f0eefe012400e00024200091
:101ca8000ab01cbc91469a46a346f0bd0024f6e74c
:101cb8000024f4e70024f2e75d3b0020ffff00006a
:0c1cc800583b0020295500004c3a002039
:020000040000fa
:101cd40070b5504b586a504b9b7d002b54d04e49e5
:101ce4004c68072214404b4b5a699d699e680b7ed1
:101cf4005b0757d5896a474bdb68934252d9002c5e
:101d040043d1444b5b6899540132434b1b7edb0740
:101d140016d5414b012119753e4b9b68ab4256d9f0
:101d24003c4b1b68595d3c4b99620135394b1b692f
:101d3400002b01d1b54262d0364bdb68934262d0ae
:101d4400344b5a619d61344b1b7e9b0715d5334b35
:101d54001b78002b18d02f4bdb68934211d12d4bed
:101d640000221a772c4907240c752c490a701b6a27
:101d7400002b09d0274b1b6a9847284b1b78002b54
:101d840002d0254b02229a7570bd224b5b68540029
:101d9400e1520132204b1b7edb07d1d51e4b0121c2
:101da400197508e01c4b1b7edb07c9d51a4b0121b2
:101db4001975002cb0d0174b9b68ab4213d9154b47
:101dc4001b686900c95a144b99620135aee7114b7f
:101dd4001b69002baad0104bff2199620d490b6996
:101de400013b0b61a2e70b4b1b69002b9ed00a4bf6
:101df4000b49996207490b69013b0b6196e7074b55
:101e0400012119709ce7044b01219975033119755f
:101e140096e7c046c438002000180042693b002001
:041e2400ffff0000bc
:020000040000fa
:101e2800f0b5de4657464e464546e0b583b0060057
:101e38006846c18000921f000cab187880460dab35
:101e4800187882460fab1878834610ab1d788c2023
:101e580003f018fd8146002800d178e00468002cc2
:101e680000d176e0734273415b421d4001231d405f
:101e78006d01032217401800304081002f4340466f
:101e88001840c2000f4300216177267701214e4098
:101e980033409b0117433b4380225242134323752f
:101ea8000099a1616b46da88e283002906d0237d78
:101eb8005b0741d4201d082204f0f0fb0e9b23741d
:101ec8000e9b1b0a63740e9b1b0ca3740e9b1b0eac
:101ed800e374231da361119b2373119b1b0a637376
:101ee800119b1b0ca373119b1b0ee37321235a46f2
:101ef800e254013b5246e2540433129ae254129bd4
:101f08001a0a2523e254129b1b021b0e2622a354f5
:101f1800129b1b0e0132a35449460f4803f0f6feec
:101f280000280fd103f006ff012003b03cbc904607
:101f38009946a246ab46f0bd201d0222009904f046
:101f4800adfbbbe7484603f095fd0020ede7002018
:0c1f5800ebe70020e9e7c046343a002027
:020000040000fa
:101f6400f0b5ce4600b584b00400009101921f0084
:101f74000025442640e0a66b3a000099200002f0b8
:101f8400e7f9a36c002b11d0022f00d180e02000d0
:101f940003f066f8002806d104f050fb012004b0d9
:101fa40004bc9146f0bd04f069faf5e7636a002bbe
:101fb40004d10028f0d004f061faede720002430c9
:101fc40002f08af90028e7d004f058fae4e704f0b4
:101fd40035fb0020e3e702a804f068fa19e00023c7
:101fe400a35520e045230022e25421e0200001f023
:101ff40087fd00f0affd012504f04cfaa36be26b02
:102004009342b8d3022f3ad0019b002bdfd0002d8e
:10201400e1d004f013fb04f0b7fb04f03bfaa35d3a
:102024005bb20133dbd04523e35c5bb20133d9d02f
:1020340004f004fb01a902a802f0c4fe002817d191
:1020440004f028faa36b9946e56b04f0f7faa94566
:10205400ccd120001030019904f052f9200001f095
:102064004ffd00f077fd0028c5d104f007fac2e760
:10207400200001f045fd00f06dfd00208fe7a66b08
:1020840002220099200002f063f9a36c002b8dd08a
:08209400002e00d080e77ae77e
:020000040000fa
:10209c00f0b585b00400019100230093002544267f
:1020ac00002743e0013ba3632368002b09d023697d
:1020bc00002b0ad104f0befa01230093009805b05e
:1020cc00f0bd04f027f9a060f1e72000103002f019
:1020dc00fff80028eed004f0cdf9ebe704f0aafaf3
:1020ec0000230093eae702a804f0dcf928e0a755e6
:1020fc0030e04523e75432e004f0c8f9a06801f061
:10210c00d7fd009004f096fa39e0200001f0f4fcc1
:10211c0000f01cfd09e0200001f0eefc00f016fdc3
:10212c00200004f091fa002838d1012504f0aef912
:10213c00a36b002bb6d1019b002bcfd0002dd2d09e
:10214c0004f078fa04f01cfb04f0a0f9a35d5bb278
:10215c000133ccd04523e35c5bb20133c9d004f02e
:10216c0069fa01a902a802f029fe0028d3d12000a7
:10217c0004f06afa0028c8d02368002bbcd02000d9
:10218c002430019904f0b8f8200001f0b5fc00f0ff
:10219c00ddfc0028c9d104f06df9c6e7009b002bcb
:1021ac0000d18be704f072f9616a002903d0236b2c
:1021bc001b680521c91aa06802f0e2f904f03afa8a
:0621cc00002300937ae7f6
:020000040000fa
:1021d200f0b58fb00d934b680c9006938b680d0091
:1021e2000793cb6816000393069b0f68002b44db12
:1021f20002239f4310233b400a93079b04930a9bad
:10220200002b07d0726833681343079a02d0130079
:10221200023b049308233b400b935a1e9341049aba
:10222200d31a04933368039a0893736809932b694a
:102232005c1e00231355069b0593012c20dc0a9b90
:10224200002b51d10b9b002b03d02023039a013c7e
:1022520013552b6900975a1e039b121b19190c98d0
:10226200079b01f0fdff0c9b5b68db0503d56b68e8
:10227200984200da18000fb0f0bd01230693b9e7c7
:10228200089b099a13430bd1059b002b08dc069a85
:10229200049b9b1a059a9b18002bd0ddbb07ced559
:1022a2000f23089a013c134018005730092b01dc18
:1022b200303318000d9b413b192b06d820230343d2
:1022c200613b192b01d804f07efa039b1855059b3c
:1022d200013b0593099b1a07089b1b091a43099b9b
:1022e20008921b090993a8e70cce1343aad0039bbb
:1022f2000d9a1b19013b1a703023039a023c1355a5
:02230200a0e752
:020000040000fa
:1023040070b588b004001e236b44012252421a8027
:102314003b4804f057f93b4804743b4900f0e0ffa4
:102324000f284ad00022002302920393374d08322b
:10233400290002a804f00ef8040001225242d31727
:10234400029203930932290002a804f003f800283a
:1023540001d0002c08d12d4c2500083504f0b2f82a
:1023640020700134ac42f9d10822284904a804f0b1
:1023740097f904a9f020fef79dff002003f00cff5d
:102384002349002003f024fe041e33d0204c20787f
:10239400002102f064f91f4b00221a7020781e4bb2
:1023a400009300231e326a44022102f087fa441e7d
:1023b400a041c4b2200008b070bd184c200003f046
:1023c4002bff174e717825000c35280003f024ffed
:1023d4003178280003f020ff2000103003f01cffa8
:1023e400104b197820001c3003f016ff02f005fa98
:1023f4000124dfe7064b187802f059fedae7c046fd
:102404001d6000008c3b0020543b0020a03b0020ba
:10241400b23b00205e3b002019540000bc61000068
:08242400583b0020af3b0020f3
:020000040000fa
:10242c00f8b5040004f0acf9404b1b68002b15d038
:10243c003f4b1e68344238d1002c3dd0220008326c
:10244c00530702d007239a430832002a34d0394b61
:10245c001f68974233d338490c6835e0374a530725
:10246c0020d0d11d07239943bd239b019c46624478
:10247c00531a0a003048026000214160d318083b0f
:10248c00072083432948036059601960991a5160e9
:10249c0013602b4b1960274b1960254b80221206b9
:1024ac001a60c5e7bd239b01e4e700f04ffb04f085
:1024bc002afa00252800f8bd00f048fbf7e700f0e9
:1024cc0045fbf4e721001c006368934202d22368a9
:1024dc00002bf7d1154b1b68a3421ed00d68083595
:1024ec0023680b6063689b1a102b19d86368ff1a5a
:1024fc00104a1760124a1268974201d2104a1760ac
:10250c001e436660002323600e4a13680133136078
:10251c0000f01cfb002dcdd1c9e700f017fbc6e77e
:10252c00a0184360626002f0f3fcdfe7e83a002099
:10253c00ec3a0020f03a0020683a0020000000201d
:08254c00f43a0020f83a0020e7
:020000040000fa
:10255400f0b5c64600b582b03a4b1b68002b65d176
:10256400394b1a68013290461a60002a18d0374b4a
:102574001b68434521d900230193354b1b68da6a54
:1025840093009b189b00334a9b58012b01d90123cc
:102594000193314b1b68002b4ed0012301934be078
:1025a4002e4a11682e4b1868106019602d4a136862
:1025b4000133136003f030fbd9e700230193274e66
:1025c400370033681b68002b28d03b68db68dc6865
:1025d4006368984527d3251d280003f0c2fca36a2d
:1025e400002b03d02000183003f0bbfce36a1e4a22
:1025f4001268934201d91c4a13609800c0188000e5
:10260400144b1818290003f0d1ff114b1b68e26a20
:10261400db6a9a42d5d301230193d2e70b4b012203
:1026240052421a60a9e7094a1360a6e70f4a1368e1
:102634000133136000230193019802b004bc904657
:10264400f0bdc046143b0020343b0020243b002056
:10265400003b002004370020383b0020043b0020ce
:10266400083b0020283b00201c3b00202c3b002082
:020000040000fa
:1026740070b52b4b06225a6001f0f6f901f0a6f969
:1026840004f0aef803f04cf801f02efc02f06affff
:102694002449002000f060fd234b1860234c244b98
:1026a4002360244b6360244ba360244be360244bde
:1026b4002361244b6361244ba361244be361244bca
:1026c4002362244b6362244ba362244be362244bb6
:1026d4002363244b6363244ba363244be363244ba2
:1026e4002364002314220121224802f061fa00230a
:1026f40014220121204802f05bfa204d04224021db
:10270400280003f08bfe2900200003f0cdf903f02c
:1027140013fe02f0a7fa02f0a5fafff77df970bde7
:1027240000400041a8680000d43a00200838002086
:1027340075630000d9630000b54b000041600000e0
:10274400f16300006d590000df66000021640000a1
:1027540089600000a1590000ad600000f16600002e
:10276400dd650000f16500006f6500007968000018
:1027740081680000cc3a0020d03a0020c83a0020fa
:020000040000fa
:1027840010b586b00378122b05d0132b2bd0102b49
:1027940054d006b010bd16246c4401235b42238040
:1027a4002e4b1878062101f051fbc9b24b00591881
:1027b400cb005b1a2a495b182a490a78501c087016
:1027c40029490391002102910131019100921522be
:1027d40021000220fff7cef90028dad01f4a13782f
:1027e40001331370d5e70024204b1c70204b18785c
:1027f400062101f02bfbc9b28b005b185b005b1850
:102804001c4a11785b181c495b1816490a78501c3d
:1028140008701549039102940121019100920b2241
:1028240016490820fff7a6f9002804d0104a1378a7
:1028340001331370ade703f01ef9aae70b4b1a78c6
:102844000f4b1b78023b9a4203d9084b00221a70a3
:102854009fe70132054b1a709be7c046643b00209a
:1028640070400000673b0020055e0000683b0020cc
:10287400653b0020663b00205c540000903800203b
:04288400563b00209f
:020000040000fa
:10288800f0b5c64600b584b0040000910192002757
:1028980044260023984638e00099200003f026fcdf
:1028a8006b1ea3632369002b06d103f0c5fe01202c
:1028b80004b004bc9046f0bd2000103001f00afdc1
:1028c8000028f2d003f0d8fdefe703f0b5fe0020b2
:1028d800eee702a803f0e8fd21e04346a35528e00f
:1028e80045234246e25429e0200001f007f900f0b0
:1028f8002ff909e0200001f001f900f029f9200082
:1029080003f0a4fe002835d1012703f0c1fda56b13
:10291800002dc1d1019b002bd7d0002fd9d003f0b7
:102928008bfe03f02fff03f0b3fda35d5bb2013311
:10293800d3d04523e35c5bb20133d1d003f07cfef6
:1029480001a902a802f03cfa0028d3d1200003f024
:102958007dfe0028c8d020002430019903f0cefc69
:10296800200001f0cbf800f0f3f80028ccd103f0f8
:0829780083fdc9e700209be785
:020000040000fa
:10298000f0b583b00d0016001c00364b1b780422f6
:1029900093430022012b02d0100003b0f0bd314b55
:1029a00002321a70012836d0002808d0022852d0ee
:1029b0000120a0472b4b01221a700022ece76b4646
:1029c00000225a716b46981d01235b420380264dfd
:1029d000264b2b8003f0f6f8280003f0ddf8f30710
:1029e0000dd46b4659790131c9b2012200e01900ba
:1029f00052004b1cdbb23242f9d06b4659716b4628
:102a0000591d002003f0e6fa164b07221a70002029
:102a1000a0470122c0e76b46981d01235b4203805b
:102a2000114f124b3b8003f0cdf8380003f0b4f89f
:102a30006b46053300222900300000f025fb01a978
:102a40000870002003f0c6fa064b07221a70002017
:102a5000a0470122a0e70120a047024b01221a70e3
:102a6000002299e75d3b0020583b00203412000013
:020000040000fa
:102a7000f8b5374c656b63689b699847606160691e
:102a800003f024fca66ae76a0023020092197b4146
:102a9000a262e362002d51d02d4c3022a35c0133a1
:102aa000a35402f02bff646b002c06d0a368002b0c
:102ab00003d101250027264e11e0264d00242e00cb
:102ac00021e0e06902f090fde368002b01d020696d
:102ad0009847746b002cf0d0a368002bedd12575be
:102ae0006575a378002b02d1e368002be9d12000a3
:102af00001f046ffa378002be6d16770e4e70134cc
:102b00002035052c15d06301f3185b7d002bf6d022
:102b10006201104b9b1800225a75ab78012beed145
:102b200061010c4b59186b688b60280000f0faf8b3
:102b3000e5e7074930228b5c013b8b5403f0a8fe8c
:102b4000040000f0effc200003f0a6fef8bdc04634
:082b500050380020fc35002084
:020000040000fa
:102b5800f8b5ce46474680b503f09afc2e4b1a6866
:102b6800013a1a601b680024002b03d12b4b1b6809
:102b7800002b06d103f060fd20000cbc904699465e
:102b8800f8bd0024264eb046264f274b9946336899
:102b9800002b22d04346db68dc682000183003f0a5
:102ba800def9251d280003f0daf9e36a3a68934252
:102bb80001d91c4a13609800c01880001b4b1818d4
:102bc800290003f0f1fc1a4b1b68db6ae26a9a429f
:102bd800ddd301234a461360d9e7002c01d003f066
:102be80019f8144b1c68002c0ed00f4e012502e07a
:102bf800013c002c05d0fff7a9fc0028f8d035606f
:102c0800f6e70c4b00221a60074b1c68002cb1d069
:102c180003f032fc0124ade7143b00200c3b0020fc
:102c2800983900201c3b0020383b00200437002046
:082c3800003b00202c3b0020b2
:020000040000fa
:102c4000f0b5060085b00f0015001c008b4265d85a
:102c500001d1824262d82100280003f071fc3900c2
:102c60000090300003f06cfc009b21001b1a1a003e
:102c70002800039303f058fc00900191019bbb4294
:102c800046d802d1009bb34242d8009b019c039ad4
:102c900001200021f61aa74103f046fc039b002bfc
:102ca0002fd0019b009adb0754081c43019b5d0851
:102cb000039b9c46bd422ed801d1b4422bd8320092
:102cc0003b00121bab41012692185b410027b6184e
:102cd0005f4101235b429c446346002bead180198b
:102ce0007941039a04000d003000390003f010fc14
:102cf000039a06000f0003f017fc241a8d412000f0
:102d000029000a9b002b01d01e605f6005b0f0bd5a
:102d100000200021c2e7b6197f41dae70020002138
:022d2000efe7db
:020000040000fa
:022d22007047f8
:020000040000fa
:102d2400f0b5de4657464e464546e0b585b0814689
:102d3400002854d0304b596b83689a4600290cd034
:102d44008b6852460392002290469a4549d300224a
:102d540000238b460092019306e052468260264b84
:102d64005863012034e0e3465e46b668340000252b
:102d7400009a019b12196b41009201935e46b66959
:102d8400b446002e12d06646b66800210f00009aa1
:102d9400019bb6185f41474529d8e4d1039b9e4265
:102da400e1d960465946009a019b01e0300059463a
:102db4004c46a0618c61002051468a1a4b469a60a9
:102dc4009b69002b04d04a4691689a68521a9a600b
:102dd40005b03cbc90469946a246ab46f0bd0020e7
:102de400f6e7054b5863816100220120e4e7604661
:0c2df4005946009a019bdbe75038002094
:020000040000fa
:102e000070b50400002927d02c4b1b7f0422f02131
:102e10002c2003f0bbf8012c34d9284b1b7d012258
:102e20000e212c2003f0b2f81920fef74dfb1928d3
:102e3000fad1234b186801780139c9b201f0e0fcde
:102e4000204b01221a70204c80256d03a5610120c2
:102e500003f0aafa656170bd00230422f0212c2042
:102e600003f094f8012cd8d8072301220e212c203e
:102e700003f08cf813e0154802f010ff114b00220c
:102e8000da70d1e7072301220e212c2003f07ef80f
:102e90000a4b1a7f0e4b1a700e4b01221a70012c2e
:102ea000c2d1084bdb78122be5d8002bbcd0972081
:102eb00002f0f4fe034b0022da70b5e7f038002090
:102ec000883a00202c3900200044004157020000bd
:082ed0005a3b00205b3b00208f
:020000040000fa
:102ed800f0b583b001902e4b5e682e4b1b685d6881
:102ee800ff2700240ae02900300002f0ffff002835
:102ef80047d10134e4b20a35052c06d02b7a7f2b52
:102f0800f1d8ff2ff5d12700f3e700230093ff2f17
:102f18003bd0214b1b78002b30d1204b1f70bb00be
:102f2800db195c0025000023194e1a487268d15c31
:102f3800026852685219d1540133082bf6d1154b47
:102f48001a6853681b19187a80214942014319727b
:102f580053681b190121019801401d7a01208543fe
:102f68000d431d720a4b9b68d97853681b19597217
:102f78000b4b1f7002f006ff0a4b1870009803b045
:102f8800f0bd270001230093c1e7f1230093f5e783
:102f9800f4390020c03a00206b3b00200f39002094
:082fa8000e390020563b002009
:020000040000fa
:102fb00010b588b02c4bdb78002b03d02b4b1b7843
:102fc000042b15d0284b5878062801d000283ed174
:102fd000264b07221a70244bdb689847224b0022ad
:102fe000da60234b186802f01ffb042008b010bd04
:102ff0008c2002f04bfc041e31d00368002b30d033
:1030000081221a701b4a12785a701b4a12789a70e1
:103010001a4a1268d2681278da70194a1188069032
:10302000184a05920122049200220392029304237b
:1030300001930092033b0120fef7f6fe03000020ff
:10304000002bd3d1200002f019fd0120cee7064b62
:103050009978064a1170db6801209847bee70a207c
:10306000c4e70a20c2e7c046d43900205d3b0020f7
:10307000b03a0020af3b0020ae3b0020c03a002019
:08308000583b0020f95f00003d
:020000040000fa
:10308800f0b5de4657464e46c0b584b007000d0081
:103098001100019299462c4b00221a7000294ad13e
:1030a80002abda710120a84001300301181a80022e
:1030b800264900f08dfe013083b29a46ff239b46d5
:1030c80000931fe0dcb23378002b08d029000120e0
:1030d80003f03efa231c8442f4d2031cf2e75c4559
:1030e80008d202ab07331b7800934b46002b20d045
:1030f8001c70a34602abda1ddb790133dbb2137017
:103108001f2b1ad803f0b0fb02abda7901239340e6
:103118003b401842eed002abd91d002002f056ff0a
:103128000b4b52461a80084b01221a70019c1e0054
:10313800cce7a346dee7ff230093009804b01cbc4d
:1031480091469a46a346f0bd573b002040420f00e7
:04315800863a002093
:020000040000fa
:10315c0070b50d1e4cd000284dd12848383003f0e6
:10316c0010f9012802d00120404246e02b68234c84
:10317c006360db689847e0600026c82200230021ca
:10318c0002f0aaf91e4a002302f088fa0222002358
:10319c008018594120620423eb5623722661194b87
:1031ac00a361194be36100220023a262e362666310
:1031bc003023e65463681b68002114489847636801
:1031cc001b69002b02d00d4a108b98470b4ce06901
:1031dc0080b263685b69984763685b689847a02214
:1031ec0000210b4803f062fa02232370200004e054
:1031fc000120404201e00120404270bd50380020c7
:10320c00006cdc02ffff0000ff7f0000712a000051
:04321c00fc3500205d
:020000040000fa
:1032200010b52a4b1b68002b03d0294b01221a60d2
:1032300010bd274b00221a60264b1b681b6b264ac9
:103240001968914202d1596891422fd0214b1868d8
:103250001968343103f05bfb204b1b689a00d218cd
:1032600092001f495258002a06d1013b9a00d218f9
:1032700092005258002af8d019489a00d1188900b3
:1032800041184c6864684c60d21892000832821869
:10329000944212d09a00d218920011498a185268aa
:1032a000d1680c4a11600d4a1360c1e799689142d8
:1032b000ccd1db689342c9d1cee760689a00d218be
:1032c000920007498a185060e4e7c046143b00208a
:1032d000383b0020003b0020a5a5a5a51c3b0020f5
:0432e000043700208f
:020000040000fa
:1032e40000b583b06b4601225242da801e4b0022a5
:1032f4001a701e4b01321a701d4b1e4a1a8002f0be
:1033040075fc1d4b1b78ff2b29d16b46981d02f0d1
:1033140057fc174802f03efc184a194b1b781b0156
:1033240011780b431370174b1978012301221648a7
:1033340001f0f0fc154b18600a21154803f049fa16
:103344000a21144803f045fa0a21134803f041fa0c
:103354000a21124803f03dfa002003b000bd0649db
:10336400002002f035fed0e75c3b00205d3b0020ee
:10337400583b002034120000af3b0020ae3b00203d
:103384006b3b0020603b002079520000b03a0020e3
:103394004c3a0020403a0020343a0020283a0020d9
:020000040000fa
:1033a400f0b583b006000d0001921f0008ab1c7835
:1033b40002f0f2f9002845d0244b1b785bb2022bb3
:1033c40006d00124644202f06bfd200003b0f0bd7e
:1033d400002d31d0b54232d31d4b1b78002b0bd0be
:1033e4001c4b01221978002908d001322033052a08
:1033f400f8d101246442e6e70022154b012119703b
:1034040000215970197559759c705d600199d960d6
:103414001f61ad1b9d60104909881404240c0a0423
:103424001443dc61013189b20c4a914202d00a4a48
:103434001180c8e70121fae701246442c3e70124ab
:103444006442c0e701246442bfe7c046503800200c
:10345400fc3500201c360020ac3b0020ffff0000a0
:020000040000fa
:1034640010b588293cd015dc81294dd003dc802996
:103474004ad0002010bd822911d08429f9d11968bd
:10348400002a26d00a1d1a6000228b5e0360db1717
:10349400436011e0a02930d010dc9029e9d11968eb
:1034a4000724002a2ed00919a1430a0008321a6001
:1034b4000b684c68036044600120dbe7c02901d03d
:1034c400f029d6d11a68111d19601368036000230e
:1034d400dee70c1d1c600b689bb203604260ebe7e7
:1034e4001968002a04d00a1d1a600023cb56cde7c0
:1034f4000c1d1c600b68dbb2efe71a68111d196024
:103504001368c3e70731cfe71968002a03d00a1dff
:0e3514001a600b68bae70c1d1c600b68dde73f
:020000040000fa
:023522007047f0
:020000040000fa
:10352400f0b5c64600b52a4b5a6b59691961002a91
:1035340042d09168274b994234d9254b5b690025c9
:103544001c00244a0023a4185d41214b98465b6863
:103554009b6998470027060043461b69834203d9a9
:103564001d4a0023b6185f41194b196a00230a004b
:1035740092197b41ab4202d827d1a24225d98e1998
:10358400134bde61124bdb691b0402d1104b012289
:10359400da610f4bd86980b25b685b69984704bcf9
:1035a4009046f0bd91680a4b5b6900251c0000231e
:1035b4000a00a4185d41c8e7054b5b6900251c009f
:1035c400044a0023a4185d41bfe7014bdc61d9e73d
:0c35d40050380020ff7f0000ffff0000c7
:020000040000fa
:1035e0005e150000ce1500009c150000ea150000d5
:1035f0009c15000046150000721500009c15000087
:103600009c1500009c1500009c1500009c150000f6
:10361000121500009c1500009c1500009c15000070
:103620009c1500009c1500009c150000341600003d
:103630009c1500009c15000080160000ce150000af
:103640009c150000ea1500009c15000046150000be
:10365000721500009c1500009c1500009c150000d0
:103660009c1500009c150000121500009c15000020
:103670009c1500009c1500009c1500009c15000086
:103680009c150000341600009c1500009c150000dd
:0436900080160000a0
:020000040000fa
:10369400f0b54b6889b005930b6807009c46079307
:1036a400cb680c008e68049310685168cd0f44d029
:1036b4000b000200002150429941059b002b08dbbe
:1036c4000222634693430793002d02d1079b5a07b6
:1036d4002ad5731e07aa02920a22009301920b00b4
:1036e4000200200000f06ffe002d02d1079b5a0754
:1036f4001ed501382d23002d00d1023b049a13540a
:1037040023695a1e049b121a1918079b3800009348
:10371400330000f0a4fd7b68db0503d563689842a1
:1037240000da180009b0f0bd1b07db0ff31ad1e76c
:103734001b07e5d501382023e0e7059b002bbfda02
:02374400c4e7d8
:020000040000fa
:023746007047ca
:020000040000fa
:1037480070b50500254b1c78002c09d05c780f3c1f
:1037580063425c41644204239c438634200070bd6c
:10376800002002f0ffff0420fdf7aafe0f2000f062
:103778009dfe012307228021152002f003fc10235f
:103788000022ff210e2002f0fdfb002002f0e2ffe4
:103798000620fdf795fe062814d1104b04221a7056
:1037a800ff21072000f05aff0d4b00221a70f0236a
:1037b8009b00ab40f022920094466344db08094a20
:1037c8001360cbe7002307228021152002f0dafbe3
:1037d80008210e2000f042ff8524bfe72c39002085
:0837e800533b0020903a002041
:020000040000fa
:1037f000f0b583b000221f21012002f067ff0828e6
:1038000001d003b0f0bd073000f054fe0e2000f0f0
:1038100051fe019001210e2000f024ff002002f053
:10382000a5ff0921022000f01dff02f0d3f80400db
:10383000154fa0260125bb591d4216d102f0caf82a
:10384000001bfa28f7d91a2000f034fe054208d0f0
:10385000a843c1b21a2000f005ff02f0bbf8040033
:10386000e9e701210143c9b2f4e70f2000f022fe8d
:10387000064b01221a61002002f070ff01990e2010
:1038800000f0f0febde7c0460044004100180040d3
:020000040000fa
:10389000f8b51f4e1f4c23689d6800231422012198
:1038a0003000a8471c4d23681b6b1c21280098473b
:1038b00023685b6b29001948984723685b6b2900d4
:1038c00030009847164b174a1a60134e164c114f8a
:1038d000124d07e00f4b1b68db6800210c4898472e
:1038e00002f0bdff3b689b6b104a310020009847f7
:1038f0002368074a12689342ecd02a689342f1d1b8
:10390000044b1b689b6a0022054904489847e9e775
:10391000a03a0020983a0020a83a0020943a0020cb
:103920009c3a0020803a0020a43a0020ffff0000cb
:020000040000fa
:10393000f0b585b00600029103921c0002f0c8ffaa
:103940000190b36bf26b934208d30025022c05d093
:10395000019802f0d6ff280005b0f0bd4523f55cc4
:103960006db2b76b22000299300000f0f3fc6b1cc3
:1039700005d001356db24523f5540125e8e7b36c58
:10398000002b10d0022c02d10235002fe0d13000e4
:1039900001f068fb01250028dad0039a002a12d032
:1039a00001231360d4e7736a0125002bd0d03000c7
:1039b000243000f093fc0028cad0039a002a04d0d7
:0e39c00001231360c4e70125c2e70125c0e71b
:020000040000fa
:0239ce00704740
:020000040000fa
:1039d0001d4b00229a619a8c80218a439a841a0096
:1039e0001023d1680b42fcd0184b1b689b0e3f2b59
:1039f00027d09b02802292001343134a9362102324
:103a0000d1680b42fcd0104b02229a841a0010237a
:103a1000d1680b42fcd00e4b0e4a5a601a00537804
:103a20005bb2002bfbdb0a4b0b4a5a800b4a5a80d5
:103a30000b4a5a800b4b0c4a1a62034b00221a6243
:103a40007047203bd5e7c046000800402460800056
:103a5000000c004000070100054000001840000075
:0c3a60001b400000000400404008010072
:020000040000fa
:103a6c0070b5234b802252031a6012021a61012195
:103a7c00442299540132995402200532985401324f
:103a8c009854002254241a554f3c5c255c552a3d11
:103a9c0033265e5503355a5505355a5504355a5556
:103aac004235144e5e51403559550f355a55013536
:103abc005855013558550d35595501355a552f3d29
:103acc005a5507355a5501355a5507355c554c34fe
:103adc00ff3418555130ff3019545420ff3019540d
:103aec003831ff315a543a22ff32e339995470bdc0
:083afc0000440041008000803d
:020000040000fa
:103b040070b5050002f0c6fc4523ec5c64b2002ce1
:103b14001cdd2e0024360be06b6a002b16d030001f
:103b240000f0dafb00280ed1013c64b2002c0dd069
:103b3400ab6c002bf0d0280001f092fa0028f3d0ef
:103b440002f06cfef0e702f069feede74523ff2288
:103b5400ea5402f073fd02f09dfc4423ec5c64b271
:103b6400002c04dd2b692e001036002b0ed14423cb
:103b7400ff22ea5402f062fd70bd02f04ffe013ce8
:103b840064b2002cf3d02b69002bf0d0300000f08d
:083b9400a3fb0028f3d0f0e7c9
:020000040000fa
:103b9c0070b5224da97b222000f05efde97b23202d
:103bac0000f05afd24242978200000f055fd013541
:103bbc000134e4b22c2cf6d1184c217b202000f0df
:103bcc004bfd617b212000f047fda37c0522602189
:103bdc00082002f0d5f9637d00220f212f2002f07e
:103bec00cff9a37d032208212e2002f0c9f9e37e30
:103bfc000422f0212f2002f0c3f9e37c00221f21c4
:103c0c00082002f0bdf9e07d01f04efa030000221d
:103c1c000f21052002f0b4f970bdc046f038002029
:020000040000fa
:103c2c0030b583b080256d00184c194b01930423db
:103c3c00009300232a0021001648fdf743fd2100c4
:103c4c000c31154b01930523009300232a001348d4
:103c5c00fdf738fd6d0021001831114b0193032342
:103c6c00009300232a000f48fdf72cfd210024317e
:103c7c000d4b01930123009300232a000b48fdf701
:103c8c0021fd01f06ff903b030bdc0460c5b0000a4
:103c9c00e03a0020c9680000e43a0020c168000046
:103cac00dc3a0020b1680000d83a0020b968000066
:020000040000fa
:103cbc0070b5041e3cd0c26a1e4b1b68db6a9a426c
:103ccc002ed28369002b05db1a4b1b68d96a05239e
:103cdc005b1a836193009b189b00174ad318626987
:103cec009a4205d0134b1b68db6ae36201201ee08d
:103cfc00251d280002f031f90e4b1b68db6ae362cc
:103d0c000e4a1268934201d90c4a13609800c018ed
:103d1c008000094b1818290002f044fc012006e031
:103d2c00044b1b68406cdb6a98428041404270bd7a
:103d3c000020fce7003b0020043700201c3b002047
:020000040000fa
:103d4c0070b5002817d01c4b07221a701b4b1b7820
:103d5c00002b07d01a4b1b78002b03d0164b1b786b
:103d6c00052b10d0174b02221a70013a9a700020c2
:103d7c0001f0a2ff70bd0522e021022002f0a0fca0
:103d8c000d4b1870e2e71920fdf798fb1928fad1b2
:103d9c000d4c80256d03a561183802f0fffa6561a2
:103dac00074a1378013bdbb21370002be2d1034bb3
:103dbc0000221a70dee7c0460d3900205b3b002064
:0c3dcc005a3b00202c390020004400412c
:020000040000fa
:103dd800002934d00123002210b488422cd30124b6
:103de8002407a14204d2814202d209011b01f8e74b
:103df800e400a14204d2814202d249005b00f8e704
:103e0800884201d3401a1a434c08a04202d3001b2f
:103e18005c0822438c08a04202d3001b9c08224362
:103e2800cc08a04202d3001bdc082243002803d0a0
:103e38001b0901d00909e3e7101c10bc704701b544
:103e4800002002f06bfd02bd0029f8d003b5fff792
:0c3e5800c1ff0ebc4243891a1847c04647
:020000040000fa
:103e640070b504001e4d80235b036b61d22002f009
:103e740099fa802636029423ee500a2002f092fa30
:103e84009823ee50642002f08dfa00221f210120b5
:103e940002f01afc0a2508280dd0642002f082fae8
:103ea40000221f21012002f00ffc013dedb2002d84
:103eb400f1d1852070bd0b4b08225a7000f096f8a2
:103ec40000f02cfb002c07d1fff766fe054b002207
:103ed4001a709a700020ede700f0cafff4e7c046bc
:083ee400004400412c390020cc
:020000040000fa
:103eec0010b51e4a137801210b43137053785bb243
:103efc00002bfbdb194901238b610233cb610223bd
:103f0c00ff33cb60164b00221a7210321a75202028
:103f1c001a540c301a540c301a540c301a540c30ed
:103f2c001a540c301a540c3008241c540c301a54eb
:103f3c000c301a540c301a540c301a540c301a54cd
:103f4c000c301a540c301a540b78022213430b7099
:103f5c000a0053785bb2002bfbdb10bd001800404d
:043f6c003c350020c0
:020000040000fa
:103f700010b51c4b9b78002b12d01a4b1b780222d9
:103f800093430dd1184b1b68002b14d0154b002206
:103f90009a701620fdf798fa02f07cf91628f8d1ed
:103fa000124b5b7a002b0ed10e4b1b78022b13d0d9
:103fb000052b14d010bd8c2001f068fc0a4b186052
:103fc0000028edd0e2e70021084800f015fb0028aa
:103fd000ead001f0ddf9e7e701f0fcf9eae700f0eb
:103fe000f1ffe7e72c3900208c3a0020043a00204a
:020000040000fa
:103ff00070b5162000f05efa0500c121162000f011
:1040000031fb002002f0b2fb0620fdf75dfa062826
:10401000fad10023072280210f3001f0b7ff0826d4
:10402000002405226021062002f050fba400a4b267
:104030000443a4b2012002f0b7f9013ef6b2002e0b
:10404000efd10320fdf740fa0f2000f033fa074bc1
:1040500001221a61002002f081fb200002f0e6fb41
:104060002900162000f0fefa70bdc046001800407e
:020000040000fa
:1040700020b2202020b22020b220b22020202020f8
:10408000b220b20d0ab220b220b220b2202020b25b
:104090002020b22020b220200d0ab22020b2202001
:1040a000b220b220b22020b22020b220b20d0ab23b
:1040b0002020b22020b220b22020b220b220b22094
:1040c00020b20d0ab22020b22020b220b22020203f
:1040d000b220b2202020b20d0a2020202020202053
:1040e0002020202020202020202020200d0ac04633
:020000040000fa
:1040f00030b583b01a4b1b68002b24d01d686b466b
:10410000dc1d0121200000f0abfb2178154bd9709c
:104110004bb2002b15db0331c9b26c1a8c34200072
:1041200000f09efb6c600e4c21680f4801f0f2fd20
:104130008c2001f0abfb206000280ad0002001f0a9
:10414000c1fd03b030bd01216b46981d00f088fb16
:10415000f7e70930fdf7b8f9024b01229a70ede755
:0c4160008c3a00202c390020043a00208a
:020000040000fa
:10416c0070b504000d00174b1e68174b186804300f
:10417c0001f0f3fe631c0dd03419134b1b685c600b
:10418c00a64210d9114b18680f4b1968043101f075
:10419c00e6fc70bd002defd00b4b196804310c48b8
:1041ac0002f000faf5e70b4b1868074b196804315d
:1041bc0001f0d5fc084b1b68a342ead9064b1c60e6
:1041cc00e7e7c046343b0020003b0020083b0020c2
:0c41dc00ac390020043b0020243b0020f4
:020000040000fa
:1041e800f8b504000e0002f06ffb0500a26b002773
:1041f800e36b93420bd94523e35c5bb20132a263c4
:104208005a1c09d001335bb24522a3540127280068
:1042180002f073fb3800f8bda36c002b0ad0200015
:1042280000f01cff01370028f1d0002e11d0012327
:104238003360ece7636a0127002be8d020002430c4
:1042480000f048f80028e2d0002e04d001233360a3
:0a425800dde70127dbe70127d9e7c6
:020000040000fa
:10426200f0b51d00012389b014000e9a06001a4011
:104272000391029201d1a5420ad82200039930008b
:1042820001f057fba54203d82500280009b0f0bd74
:104292002f1b01973a00102f00d91022202104a8c9
:1042a20002f009fa019b0f2b0ed80f2204a93a4003
:1042b200300001f03efb029b002be6d12200039965
:1042c200300001f036fbe0e7102204a9300001f0d3
:0a42d20030fb019b103b0193e4e771
:020000040000fa
:1042dc0070b5c368dc6825001835280001f03dfe78
:1042ec00134b1b68002b1ed1251d280001f035fe39
:1042fc00e36a104a1268934201d90e4a136098007f
:10430c00c01880000c4b1818290002f04bf90b4b0d
:10431c001b68e26adb6a00209a4203d9084b01222f
:10432c001a60013070bd2900064802f03bf9eee737
:10433c00143b00201c3b002004370020003b0020d5
:08434c00383b002098390020e5
:020000040000fa
:1043540070b504001600856b026c002a0cd1002095
:104364002368002b02d00135a56370bda06800f05e
:1043740065fb0023a360f6e7002e0ed1406802f02f
:104384008ff96368226c9446634463603000a268ca
:104394009342e8d323686360e5e7c06802f080f9dc
:1043a400236c5a42e3689b18e36021688b4203d272
:1043b400a3689c466244e2600020022ed3d1002d03
:0643c400d1d0013dcfe75e
:020000040000fa
:1043ca00f7b5040019000a9fe368666800933b6822
:1043da00100001932369013b1c00002e00da01261c
:1043ea000022009dea5435000123002c03dc002b37
:1043fa001cd02000febd02000a4309d1002d07dcb3
:10440a00089a921b5219002af1dd019a9207eed5f9
:10441a00099b099adb1701f042f98c460099013c85
:10442a00130030320a55013d6146dee710233a682f
:06443a009a433a60dde741
:020000040000fa
:10444000f8b50a21164802f0c6f90321154802f012
:10445000c2f9154d154c27005037114e256021002b
:10446000300001f057fc8c350834bc42f6d10f4cbb
:104470000f4d2565210050310a4e300001f04afcf5
:104480002b002c33a36521005831300001f042fc91
:104490005835256621006031300001f03bfcf8bd45
:1044a000103a00201c3a0020402f00209c360020ab
:0444b000b8340020fc
:020000040000fa
:1044b40010b584b06b46dc1dd871002002f054f9ad
:1044c400227880235b4213432370134a9423802170
:1044d4000906d15001f0bcfc0028fbd101216b4638
:1044e400d81d02f083f901f0b3fc0028fbd10121af
:1044f4000e30684402f040f901f0aafc0028fbd118
:10450400054a982380210906d15002f025f90e238b
:0c4514006b44187804b010bd0044004156
:020000040000fa
:1045200010b5002303220821032001f02ffd0123f1
:1045300000220721032001f029fd01f0c5ff04003e
:10454000c1b22d2000f08ef8a3b21b0a0022072171
:104550002e2001f01bfd01230622c0212e2001f098
:1045600015fd0123052220212e2001f00ffd01233e
:10457000072280210c2001f009fd08210e2000f007
:0c45800071f8ff21162000f06df810bd4e
:020000040000fa
:10458c0070b5041e09d0436c8b4200d20b00e26a5a
:10459c009a4202d0a16c012900d070bde362a169de
:1045ac00002902db0521cb1aa36193009a18920013
:1045bc000c4b9a1863699342efd1251d280001f02a
:1045cc00ccfce36a084a1268934201d9064a13608c
:1045dc009800c0188000034b1818290001f0e2ff66
:0c45ec00dbe7c046043700201c3b002029
:020000040000fa
:1045f800f8b505000e00437a002b17d0046800298f
:1046080026d0002c0cd0270000e01c007168206820
:104618003368984700280bd163682700002bf4d132
:10462800002413e06f600be06b600fe000240de0e6
:104638002b68a3420ed063687b606b68a342f1d0fd
:104648006b7a013b6b722b68002bedd02000f8bd14
:0a465800271efbd063682b60efe71c
:020000040000fa
:0246620070479f
:020000040000fa
:1046640010b582b06b46dc1dd8719971002002f040
:104674007bf8227840235b4213432370114a94232e
:1046840080210906d15001f0e3fb0028fbd1012170
:104694006b46d81d02f0aaf801f0dafb0028fbd122
:1046a40001216b46981d02f0a1f801f0d1fb00280e
:1046b400fbd1044a982380210906d15002f04cf81a
:0846c40002b010bd00440041ea
:020000040000fa
:1046cc00f0b5c64600b5144b9846144f144e1d0059
:1046dc0043461b68002b17d001f0d8fefb68dc6842
:1046ec00201d01f03afc3368013b33602b68013b21
:1046fc002b6001f09fff206b00f034fb200000f0da
:10470c0031fb2b68002be7d1064b1b68012bdfd943
:10471c0001f0b0fedce7c046103b0020c0390020a1
:08472c000c3b002004370020c3
:020000040000fa
:1047340010b584291fd007dc812915d0822922d005
:10474400802911d0002010bd90291cd008dc8829b4
:10475400f8d119680c1d1c600b6803601a7010e016
:10476400a02901d0c029edd119680c1d1c600b686b
:1047740003601a6005e019680c1d1c600b68036077
:104784001a800120dfe719680c1d1c600b680360a8
:084794001a60d2175a60f4e725
:020000040000fa
:10479c0070b504000d0001f079fe2268216ce36b0a
:1047ac004b43d018a0600020a06362605b1ad31842
:1047bc00e360ff234422a3540132a354002d0fd1f4
:1047cc002369002b03d101f035ff012070bd2000bf
:1047dc001030fff77dfd0028f5d001f04bfef2e71d
:1047ec002000103001f0d3fe2000243001f0cffe69
:0247fc00e9e7eb
:020000040000fa
:0247fe00704702
:020000040000fa
:1048000030b583b004000d00002001f0afff134a63
:10481000942380210906d1506b466022da7101f0a1
:1048200019fb0028fbd101216b46d81d01f0e0ffe8
:1048300001f010fb0028fbd12900200001f0d8ff77
:1048400001f008fb0028fbd1044a982380210906c7
:10485000d15001f083ff03b030bdc0460044004199
:020000040000fa
:1048600030b583b004000d00002001f07fff134a33
:10487000942380210906d1506b462022da8001f072
:10488000e9fa0028fbd101216b46981d01f0b0ff29
:1048900001f0e0fa0028fbd12900200001f06effb2
:1048a00001f0d8fa0028fbd1044a98238021090698
:1048b000d15001f053ff03b030bdc0460044004169
:020000040000fa
:1048c00070b582b016006b46d871124b1c78002c64
:1048d00002d1200002b070bd0f4b00221a700f4da4
:1048e000069beb602970281d0a00310001f0dafefa
:1048f000ac7008236b70053beb70064b04221a70fa
:104900006b46d91d002001f065fbfef751fb04004a
:10491000dfe7c0465d3b00206b3b0020d439002020
:020000040000fa
:10492000f8b50024144d154e03e037610134102c06
:1049300020d063001b199b00eb181b7adbb2e1b29d
:104940008b42f3d133690127a7401f42eed06300a9
:104950001b199b0008495b58002be6d00800630038
:1049600019198900411849681b199b001b58080038
:104970009847dae7f8bdc0463c35002000180040f3
:020000040000fa
:1049800010b5164b5a6b002a24d0824205d1836998
:10499000002b17d0002208e01a009369002b1bd0cf
:1049a0009842f9d18369002b05d084689968091968
:1049b0009960002a08d083699361002300228261f4
:1049c000180010bd1a00f4e7044b5a6b92695a6341
:1049d0000123f3e70023f3e70023f1e75038002039
:020000040000fa
:1049e00070b5040000f0dafe002825d0200000f0a9
:1049f000dbfd041e1ed043780025002b12d18368f6
:104a0000002b01d1436883600c4a3023d35c002b18
:104a10000cd1200000f054f9002323756375013395
:104a20006370002501f03efa280070bd2000fef7fb
:104a300079f9f1e70125f5e70125f5e75038002080
:020000040000fa
:104a400070b5041e23d0836c013b8364c26a416c41
:104a50008a421ed00020002b00d070bd251d2800ea
:104a600001f081fa606ce06205231b1aa3610a4b16
:104a70001b68984201d9084b186083001818800001
:104a8000064b1818290001f093fd0120e5e70020ee
:104a9000e3e70020e1e7c0461c3b0020043700208c
:020000040000fa
:104aa0002e02000058040000240500002405000028
:104ab0002405000024050000680300002405000010
:104ac0002405000024050000240500002405000042
:104ad0002405000024050000240500002405000032
:104ae000f8020000e804000024050000240500008e
:0c4af0002405000024050000e203000083
:020000040000fa
:104afc0010b5114b1b78002b08d00f4b1b780133d2
:104b0c00dbb2022b14d80c4a137010bd0b4b0c48a3
:104b1c001861fa2292009a605a60002119730023de
:104b2c00084900f0f3f8084b1860431ce5d1ece79a
:104b3c00014b00221a70e8e75f3b00204839002047
:0c4b4c0001510000603b0020b83a00203e
:020000040000fa
:104b580000230e4a10b513600d4a13600d4a136006
:104b68000d4a13600d4a13600d4a536213610133f5
:104b7800936001f00ffe01f0d4fe0a4c0a4b9c42f0
:104b880000d310bd08cc9847f8e7c046443b002046
:104b9800c4370020c0370020b8370020bc370020b9
:0c4ba800c8370020b8000000bc0000006e
:020000040000fa
:104bb40070b504001d00002906d001291bd0002374
:104bc4000360012040421fe00020012b1cd8032277
:104bd4000021013000f036ff2060002810d0012da4
:104be4000ed1002300220021fdf7baf90138434217
:104bf400584140b208e01900100001f033fd206074
:0a4c04002068431e984140b270bdc5
:020000040000fa
:024c0e007047ed
:020000040000fa
:104c100010b5134b1b78002b1fd100280dd0114b62
:104c20001b68002b11d01620fcf74efc1f2401f04e
:104c300031fb20401628fad110e00830fcf744fc84
:104c4000074b00229a70082008e0054b01229a7059
:104c5000002001f037f8162000e0122010bdc046f9
:084c60002c3900208c3a0020e1
:020000040000fa
:104c6800bff35f8f62b6114bc12189005a58ff20ec
:104c78008243bf3802435a5010221a60c320800072
:104c88001a580b491140802212020a431a508022f6
:104c980092011a6004301a5806491140c0221204c1
:104ca8000a431a508022d2021a60704700e100e0dd
:084cb800ff00ffffffff00fffa
:020000040000fa
:104cc000f0b583b00190134c63689b6998476061ad
:104cd000606901f0fbfa050000f010fe01f0d8fd5c
:104ce000a66ae76a00232a0092197b41a262e36266
:104cf00001f0d2fd0198fef715f8002801d103b0ac
:104d0000f0bd01f0c5fd0400fef70cfc200001f031
:084d1000c3fdf4e75038002058
:020000040000fa
:104d180070b582b005000e001c1e01d100281ed0ff
:104d2800002a04d101246442200002b070bd0d4b5a
:104d3800d8680023002100f0d1fbfa22920000235a
:104d480000f0aefc0100009433002a000020fef7ba
:104d580025fb0400431ce7d0fff73efee4e70124ef
:084d68006442e1e7503800202d
:020000040000fa
:104d700010b500280bd00300083b5b680f4a12688f
:104d80001a4204d0010008390968002900d010bd7a
:104d9000083804009343436001f0f8fc084a636854
:104da00011688c4663441360200000f0b7f8054a90
:104db000136801331360fdf7cffee8e7ec3a0020fb
:084dc000f03a0020fc3a00204b
:020000040000fa
:104dc80070b504000d0001f063fb114b1a682b68e5
:104dd800591c17d061680f4800682668864202d0bf
:104de800012691420fd9501a834203d800232b6021
:104df800012608e09b1a5b182b60200001f054fb89
:104e0800002600e0002601f017fc300070bdc04607
:084e1800343b0020283b002080
:020000040000fa
:104e200010b50f20fff746fbc3060ed5104b1b78bd
:104e3000042b04d00e4b5b780f2b03d010bd00f079
:104e400085fafbe701f0bcfaf8e70307f6d5084b53
:104e50001b78012b09d1430603d50120fef776ff0d
:104e6000ece70020fef772ffe8e7fff741f9e5e71e
:044e70002c390020b9
:020000040000fa
:104e740010b5134b04221a7503205875053a9a731a
:104e8400da731a735a730b21d974002100241c722b
:104e9400083c5c729a720832da72197603321a7418
:104ea400093a5a7409325a76083a9a760332da760b
:104eb40018777f32da75833a9a74997510bdc046b3
:044ec400f0380020a2
:020000040000fa
:104ec80010b582b002000c1e1ed00123002802d1aa
:104ed800180002b010bd0d4bd8680023002100f067
:104ee800fdfa0b4a002300f0dbfb010000230093ce
:104ef80000220020fef752fa20600123421ce7d06e
:104f0800fff76afd0023e3e70123e1e750380020bb
:044f180040420f0004
:020000040000fa
:104f1c0010b5124a00e01a0013688342fbd35168a3
:104f2c005418a04208d041684418a34209d0036029
:104f3c00904200d0106010bd4068411851601000c4
:104f4c00f1e7074c2468a34206d05b68591841600e
:104f5c0013681b680360ebe70460e9e7683a00201c
:044f6c00e83a0020ff
:020000040000fa
:104f700000b583b00d4b01930023009380220c49b0
:104f80000c48fcf7a5fb012801d003b000bd72b6a8
:104f9000094b012252421a60084b02321a60084b38
:104fa00000221a6000f036fcefe7c046203b0020ec
:104fb000d8680000cd460000243b0020303b002094
:044fc000343b00205e
:020000040000fa
:104fc40010b5002307228021152000f0ddff082101
:104fd4000e20fff745fb002001f0befb0a4b002228
:104fe4001a701620fcf76efa084b1b78ff20382b3a
:104ff40005d81802c01a3821fef7ecfec0b2034be4
:10500400187000f0d5fe10bd2c390020533b002051
:020000040000fa
:10501400f0b50f0087b0039015001049072204a8cb
:105024001c0001f03dfbbb687e6802933f68002dc5
:1050340000d104ad002c03d1280001f04ffa040084
:10504400002e02dbb44200d934000097029b2200f8
:1050540029000398fff703f907b0f0bde8680000e2
:020000040000fa
:1050640070b582b00190846ca36b0026e26b93420e
:1050740002d3300002b070bd4523e55c6db200225e
:1050840001a92000fff764f906006b1c04d0013568
:105094006db24523e554ece7636a002be9d02000a8
:0e50a4002430fff719f90028e3d00126e1e7d8
:020000040000fa
:0250b200704745
:020000040000fa
:1050b40010b52021014007d140b23f2404403c23d5
:1050c400034206d004220ee040421f2404406442fe
:1050d40064b20123084a501ed9b2102b08d0013300
:1050e400c256a242f8dca24203da0139c9b200e096
:0c50f4000021080010bdc0464c67000001
:020000040000fa
:1051000000b5c3b00f4b1b78022b03d0012b0dd081
:1051100043b000bd0b4b00221a7001ab12321a7063
:1051200000221900084800f0affff1e7054b032209
:105130001a7001ab10321a7000221900024800f0f8
:0c514000a3ffe5e75f3b0020743a00206d
:020000040000fa
:10514c0070b5050043681e788c2000f099fb041e96
:10515c0019d00368002b16d0981b8c305860002e89
:10516c0005d06968002902d0320001f095fa2100bf
:10517c00054800f0c9fd2868002801d000f078fc33
:0c518c00002000f0d5fd70bd283a002086
:020000040000fa
:1051980000b5c3b00e4b1b78002b03d0012b0bd0ee
:1051a80043b000bd01f05bfb0a4b1b78002bf7d026
:1051b800074b01221a70f3e70548074a01a9043092
:1051c80000f070ff0028ebd001a8fdf7d7fae7e759
:0c51d800703a00206a3b0020ffff00003e
:020000040000fa
:1051e40010b50e4b0e4a934207d30e4801680029ae
:1051f40007d14368002b04d110bd0021197001337d
:10520400f1e704008368084a9bb20c349b009b5866
:1052140042682000984780002018e7e7000000203b
:0c522400000000205c0500007c6600001b
:020000040000fa
:1052300010b5064c2378002b07d1054b002b02d06c
:10524000044800e000bf0123237010bd1039002086
:105250000000000000000000044b10b5002b03d03c
:105260000349044800e000bf10bdc0460000000034
:085270001439002000000000c9
:020000040000fa
:1052780010b50e4b1b88002b05d0013b9bb20b4a87
:105288001380002b0ad00a4b1b88002b05d0013b4a
:105298009bb2074a1380002b04d010bd054b002297
:1052a8001a70f0e7fdf780fef7e7c046863a00205f
:0852b800c2380020573b002022
:020000040000fa
:1052c00010b50a4b98470a4b9847fff78bff094bdd
:1052d000ff229343084a9360084b9847084b98472e
:1052e000084b984701f062fafee7c04623690000c8
:1052f000236900000000000000ed00e0594b0000b1
:0853000023690000236900008d
:020000040000fa
:10530800f8b50d4b00221a700c4c270050370026b8
:105318000b4d04e000f064f91034bc4207d026734a
:105328002b78002bf8d02068431cf5d0f2e7044b0b
:1053380001221a700020f8bd4e3b0020683700207b
:045348004f3b0020b7
:020000040000fa
:10534c0010b50720fff7b0f80b4b1b78834201d246
:10535c00094b1870094a1368013b1360002b04d0e9
:10536c00ff210720fff778f910bd054b05221a70b5
:10537c00002000f0a1fcf7e7533b0020903a0020fe
:04538c002c39002098
:020000040000fa
:1053900070b5060005686c6823780d4ad370013338
:1053a000e418237860781f2803d8002802d1013040
:1053b00000e01f209b0958430302181a5d21fef7e5
:1053c0000bfd20702e602800fff7c0fe70bdc046a8
:0453d0002c39002054
:020000040000fa
:1053d40010b50c4b00221a700b4b187807280fd805
:1053e40083000a4ad3589f46872000e08d20084b4b
:1053f400196800f0f1fc10bd8c20f8e78520f6e771
:105404008520f4e72c3900200d3900203c61000090
:045414004c380020f0
:020000040000fa
:1054180010b5002801d006280ad10b4b1b78002ba9
:1054280000d010bd094b18780121fff716f9f8e7ed
:105438000122054b1a70054b1b789a40044b0a2130
:105448000020fdf799faece75e3b0020b23b002014
:0454580019540000e3
:020000040000fa
:10545c00b2b2b22020b2b2b2b20d0ab22020b22047
:10546c00b22020200d0ab22020b220b2b2b2b20d6e
:10547c000ab22020b220b22020200d0ab2b2b220f3
:10548c0020b2b2b2b20d0a202020202020202020f1
:04549c000d0ac046ef
:020000040000fa
:1054a000eff309800e4b1a6820381060f0c04446b4
:1054b0004d4656465f46f0c008b572b6fdf7b0fee1
:1054c00062b60cbc116808681030f0c8a046a94646
:1054d000b246bb4680f309882038f0c81847c0465a
:0454e000003b00206d
:020000040000fa
:1054e400f7b597b201933b00140c86b2050c7343d5
:1054f4006f4366436543f6191c0ca4199c46a742e6
:1055040002d980235b02ed186346260c7519240426
:105514009eb2019ba4194343200051435b195918bf
:0455240003b0f0bd23
:020000040000fa
:10552800f0b583b001900e00170000210b48fff77b
:105538005ff8041e0fd00368002b0cd05d68002da7
:1055480006d09b7c012b03d03a0031000198a84774
:10555800200000f08ffa03b0f0bdc0464c3a00209e
:020000040000fa
:105568000c4b01221a801a00d37b5bb2002bfbdba9
:10557800084b60221a80084a1a833b229a73074a0a
:105588000021116020225a731a00d37b5bb2002bd2
:10559800fbdb7047002c00427fbbffff603a002016
:020000040000fa
:1055a800431e033314d803041b0c042b13d85901ce
:1055b8000a4a5218d169002281420ad15a01074980
:1055c800515c0022002904d05b01044a9a1800e0cb
:1055d8000022100070470022fbe7c046fc3500207f
:020000040000fa
:1055e80010b5040000f0d6f8002817d02000fff707
:1055f800d7ff041e10d04378002b08d10023237551
:1056080063752370002400f049fc200010bdfff7eb
:10561800b3f900236370f1e70124f4e70124f4e708
:020000040000fa
:1056280070b5040000f0b6f8002817d02000fff786
:10563800b7ff041e10d043780025002b03d100f0db
:105648002dfc280070bdfff797f9002323756375bb
:1056580063706368a360f2e70125f0e70125f0e7ce
:020000040000fa
:10566800030010b51a78202a0dd011000939042931
:1056780009d900212b2a02d02d2a01d10131013369
:1056880000200a2404e00133ece760430133801a68
:105698001a78303a092af8d9002900d1404210bdb9
:020000040000fa
:1056a800002b11d1002a0fd1002900d1002802d0e7
:1056b8000021c943081c07b4024802a140180290ff
:1056c80003bdc0465912000003b4684601b50298ec
:1056d800fdf7b2fa019b9e4602b00cbc7047c0466b
:020000040000fa
:1056e80070b50d000a4b1c78002c0ed1094b1860c0
:1056f800436809490b601b78013b0549cb701100d1
