:020000040000fa
:10000000f07f002009610000375200000755000012
:1000100000000000000000000000000000000000e0
:10002000000000000000000000000000cf590000a8
:100030000000000000000000f16200008d70000070
:100040001f4f00001f4f00001f4f000029560000e7
:100050001f4f00001f4f00001f4f00001f4f0000e8
:100060001f4f00001f4f00001f4f00001f4f0000d8
:10007000711e00001f4f00001f4f00001f4f0000a7
:100080001f4f0000896800001f4f000000000000a3
:10009000000000001f4f00001f4f00001f4f000016
:0800a000000000001f4f0000ea
:020000040000fa
:1000a800f8b5c046f8bc08bc9e467047815f0000a2
:1000b800f8b5c046f8bc08bc9e467047595f0000ba
:020000040000fa
:0800c800c43200000100000039
:020000040000fa
:1000d000603a00201c00000000000000963b002059
:1000e00002000000000000008c38002050000000da
:1000f00000000000763c002002000000000000002c
:100100007a3c00200100000000000000983b002025
:1001100004000000000000007c3a002018000000ed
:10012000000000009c3b00200400000000000000d4
:100130000c3b00200c00000000000000403a0020b2
:100140001d00000000000000a03b00200400000093
:10015000000000007b3c00200100000000000000c7
:100160007e3c00200100000000000000a43b0020b5
:1001700004000000000000007f3c0020010000009f
:10018000000000005c370020680000000000000054
:10019000402f0020fc05000000000000183b00205c
:1001a0001800000000000000883b0020060000004e
:1001b00000000000a83b0020040000000000000038
:1001c000b03900203c000000000000005d3a002033
:1001d0000100000000000000ac3b00200400000013
:1001e000000000005e3a0020010000000000000056
:1001f0005f3a00200100000000000000b03b00203a
:100200000800000000000000803c00200100000009
:1002100000000000183a0020280000000000000044
:10022000c43700206400000000000000903c002063
:100230002c00000001000000183a00203c000000e3
:100240007800b00434120a400300000006000000e9
:100250000f190301c437002005000000ab11223341
:1002600044556633903b002006000000000000006b
:10027000b83b00202000000000000000303b0020c0
:100280000c00000000000000813c00200200000083
:10029000000000003c3b00201800000000000000af
:1002a000833c002003000000000000007c3c002094
:1002b0000200000000000000543b00200c00000081
:1002c00000000000d83b00200400000000000000f7
:1002d000c23c0020010000000100000001000000fd
:1002e000c33c0020010000000100000001000000ec
:1002f000863c00200100000000000000603b002060
:100300000800000000000000943a002014000000e3
:1003100000000000783c0020020000000000000007
:10032000dc3b00200400000000000000743c0020c2
:100330000200000000000000c43c00200200000099
:100340000100000002010000683b002008000000de
:1003500000000000873c00200300000000000000b7
:10036000e03b002008000000000000008a3c002064
:100370000100000000000000e83b00200800000031
:10038000000000008e3b0020020000000000000082
:10039000f03b002004000000000000003c3500207d
:1003a000c0000000000000008e3c002002000000a1
:1003b00001000000ffff0000fc350020c00000002d
:1003c000000000008b3c0020010000000000000045
:1003d000ec3900202c00000000000000703b0020e1
:1003e00008000000000000007039002040000000fc
:1003f00000000000bc360020a0000000000000004b
:10040000c03c0020020000000100000001000000cc
:10041000f43b002014000000000000002c390020f4
:100420004400000000000000083c00200c00000018
:1004300000000000bc3c002004000000010000009f
:10044000aaaaaaaa143c0020040000000000000090
:1004500000000020402f000000000000183c002099
:100460001400000000000000783b0020080000009d
:10047000000000002c3c00200c00000000000000e8
:10048000283800206400000000000000383c0020f4
:100490001400000000000000a83a0020280000001e
:1004a000000000004c3c0020100000000000000094
:1004b000d03a002014000000000000005c3c002046
:1004c0000400000000000000e43a002028000000c2
:1004d00000000000603c0020080000000000000058
:1004e000803b002008000000000000008c3c002041
:1004f0000200000000000000683c00200400000032
:1005000000000000dc380020500000000000000067
:100510006c3c00200800000000000000000000000b
:100520000000000066666666666666666666666603
:020000040000fa
:10053000f0b5de4657464e464546e0b58db0040060
:10054000038aa34a12889a4200d034e18568297848
:1005500009aa117069785170a9781172c27b002aba
:1005600000d00de109aa5278910600d52ae10823ae
:1005700099460be1974b198809ab9980032717e13e
:10058000237b9a46944abc23d05806f027fb0028c8
:1005900003d109ab5b785b063fd409ab9b888f4adc
:1005a000934205d88b4a128892b2934200d002e15e
:1005b00009aa5278d20604d5864a128892b293428a
:1005c0002ed0ed1909ab5a7803231340012b6ed0be
:1005d00009ab5b78db0700d5ede0814b1b78063b70
:1005e000012b00d9e7e009ab98887c4b984200d8f2
:1005f00084e073781b02ff2231780b437549098828
:10060000114268d0734a1288120664d4754a904227
:1006100000d0d0e06f4a128864e003f029ffbce705
:100620006e4a9342cdd809ab1a7a9346694a11882b
:1006300089b2da8806abff2005f012f96b4620225a
:100640009b185a461a706b465b7e03229343012225
:100650001343102293436a4653768c2006f020f809
:1006600080460028add003689b46002ba9d0190016
:1006700006a806f04df801005b4a1378013b1370a1
:1006800032235a46135443460493584b0393002392
:10069000029301964b4600935b46012206a801f0a7
:1006a00037fb00288dd1404606f056f989e72b78b4
:1006b0000f22934306d0302b8ad1290009a804f0d9
:1006c000bffe85e7a37b00932b003200494609a8b3
:1006d00000f054fb7ce73f4a1288120602d5444ad8
:1006e000904268d03b4a1288120615d4394a1288c3
:1006f0009bb2ff218a4393425dd10de009abde88b6
:100700001b7a98461900300006f01ef8002852d1d6
:100710004146300003f090ff06ab09aad18819804a
:100720005146cf1b1f720795a17b9972617b59724d
:1007300052780323134006d12e4b1b68002b3ad06e
:1007400006a8984737e0022b35d12b4b1b68002bae
:1007500031d006a898472ee0666809a94b807078ca
:10076000000233780343cb800223994623785b074a
:1007700000d4ffe609ab012149429980032717e025
:1007800009aa52789106e7d402239946666809ab14
:1007900028790002e97801435980a8790002697933
:1007a00001439980287a0002e9790143d980092719
:1007b000530700d4e4e60db03cbc90469946a246ef
:1007c000ab46f0bd666809a94b8008239946cde782
:1007d0007c3c00208e3b00203c350020fcff0000cc
:1007e000843c0020ffff0000853c00206f340000a7
:0c07f000fdff0000d43b0020d03b0020a7
:020000040000fa
:1007fc00f0b5de4657464e464546e0b587b0061c7a
:10080c0003900f0004911400240a0592019310ab7d
:10081c001d78b606f60f0297d3b29946e3b2984606
:10082c008c2005f037ff8246002800d116e10468c1
:10083c00002c00d114e123000c33636003ab187857
:10084c00430701d50123994603220240012a35d0e2
:10085c0051425141c9b28d4b1b8803af7f899f42d6
:10086c002ed000239b4607339c46634608334f46e5
:10087c00002f00d0063b4746002f30d00233dbb2ae
:10088c002427384020282dd0032a2dd0aa1c9b18b1
:10089c002373617303ab72011e7820218e431643c0
:1008ac001e70f3439b0727d04b46002b00d184e0ee
:1008bc004346002b6cd08823a3736be00321cae75b
:1008cc00734fbb4206d04023194301239b4604338c
:1008dc009c46cae700239b4607339c46c5e7083372
:1008ec00dbb2cde70143cfe7012398460026002376
:1008fc009b4600210733c9e78023a373654a13780d
:10090c00591c1170e37304265b46002b0ad1721c30
:10091c00d2b25e490b78606883550236f6b24b78da
:10092c0061688b544346002b63d05b4a1378616833
:10093c008b55b31cdbb20136f6b2527861688a551e
:10094c00002d0ad0019a5d19edb2591c1078666819
:10095c00f0540132cbb29d42f7d1504b129a1a602f
:10096c0006f0b2f80f2858d0534623604c4b1a7837
:10097c004c4b1978200005f029fc002856d1013089
:10098c00139b002b63d0180005f0e0ff01205ee004
:10099c00c823a3733f4a1378591c1170e37303ab3c
:1009ac009a7a2274db7a6374730769d4029a137887
:1009bc00a3745378e3740826a6e74346002b51d062
:1009cc008c23a373334a1378591c1170e37303ab54
:1009dc009a7a2274db7a6374730751d40623029fcc
:1009ec00063ffa5c6168ca5401330e2bf9d10e260e
:1009fc008ae72d4b5b681f0008371a00f31aac46c8
:100a0c0010789918c9b2656868540132ba42f7d1a6
:100a1c00654633000833dbb292e7f03006f0def9be
:100a2c00002006f063fb06f04ff89de71f4b0122f8
:100a3c001a701f4a1378013b1370139b002b02d0c2
:100a4c00180005f083ff504605f080ff002007b02a
:100a5c003cbc90469946a246ab46f0bd0020f6e75a
:100a6c000020f4e7cc23a3730a4a1378591c1170a5
:100a7c00e37303ab9a7a2274db7a63747307add594
:100a8c00ff23a374e37408263ee7c046783c00209d
:100a9c00ffff0000863c0020743c0020dc3b002063
:100aac00c53c0020c43c0020603b0020c23c002020
:040abc00813c002059
:020000040000fa
:100ac000f8b50021ab4804f081fb002800d14de1ce
:100ad0000268002a00d14be1536819785e784024ff
:100ae0002640a54b00241c70dc73013c1c8254681a
:100af000a3783325ab43882b00d197e00ad9c82bc4
:100b00003ad0cc2b6bd08c2b00d1c7e005f024ff62
:100b100000201ce1082b00d1ece0802bf6d1964b95
:100b20001c7804252543802464422c431c70012436
:100b3000dc73546824791c74546864795c74546858
:100b400006345c600c00093c1c73546808349c60db
:100b500053685c78230700d5e0e007232340012b8e
:100b600000d1dfe0002b00d1fae0032b00d1efe051
:100b700005f0f2fe0020eae0a379ff2b16d07e4daf
:100b80002f7880235b423b432b70002e17d02479b3
:100b90002c74546864796c74546808346c600c006c
:100ba000113c2c7354681034ac60d1e7e379ff2b0f
:100bb000e5d1714d2b7804273b432b70dfe7247a76
:100bc0006d4b1c745468647a5c7454680a345c60bd
:100bd0000c00133c1c73546812349c60b8e7664ddb
:100be0002f7880235b423b432b70002e0ed024795c
:100bf0002c74546864796c7454680e346c600c0006
:100c0000173c2c7354681634ac60a1e7a47b5a4b94
:100c10001c745468e47b5c74546810345c600c0091
:100c2000193c1c73546818349c6091e7a379ff2b1e
:100c30001ad0514b1d78802464422c431c7001242f
:100c4000dc73002e19d153681c7a4b4b1c7454680a
:100c5000647a5c7454680a345c600c000d3c1c734c
:100c600054680c349c6073e7e379ff2be1d1424c6c
:100c7000237804252b432370dbe753681c793e4b14
:100c80001c74546864795c74546808345c600c00ab
:100c90000b3c1c7354680a349c6059e7364b1d7832
:100ca000802464422c431c700124dc73002e10d07d
:100cb00053681c79304b1c74546864795c745468b4
:100cc0000e345c600c00113c1c73546810349c6042
:100cd0003ee753685c7b284b1c745468a47b5c74af
:100ce00054680f345c600c00133c1c73546812345d
:100cf0009c602de7a379ff2b07d01f4c0b00083b0e
:100d0000237353680733a36022e7e379ff2bf4d101
:100d1000194c237804252b432370eee705f01cfec5
:100d2000002014e0144c23780325ab4323700231d8
:100d3000c9b253685b18023b1b780f4ca37353680e
:100d4000591801390b78637305f006fe0120f8bdd0
:100d5000094c23780325ab4301252b432370e6e799
:100d6000054c237803252b432370e0e70020eee7b2
:0c0d70000020ece73c3b0020943a0020ff
:020000040000fa
:100d7c00f0b585b005001c000aab1f782378042b56
:100d8c0000d183e0082b00d1f2e0022b01d005b09a
:100d9c00f0bd864b1b78032bf9d1854b1b68854a1c
:100dac0011685a782023cb5c9a421dd3804b1b6868
:100dbc00804a11685a782023cb5c9a42e7d17e4c4a
:100dcc00606905f053fb606905f030fb784b1968de
:100ddc0009230b70754b05221a704878774c2368e1
:100dec00984700232360d2e7631d0193744a0821be
:100dfc00180002f053fa0028c9d06d4b1e6800236e
:100e0c0033707078002812d0eb889c46338a634587
:100e1c00bdd03200223200230133dbb2834206d034
:100e2c0012321100123909886145f5d1afe7eb8810
:100e3c009c46c1000a185200b31862461a82614ad5
:100e4c0012781a736a88da8162781a72a2785a72e6
:100e5c00e2789a7222790b185b00f318da7201307f
:100e6c00c3001818400030180822019906f0eafb5c
:100e7c00611d0822544806f0e5fb7278d3009b18dc
:100e8c005b00f3185f73013272708fe74a4e706922
:100e9c0005f0ecfa706905f0c9fa444b1b78042b89
:100eac0000d074e76378002b09d0404b05221a70f0
:100ebc006078464c236898470023236067e7e27804
:100ecc001202a3781343424e3380ea88414b1a80b6
:100edc00414f6b883b80300005f06cff380005f00b
:100eec0055ff344b1b68197e3c4a11702f4a062162
:100efc0011703b4a002111703188ff221142d7d06a
:100f0c00334a128812061cd51a895001801a8000a7
:100f1c008018c000052105f063fc0200264d6863b3
:100f2c00a863304828643c230121e95402abd91d45
:100f3c0000230b70013304f0c9fd6864431cb7d166
:100f4c0025e71d4d2848a023e8506e3b9422ab505a
:100f5c000432ab5000230432ab5402aad11d0b70e7
:100f6c00322204f0b3fda423e850431ca0d10ee7b9
:100f7c001e4b00221a70104ca425605905f076fa0d
:100f8c00606c05f073fa605905f050fa606c05f06e
:100f9c004dfa064b08221a700d4b093a1a80144b65
:100fac001b68002b00d1f2e69847f0e6843c002049
:100fbc00f03b0020b43b00203c350020e83b0020f7
:100fcc00b43c0020823c0020683b0020e43b002025
:100fdc008e3b00208e3c00207c3c0020883c002076
:100fec00813c00203d3e0000f5770000873c00204e
:040ffc00ec3b0020aa
:020000040000fa
:1010000070b50d009b4b1c78042c00d120e14e28bc
:1010100007d059280ad10a78974b1a770024200064
:1010200070bd0a78944b1a750024f8e7914b5b78f1
:101030000f2b00d10ee10b2800d1ffe018d9532867
:1010400000d1aee078d84f2800d199e0892450280b
:10105000e5d1894c0b880978a1731b0ae373222020
:1010600004f0eaf8e17b232004f0e6f80024d6e758
:10107000022800d1cae01fd9032800d1d4e00428f7
:1010800058d1002c00d0ebe0082b00d1ece0082078
:1010900000f0f6f80828fad12e78300000f0f6fac1
:1010a0000500162000f0ecf8002d00d1dae0724bbc
:1010b0001e7602f06dfeb2e7002839d1002c00d078
:1010c000cae06d4b1b7e052b7ad00a786b4bd34060
:1010d000db0700d4c2e0684bde7c2a78da7402f0c9
:1010e00057fe644b5d78082d05d0082000f0c8f845
:1010f0000828fad11625604b187e052867d05e4b6c
:10110000db7c002b01d0002e6bd100f0bffa04f085
:101110006bff594bd87d04f0adfe0100052004f0b3
:101120008bf8082d00d17ae7162000f0a9f876e7b1
:10113000892474e7892472e7572858d08924f02835
:1011400000d06ce70a684b684b4d2a70110a697031
:10115000110ca970120eea702b711a0a6a711a0228
:10116000120eaa711b0eeb7124242978200004f0c2
:1011700063f801350134e4b22c2cf6d100244ee79b
:101180000b783d4a5375d27e934201d93a4b5a753a
:10119000394b5b7d00220f212f2005f0d5fe002466
:1011a0003de7354c0b88097821731b0a63732020b7
:1011b00004f042f8617b212004f03ef800242ee781
:1011c0000a780a33d340db0785d4882427e7db7c01
:1011d0005b000b33dbb20022ff210e3005f0b4fec2
:1011e0009fe700221f21082005f0aefe99e70b784b
:1011f000214ad376527d9a4201d91f4a537504225f
:10120000f0212f2005f0a0fe002408e70b781a4cef
:10121000e37504f0e9fee07d04f02cfe01000520fa
:1012200004f00af80024fae60b78134a93740522b6
:101230006021082005f088fe0024f0e60b780e4ab5
:101240009375032208212e2005f07efe0024e6e699
:101250008624e4e68124e2e68624e0e68824dee6cd
:101260008624dce68824dae60e78300000f00efaf8
:10127000050019e77c3a0020403a0020ff070000f3
:020000040000fa
:1012800070b50400854b5b780f2b07d00338c2b2d2
:10129000162a6dd89000824a125897460f287cd0a3
:1012a0007e4d00232b7105f061fe08236b70082c26
:1012b00000d1eee0032c00d1ede0201fc3b2152bce
:1012c00056d89800774b1b589f460321022003f005
:1012d000b3ff06f0f3f80400c1b22d2003f0acff19
:1012e000a3b21b0a002207212e2005f02dfe0f209d
:1012f00003f000ff10210e2003f09eff012005f0f7
:1013000047fe694b802252039a61232005f040fe7c
:10131000624b0f225a700f203fe0604b5b78082b26
:1013200026d00821022003f087ff012005f030febf
:101330001ee0082b1cd00321022003f07dff0120ba
:1013400005f026fe14e0554b5b78082b26d00dd90e
:10135000162b01d0192b0bd10821022003f06cffb2
:10136000012005f015fe05f0c7f801e0062bf3d0cb
:10137000012003f0bffe1f231840484b5870632420
:101380001d001f2809d1012003f0b4fe1f231840bf
:101390006870013ce4b2002cf3d170bd05f0acf8ec
:1013a000e6e73e4b5b78082b06d0092be0d0042102
:1013b000022003f041ffdbe705f09ef8d8e7374b4a
:1013c0005b78092b0ed009d8082bd1d10621022039
:1013d00003f032ff012005f0dbfdc9e7162b01d039
:1013e000192bc5d10821022003f026ff012005f0aa
:1013f000cffd0621022003f01fff012005f0c8fdec
:10140000b6e7264b5b78082b16d004d9092b04d0fd
:10141000192badd101e0062baad10821022003f03f
:101420000bff012005f0b4fd1621022003f004ff9c
:10143000012005f0adfd9be71621022003f0fcfe24
:10144000012005f0a5fd93e7144b5b78082b18d01d
:1014500005d9092b06d0162b00d089e702e0062b10
:1014600000d085e70821022003f0e6fe012005f008
:101470008ffd1921022003f0dffe012005f088fd19
:1014800076e71921022003f0d7fe012005f080fd48
:101490006ee7200081e708207fe7c0467c3a002005
:0c14a0007c3b0000d83b0000002800400e
:020000040000fa
:1014ac00f0b5de4657464e464546e0b583b0019052
:1014bc001e000cab01cb81461b789a460eab1f78f5
:1014cc005478240213781c43502e00d9b6e0a4b2f1
:1014dc00624b1b889bb29c4200d1b8e0604b1b78de
:1014ec00063b0025012b00d9a9e0022900d0a6e07b
:1014fc008c2005f0cff88046002800d1a9e00368c5
:10150c009b46002b00d1a6e0019b023b5a425a415c
:10151c0051005b465b7d032293430b435a46537544
:10152c0014834e4b1b88538301233b401a015b46ab
:10153c005b7d10218b4313435a4653755b4696775c
:10154c0052465a7400235a4693745b460f9a5a605b
:10155c003200494658461f3006f074f8414b9c4205
:10156c002bd83e4b1988ff2399435b469981002f5a
:10157c0049d08c4240d03c4b1b68d87b0130c0b268
:10158c00210004f095f95b469860374b1b689b7ef5
:10159c0001335a4613749189344a584602f03cf888
:1015ac00002804d15b461b7c013b5a461374414610
:1015bc002f4805f0affb3d0041e05b465b7d102200
:1015cc0093435a4653752b4a2b49584602f024f83c
:1015dc00051e0cd10f9b002b05d05b46587c5a4640
:1015ec0001210f9b9847404605f0b0f927e0414692
:1015fc00224805f08ffb22e02100012004f058f96d
:10160c005b469860c1e700235a461374194a584642
:10161c0002f002f8051e0cd10f9b002b05d05b4687
:10162c00587c5a4601210f9b9847404605f08ef98d
:10163c0005e04146114805f06dfb00e0002528004f
:10164c0003b03cbc90469946a246ab46f0bd002583
:10165c00f5e70025f3e70025f1e7c0468e3b0020b7
:10166c00843c0020fcff0000b43b0020f52e000061
:10167c00303b002071530000ffff0000543b002062
:020000040000fa
:10168c0010b5734b1b7e002b00d1cae0704b0a22a5
:10169c001a74093a5a7408230132c9e0032208214a
:1016ac000c3005f04bfc032300220321162005f01f
:1016bc0045fc0023042210210c2005f03ffc644b58
:1016cc00db7c002b20d1022204210c2005f036fcff
:1016dc00002302220421172005f030fc5c4c01236e
:1016ec005b422372083363720023a372e3720022fd
:1016fc000721142005f022fce37c00221f21082086
:10170c0005f01cfc0123a0e00123022204210c2083
:10171c0005f014fcdce70123032208210c2005f062
:10172c000dfc022300220321162005f007fc0023e8
:10173c00002203210c2005f001fc002304221021bf
:10174c000c2005f0fbfb424bdb7c002b20d1022252
:10175c0004210c2005f0f2fb0023022204211720a7
:10176c0005f0ecfb3a4c01235b42237208336372a5
:10177c000023a372e37200220721142005f0defb84
:10178c00e37c00221f21082005f0d8fb01235ce03c
:10179c000123022204210c2005f0d0fbdce70123fd
:1017ac00032208210c2005f0c9fb0223002203218f
:1017bc00162005f0c3fb0023002203210c2005f0aa
:1017cc00bdfb0123042210210c2005f0b7fb0123e3
:1017dc00022204210c2005f0b1fb0023022204217b
:1017ec00172005f0abfb1a4b0f221a7200225a720b
:1017fc009a72da72db7c032b01d9154bda74042351
:10180c0000220721142005f099fb114bdb7c5b00b7
:10181c000b33dbb20022ff21132005f08ffb0123d9
:10182c0013e00b4b28221a74243a5a7420230432e6
:10183c000749d3184b768a76022800d16be7052826
:10184c00add00023002800d128e7180010bdc046f9
:04185c00403a0020ee
:020000040000fa
:10186000f0b5c64600b584b001900f000293960013
:10187000300001f009f8051e00d1bae0542001f053
:1018800003f8041e58d005633200a521280005f096
:10189000e9fe236b9846002f54d03b783422a354a2
:1018a000002b09d0012321003431fa5cca54002aec
:1018b00002d00133102bf8d143230022e2540a9db9
:1018c000042d00d90425e56265640027a764231d63
:1018d0000393180005f0c5ff2000183005f0c1ff84
:1018e000246105235b1ba3616462e7645023e75412
:1018f000301f4044493b9843029a019905f04efc41
:1019000020600b9b002b00d01c6005f0bffd3c4a03
:101910001368013313603b4b1b68002b16d03a4b06
:101920001b68002b17d1374b1b68db6ae26a9342b6
:1019300011d8344b1c600ee0280004f0f9f80120a7
:10194000404258e034230022e254b8e72d4b1c609b
:101950001368012b23d02d4a136801331360e36a07
:101960002b4a1268934201d9294a13609800c01883
:101970008000284b1818039905f0e6fd05f040fe9d
:10198000214b1b680120002b35d01e4b1b68da6ae7
:10199000e36a9a422fd205f06dfd01202be01d4d28
:1019a000280005f0c6fd2800143005f0c2fd28000f
:1019b000283005f0befd28003c3005f0bafd2800b7
:1019c000503005f0b6fd144e300005f0b2fd134d59
:1019d000280005f0aefd124805f0abfd114805f0fa
:1019e000a8fd114805f0a5fd104b1e60104b1d60b1
:1019f000b1e70120404204b004bc9046f0bdc046af
:101a0000383c00202c3c00205c3c0020443c002062
:101a1000483c002028380020a83a0020bc3a00208a
:101a2000d03a0020f83a0020e43a0020303c002070
:041a3000343c002022
:020000040000fa
:101a340070b50500594c207fc0b2002800d0a7e043
:101a440000294ad0002d48d0554c666807243440fc
:101a5400012c5ed0514805604260002444618461d9
:101a640004614e488160002a58d04c4ad3604b4ae6
:101a7400012111774a4a127e520705d5484a0420ab
:101a8400916a117e0142fbd1454a518b04200143e6
:101a94005183117e80200143117640498a68c968c8
:101aa400914203d93d48c168891a01613c4949689a
:101ab400490743d139498969914233d2374a116878
:101ac400087837498862916901319161002b5ad0b5
:101ad400334b04229a7501205be0002b59d0002a75
:101ae40057d02f4c666807243440012c0cd02b4867
:101af400056042600024446184610461002db0d11a
:101b0400264900208860aee7002943d1dc07eed5e2
:101b14003fe0cc073dd4002be9d0f7e71f4a002172
:101b2400d160a4e71d4a1269002acfd01c4aff21c4
:101b340091621a490a69013a0a61c7e7174a91682a
:101b440049089160116949081161d1684908d16057
:101b5400916892698a420ad210490a681288d205a9
:101b6400d20d0f4882628a6901328a61aee70b4a5c
:101b74001269002aaad00a4a0a49916207490a69e5
:101b8400013a0a61a2e7064b01229a75012000e09e
:101b9400002070bdcc07b9d5fbe7c046ec39002066
:081ba40000100042ff010000e7
:020000040000fa
:101bac00f0b583b004f0cefa002800d091e0d2302a
:101bbc00400005f0e7f94c4c982580231b06635137
:101bcc00802636029423e65080235b0363610a204f
:101bdc0005f0d8f966511e2005f0d4f900221f211a
:101bec00012005f043fd6b46d871da79d2b2da7177
:101bfc000a24642005f0c6f91c2003f075fa0728a6
:101c0c0005d0013ce4b2002cf3d1852762e0082119
:101c1c00053803f00bfb00221f21012005f026fde7
:101c2c000828f2d10021063003f000fb2f4b0822cc
:101c3c005a702f4805f0ccfa00284ed1012001f043
:101c4c00cdf9071e4dd12b4d08e02a4c2600083645
:101c5c0005f02efc20700134b442f9d12878697853
:101c6c0009020843a97809040143e87800060843ef
:101c7c0002002879697909020843a979090401430a
:101c8c00e87900060843030001204042c1171218ee
:101c9c004b41591c01d1d31cd7d800221649002026
:101cac0005f0b0f8002005f029fd03f0abf98c200d
:101cbc0004f0f0fc114b1860002810d0ff211048e4
:101ccc0005f043fd05f07cfb084b822252041a619f
:101cdc0000e08527380003b0f0bd8527fae785279b
:101cec00f8e78527f6e7c046002800407c3a00203c
:101cfc007f3c0020403a0020d1770000a03b002020
:041d0c000c3b00206c
:020000040000fa
:101d1000f0b5de464f4680b585b001900291039242
:101d20001f000cab1d780eab1b789b460f9e8c20c2
:101d300004f0b6fc8146002800d18ae00468002c3b
:101d400000d188e000232375022d6ad0237d042270
:101d50009343202213432375237d08229343237545
:101d60003e4b1b889bb23e4a93426bd03d4b1a7848
:101d7000063ad2b20023012191425b41dbb2637784
:101d8000ab1e5a4253412377237d9a0801215140cb
:101d900001220a40920140218b4313438022524288
:101da00013432375019b5b88e38327743b0a6374a9
:101db0003b0ca3743b0ee374271d2a000d993800d9
:101dc00005f046fca7612673330a6373330ca373d3
:101dd000360ee67321235a46e254029b039a944638
:101de00063442022a3542423109ae254109b1a0a1d
:101df0002523e254109b1b021b0e2622a354109b8a
:101e00001d0e2723e5544946174804f089ff002892
:101e10001ad104f099ff012005b00cbc91469b46f5
:101e2000f0bd0d9b5a7812021b789b189bb20f4a8b
:101e3000934200d88ae7237d042213432022934350
:101e4000237589e700239ae7484604f085fd0020c2
:101e5000e2e70020e0e70020dee7c0468e3b0020fe
:101e6000ffff0000843c0020483b0020fcff0000f6
:020000040000fa
:101e700070b5504b586a504b9b7d002b54d04e4947
:101e80004c68072214404b4b5a699d699e680b7e33
:101e90005b0757d5896a474bdb68934252d9002cc0
:101ea00043d1444b5b6899540132434b1b7edb07a3
:101eb00016d5414b012119753e4b9b68ab4256d953
:101ec0003c4b1b68595d3c4b99620135394b1b6992
:101ed000002b01d1b54262d0364bdb68934262d011
:101ee000344b5a619d61344b1b7e9b0715d5334b98
:101ef0001b78002b18d02f4bdb68934211d12d4b50
:101f000000221a772c4907240c752c490a701b6a89
:101f1000002b09d0274b1b6a9847284b1b78002bb6
:101f200002d0254b02229a7570bd224b5b6854008b
:101f3000e1520132204b1b7edb07d1d51e4b012124
:101f4000197508e01c4b1b7edb07c9d51a4b012114
:101f50001975002cb0d0174b9b68ab4213d9154ba9
:101f60001b686900c95a144b99620135aee7114be1
:101f70001b69002baad0104bff2199620d490b69f8
:101f8000013b0b61a2e70b4b1b69002b9ed00a4b58
:101f90000b49996207490b69013b0b6196e7074bb7
:101fa000012119709ce7044b0121997503311975c2
:101fb00096e7c046ec390020001000428b3c002020
:041fc000ffff00001f
:020000040000fa
:101fc400f0b58db04c4b1b88ff229343dd3a6a4435
:101fd40013808c2004f062fb051e5ad00668002e84
:101fe40057d000230793454aa433d05807a902f0d9
:101ff40051fd079b002b4ed1404c4148a023e0509b
:10200400404b19680a6953019b1a9b009b18db001b
:102014009422a35009694a01521a92005218d2001c
:102024009823e25000239c216354813969440b7046
:1020340003f050fda423e050431c2ad0324a137805
:10204400013313702c4b198889b209ac22276f44d1
:102054003a882300012003f001fc63782022134313
:102064001022934363703100200004f04ffb010001
:10207400312333540495254b039300230293019792
:1020840002330093330001222000fff73ffe0028b3
:102094000ad00db0f0bd194fa424385904f0eaf960
:1020a400385904f0c7f9a7e7280004f053fc164a8e
:1020b4001378013b1370114c1148a023e050114bcd
:1020c40019680a6953019b1a9b009b18db00942230
:1020d400a35009694a01521a92005218d200982357
:1020e400e25000239c21635407a90b7003f0f2fc17
:1020f400a423e050cde7c0468e3b00203c350020b1
:10210400f5770000b43b0020813c0020a54200008c
:020000040000fa
:1021140010b584b004000378082b3cd023d8022bdc
:102124001fd101aa0a2313706b4600215971013192
:1021340099710021d9711972093169443c4b0b70b2
:10214400180a48701802000e88701b0ecb703948ac
:1021540001230370083343704280120c828004f020
:10216400cdfc04b010bd0a3b012bfad801a9002311
:102174000b70314a314803f0adfc314b1860431cfd
:10218400efd00c232f4a13702370002221002e4815
:1021940004f056ffe5e705f08ff92c4c23001f33bc
:1021a400e077000a587000229a70da7005f084f91a
:1021b4007f23184023002333187000225a709a702a
:1021c400000ed87005f078f9ff2318402300273358
:1021d4001870020a5a70020c9a70000ed87021000e
:1021e4000a31022002f01efd638963801b0ca38068
:1021f4000023e380238121001631002002f012fd28
:1022040021001431012002f00dfd2b232022e25481
:102214000133153ae2540e4ba36306484480240c60
:1022240084803c2343703a3b037004f067fc98e7d6
:1022340089490000883b002010270000a9570000ae
:10224400a83b00205e3a0020843b0020b0390020e7
:04225400014900003c
:020000040000fa
:1022580070b584b0454b5b7a002b07d0444b1b7894
:10226800002b03d0434b1b78002b09d0424b5b7ae1
:10227800002b65d1414b1b78062b69d004b070bd8b
:1022880000213a4802f09eff05000468002cedd0ba
:10229800237b627b12021a43a37b1b041a43e37b52
:1022a8001b061343364a1360364a137801331370fa
:1022b800237c627c12021a43a37c1b041a43e37c2e
:1022c8001b0613432422a25c2521615c09021143e9
:1022d8002622a25c120411432722a25c12060a439a
:1022e8000392294a02922122a25c01922022a25c36
:1022f8000092207d627d12020243a07d0004024309
:10230800e07d00061043217e627e12020a43a17e10
:1023180009040a43e17e09061143227f667f3602db
:102328001643a27f12041643e27f12063243fef7d9
:1023380061fa0f4b00221a70280004f009fb95e798
:10234800fef7bafb002895d01048fef7edf891e7a4
:102358000f4b1b881b0600d590e70a4b1b78002bf8
:1023680000d08be7002004f03bfd87e7483b0020c6
:10237800c23c0020873c00203c3b0020843c0020dd
:10238800d83b0020813c0020716d0000943a002069
:042398008e3b002058
:020000040000fa
:10239c0070b50400002928d0454b1b7f0422f02186
:1023ac002c2004f0cbfd012c5ad9414b1b7d012272
:1023bc000e212c2004f0c2fd1920fef75bff19281a
:1023cc00fad13c4b1868017803f098f83a4b01228b
:1023dc001a703a4c80256d03a561012004f0d2fde2
:1023ec006561002005f08af970bd00230422f021fc
:1023fc002c2004f0a3fd012cd7d8072301220e2199
:10240c002c2004f09bfd38e0294bd87c43425841ea
:10241c004042f0239b001840294b9c46604441e00d
:10242c00002bc9d0224b1b7e002b0fd1204bd87c0c
:10243c0043425841404296235b0018400430ff3021
:10244c0004f0dbfb1c4b0022da70b5e7184bd87c90
:10245c0043425841404290235b0018409730efe7cd
:10246c00072301220e212c2004f068fd104b1a7f4b
:10247c00144b1a70144b01221a70012c9cd10e4b68
:10248c00db78122bccd90a4b1b7e002bbcd1084b12
:10249c00d87c434258414042fa239b0018400b4bd6
:1024ac009c46604404f0a9fb034b0022da7083e7de
:1024bc00403a00209c3b00207c3a00200028004041
:1024cc0057020000763c0020773c0020bf03000040
:020000040000fa
:1024dc0010b5072800d183e024d9502858d033d91f
:1024ec00572800d186e03bd9592800d187e0f02845
:1024fc0042d1454b1a785878000210439a7812044e
:10250c001043da78120602431c795879000204430e
:10251c00987900042043db791b0603430a604b6067
:10252c0000201ce003284ed006d8012838d045d80e
:10253c00354bdb7c0b7012e0052849d055d8324b5b
:10254c001b7e0b7000200ae04e2817d01bd80b28de
:10255c0004d12d4b9b7d0b70002000e0892010bd19
:10256c00532807d1284a107b537b1b0203430b8053
:10257c000020f4e78920f2e78920f0e7224b1b7d4d
:10258c000b700020ebe7204b5b7d0b700020e6e727
:10259c001d4a907bd37b1b0203430b800020dee79c
:1025ac001948037a427a12021a43837a1b041a439b
:1025bc00c37a1b0613430b600020d0e7124bdb7d64
:1025cc000b700020cbe7104b9b7c0b700020c6e7f8
:1025dc000d4a107c537c1b0203430b800020bee78a
:1025ec00094b9b7e0b700020b9e7074b5b7e0b7091
:1025fc000020b4e7044bdb7e0b700020afe7024bee
:0c260c001b7f0b700020aae7403a002062
:020000040000fa
:10261800f0b5ce4600b584b00400009101921f00c9
:102628000025442640e0a66b3a000099200002f0fd
:10263800affca36c002b11d0022f00d180e020004a
:1026480003f0ecfb002806d104f0d6ff012004b00b
:1026580004bc9146f0bd04f009fff5e7636a002b5e
:1026680004d10028f0d004f001ffede72000243069
:1026780002f052fc0028e7d004f0f8fee4e704f08a
:10268800bbff0020e3e702a804f008ff19e00023dd
:10269800a35520e045230022e25421e0200001f068
:1026a8007bff00f089fd012504f0ecfea36be26bd3
:1026b8009342b8d3022f3ad0019b002bdfd0002dd4
:1026c800e1d004f099ff05f033f804f0dbfea35dd8
:1026d8005bb20133dbd04523e35c5bb20133d9d075
:1026e80004f08aff01a902a803f04afa002817d1ca
:1026f80004f0c8fea36b9946e56b04f07dffa9457d
:10270800ccd120001030019904f0fefd200001f02a
:1027180043ff00f051fd0028c5d104f0a7fec2e731
:10272800200001f039ff00f047fd00208fe7a66b7d
:1027380002220099200002f02bfca36c002b8dd004
:08274800002e00d080e77ae7c3
:020000040000fa
:10275000f0b585b0040001910023009300254426c4
:10276000002743e0013ba3632368002b09d02369c2
:10277000002b0ad104f044ff01230093009805b018
:10278000f0bd04f0d3fda060f1e72000103002f0ae
:10279000c7fb0028eed004f06dfeebe704f030ff3d
:1027a00000230093eae702a804f07cfe28e0a75586
:1027b00030e04523e75432e004f068fea06801f001
:1027c000cbff009004f01cff39e0200001f0e8fe90
:1027d00000f0f6fc09e0200001f0e2fe00f0f0fc61
:1027e000200004f017ff002838d1012504f04efe28
:1027f000a36b002bb6d1019b002bcfd0002dd2d0e4
:1028000004f0fefe04f098ff04f040fea35d5bb20e
:102810000133ccd04523e35c5bb20133c9d004f073
:10282000effe01a902a803f0aff90028d3d12000e0
:1028300004f0f0fe0028c8d02368002bbcd0200094
:102840002430019904f064fd200001f0a9fe00f09d
:10285000b7fc0028c9d104f00dfec6e7009b002b91
:1028600000d18be704f012fe616a002903d0236bcc
:102870001b680521c91aa06802f072fc04f0c0feb2
:06288000002300937ae73b
:020000040000fa
:02288600704799
:020000040000fa
:10288800f8b5040004f054ff404b1b68002b15d02a
:102898003f4b1e68344238d1002c3dd0220008320c
:1028a800530702d007239a430832002a34d0394b01
:1028b8001f68974233d338490c6835e0374a5307c5
:1028c80020d0d11d07239943bd239b019c46624418
:1028d800531a0a003048026000214160d318083baf
:1028e800072083432948036059601960991a516089
:1028f80013602b4b1960274b1960254b8022120659
:102908001a60c5e7bd239b01e4e700f055fc04f01d
:10291800a7ff00252800f8bd00f04efcf7e700f0ff
:102928004bfcf4e721001c006368934202d2236841
:10293800002bf7d1154b1b68a3421ed00d68083534
:1029480023680b6063689b1a102b19d86368ff1af9
:10295800104a1760124a1268974201d2104a17604b
:102968001e436660002323600e4a13680133136018
:1029780000f022fc002dcdd1c9e700f01dfcc6e710
:10298800a0184360626003f0a5f9dfe7143c00205b
:10299800183c00201c3c0020783b00200000002050
:0829a800203c0020243c00202b
:020000040000fa
:1029b000f0b5c64600b582b03a4b1b68002b65d116
:1029c000394b1a68013290461a60002a18d0374bea
:1029d0001b68434521d900230193354b1b68da6af4
:1029e00093009b189b00334a9b58012b01d901236c
:1029f0000193314b1b68002b4ed0012301934be018
:102a00002e4a11682e4b1868106019602d4a136801
:102a10000133136004f0ccf8d9e700230193274e6b
:102a2000370033681b68002b28d03b68db68dc6804
:102a30006368984527d3251d280004f05ffaa36a30
:102a4000002b03d02000183004f058fae36a1e4a25
:102a50001268934201d91c4a13609800c018800084
:102a6000144b1818290004f06ffd114b1b68e26a23
:102a7000db6a9a42d5d301230193d2e70b4b0122a3
:102a800052421a60a9e7094a1360a6e70f4a136881
:102a90000133136000230193019802b004bc9046f7
:102aa000f0bdc046403c0020603c0020503c00206f
:102ab0002c3c002028380020643c0020303c0020c2
:102ac000343c0020543c0020483c0020583c00206e
:020000040000fa
:102ad00070b52d4b06225a6003f0cdff01f014fdb6
:102ae00000f0f0ff04f04afe01f0f1fa03f042fdbd
:102af00002f01cf903f060fc2449002000f060fea5
:102b0000234b1860234c244b2360244b6360244bdd
:102b1000a360244be360244b2361244b6361244b6b
:102b2000a361244be361244b2362244b6362244b57
:102b3000a362244be362244b2363244b6363244b43
:102b4000a363244be363244b236400231422012159
:102b5000224802f00fff002314220121204802f036
:102b600009ff204d04224021280004f06bfc2900bd
:102b7000200003f009ff04f0e7fb02f055ff02f02c
:102b800053fffff713f870bd004000414478000088
:102b9000103c00202c39002081730000fd730000e0
:102ba00075590000fd6f00001574000021680000d9
:102bb0008b760000457400004570000055680000e9
:102bc000697000009d7600009d750000b1750000e1
:102bd0001d750000fd77000005780000083c00200e
:082be0000c3c0020043c002025
:020000040000fa
:102be800f0b5ce4600b58cb014001f001f266e4409
:102bf8003070384b1b685a68089204f0f3fd33783c
:102c0800d840c3075ad5129a002a5cd0324b18789c
:102c1800002854d08c2003f03ffd051e55d00668cf
:102c2800002e54d01f216944002000f0fdff2a4bdc
:102c380004221a70294b06971f7009af63781b028c
:102c48002278d21892b23b002549012002f004fef6
:102c58007b78202213437b703100380003f054fd49
:102c680081460323335403000133dbb20122f254bb
:102c780003000233dbb2069af2540330c0b23018b4
:102c8800042208a904f0e0fc164b129a1a60049575
:102c9800154b0393002302930194023300933300ee
:102ca800072249463800fff72ff803000120002bc0
:102cb80005d1280003f04cfe002000e001200cb0f4
:102cc80004bc9146f0bd0120f9e70020f7e7002099
:102cd800f5e7c046b43b0020843c0020893c002036
:0c2ce800ffff0000e43b0020c955000085
:020000040000fa
:102cf400f8b5394e394c23689d680023142201210c
:102d04003000a847364d23681b6b1c2128009847c8
:102d140023685b6b29003348984723685b6b290061
:102d240030009847304b314a1a60314c2b4f2d4daf
:102d340007e02a4b1b68db6800212748984704f00a
:102d44004afd3b689b6b2b4a254920009847236822
:102d5400214a12689342ecd02a689342f1d1224e60
:102d64001e4b1b689b6a002231001e48984733683b
:102d74001a78012a0ed0022ae3d19878da7812025e
:102d8400024318790004024358790006104301f005
:102d9400d5fad6e79978da78120211431a7912042f
:102da4000a435b791b0613435a7999790902114343
:102db400da79120411431a7a12060a435978987878
:102dc40000020843d9780904084319790906014324
:102dd400187801f0fffab4e7c43b0020bc3b0020a4
:102de400cc3b0020b83b0020c03b0020903b00209f
:082df400c83b0020ffff0000b6
:020000040000fa
:102dfc00f0b5c64600b584b00400009101920027de
:102e0c0044260023984638e00099200004f04af943
:102e1c006b1ea3632369002b06d104f0ebfb01208e
:102e2c0004b004bc9046f0bd2000103002f072f8e3
:102e3c000028f2d004f018fbefe704f0dbfb0020d5
:102e4c00eee702a804f028fb21e04346a35528e056
:102e5c0045234246e25429e0200001f09bfb00f0a0
:102e6c00a9f909e0200001f095fb00f0a3f920007e
:102e7c0004f0cafb002835d1012704f001fba56b37
:102e8c00002dc1d1019b002bd7d0002fd9d004f03d
:102e9c00b1fb04f04bfc04f0f3faa35d5bb201331d
:102eac00d3d04523e35c5bb20133d1d004f0a2fb59
:102ebc0001a902a802f062fe0028d3d1200004f080
:102ecc00a3fb0028c8d020002430019904f01afa82
:102edc00200001f05ffb00f06df90028ccd104f06c
:082eec00c3fac9e700209be7cf
:020000040000fa
:102ef400f0b5d6464f4680b583b081468a460192e6
:102f0400177b334b1a88ff231a4205d1314b5b7a66
:102f1400002b57d000242ce0080002f0b1f8f5e7ac
:102f24000123b374b1892c4a300000f079fb0028e6
:102f340002d1337c013b33742900264803f0eefeb2
:102f440011e0318b254b1b68d87b0130c0b202f0f5
:102f5400b3fcb06029001f4803f0e0fe03e0290041
:102f64001c4803f0dbfe0134e4b21a4b5b7aa34243
:102f740028d90021174802f027f9051e22d0066837
:102f8400002e1fd0337fbb42e9d1737c4b45e6d181
:102f94005346002bd5d0337c002b04d0013bdbb24d
:102fa4003374002b03d00e4b1b78082bb8d17368f5
:102fb400002b03d0019a514648469847280003f055
:102fc400c9fcd0e703b00cbc91469a46f0bdc0469c
:102fd4008e3b0020303b0020f52e0000b43b002047
:042fe400843c002009
:020000040000fa
:102fe80070b50400384d80235b036b61d22040002c
:102ff80003f0caff802636029423ee500a2003f01d
:10300800c3ff9823ee50642003f0beff00221f2167
:10301800012004f02dfb0a2508280dd0642003f0b8
:10302800b3ff00221f21012004f022fb013dedb275
:10303800002df1d1852070bd244b08225a7002f072
:103048005ff9002304223021032003f079ff0023d5
:1030580003220821032003f073ff04f02bfa050074
:10306800c1b22d2002f0e4f8abb21b0a00220721fe
:103078002e2003f065ff0123052220212e2003f0d6
:103088005fff0123072280210c2003f059ff012351
:1030980001220221042003f053ff08210e2002f030
:1030a800c7f8062304227021152003f049ff002cdd
:1030b80007d101f073fd054b00221a709a700020a9
:1030c800b9e702f0b1fff4e7002800407c3a00209d
:020000040000fa
:1030d800f8b5374c656b63689b69984760616069b0
:1030e80004f0f6f8a66ae76a0023020092197b4109
:1030f800a262e362002d51d02d4c3022a35c013333
:10310800a35403f039fb646b002c06d0a368002b92
:1031180003d101250027264e11e0264d00242e005c
:1031280021e0e06903f084f9e368002b01d020690d
:103138009847746b002cf0d0a368002bedd125754f
:103148006575a378002b02d1e368002be9d1200034
:1031580002f096faa378002be6d16770e4e7013411
:103168002035052c15d06301f3185b7d002bf6d0b4
:103178006201104b9b1800225a75ab78012beed1d7
:1031880061010c4b59186b688b60280000f06cf9d2
:10319800e5e7074930228b5c013b8b5404f036fb92
:1031a800040000f02dfc200004f034fbf8bdc046fc
:0831b80070390020bc36002034
:020000040000fa
:1031c000f8b5ce46474680b504f060f92e4b1a6834
:1031d000013a1a601b680024002b03d12b4b1b689b
:1031e000002b06d104f00cfa20000cbc9046994646
:1031f000f8bd0024264eb046264f274b994633682b
:10320000002b22d04346db68dc682000183003f036
:1032100075fe251d280003f071fee36a3a689342ab
:1032200001d91c4a13609800c01880001b4b181865
:10323000290004f089f91a4b1b68db6ae26a9a429a
:10324000ddd301234a461360d9e7002c01d003f0f7
:10325000affc144b1c68002c0ed00f4e012502e071
:10326000013c002c05d0fff7a3fb0028f8d0356007
:10327000f6e70c4b00221a60074b1c68002cb1d0fb
:1032800004f0f8f80124ade7403c0020383c002071
:10329000d03a0020483c0020643c00202838002020
:0832a0002c3c0020583c0020ea
:020000040000fa
:1032a800f0b5ce46474680b583b081468846324b56
:1032b8001e78002e59d1cd00013debb201931700c5
:1032c8001500083500202d4c0fe04000604080b20a
:1032d800013bdbb2002b05d001b20029f5db400031
:1032e80080b2f5e70132954204d013781b025840aa
:1032f8000823f1e7002422490fe064004c40a4b2ff
:10330800013bdbb2002b05d022b2002af5db6400ba
:10331800a4b2f5e70137bd4204d03b781b025c40fc
:103328000823f1e7019d290000f022fe0f00290083
:10333800200000f01dfe4346013bcab2d2089a1a8b
:103348004846805cfab2d2089b1a07221740063a10
:10335800ba404c46e35c1a4207d0072319400126bd
:103368008e400640731e9e41f6b2300003b00cbc7e
:1033780090469946f0bdc046c33c0020211000008d
:043388000580ffffbe
:020000040000fa
:10338c00f0b5060085b00f0015001c008b4265d807
:10339c0001d1824262d82100280004f0adf8390036
:1033ac000090300004f0a8f8009b21001b1a1a00b2
:1033bc002800039304f094f800900191019bbb4208
:1033cc0046d802d1009bb34242d8009b019c039a81
:1033dc0001200021f61aa74104f082f8039b002b70
:1033ec002fd0019b009adb0754081c43019b5d08fe
:1033fc00039b9c46bd422ed801d1b4422bd832003f
:10340c003b00121bab41012692185b410027b618fa
:10341c005f4101235b429c446346002bead1801937
:10342c007941039a04000d003000390004f04cf887
:10343c00039a06000f0004f053f8241a8d41200063
:10344c0029000a9b002b01d01e605f6005b0f0bd07
:10345c0000200021c2e7b6197f41dae700200021e5
:02346c00efe788
:020000040000fa
:02346e007047a5
:020000040000fa
:10347000f0b5de4657464e464546e0b585b0814636
:10348000002854d0304b596b83689a4600290cd0e1
:103490008b6852460392002290469a4549d30022f7
:1034a00000238b460092019306e052468260264b31
:1034b0005863012034e0e3465e46b66834000025d8
:1034c000009a019b12196b41009201935e46b66906
:1034d000b446002e12d06646b66800210f00009a4e
:1034e000019bb6185f41474529d8e4d1039b9e4212
:1034f000e1d960465946009a019b01e030005946e7
:103500004c46a0618c61002051468a1a4b469a6055
:103510009b69002b04d04a4691689a68521a9a60b7
:1035200005b03cbc90469946a246ab46f0bd002093
:10353000f6e7054b5863816100220120e4e760460d
:0c3540005946009a019bdbe7703900201f
:020000040000fa
:10354c00f0b58bb006002f4b1c781a2c4dd80127e8
:10355c001d0007e00a2053e00a2051e00134e3b2d9
:10356c001a2b42d8e2b27368e3401f42f6d02a709d
:10357c002900002000f056fb0028efd01a236b44e2
:10358c00012252421a808c2003f084f8061ee1d0ee
:10359c000568002de0d007ac1a276f443a88230049
:1035ac001949012002f056f9637820221343637005
:1035bc002900200003f0a6f8010001232b540496e7
:1035cc00124b0393002302930197023300932b00b9
:1035dc0001222000fef796fb03000020002b0fd1e8
:1035ec00300003f0b3f90a200ae0094b05221a70e7
:1035fc007078084c31002368984700232360002022
:10360c000bb0f0bd823c0020ffff00008d3f00009e
:08361c00843c0020e83b002083
:020000040000fa
:10362400f0b58db0040006921e236b4419808c20e3
:1036340003f034f8071e50d02c4b1b889bb21e227b
:103644006a4412889a424ad0002c4ad00668002e56
:1036540049d009ad228b618b2b00ff2002f0fef8cc
:10366400627d9107890f6b78032083430d300240fc
:103674000b4310218b4313436b703100280003f07c
:1036840045f80500a37c002b20d0237fb370184a93
:103694001378013b13707019a27f21001f3103f0ce
:1036a400d5ffa27f0497069b0393637c02931e239a
:1036b4006b440193022300933300290009a8fef709
:1036c40025fb041e05d020000db0f0bdb378237790
:1036d400e1e7380003f03ef9f5e70024f3e70024be
:1036e400f1e70024efe70024ede7c0468e3b00201d
:0436f400853c0020f1
:020000040000fa
:1036f80070b504000d000b2859d883002d4ad35803
:103708009f46032208210d2003f0b2ff28702000f5
:1037180070bd072280210d2003f0aaff2870002029
:10372800f6e7002203210d2003f0a2ff28700020f5
:10373800eee701220221172003f09aff28700020eb
:10374800e6e700220721142003f092ff28700020ea
:10375800dee7132001f0cafc28700020d8e7002219
:103768001f21052003f084ff28700020d0e70022e5
:103778000f21152003f07cff28700020c8e70422e1
:1037880010212e2003f074ff28700020c0e70422c7
:103798001021172003f06cff28700020b8e70522dd
:1037a8002021172003f064ff28700020b0e788204c
:0837b800aee7c04628690000dd
:020000040000fa
:1037c00070b50d1e4cd000284dd12848383003f07c
:1037d000e4fd012802d00120404246e02b68234c42
:1037e0006360db689847e0600026c8220023002160
:1037f00002f0a0fd1e4a002302f05efe022200231a
:103800008018594120620423eb5623722661194b1c
:10381000a361194be36100220023a262e3626663a5
:103820003023e65463681b68002114489847636896
:103830001b69002b02d00d4a108b98470b4ce06996
:1038400080b263685b69984763685b689847a022a9
:1038500000210b4803f006ff02232370200004e040
:103860000120404201e00120404270bd703900203b
:10387000006cdc02ffff0000ff7f0000d930000079
:04388000bc36002032
:020000040000fa
:1038840010b52a4b1b68002b03d0294b01221a6068
:1038940010bd274b00221a60264b1b681b6b264a5f
:1038a4001968914202d1596891422fd0214b18686e
:1038b4001968343103f000f8204b1b689a00d218c1
:1038c40092001f495258002a06d1013b9a00d2188f
:1038d40092005258002af8d019489a00d118890049
:1038e40041184c6864684c60d218920008328218ff
:1038f400944212d09a00d218920011498a18526840
:10390400d1680c4a11600d4a1360c1e7996891426d
:10391400ccd1db689342c9d1cee760689a00d21853
:10392400920007498a185060e4e7c046403c0020f2
:10393400643c00202c3c0020a5a5a5a5483c002003
:0439440028380020ff
:020000040000fa
:10394800f0b583b006000d0001921f0008ab1c788b
:1039580002f048fe002845d0244b1b785bb2022bae
:1039680006d00124644203f077fa200003b0f0bdca
:10397800002d31d0b54232d31d4b1b78002b0bd014
:103988001c4b01221978002908d001322033052a5e
:10399800f8d101246442e6e70022154b0121197091
:1039a80000215970197559759c705d600199d9602d
:1039b8001f61ad1b9d60104909881404240c0a047a
:1039c8001443dc61013189b20c4a914202d00a4a9f
:1039d8001180c8e70121fae701246442c3e7012402
:1039e8006442c0e701246442bfe7c0467039002042
:1039f800bc360020dc360020c03c0020ffff000061
:020000040000fa
:103a0800f0b5c64600b52a4b5a6b59691961002aa8
:103a180042d09168274b994234d9254b5b690025e0
:103a28001c00244a0023a4185d41214b98465b687a
:103a38009b6998470027060043461b69834203d9c0
:103a48001d4a0023b6185f41194b196a00230a0062
:103a580092197b41ab4202d827d1a24225d98e19af
:103a6800134bde61124bdb691b0402d1104b0122a0
:103a7800da610f4bd86980b25b685b69984704bc10
:103a88009046f0bd91680a4b5b6900251c00002335
:103a98000a00a4185d41c8e7054b5b6900251c00b6
:103aa800044a0023a4185d41bfe7014bdc61d9e754
:0c3ab80070390020ff7f0000ffff0000bd
:020000040000fa
:103ac400274a002393611361264a0821917107391b
:103ad4005171254a13831100920dcb681342fcd017
:103ae400224b1b689b0e9b028022920013431e4aaa
:103af400d3611100920dcb681342fcd01a4b022201
:103b04001a831900d201cb681342fcd0184b194a0e
:103b14001a62190004224b681a42fcd1144a8c23fd
:103b24004021d15010004c31402243581a42fcd05d
:103b34000f4ad8234021d1501000983140224358d5
:103b44001a42fcd00a4aec234021d1501000ac3177
:103b5400402243581a42fcd0034b00221a75704786
:103b64000010004000040040000c00402060800071
:083b74000018004007010100e8
:020000040000fa
:103b7c0032130000a213000070130000be130000eb
:103b8c00701300001a13000046130000701300009d
:103b9c00701300007013000070130000701300000d
:103bac00ca120000701300007013000070130000a4
:103bbc00701300007013000070130000021400005a
:103bcc00701300007013000048140000a2130000d2
:103bdc0070130000be130000701300001a130000d5
:103bec0046130000701300007013000070130000e7
:103bfc007013000070130000ca1200007013000054
:103c0c00701300007013000070130000701300009c
:103c1c0070130000021400007013000070130000f9
:043c2c004814000038
:020000040000fa
:103c300010b582b00c00022826d008d906283ed044
:103c400080282fd0052834d0002002b010bd0028d5
:103c500011d001280dd101a80b7803704b78437067
:103c600003f09af80028f0d001ab1a88164b1a809e
:103c7000ebe70020e9e7002003f02df90028e4d06d
:103c80002278124b1a70e0e701a80b7803704b788a
:103c9000437003f095f80028d7d001ab1a880c4b7d
:103ca0001a80d2e70b785a1e93410a4a13700120fa
:103cb000cbe70422084803f0cbfc0120c5e70a78d3
:103cc000064b1a700120c0e77c3c0020823c00209b
:103cd0008e3b0020c33c0020e03b0020893c0020bc
:020000040000fa
:103ce000f8b5284b5b7a002b49d00025254f23e0ff
:103cf0000123a374a189244a2000fff793fc002824
:103d000002d1237c013b2374218b204b1b68d87b81
:103d10000130c0b201f0d2fda0603100194802f0bc
:103d2000ffff03e03100174802f0faff0135edb262
:103d3000144b5b7aab4222d90021380001f046fadd
:103d4000061e1cd00468002c19d0a368002be9d0f3
:103d5000013ba360002be5d1237c002bc8d0013ba5
:103d6000dbb22374002bc3d16368002b03d0607ccb
:103d7000220003219847300002f0eefdd6e701f063
:103d800059fff8bd303b0020f52e0000b43b002069
:020000040000fa
:103d900010b5294bda7d930613d43f231340264aee
:103da000127e052a13d01100123901290fd9002ad9
:103db0002cd1214ad27c002a19d1062b17dd0623eb
:103dc00034e052421f2313405b425bb2e7e71a49db
:103dd000c97c002909d0032907d0052a01d0122a5d
:103de00005d10a2b03dd0a2320e0042b1ddc9f22d2
:103df0001f2b13dd104ce27502f0f6f8e07d02f0a7
:103e000039f80100052001f017fa10bd0a4ad27cea
:103e1000002aecd1032beadd032307e0002b05daaf
:103e2000803a134081321a43e4e70423802252424d
:0c3e30001a43d2b2dee7c046403a002040
:020000040000fa
:103e3c0070b58ab01a236b4400221a80214b1a8861
:103e4c00ff231a4209d0204b1b881a226a44138084
:103e5c001e4a934201d10ab070bd8c2002f01afcac
:103e6c00051ef8d00468002cf5d0164b198889b2c1
:103e7c00154b1a8807abff2001f0ecfc210007a8ba
:103e8c0002f040fc0600072323540130c0b2201876
:103e9c0008220f4903f0d6fb04950e4b0393002325
:103eac0002931a336b4401930223009323000922db
:103ebc00310007a8fdf726ff0028ccd1280002f01e
:103ecc0045fdc8e78e3b00208e3c0020ffff000024
:083edc00b43c002069720000f3
:020000040000fa
:103ee400002941d010b4041c4c40a44601230022f4
:103ef400002900d54942002800d5404288422cd3ed
:103f040001242407a14204d2814202d209011b01e7
:103f1400f8e7e400a14204d2814202d249005b00e6
:103f2400f8e7884201d3401a1a434c08a04202d34e
:103f3400001b5c0822438c08a04202d3001b9c088f
:103f44002243cc08a04202d3001bdc0822430028f1
:103f540003d01b0901d00909e3e7101c6446002cb7
:103f640000d5404210bc704701b5002003f07efc30
:103f740002bdc0460029f7d003b5fff7b3ff0ebc5e
:083f84004243891a1847c046a8
:020000040000fa
:103f8c00f0b583b000292dd1204d214eae65214fc7
:103f9c003b78012422009a40130001331801c01a07
:103fac00800103f04df9fa21890000f05dfce86412
:103fbc003b789c4001342001001b800103f040f948
:103fcc00fa21890000f050fc0200286500235421de
:103fdc006b54694607310b70300001f077fde865d2
:103fec0003b0f0bd0c4b1868fff7aafa0028f7d005
:103ffc00094b19680870094b05221a704878084c4f
:10400c002368984700232360eae7c0463c3500202c
:10401c00c16000008a3c0020f03b0020843c002062
:04402c00e83b00204d
:020000040000fa
:10403000f0b585b00600029103921c0003f006fc67
:104040000190b36bf26b934208d30025022c05d08c
:10405000019803f003fc280005b0f0bd4523f55c92
:104060006db2b76b22000299300000f095ff6b1c17
:1040700005d001356db24523f5540125e8e7b36c51
:10408000002b10d0022c02d10235002fe0d13000dd
:1040900001f0c8fe01250028dad0039a002a12d0c8
:1040a00001231360d4e7736a0125002bd0d03000c0
:1040b000243000f035ff0028cad0039a002a04d02b
:0e40c00001231360c4e70125c2e70125c0e714
:020000040000fa
:0240ce00704739
:020000040000fa
:1040d00070b582b0224b1b68002b34d01e680720bd
:1040e00001f008f805006b46dc1d0121200001f0fd
:1040f0003bfa21781b4bd9704bb2002b21dbcc1c37
:10410000e4b2341b8c340231c9b2200001f02cfa25
:1041100074606b46da79a418a570da7973689b1815
:104120005a78104b5a750e4c21680f4802f0f8fd72
:104130008c2002f0b5fa206000280ad0002002f09e
:10414000c7fd02b070bd01216b46981d01f00cfa4d
:10415000f7e70930fdf794f8024b01229a70ede77a
:0c416000a03b00207c3a00200c3b00201b
:020000040000fa
:10416c0030b587b000f04af80e2833d00022002377
:10417c00049205931f4d0832290004a803f0ecf8b3
:10418c00040001225242d3170492059309322900ec
:10419c0004a803f0e1f8002801d0002c1ed108215e
:1041ac00684601f0f7fe002812d16946f030fcf7a2
:1041bc0021ff02ac2100f020fef78af902232370c4
:1041cc0021000320fcf716ff21000320fef780f9e5
:1041dc0007b030bd084b05221a70c7e70822054905
:1041ec0002a803f02ffa02a9f020fcf703ff002825
:0c41fc00dfd0ede7b43c00205e3a00206c
:020000040000fa
:1042080010b582b002f094f901a801246442048038
:1042180002f0d2fd174802f0bbfd02f083fc164bfa
:1042280001221a70154b1c801e21154803f08ffac5
:104238001e21144803f08bfa1e21134803f087fa55
:104248001e21124803f083fa6b46d91d00230b7018
:10425800fa22013392000e4801f03afc431c07d0c1
:1042680003f028f90b4b18700b4b187802b010bdef
:104278000120fbe77c3c0020843c00208e3b002092
:10428800303b0020543b0020483b00203c3b0020b2
:0c429800e13c0000853c0020833c00203d
:020000040000fa
:1042a40070b582b00c1e09d11f4b06221a7000f0a3
:1042b400ddf8200000f0e4fe02b070bd1b4ea42522
:1042c400705902f0d7f8705902f0b4f8184a13780c
:1042d400013bdbb21370002b22d0144d1548a023f0
:1042e400e850154b19680a6953019b1a9b009b18e7
:1042f400db009422ab5009694a01521a9200521809
:10430400d2009823ea5000239c216b54694607315c
:104314000b7001f0dffba423e850431cc9d1cbe7a9
:10432400002002f05ffdd8e7843c00203c350020eb
:0c433400813c0020f5770000b43b002025
:020000040000fa
:1043400010b5c6b0040012236b4400221a8000206e
:1043500003f0d2f9e075000a20763823e35c3922b5
:10436000a25c12021a433a23e35c1b041a433b2368
:10437000e35c1b061343029301230193134b1b7849
:10438000009323003c2212216944022002f090fd98
:1043900000280fd00d4a13780133137009230c4afb
:1043a000137005aa1370002205a90a4802f04afefc
:1043b00046b010bd0a2305aa1370054a13700022e7
:1043c00005a9044802f03efef2e7c0465f3a00202d
:0843d0005e3a0020843b00204e
:020000040000fa
:1043d80070b50e2836d8002a36d01c4b1c7804231a
:1043e80025009d43012d02d00123082c28d1174b0d
:1043f80003241c70164b1870164b1960164b1b685b
:10440800db691648036000245c7008201870596046
:10441800134b1a6003f0e6f9124b1c70c3070ad459
:104428000121012200e0190052004b1cdbb20242bc
:10443800f9d00c4b1970094b1868fff783f8030083
:10444800180070bd0123fbe70123f9e7843c002035
:104458008a3c0020e03b0020b43b0020f03b0020d9
:08446800e83b0020823c00202b
:020000040000fa
:1044700070b582b0204b1b780a249c42a4413123a2
:104480009c4364341d4dbc26a85901f0f5ffa85982
:1044900001f0d2ff00230193a433e85801a900f0f2
:1044a000fbfa019b002b21d0144ea425705901f07a
:1044b000e3ff705901f0c0ff104d1148b823e850d8
:1044c0000c3bec500433ec500023b422ab546a464e
:1044d000d11c0b70220001f0fffabc23e850431cf2
:1044e00002d0084b01221a7002b070bd034aa42307
:1044f000d05801f0a1ffdfe7823c00203c350020ce
:08450000114a0000873c002075
:020000040000fa
:1045080030b5234b802252031a6012021a6101212e
:104518004422995401329954002254201a540524f3
:1045280008301c542a3833251d5408301a540430d6
:104538001a544230174d1d50403019540f301a5438
:10454800cd38d0255855013558550d3559550135b3
:104558005a552f3d5a5507355a5501355a5507357d
:104568005c55fb348025ed021d51503418555130ef
:10457800ff304e3cff3c1c545420ff301954383156
:10458800ff315a543a22ff32e339995430bdc046bc
:084598000028004000800080b3
:020000040000fa
:1045a00070b5050002f072ff4523ec5c64b2002c8c
:1045b0001cdd2e0024360be06b6a002b16d0300079
:1045c00000f0aefc00280ed1013c64b2002c0dd0ee
:1045d000ab6c002bf0d0280001f024fc0028f3d0b5
:1045e00003f0def8f0e703f0dbf8ede74523ff2208
:1045f000ea5403f005f802f049ff4423ec5c64b28e
:10460000002c04dd2b692e001036002b0ed1442324
:10461000ff22ea5402f0f4ff70bd03f0c1f8013c40
:1046200064b2002cf3d02b69002bf0d0300000f0e6
:0846300077fc0028f3d0f0e74d
:020000040000fa
:10463800f0b5c64600b582b0009001911e4b1b68cc
:104648009f7b002f35d01e6832881c4b9a4210d0b1
:1046580004240023321f904618480133dbb2bb42c2
:1046680025d03119221d4546ad5a854203d0140084
:10467800f3e731000024009a0a800f4d2b681b686d
:104688001b19019999702b68db7b0133dbb2110090
:10469800180001f00ff92a6813680230927e50431f
:1046a8001c19e070012002b004bc9046f0bd002047
:1046b800f9e70020f7e7c046b43b0020ffff000001
:020000040000fa
:1046c80030b583b080256d00184c194b0193042335
:1046d800009300232a0021001648fdf7bdf82100a9
:1046e8000c31154b01930523009300232a0013482e
:1046f800fdf7b2f86d0021001831114b0193032327
:10470800009300232a000f48fdf7a6f82100243162
:104718000d4b01930123009300232a000b48fdf75a
:104728009bf801f001fb03b030bdc046186a0000d9
:10473800fc3b00203d780000003c0020357800005c
:10474800f83b002025780000f43b00202d7800007d
:020000040000fa
:1047580070b5041e3cd0c26a1e4b1b68db6a9a42c5
:104768002ed28369002b05db1a4b1b68d96a0523f7
:104778005b1a836193009b189b00174ad3186269e0
:104788009a4205d0134b1b68db6ae36201201ee0e6
:10479800251d280002f0aefb0e4b1b68db6ae362a6
:1047a8000e4a1268934201d90c4a13609800c01847
:1047b8008000094b1818290002f0c2fe012006e00b
:1047c800044b1b68406cdb6a98428041404270bdd4
:1047d8000020fce72c3c002028380020483c002022
:020000040000fa
:1047e80070b5002817d01c4b07221a701b4b1b787a
:1047f800002b07d01a4b1b78002b03d0164b1b78c5
:10480800052b10d0174b02221a70013a9a7000201b
:1048180002f05afa70bd0522e021022002f028ffba
:104828000d4b1870e2e71920fcf726fd1928fad17c
:104838000d4c80256d03a561183802f0a5fb656154
:10484800074a1378013bdbb21370002be2d1034b0c
:1048580000221a70dee7c0467a3c0020773c002030
:0c486800763c00207c3a00200028004034
:020000040000fa
:10487400002934d00123002210b488422cd301240f
:104884002407a14204d2814202d209011b01f8e7a4
:10489400e400a14204d2814202d249005b00f8e75d
:1048a400884201d3401a1a434c08a04202d3001b89
:1048b4005c0822438c08a04202d3001b9c082243bc
:1048c400cc08a04202d3001bdc082243002803d0fa
:1048d4001b0901d00909e3e7101c10bc704701b59e
:1048e400002002f0c3ff02bd0029f8d003b5fff792
:0c48f400c1ff0ebc4243891a1847c046a1
:020000040000fa
:1049000000b5c3b0002913d11a4b1b78002b07d078
:10491000194b1b78092b22d00e2b20d043b000bda1
:10492000164b186801f0a8fd124b01221a70efe730
:10493000104b1b78002bebd06b460022da70fa325a
:1049400001239200694603310d4801f0c5f80b4b75
:104950001860431ce2d0074b00221a70d8e70a23e4
:10496000054a137001aa1370002201a9054802f03c
:1049700069fbd3e75d3a00205e3a0020ac3b0020a3
:0849800087280000843b0020a1
:020000040000fa
:1049880030b5c5b000282ed00a0009320023ff2513
:1049980004e00133dbb21232984206d01478002cbe
:1049a800f7d0002bf5d11d00f3e7ff2d10d0eb0059
:1049b8005a19520010328a185b195b00c918087b13
:1049c8000e4b009306230221fef70af945b030bdcd
:1049d80002230b4a137003aa1370002203a9094883
:1049e80002f02cfbf2e70223054a137003aa1370a6
:1049f800002203a9034802f021fbe7e779630000de
:084a08005e3a0020843b00200f
:020000040000fa
:104a100030b583b01b4b00221a701b4da4242859bb
:104a200001f02afd285901f007fd184a1378013bcf
:104a3000dbb21370002b21d0134c1548a023e0509b
:104a4000144b19680a6953019b1a9b009b18db00e1
:104a50009422a35009694a01521a92005218d200b6
:104a60009823e25000239c216354694607310b7060
:104a700001f032f8a423e05003b030bd002002f072
:104a8000b3f9d9e7873c00203c350020813c002069
:084a9000f5770000b43b0020a3
:020000040000fa
:104a980070b504000d0001f0a5fd002834d0002dec
:104aa80030d0200001f0a4fc0124002822d0437853
:104ab8000022002b1cd0174b5c6b002c1ed0a04290
:104ac8001ed00023a2689b18a469002c01d0a04224
:104ad800f8d1a668f6180f4b5b689b69984702f0f7
:104ae800f7fb864212d3301a6168002288420fd938
:104af8002a60002402f0b0f9200070bd0023e8e726
:104b08000023e6e70124f5e70124f5e761680020c2
:084b18000a1aede770390020d4
:020000040000fa
:104b200010b5041e37d11d4b1b7e022b0ad0052b5e
:104b30000ed08920002b1ed1184bdb7c5a1e9341ce
:104b4000643b07e0154bdb7c5a425341633b01e079
:104b500062235b420020085619001a002d32904251
:104b60000add13000e4a13700f2300220f211520b7
:104b700002f0eaf9200010bd984203dc084a1370e5
:104b80002300f2e7064b1870401a0321fff7aaf939
:104b90000130c3b2e9e78920ede7c046403a002082
:044ba0007b3c00203a
:020000040000fa
:104ba40070b51f4da97b222000f044fbe97b232034
:104bb40000f040fb24242978200000f03bfb013561
:104bc4000134e4b22c2cf6d1154c217b202000f0ca
:104bd40031fb617b212000f02dfba37c05226021a9
:104be400082002f0aff9637d00220f212f2002f08c
:104bf400a9f9e37e0422f0212f2002f0a3f9a37d7a
:104c0400032208212e2002f09df9207efcf73cfdb2
:104c1400e07d01f02df90100052000f00bfb70bdd3
:044c2400403a0020f2
:020000040000fa
:104c280010b50b0006282cd88000174a1258974652
:104c3800164a12780a70012010bd154a1188197099
:104c48001288120a5a700120f6e7124a1188197060
:104c58001288120a5a700120eee70f4a118819705b
:104c68001288120a5a700120e6e704220b4918003c
:104c780002f0eafc0120dfe7094a12780a700120f5
:104c8800dae70020d8e7c04630720000823c0020f6
:104c98008e3b00208e3c00207c3c0020e03b002026
:044ca800893c002023
:020000040000fa
:104cac0010b51c4b9b78002b12d01a4b1b78022290
:104cbc0093430dd1184b1b68002b14d0154b0022bd
:104ccc009a701620fcf7d6fa02f090fa1628f8d152
:104cdc00124b5b7a002b0ed10e4b1b78022b13d090
:104cec00052b14d010bd8c2001f0d4fc0a4b18609d
:104cfc000028edd0e2e70021084800f061fa002816
:104d0c00ead001f0a7fae7e701f03efaeae701f092
:104d1c0033f8e7e77c3a0020a03b00200c3b002056
:020000040000fa
:104d2c0010b51d4a137801210b4313701100012299
:104d3c004b681a42fcd118490123cb6102330b6238
:104d4c000223ff330b61154b00221a8110329a8219
:104d5c001a849a851a8744201a520c301a520c3035
:104d6c001a520c3008241c520c301a520c301a52a5
:104d7c000c301a520c301a520c301a520c301a5287
:104d8c000c301a520b78022213430b7002224b6820
:104d9c001a42fcd110bdc04600240040fc35002056
:020000040000fa
:104dac0010b51c480122027002234370002100241c
:104dbc0044808480c48004810023438188235b0465
:104dcc00c36080235b000361c475047641768176f1
:104ddc00c2760c23037703001f330022c2775a706c
:104dec009a70da70030023331a705a709a70da7062
:104dfc00030027331a705a709a70da702b23203202
:104e0c00c2540133153ac2542d30034902f01afc36
:0c4e1c0010bdc046b039002070770000c7
:020000040000fa
:104e280070b504000d00174b1e68174b1868043046
:104e380002f060f8631c0dd03419134b1b685c60da
:104e4800a64210d9114b18680f4b1968043101f0ac
:104e580025fe70bd002defd00b4b196804310c48ae
:104e680002f06efbf5e70b4b1868074b1968043125
:104e780001f014fe084b1b68a342ead9064b1c60dc
:104e8800e7e7c046603c00202c3c0020343c002072
:0c4e9800e43a0020303c0020503c002098
:020000040000fa
:104ea400f8b504000e0002f0cffc0500a26b002749
:104eb400e36b93420bd94523e35c5bb20132a263fb
:104ec4005a1c09d001335bb24522a35401272800a0
:104ed40002f0c2fc3800f8bda36c002b0ad02000fd
:104ee40000f09eff01370028f1d0002e11d00123dd
:104ef4003360ece7636a0127002be8d020002430fc
:104f040000f00cf80028e2d0002e04d00123336016
:0a4f1400dde70127dbe70127d9e7fd
:020000040000fa
:024f1e00fee7ac
:020000040000fa
:104f200070b5c368dc6825001835280001f0e6ff7d
:104f3000134b1b68002b1ed1251d280001f0deff3e
:104f4000e36a104a1268934201d90e4a136098002e
:104f5000c01880000c4b1818290002f0f5fa0b4b12
:104f60001b68e26adb6a00209a4203d9084b0122df
:104f70001a60013070bd2900064802f0e5faeee73c
:104f8000403c0020483c0020283800202c3c0020d9
:084f9000643c0020d03a00202f
:020000040000fa
:104f980070b504001600856b026c002a0cd1002045
:104fa8002368002b02d00135a56370bda06800f00e
:104fb800c7fb0023a360f6e7002e0ed1406802f07d
:104fc80043fb6368226c9446634463603000a268c4
:104fd8009342e8d323686360e5e7c06802f034fbd6
:104fe800236c5a42e3689b18e36021688b4203d222
:104ff800a3689c466244e2600020022ed3d1002db3
:06500800d1d0013dcfe70d
:020000040000fa
:02500e007047e9
:020000040000fa
:10501000f8b50a21164802f09efb0321154802f05c
:105020009afb154d154c27005037114e2560210075
:10503000300001f075fe8c350834bc42f6d10f4cbf
:105040000f4d2565210050310a4e300001f068fef9
:105050002b002c33a36521005831300001f060fe95
:105060005835256621006031300001f059fef8bd49
:10507000183b0020243b0020402f00205c370020fc
:04508000b834002020
:020000040000fa
:1050840070b5032805d0134b1b681a7e124b1a7097
:1050940070bd114b1b78002bfad0013bdbb20e4ada
:1050a4001370002bf4d10d4b00221a700c4da42464
:1050b400285901f0dff9285901f0bcf9094b0822fd
:1050c4001a70094b093a1a80084b1b68002bdfd071
:1050d4009847dde7b43b0020883c0020873c002053
:1050e4003c350020843c00208e3b0020ec3b00201b
:020000040000fa
:1050f40010b584b06b46dc1dd871002002f00afba9
:10510400227880235b4213432370134a9423802123
:105114000906d15001f08efe0028fbd101216b4617
:10512400d81d02f02ffb01f085fe0028fbd10121e0
:105134000e30684402f0f6fa01f07cfe0028fbd140
:10514400054a982380210906d15002f0dbfa0e2388
:0c5154006b44187804b010bd0028004027
:020000040000fa
:1051600070b5041e09d0436c8b4200d20b00e26a7a
:105170009a4202d0a16c012900d070bde362a169fe
:10518000002902db0521cb1aa36193009a18920033
:105190000c4b9a1863699342efd1251d280001f04a
:1051a000adfee36a084a1268934201d9064a1360c9
:1051b0009800c0188000034b1818290002f0c4f9a9
:0c51c000dbe7c04628380020483c0020f7
:020000040000fa
:1051cc00f8b505000e00437a002b17d004680029af
:1051dc0026d0002c0cd0270000e01c007168206841
:1051ec003368984700280bd163682700002bf4d153
:1051fc00002413e06f600be06b600fe000240de007
:10520c002b68a3420ed063687b606b68a342f1d01d
:10521c006b7a013b6b722b68002bedd02000f8bd34
:0a522c00271efbd063682b60efe73c
:020000040000fa
:02523600fee791
:020000040000fa
:1052380010b582b06b46dc1dd8719971002002f060
:1052480067fa227840235b4213432370114a942360
:1052580080210906d15001f0ebfd0028fbd1012186
:105268006b46d81d02f08cfa01f0e2fd0028fbd154
:1052780001216b46981d02f083fa01f0d9fd002840
:10528800fbd1044a982380210906d15002f038fa4c
:0852980002b010bd0028004027
:020000040000fa
:1052a000f66a0000ec6a0000f26a0000f66a00008c
:1052b000f66a0000f66a0000e86a0000f66a00007c
:1052c000f66a0000f66a0000f66a0000f66a00005e
:1052d000f66a0000f66a0000f66a0000ee6a000056
:1052e000f66a0000ec6a0000f26a0000f66a00004c
:1052f000f66a0000f66a0000e86a0000f66a00003c
:08530000f66a0000ee6a0000ed
:020000040000fa
:1053080070b50620fbf7b8ff0628fad1002307225c
:1053180080210f3001f014fe002002f0f9f9082571
:10532800002405226021062002f0a2f9a400a4b2fc
:105338000443a4b2012001f027fe013dedb2002d87
:10534800efd10320fbf798ff0f20fff7cffe054ba7
:1053580001225a61002002f0d3f9200002f02efa4f
:0853680070bdc04600240040a6
:020000040000fa
:10537000f0b583b001900c001600144b5b7a002b43
:1053800001d103b0f0bd00211048fff71fff071e39
:10539000f7d005680e4b1a88ff231a420cd1002d56
:1053a0000ed06b68002b03d0320021000198984783
:1053b000380001f0d1fae4e72000fff763feeee7e2
:1053c000044b1b78082bf3d1ebe7c046543b00207d
:0853d0008e3b0020843c00200c
:020000040000fa
:1053d800f0b5c64600b5144b9846144f144e1d0040
:1053e80043461b68002b17d002f04cf8fb68dc68ba
:1053f800201d01f07ffd3368013b33602b68013bc2
:105408002b6002f0f9f8206b00f08efb200000f012
:105418008bfb2b68002be7d1064b1b68012bdfd9d0
:1054280002f024f8dce7c0463c3c0020f83a0020b3
:08543800383c00202838002058
:020000040000fa
:10544000f8b507000b78322b00d0f8bd144b5b7a0f
:10545000002bfad00024124e08e02900104801f079
:105460005ffc0134e4b2737aa342eed900210c4808
:10547000fff7acfe05000268002ae6d0397a137ff8
:105480009942ead1f988138b9942e6d15368002bef
:1054900002d0507c00219847280001f05dfae0e737
:0454a000303b00207d
:020000040000fa
:1054a40070b504000d0001f0efff2268216ce36b7e
:1054b4004b43d018a0600020a06362605b1ad3182d
:1054c400e360ff234422a3540132a354002d0fd1df
:1054d4002369002b03d102f091f8012070bd200054
:1054e4001030fff71bfd0028f5d001f0c1fff2e7f3
:1054f4002000103002f01bf82000243002f017f8ce
:02550400e9e7d5
:020000040000fa
:02550600fee7be
:020000040000fa
:1055080030b583b004000d00002002f001f9134a01
:10551800942380210906d1506b466022da7101f08c
:1055280087fc0028fbd101216b46d81d02f028f921
:1055380001f07efc0028fbd12900200002f020f9b0
:1055480001f076fc0028fbd1044a98238021090643
:10555800d15002f0d5f803b030bdc0460028004055
:020000040000fa
:1055680030b583b004000d00002002f0d1f8134ad2
:10557800942380210906d1506b462022da8001f05d
:1055880057fc0028fbd101216b46981d02f0f8f862
:1055980001f04efc0028fbd12900200002f0c0f8e1
:1055a80001f046fc0028fbd1044a98238021090613
:1055b800d15002f0a5f803b030bdc0460028004025
:020000040000fa
:1055c80070b582b000290ad0104b05221a70104c11
:1055d8000800236898470023236002b070bd6b461b
:1055e800d91d00260e700b4c0b4820610b4b1b6815
:1055f8005d7e6a01521b92005219d2006260a2605d
:105608002673002300f064fa6061e6e7843c00201a
:10561800e43b00203c3500207d710000b43b0020b5
:020000040000fa
:10562800f8b50024144d154e03e077610134102cb1
:1056380020d063001b199b00eb181b89dbb2e1b279
:105648008b42f3d173690127a7401f42eed0630054
:105658001b199b0008495b58002be6d00800630023
:1056680019198900411849681b199b001b58080023
:105678009847dae7f8bdc046fc3500200024004012
:020000040000fa
:1056880010b5164b5a6b002a24d0824205d1836983
:10569800002b17d0002208e01a009369002b1bd0ba
:1056a8009842f9d18369002b05d084689968091953
:1056b8009960002a08d083699361002300228261df
:1056c800180010bd1a00f4e7044b5a6b92695a632c
:1056d8000123f3e70023f3e70023f1e77039002003
:020000040000fa
:1056e80070b5040000f07eff002825d0200000f0ef
:1056f8007ffe041e1ed043780025002b12d183683c
:10570800002b01d1436883600c4a3023d35c002b03
:105718000cd1200000f0b0f9002323756375013324
:105728006370002501f098fb280070bd2000fdf78c
:105738009bfef1e70125f5e70125f5e77039002023
:020000040000fa
:1057480070b5041e23d0836c013b8364c26a416c2c
:105758008a421ed00020002b00d070bd251d2800d5
:1057680001f0c8fb606ce06205231b1aa3610a4bb9
:105778001b68984201d9084b1860830018188000ec
:10578800064b1818290001f0dbfe0120e5e7002090
:10579800e3e70020e1e7c046483c00202838002025
:020000040000fa
