:020000040000fa
:10000000f07f0020657c00002b8e00000b8f00002d
:1000100000000000000000000000000000000000e0
:1000200000000000000000000000000077940000c5
:100030000000000000000000917e00009d8d000087
:1000400037850000378500003785000031710000da
:1000500037850000378500003785000037850000b0
:1000600037850000378500003785000037850000a0
:100070008536000037850000378500003785000091
:10008000378500009d8400003785000000000000d7
:10009000000000003785000037850000378500002c
:0800a00000000000378500009c
:020000040000fa
:1000a800f8b5c046f8bc08bc9e467047dd7a00002b
:1000b800f8b5c046f8bc08bc9e467047b57a000043
:020000040000fa
:0800c8007c490000010000006a
:020000040000fa
:1000d000f0b5de4657464e464546e0b58fb0079030
:1000e0000d0014001f0018ab1e783b78082b01d9b7
:1000f00000f007fc9b00e04ad3589f46df4b1b787b
:10010000062b01d000f0fdfbdd4b1a88ff231a42bd
:1001100001d000f0f6fb22000821da4804f020fcb0
:10012000002801d100f0edfb8c2008f0c5f8071e77
:1001300001d100f0e6fb0668002e01d100f0e1fbe2
:10014000cf4b198889b20bab0022012006f090ff3b
:1001500004ab5b7f2022134304aa537731000ba822
:1001600008f0e2f8804602233354c74b1a780300a4
:100170000133dbb2f254c54b9a46c54b9b46514600
:10018000180004f093ff43460233dbb2f0545b46a1
:100190001a7843460333dbb2f25453461a78434687
:1001a0000433dbb2f2544346581dc0b23018082263
:1001b000b44909f0d7f80497b64b03930023029390
:1001c0000194009533000d2241460ba803f0aaf9d3
:1001d000002800d095e3380008f0c6f991e3a74b5a
:1001e0001b78032b00d08ce3ab4b1b68ab4a116828
:1001f0005a784423cb5c9a421ed3a74b1b68a74a6c
:1002000011685a784423cb5c9a4200d079e3a44c1d
:10021000606907f001ff606907f0defe9e4b196818
:1002200009230b70954b05221a7048789d4c236862
:1002300098470023236064e37b1d08939a4a0821b2
:10024000180004f08dfb002800d15ae3924b1d6882
:1002500000232b706878002813d0079bdc882b8a3a
:10026000a34200d14de32a00223200230133dbb246
:10027000834206d01232110012390988a142f5d109
:100280003fe3079ce3889c46c1000a185200ab1864
:1002900062461a82854a12781a736288da817a78fd
:1002a0001a72ba785a72fa789a723a790b185b0015
:1002b000eb18da720130c300181840002818082221
:1002c000089909f04ff8791d08226e4809f04af89c
:1002d0006978cb005a185200aa185673108a330056
:1002e0000122010005f0fafd6b4b1a6853780133c7
:1002f000537082e7614b1b78062b00d001e3604b03
:100300001a88ff231a4200d0fbe27b789b0700d1ba
:100310004de1bb789b46db0743d4604b1b68994695
:10032000db7f9a46012b39d9fb1c08934b465b684f
:10033000099314229c46624401270791250014006a
:10034000b046564608222900200008f095fe0028f5
:1003500000d1e5e00137ffb21434b742f2d12c00ee
:10036000079d01274d4b9a464b463e002700b000a3
:100370008019800004005b68181807f0acfe0028a4
:1003800000d1e6e00136f6b253461b68da7fb2428e
:10039000edd83c004646464b98460ae1444b984609
:1003a00007e13e4b1b6899469b7f9a46002b00d184
:1003b0004ae14b461b6808930027079125001c0063
:1003c000b046564608222900200008f055fe0028b5
:1003d00070d00137ffb21034b742f3d12c00079d23
:1003e00000272e4b9a464a463e011068801907f0b6
:1003f00072fe002870d00137ffb253461a68937f0f
:100400009f42f1d34646002b00d120e1106882685c
:100410009046002a00d17ce0020018320027082113
:100420004942091a07940800b4460137ffb2bb429b
:1004300071d084181600083e103211001039096876
:100440000029f2d13000a046079c66460822210010
:1004500008f088ff114b1a68136843445946197312
:1004600013684344d28d9a60054b1b888033df1993
:10047000bbb298469de0c046e88c0000313e0020ab
:100480003e3d0020183d0020363e0020353e002035
:10049000393e002033750000a03d0020603d002063
:1004a0003c350020943d0020883e0020f63b002093
:1004b000ffff00002c00079d4646089bff2212010b
:1004c000944663444a46d28d9a60d84b1b88803349
:1004d000df19bbb298466ce04346b0461e00d44bd1
:1004e00099461b68186840440822210008f03aff2a
:1004f0004b461a68136843445946197313684344ba
:10050000d28d9a60c94b1b888033df19bbb29846e5
:100510004fe000279ae7079c6646c64b984648e09e
:100520002c00079d4646099bc34a94466344180025
:100530000422089908f016ff4b465b68bf4a9446b0
:1005400063449a68da60b94b1b88df19bbb29846de
:100550002fe022003c0037004646b54b99461b6809
:1005600058680792944660440822210008f0fafe79
:100570004b461b6899465b68079a94466344594604
:1005800019744b465b6818006044083004220899cf
:1005900008f0e8fe4b465b68079a944663449a6805
:1005a000da60a24b1b88df19bbb2984601e0a14b71
:1005b00098469e4b198889b20baf3b00012201205f
:1005c00006f056fd7b78202213437b708c2007f0c9
:1005d00073fe8246002800d193e103689946002b00
:1005e00000d18ee119000ba807f09efe8346421c45
:1005f000d2b2042349460b548e4b98452ad1871c0e
:10060000ffb201238b544b464246da557a1cd2b2d4
:1006100043461b0a49468b545b46fa1a0232d2b251
:1006200053460493864b0393002302930194009551
:100630004b4659460ba802f075ff002800d060e138
:10064000504607f091ff5ce17a4b9846b1e7794b51
:100650009846aee7871cffb200238b54330001227b
:100660004146404605f03afccde7764c606907f01c
:10067000d3fc606907f0b0fc734b1b78042b00d0ef
:100680003fe17b78002b09d06f4b05221a707878f8
:100690006e4c236898470023236032e1fa781202f7
:1006a000bb781343614803800799ca88684b1a8056
:1006b000684c4b88238008f0e5f9200008f0cef95b
:1006c0005b4b1b683c22995c634a11703f229a5c29
:1006d000d10704d555490888ff21084251d1920716
:1006e00004d5524a1188ff2211427ad1564a062176
:1006f00011701a8b5001801a80008018c0000139d7
:1007000007f07efe4f4b586398634e4c534820646d
:100710003c230122e2541b2104ab9c46614400238c
:100720000b700133a26b06f089ff6064431c00d19b
:10073000e7e03e4b1a88ff231a42a8d03b4b1b88a8
:100740001b065bd53a4b1b689b8d5801c01a800075
:10075000c018c000052107f053fe0200394c606349
:10076000a0633e4820643c230121e1540ba90023ef
:100770000b70013306f062ff6064431c00d086e713
:10078000bfe0314af83911702e4c3548a062597fcc
:100790004a01521a92005218d200e2615b7f5a015c
:1007a000d21a9200d218d200226224230121e154ed
:1007b0000ba900230b70013306f040ffe062431cdd
:1007c00000d19ee01a4b1b689b8d5801c01a800017
:1007d000c018c000052107f013fe1a4b5863986338
:1007e00093e7194bfa3a1a70104b063a1a80174cd5
:1007f0000120236898470023236082e0114c1948a8
:10080000a023e0506e3b9422a3500432a350002357
:100810000432a3540ba90b706a3a06f00fffa4230d
:10082000e050431c00d032e76be0c0463e3d002064
:10083000603d0020ffff0000f4130000ec130000f7
:10084000337500003c350020313e0020903d0020f3
:10085000943e00202c3e0020383e00202d4f00000a
:10086000e5660000119500004f4b1b78062b48d120
:10087000079ef3881b0644d54c4b1d68ab7f002bad
:100880003fd00024494b9946b84609e0380005f0ae
:100890006ffb0134e4b24b461d68ab7fa34230d9f5
:1008a000f78880233b409c42f3d123012a6892467b
:1008b0009a444346591c0822504608f0ddfb0028a4
:1008c000e4d1eb8d52469360e3e7394b00221a7076
:1008d000384ca425605907f09ffb606c07f09cfb27
:1008e000605907f079fb606c07f076fb2e4b08220d
:1008f0001a70314b093a1a80304b1b68002b00d01c
:1009000098470fb03cbc90469946a246ab46f0bd16
:10091000254b1b78072bf4d1ba7812027b7813434e
:10092000254803800799ca88254b1a80254c4b8897
:10093000238008f0a7f8200008f090f81d4ce06a2a
:1009400007f06afbe06a07f047fb606c07f064fba6
:10095000606c07f041fb154b1b681a8b5001801a25
:1009600080008018c000052107f04afd0200606386
:10097000a063154820643c230121e1540ba9002306
:100980000b70013306f05afe6064431cb9d0064b6d
:1009900006221a700d4b1b68002bb2d0064a108835
:1009a00080b29847ade7c046313e0020603d002050
:1009b000373e00203c3500203e3d0020983d002081
:1009c000943e00202c3e00202d4f00009c3d002036
:020000040000fa
:1009d000f0b5de4657464e464546e0b591b00400b8
:1009e000028ab64b1b88934253d1836818780da9ad
:1009f00008705d784d709e780e72e17b002900d002
:100a0000d2e20da949788d0600d559e30822089253
:100a1000d0e2ab4a15880daa95800325e3e20133a5
:100a2000dbb20432834206d01188b142f7d191780b
:100a3000a142f4d12de0604607974c46a14b9a4560
:100a40002ed00dab5b78db0606d50dab9a889c4ba0
:100a50001b889bb29a426cd00dab5a78032313408b
:100a6000012b00d1dee00dab5b780026db0710d454
:100a7000954b1b78063b012b00d809e1002e08d0ce
:100a80000dab1b78002b04d08f4b1b78062b00d1ad
:100a9000f9e111b03cbc90469946a246ab46f0bd88
:100aa0000128ced04346db7f012bcad90126874bd4
:100ab0009a464346a946a04606e00136f6b253469a
:100ac0001b68da7fb24231d9b000801980005b68c0
:100ad000181807f000fb0028efd08c2007f0ecfb83
:100ae000041ed6d00768002fd3d0380014300a2255
:100af0000da908f037fc5b46bb7700257d60380008
:100b00001f305a46099908f02dfc0123bb746c4b29
:100b10001b889b19bb816d4b1b685b690133bb60f4
:100b20003d7421006a4807f049ffc6e74d46444638
:100b300087e7684b9a4200d98ee70dabda8890467a
:100b40001b7a99465e4b198889b20aae3300ff20a2
:100b500006f08efa4b4633727378032293430122d8
:100b60001343102293437370ff234246134207d06e
:100b7000534b1b889bb2ff22414691438b422bd0a3
:100b80008c2007f099fb061e00d165e703689846a4
:100b9000002b00d160e719000aa807f0c5fb01008f
:100ba0004d4a1378013b1370322342461354049686
:100bb0004a4b039300230293079b0193089b0093e6
:100bc000434601220aa802f0adfc002800d043e70a
:100bd000300007f0c9fc3fe743461b06d0d48c2009
:100be00007f06afb8046002800d135e70668002e32
:100bf00000d131e7300014300a220aa908f0b2fb14
:100c00000122b277002171603223f3772f4b1b68ea
:100c10005b699b18b3603174b27441462c4807f08d
:100c2000cdfe19e7099b1b780f229343102b16d09a
:100c300009d9202b27d00026302b1ed109990da8c9
:100c400001f0f4fc0fe70026002b16d1a37b0093e4
:100c5000099b079a08990da8fff73afa03e71a4b80
:100c60001b78062b00d014e7a37b0093099b079aff
:100c700008990da800f096fc06000dab5b78db0729
:100c800000d4f5e6fae609990da807f0d3feeae6e6
:100c90000dab9b880f4a934242d9094a1188ff2223
:100ca00011421dd0064a1288120619d4054a9342f1
:100cb00000d0e3e6024b1b8816e0c0462c3e002025
:100cc0003e3d0020ffff0000313e0020603d00203f
:100cd000ec3c0020fcff0000323e0020e358000006
:100ce000a84a1288120617d40aab0daad188198017
:100cf0005946197209990b91a17b9972617b5972be
:100d00005278032313401bd19f4b1b68002b00d14b
:100d1000b4e60aa89847b1e69c4a9342e4d1ade60e
:100d20000dabdf881b7a98461900380007f0f2f9fe
:100d3000002800d0a2e64146380005f085f8d3e748
:100d4000022b00d0a5e6924b1b68002b00d195e644
:100d50000aa8984792e68f4b1b78062b00d060e1db
:100d600053461b0635d58c2007f0a6fa051e00d188
:100d70008fe60768002f00d18be60aae0daca28883
:100d8000e1882078330006f073f9637873703900d6
:100d9000300007f0c9fa237abb70040038185a46ad
:100da000099908f0dffa04957b4b03930023029323
:100db0000eab0193022300933b005a462100300002
:100dc00002f0b0fb002800d063e6280007f0ccfb5f
:100dd0005fe68c2007f070fa051e00d159e6046822
:100de000002c00d155e6200014300dae0a2231004f
:100df00008f0b8fa5b46a37700236360b388a38149
:100e000020001f305a46099908f0acfa0123a37458
:100e1000624b1b685b690133a3602900604807f0df
:100e2000cdfd36e68c2007f047fa051e00d130e6ee
:100e30000468002c00d12ce6200014300dae0a22ec
:100e4000310008f08ffa5b46a377002363605a46af
:100e5000099920001f3008f085fa0123a374b08897
:100e600004f0f0fa002803d1280007f07dfb10e61b
:100e70004a4b1a682123d35c0133a36029004948f7
:100e800007f09cfd05e60aab012252421a808c2035
:100e900007f012fa071e00d1fbe503689846002b05
:100ea00000d1f6e50dae3378013b3370414630009a
:100eb00007f03afa0790317a43469970f08805f0c6
:100ec000d1fb002820d0079e330043441800227b2a
:100ed000521b099908f046fa227b521bd2b20497a2
:100ee0002d4b0393002302930aab0193022300933b
:100ef000434631000da802f015fb002800d0c8e5dc
:100f0000380007f031fbc4e5380007f02dfbc0e5e1
:100f1000676807970dad6a807a78120294463a782e
:100f200067463a43ea80022208922278520700d4a8
:100f30006fe50daa01256d4295804a0700d5a8e509
:100f400003330993237b033bdbb29b460dab9b88aa
:100f50009a4603250dabdb889946104b1b689846d3
:100f600022234246d35c9c46002b00d166e51269e1
:100f70000023079f61468446200034004e46814688
:100f8000080051e53e3d0020803d0020fdff0000af
:100f90007c3d0020313e0020274b0000603d0020ba
:100fa000ec3c0020043d00200da949788d06afd40b
:100fb00002220892626807920daa1d792d02ac46a2
:100fc000dd7867463d4355809d792d02ac465d79bd
:100fd00067463d4395801d7a2d02ac46dd79674614
:100fe0003d43d58009254a0700d552e55b19099391
:100ff000237b5b1bdbb29b460dab9b889a46344b35
:101000009a45a7d8334b1b889bb29a4500d118e567
:10101000304b1b889bb2ff22514691438b4200d13b
:1010200099e62c4b1b889bb29a4500d131e50028ec
:1010300000d12ee5284b1b78062b00d029e5254b47
:101040001b889bb20daad2889a4200d121e50138b3
:101050000dab1870504607f0cdfb0aab18801f4b44
:10106000984200d1dee68c2007f026f9041e00d15c
:101070000fe50668002e00d10be50daf31003800fa
:1010800007f052f905003b7ab37030185a460999b7
:1010900008f068f90494124b0393002302930aabff
:1010a00001930223009333005a462900380002f0ce
:1010b00039fa002800d0ece4200007f055fae8e403
:1010c000656807950dad6a80082208922de7c04635
:1010d000fcff00003e3d0020313e0020ffff0000ed
:0410e000274b00009a
:020000040000fa
:1010e400f83b00201c00000000000000463d0020ea
:1010f40002000000000000007039002050000000d1
:1011040000000000263e0020020000000000000055
:101114002a3e00200100000000000000a43a002044
:101124000400000000000000143c0020180000002f
:1011340000000000483d0020040000000000000002
:10114400a43c00200c00000000000000d83b00205c
:101154001d000000000000004c3d002004000000c1
:10116400000000002b3e00200100000000000000f1
:101174002e3e00200100000000000000503d002031
:1011840004000000000000002f3e002001000000c9
:1011940000000000dc3700206800000000000000b0
:1011a400402f0020fc05000000000000b03c00209f
:1011b4001800000000000000383d00200600000078
:1011c40000000000543d0020040000000000000066
:1011d400e83a00203e00000000000000583d0020d6
:1011e4000400000000000000263b00200100000075
:1011f40000000000273b0020010000000000000068
:101204005c3d00200800000000000000b83b002006
:1012140020000000000000005c3700208000000077
:1012240000000000303e002001000000000000002b
:10123400c03900205000000000000000903b002056
:101244002800000000000000283b00203c000000b3
:101254000000000044380020c80000000000000026
:10126400403e00205000000001000000c039002072
:10127400a83800205c370020b83b0020283b002021
:10128400030000007800b004201905053c050f0593
:10129400903b00203c0000007800b00434120a4067
:1012a40003000000060000000f1903034438002067
:1012b40005000000ab11223344556622403d002056
:1012c4000600000000000000643d00202000000033
:1012d40000000000c83c00200c00000000000000da
:1012e400f53b00200200000000000000d43c002078
:1012f4002400000000000000f73b00200100000073
:1013040000000000313e0020020000000000000048
:101314002c3e00200200000000000000f83c0020e9
:101324000c00000000000000843d002004000000c8
:10133400000000003f3e002001000000010000000a
:1013440001000000983e00200100000001000000a0
:1013540001000000333e00200100000000000000f6
:10136400103d002008000000000000002c3c00207c
:101374001400000000000000283e002002000000cd
:1013840000000000883d0020040000000000000070
:10139400243e00200200000000000000993e0020ce
:1013a400020000000100000002010000043d0020d2
:1013b4000c00000000000000343e00200200000089
:1013c40000000000183d002008000000000000009c
:1013d400363e002005000000000000008c3d002087
:1013e40008000000000000003b3e00200100000057
:1013f40000000000943d00200800000000000000f0
:101404003e3d002002000000000000009c3d002042
:1014140008000000000000003c350020c00000006f
:1014240000000000943e00200200000001000000c3
:10143400ffff0000fc350020c00000000000000099
:101444003c3e00200100000000000000643b00203e
:101454002c00000000000000203d002008000000d7
:1014640000000000a83a0020400000000000000036
:10147400bc360020a000000000000000963e0020c2
:10148400020000000100000001000000a43d002053
:101494001400000000000000603a00204400000036
:1014a40000000000b83d00200c0000000000000017
:1014b400903e00200400000001000000aaaaaaaa8d
:1014c400c43d0020040000000000000000000020d3
:1014d400402f000000000000c83d00201400000060
:1014e40000000000283d002008000000000000006b
:1014f400dc3d00200c000000000000000c3900203e
:101504006400000000000000e83d0020140000001a
:1015140000000000403c0020280000000000000003
:10152400fc3d00201000000000000000683c00208a
:1015340014000000000000000c3e00200400000025
:10154400000000007c3c0020280000000000000097
:10155400103e00200800000000000000303d002084
:1015640008000000000000003d3e002002000000d2
:1015740000000000183e00200400000000000000ed
:10158400103a002050000000000000001c3e002023
:10159400080000000000000000000000000000003f
:020000040000fa
:1015a400f0b5de4657464e464546e0b591b00500d7
:1015b4001aa90f7854782002ff2112780243cb48ed
:1015c4000088084200d083e191b2ff20084200d095
:1015d40086e1e888ae79002e00d083e11e78122ed1
:1015e40000d162e1132e04d0112e00d1ece00020d2
:1015f4006fe159788946002900d187e039090991ba
:101604000021023307930f20b94b98469c46089457
:101614004e460a970b9224e007402b7883433b43c2
:101624002b708d000235b24f3b689b68089a5a555f
:101634003b689b689a46aa4453465b788343099a5d
:101644001343524653703b689b685d196b780340a3
:10165400302291464a4613436b700131cbb29e420d
:1016640051d9079b5b181d78854335d01d782d090a
:101674006a1c151c0f2a00d90f25eab245462d68ad
:10168400ed686d182f78874303d02f783f09974270
:1016940022d912012f7807403a432a708d00944ac8
:1016a4001768bf68bb462f005d46089cec5515685b
:1016b400ad68ab46bb445d466d788543099c2543c4
:1016c4005c4665701568ad68ef197d780540302279
:1016d40091464a4615437d701d782842bdd02d079a
:1016e4002d0f01352b1c0f2d00d90f23dfb26346bc
:1016f4001d68ed686d182b7818428dd01b071b0fe1
:10170400bb42aad988e7089c0a9f0b9ae30749d5ec
:10171400774b1b686108d868435c0f25ab430125f0
:101724002b434354640072490b689b681204120ee5
:101734001a550b689a6812193b0957780f2087438a
:101744001f4357700b689b681c1962780f23134062
:10175400302213436370654b1b881b0a09685a00c7
:101764008868805cff2800d1bee0d80725d55b08d7
:10177400c868c15c0f24a143c1545d490b689b68d0
:10178400ff2098540b689b689b1858780f24a0433b
:1017940058700b689b689a1851780f230b4053704c
:1017a400002096e0524b1b686108d868455c0f2303
:1017b4002b4010252b434354b4e75b08c868c45c32
:1017c4000f212140c154d8e79c7822025b7813434f
:1017d4009846474b994633261b689a5d02322b780c
:1017e400d21ad2b23b0004f077fb4b461b689b5dd8
:1017f4000120a3426dd9200007f06af90200079086
:101804003a4b1b889bb2434502d00120002a60d08a
:10181400eb889a468c2006f04dfd061e43d00568e1
:10182400002d40d0314b198889b20daf3b00524690
:10183400ff2005f01bfc7b78102293437b7029006a
:10184400380006f06ffd814612232b540300013348
:10185400dbb200229346ea5403000233dbb2ec54b9
:1018640003000333dbb2079aea54504606f0c0ff84
:101874001a2306aa94466344188004961d4a0392c8
:101884005a4602920193022300932b0004324946e4
:10189400380001f045fe002801d0002019e0300096
:1018a40006f060fef9e7002013e09c7824025878e3
:1018b4000f4a16683322b25c0232db78d2182b78d6
:1018c400d21ad2b220433b0004f006fb002000e011
:1018d400002011b03cbc90469946a246ab46f0bdf0
:1018e4000020f6e70020f4e70020f2e73e3d002068
:0818f400603d0020af6f000011
:020000040000fa
:1018fc00f0b5de4657464e464546e0b583b00190fe
:10190c001e000cab01cb81461b789a460eab1f78a0
:10191c005478240213781c43502e00d943e1a4b20e
:10192c00a94b1b889bb29c4200d145e1a74b1b786d
:10193c00063b0025012b00d936e1022900d033e10a
:10194c008c2006f0b3fc8046002800d136e10368f9
:10195c009b46002b00d133e1019b023b5a425a417a
:10196c0051005b465b7d032293430b435a465375f0
:10197c001483954b1b88538301233b401a015b4610
:10198c005b7d10218b4313435a4653755b46967708
:10199c0052465a7400235a4693745b460f9a5a6007
:1019ac003200494658461f3007f0d6fc884b9c4203
:1019bc0057d95b465b7d102293435a465375854b32
:1019cc009c4235d1844b1b68da7f012a30d9012423
:1019dc00814d05e00134e4b22b68da7fa24227d9ad
:1019ec00a000001980005b68181806f06efb002838
:1019fc00f0d08c2006f05afc071e00d1e2e00668fd
:101a0c00002ee7d070225946300007f0a5fc724b2f
:101a1c001b685b690133b360002232746a4b1b880c
:101a2c001b19b381726039006c4806f0c1ffd1e715
:101a3c006b4a6849584601f0b7f8051e0cd10f9b4c
:101a4c00002b05d05b46587c5a4601210f9b9847ca
:101a5c00404606f083fda7e04146624806f0a8ff29
:101a6c00a2e0ff23234207d0574b1b889bb2ff22d7
:101a7c00210091438b4234d0544b1b78072b4ed111
:101a8c00514b1b88ff2293435a469381002f6ed0f3
:101a9c005b469b89a3422ad05b46198b4e4b1a6836
:101aac003323d05c0130c0b205f0b4fc5b469860c7
:101abc00494b1a683e23d35c01335a4613749189ff
:101acc00494a584601f070f8002804d15b461b7c4b
:101adc00013b5a4613744146444806f069ff012500
:101aec0062e05b469c81230609d5002f3fd05b4604
:101afc00198b012005f08efc5b469860d8e7364bbd
:101b0c001a685369013359468b603e23d35c013309
:101b1c000b744146314806f04bff012544e0ff238e
:101b2c002000984306f060fe5b469881294b984252
:101b3c00acd1200003f080fc051e0cd10f9b002bb8
:101b4c0005d05b46587c5a4601210f9b984740466e
:101b5c0006f004fd28e0204b1a682123d35c0133e6
:101b6c005a4693604146224806f022ff1ce00023af
:101b7c005a46137491891a4a584601f015f8051ef5
:101b8c000cd10f9b002b05d05b46587c5a4601218b
:101b9c000f9b9847404606f0e1fc05e04146114892
:101bac0006f006ff00e00025280003b03cbc904680
:101bbc009946a246ab46f0bd0025f5e70025f3e7b4
:101bcc000025f1e70025efe73e3d0020313e0020e7
:101bdc00fcff0000ffff0000603d0020ec3c0020fb
:101bec00196e0000f83c00205d2f0000c83c00205e
:041bfc00043d002084
:020000040000fa
:101c0000f0b5de4657464e464546e0b587b0061c61
:101c100003900f0004911400240a0592019310ab65
:101c20001d78b606f60f0297d3b29946e3b29846ee
:101c30008c2006f041fb8246002800d116e10468a2
:101c4000002c00d114e123000c33636003ab18783f
:101c5000430701d50123994603220240012a35d0ca
:101c600051425141c9b28d4b1b8803af7f899f42be
:101c70002ed000239b4607339c46634608334f46cd
:101c8000002f00d0063b4746002f30d00233dbb296
:101c90002427384020282dd0032a2dd0aa1c9b1899
:101ca0002373617303ab72011e7820218e431643a8
:101cb0001e70f3439b0727d04b46002b00d184e0d6
:101cc0004346002b6cd08823a3736be00321cae743
:101cd000734fbb4206d04023194301239b46043374
:101ce0009c46cae700239b4607339c46c5e708335a
:101cf000dbb2cde70143cfe701239846002600235e
:101d00009b4600210733c9e78023a373654a1378f4
:101d1000591c1170e37304265b46002b0ad1721c18
:101d2000d2b25e490b78606883550236f6b24b78c2
:101d300061688b544346002b63d05b4a137861681b
:101d40008b55b31cdbb20136f6b2527861688a5506
:101d5000002d0ad0019a5d19edb2591c1078666801
:101d6000f0540132cbb29d42f7d1504b129a1a6017
:101d700006f0fefc0f2858d0534623604c4b1a78cf
:101d80004c4b1978200005f0d5ff002856d10130c2
:101d9000139b002b63d0180006f0e6fb01205ee0e9
:101da000c823a3733f4a1378591c1170e37303ab24
:101db0009a7a2274db7a6374730769d4029a13786f
:101dc000a3745378e3740826a6e74346002b51d04a
:101dd0008c23a373334a1378591c1170e37303ab3c
:101de0009a7a2274db7a6374730751d40623029fb4
:101df000063ffa5c6168ca5401330e2bf9d10e26f6
:101e00008ae72d4b5b681f0008371a00f31aac46af
:101e100010789918c9b2656868540132ba42f7d18e
:101e2000654633000833dbb292e7f03006f03efe41
:101e3000002006f0e9ff06f09bfc9de71f4b012206
:101e40001a701f4a1378013b1370139b002b02d0aa
:101e5000180006f089fb504606f086fb002007b00c
:101e60003cbc90469946a246ab46f0bd0020f6e742
:101e70000020f4e7cc23a3730a4a1378591c11708d
:101e8000e37303ab9a7a2274db7a63747307add57c
:101e9000ff23a374e37408263ee7c046283e0020d3
:101ea000ffff0000333e0020243e0020883d00203c
:101eb0009a3e0020993e0020103d00203f3e002029
:041ec000f53b0020ce
:020000040000fa
:101ec400f8b50021ab4804f0d3fe002800d14de161
:101ed4000268002a00d14be1536819785e784024e7
:101ee4002640a54b00241c70dc73013c1c82546802
:101ef400a3783325ab43882b00d197e00ad9c82bac
:101f04003ad0cc2b6bd08c2b00d1c7e006f02afb47
:101f140000201ce1082b00d1ece0802bf6d1964b7d
:101f24001c7804252543802464422c431c7001241e
:101f3400dc73546824791c74546864795c74546840
:101f440006345c600c00093c1c73546808349c60c3
:101f540053685c78230700d5e0e007232340012b76
:101f640000d1dfe0002b00d1fae0032b00d1efe039
:101f740006f0f8fa0020eae0a379ff2b16d07e4d94
:101f84002f7880235b423b432b70002e17d024799b
:101f94002c74546864796c74546808346c600c0054
:101fa400113c2c7354681034ac60d1e7e379ff2bf7
:101fb400e5d1714d2b7804273b432b70dfe7247a5e
:101fc4006d4b1c745468647a5c7454680a345c60a5
:101fd4000c00133c1c73546812349c60b8e7664dc3
:101fe4002f7880235b423b432b70002e0ed0247944
:101ff4002c74546864796c7454680e346c600c00ee
:10200400173c2c7354681634ac60a1e7a47b5a4b7c
:102014001c745468e47b5c74546810345c600c0079
:10202400193c1c73546818349c6091e7a379ff2b06
:102034001ad0514b1d78802464422c431c70012417
:10204400dc73002e19d153681c7a4b4b1c745468f2
:10205400647a5c7454680a345c600c000d3c1c7334
:1020640054680c349c6073e7e379ff2be1d1424c54
:10207400237804252b432370dbe753681c793e4bfc
:102084001c74546864795c74546808345c600c0093
:102094000b3c1c7354680a349c6059e7364b1d781a
:1020a400802464422c431c700124dc73002e10d065
:1020b40053681c79304b1c74546864795c7454689c
:1020c4000e345c600c00113c1c73546810349c602a
:1020d4003ee753685c7b284b1c745468a47b5c7497
:1020e40054680f345c600c00133c1c735468123445
:1020f4009c602de7a379ff2b07d01f4c0b00083bf6
:10210400237353680733a36022e7e379ff2bf4d1e9
:10211400194c237804252b432370eee706f022faaa
:10212400002014e0144c23780325ab4323700231c0
:10213400c9b253685b18023b1b780f4ca3735368f6
:10214400591801390b78637306f00cfa0120f8bdb5
:10215400094c23780325ab4301252b432370e6e781
:10216400054c237803252b432370e0e70020eee79a
:0c2174000020ece7d43c00202c3c0020b4
:020000040000fa
:1021800070b50d009b4b1c78042c00d120e14e282b
:1021900007d059280ad10a78974b1a7700242000d3
:1021a00070bd0a78944b1a750024f8e7914b5b7860
:1021b0000f2b00d10ee10b2800d1ffe018d95328d6
:1021c00000d1aee078d84f2800d199e0892450287a
:1021d000e5d1894c0b880978a1731b0ae37322208f
:1021e00004f07efde17b232004f07afd0024d6e795
:1021f000022800d1cae01fd9032800d1d4e0042866
:1022000058d1002c00d0ebe0082b00d1ece00820e6
:1022100000f0f6f80828fad12e78300000f0e0fb44
:102220000500162000f0ecf8002d00d1dae0724b2a
:102230001e7603f0b9f9b2e7002839d1002c00d09e
:10224000cae06d4b1b7e052b7ad00a786b4bd340ce
:10225000db0700d4c2e0684bde7c2a78da7403f036
:10226000a3f9644b5d78082d05d0082000f0c8f86c
:102270000828fad11625604b187e052867d05e4bda
:10228000db7c002b01d0002e6bd100f0a9fb05f008
:1022900059fc594bd87d05f075fb0100052004f071
:1022a0001ffd082d00d17ae7162000f0a9f876e787
:1022b000892474e7892472e7572858d08924f028a4
:1022c00000d06ce70a684b684b4d2a70110a6970a0
:1022d000110ca970120eea702b711a0a6a711a0297
:1022e000120eaa711b0eeb7124242978200004f031
:1022f000f7fc01350134e4b22c2cf6d100244ee772
:102300000b783d4a5375d27e934201d93a4b5a75a8
:10231000394b5b7d00220f212f2006f08bfc00241f
:102320003de7354c0b88097821731b0a6373202025
:1023300004f0d6fc617b212004f0d2fc00242ee7bf
:102340000a780a33d340db0785d4882427e7db7c6f
:102350005b000b33dbb20022ff210e3006f06afc7b
:102360009fe700221f21082006f064fc99e70b7804
:10237000214ad376527d9a4201d91f4a53750422cd
:10238000f0212f2006f056fc002408e70b781a4ca9
:10239000e37505f0d7fbe07d05f0f4fa01000520b8
:1023a00004f09efc0024fae60b78134a937405228d
:1023b0006021082006f03efc0024f0e60b780e4a6f
:1023c0009375032208212e2006f034fc0024e6e653
:1023d0008624e4e68124e2e68624e0e68824dee63c
:1023e0008624dce68824dae60e78300000f0f8fa7d
:1023f000050019e7143c0020d83b0020ff0700002f
:020000040000fa
:1024000070b50400854b5b780f2b07d00338c2b240
:10241000162a6dd89000824a125897460f287cd011
:102420007e4d00232b7106f017fc08236b70082cdf
:1024300000d1eee0032c00d1ede0201fc3b2152b3c
:1024400056d89800774b1b589f460321022004f072
:1024500047fc06f0bdfe0400c1b22d2004f040fc94
:10246000a3b21b0a002207212e2006f0e3fb0f2057
:1024700004f094fb10210e2004f032fc012006f041
:10248000fdfb694b802252039a61232006f0f6fb84
:10249000624b0f225a700f203fe0604b5b78082b95
:1024a00026d00821022004f01bfc012006f0e6fbe8
:1024b0001ee0082b1cd00321022004f011fc012097
:1024c00006f0dcfb14e0554b5b78082b26d00dd9c9
:1024d000162b01d0192b0bd10821022004f000fc8f
:1024e000012006f0cbfb05f0d7fd01e0062bf3d071
:1024f000012004f053fb1f231840484b58706324fd
:102500001d001f2809d1012004f048fb1f2318409b
:102510006870013ce4b2002cf3d170bd05f0bcfd45
:10252000e6e73e4b5b78082b06d0092be0d0042170
:10253000022004f0d5fbdbe705f0aefdd8e7374b12
:102540005b78092b0ed009d8082bd1d106210220a7
:1025500004f0c6fb012006f091fbc9e7162b01d061
:10256000192bc5d10821022004f0bafb012006f086
:1025700085fb0621022004f0b3fb012006f07efb60
:10258000b6e7264b5b78082b16d004d9092b04d06c
:10259000192badd101e0062baad10821022004f0ad
:1025a0009ffb012006f06afb1621022004f098fb35
:1025b000012006f063fb9be71621022004f090fb4c
:1025c000012006f05bfb93e7144b5b78082b18d0d7
:1025d00005d9092b06d0162b00d089e702e0062b7f
:1025e00000d085e70821022004f07afb012006f0e4
:1025f00045fb1921022004f073fb012006f03efb8d
:1026000076e71921022004f06bfb012006f036fb6f
:102610006ee7200081e708207fe7c046143c0020d9
:0c262000dc52000038530000002800408d
:020000040000fa
:10262c00f8b5ce46474680b507000b78312b09d05c
:10263c00322b26d1694b5b7a0024002b21d0674bbf
:10264c00994696e083799c00e418a400644b1b68bf
:10265c005868001905f039fd002816d0604b1b682e
:10266c005b681c19a368e3605e4b5b7a9846002b91
:10267c0007d05d4b1a8892b2fb88ff218b439a429c
:10268c0007d00cbc90469946f8bdf88803f06afc5c
:10269c00f7e70024002600253be00021514804f018
:1026ac00e3fa061eedd0056837e04d4a9146332219
:1026bc0049460968885c0130c0b2190004f0aafed2
:1026cc00a8604b461a683e23d35c01332b74f988ff
:1026dc00464a280000f068fa002802d12b7c013b06
:1026ec002b7431003d4806f063f90ee06b68002b4b
:1026fc0003d0687c2a0001219847300005f02eff9a
:10270c00bfe73100374806f053f90134e4b2a04575
:10271c00b7d0344b5b7a002bbfd1002db1d0f988e8
:10272c002b8b994205d0324a9342ead1aa898a422c
:10273c00e7d16a7dd20604d52b4a128892b2934215
:10274c00b3d02c4a280000f02ffa0028ced000235a
:10275c002b743100284806f02bf9d6e731001f48be
:10276c0006f026f90134e4b24b465b7aa34200d85a
:10277c0087e70021194804f077fa06000568002d58
:10278c0000d17ee73a7a2b7f9a42e7d1fa882b8bdd
:10279c009a42e3d16b68002b03d0687c2a0000219d
:1027ac009847300005f0dafe2b8b2a7e002ad9d10f
:1027bc000d4a128892b2ff21180088438242d1d070
:1027cc00074a12681b0a92685b00d31859780f22cb
:1027dc000a4030210a435a70c4e7c046c83c002066
:1027ec00603d0020ec3c00203e3d00205d2f0000b1
:0c27fc00ffff0000196e0000f83c0020f8
:020000040000fa
:10280800f0b5de4657464e464546e0b58bb06a4bb6
:102818005b7a002b69d00025674e27e06368002ba0
:102828001fd0607c220007219847380005f098fee9
:1028380017e00023237462680100200000f0b6f955
:10284800002806d16368002b03d0607c2200012198
:102858009847380005f084fe03e03900564806f032
:10286800a9f80135edb2737aab423ed9002152483e
:1028780004f0fcf9071e42d00468002c3fd0a3687e
:10288800002bead0013ba360002be6d1238b9a46ac
:10289800180005f0abff8146484b9842bed0637dd7
:1028a800db06c6d5464b9b4633235a461268d05c96
:1028b8000130c0b2514604f0affda0605b461a6813
:1028c8003e23d35c013323744b46a3813d4a4946da
:1028d800200000f06bf9002802d1237c013b23740f
:1028e8003900394806f066f8bbe7384b1b78002bef
:1028f80005d0013bdbb2354a1370002b06d00bb074
:102908003cbc90469946a246ab46f0bd2c4b1a6893
:102918002023d25c2d4b1a7005f054fd0028eed010
:10292800c30744d44008c4b21a236b44032252425a
:102938001a808c2005f0bcfc061ee0d00768002f2a
:10294800ddd0234b198889b21a256d442a8807ab34
:10295800012004f089fb390007a805f0e1fc804656
:1029680013233b5403000133dbb2fc540230c0b2e2
:102978003818134b1b68d968220006f0effc0123b6
:102988005b422b80a21cd2b20496124b0393002305
:1029980002930195023300933b00414607a800f0db
:1029a800bdfd0028abd1300005f0dafda7e74408eb
:1029b8000134e4b2b8e7c046043d0020ffff000040
:1029c800603d00205d2f0000c83c0020343e002000
:0829d8003e3d0020436a0000af
:020000040000fa
:1029e00010b5734b1b7e002b00d1cae0704b0a223e
:1029f0001a74093a5a7408230132c9e003220821e3
:102a00000c3006f017f9032300220321162006f0ec
:102a100011f90023042210210c2006f00bf9644b5d
:102a2000db7c002b20d1022204210c2006f002f9cd
:102a3000002302220421172006f0fcf85c4c01233d
:102a40005b422372083363720023a372e372002295
:102a50000721142006f0eef8e37c00221f21082055
:102a600006f0e8f80123a0e00123022204210c2053
:102a700006f0e0f8dce70123032208210c2006f031
:102a8000d9f8022300220321162006f0d3f80023f0
:102a9000002203210c2006f0cdf80023042210218f
:102aa0000c2006f0c7f8424bdb7c002b20d1022221
:102ab00004210c2006f0bef8002302220421172076
:102ac00006f0b8f83a4c01235b4223720833637274
:102ad0000023a372e37200220721142006f0aaf853
:102ae000e37c00221f21082006f0a4f801235ce00b
:102af0000123022204210c2006f09cf8dce70123cc
:102b0000032208210c2006f095f80223002203215d
:102b1000162006f08ff80023002203210c2006f077
:102b200089f80123042210210c2006f083f80123e8
:102b3000022204210c2006f07df800230222042149
:102b4000172006f077f81a4b0f221a7200225a72d9
:102b50009a72da72db7c032b01d9154bda740423e9
:102b600000220721142006f065f8114bdb7c5b0086
:102b70000b33dbb20022ff21132006f05bf80123a8
:102b800013e00b4b28221a74243a5a74202304327f
:102b90000749d3184b768a76022800d16be70528bf
:102ba000add00023002800d128e7180010bdc04692
:042bb000d83b0020ee
:020000040000fa
:102bb400f0b5d6464f464646c0b58eb004000792df
:102bc4001e2302aa9446634419808c2005f072fbec
:102bd400061e00d1c5e0674b1b889bb21e2202a9ca
:102be4008c46624412889a4200d1bce0002c00d189
:102bf400bbe00768002f00d1b9e00bad228b618bdd
:102c04002b00ff2004f032fa627d9107890f6b7864
:102c1400032083430d3002400b4310218b431343a5
:102c24006b70238b227e002a07d0524a128892b2fc
:102c3400ef3118008843824248d04f4a93423ad039
:102c440039000ba805f06efb0890a37c002b00d183
:102c540073e0237fbb70494a1378013b1370089bd0
:102c6400f818a27f21001f3106f07afba37f9a4651
:102c74001e2302aa944663441a883f4b9a425fd0ab
:102c84000496079b0393637c02931e2302aa944633
:102c940063440193022300933b00524608990ba816
:102ca40000f03efc051e58d028000eb01cbc904617
:102cb4009946a246f0bda389227b002ac0d02d4aa2
:102cc400128892b2ff218b439a42b9d12c4b5b7a82
:102cd400002bb5d02a4d0021280005f0ebfc02683a
:102ce4006d7a002dacd01e2302a98c4663441b8848
:102cf4009a46002340218c461f49884611e002a8c9
:102d040025214018007861460843814602a8252100
:102d140041184846087012680133dbb2ab4200d157
:102d24008ee7002af7d0108b218b8142e7d04045f3
:102d3400f1d190895045eed1e1e7bb7823778ee756
:102d44000c4b188880b2b97803f08afc051e00d0b9
:102d540096e7300005f006fca6e7300005f002fc1b
:102d6400a2e70025a0e700259ee700259ce70025b3
:102d74009ae7c0463e3d0020ffff0000323e00209f
:042d8400ec3c002003
:020000040000fa
:102d8800f0b5c64600b584b001900f0002939600d6
:102d9800300001f03bf8051e00d1bae0542001f0e4
:102da80035f8041e58d005633200a521280006f026
:102db800dffa236b9846002f54d03b783422a35473
:102dc800002b09d0012321003431fa5cca54002aaf
:102dd80002d00133102bf8d143230022e2540a9d7c
:102de800042d00d90425e56265640027a764231d26
:102df8000393180006f0bffb2000183006f0bbfb59
:102e0800246105235b1ba3616462e7645023e754d4
:102e1800301f4044493b9843029a019906f052f802
:102e280020600b9b002b00d01c6006f0b5f93c4ad3
:102e38001368013313603b4b1b68002b16d03a4bc9
:102e48001b68002b17d1374b1b68db6ae26a934279
:102e580011d8344b1c600ee0280004f017fc012048
:102e6800404258e034230022e254b8e72d4b1c605e
:102e78001368012b23d02d4a136801331360e36aca
:102e88002b4a1268934201d9294a13609800c01846
:102e98008000284b1818039906f0dcf906f036fa7a
:102ea800214b1b680120002b35d01e4b1b68da6aaa
:102eb800e36a9a422fd206f063f901202be01d4df8
:102ec800280006f0bcf92800143006f0b8f92800ec
:102ed800283006f0b4f928003c3006f0b0f9280094
:102ee800503006f0acf9144e300006f0a8f9134d36
:102ef800280006f0a4f9124806f0a1f9114806f0d6
:102f08009ef9114806f09bf9104b1e60104b1d608e
:102f1800b1e70120404204b004bc9046f0bdc04671
:102f2800e83d0020dc3d00200c3e0020f43d002060
:102f3800f83d00200c390020403c0020543c002083
:102f4800683c0020903c00207c3c0020e03d0020b4
:042f5800e43d002034
:020000040000fa
:102f5c00f0b5de4657464e464546e0b583b0804652
:102f6c0089469246177b574b1a88ff231a4206d183
:102f7c00554b5b7a002b00d19de000246ee00800dd
:102f8c0003f094fdf4e7fc33034200d07ce04d4b9e
:102f9c001b889bb2ff22010091438b4274d04b4b98
:102fac001a68030a5b009268d3185a780f218a4377
:102fbc006ad05a78934612090f32114001910901d7
:102fcc008c4659460f221140624611435970019ba1
:102fdc00002b59d104f01cfd56e00123ab74a989d8
:102fec003b4a2800fff7e0fd002802d12b7c013b77
:102ffc002b743100344805f0dbfc29e0ff2303423d
:10300c0013d1304b1b889bb2ff22010091438b42a2
:10301c000bd02e4b1b68000a9b6840001818427896
:10302c000f231340302213434370298b274b1a680c
:10303c003323d05c0130c0b204f0ecf9a86031004d
:10304c00214805f0b5fc03e031001f4805f0b0fc49
:10305c000134e4b21c4b5b7aa3422cd900211a48f0
:10306c0003f002fe061e26d00568002d23d02b7f10
:10307c00bb42e9d16b7c4345e6d1288b4b46002bf8
:10308c00bcd0032b00d17ee72b7c002b04d0013b62
:10309c00dbb22b74002b03d00e4b1b78082b9cd16e
:1030ac006b68002b03d05246494640469847300087
:1030bc0005f054facce703b03cbc90469946a246c6
:1030cc00ab46f0bd3e3d0020c83c0020603d0020da
:0830dc005d2f0000313e0020d1
:020000040000fa
:1030e40070b50500594c207fc0b2002800d0a7e07d
:1030f40000294ad0002d48d0554c66680724344036
:10310400012c5ed051480560426000244461846112
:1031140004614e488160002a58d04c4ad3604b4a1f
:10312400012111774a4a127e520705d5484a0420e4
:10313400916a117e0142fbd1454a518b042001431f
:103144005183117e80200143117640498a68c96801
:10315400914203d93d48c168891a01613c494968d3
:10316400490743d139498969914233d2374a1168b1
:10317400087837498862916901319161002b5ad0ee
:10318400334b04229a7501205be0002b59d0002aae
:1031940057d02f4c666807243440012c0cd02b48a0
:1031a400056042600024446184610461002db0d153
:1031b400264900208860aee7002943d1dc07eed51c
:1031c4003fe0cc073dd4002be9d0f7e71f4a0021ac
:1031d400d160a4e71d4a1269002acfd01c4aff21fe
:1031e40091621a490a69013a0a61c7e7174a916864
:1031f40049089160116949081161d1684908d16091
:10320400916892698a420ad210490a681288d205e2
:10321400d20d0f4882628a6901328a61aee70b4a95
:103224001269002aaad00a4a0a49916207490a691e
:10323400013a0a61a2e7064b01229a75012000e0d7
:10324400002070bdcc07b9d5fbe7c046643b002025
:0832540000100042ff01000020
:020000040000fa
:10325c00f0b583b004f024fd002800d091e0d2300a
:10326c00400005f005fd4c4c982580231b0663514e
:10327c00802636029423e65080235b0363610a2088
:10328c0005f0f6fc66511e2005f0f2fc00221f2111
:10329c00012006f075f86b46d871da79d2b2da7182
:1032ac000a24642005f0e4fc1c2003f071fc0728c0
:1032bc0005d0013ce4b2002cf3d1852762e0082153
:1032cc00053803f007fd00221f21012006f058f8f5
:1032dc000828f2d10021063003f0fcfc2f4b082209
:1032ec005a702f4805f00cfe00284ed1012001f039
:1032fc00d1f9071e4dd12b4d08e02a4c260008367b
:10330c0005f060ff20700134b442f9d12878697857
:10331c0009020843a97809040143e8780006084328
:10332c0002002879697909020843a9790904014343
:10333c00e87900060843030001204042c117121827
:10334c004b41591c01d1d31cd7d80022164900205f
:10335c0005f0cefb002006f05bf803f06dfb8c2033
:10336c0004f0a4ff114b1860002810d0ff21104866
:10337c0006f075f805f0aefe084b822252041a6175
:10338c0000e08527380003b0f0bd8527fae78527d4
:10339c00f8e78527f6e7c04600280040143c0020db
:1033ac002f3e0020d83b0020e59400004c3d00202f
:0433bc00a43c00200d
:020000040000fa
:1033c00010b584b004000378082b3cd023d8022b1e
:1033d0001fd101aa0a2313706b46002159710131d4
:1033e00099710021d971197209316944444b0b70ec
:1033f000180a48701802000e88701b0ecb704148e6
:1034000001230370083343704280120c828005f060
:10341000c5f904b010bd0a3b012bfad801a900235d
:103420000b70394a394804f009f9394b1860431ccc
:10343000efd00c23374a1370237000222100364846
:1034400005f088fce5e705f0c3fe344c23001f338c
:10345000e077000a587000229a70da7005f0b8fe22
:103460007f23184023002333187000225a709a706b
:10347000000ed87005f0acfeff2318402300273360
:103480001870020a5a70020c9a70000ed87021004f
:103490000a31022003f064f8638963801b0ca38067
:1034a0000023e380238121001631002003f058f827
:1034b00021001431012003f053f82b232022e25481
:1034c00062891206d31705221a400c32134b2c21a5
:1034d0005a5419003931124a0a70100a4870100201
:1034e000000e8870120eca70064843801b0c838041
:1034f0003d2343703b3b037005f050f989e7c0461c
:10350000dd640000383d002010270000b17200008b
:10351000543d0020263b0020343d0020e83a0020a6
:043520003d62000008
:020000040000fa
:10352400f0b5de464f4680b585b001900291039216
:103534001f000cab1d780eab1b789b460f9e8c2096
:1035440004f0b8fe8146002800d18ae00468002c0b
:1035540000d188e000232375022d6ad0237d042244
:103564009343202213432375237d08229343237519
:103574003e4b1b889bb23e4a93426bd03d4b1a781c
:10358400063ad2b20023012191425b41dbb2637758
:10359400ab1e5a4253412377237d9a08012151409f
:1035a40001220a40920140218b431343802252425c
:1035b40013432375019b5b88e38327743b0a63747d
:1035c4003b0ca3743b0ee374271d2a000d993800ad
:1035d40005f0c6fea7612673330a6373330ca37325
:1035e400360ee67321235a46e254029b039a94460c
:1035f40063442022a3542423109ae254109b1a0af1
:103604002523e254109b1b021b0e2622a354109b5d
:103614001d0e2723e5544946174805f0cdf9002827
:103624001ad105f0ddf9012005b00cbc91469b468a
:10363400f0bd0d9b5a7812021b789b189bb20f4a5f
:10364400934200d88ae7237d042213432022934324
:10365400237589e700239ae7484604f083ff002096
:10366400e2e70020e0e70020dee7c0463e3d002020
:10367400ffff0000313e0020e03c0020fcff000082
:020000040000fa
:1036840070b5504b586a504b9b7d002b54d04e491b
:103694004c68072214404b4b5a699d699e680b7e07
:1036a4005b0757d5896a474bdb68934252d9002c94
:1036b40043d1444b5b6899540132434b1b7edb0777
:1036c40016d5414b012119753e4b9b68ab4256d927
:1036d4003c4b1b68595d3c4b99620135394b1b6966
:1036e400002b01d1b54262d0364bdb68934262d0e5
:1036f400344b5a619d61344b1b7e9b0715d5334b6c
:103704001b78002b18d02f4bdb68934211d12d4b23
:1037140000221a772c4907240c752c490a701b6a5d
:10372400002b09d0274b1b6a9847284b1b78002b8a
:1037340002d0254b02229a7570bd224b5b6854005f
:10374400e1520132204b1b7edb07d1d51e4b0121f8
:10375400197508e01c4b1b7edb07c9d51a4b0121e8
:103764001975002cb0d0174b9b68ab4213d9154b7d
:103774001b686900c95a144b99620135aee7114bb5
:103784001b69002baad0104bff2199620d490b69cc
:10379400013b0b61a2e70b4b1b69002b9ed00a4b2c
:1037a4000b49996207490b69013b0b6196e7074b8b
:1037b400012119709ce7044b012199750331197596
:1037c40096e7c046643b0020001000423c3e0020c7
:0437d400ffff0000f3
:020000040000fa
:1037d800f0b58db04c4b1b88ff229343dd3a6a4409
:1037e80013808c2004f064fd051e5ad00668002e54
:1037f80057d000230793454aa433d05807a902f0ad
:10380800a1fd079b002b4ed1404c4148a023e0501e
:10381800404b19684a6b53019b1a9b009b18db00ad
:103828009422a350496b4a01521a92005218d200ae
:103838009823e25000239c216354813969440b701a
:1038480003f0f8fea423e050431c2ad0324a137830
:10385800013313702c4b198889b209ac22276f44a5
:103868003a882300012003f0fffb637820221343ea
:103878001022934363703100200004f051fd0100d1
:10388800312333540495254b039300230293019766
:1038980002330093330001222000fff73ffe002887
:1038a8000ad00db0f0bd194fa424385904f0b0fb6c
:1038b800385904f08dfba7e7280004f051fe164a9a
:1038c8001378013b1370114c1148a023e050114ba1
:1038d80019684a6b53019b1a9b009b18db009422c2
:1038e800a350496b4a01521a92005218d2009823e9
:1038f800e25000239c21635407a90b7003f09afe41
:10390800a423e050cde7c0463e3d00203c350020d2
:1039180011950000603d0020f53b00201d5a000075
:020000040000fa
:1039280070b50400002928d0454b1b7f0422f021e4
:103938002c2005f07bf9012c5ad9414b1b7d012223
:103948000e212c2005f072f91920fef755fd1928d3
:10395800fad13c4b1868017803f026fb3a4b012258
:103968001a703a4c80256d03a561012005f082f993
:103978006561002005f04efd70bd00230422f02192
:103988002c2005f053f9012cd7d8072301220e214a
:103998002c2005f04bf938e0294bd87c434258419c
:1039a8004042f0239b001840294b9c46604441e06c
:1039b800002bc9d0224b1b7e002b0fd1204bd87c6b
:1039c80043425841404296235b0018400430ff3080
:1039d80004f063ff1c4b0022da70b5e7184bd87c63
:1039e80043425841404290235b0018409730efe72c
:1039f800072301220e212c2005f018f9104b1a7ffd
:103a0800144b1a70144b01221a70012c9cd10e4bc6
:103a1800db78122bccd90a4b1b7e002bbcd1084b70
:103a2800d87c434258414042fa239b0018400b4b34
:103a38009c46604404f031ff034b0022da7083e7b0
:103a4800d83b0020483d0020143c002000280040be
:103a580057020000263e0020273e0020bf0300003a
:020000040000fa
:103a680010b5072800d183e024d9502858d033d97d
:103a7800572800d186e03bd9592800d187e0f028a3
:103a880042d1454b1a785878000210439a781204ac
:103a98001043da78120602431c795879000204436d
:103aa800987900042043db791b0603430a604b60c6
:103ab80000201ce003284ed006d8012838d045d86d
:103ac800354bdb7c0b7012e0052849d055d8324bba
:103ad8001b7e0b7000200ae04e2817d01bd80b283d
:103ae80004d12d4b9b7d0b70002000e0892010bd78
:103af800532807d1284a107b537b1b0203430b80b2
:103b08000020f4e78920f2e78920f0e7224b1b7dab
:103b18000b700020ebe7204b5b7d0b700020e6e785
:103b28001d4a907bd37b1b0203430b800020dee7fa
:103b38001948037a427a12021a43837a1b041a43f9
:103b4800c37a1b0613430b600020d0e7124bdb7dc2
:103b58000b700020cbe7104b9b7c0b700020c6e756
:103b68000d4a107c537c1b0203430b800020bee7e8
:103b7800094b9b7e0b700020b9e7074b5b7e0b70ef
:103b88000020b4e7044bdb7e0b700020afe7024b4c
:0c3b98001b7f0b700020aae7d83b002028
:020000040000fa
:103ba400f0b5ce4600b584b00400009101921f0028
:103bb4000025442640e0a66b3a000099200002f05c
:103bc40003ffa36c002b11d0022f00d180e0200052
:103bd40003f0aefe002806d105f09afb012004b0e4
:103be40004bc9146f0bd05f0cdfaf5e7636a002bfd
:103bf40004d10028f0d005f0c5faede72000243008
:103c040002f0a6fe0028e7d005f0bcfae4e705f0d0
:103c14007ffb0020e3e702a805f0ccfa19e00023bb
:103c2400a35520e045230022e25421e0200002f0c5
:103c3400bdf800f01ffe012505f0b0faa36be26b9e
:103c44009342b8d3022f3ad0019b002bdfd0002d32
:103c5400e1d005f05dfb05f0f7fb05f09ffaa35ded
:103c64005bb20133dbd04523e35c5bb20133d9d0d3
:103c740005f04efb01a902a803f036fd002817d178
:103c840005f08cfaa36b9946e56b05f041fba94559
:103c9400ccd120001030019905f0c2f9200002f0c7
:103ca40085f800f0e7fd0028c5d105f06bfac2e7fe
:103cb400200002f07bf800f0ddfd00208fe7a66b0a
:103cc40002220099200002f07ffea36c002b8dd00d
:083cd400002e00d080e77ae722
:020000040000fa
:103cdc00f0b585b004000191002300930025442623
:103cec00002743e0013ba3632368002b09d0236921
:103cfc00002b0ad105f008fb01230093009805b0b6
:103d0c00f0bd05f097f9a060f1e72000103002f04b
:103d1c001bfe0028eed005f031faebe705f0f4fac3
:103d2c0000230093eae702a805f040fa28e0a75523
:103d3c0030e04523e75432e005f02cfaa06802f09d
:103d4c00a3f9009005f0e0fa39e0200002f02af81f
:103d5c0000f08cfd09e0200002f024f800f086fd54
:103d6c00200005f0dbfa002838d1012505f012fa05
:103d7c00a36b002bb6d1019b002bcfd0002dd2d042
:103d8c0005f0c2fa05f05cfb05f004faa35d5bb22a
:103d9c000133ccd04523e35c5bb20133c9d005f0d1
:103dac00b3fa01a902a803f09bfc0028d3d1200090
:103dbc0005f0b4fa0028c8d02368002bbcd0200032
:103dcc002430019905f028f9200001f0ebff00f0f8
:103ddc004dfd0028c9d105f0d1f9c6e7009b002b99
:103dec0000d18be705f0d6f9616a002903d0236b6b
:103dfc001b680521c91aa06802f000ff05f084fabf
:063e0c00002300937ae799
:020000040000fa
:023e12007047f7
:020000040000fa
:103e1400f8b5040005f018fb404b1b68002b15d0c7
:103e24003f4b1e68344238d1002c3dd0220008326a
:103e3400530702d007239a430832002a34d0394b5f
:103e44001f68974233d338490c6835e0374a530723
:103e540020d0d11d07239943bd239b019c46624476
:103e6400531a0a003048026000214160d318083b0d
:103e7400072083432948036059601960991a5160e7
:103e840013602b4b1960274b1960254b80221206b7
:103e94001a60c5e7bd239b01e4e700f0ebfc05f0e5
:103ea40071fb00252800f8bd00f0e4fcf7e700f002
:103eb400e1fcf4e721001c006368934202d223680a
:103ec400002bf7d1154b1b68a3421ed00d68083593
:103ed40023680b6063689b1a102b19d86368ff1a58
:103ee400104a1760124a1268974201d2104a1760aa
:103ef4001e436660002323600e4a13680133136077
:103f040000f0b8fc002dcdd1c9e700f0b3fcc6e742
:103f1400a0184360626003f067fcdfe7c43d002043
:103f2400c83d0020cc3d0020283d0020000000209a
:083f3400d03d0020d43d002027
:020000040000fa
:103f3c00f0b5c64600b582b03a4b1b68002b65d174
:103f4c00394b1a68013290461a60002a18d0374b48
:103f5c001b68434521d900230193354b1b68da6a52
:103f6c0093009b189b00334a9b58012b01d90123ca
:103f7c000193314b1b68002b4ed0012301934be076
:103f8c002e4a11682e4b1868106019602d4a136860
:103f9c000133136004f054fcd9e700230193274e3e
:103fac00370033681b68002b28d03b68db68dc6863
:103fbc006368984527d3251d280004f00ffea36adb
:103fcc00002b03d02000183004f008fee36a1e4ad0
:103fdc001268934201d91c4a13609800c0188000e3
:103fec00144b1818290005f033f9114b1b68e26ac1
:103ffc00db6a9a42d5d301230193d2e70b4b012202
:10400c0052421a60a9e7094a1360a6e70f4a1368df
:10401c000133136000230193019802b004bc904655
:10402c00f0bdc046f03d0020103e0020003e0020b8
:10403c00dc3d00200c390020143e0020e03d002027
:10404c00e43d0020043e0020f83d0020083e002006
:020000040000fa
:10405c00f8b5404b5b7a002b6cd000253d4f24e02b
:10406c000123a374a1893c4a2000fef79dfd002882
:10407c0002d1237c013b2374218b384b1a683323e8
:10408c00d05c0130c0b203f0c5f9a06031003148fa
:10409c0004f08efc03e031002e4804f089fc01355d
:1040ac00edb22c4b5b7aab4244d90021380002f0c4
:1040bc00dbfd061e3ed00468002c3bd0a368002b11
:1040cc00e9d0013ba360002be5d1237c002bc7d0aa
:1040dc00013bdbb22374002bc2d16368002b03d0ed
:1040ec00607c220003219847300004f037fa208bc3
:1040fc00237e002bd3d11a4b1b889bb2ff220100cd
:10410c0091439942cbd0154b1a68030a5b00926815
:10411c00d3185a780f218a43c1d05c7822090f3208
:10412c000a401601214031435970002ab7d103f0df
:10413c006ffcb4e703f040f90a4b1b78062b02d056
:10414c0001f098fdf8bdfef759fb03f007f902f0fa
:10415c00b9fff5e7c83c00205d2f0000603d002052
:08416c003e3d0020313e002021
:020000040000fa
:1041740070b52d4b06225a6004f0cafa01f0cafd4c
:1041840001f04ef805f082f903f0f9fb03f0fcffaf
:1041940002f0e6fa03f0defe2449002000f000feff
:1041a400234b1860234c244b2360244b6360244b23
:1041b400a360244be360244b2361244b6361244bb1
:1041c400a361244be361244b2362244b6362244b9d
:1041d400a362244be362244b2363244b6363244b89
:1041e400a363244be363244b23640023142201219f
:1041f400224803f06ff9002314220121204803f020
:1042040069f9204d04224021280004f0a3ff29006d
:10421400200004f0bff904f01fff03f0b5f903f028
:10422400b3f9fff719f870bd004000416095000034
:10423400c03d0020603a00209590000011910000dc
:10424400d97400000d8d0000299100003584000010
:10425400b193000059910000558d0000698400005d
:10426400798d0000c3930000b1920000c592000054
:10427400319200001995000021950000b83d0020fe
:08428400bc3d0020b43d002008
:020000040000fa
:10428c0070b584b03a4b5b7a002b03d0394b1b785a
:10429c00002b05d1384b5b7a002b61d104b070bd7b
:1042ac000021334802f0e0fc05000468002cf1d03a
:1042bc00237b627b12021a43a37b1b041a43e37b0e
:1042cc001b0613432d4a13602d4a137801331370c8
:1042dc00237c627c12021a43a37c1b041a43e37cea
:1042ec001b0613432422a25c2521615c09021143a5
:1042fc002622a25c120411432722a25c12060a4356
:10430c000392204a02922122a25c01922022a25cfa
:10431c000092207d627d12020243a07d00040243c4
:10432c00e07d00061043217e627e12020a43a17ecc
:10433c0009040a43e17e09061143227f667f360297
:10434c001643a27f12041643e27f12063243fdf796
:10435c0051fc084b00221a70280004f0fff899e772
:10436c00fdf7aafd002899d00748fcf72bfb95e731
:10437c00e03c00203f3e0020d43c0020843d002047
:0c438c00f53b00200d8a00002c3c0020b6
:020000040000fa
:10439800f8b5394e394c23689d6800231422012151
:1043a8003000a847364d23681b6b1c21280098470e
:1043b80023685b6b29003348984723685b6b2900a7
:1043c80030009847304b314a1a60314c2b4f2d4df5
:1043d80007e02a4b1b68db6800212748984705f04f
:1043e80087f83b689b6b2b4a254920009847236830
:1043f800214a12689342ecd02a689342f1d1224ea6
:104408001e4b1b689b6a002231001e489847336880
:104418001a78012a0ed0022ae3d19878da781202a3
:10442800024318790004024358790006104301f04a
:104438003ffbd6e79978da78120211431a79120409
:104448000a435b791b0613435a7999790902114388
:10445800da79120411431a7a12060a4359789878bd
:1044680000020843d9780904084319790906014369
:10447800187801f069fbb4e7703d0020683d002022
:10448800783d0020643d00206c3d0020403d002028
:08449800743d0020ffff00004d
:020000040000fa
:1044a000f0b5ce4600b58cb014001f001f266e4438
:1044b0003070374b1b689a6a089205f025f83378fc
:1044c000d840c30759d5129a002a5bd0314b1878cf
:1044d000002853d08c2003f0effe051e54d0066850
:1044e000002e53d01f216944002001f005f8294b0c
:1044f00004221a70284b06971f7009af63781b02bd
:104500002278d21892b23b002449012002f0b0fd7b
:104510007b78202213437b703100380003f004ffc6
:1045200081460322030032540133dbb2f25403000c
:104530000233dbb2069af2540330c0b230180422c0
:1045400008a904f00fff164b129a1a600495154b38
:104550000393002302930194023300933300072254
:1045600049463800fef7deff03000120002b05d18d
:10457000280003f0f9ff002000e001200cb004bc8b
:104580009146f0bd0120f9e70020f7e70020f5e7ac
:10459000603d0020313e00203a3e0020ffff000039
:0845a000903d0020e96e0000cf
:020000040000fa
:1045a800f0b5c64600b584b004000091019200271a
:1045b80044260023984638e00099200004f0fcfbcc
:1045c8006b1ea3632369002b06d104f09ffe012014
:1045d80004b004bc9046f0bd2000103002f0b6f9db
:1045e8000028f2d004f0ccfdefe704f08ffe0020a5
:1045f800eee702a804f0dcfd21e04346a35528e0dd
:1046080045234246e25429e0200001f0cdfb00f0aa
:104618002ff909e0200001f0c7fb00f029f920007c
:1046280004f07efe002835d1012704f0b5fda56b06
:10463800002dc1d1019b002bd7d0002fd9d004f079
:1046480065fe04f0fffe04f0a7fda35d5bb2013335
:10465800d3d04523e35c5bb20133d1d004f056fede
:1046680001a902a803f03ef80028d3d1200004f0e5
:1046780057fe0028c8d020002430019904f0cefc51
:10468800200001f091fb00f0f3f80028ccd104f0f1
:0846980077fdc9e700209be754
:020000040000fa
:1046a00070b50400384d80235b036b61d22040005d
:1046b00004f0e4fa802636029423ee500a2004f037
:1046c000ddfa9823ee50642004f0d8fa00221f216e
:1046d000012004f05bfe0a2508280dd0642004f0b8
:1046e000cdfa00221f21012004f050fe013dedb261
:1046f000002df1d1852070bd244b08225a7002f0a4
:1047000057fb002304223021032004f093fa0023f6
:1047100003220821032004f08dfa04f059fd05005e
:10472000c1b22d2002f0dcfaabb21b0a0022072135
:104730002e2004f07ffa0123052220212e2004f0f0
:1047400079fa0123072280210c2004f073fa012357
:1047500001220221042004f06dfa08210e2002f04b
:10476000bffa062304227021152004f063fa002cfe
:1047700007d101f071fe054b00221a709a700020db
:10478000b9e703f003faf4e700280040143c0020e6
:020000040000fa
:10479000f8b5374c656b63689b69984760616069e1
:1047a00004f024fca66ae76a0023020092197b4108
:1047b000a262e362002d51d02d4c3022a35c013364
:1047c000a35403f0cdfd646b002c06d0a368002b2e
:1047d00003d101250027264e11e0264d00242e008e
:1047e00021e0e06903f0f8fbe368002b01d02069c9
:1047f0009847746b002cf0d0a368002bedd1257581
:104800006575a378002b02d1e368002be9d1200065
:1048100002f0befca378002be6d16770e4e7013418
:104820002035052c15d06301f3185b7d002bf6d0e5
:104830006201104b9b1800225a75ab78012beed108
:1048400061010c4b59186b688b60280000f06cf903
:10485000e5e7074930228b5c013b8b5404f068fe8e
:10486000040000f081fc200004f066fef8bdc046a4
:08487000a83a0020bc3600202c
:020000040000fa
:10487800f8b5ce46474680b504f08efc2e4b1a6834
:10488800013a1a601b680024002b03d12b4b1b68cc
:10489800002b06d104f03afd20000cbc9046994646
:1048a800f8bd0024264eb046264f274b994633685c
:1048b800002b22d04346db68dc682000183004f067
:1048c8008ff9251d280004f08bf9e36a3a689342b2
:1048d80001d91c4a13609800c01880001b4b181897
:1048e800290004f0b7fc1a4b1b68db6ae26a9a429b
:1048f800ddd301234a461360d9e7002c01d003f029
:10490800a1ff144b1c68002c0ed00f4e012502e0ad
:10491800013c002c05d0fff70dfb0028f8d03560ce
:10492800f6e70c4b00221a60074b1c68002cb1d02c
:1049380004f026fc0124ade7f03d0020e83d00200e
:10494800683c0020f83d0020143e00200c3900206f
:08495800dc3d0020083e0020b8
:020000040000fa
:10496000f0b5ce46474680b583b081468846324b87
:104970001e78002e59d1cd00013debb201931700f6
:104980001500083500202d4c0fe04000604080b23b
:10499000013bdbb2002b05d001b20029f5db400062
:1049a00080b2f5e70132954204d013781b025840db
:1049b0000823f1e7002422490fe064004c40a4b230
:1049c000013bdbb2002b05d022b2002af5db6400ec
:1049d000a4b2f5e70137bd4204d03b781b025c402e
:1049e0000823f1e7019d290000f07efe0f00290059
:1049f000200000f079fe4346013bcab2d2089a1a61
:104a00004846805cfab2d2089b1a07221740063a41
:104a1000ba404c46e35c1a4207d0072319400126ee
:104a20008e400640731e9e41f6b2300003b00cbcaf
:104a300090469946f0bdc046983e002021100000e7
:044a40000580ffffef
:020000040000fa
:104a4400f0b5060085b00f0015001c008b4265d838
:104a540001d1824262d82100280004f0dbfb390036
:104a64000090300004f0d6fb009b21001b1a1a00b2
:104a74002800039304f0c2fb00900191019bbb4208
:104a840046d802d1009bb34242d8009b019c039ab2
:104a940001200021f61aa74104f0b0fb039b002b70
:104aa4002fd0019b009adb0754081c43019b5d082f
:104ab400039b9c46bd422ed801d1b4422bd8320070
:104ac4003b00121bab41012692185b410027b6182c
:104ad4005f4101235b429c446346002bead1801969
:104ae4007941039a04000d003000390004f07afb88
:104af400039a06000f0004f081fb241a8d41200064
:104b040029000a9b002b01d01e605f6005b0f0bd38
:104b140000200021c2e7b6197f41dae70020002116
:024b2400efe7b9
:020000040000fa
:024b26007047d6
:020000040000fa
:104b2800f0b5de4657464e464546e0b585b0814667
:104b3800002854d0304b596b83689a4600290cd012
:104b48008b6852460392002290469a4549d3002228
:104b580000238b460092019306e052468260264b62
:104b68005863012034e0e3465e46b6683400002509
:104b7800009a019b12196b41009201935e46b66937
:104b8800b446002e12d06646b66800210f00009a7f
:104b9800019bb6185f41474529d8e4d1039b9e4243
:104ba800e1d960465946009a019b01e03000594618
:104bb8004c46a0618c61002051468a1a4b469a6087
:104bc8009b69002b04d04a4691689a68521a9a60e9
:104bd80005b03cbc90469946a246ab46f0bd0020c5
:104be800f6e7054b5863816100220120e4e760463f
:0c4bf8005946009a019bdbe7a83a002018
:020000040000fa
:104c0400f0b58bb006002f4b1c781a2c4dd8012719
:104c14001d0007e00a2053e00a2051e00134e3b20a
:104c24001a2b42d8e2b27368e3401f42f6d02a70ce
:104c34002900002000f05efc0028efd01a236b440a
:104c4400012252421a808c2003f034fb061ee1d06c
:104c54000568002de0d007ac1a276f443a8823007a
:104c64001949012002f002fa637820221343637089
:104c74002900200003f056fb010001232b54049665
:104c8400124b0393002302930197023300932b00ea
:104c940001222000fef744fc03000020002b0fd16a
:104ca400300003f05ffc0a200ae0094b05221a7069
:104cb4007078084c31002368984700232360002053
:104cc4000bb0f0bdf63b0020ffff0000fd560000d6
:084cd400313e0020943d002058
:020000040000fa
:104cdc0070b504000d000b2859d883002d4ad35809
:104cec009f46032208210d2004f04afb2870200067
:104cfc0070bd072280210d2004f042fb287000209b
:104d0c00f6e7002203210d2004f03afb2870002066
:104d1c00eee701220221172004f032fb287000205c
:104d2c00e6e700220721142004f02afb287000205b
:104d3c00dee7132001f02cff28700020d8e70022ba
:104d4c001f21052004f01cfb28700020d0e7002256
:104d5c000f21152004f014fb28700020c8e7042252
:104d6c0010212e2004f00cfb28700020c0e7042238
:104d7c001021172004f004fb28700020b8e705224e
:104d8c002021172004f0fcfa28700020b0e78820be
:084d9c00aee7c04638850000b7
:020000040000fa
:104da40070b50d1e4cd000284dd12848383004f081
:104db4007cf9012802d00120404246e02b68234cb4
:104dc4006360db689847e0600026c8220023002166
:104dd40003f07ef81e4a002303f03cf9022200236c
:104de4008018594120620423eb5623722661194b23
:104df400a361194be36100220023a262e3626663ac
:104e04003023e65463681b6800211448984763689c
:104e14001b69002b02d00d4a108b98470b4ce0699c
:104e240080b263685b69984763685b689847a022af
:104e340000210b4804f09efa02232370200004e0b2
:104e44000120404201e00120404270bda83a002008
:104e5400006cdc02ffff0000ff7f000091470000b0
:044e6400bc36002038
:020000040000fa
:104e680010b52a4b1b68002b03d0294b01221a606e
:104e780010bd274b00221a60264b1b681b6b264a65
:104e88001968914202d1596891422fd0214b186874
:104e98001968343104f072fb204b1b689a00d21851
:104ea80092001f495258002a06d1013b9a00d21895
:104eb80092005258002af8d019489a00d11889004f
:104ec80041184c6864684c60d21892000832821805
:104ed800944212d09a00d218920011498a18526846
:104ee800d1680c4a11600d4a1360c1e79968914274
:104ef800ccd1db689342c9d1cee760689a00d2185a
:104f0800920007498a185060e4e7c046f03d002047
:104f1800143e0020dc3d0020a5a5a5a5f83d0020f5
:044f28000c39002020
:020000040000fa
:104f2c0070b58ab01a236b4400221a80274b1a885a
:104f3c00ff231a423dd0264b1a881a236b441a8041
:104f4c001a236b441a88234b9a4230d08c2003f0de
:104f5c00adf9051e2bd00468002c28d01b4b1988ea
:104f6c0089b21b4b1a8807abff2002f07bf821009b
:104f7c0007a803f0d3f90600072323540130c0b26d
:104f8c0020180822144904f0e7f90495134b0393f5
:104f9c00002302931a336b440193022300932300e2
:104fac000922310007a8fef7b7fa002809d00ab089
:104fbc0070bd074b188803f017fc1a236b4418803c
:104fcc00bee7280003f0cafaf1e7c0463e3d0020d8
:104fdc00943e0020ffff0000883e00207d8f0000e3
:020000040000fa
:104fec00f0b583b006000d0001921f0008ab1c78d1
:104ffc0003f002f9002845d0244b1b785bb2022b3e
:10500c0006d00124644203f09bfd200003b0f0bde8
:10501c00002d31d0b54232d31d4b1b78002b0bd059
:10502c001c4b01221978002908d001322033052aa3
:10503c00f8d101246442e6e70022154b01211970d6
:10504c0000215970197559759c705d600199d96072
:10505c001f61ad1b9d60104909881404240c0a04bf
:10506c001443dc61013189b20c4a914202d00a4ae4
:10507c001180c8e70121fae701246442c3e7012447
:10508c006442c0e701246442bfe7c046a83a00204e
:10509c00bc360020dc360020963e0020ffff0000ce
:020000040000fa
:1050ac00f0b5ce46474680b583b0814688462a4b3c
:1050bc001a68957f002d17d000250023019300243a
:1050cc000127254e06e001970134e4b23268937f44
:1050dc00a3420bd923011068c01802f0f6ff002878
:1050ec00f1d00135edb2efe7002301931a4b1b68a9
:1050fc00da7f012a17d900270124174e07e0012374
:10510c0001930134e4b23368da7fa2420cd9a000d7
:10511c00001980005b68181802f0d7ff0028eed049
:10512c000137ffb2ede70027997f481b64246043e9
:10513c0000f08afa4b461870074b1b68d97fc81bc6
:10514c00604300f081fa43461870019803b00cbc20
:0c515c0090469946f0bdc046603d002022
:020000040000fa
:10516800f0b5c64600b52a4b5a6b59691961002a31
:1051780042d09168274b994234d9254b5b69002569
:105188001c00244a0023a4185d41214b98465b6803
:105198009b6998470027060043461b69834203d949
:1051a8001d4a0023b6185f41194b196a00230a00eb
:1051b80092197b41ab4202d827d1a24225d98e1938
:1051c800134bde61124bdb691b0402d1104b012229
:1051d800da610f4bd86980b25b685b69984704bc99
:1051e8009046f0bd91680a4b5b6900251c000023be
:1051f8000a00a4185d41c8e7054b5b6900251c003f
:10520800044a0023a4185d41bfe7014bdc61d9e7dc
:0c521800a83a0020ff7f0000ffff00000c
:020000040000fa
:10522400274a002393611361264a082191710739a3
:105234005171254a13831100920dcb681342fcd09f
:10524400224b1b689b0e9b028022920013431e4a32
:10525400d3611100920dcb681342fcd01a4b022289
:105264001a831900d201cb681342fcd0184b194a97
:105274001a62190004224b681a42fcd1144a8c2386
:105284004021d15010004c31402243581a42fcd0e6
:105294000f4ad8234021d15010009831402243585e
:1052a4001a42fcd00a4aec234021d1501000ac3100
:1052b400402243581a42fcd0034b00221a7570470f
:1052c4000010004000040040000c004020608000fa
:0852d400001800400701010071
:020000040000fa
:1052dc00b224000022250000f02400003e2500002e
:1052ec00f02400009a240000c6240000f0240000e2
:1052fc00f0240000f0240000f0240000f024000052
:10530c004a240000f0240000f0240000f0240000e7
:10531c00f0240000f0240000f0240000822500009e
:10532c00f0240000f0240000c82500002225000015
:10533c00f02400003e250000f02400009a24000018
:10534c00c6240000f0240000f0240000f02400002b
:10535c00f0240000f02400004a240000f024000097
:10536c00f0240000f0240000f0240000f0240000e1
:10537c00f024000082250000f0240000f02400003e
:04538c00c825000030
:020000040000fa
:1053900010b582b002f0dcfe01a801246442048052
:1053a00003f070fb1c4803f059fb01f0bffb00f059
:1053b000f7f903f009f903f01ff9184b01221a70ed
:1053c000174b1c801e21174804f04ff81e21164869
:1053d00004f04bf81e21154804f047f81e2114482c
:1053e00004f043f81e21134804f03ff86b46d91d22
:1053f00000230b70fa22013392000f4802f01ef9cd
:10540000431c07d003f0e4fe0c4b18700c4b1878cb
:1054100002b010bd0120fbe72c3e0020313e0020f1
:105420003e3d0020c83c0020f83c0020ec3c002021
:10543000e03c0020d43c00205d400000323e0020d3
:04544000f73b002016
:020000040000fa
:10544400f0b5c64600b58ab007001a236b440122a2
:1054540052421a808c2002f02dff061e3ed00568b1
:10546400002d3dd0214c218889b21a236b441a881f
:1054740007abff2001f0fafd290007a802f052ff54
:105484008046208880b2a97801f0eaf8041e21d071
:1054940011234246ab5443460133dbb20022ea54a3
:1054a40043460233dbb23f0aef540496104b039396
:1054b40002921a236b440193022300932b000332bc
:1054c400414607a8fef72cf8041e0ad1300003f069
:1054d40049f806e0300003f045f802e0002400e05b
:1054e400002420000ab004bc9046f0bd3e3d0020dc
:0454f400df6c000069
:020000040000fa
:1054f80010b582b00c00022826d008d906283ed064
:1055080080282fd0052834d0002002b010bd0028f4
:1055180011d001280dd101a80b7803704b78437086
:1055280003f098fa0028f0d001ab1a88164b1a80bd
:10553800ebe70020e9e7002003f03ffb0028e4d078
:105548002278124b1a70e0e701a80b7803704b78a9
:10555800437003f093fa0028d7d001ab1a880c4b9c
:105568001a80d2e70b785a1e93410a4a1370012019
:10557800cbe70422084803f0f1fe0120c5e70a78ca
:10558800064b1a700120c0e72c3e0020f63b002095
:105598003e3d0020983e00208c3d00203a3e0020f1
:020000040000fa
:1055a80010b5294bda7d930613d43f231340264abe
:1055b800127e052a13d01100123901290fd9002aa9
:1055c8002cd1214ad27c002a19d1062b17dd0623bb
:1055d80034e052421f2313405b425bb2e7e71a49ab
:1055e800c97c002909d0032907d0052a01d0122a2d
:1055f80005d10a2b03dd0a2320e0042b1ddc9f22a2
:105608001f2b13dd104ce27502f098fae07d02f0d2
:10561800b5f90100052001f05ffb10bd0a4ad27cf4
:10562800002aecd1032beadd032307e0002b05da7f
:10563800803a134081321a43e4e70423802252421d
:0c5648001a43d2b2dee7c046d83b002077
:020000040000fa
:10565400002941d010b4041c4c40a446012300226c
:10566400002900d54942002800d5404288422cd365
:1056740001242407a14204d2814202d209011b0160
:10568400f8e7e400a14204d2814202d249005b005f
:10569400f8e7884201d3401a1a434c08a04202d3c7
:1056a400001b5c0822438c08a04202d3001b9c0808
:1056b4002243cc08a04202d3001bdc08224300286a
:1056c40003d01b0901d00909e3e7101c6446002c30
:1056d40000d5404210bc704701b5002003f056ffce
:1056e40002bdc0460029f7d003b5fff7b3ff0ebcd7
:0856f4004243891a1847c04621
:020000040000fa
:1056fc00f0b583b000292dd1204d214eae65214f40
:10570c003b78012422009a40130001331801c01a7f
:10571c00800103f01ffcfa21890000f043fde864ce
:10572c003b789c4001342001001b800103f012fceb
:10573c00fa21890000f036fd02002865002354216f
:10574c006b54694607310b70300001f071ffe8654e
:10575c0003b0f0bd0c4b1868fff74efa0028f7d0d9
:10576c00094b19680870094b05221a704878084cc7
:10577c002368984700232360eae7c0463c350020a5
:10578c001d7c00003b3e0020a03d0020313e00204f
:04579c00943d002018
:020000040000fa
:1057a000f8b5274b1a68937f002b1cd00024244f98
:1057b00001262501106840190822ff2103f0dcfdb5
:1057c0003a681368591908000830ff230b72835593
:1057d0008370c37011688c4665442b730134e4b246
:1057e000937fa342e5d8164b1a68d37f002b26d0af
:1057f0000025134f0126ac006419a400506800195d
:105800000822ff2103f0b8fd3a685368191908000f
:105810000830ff230b7283558370c37051680919d8
:1058200008000c300b7383558370c37051688c462d
:10583000644423740135edb2d37fab42dbd8f8bdad
:04584000603d0020a7
:020000040000fa
:10584400f0b585b00600029103921c0003f08afeb5
:105854000190b36bf26b934208d30025022c05d060
:10586400019803f087fe280005b0f0bd4523f55ce0
:105874006db2b76b22000299300001f0a5f86b1ce1
:1058840005d001356db24523f5540125e8e7b36c25
:10589400002b10d0022c02d10235002fe0d13000b1
:1058a40002f046f801250028dad0039a002a12d023
:1058b40001231360d4e7736a0125002bd0d0300094
:1058c400243001f045f80028cad0039a002a04d0f5
:0e58d40001231360c4e70125c2e70125c0e7e8
:020000040000fa
:0258e20070470d
:020000040000fa
:1058e40070b582b0224b1b68002b34d01e68072091
