:020000040000fa
:10000000f07f00204d850000c34d0000c755000063
:1000100000000000000000000000000000000000e0
:100020000000000000000000000000003b75000020
:100030000000000000000000c1870000e19b0000fc
:100040004f7000004f7000004f7000004f700000b4
:10005000bd7600004f7000004f7000004f70000030
:100060004f7000002d7f00004f7000004f700000a7
:100070004f700000753900004f7000004f70000095
:100080004f7000004f7000003d9800004f7000005e
:100090004f70000000000000000000004f700000e2
:0c00a0004f700000000000004f700000d6
:020000040000fa
:1000ac00f8b5c046f8bc08bc9e467047e584000015
:1000bc00f8b5c046f8bc08bc9e467047bd8400002d
:020000040000fa
:0800cc00144c000001000000cb
:020000040000fa
:1000d400f0b59bb013930b6815900a938b680d9140
:1000e4000b930b694d681893cb68029313680893bc
:1000f40053680898069300220023069908f087fda8
:1001040000280dd10a9b5b073ad408200a9b0340c0
:1001140009930b9b0393099b002b0fd0202306e02c
:10012400802212069446069b634406932d23029a6a
:1001340013700b9b013b039301230993069b0899be
:100144005b005b08944a00291ed193421cd1029c97
:10015400139ba446099a413b624490491000192b11
:1001640010d80af04bfa02980af01cf80a9b020015
:10017400009302990b9b159806f0effc1bb0f0bda1
:100184002b23d4e70431ece7934203d810d1089b26
:10019400002b0dd0029c139ba446099a413b624458
:1001a4007e491000192b01d80831dae70c31d8e761
:1001b400002200230898069909f083f90026784f55
:1001c400002400283ed1040002e00134049e059f6f
:1001d4000022744b3000390003f044f8089a069b5f
:1001e4000490059108f0f4fc0028eed00023049359
:1001f40020e06d4b9c4214da049b002b11d10022a9
:100204006a4b0898069903f02df8684b08900691fc
:1002140030003900002203f025f8012306000f0006
:1002240004933000390000225e4b05f0a9f8060063
:100234000f00013c32003b000898069908f0e7fce7
:100244000028d6d113980af088f9c3b20c93002d74
:1002540000da8fe10493672b00d0ade0002d00d1cc
:1002640084e1231d02dbac4200daa1e06523b1e0a6
:10027400002200230e920f93fee006960797049b3c
:100284002600652b00d015e1002613e1129b002bfc
:100294000bd1002e09da029a14992e335354039b7e
:1002a4000137013b039301231293ea193b0094465f
:1002b400302102e0029ad15401339c45fad1039ac9
:1002c400eb19551b029a30305f1cd0546b1e0393fc
:1002d400002521e00d9b14971b691093053bbb423d
:1002e40000d8f0e0069a079b08980e9905f048f8a4
:1002f40005f030fb1090119108f0a8ff092800ddeb
:10030400092010230a9a13400343bfd10c9b672b87
:10031400bcd1002ec9da01358020000684460e992e
:10032400089a61440b001098119900920193069a5f
:10033400079b0af0fbf880231b06cb1808900e934a
:10034400069807990022174b05f01af8013e06900b
:100354000791b4e00a9bdb0600d4b8e02e23029a8e
:10036400d3550137b3e020000a2105f04ffd029b6d
:100374003031013d595520000a2105f0fdfc039b55
:100384000400013b0393b2e0029b03991a5c5b18df
:100394001a540138dbe0c0460000f07f20a50000bd
:1003a4000000f03f00002440d4feffff0000504353
:1003b400002c0eda66230493049b0135662b0ad1c4
:1003c400002c02da002600246d4f0c9b672b00d012
:1003d4002d1966230493089b0e960f971293069b80
:1003e4001093002314930e9a0f9b1298109904f003
:1003f400c7ff05f0affa1690179108f027ff199080
:100404008020000684461099129a61440b001698c5
:100414001799009201930e9a0f9b0af087f8802394
:100424001b06cb18129010930e980f99554b00226f
:1004340004f0a6ff149b0e900f91013314939d4278
:10044400d1d10022504b02f00dff0e900f9102000b
:100454000b001298109908f0dafb002800d007e787
:100464000e9a0f9b1298109909f02bf8002803d0cc
:10047400199bdb0700d4fbe60e9a0f9b089806999c
:1004840002f0caf9002208900e913e4b3000390068
:1004940002f0e8fe089a0e9b0690079108f0f4f922
:1004a400002800d1e9e6049b0134662b00d0e6e67f
:1004b40026000135731b0025099f16931295169b80
:1004c4009e4200d006e7129b002b00d142e7002693
:1004d400029bdb1906931e70049b652b2ad1189b83
:1004e4005d1e029b5e55b44201da64420136002c63
:1004f40000d038e7189beb1a0333002b00dd32e7fa
:100504006a1e2d23002e00d1023b0299023d8b541a
:10051400139b413b192b01d845230493029b591982
:10052400049b0b70039b023b0393af4202da0698d1
:100534000af064f803230a9a1340022b00d012e64f
:10054400039b002b00dc0ee6029809f02bfe099bae
:10055400834200dc18e7029a302194466344180071
:10056400039a09f047ff00230b93fce5012578e685
:10057400062576e60c9b672bfad0049306251be729
:0c0584000000f03f000024400000144084
:020000040000fa
:10059000f0b599b014930b68566809934b681390a3
:1005a0000d938b68cf680c930b693100119313681e
:1005b000002208930898002308f02bfb00280cd198
:1005c000099b5b0732d40820099b0c9d03400593cf
:1005d0000cd02023013d3b7006e080231b06f6185b
:1005e0002d233b700c9b5d1e01230593089a73001d
:1005f0005b08002a1cd1b04a934219d1149baf4c1e
:10060000059a413bb8182100192b00d9211d09f08a
:10061000f7ff201d09f0c8fd099b02000093390077
:100620000c9b139806f09bfa19b0f0bd2b23d8e76a
:10063000a14a934203d812d1089b002b0fd0149be0
:100640009e4c059a413bb8182100192b05d808315a
:1006500009f0d6ff20000c30dce70c31f8e7059bf1
:1006600005995a1c30237b54149b413b0e930e99e1
:100670005823192900d920330599bb540231ab1ee8
:1006800005910793002200230898310008f01bff12
:10069000002800d160e10023894c06930293039463
:1006a0000d9b1093002b01da18231093029b039cdf
:1006b0000a930b9434000023089d129328000a9a91
:1006c0000b9b210004f05efe05f046f90a9a0b9b95
:1006d0001690179102f0c8fd02000b0028002100bf
:1006e00009f02eff774b05000c000a980b990022a9
:1006f00002f0bafd129b0a900b9101330f930d9bf0
:10070000002b07da002200232800210008f0dbfe7e
:10071000002806d1109b129a934200dd22e101339a
:100720000f9300220a980b99674b02f09dfd0a90e7
:100730000b9102000b002800210008f06afa002843
:1007400000d011e10a9a0b9b2800210008f0bbfea3
:10075000002806d01698179908f07afdc30700d430
:1007600002e10a9a0b9b0898310002f057f81291a7
:1007700049000a904908002803d14f4b994200d103
:100780003ce70025059c10950895119b2600053b2c
:10079000a34230d9029a039b0a98129904f0f2fd01
:1007a00005f0daf81490159108f052fd031e00d000
:1007b000dfe0089a002a00d1dbe00135029a039bb2
:1007c0001498159902f050fd02000b000a98129936
:1007d00009f0b6fe00220a9012913a4b0298039952
:1007e00002f042fd089b0290039101330893089a9e
:1007f0000f9b9342c9d1109b002b1ad1002d00d121
:10080000fbe00d9b002b00dcf7e0099bdb0700d52c
:10081000f3e02e2230213b191a702a19ba185970a8
:1008200001339a42fbd12c19ed43079b0134eb189d
:10083000079300263b191e700293119b5d1e069bb9
:100840007e55b34202da5b4206930136069b002bcb
:1008500000d0bbe0119beb1a013300d1b6e06a1e59
:100860002d23002e00d1023bbb540e9a023d502393
:10087000192a00d9203379190b70ac4202da029898
:1008800009f0befe0323099a1340022b11d1079be6
:100890009c1e002c0ddd380009f086fc059b98425b
:1008a00000dba3e0f8182200302109f0a5fd0023a9
:1008b0000c933800aee6c0460000f07f10a50000a3
:1008c0000000f03f0000b03f00002040069b029473
:1008d000039501330693029a039b1000190001f05f
:1008e0009dff04000d0002000b000898310008f085
:1008f00090f90028ead0029a039b0898310008f08a
:1009000088f9002800d1cbe60298039900223f4bda
:1009100002f0aafc0022002308f0d5fd00280fd029
:100920000298039900223a4b02f09efc00220290aa
:100930000391374b0898310002f096fc0e000890a6
:10094000324b02980399002202f08efc069b029023
:100950000391013b0693cee700232e4c06900293b1
:100960000394b8e70f9ba8e6002300240a930b9496
:10097000f7e6109a002a0ad1089a002a07d02e22f8
:10098000ba55079a0134013a0792012210922e19a2
:10099000302201e03a550134b442fbd11800079ae5
:1009a0005730551b092b01dc303318000e9b192bd7
:1009b00006d820230343613b192b01d809f0d6fd4b
:1009c0006b1e741cb85507930025f7e606980a219c
:1009d00005f01efa013d3031795506980a2105f0df
:1009e000cdf9079b0690013b07932fe7079b3a5ce5
:1009f000023bfb181a54013850e7099bdb0600d470
:100a000017e72e233b55013413e7c0460000e03fb3
:080a1000000050430000f03f1c
:020000040000fa
:100a1800f82c00000a2d0000202d0000322d0000c7
:100a28000c2c00001e2c0000342c0000462c00006a
:100a3800442d0000442d0000442d0000442d0000ea
:100a4800442d0000442d0000442d0000442d0000da
:100a5800442d0000442d0000442d0000442d0000ca
:100a6800442d0000442d0000442d0000442d0000ba
:100a7800442d0000442d0000442d0000442d0000aa
:100a8800442d0000442d0000442d0000442d00009a
:100a9800442d0000442d0000442d0000442d00008a
:100aa800442d0000442d0000442d0000442d00007a
:100ab800442d0000442d0000442d0000442d00006a
:100ac800442d0000442d0000442d0000442d00005a
:100ad800442d0000442d0000442d0000442d00004a
:100ae800442d0000442d0000442d0000442d00003a
:100af800442d0000442d0000442d0000442d00002a
:100b0800442d0000442d0000442d0000442d000019
:100b1800442d0000442d0000582c0000442d0000f6
:100b2800442d0000442d0000442d0000442d0000f9
:100b3800442d0000442d0000622c0000702c0000a1
:100b48007e2c0000442d0000882c00009a2c000008
:100b5800ac2c0000442d0000c22c0000cc2c00005e
:100b6800442d0000442d0000b62b0000c22b0000cd
:100b7800d42b0000e22b0000f42b0000442d0000d1
:100b8800442d0000022c0000442d0000442d0000dc
:100b9800442d0000442d0000442d0000442d000089
:100ba800442d0000442d0000442d0000442d000079
:100bb800442d0000442d0000442d0000442d000069
:100bc800442d0000442d0000442d0000442d000059
:040dd800e22c000009
:020000040000fa
:100ddc002c4500201c000000000000001c440020da
:100dec000400000000000000644500200400000026
:100dfc00000000000c460020040000000000000071
:100e0c00204600200e0000000000000029450020b4
:100e1c000200000000000000c04600200800000096
:100e2c00000000002b450020010000000000000025
:100e3c009046002008000000000000002044002024
:100e4c004000000000000000684500201800000071
:100e5c00000000008047002003000000000000009c
:100e6c00c84600200400000000000000834700205a
:100e7c0002000000000000002e46002002000000ce
:100e8c000000000085470020030000000000000067
:100e9c00304600201800000000000000984600209a
:100eac000800000000000000484600200c00000074
:100ebc000000000088470020030000000000000034
:100ecc00cc46002004000000000000008b470020ee
:100edc000600000000000000384300205000000015
:100eec0000000000914700200400000000000000fa
:100efc00d0460020040000000000000048450020ff
:100f0c001c00000000000000d4460020040000007b
:100f1c0000000000544600200c00000000000000ff
:100f2c000c4500201d00000000000000d8460020e9
:100f3c0004000000000000009547002001000000a4
:100f4c0000000000dc46002004000000000000004f
:100f5c007c3e0020c800000000000000402f002054
:100f6c003c0f00000000000060460020180000004c
:100f7c00000000000c400020c00000000000000039
:100f8c00964700200100000000000000e044002013
:100f9c002c000000000000006c410020000100004b
:100fac000000000060440020400000000000000031
:100fbc00a046002008000000000000007846002039
:100fcc000c00000000000000443f0020c80000009e
:100fdc0000000000e04600200400000000000000bb
:100fec00974700200100000000000000844600200c
:100ffc000c00000000000000a04400204000000095
:10100c0000000000cc400020a00000000000000008
:10101c009e470020020000000100000001000000bb
:10102c00d84300204400000000000000e4460020eb
:10103c000800000000000000a84600200800000086
:10104c0000000000ec46002004000000000000003e
:10105c00f04600200800000000000000a04700201f
:10106c000400000001000000aaaaaaaaf846002069
:10107c00040000000000000000000020402f0000d1
:10108c0000000000fc4600201400000000000000de
:10109c00b0460020080000000000000010470020af
:1010ac000c00000000000000d4420020640000008e
:1010bc00000000001c47002014000000000000008d
:1010cc008045002028000000000000003047002070
:1010dc001000000000000000a845002014000000d3
:1010ec000000000040470020040000000000000049
:1010fc00bc450020280000000000000044470020f0
:10110c001000000000000000e44500202800000052
:10111c0000000000544700201800000000000000f0
:10112c00104600201000000000000000984700202e
:10113c0005000000000000006c4200206800000068
:10114c00000000006c4700200400000000000000bc
:10115c00b846002008000000000000007047002086
:10116c000400000000000000884300205000000034
:10117c0000000000744700200c000000000000007c
:10118c000000000000000000666666666666666623
:020000040000fa
:10119c000023f0b506001500b1b007910393079931
:1011ac000b78002b00d10de101235b420c9310abab
:1011bc0000240e9380230b940d940f930b5d002b46
:1011cc0001d0252b2ad1002c06d02200300008f0ab
:1011dc00cdfb079b1b190793079b1a78252a00d078
:1011ec00e5e0013304930793022301219c46102769
:1011fc00079803782b2b1ad025d8202b1ad0232b09
:10120c001dd02a2b28d007f09ffc0d90079b1a7835
:10121c00303a092a31d801330793f7e70134cde787
:10122c000b9b05930b4301300b930790e0e70423d2
:10123c000b9a0fe00b9b0593059a08230ae00b9b76
:10124c0005933b43efe72d2bead0302bd9d16246e7
:10125c000b9b05931343e6e72b6801301a1d1b68a3
:10126c0007902a600d93002b07da0b9a5b420592cc
:10127c00012205990d934a400b920b9bda0702d57c
:10128c00022293430b93079b1a782e2a0ed100222d
:10129c00581c0c9207905a782a2a28d102330793ab
:1012ac002b681a1d1b682a6005930c9307a807f07e
:1012bc00afff079b0700187809f04bf9692800d19c
:1012cc0083e035dc632800d1dde01bdc252800d170
:1012dc00eae0612859d0049b012207930023524273
:1012ec000c920b930d93784900930232e7e007f0d0
:1012fc002bfc0c90079b1a78303a092ad6d801336c
:10130c000793f7e7642860d06728e4dc2a003900eb
:10131c0008a808f0b0f9002800d1b0e0079b0ba991
:10132c005a1c07921b7808aa3000fef7cdfe3de050
:10133c00702800d17de016dc6e2800d198e06f2873
:10134c00c9d12b000022390008a804f0d7f80028d6
:10135c0000d194e0079b08aa01330ba93000079336
:10136c0005f038fe22e0752840d078284fd073283d
:10137c00b1d1802f00d082e0079b2a6801330793fc
:10138c00131d2b601268002389e02a00390008a87d
:10139c0008f071f9002800d171e0079b0ba95a1cc9
:1013ac0007921b7808aa3000fff7ecf82418039b6f
:1013bc001c19a34200dc84e04f22444b1a60012329
:1013cc005b420393039831b0f0bd2b00012239002e
:1013dc0008a804f093f8002851d0079b08aa013301
:1013ec000ba93000079304f00bfbdfe72b00002266
:1013fc00390008a804f082f8002840d0079b08aafe
:10140c0001330ba93000079306f0e1fccee72b006b
:10141c000022390008a804f071f800282fd0079b8f
:10142c005a1c07921b7808aa0ba9300002f0b4fdd5
:10143c00bce72b000022f02108a804f05ff800287c
:10144c001dd0079b099a01330793089b13430dd1b9
:10145c001d4f1637380008f0a1fe390002000b9b17
:10146c0000930d9b300005f074fb9fe77823dae7bf
:10147c00039b39001a1908a82b0005f08fff079b56
:10148c000133079393e7802ff9d1079b013307931f
:10149c002b681a1d1b682a6008aa137001230ba95c
:1014ac00300006f0abfe81e7802fe8d10122079bcc
:1014bc000549013307930b9b049300930d9b1c313f
:1014cc00d0e703946be6c046349e00007c470020b6
:020000040000fa
:1014dc00f8b5050001684b691878bf4ad0701b1825
:1014ec0058782123d0544b69997809025c780c43c5
:1014fc0024b2a7b217801e1ddb781371300003f0e5
:10150c00a1f93b0749d4361807231c40b24b9c70f9
:10151c00032c10d0012c00d003e1af4a2823d35c5c
:10152c00002b00d133e1752b02d928237621d1541d
:10153c00a94bde622be131781a002023d15441e112
:10154c00a54a34230021d15421e1a44c711c022260
:10155c00200008f041fff378a37018e171789e4adf
:10156c002c23d15413e19d4c711c0222200008f055
:10157c0033ffa01cf11c022208f02eff737923719b
:10158c00a01db11d022208f027fffb0400d4fee0d1
:10159c00317a914a3423d154f9e0280007f0fefe49
:1015ac000ce18d4a1d33d35c042b0cd0072b0ad0d5
:1015bc008b4b1b78012b00d1a6e0002b29d0032be1
:1015cc0000d9f8e010e02900864808f0e1f808f0ae
:1015dc0049fcf3e0824b1b78012b00d18ae0002bf5
:1015ec0017d0032b00d9e6e005f00cff7a4b9b7863
:1015fc00012b7bd0032b00d0dde0774a1d33d35c6d
:10160c00032b6dd0082b00d0d5e0280005f01afd77
:10161c00d4e0754b1b78002b34d1744b1b78012b09
:10162c0000d9c8e06c4a9278012a27d0002a0ed043
:10163c00032a00d0bfe0684a2023d35c032b12d0ce
:10164c00082b00d0b7e0280005f0fcfcb6e0684a97
:10165c00927b012a00d0aee0002b00d1abe0002041
:10166c0002f056fea7e0280006f0d6ff5f4b1b7871
:10167c00012b00d0a2e007f0fffd9fe0280002f054
:10168c0017f89be0032b1ad0042b02d0022b00d0ae
:10169c0091e0514b9b78002b00d08ce0544b9b7b02
:1016ac00012b03d0280000f0cdff87e04f4b1b78b7
:1016bc00013b012bf6d8012002f02afef2e7464b43
:1016cc009b78032b77d1444a1d33d35c082b72d102
:1016dc00484b187807f062ff280004f083f86de09f
:1016ec00280006f099ff07f0c7fd67e0280001f01d
:1016fc00dfff63e0384b9b78032b05d0012b5ad1cd
:10170c00280001f0d5ff59e0334a2023d35c022b8b
:10171c0051d1394b187807f041ff280004f0befc7a
:10172c004ce0002c4bd12d4c02223100200008f053
:10173c0053feb278a270072313400322002b00d073
:10174c001a1d501cb35c24492f228b5407242100f2
:10175c0019401f0922003a403b431c4202d0331867
:10176c001d4c2363002902d049004018c0b2002a46
:10177c0002d0d2008018c0b2174a2823d35c83420f
:10178c0000d8dde61b1a34215354361896631b4bd4
:10179c001b78002b00d11de70f4b9b78032b00d13e
:1017ac00ffe60f4a1278012aa8d0002a00d130e7b0
:1017bc00032a00d818e7280007f0f0fdf8bd032c29
:1017cc0000d0eae6044a2023d15c082900d9e4e6db
:1017dc008b000b4ad3589f46204400204c440020d9
:1017ec00804700203c46002085470020864700208b
:1017fc00684500208a470020884700202a450020a1
:04180c00549a0000ea
:020000040000fa
:10181000f0b5de4657464e464546e0b58bb08146ac
:10182000076804ac18223900200008f0dbfd637c57
:101830005a0705d48e4a12788e4909780a4338d15e
:10184000069d079a9046aab20192db0703d504ab26
:101850009b78022b35d0884b049a1a423cd004abbb
:101860005b789a46012b3fd004ab9b789b46012bbb
:101870003ad00e233b7004ab1a7c3a729e7cbc1ba0
:10188000b2345346022b3dd0032b00d194e00536f1
:10189000f6b202a9502002f0b3fc02ab1b8804aae6
:1018a00092889a4200d19ce05246002a4bd0a24630
:1018b00041e004ab1a7c0023e121484608f01afa03
:1018c00019e06e4b9a42c6d104ab1a7c0023e82182
:1018d000484608f00ffa0ee004ab1a7c0023f5210d
:1018e000484608f007fa06e004ab1a7c0023e8211a
:1018f000484608f0fff90bb03cbc90469946a2461a
:10190000ab46f0bda31e9a460736f6b202a9532095
:1019100002f076fc02ab1b8852461370013c1b0a96
:10192000237002a9502002f06bfc02ab1b8804aab2
:10193000928893425ad05246941e0236f6b22370d1
:10194000013a1b0a137000215b46002b55d14c4b0a
:101950005a7c501c5874631e1a7004ab5b7cdb0706
:1019600071d401230b4304aa927c662a02d98022f7
:101970005201134304a94a789203897889020a43e1
:1019800013439bb2e21e1370a21e1b0a137073b2a4
:10199000002b65db043c26707c6108f09bf94b460c
:1019a0007b6001220221380008f00cf800284dd19c
:1019b000344b01221a709ee70b3b9a46a2440d3627
:1019c000f6b202a9f02002f01bfc029b03995246da
:1019d000137008061b0a0343090a0132a242f7d119
:1019e0009fe75246002aaed0a2461a005b46002b63
:1019f00001d113009fe7544640215b46022b19d0ca
:101a0000200008380836f6b203001d704246120660
:101a10002d0a15434246120a904601339c42f4d1e6
:101a2000841e0236f6b204ab9b88237001381b0a71
:101a300003708ce7a01e0236f6b20570013c019bd4
:101a40001b0a2370ece721230b438ce704ab1a7cc1
:101a50000023e121484608f04df907f0e9ff4ae785
:101a600004ab1a7c0023e521484608f043f942e71d
:101a7000804700208547002000ffff00ffff000097
:081a8000684500202a45002002
:020000040000fa
:101a8800f0b5de4657464e464546e0b585b00700f8
:101a98000191904699460eab1e88b42007f076fa5d
:101aa800051e00d1f7e004683800471eb8414042df
:101ab800072398430c3020706560aa330422e2544f
:101ac80002a9532002f098fb02ab1a88931c9bb220
:101ad800012b02d9019b002b2fd02700a93702a97f
:101ae800f02002f089fb029b03993a00b12084465a
:101af800a444137008061b0a0343090a013262450d
:101b0800f7d1664b9b4612239a4602a9502002f051
:101b180073fb4346002b1cd002ab1b88b34218d082
:101b2800ba1e51460231c9b28a461370013f1b0ad8
:101b38003b70170000239c4611e02700af37af2306
:101b4800e254120a0133e254554b9b460c239a4641
:101b5800dbe740235a461a43934601239c464346f3
:101b6800022b12d0032b4ed04e4b1b894e4a934268
:101b780064d080221201594611438b46ba1e904602
:101b88001370013f1b0a3b700ce09b025a461a4334
:101b98009346bb1e98464b461b8842461370013f2e
:101ba8001b0a3b706346002b62d14346023b1e7002
:101bb8004346013b360a1e703a4a537c591c5174fd
:101bc8004246033a13704346053b5a461a70434649
:101bd8001a1f5b461b0a13704346063b52461a708f
:101be800636101220221200007f0e8fe00284dd1a0
:101bf8002e4b01221a70013005b03cbc9046994624
:101c0800a246ab46f0bdc0231b015a461a43934671
:101c180008235b429846b84453460633dbb29a46db
:101c28004b461b684a4651684246137008061b0a11
:101c38000343090a01329742f7d1b3e7c0231b01d6
:101c48005a461a43934608235b429846b84453467b
:101c58000633dbb29a46134a13685068424613703b
:101c680001061b0a0b43000a0132ba42f7d199e771
:101c780002a9502002f0c0fa02ab1b884246023a81
:101c880013704246013a1b0a137095e7280007f0c3
:101c980087fb0020b0e70020aee7c04623c0000065
:101ca8002380000068450020feff00002a45002030
:020000040000fa
:101cb80070b50d007f4b1c78042c00d1e7e04e284e
:101cc80007d059280ad10a787b4b1a7700242000bc
:101cd80070bd0a78784b1a750024f8e7754b5a7866
:101ce8000f2a00d1d5e00b2800d1c6e016d9532819
:101cf8007cd047d84f2868d089245028e7d16e4c2b
:101d08000b880978a1731b0ae373222005f014fbe2
:101d1800e17b232005f010fb0024d8e7022800d13e
:101d280082e00cd9032800d19de0042828d1002c9a
:101d380000d0b4e00c78002cc9d08824c7e700286c
:101d48001cd1002c00d0a6e00b785c49d940c9070b
:101d580000d4a2e0082a00d1a3e0082000f0b0f8df
:101d68000828fad12b78544ad37400221f2108205e
:101d780007f0a2fe162000f0a3f8a8e78924a6e73a
:101d88008924a4e7572840d08924f0289fd10a68dd
:101d98004b68494d2a70110a6970110ca970120e0e
:101da800ea702b711a0a6a711a02120eaa711b0eb6
:101db800eb7124242978200005f0befa013501349e
:101dc800e4b22c2cf6d1002481e70b783a4a5375fb
:101dd800d27e934201d9384b5a75374b5b7d00222e
:101de8000f212f2007f068fe002470e7324c0b8883
:101df800097821731b0a6373202005f09dfa617b23
:101e0800212005f099fa002461e70b782a4ad37655
:101e1800527d9a4201d9284a53750422f0212f2075
:101e280007f04afe002452e70878830612d43f23bd
:101e38000340042b00dd0420802318431e4bd87573
:101e480006f07afa030000220f21052007f034fe7d
:101e580000243ce742421f2313405b425bb211332c
:101e6800eada2f20e8e70b78134a937405226021f9
:101e7800082007f021fe002429e70b780e4a937505
:101e8800032208212e2007f017fe00241fe78624ce
:101e98001de781241be7862419e7882417e7862491
:101ea80015e7054ad37400221f21082007f004fe15
:101eb8000de7c046484500200c45002000f8ff0704
:020000040000fa
:101ec80070b504007c4b5b780f2b07d00338c2b287
:101ed800162a5fd89000794a125897460f286ed074
:101ee800754d00232b7107f0d5fd08236b70082c66
:101ef80000d1dde0032c00d1dce0201fc3b2152b9c
:101f080048d898006e4b1b589f460321022005f0c5
:101f180013fa0f2005f004f910210e2005f00cfa31
:101f2800654c0f236370012008f085f8654b80220b
:101f380052039a61232008f07ef860783fe05e4bf8
:101f48005b78082b26d00821022005f0f5f901203e
:101f580008f071f81ee0082b1cd00321022005f0c0
:101f6800ebf9012008f067f814e0534b5b78082b75
:101f780026d00dd9162b01d0192b0bd10821022000
:101f880005f0daf9012008f056f803f099ff01e0ae
:101f9800062bf3d0012005f0c3f81f231840464b49
:101fa800587063241d001f2809d1012005f0b8f8d6
:101fb8001f2318406870013ce4b2002cf3d170bdb7
:101fc80003f07effe6e73c4b5b78082b06d0092b35
:101fd800e0d00421022005f0aff9dbe703f070ff41
:101fe800d8e7354b5b78092b11d00cd81f24082b68
:101ff800d0d10621022005f09ff907f05fff2040ad
:102008000628f6d1c6e7162b01d0192bc2d1082114
:10201800022005f091f91f240621022005f08cf911
:1020280007f04cff20400628f6d1b3e7224b5b7837
:102038001f24082b16d004d9092b04d0192ba9d199
:1020480001e0062ba6d10821022005f075f91f240e
:102058001621022005f070f907f030ff20401628fd
:10206800f6d197e71621022005f066f907f026ff5a
:1020780020401628f6d18de70f4b5b78082b12d03d
:1020880005d9092b06d0162b00d083e702e0062bd2
:1020980000d07fe70821022005f04ef9192102201f
:1020a80005f04af976e71921022005f045f971e7ac
:1020b800200084e7082082e748450020a458000053
:0820c800005900000044004132
:020000040000fa
:1020d000f0b5c64600b584b001900f00029396009b
:1020e000300001f0f9ff051e00d1bce0542001f0e2
:1020f000f3ff041e5ad005633200a521280008f022
:102100007bf9236b9846002f56d03b783422a3549a
:10211000002b09d0012321003431fa5cca54002a73
:1021200002d00133102bf8d143230022e2540a9d40
:10213000042d00d90425e56265640027a764231dea
:102140000393180008f0b2fa2000183008f0aefa35
:10215000246105235b1ba3616462e7645023e75499
:102160000133e754301f40444a3b9843029a019997
:1021700007f010fe20600b9b002b00d01c6007f0c6
:10218000efff3c4a1368013313603b4b1b68002b85
:1021900016d03a4b1b68002b17d1374b1b68db6af4
:1021a000e26a934211d8344b1c600ee0280005f01f
:1021b00091fd0120404258e034230022e254b6e76a
:1021c0002d4b1c601368012b23d02d4a136801335b
:1021d0001360e36a2b4a1268934201d9294a1360bb
:1021e0009800c0188000284b1818039908f04ff881
:1021f00008f0d0f8214b1b680120002b35d01e4b76
:102200001b68da6ae36a9a422fd207f09dff012029
:102210002be01d4d280008f02ff82800143008f09e
:102220002bf82800283008f027f828003c3008f068
:1022300023f82800503008f01ff8144e300008f042
:102240001bf8134d280008f017f8124808f014f88e
:10225000114808f011f8114808f00ef8104b1e60f4
:10226000104b1d60b1e70120404204b004bc904611
:10227000f0bdc0461c47002010470020404700200a
:10228000284700202c470020d44200208045002011
:1022900094450020a8450020d0450020bc450020e2
:0822a00014470020184700203c
:020000040000fa
:1022a800f0b5c64600b582b0050088460c68694995
:1022b800042007f02df8684b19781a2900d996e000
:1022c800664b1b78023bfd201840654bde7b0b00fc
:1022d80000220192012731e0012e31d1227a042a0d
:1022e8002ed9019b002b01d05b4b1970022d00d118
:1022f800a9e0032d2ed0012d00d07fe0594d28688c
:1023080007f04ef800232b60554bdb7b002b00d0e9
:1023180076e063705449502006f0faff534b186872
:1023280005f0cefe44e06268da40174226d1591c17
:10233800c9b201330197dab21a2a56d80028cbd08d
:10234800032df0d1227a002aedd0019b002b01d079
:10235800414b1970434d286807f022f800232b6081
:10236800237a5a1e93415b42e9229343ea3363700e
:1023780000232372404605f0a3fe19e0019b002bc1
:1023880001d0354b1970012d05d0022d14d1334bd6
:1023980004221a7002e0314b02221a702e490020e2
:1023a80006f0b6ff00280dd102f03afb07f05cfdfd
:1023b80002b004bc9046f0bd032defd1274b032299
:1023c8001a70ebe7274f386806f0eaff00253d60f2
:1023d80007f02afbea23637025724146244807f078
:1023e800d9f91e4b1d708520dee71b4b1970022d95
:1023f80014d0032daed0012d00d17fe7c046d7e71a
:10240800237a042b02d9fa23637083e7002b02d0c6
:10241800002363707ee7ea2363707be7104bdb7b66
:10242800002b08d163701049502006f071ff404618
:1024380005f046febce7237a042b04d8002b05d010
:1024480000236370efe7fa236370ece7ea23637015
:10245800e9e7c0468c4700208b47002085470020cd
:1024680068450020c84600202e460020c0460020af
:0424780048460020b2
:020000040000fa
:10247c00f0b587b00600046804ad2900002001f017
:10248c00b9fe2a78614b1a702900042001f0b2fec3
:10249c002a785f4b1a70207a5e4b187062785e4b0c
:1024ac001a7061685d4b19605d4b657a1d705d4dee
:1024bc002e601b252570a2701b78e37000232372fd
:1024cc002374594b1b78594d2d782b4325d100295a
:1024dc002dd0574b19422ad10e2828d8002a2fd09c
:1024ec0007f0f2fb3468534b0b221a704a4b1b78e3
:1024fc00002b00d17fe0022b2bd9032b00d07ae0ec
:10250c00b42006f041fd4c4b1860002868d0454bb8
:10251c0019680320fff7c2fe07e0e823637031005f
:10252c00464807f035f907f09dfc07b0f0bde823ed
:10253c0063703100414807f02bf907f093fcf4e786
:10254c00e823637031003d4807f022f907f08afc5c
:10255c00ebe76b469d1d01235b422b8002af3900dc
:10256c00502001f047fe3a88354b1a802900502044
:10257c0006f0ccfe284b1b78012b1fd0b42006f0a4
:10258c0003fd284b186000281bd0234b1b78022b13
:10259c0022d0244a13681b681b2119701e49087825
:1025ac0098701f490978d9701c4909685960002135
:1025bc00197219741168fff771feb6e71e4b1e6095
:1025cc00dce7e823637031001c4807f0e1f807f002
:1025dc0029fa07f047fca8e7300006f0dffed8e741
:1025ec00e82363703100154807f0d2f807f01afaa7
:1025fc0007f038fc99e7e823637031000f4807f0c7
:10260c00c7f807f00ffa07f02dfc8ee78347002080
:10261c00844700208d4700208e470020cc460020a8
:10262c008c470020c04600208047002085470020b2
:10263c00ff0700f88b470020c846002048460020c2
:04264c002e460020f6
:020000040000fa
:10265000f0b5de4657464e464546e0b58db005001e
:10266000684b1b78023bfd22134200d171e000232e
:1026700098460024644a177c04ab1f70528a5a8023
:10268000022f00d174e0604b9a69db6906920793d0
:1026900002ab99461900002001f0b2fd04ae4b4692
:1026a0001b7833746946042001f0aafd6b461b7841
:1026b0007374554b9a8d72822e229a5cd2093275b0
:1026c00021229a5c72755b6ab3614e4b1b78023ba8
:1026d000fd22134054d04c4b2f22985c02099046a7
:1026e00034229b5c002b04d1484bdb7b002b00d0b9
:1026f00075e0296817230b70434b9c461b794b7080
:1027000004aa0b000833d0cad0c3d0cad0c350ca61
:1027100050c32f236246d25c073bca54434618433a
:10272000430702d063461b6bcb62374b3422985c65
:10273000043a88549b6b4b632900354807f02ef808
:1027400007f096fb0db03cbc90469946a246ab46be
:10275000f0bd2e4bdb7b012b03d0002398460024d9
:1027600088e72c4b1b681b6898461c00103481e7d7
:10277000002000219860d960234a128b1a8187e7d4
:10278000224ad27b012aa6d14246107a00282dd0b7
:1027900004aa2149049e3140168ab346069eb446d7
:1027a000079eb1461289924608e02289524500d11f
:1027b00091e720340133dbb2834214d0164a2668f5
:1027c00032409142f5d1228a5a45f2d1022fecd003
:1027d000a2686245edd1e2684a45ead17be728006c
:1027e00006f0e2fdaee7042800d974e7202204a930
:1027f000200007f0f7fd43461b7a0133424613726f
:1028000069e7c04685470020204400206845002035
:0c28100048460020c0460020ff00ffffeb
:020000040000fa
:10281c00f0b40125ed070f005f405ad48b4200d174
:10282c00824205d950404240504059404b4059409b
:10283c004e18760ddf187f0d3bd0741c640529d023
:10284c00f41b352c26d80e0ddb022b43db0ac902f8
:10285c002943c9121700202c1ed2e741e2405740f1
:10286c00e3415a40a340e3405a40002480185941a8
:10287c000ad3b21c520521d0c207012f62411700a6
:10288c004008cb0718434908013636054208af41ca
:10289c0060417141f0bc7047203c06d01f00e741fd
:1028ac00e3405f400024012a6741c0186141ebd32b
:1028bc00dfe7002eeed129400020ebe70136310591
:1028cc000020e7e7e742e5d10020c143090dc90428
:1028dc00e0e76b400e00871a9e4104d26e40c01b8d
:1028ec00b141d21973414e18df18ac0ae642e9d255
:1028fc00760d7f0d31d0f41b362ccbd8b4460e0d93
:10290c00db022b43db0ac9022943c90a012c32d84a
:10291c0004d1d4075208df073a435b08ef0a64423c
:10292c00904199411ed0002239424dd12419404189
:10293c0049410124394204d101340018494139423a
:10294c00fad06246a24204d9361b013e36058919db
:10295c00a0e7f10ac90700209ce736429ad1002073
:10296c00002197e70200224394d0b842ded2010046
:10297c0020002024e3d1202c13dd203ce241170061
:10298c00a240e2405740e3415a40a340e3405a4042
:10299c00012fbf410137174300227c4298419141de
:1029ac000ce01700e741e2405740e3415a40a34096
:1029bc00e3405a407c429041994100220f0303d2dc
:1029cc00013e241940414941013e36054708ac41be
:0829dc0050417141f0bc70474d
:020000040000fa
:1029e40070b586b004000e00150050282fd84e286c
:1029f40000d379e0432800d176e00dd94a2863d08a
:102a04001ad94b2800d166e0f4244c284ad10a781c
:102a1400604b5a74002445e0042807d9f424422862
:102a240040d10a785b4bda7300243be002285bd286
:102a3400002859d0f42435e0442804d10a78554bb1
:102a44001a7400242ee047284ed0f4242ae0572894
:102a54004ad009d9592847d031d35a281fd10a88d6
:102a64004c4b9a8100241de0542810d853283bd2a3
:102a7400f424522816d10b78464a9374002b2fd095
:102a840007f026f9012005f0cbf800240ae0f4242d
:102a9400562807d10a783f4b9a73002402e0f028a5
:102aa40022d0f424002d07d03b4b1b78002b03d0fd
:102ab400384b9b7c002b65d0200006b070bd0a8883
:102ac400344b5a810024ede708684968314b18609b
:102ad40059600024e6e70a882e4b1a810024e1e7b6
:102ae40006f0a4ff0024dde731002000fff7e2f840
:102af400812839d000240028d4d16946572001f018
:102b04007dfb02ae31004f2001f078fb04ac2100c4
:102b14004e2001f073fb6b4618783178247822003c
:102b2400431aa34200dadcb201238340013b121ba7
:102b340053439bb2174a5381002c0cd00022012628
:102b4400300088401b189bb20132d2b2013194424a
:102b5400f6d1104a53810f4a538914214b430b3346
:102b6400ff33538100249de706f0dafd3100200095
:102b7400fff7a0f80024002800d093e7064b0122b9
:102b84001a70bae7002005f08ffd034b00221a707b
:0c2b940092e7c04668450020294500205b
:020000040000fa
:102ba00030b583b004000d00f02800d9cae08300de
:102bb000654ad3589f46654b9b7b0b70002003b042
:102bc00030bd6946572001f01bfb6b461b782b700c
:102bd0000020f4e702225e49280007f003fc0020f1
:102be000ede76946592001f00bfb6b461b782b7013
:102bf0000020e4e702225749280007f0f3fb0020f9
:102c0000dde7524bdb7c0b700020d8e769460420df
:102c100001f0f6fa6b461b782b700020cfe769466f
:102c2000052001f0edfa02226946280007f0dafbe0
:102c30000020c4e76946062001f0e2fa6b461b78e3
:102c40002b700020bbe76946072001f0d9fa6b46dc
:102c50001b782b700020b2e73c4bdb7b0b70002015
:102c6000ade708223949280007f0bcfb0020a6e7a1
:102c700002223949280007f0b5fb00209fe7334bbb
:102c80005b7c0b7000209ae769464e2001f0b8fa91
:102c90006b461b782b70002091e769464f2001f0ae
:102ca000affa6b461b782b70002088e769465020ee
:102cb00001f0a6fa02226946280007f093fb0020e3
:102cc0007de7224b9b7c0b70002078e76946532000
:102cd00001f096fa02226946280007f083fb0020e3
:102ce0006de76946f02001f08bfa0822694628005a
:102cf00007f078fb002062e76946002001f080fac7
:102d00006b461b782b70200059e76946012001f0c3
:102d100077fa04226946280007f064fb00204ee79a
:102d20006946022001f06cfa6b461b782b7000207c
:102d300045e76946032001f063fa6b461b782b7068
:102d400000203ce7f4203ae7180a0000684500201c
:0c2d5000724500207445002070450020f2
:020000040000fa
:102d5c0030b583b004005c4b00221a70872822d057
:102d6c0009d98c2821d08d3c63425c4164425c23a0
:102d7c001c40853402e0002800d08524534b1b787e
:102d8c00022b14d0032b04d1514b1b681b78062b40
:102d9c0012d04f4b1d682b780e2b00d990e09b0066
:102dac004c4ad3589f46fd24e8e7e924e6e7484b14
:102dbc001b681b78072becd1200003f009fa03b039
:102dcc0030bd2b692a7a6868210006f08dff06f069
:102ddc0029fef4e76868210004f0ceff3e4b1b7817
:102dec00012b02d006f01efee9e706f045faf9e7e2
:102dfc00f7232340e12b07d16868384a210006f0fd
:102e0c0043ff06f00ffedae7354b01221a70354b03
:102e1c0099890901344b1878002301930093334ba3
:102e2c00002203f0dffc0028c9d0002004f080fb56
:102e3c00c5e7686806f0b2fa294b1b78012bbed0a7
:102e4c002b78042b1bd0f7231c40e12c2cd0244bcb
:102e5c0003221a70234b59890901234b187800233c
:102e6c0001930093224b002203f0bcfc164b012271
:102e7c001a700028a3d0002006f078fa9fe7fd2cea
:102e8c0003d1174b02221a70e4e71a4b1a68126826
:102e9c002321117054701968174806f079fc06f05c
:102eac00c1fd06f0dfff8ae706f0bcfd87e7686826
:102ebc0006f074faee2002f0fdfd06f0b3fd7ee79d
:102ecc0006f0b0fd7be7c0462a4500208547002070
:102edc00c4460020508c000086470020ffff0000f5
:102eec008047002068450020884700203d75000081
:0c2efc0079930000c046002048460020ea
:020000040000fa
:102f0800f0b5ce46474680b587b0604b984603accf
:102f18005f4f43461b681d68002d25d0db681d6880
:102f280007f0e2fa200002f077fe0600039a002a72
:102f380063d1a84226d301f05bfe544b1b68db68c3
:102f4800db689946181d06f000fd24234a46d35c29
:102f58005a073dd401229343233249468b544b46aa
:102f68001b6a4846984716e007f0befa200002f0b0
:102f780053fe0600039b002b3fd1464b1b681a6883
:102f880053425a41a91b424b186805f011f901f048
:102f98002ffe00282ed0260000223100386801f0cc
:102fa800d7fb0028b5d02368002bf5dba5686b6933
:102fb800002b02d0281d06f0c8fc02a802f02cfe47
:102fc8002368092be8d833689b00334ad3589f46b7
:102fd8004b469b69e9182b003200484605f0d6faa3
:102fe8000028bcd0002300932a000021484604f0a2
:102ff80099feb4e707f0a4f8cde701f0f9fdcae7b8
:103008002422ab5c01210b43ab546368aa69944644
:103018006344190063680200280005f0b7fa002825
:10302800bad028002b6a98472423eb5c5b07b3d5fa
:103038006368a9698c4663441a0000230093002141
:10304800280004f06ffea7e72422ab5c01218b4324
:10305800ab54a1e72422ab5c01210b43ab5461685c
:10306800a961411803000200280005f08ffa93e7d0
:103078002423eb5c9a0704d5012293432332ab54f3
:103088008ae7280004f022fe86e7c0464c47002065
:0c3098005847002050470020dc98000042
:020000040000fa
:1030a400f0b5c64600b588b0050002ac1822016828
:1030b400200007f095f9574b1d60e3789a1e012a0a
:1030c4007dd8022b00d180e0534b0499059a1960f6
:1030d4005a60022252421a8103a9502006f01af9ba
:1030e40006f0f6fd2c68012323706560b022a3541a
:1030f40002ab1a7cb123e2546946f02001f07ef859
:10310400009b01992200a8322600b03613700806ed
:103114001b0a0343090a0132b242f7d1ff23a62254
:10312400a3540132a35402abdb78022b52d0260005
:103134009e36394a1368516832002700a637137047
:1031440008061b0a0343090a0132ba42f7d1334b7a
:1031540098461b276946502001f050f86b461b889f
:10316400b21e1370721e1b0a13702b4a537c591c17
:103174005174f21e1370731f23221a70321f4346b8
:103184001b0a1370063e377066610a2169440420e5
:1031940006f0c0f8060009216944002006f0baf8d8
:1031a4000643f6b2002e2ad101220221200006f0a5
:1031b40007fc00281bd11a4b01221a7026e0194a79
:1031c400e821280006f064fd20e002ab1a89124bc6
:1031d4001a8181e72600a4360f4b1b89033aa354b6
:1031e4001b0a0132a354104b98461527b2e70d4a27
:1031f400e121280006f04cfd06f018fc06e0094a1f
:10320400e121280006f044fd06f010fc08b004bcdf
:103214009046f0bdc04600206845002023cc000045
:0c3224002a450020ffff000023c8000026
:020000040000fa
:1032300008d1002806d1f54204d801d3002a01d1d3
:103240006d0d09d10020c143090dc904f0bdf9d1ac
:103250001242f7d1640df5d00020c1434905490859
:10326000a6e000206146f0bdf0b50127ff070e0083
:103270005e403e40b446be0a4c18dd18f442d7d238
:10328000f542e4d2640decd06d0dead06419c902a8
:103290003943460dc0023143db023b43db0a10b425
:1032a0008e4685b297b26f43140c6c433e0ca41942
:1032b000260c2404bfb227439cb26c43a419190cfa
:1032c0006943250ca4b249190d04090c6419000cba
:1032d00095b245433e0c76193743bfb2360c150cf8
:1032e0004543ad19a6b2240cad192e0437432e0c5c
:1032f00036199db24543ad19acb22e0c89191d0c7f
:1033000045436d182e04290c3443704680b295b2a3
:1033100045433e0c76193743bfb2360c150c454376
:10332000ad19a6b2ad19240c2e0437432e0c361954
:103330009db24543ad19acb22e0c89191d0c454305
:103340006d182e043443290c75462d0c90b2684339
:103350003e0c80190604bfb23e43070ca0b23f18d2
:10336000120c6a43d019020c80b2240ca4189ab231
:103370006a43121914042043120c89181b0c6b4366
:10338000c91810bc01273d05294203d1b619404197
:103390004941013cff077d0d013d641b0bdb6d00c6
:1033a000ac4209da240500254208be41684161416a
:0a33b00066463143f0bd54e74ee7d6
:020000040000fa
:0233ba0070475a
:020000040000fa
:1033bc000a506f6c6c20636f6f7264696e61746f0e
:1033cc00720d0a004461746120666f722046464497
:1033dc000a0000000d0a2053656375726974792028
:1033ec00546f6f6c20426f78204f6e2053414c20ed
:1033fc003a2044697361626c656400000d0a204dcb
:10340c0041432044617461202620536563757269c1
:10341c007479204d6f64756c65203a204469736132
:10342c00626c6564000000000d0a20486967682022
:10343c0044617461205261746520537570706f72b1
:10344c0074203a2044697361626c6564000000006a
:10345c004d696c6c695f54696d6572000a4d41432e
:10346c00205246442044656d6f204170706c696336
:10347c006174696f6e0d0a0a000000000d0a536535
:10348c0061726368696e67206e6574776f726b200a
:10349c00696e204368616e6e656c202d2025640d6d
:1034ac000a000000466f756e64206e6574776f724b
:1034bc006b0d0a00436f6e6e656374656420746fe8
:1034cc00206e6f20626561636f6e206e6574776f1e
:1034dc00726b0d0a00000000416464726573732006
:1034ec0041737369676e6564202d203078253478bc
:1034fc000d0a00000a4173736f63696174696f6e22
:10350c0020756e7375636365737366756c0a000062
:10351c00527820626561636f6e207061796c6f61a7
:10352c00642028256c75293a2000000025630000d2
:08353c000a0000000a0a000069
:020000040000fa
:1035440070b50500594c207fc0b2002800d0a7e018
:1035540000294ad0002d48d0554c666807243440d1
:10356400012c5ed0514805604260002444618461ae
:1035740004614e488160002a58d04c4ad3604b4abb
:10358400012111774a4a127e520705d5484a042080
:10359400916a117e0142fbd1454a518b04200143bb
:1035a4005183117e80200143117640498a68c9689d
:1035b400914203d93d48c168891a01613c4949686f
:1035c400490743d139498969914233d2374a11684d
:1035d400087837498862916901319161002b5ad08a
:1035e400334b04229a7501205be0002b59d0002a4a
:1035f40057d02f4c666807243440012c0cd02b483c
:10360400056042600024446184610461002db0d1ee
:10361400264900208860aee7002943d1dc07eed5b7
:103624003fe0cc073dd4002be9d0f7e71f4a002147
:10363400d160a4e71d4a1269002acfd01c4aff2199
:1036440091621a490a69013a0a61c7e7174a9168ff
:1036540049089160116949081161d1684908d1602c
:10366400916892698a420ad210490a681288d2057e
:10367400d20d0f4882628a6901328a61aee70b4a31
:103684001269002aaad00a4a0a49916207490a69ba
:10369400013a0a61a2e7064b01229a75012000e073
:1036a400002070bdcc07b9d5fbe7c046e04400203c
:0836b40000180042ff010000b4
:020000040000fa
:1036bc0070b584b0514a2823d35c002b4fd00368db
:1036cc004e4a117921241955546a5c62167c5e703d
:1036dc00528a5a80b21e012a49d900225a800024eb
:1036ec0000259c60dd60464a12788a4251d0444adb
:1036fc001170444a9c68dd68146055603f494a79f2
:10370c001a74002400259c61dd61c9885982032a42
:10371c004bd0022a4fd000225a82384a2121545cc5
:10372c0001395c540831545c5c54d26ada6211225f
:10373c001a700100344806f02bf8304b1b88db065e
:10374c0059d52e4b1b7c022b3bd0032b45d0002391
:10375c000093002200210020fef790f903e005f011
:10376c001dfe06f05ff906f07dfb04b070bd002471
:10377c0000259c60dd60022e05d0204a9469d56935
:10378c009c60dd60afe71d4a128b9a600022da6004
:10379c00a9e71c4a9c681568ac42a8d15268dc6841
:1037ac009442a4d105f0fafdc7e7144a9168d26897
:1037bc009961da61b1e7114a12899a610022da61e2
:1037cc00abe702ab0d4a118b1980528a0092022290
:1037dc0000210020fef752f9c5e7084b9969da6918
:1037ec00029103925b8a009302ab0322002100201a
:1037fc00fef744f9b7e706f015f9b4e720440020ca
:0c380c002b45002090460020484600207c
:020000040000fa
:10381800f8b504f025ff002800d08fe04c4c98251f
:1038280080231b066351802636026651db0a6361da
:10383800a530400006f0fffb9423e6500a2006f06e
:10384800fafb66510a24642006f0f5fb1c2003f0fd
:1038580067fc0b2805d0013ce4b2002cf3d1852786
:103868006de00821093803f067fd642006f0e3fbea
:1038780000221f21012006f0d8fd0a2408280cd0b8
:10388800642006f0d8fb00221f21012006f0cdfda0
:10389800013ce4b2002cf1d1e1e72e4b08225a702a
:1038a8002d4806f0fdfa00284bd1012002f0d2fe87
:1038b800071e4ad1294d08e0284c2600083606f094
:1038c80063fc20700134a642f9d12878697809028e
:1038d8000843a97809040143e87800060843020070
:1038e8002879697909020843a97909040143e87923
:1038f80000060843030001204042c11712184b413b
:10390800591c01d1d31cd7d800221549002005f035
:1039180069ff002006f0d0fd02f022fbb42005f07c
:1039280035fb104b186000280dd0ff210e4806f01b
:1039380026fe084b822252045a6100e0852738008f
:10394800f8bd8527fbe78527f9e78527f7e7c04610
:103958000044004148450020914700200c450020c4
:0c3968000da60000d846002054460020a8
:020000040000fa
:1039740070b5504b586a504b9b7d002b54d04e4928
:103984004c68072214404b4b5a699d699e680b7e14
:103994005b0757d5896a474bdb68934252d9002ca1
:1039a40043d1444b5b6899540132434b1b7edb0784
:1039b40016d5414b012119753e4b9b68ab4256d934
:1039c4003c4b1b68595d3c4b99620135394b1b6973
:1039d400002b01d1b54262d0364bdb68934262d0f2
:1039e400344b5a619d61344b1b7e9b0715d5334b79
:1039f4001b78002b18d02f4bdb68934211d12d4b31
:103a040000221a772c4907240c752c490a701b6a6a
:103a1400002b09d0274b1b6a9847284b1b78002b97
:103a240002d0254b02229a7570bd224b5b6854006c
:103a3400e1520132204b1b7edb07d1d51e4b012105
:103a4400197508e01c4b1b7edb07c9d51a4b0121f5
:103a54001975002cb0d0174b9b68ab4213d9154b8a
:103a64001b686900c95a144b99620135aee7114bc2
:103a74001b69002baad0104bff2199620d490b69d9
:103a8400013b0b61a2e70b4b1b69002b9ed00a4b39
:103a94000b49996207490b69013b0b6196e7074b98
:103aa400012119709ce7044b0121997503311975a3
:103ab40096e7c046e04400200018004296470020e4
:043ac400ffff000000
:020000040000fa
:103ac800f0b5c64600b58ab00500046804af1822f0
:103ad8002100380006f082fc02ae3100502000f0d0
:103ae8008bfb7b8832889a420bd004aa527806a9ad
:103af8000091e821280004f009ff0ab004bc9046b0
:103b0800f0bd656003232370b022a35404ab1a7c74
:103b1800b123e25402a9f02000f06efb029b039946
:103b28002200a8322600b036137008061b0a034389
:103b3800090a0132b242f7d104ab5b78022b3ed0be
:103b48002600a036069b079932002700a837137075
:103b580008061b0a0343090a01329742f7d11927bd
:103b680002ab98461900502000f046fb43461b88dc
:103b7800b21e1370721e1b0a13701d4a537c591c07
:103b88005174f21e137004ab5b789b029bb2721fd8
:103b980063211170321f1b0ac0210b431370063eac
:103ba8003770666106f092f801220221286805f054
:103bb80005ff00280fd10f4b01221a709de7260040
:103bc800a636a433069ae254069b9bb21b0aa72288
:103bd800a3541327c4e704aa5388527806a900916e
:103be800e121280004f092fe05f01eff85e7c0469b
:083bf800684500202a45002069
:020000040000fa
:103c0000f0b5ce4600b584b00400009101921f00cb
:103c10000025442640e0a66b3a000099200003f0fe
:103c200017f8a36c002b11d0022f00d180e02000e8
:103c300004f012fb002806d106f0acfb012004b012
:103c400004bc9146f0bd06f07ffaf5e7636a002bed
:103c500004d10028f0d006f077faede720002430f8
:103c600002f0baff0028e7d006f06efae4e706f0ab
:103c700091fb0020e3e702a806f07efa19e000239a
:103c8000a35520e045230022e25421e0200002f069
:103c900059fa00f0b1ff012506f062faa36be26b5e
:103ca0009342b8d3022f3ad0019b002bdfd0002dd6
:103cb000e1d006f06ffb06f01bfc06f051faa35da5
:103cc0005bb20133dbd04523e35c5bb20133d9d077
:103cd00006f060fb01a902a803f030f8002817d114
:103ce00006f03efaa36b9946e56b06f053fba94537
:103cf000ccd120001030019906f038f9200002f0f4
:103d000021fa00f079ff0028c5d106f01dfac2e7bc
:103d1000200002f017fa00f06fff00208fe7a66b7b
:103d200002220099200002f093ffa36c002b8dd09b
:083d3000002e00d080e77ae7c5
:020000040000fa
:103d3800f0b585b0040001910023009300254426c6
:103d4800002743e0013ba3632368002b09d02369c4
:103d5800002b0ad106f01afb01230093009805b046
:103d6800f0bd06f00df9a060f1e72000103002f078
:103d78002fff0028eed006f0e3f9ebe706f006fb8c
:103d880000230093eae702a806f0f2f928e0a75515
:103d980030e04523e75432e006f0def9a06802f08f
:103da80085fb009006f0f2fa39e0200002f0c6f92f
:103db80000f01eff09e0200002f0c0f900f018ff33
:103dc800200006f0edfa002838d1012506f0c4f9e4
:103dd800a36b002bb6d1019b002bcfd0002dd2d0e6
:103de80006f0d4fa06f080fb06f0b6f9a35d5bb2e4
:103df8000133ccd04523e35c5bb20133c9d006f074
:103e0800c5fa01a902a802f095ff0028d3d1200025
:103e180006f0c6fa0028c8d02368002bbcd02000c2
:103e28002430019906f09ef8200002f087f900f08e
:103e3800dffe0028c9d106f083f9c6e7009b002bf6
:103e480000d18be706f088f9616a002903d0236b5b
:103e58001b680521c91aa06803f0cef906f096fa86
:063e6800002300937ae73d
:020000040000fa
:023e6e0070479b
:020000040000fa
:103e7000f0b5c64600b582b03f4b1b68002b00d0a2
:103e800071e03e4b1a68013290461a60002a20d039
:103e90003b4b1b68434529d900230193394b1b68d1
:103ea000da6a93009b189b00374a9b58012b01d973
:103eb00001230193354b1b68002b51d0344b1b68f9
:103ec000002b01d001230193019802b004bc90465d
:103ed000f0bd304a1168304b1868106019602f4ae5
:103ee00013680133136005f08bfbd1e700230193c6
:103ef000284e370017e0224b012252421a60cde7cc
:103f00001f4a1360cae79800c01880001e4b18189b
:103f1000290006f0bcf91b4b1b68e26adb6a9a4277
:103f200001d30123019333681b68002be3d03b6866
:103f3000db68dc6863689845e2d3251d280005f03e
:103f400008fda36a002b03d02000183005f001fd06
:103f5000e36a134a12689342d5d9114a1360d2e733
:103f600002f0a1f8aae7094a13680133136002f0ce
:103f70009af800230193a7e7244700204447002034
:103f80003447002010470020d44200203c47002046
:103f900048470020144700201847002038470020d9
:043fa0002c4700208a
:020000040000fa
:103fa400f0b58fb00d934b680c9006938b680d00a1
:103fb4000793cb6816000393069b0f68002b44db22
:103fc40002239f4310233b400a93079b04930a9bbd
:103fd400002b07d0726833681343079a02d013008a
:103fe400023b049308233b400b935a1e9341049acb
:103ff400d31a04933368039a0893736809932b695b
:104004005c1e00231355069b0593012c20dc0a9ba0
:10401400002b51d10b9b002b03d02023039a013c8e
:1040240013552b6900975a1e039b121b19190c98e0
:10403400079b02f092fd0c9b5b68db0503d56b6864
:10404400984200da18000fb0f0bd01230693b9e7d7
:10405400089b099a13430bd1059b002b08dc069a95
:10406400049b9b1a059a9b18002bd0ddbb07ced569
:104074000f23089a013c134018005730092b01dc28
:10408400303318000d9b413b192b06d820230343e2
:10409400613b192b01d806f067fa039b1855059b61
:1040a400013b0593099b1a07089b1b091a43099bab
:1040b40008921b090993a8e70cce1343aad0039bcb
:1040c4000d9a1b19013b1a703023039a023c1355b5
:0240d400a0e763
:020000040000fa
:0240d600704731
:020000040000fa
:1040d800f8b5040006f008fa404b1b68002b15d011
:1040e8003f4b1e68344238d1002c3dd022000832a4
:1040f800530702d007239a430832002a34d0394b99
:104108001f68974233d338490c6835e0374a53075c
:1041180020d0d11d07239943bd239b019c466244af
:10412800531a0a003048026000214160d318083b46
:10413800072083432948036059601960991a516020
:1041480013602b4b1960274b1960254b80221206f0
:104158001a60c5e7bd239b01e4e700f049fd06f0be
:10416800a6fa00252800f8bd00f042fdf7e700f0a8
:104178003ffdf4e721001c006368934202d22368e4
:10418800002bf7d1154b1b68a3421ed00d680835cc
:1041980023680b6063689b1a102b19d86368ff1a91
:1041a800104a1760124a1268974201d2104a1760e3
:1041b8001e436660002323600e4a136801331360b0
:1041c80000f016fd002dcdd1c9e700f011fdc6e7be
:1041d800a0184360626003f0f9fedfe7f8460020ac
:1041e800fc46002000470020b046002000000020c8
:0841f8000447002008470020e5
:020000040000fa
:1042000010b50b00072800d171e012d9502846d014
:1042100021d9572800d174e029d9592800d175e057
:10422000f02830d108223c49180006f0dbf80020c5
:104230001ce003284ed006d8012838d045d8364a8d
:10424000d27c0a7012e0052849d055d8324a127e35
:104250000a7000200ae04e2817d01bd80b2804d182
:104260002d4a927d0a70002000e0892010bd53285d
:1042700007d12949087b4a7b120202431a80002099
:10428000f4e78920f2e78920f0e7234a127d0a70db
:104290000020ebe7204a527d0a700020e6e71e4925
:1042a000887bca7b120202431a800020dee71a488c
:1042b000027a417a09021143827a12041143c27ac6
:1042c00012060a431a600020d0e7134ad27d0a7012
:1042d0000020cbe7104a927c0a700020c6e70e4906
:1042e000087c4a7c120202431a800020bee70a4a78
:1042f000927e0a700020b9e7074a527e0a700020b9
:10430000b4e7054ad27e0a700020afe7024a127f66
:0c4310000a700020aae7c0460c450020ff
:020000040000fa
:10431c0070b584b00400404b9b8d5b0401d404b099
:10432c0070bd02a95020fff765ff002c05d13a4b58
:10433c005a8a02ab1b889a4205d0374b5a8a374ba4
:10434c001b889a42ebd1344b1a8b354b1b899a4202
:10435c00e5d0314a324b91691868814203d1d26958
:10436c005b689a42dbd0b42004f00efe051ed6d05a
:10437c000468052323706060b122a3546946f020c1
:10438c00fff738ff009b01992200a9322600b136b5
:10439c00137008061b0a0343090a0132b242f7d113
:1043ac001f4a136851682200a1322600a9361370e7
:1043bc0008061b0a0343090a0132b242f7d16946c7
:1043cc005020fff717ff6b461b889f22a3541b0a34
:1043dc000132a354124a537c591c51749e22a3548b
:1043ec009c233b3ae25401336932e254023bb43a27
:1043fc00e25423009b336361173a0221200005f03d
:10440c00dbfa002803d1074b01221a7087e728003a
:10441c0004f0c4ff83e7c046204400202e46002051
:08442c00684500202a4500202c
:020000040000fa
:1044340010b52b4b06225a6002f0f0fc01f0f0fca0
:1044440006f0a6f802f04cf904f078fc02f00afb3e
:1044540004f0befa2349002000f06cfe224c2060d8
:10446400224b234a1a60234a5a60234a9a60234af9
:10447400da60234a1a61234a5a61234a9a61234a19
:10448400da61234a1a62234a5a62234a9a62234a05
:10449400da62234a1a63234a5a63234a9a63234af1
:1044a400da63234a1a64002314220121214803f009
:1044b400d9fa0023142201211f4803f0d3fa1f491b
:1044c400002002f0e3fc606005f06afd02f06efc7f
:1044d40002f06cfcfff79ef905f000ff10bdc0462a
:1044e4000040004160a60000a8460020d8430020f8
:1044f400db9f000089a00000697a00002d9b00006a
:10450400a1a000001991000057a4000071a00000b0
:10451400e59a0000e5900000099b000045a4000016
:10452400f5a2000009a300004da2000029a6000086
:1045340031a60000e4460020e8460020b8a50000ab
:020000040000fa
:10454400f0b591b0411c18220aa805f049ff394b77
:104554001b78032b01d011b0f0bd0aab1e7c682e72
:104564002ad9354c68220f99200005f039ff334ac7
:1045740013780133dbb213700122019200932300fc
:1045840067322f49022001f003ff03a92d4b60334a
:104594000a0031cb31c231cb31c21b8813802a4b84
:1045a4001a6801321a60002002f0a8fc6826224a28
:1045b40067230021d1542be01f4c32000f992000b7
:1045c40005f00eff1d4a13780133dbb2137001228c
:1045d40001920093230032001949022001f0d8fe11
:1045e40003a9184b60330a0031cb31c231cb31c23d
:1045f4001b881380144b1a6801321a60002002f0e1
:104604007dfc682ed3d00c4b00229a55002e0cd082
:104614000024094f0b4d7c35e25d2900002002f097
:104624006dfc0134e3b2b342f6d30849002004f030
:104634008bfd90e79b4700206c4200209c470020a4
:1046440010460020bc3400006c4700203c350000bc
:020000040000fa
:10465400f0b5de4657464e464546e0b583b0804643
:1046640000296ed00024384f0726384b9c469b46c1
:104674009946009108e03648415549468a60621cd3
:104684000134009991424cd97a683240012a16d0fb
:104694009d68da6892466a1c19698a4289410a400f
:1046a40092453fd04146095d786830400128e2d107
:1046b4006d0027484155013500214155dde762462b
:1046c4009568d26892466a1c614609698a428941a2
:1046d4000a40924526d0610001204044405c00021b
:1046e40082464046415c504601430191786830401f
:1046f400012809d0694609798a4615495046485522
:1047040059468a60621cbbe7690068460079104d0f
:10471400aa4668540d0001350199090a50464155cd
:10472400eee7140005f0dafb002802d0064b012264
:104734009a75200003b03cbc90469946a246ab460d
:10474400f0bd0c00eee7c0460008004260440020c3
:04475400ec41002014
:020000040000fa
:10475800f0b5c64600b584b0040000910192002768
:1047680044260023984638e00099200005f046fad0
:104778006b1ea3632369002b06d105f007fe0120f9
:1047880004b004bc9046f0bd2000103002f020fabe
:104798000028f2d005f0d4fcefe705f0f7fd002083
:1047a800eee702a805f0e4fc21e04346a35528e023
:1047b80045234246e25429e0200001f0bffc00f006
:1047c80017fa09e0200001f0b9fc00f011fa200006
:1047d80005f0e6fd002835d1012705f0bdfca56be5
:1047e800002dc1d1019b002bd7d0002fd9d005f0c7
:1047f800cdfd05f079fe05f0affca35d5bb201339a
:10480800d3d04523e35c5bb20133d1d005f0befdc4
:1048180001a902a802f08efa0028d3d1200005f0e1
:10482800bffd0028c8d020002430019905f09afb6c
:10483800200001f083fc00f0dbf90028ccd105f062
:084848007ffcc9e700209be79b
:020000040000fa
:10485000f0b583b00200384b1b889c469e0b1b05ad
:104860009b0f181e0cd0507800021178014332487b
:10487000c180022b20d0911c032b2ad00a000220d9
:10488000002e0fd06146490634d4547824021178a2
:10489000214302320230c0b2274c6182022e2cd05a
:1048a000032e37d02449ca78053a121a28240a550b
:1048b0000e744b7103b0f0bd050000200021a8600c
:1048c000e960d07800029178014329810432042004
:1048d000d6e7684617000a370d78057001310130b8
:1048e000b942f9d11449009c019d8c60cd600a3217
:1048f0000a20c5e71049c988cee727000024002513
:10490000bc61fd615178090212780a433a83023092
:10491000c0b2c7e711006c4608320d78257001312e
:1049200001348a42f9d1044a009c019d9461d56109
:0c4930000830c0b2b6e7c04620440020aa
:020000040000fa
:10493c00f0b5d6464f464646c0b50426344da8467b
:10494c00a946334b9a465be04a46126a002a42d08b
:10495c00796a3b6a01209847bb6a01333a6b9342f0
:10496c009241134037e05246926a5200e0b2294914
:10497c0088540132240a8c543ce005f0b9fa244bdb
:10498c001b6a002bddd0224b596a3c23204ad35c96
:10499c00002b06d0936b9842d3d3136a0020984710
:1049ac00cfe71b4b9b6b9842cbd1194b1b6a00205a
:1049bc009847c6e7184b1b7e334223d0164b1c8df1
:1049cc00a4b2ab6a01332a6b934292411340424624
:1049dc00d26a9a42b8d00e4ad26a9a42ead00e4aa9
:1049ec00516807220a40012abdd0094a926ae4b2f2
:1049fc0008498c54064a93623423d35c002bbcd1f7
:104a0c00034fd7e71cbc90469946a246f0bdc04662
:0c4a1c00604400206c41002000080042b3
:020000040000fa
:104a280000b585b0324b1b78032b4dd0042b18d022
:104a3800022b02d0c04605b000bd002804d02d4a84
:104a4800137801331370f6e7013000f073fe002885
:104a5800f1d10f306844284b1b78037003f096ffa0
:104a6800e9e7002804d0234a137801331370e2e7fa
:104a7800013003f0d3f8162809d01e4a1378013301
:104a880013701e4b19680220fdf70afcd3e71c4b74
:104a98001b78f02189009940f0239b009c466144d3
:104aa8000901154b1878002301930093154b002238
:104ab80001f09afe0028bed00f2068440e4b1b78e8
:104ac800037003f063ffb6e7002804d0094a13789f
:104ad80001331370afe700f02dfe0028abd10f3083
:104ae8006844054b1b78037003f050ffa3e7c046ea
:104af800854700208b4700208a470020c0460020b9
:084b08008d4700209589000093
:020000040000fa
:104b1000f8b5374c656b63689b699847606160695d
:104b200005f008faa66ae76a0023020092197b41a1
:104b3000a262e362002d51d02d4c3022a35c0133e0
:104b4000a35404f0b3fa646b002c06d0a368002bc6
:104b500003d101250027264e11e0264d00242e000a
:104b600021e0e06903f0b6ffe368002b01d0206983
:104b70009847746b002cf0d0a368002bedd12575fd
:104b80006575a378002b02d1e368002be9d12000e2
:104b900002f0c4fda378002be6d16770e4e701348e
:104ba0002035052c15d06301f3185b7d002bf6d062
:104bb0006201104b9b1800225a75ab78012beed185
:104bc00061010c4b59186b688b60280000f0daf912
:104bd000e5e7074930228b5c013b8b5405f034fd3f
:104be000040000f0f1fc200005f032fdf8bdc046e5
:084bf000a0440020cc4000208d
:020000040000fa
:104bf800f8b5ce46474680b505f0aefa2e4b1a6892
:104c0800013a1a601b680024002b03d12b4b1b6848
:104c1800002b06d105f0bafb20000cbc9046994643
:104c2800f8bd0024264eb046264f274b99463368d8
:104c3800002b22d04346db68dc682000183004f0e3
:104c480084fe251d280004f080fee36a3a6893423a
:104c580001d91c4a13609800c01880001b4b181813
:104c6800290005f010fb1a4b1b68db6ae26a9a42be
:104c7800ddd301234a461360d9e7002c01d004f0a4
:104c8800bbfc144b1c68002c0ed00f4e012502e013
:104c9800013c002c05d0fff7e7f80028f8d0356074
:104ca800f6e70c4b00221a60074b1c68002cb1d0a9
:104cb80005f046fa0124ade7244700201c470020f0
:104cc800a84500202c47002048470020d442002057
:084cd800104700203c470020ba
:020000040000fa
:104ce000f0b5060085b00f0015001c008b4265d89a
:104cf00001d1824262d82100280005f085fa3900ee
:104d00000090300005f080fa009b21001b1a1a0069
:104d10002800039305f06cfa00900191019bbb42bf
:104d200046d802d1009bb34242d8009b019c039a13
:104d300001200021f61aa74105f05afa039b002b27
:104d40002fd0019b009adb0754081c43019b5d0890
:104d5000039b9c46bd422ed801d1b4422bd83200d1
:104d60003b00121bab41012692185b410027b6188d
:104d70005f4101235b429c446346002bead18019ca
:104d80007941039a04000d003000390005f024fa3f
:104d9000039a06000f0005f02bfa241a8d4120001b
:104da00029000a9b002b01d01e605f6005b0f0bd9a
:104db00000200021c2e7b6197f41dae70020002178
:024dc000efe71b
:020000040000fa
:024dc200fee70a
:020000040000fa
:104dc400f0b5ce46474680b583b00125314ca046a8
:104dd400314a304eff23994616e058002f4f3f5c6e
:104de400bc466f466146b97101302c49085cf871c4
:104df40001331ae06b4606331b8849460b40138582
:104e0400244b1b7d002b20d1137e2b423dd0a06868
:104e1400e368984236d05768072038400128dcd030
:104e24001e48c75c684687710133306983428041fc
:104e340003401848c360506807230340012bd9d1ad
:104e44006b4606331b881385dae705f079fa114bb4
:104e54001b68002bbcd0434659681b7f002b08d02d
:104e64000c4b9b699842b3d30a4b1b6803209847a9
:104e7400aee7084b9b699842aad1064b1b680320f6
:104e84009847a5e7044b01221a7503b00cbc904661
:104e94009946f0bd6044002000080042ec41002027
:020000040000fa
:104ea400f0b587b002ac411c1022200005f098fa3e
:104eb4002378002b43d102aa059c117a002932d011
:104ec400294a1078294a1578294e04e02034013300
:104ed400dbb28b4227d0227c8242f7d1627caa4289
:104ee400f4d16288b242f1d11227e25f002aeddaee
:104ef400204b02251d701e4e5e8022891a811e4998
:104f04007431002001f0faff6b46991d0e80502089
:104f140002f02efe194b1d70617c207c8023220040
:104f240002f0bafc09e0114b1b780f4a12780121f8
:104f340091400522012003f075f807b0f0bdea2b7b
:104f440006d00e4b00221a70012003f09dfef4e7f8
:104f5400064b1b78044a1278012191400622012055
:104f640003f060f8e9e7c046994700209a4700201b
:104f740011110000104600203c3400009b47002023
:020000040000fa
:104f8400f0b5de4657464e464546e0b585b0814607
:104f9400002854d0304b596b83689a4600290cd0b2
:104fa4008b6852460392002290469a4549d30022c8
:104fb40000238b460092019306e052468260264b02
:104fc4005863012034e0e3465e46b66834000025a9
:104fd400009a019b12196b41009201935e46b669d7
:104fe400b446002e12d06646b66800210f00009a1f
:104ff400019bb6185f41474529d8e4d1039b9e42e3
:10500400e1d960465946009a019b01e030005946b7
:105014004c46a0618c61002051468a1a4b469a6026
:105024009b69002b04d04a4691689a68521a9a6088
:1050340005b03cbc90469946a246ab46f0bd002064
:10504400f6e7054b5863816100220120e4e76046de
:0c5054005946009a019bdbe7a0440020b5
:020000040000fa
:1050600070b50400002927d02c4b1b7f0422f021af
:105070002c2004f025fd012c34d9284b1b7d012266
:105080000e212c2004f01cfd1920fcf71dff19280f
:10509000fad1234b186801780139c9b202f0aefa8f
:1050a000204b01221a70204c80256d03a561012040
:1050b00004f0c5ff656170bd00230422f0212c209f
:1050c00004f0fefc012cd8d8072301220e212c204d
:1050d00004f0f6fc13e0154804f010fb114b00221d
:1050e000da70d1e7072301220e212c2004f0e8fc1e
:1050f0000a4b1a7f0e4b1a700e4b01221a70012cac
:10510000c2d1084bdb78122be5d8002bbcd09720fe
:1051100004f0f4fa034b0022da70b5e70c450020e6
:10512000d4460020484500200044004157020000ba
:08513000924700209347002084
:020000040000fa
:1051380070b50d1e4cd000284dd12848383004f0e9
:1051480055ff012802d00120404246e02b68234c3d
:105158006360db689847e0600026c82200230021ce
:1051680003f0b2fb1e4a002303f010fd02220023c5
:105178008018594120620423eb5623722661194b8b
:10518800a361194be36100220023a262e362666314
:105198003023e65463681b68002114489847636805
:1051a8001b69002b02d00d4a108b98470b4ce06905
:1051b80080b263685b69984763685b689847a02218
:1051c80000210b4805f014f902232370200004e0a5
:1051d8000120404201e00120404270bda04400206f
:1051e800006cdc02ffff0000ff7f0000114b000095
:0451f800cc40002087
:020000040000fa
:1051fc0010b52a4b1b68002b03d0294b01221a60d7
:10520c0010bd274b00221a60264b1b681b6b264acd
:10521c001968914202d1596891422fd0214b1868dc
:10522c001968343105f03ffa204b1b689a00d218ec
:10523c0092001f495258002a06d1013b9a00d218fd
:10524c0092005258002af8d019489a00d1188900b7
:10525c0041184c6864684c60d2189200083282186d
:10526c00944212d09a00d218920011498a185268ae
:10527c00d1680c4a11600d4a1360c1e799689142dc
:10528c00ccd1db689342c9d1cee760689a00d218c2
:10529c00920007498a185060e4e7c0462447002072
:1052ac004847002010470020a5a5a5a52c470020a5
:0452bc00d4420020b8
:020000040000fa
:1052c00010b586b004ac411c0822200005f08af815
:1052d0002378002b44d104ab5b78012b09d0042b3d
:1052e00044d1059b1a78224b1a70012003f0ecfc84
:1052f0003ce001230b206844059a511eca5cc2544d
:105300000133052bfad10399cb0709d401230120de
:105310000a00da40104204d10133202bf8d103e017
:1053200000230433134a1370124c227812494c3173
:10533000002001f0e5fd0e4b1b7822780121914001
:105340000622012002f070fe0c4b1c6805f03af9b1
:105350000200002300930121200002f0e7fc05e099
:10536000074b00221a70012003f090fc06b010bd1c
:105370009a470020994700203c34000064470020f1
:045380009b47002027
:020000040000fa
:10538400f0b40125ed070c005c402c40a446ae0aa5
:105394004c18df18f4423dd2f74245d2640d4cd08c
:1053a4007f0d3cd0e41bc9022943cf0adb022b4307
:1053b400db0a0600b61a9f4104d2013cb6197f41ac
:1053c400b6185f416812800d241838dd0018844235
:1053d40025d8e80c0021b6197f41b61a9f4103d3a2
:1053e40040414941f7d304e0b6185f4100184941f0
:1053f400f1d32405b6197f41b61a9f4105d337432b
:10540400c20717430022012f5041614162461143f4
:10541400f0bc70470cd100280ad1f74208d2002012
:10542400c143490d0905f1e7002a01d1f74206d02d
:105434000020c143090dc904eae77f0df8d000201c
:045444006146e5e7f1
:020000040000fa
:10544800f0b583b006000d0001921f0008ab1c7870
:1054580003f0aefc002845d0244b1b785bb2022b2e
:1054680006d00124644204f0f9f9200003b0f0bd2d
:10547800002d31d0b54232d31d4b1b78002b0bd0f9
:105488001c4b01221978002908d001322033052a43
:10549800f8d101246442e6e70022154b0121197076
:1054a80000215970197559759c705d600199d96012
:1054b8001f61ad1b9d60104909881404240c0a045f
:1054c8001443dc61013189b20c4a914202d00a4a84
:1054d8001180c8e70121fae701246442c3e70124e7
:1054e8006442c0e701246442bfe7c046a0440020ec
:1054f800cc400020ec4000209e470020ffff000029
:020000040000fa
:1055080010b588293cd015dc81294dd003dc8029d1
:105518004ad0002010bd822911d08429f9d11968f8
:10552800002a26d00a1d1a6000228b5e0360db1752
:10553800436011e0a02930d010dc9029e9d1196826
:105548000724002a2ed00919a1430a0008321a603c
:105558000b684c68036044600120dbe7c02901d078
:10556800f029d6d11a68111d196013680360002349
:10557800dee70c1d1c600b689bb203604260ebe722
:105588001968002a04d00a1d1a600023cb56cde7fb
:105598000c1d1c600b68dbb2efe71a68111d19605f
:1055a8001368c3e70731cfe71968002a03d00a1d3b
:0e55b8001a600b68bae70c1d1c600b68dde77b
:020000040000fa
:0255c600fee7fe
:020000040000fa
:1055c800f0b5c64600b52a4b5a6b59691961002acd
:1055d80042d09168274b994234d9254b5b69002505
:1055e8001c00244a0023a4185d41214b98465b689f
:1055f8009b6998470027060043461b69834203d9e5
:105608001d4a0023b6185f41194b196a00230a0086
:1056180092197b41ab4202d827d1a24225d98e19d3
:10562800134bde61124bdb691b0402d1104b0122c4
:10563800da610f4bd86980b25b685b69984704bc34
:105648009046f0bd91680a4b5b6900251c00002359
:105658000a00a4185d41c8e7054b5b6900251c00da
:10566800044a0023a4185d41bfe7014bdc61d9e778
:0c567800a0440020ff7f0000ffff0000a6
:020000040000fa
:1056840070b584b003ac411c0422200004f0a8fed1
:10569400a378002b39d1204c211d002003f054fda8
:1056a4001e4b03221a701e4b186800250095002318
:1056b4000022032102f038fb1a4b1e6804f080ff1d
:1056c4000200009500230121300002f02dfb03ab02
:1056d4001a8821002831002001f010fc1248134bd5
:1056e4000093002300221249203002f075ff0400c9
:1056f400104b186004f064ff0200002300930121a2
:10570400200002f011fb04b070bd034944310020b5
:1057140003f01afde2e7c046bc3400009b470020ba
:1057240064470020684700203c340000d98300000f
:0857340088130000604700200b
:020000040000fa
:10573c0070b582b0264b1b681d686b6000282dd09d
:10574c002c00b13407232b70b122ab54214a0a260a
:10575c00a11eff230b70611e0b70211f0b70e11e2d
:10576c000b701d494b7c581c4874611f0b70e31f58
:10577c001a70a31f120a1a70083c26706c61002262
:10578c000221280004f018f90023002803d1134b40
:10579c0001221a700123180002b070bd06232b7071
:1057ac00b122ab542c00a9346946f020fef722fd3f
:1057bc00009b019922002e00b136137008061b0abb
:1057cc000343090a0132b242f7d1054a1226bfe758
:1057dc00c846002003080000684500202a45002028
:0457ec0043c80000ae
:020000040000fa
:1057f00070b50500204e306803f0d6fd00243460fb
:105800001e4a13681b681b2119705c701839997047
:105810005c601c7211681a4803f0c0ff194b1c70c1
:1058200004f006f9280003f0bffd174c21005020ba
:1058300003f072fde288154b9a4212d1144bd98db8
:10584000144a11811b88db0410d41349002003f093
:1058500063fd002800d08520fff7e6f804f008fb80
:1058600070bd0e49532003f057fde7e70c490420b3
:1058700003f052fde9e7c046c8460020c0460020bc
:1058800048460020854700204c440020ffff0000d0
:10589000204400206845002050440020524400204d
:0458a000544400204c
:020000040000fa
:1058a4005e1f0000ce1f00009c1f0000ea1f0000c6
:1058b4009c1f0000461f0000721f00009c1f000078
:1058c4009c1f00009c1f00009c1f00009c1f0000e8
:1058d400121f00009c1f00009c1f00009c1f000062
:1058e4009c1f00009c1f00009c1f0000342000002f
:1058f4009c1f00009c1f000080200000ce1f0000a1
:105904009c1f0000ea1f00009c1f0000461f0000af
:10591400721f00009c1f00009c1f00009c1f0000c1
:105924009c1f00009c1f0000121f00009c1f000011
:105934009c1f00009c1f00009c1f00009c1f000077
:105944009c1f0000342000009c1f00009c1f0000ce
:0459540080200000af
:020000040000fa
:105958004b005b0d264af0b55c1e944238d8254aa8
:105968009e1825d4332e22dc234a9b1827d4234a99
:10597800da400700214b9743f3403c000f000240f8
:105988009f4319403d000a430fd0002f0dda202312
:105998005b42f11824d480204003c84002008021d3
:1059a8004903f1400b00a4185d4120002900f0bd17
:1059b8000020002901db0021f9e71149f7e720223f
:1059c8000e4b921b934001225242f2401a43d0e7f9
:1059d800002becd10022c90fcb0710001900e6e715
:1059e80020218020891b400388400200d7e7c04659
:1059f800fd07000001fcffffe1fbffffffff0f00b9
:045a08000000f0bfeb
:020000040000fa
:105a0c00f0b54b6889b005930b6807009c4607936b
:105a1c00cb680c008e68049310685168cd0f44d08d
:105a2c000b000200002150429941059b002b08db22
:105a3c000222634693430793002d02d1079b5a071a
:105a4c002ad5731e07aa02920a22009301920b0018
:105a5c000200200001f031f9002d02d1079b5a07fa
:105a6c001ed501382d23002d00d1023b049a13546e
:105a7c0023695a1e049b121a1918079b38000093ad
:105a8c00330001f066f87b68db0503d56368984248
:105a9c0000da180009b0f0bd1b07db0ff31ad1e7d1
:105aac001b07e5d501382023e0e7059b002bbfda67
:025abc00c4e73d
:020000040000fa
:025abe0070472f
