:020000040000fa
:10000000f07f0020e9b70000cbaf000083b1000013
:1000100000000000000000000000000000000000e0
:10002000000000000000000000000000b7b4000065
:10003000000000000000000071bb0000f5cf0000d0
:1000400073a8000073a8000073a8000095a9000021
:1000500073a8000073a8000073a8000073a8000034
:1000600073a8000073a8000073a80000d9b10000b5
:1000700073a800005d59000073a8000073a8000079
:1000800073a8000005c6000073a8000073a8000054
:1000900073a8000073a8000073a8000073a80000f4
:1000a00073a8000073a8000073a8000073a80000e4
:020000040000fa
:1000b000f8b5c046f8bc08bc9e467047a9b600001b
:1000c000f8b5c046f8bc08bc9e46704781b6000033
:020000040000fa
:0800d000d871000001000000de
:020000040000fa
:1000d8000d0a20434d443e0d0a0000000d0a20433e
:1000e800534d41204d6f6465202d204e4f5f435383
:1000f8004d415f4e4f5f4946530d0a000d0a20439c
:10010800534d41204d6f6465202d204e4f5f435362
:100118004d415f574954485f4946530d0a00000056
:100128000d0a2043534d41204d6f6465202d204317
:10013800534d415f554e534c4f545445440d0a009e
:100148000d0a2043534d41204d6f6465202d2043f7
:10015800534d415f534c4f545445440d0a00000021
:100168000d0a2044657374696e6174696f6e20416d
:10017800646472657373203a20307825780a200009
:100188000d0a205253534920426173652056616c11
:1001980075652025640d0a000d0a204672616d659b
:1001a8002054797065203a200000000042656163a0
:1001b8006f6e206672616d650d0a0000446174619e
:1001c800206672616d650d0a0000000041636b20b6
:1001d8006672616d650d0a00434d44206672616d5b
:1001e800650d0a004c4c444e206672616d650d0a1f
:1001f800000000004d756c7469707572706f7365de
:10020800206672616d650d0a00000000496e766116
:100218006c6964206672616d650d0a000d0a2041e3
:1002280070702052652d696e697469616c697a65b0
:10023800640d0a000d0a2053544f5020414c4c20a5
:100248004143544956452054455354204d4f444545
:10025800530d0a000d0a2050524f4d495343554f34
:1002680055532054455354204d4f44450d0a000022
:100278000d0a204945454520416464726573732021
:100288003a20307825780d0a000000000d0a204336
:100298004f4e54494e554f55532054455354204db5
:1002a8004f4445200d0a00000d0a205045522054a5
:1002b800455354204d4f44450d0a00000d0a205463
:1002c80068726f7567687075742054657374204d13
:1002d8006f64650d0a0000000d0a2054696d65728f
:1002e800204e6f7420537461727465640d0a0000a7
:1002f8003a20504859204c6179657220636f6d6dc2
:10030800616e647300000000506879436d64730087
:100318007472756500000000547275650000000075
:1003280066616c736500000046616c7365000000cf
:100338000d0a496e76616c696420696e7075742e59
:1003480020506c6561736520656e746572206569ff
:100358007468657220277472756527206f7220276c
:1003680066616c7365270d0a000000000d0a496e6e
:1003780076616c696420696e7075740d0a000000fe
:100388000d0a205468726f75676870757420546917
:100398006d65722073657420746f202575207573e0
:1003a8006563730d0a0000000d0a204d69737369b7
:1003b8006e6720506172616d65746572200d0a0068
:1003c8000d0a2054696d65722073657420746f205e
:1003d80025750d0a000000000d0a204e6f2e206fb3
:1003e80066207061636b65747320696e2050455296
:1003f8002074657374204d6f646520736574207470
:100408006f20307825780d0a000000000d0a50484a
:10041800595f535543434553530d0a000d0a50483d
:10042800595f5452585f41534c4545500d0a0000de
:100438000d0a5048595f5452585f4157414b450d7a
:100448000a0000000d0a5048595f52465f52455154
:100458005f41424f525445440d0a00000d0a50486e
:10046800595f52465f554e415641494c41424c45b1
:100478000d0a00000d0a5048595f4641494c555233
:10048800450d0a005048595f425553590d0a00005e
:100498000d0a5048595f4652414d455f50454e44fc
:1004a800494e470d0a0000000d0a5048595f494e51
:1004b80056414c49445f504152414d455445520db7
:1004c8000a0000000d0a5048595f554e53555050c8
:1004d8004f525445445f4154545249425554450d76
:1004e8000a0000000d0a5048595f4348414e4e45e6
:1004f8004c5f425553590d0a000000000d0a504840
:10050800595f4348414e4e454c5f49444c450d0a9e
:10051800000000000d0a5048595f4e4f5f41434ba1
:100528000d0a00000d0a5048595f4348414e4e4598
:100538004c5f4143434553535f4641494c555245ef
:100548000d0a00000d0a5048595f554e4b4e4f5743
:100558004e5f53544154450d0a00000057616b65c6
:100568007570205472616e736365697665722e2e9c
:100578002e0d0a000d0a204672616d6520726574a1
:100588007279202d2025780a200000000d0a2054b9
:100598007820506f77657228696e2044426d292053
:1005a8002d2025642044426d0d0a20000d0a205498
:1005b8007820506f776572202d2025640d0a200061
:1005c8000d0a20536f757263652041646472657308
:1005d80073203a20307825780d0a00000d0a205043
:1005e800414e204944202d20307825780a200000eb
:1005f8000d0a204368616e6e656c20506167652046
:100608002d2025640a2000000d0a204368616e6ec3
:10061800656c20202d20307825780a200000000005
:10062800496e697469616c697a696e6720504859c6
:100638002e2e2e0d0a0000005048595f5452585f64
:100648004f46460d0a0000005048595f52585f4f08
:100658004e0d0a005048595f54585f4f4e0d0a001e
:100668005048595f425553595f52580d0a000000cf
:100678005048595f425553595f54580d0a000000bd
:100688005048595f5452585f534c4545500d0a0025
:100698005048595f5452585f444545505f534c4544
:1006a80045500d0a000000005048595f554e4b4e0a
:1006b8004f574e5f53544154450d0a000d0a537568
:1006c80063636573730d0a0045727225643a2000ee
:1006d800556e6b6e6f776e20436f6d6d616e640d36
:1006e8000a000000496e76616c696420506172618d
:1006f8006d657465720d0a004d697373696e6720c4
:10070800506172616d657465720d0a00496e76619b
:100718006c696420506172616d65746572205479ea
:1007280070650d0a00000000506172616d657465a6
:1007380072204f7574206f662052616e67650d0ace
:1007480000000000496e76616c696420466f726d26
:1007580061740d0a000000005363726970742050c0
:10076800617273696e67204572726f720d0a0000bc
:10077800486561702046756c6c0d0a00496e76619b
:100788006c69642053746174650d0a004e6f2052c1
:1007980065736f75726365730d0a0000424c4520de
:1007a8004572720d0a00000048414c204572720dd6
:1007b8000a000000556e6b6e6f776e204572720de1
:1007c8000a000000526573657474696e67205048aa
:1007d800592e2e2e0d0a0000456e65726779204449
:1007e8006574656374696f6e205363616e6e696ebc
:1007f800672053746172742e2e2e0d0a00000000bb
:100808004544207363616e206475726174696f6e0c
:100818002074696d657220737461727465642073e5
:1008280075636365737366756c6c792c207363618b
:100838006e6e6564206368616e6e656c20697320f6
:1008480025640d0a0000000047657474696e67200e
:100858005048592050494220617474726962757415
:10086800652e2e2e0d0a00000d0a205048592050e2
:10087800494220506172616d6574657220202d2097
:10088800307825780a2000000d0a204174747269b6
:1008980062757465204944206973203a20256420d4
:1008a800000000000a4174747269627574652076ec
:1008b800616c75652073657420746f3a20307825f3
:1008c800780000000d0a20547820506f7765722850
:1008d800696e2044426d29202d2025640d0a2000d0
:1008e8000a547820506f7765722073657420746f8e
:1008f8003a2025640d0a00000d0a2031362062696d
:1009080074204174747269627574652076616c75bf
:100918006520697320203a20257520000d0a205390
:10092800657474696e6720504859205049422061a7
:1009380074747269627574652e2e2e0d0a0000009b
:100948000a4174747269627574652076616c7565a4
:100958002073657420746f3a20307825347800004d
:100968000d0a2050414e204944203a2030782578fd
:100978000a2000000d0a204578697374696e6720a3
:1009880044657374696e6174696f6e204164647242
:10099800657373202d20307825780a200000000028
:1009a8000d0a204e65772044657374696e61746919
:1009b8006f6e2041646472657373202d2030782532
:1009c800780a20000d0a204578697374696e6720db
:1009d800536f757263652041646472657373202d6b
:1009e80020307825780a20000d0a204e657720539c
:1009f8006f757263652041646472657373203a2071
:100a08002564200d0a0000000d0a20547820506f3c
:100a1800776572202d2025642044426d0d0a200040
:100a28000d0a53657420547820506f776572202d15
:100a38002025642044426d0d0a2000000d0a20463e
:100a480072616d65207265747279207365742074a3
:100a58006f2d2025780a2000456e61626c696e67eb
:100a68002052656365697665722066726f6d2050e5
:100a780048595f53544154455f5452585f4f464656
:100a880020746f205048595f53544154455f525861
:100a98005f4f4e2e2e2e0d0a000000005365747411
:100aa800696e67205472616e73636569766572203a
:100ab800746f20536c6565702e2e2e0d0a00000091
:100ac80053657474696e672043757272656e74201d
:100ad8004368616e6e656c20746f20256420000089
:100ae8000d0a20506572666f726d696e6720434308
:100af800412e2e2e0d0a00000d0a204465766963ea
:100b08006520496e646578206973203a2025640a57
:100b1800000000000d0a2053686f7274204164645d
:100b280072657373206973203a0000003078257865
:100b38000d0a00000d0a204965656520416464724c
:100b48006573732069733a000d0a444556494e444b
:100b5800580953484f525441444452094c51490989
:100b680052535349095458504b54434e5409525800
:100b7800504b54434e540949454545414444520d50
:100b88000a0000002564090030782578090900006a
:100b98002538780900000000253878000d0a4465da
:100ba8007669636520496e64657820697320696e8b
:100bb80076616c69640d0a000a0000000d0a20467f
:100bc80072616d6554797065206973203a00000080
:100bd8000d0a2053656c65637465642044657374fd
:100be800696e6174696f6e20446576696365206912
:100bf8007320696e20496e646578202d2025640a6b
:100c0800200000000d0a496e64657820696e206432
:100c18006576696365207461626c65206973206517
:100c28006d7074792c2075706461746520746865c2
:100c380020646576696365207461626c650d0a00dd
:100c48000d0a54727820697320636f6e6669677540
:100c580072656420746f20726564756365642070c2
:100c68006f77657220636f6e73756d7074696f6ee0
:100c7800206d6f64650d0a000d0a54727820726544
:100c8800647563656420706f77657220636f6e7337
:100c9800756d7074696f6e206d6f6465206973205f
:100ca80064697361626c65640d0a00000d0a547210
:100cb8007820697320636f6e666967757265642052
:100cc800746f206175746f2061636b6e6f776c65ec
:100cd80064676520666f7220746865207265636555
:100ce80069766564207061636b65740d0a000000a5
:100cf8000d0a2044657669636520506572666f72d7
:100d08006d616e63652044617461204d6f64650d8b
:100d18000a0000000d0a2044657669636520506565
:100d280072666f726d616e636520506572696f647b
:100d38002054657374204d6f64650d0a000000002f
:100d48000d0a2044657669636520506572666f7286
:100d58006d616e636520436f6e74696e756f757330
:100d68002054657374204d6f64650d0a00000000ff
:100d78000d0a2044657669636520506572666f7256
:100d88006d616e6365205045522054657374204d23
:100d98006f64650d0a0000000d0a204465766963da
:100da8006520506572666f726d616e636520696e4d
:100db800205468726f756768707574205465737411
:100dc800204d6f646520666f7220257520757365e8
:100dd80063730d0a00000000706879496e69740039
:100de8003a496e697469616c697a65205048593a64
:100df80020706879496e6974000000007068795243
:100e080065736574000000003a5265736574207458
:100e1800686520504859207374617465206d61635a
:100e280068696e653a2070687952657365742c3c00
:100e38007365742064656661756c7420504942203e
:100e480076616c7565732d302f31203a20522c3124
:100e58002f303e0d0a0000007068794564536361c5
:100e68006e0000003a45442073746172743a207031
:100e7800687945645363616e2c3c736574207363b1
:100e8800616e206475726174696f6e2072616e673d
:100e9800696e672066726f6d20312d31343e0d0a00
:100ea8000000000067657441747472696275746546
:100eb800000000003a4765742050485920504942c4
:100ec800206174747269627574653a20676574414b
:100ed80074747269627574652c3c617474726962a9
:100ee8007574652069643e0d0a00000073657441dd
:100ef8007474726962757465000000003a53657411
:100f080020504859205049422061747472696275b2
:100f180074653a2073657441747472696275746596
:100f28002c3c6174747269627574652069643e2c26
:100f38003c6174747269627574652076616c75655c
:100f48003e0d0a006765744368616e6e656c00004b
:100f58003a476574205048592050494220617474ba
:100f68007269627574653a206765744368616e6e6c
:100f7800656c0d0a000000007365744368616e6e4d
:100f8800656c00003a536574205048592050494216
:100f9800206174747269627574653a20736574436c
:100fa80068616e6e656c2c3c6368616e6e656c3e44
:100fb8000d0a00006765744368616e6e656c506762
:100fc800000000003a4765742050485920504942b3
:100fd800206174747269627574653a206765744338
:100fe80068616e6e656c50670d0a00007365744326
:100ff80068616e6e656c5067000000003a53657456
:1010080020504859205049422061747472696275b1
:1010180074653a207365744368616e6e656c5067d9
:101028002c3c6368616e6e656c20706167653e0d6f
:101038000a00000067657450616e49640000000092
:101048003a476574205048592050494220617474c9
:101058007269627574653a2067657450616e496497
:101068000d0a000073657450616e49640000000049
:101078003a5365742050485920504942206174748d
:101088007269627574653a2073657450616e49645b
:101098002c3c50414e2049443e0d0a00676574447b
:1010a80065737441646472003a4765742050485906
:1010b80020504942206174747269627574653a20df
:1010c80067657444657374416464720d0a000000b6
:1010d8007365744465737441646472003a5365744b
:1010e80020504859205049422061747472696275d1
:1010f80074653a2073657444657374416464722c32
:101108003c6465737420616464726573733e0d0a90
:101118000000000067657445787444657374416421
:10112800647200003a47657420504859205049427b
:10113800206174747269627574653a2067657445d4
:10114800787444657374416464720d0a0000000089
:1011580073657445787444657374416464720000ff
:101168003a5365742050485920504942206174749c
:101178007269627574653a2073657445787444655c
:101188007374416464722c3c45787420646573748c
:101198002061646472657373203634206269743e1a
:1011a8000d0a00006765745372634164647200003d
:1011b8007365745372634164647200003a536574d2
:1011c80020504859205049422061747472696275f0
:1011d80074653a2073657444657374416464722c51
:1011e8003c73726320616464726573733e0d0a0018
:1011f80067657443736d614d6f6465003a47657444
:1012080020504859205049422061747472696275af
:1012180074653a2067657443736d614d6f64650d3d
:101228000a00000073657443736d614d6f64650057
:101238003a536574205048592050494220617474cb
:101248007269627574653a2073657443736d614d94
:101258006f64652c3c6d6f64653e0d0a00000000ec
:101268006765745478507772000000003a476574d7
:10127800205048592050494220617474726962753f
:1012880074653a2067657454785077720d0a0000c7
:101298007365745478507772000000003a5365748f
:1012a800205048592050494220617474726962750f
:1012b80074653a2073657454785077722c3c74784e
:1012c800207077723e0d0a0067657449656565414f
:1012d800646472003a476574205048592050494266
:1012e800206174747269627574653a20676574491f
:1012f800656565416464720d0a0000007365744990
:1013080065656541646472003a53657420504859b4
:1013180020504942206174747269627574653a207c
:1013280073657449656565416464722c3c496565fb
:101338006520616464726573732036342062697451
:101348003e0d0a006765744672616d655265747278
:10135800790000003a4765742050485920504942a6
:10136800206174747269627574653a2067657446a1
:1013780072616d6552657472790d0a007365744601
:1013880072616d6552657472790000003a53657434
:10139800205048592050494220617474726962751e
:1013a80074653a207365744672616d65526574722e
:1013b800792c3c4e6f206f66207265747269657374
:1013c8003e0d0a007278456e61626c65000000008f
:1013d8003a525820454e41424c453a207278456e63
:1013e80061626c652c3c53657420545258207374a8
:1013f80061746573205048595f53544154455f5296
:10140800585f4f4e2f5048595f53544154455f54cd
:1014180052585f4f46463a20312f303e0d0a0000a1
:10142800747278536c656570000000003a536574f7
:101438002054525820746f20736c6565702f646552
:10144800657020736c6565703a20747278536c65aa
:1014580065702c3c736c656570206d6f6465202d1c
:1014680020736c70206d6f646520312f6465657022
:1014780020736c656570202d20302f313e0d0a00d9
:1014880074727857616b6575700000003a53657423
:101498002054525820746f2057616b6575703a203c
:1014a80074727857616b6575700d0a00434341008b
:1014b800506572666f726d20434341206f6e2064e1
:1014c800657369726564206368616e6e656c203a45
:1014d800204343412c3c7068796368616e6e656c8b
:1014e8003a2031312d32363e0d0a000075706461a4
:1014f80074654465766963655461626c65000000d3
:1015080075706461746520646576696365207461cb
:10151800626c65203a20757064617465446576690b
:1015280063655461626c652c3c506172616d6574d1
:1015380065723a2064657669636520696e646578ca
:101548002c73686f727420616464726573732831d8
:101558003620626974292c204965656520616464b8
:101568007265737328363420626974293e0d0a0047
:10157800726561644465766963655461626c65008f
:101588007265616420646576696365207461626c64
:1015980065203a20726561644465766963655461c3
:1015a800626c652c3c506172616d657465723a209d
:1015b80064657669636520696e646578202d2d20e1
:1015c800462f696e6465783e0d0a000026262600bf
:1015d8003a53776974636820746f20636f6d6d6127
:1015e8006e64206d6f64653a202626260d0a000079
:1015f8002b2b2b003a73776974636820746f20551e
:1016080073657220496e7075742064617461206d11
:101618006f64653a202b2b2b2c3c74696d65207008
:101628006572696f6420696e2075733e0d0a00004b
:10163800706572696f64546573744d6f64650000fa
:101648003a73776974636820746f20706572696f84
:101658006469632074657374206d6f64653a2070e3
:101668006572696f64546573744d6f64652c3c745e
:10167800696d657220706572696f6420696e207586
:10168800733e0d0a0000000073746f705465737424
:101698004d6f64650000000053746f7020616c6cbe
:1016a80020616374697665206170706c6963617428
:1016b800696f6e2074657374206d6f6465733a206a
:1016c80073746f70506572696f64546573744d6f8d
:1016d80064650d0a20000000636f6e7454657374ae
:1016e8004d6f6465000000003a7377697463682081
:1016f800746f20636f6e74696e756f75732074658f
:101708007374206d6f64653a20636f6e74546573eb
:10171800744d6f64650d0a00706572546573744d7d
:101728006f6465003a73776974636820746f20503a
:1017380045522074657374206d6f64653a20706536
:1017480072546573744d6f64650d0a0070726f6d25
:10175800546573744d6f6465000000003a737769cf
:1017680074636820746f2070726f6d697363756f2e
:1017780075732074657374206d6f64653a205072b8
:101788006f6d546573744d6f64650d0a0000000039
:101798007468726f756768707574546573744d6f8b
:1017a800646500003a73776974636820746f207405
:1017b80068726f7567687075742074657374206dce
:1017c8006f64653a207468726f75676870757454d1
:1017d8006573744d6f64650d0a0000006765744198
:1017e8006464724d6f646573000000003a67657445
:1017f80020736f7572636520616e6420646573740d
:10180800696e6174696f6e2061646472657373696f
:101818006e67206d6f6465733a2067657441646410
:10182800724d6f6465730d0a0000000073657441a2
:101838006464724d6f646573000000003a736574e8
:1018480020736f7572636520616e642064657374bc
:10185800696e6174696f6e2061646472657373691f
:101868006e67206d6f6465733a20736574416464b4
:10187800724d6f6465732c3c73726320616464728b
:10188800206d6f64653a302d333e2c3c646573746b
:101898002061646472206d6f64653a302d333e0dab
:1018a8000a0000006765744672616d655479706559
:1018b800000000003a676574206672616d652074e7
:1018c8007970653a206765744672616d6554797000
:1018d800650000007365744672616d6554797065c2
:1018e800000000003a736574206672616d652074ab
:1018f8007970653a207365744672616d65547970c4
:10190800652c3c52616e67653a20302d353e0000eb
:1019180073656c65637444737444657600000000f5
:101928003a73656c6563742064657374696e617479
:10193800696f6e206465766963652066726f6d20d5
:10194800646576696365207461626c653a207365c5
:101958006c6563744473744465766963652c3c44b0
:101968006576696365207461626c6520496e64659b
:10197800783a20302d4e554d5f4f465f44455649c5
:101988004345533e0d0a0000706879436e745478dd
:10199800000000003a53746172747320636f6e74b0
:1019a800696e756f7573207472616e736d69737388
:1019b800696f6e206f6e2063757272656e74206336
:1019c80068616e6e656c3a20706879436e745478fd
:1019d8002c3c74784d6f64653e0d0a0073746f700b
:1019e800506879436e745478000000003a53746f5d
:1019f800707320636f6e74696e756f75732074727f
:101a0800616e736d697373696f6e206f6e20637595
:101a18007272656e74206368616e6e656c3a2073cd
:101a2800746f70506879436e7454780d0a00000022
:101a3800436f6e66696752785250434d6f64650014
:101a4800436f6e6669677572657320746865207286
:101a580065647563656420706f77657220636f6e67
:101a680073756d7074696f6e206d6f64653a20438d
:101a78006f6e66696752785250434d6f64652c3caf
:101a880030783031202d20546f20456e61626c65ae
:101a980020746865207278525043206d6f64652cfd
:101aa8002030783030202d20546f206469736162b3
:101ab8006c652074686520727820525043206d6fe1
:101ac80064653e0d0a000000636f6e6669674175c4
:101ad800746f41636b000000436f6e6669677572cf
:101ae80065732054525820666f72206175746f2098
:101af80061636b6e6f776c656467696e6720746885
:101b080065207265736572766564206672616d65bd
:101b18003a20636f6e6669674175746f41636b2c19
:101b28003c656e61626c654141434b2d747275650d
:101b38002f66616c73653e0d0a000000676574527c
:101b48005353494261736556616c000067657420a0
:101b58007468652062617365205253534920766129
:101b68006c756520666f7220726573706563746941
:101b7800766520726164696f733a6765745253536e
:101b8800494261736556616c0d0a000067657454bb
:101b9800727853746174757300000000676574206f
:101ba80074686520737461747573206f6620746837
:101bb80065207472616e736365697665723a6765ec
:101bc800745472785374617475730d0a00000000c0
:101bd800636f6e666967527853656e736974697668
:101be80069747900436f6e666967757265732072f0
:101bf800656365697665722073656e736974697665
:101c0800697479206c6576656c2e20546869732038
:101c18006973207573656420746f20646573656edd
:101c2800736974697a65207468652072656365698b
:101c38007665723a636f6e666967527853656e733c
:101c4800697469766974792c3c7064746c6576651e
:101c58006c2d3e302d31353e0d0a0000636f6e66e7
:101c68006967547850777200636f6e66696775723a
:101c7800652074686520545820506f7765720d0a86
:101c880000000000636f6e666967416e74656e6e72
:101c9800614469766572736974790000436f6e6692
:101ca80069677572652074686520416e74656e6e2b
:101cb80061204469766572736974790d0a000000c1
:101cc8007570646174655468726f7567687075744f
:101cd80054696d6500000000557064617465205496
:101ce80068726f7567687075742054696d65720dd8
:101cf8000a0000007570646174655045525465733c
:101d0800745061636b657473436e740055706461dd
:101d18007465205045522074657374205061636b5c
:081d28006574730d0a00c0464a
:020000040000fa
:101d3000f0b59bb013930b6815900a938b680d91c7
:101d40000b930b694d681893cb6802931368089343
:101d50005368089806930022002306990af08ef92a
:101d600000280dd10a9b5b073ad408200a9b034048
:101d700009930b9b0393099b002b0fd0202306e0b4
:101d8000802212069446069b634406932d23029af2
:101d900013700b9b013b039301230993069b089946
:101da0005b005b08944a00291ed193421cd1029c1f
:101db000139ba446099a413b624490491000192b99
:101dc00010d80bf0b3fe02980bf070fc0a9b0200d7
:101dd000009302990b9b159807f0a3fd1bb0f0bd73
:101de0002b23d4e70431ece7934203d810d1089bae
:101df000002b0dd0029c139ba446099a413b6244e0
:101e00007e491000192b01d80831dae70c31d8e7e8
:101e100000220023089806990af0c7fd0026784f93
:101e2000002400283ed1040002e00134049e059ff6
:101e30000022744b3000390003f0c4fa089a069b64
:101e4000049005910af0fbf80028eed000230493db
:101e500020e06d4b9c4214da049b002b11d1002230
:101e60006a4b0898069903f0adfa684b0890069102
:101e700030003900002203f0a5fa012306000f000c
:101e800004933000390000225e4b05f01ffe06006f
:101e90000f00013c32003b00089806990af0eef86a
:101ea0000028d6d113980bf0f7fdc3b20c93002d88
:101eb00000da8fe10493672b00d0ade0002d00d154
:101ec00084e1231d02dbac4200daa1e06523b1e02e
:101ed000002200230e920f93fee006960797049bc4
:101ee0002600652b00d015e1002613e1129b002b84
:101ef0000bd1002e09da029a14992e335354039b06
:101f00000137013b039301231293ea193b009446e6
:101f1000302102e0029ad15401339c45fad1039a50
:101f2000eb19551b029a30305f1cd0546b1e039383
:101f3000002521e00d9b14971b691093053bbb42c4
:101f400000d8f0e0069a079b08980e9905f0befdb0
:101f500006f0b2f8109011910af0d6fb092800ddc6
:101f6000092010230a9a13400343bfd10c9b672b0f
:101f7000bcd1002ec9da01358020000684460e99b6
:101f8000089a61440b001098119900920193069ae7
:101f9000079b0bf06bfd80231b06cb1808900e935c
:101fa000069807990022174b05f090fd013e069018
:101fb0000791b4e00a9bdb0600d4b8e02e23029a16
:101fc000d3550137b3e020000a2106f075fa029bd1
:101fd0003031013d595520000a2106f023fa039bb8
:101fe0000400013b0393b2e0029b03991a5c5b1867
:101ff0001a540138dbe0c0460000f07f5cda0000d4
:102000000000f03f00002440d4feffff00005043da
:10201000002c0eda66230493049b0135662b0ad14b
:10202000002c02da002600246d4f0c9b672b00d099
:102030002d1966230493089b0e960f971293069b07
:102040001093002314930e9a0f9b1298109905f089
:102050003dfd06f031f8169017910af055fb1990e6
:102060008020000684461099129a61440b0016984d
:102070001799009201930e9a0f9b0bf0f7fc8023a7
:102080001b06cb18129010930e980f99554b0022f7
:1020900005f01cfd149b0e900f91013314939d428b
:1020a000d1d10022504b03f08df90e900f91020018
:1020b0000b001298109909f0e1ff002800d007e703
:1020c0000e9a0f9b129810990af06ffc002803d00b
:1020d000199bdb0700d4fbe60e9a0f9b0898069924
:1020e00002f0cafe002208900e913e4b30003900eb
:1020f00003f068f9089a0e9b0690079109f07cfda1
:10210000002800d1e9e6049b0134662b00d0e6e606
:1021100026000135731b0025099f16931295169b07
:102120009e4200d006e7129b002b00d142e700261a
:10213000029bdb1906931e70049b652b2ad1189b0a
:102140005d1e029b5e55b44201da64420136002cea
:1021500000d038e7189beb1a0333002b00dd32e781
:102160006a1e2d23002e00d1023b0299023d8b54a2
:10217000139b413b192b01d845230493029b59190a
:10218000049b0b70039b023b0393af4202da069859
:102190000bf0ccfc03230a9a1340022b00d012e66a
:1021a000039b002b00dc0ee602980bf07ffa099be4
:1021b000834200dc18e7029a3021944663441800f9
:1021c000039a0bf09bfb00230b93fce5012578e6bb
:1021d000062576e60c9b672bfad0049306251be7b1
:0c21e0000000f03f00002440000014400c
:020000040000fa
:1021ec00f0b599b014930b68566809934b6813902b
:1021fc000d938b68cf680c930b69310011931368a6
:10220c00002208930898002309f032ff00280cd113
:10221c00099b5b0732d40820099b0c9d0340059356
:10222c000cd02023013d3b7006e080231b06f618e2
:10223c002d233b700c9b5d1e01230593089a7300a4
:10224c005b08002a1cd1b04a934219d1149baf4ca5
:10225c00059a413bb8182100192b00d9211d0bf010
:10226c005ffc201d0bf01cfa099b02000093390047
:10227c000c9b139807f04ffb19b0f0bd2b23d8e73c
:10228c00a14a934203d812d1089b002b0fd0149b68
:10229c009e4c059a413bb8182100192b05d80831e2
:1022ac000bf03efc20000c30dce70c31f8e7059b12
:1022bc0005995a1c30237b54149b413b0e930e9969
:1022cc005823192900d920330599bb540231ab1e70
:1022dc000591079300220023089831000af05ffb58
:1022ec00002800d160e10023894c069302930394eb
:1022fc000d9b1093002b01da18231093029b039c67
:10230c000a930b9434000023089d129328000a9a18
:10231c000b9b210005f0d4fb05f0c8fe0a9a0b9b21
:10232c001690179103f048f802000b0028002100ca
:10233c000bf07efb774b05000c000a980b990022e2
:10234c0003f03af8129b0a900b9101330f930d9bfb
:10235c00002b07da00220023280021000af01ffbc3
:10236c00002806d1109b129a934200dd22e1013322
:10237c000f9300220a980b99674b03f01df80a90f3
:10238c000b9102000b002800210009f071fe0028bf
:10239c0000d011e10a9a0b9b280021000af0fffae9
:1023ac00002806d0169817990af0a8f9c30700d48c
:1023bc0002e10a9a0b9b0898310002f057fd12912a
:1023cc0049000a904908002803d14f4b994200d18b
:1023dc003ce70025059c10950895119b2600053bb4
:1023ec00a34230d9029a039b0a98129905f068fb14
:1023fc0005f05cfe149015910af080f9031e00d0d4
:10240c00dfe0089a002a00d1dbe00135029a039b39
:10241c001498159902f0d0ff02000b000a9812993b
:10242c000bf006fb00220a9012913a4b029803998a
:10243c0002f0c2ff089b0290039101330893089aa3
:10244c000f9b9342c9d1109b002b1ad1002d00d1a8
:10245c00fbe00d9b002b00dcf7e0099bdb0700d5b4
:10246c00f3e02e2230213b191a702a19ba18597030
:10247c0001339a42fbd12c19ed43079b0134eb1825
:10248c00079300263b191e700293119b5d1e069b41
:10249c007e55b34202da5b4206930136069b002b53
:1024ac0000d0bbe0119beb1a013300d1b6e06a1ee1
:1024bc002d23002e00d1023bbb540e9a023d50231b
:1024cc00192a00d9203379190b70ac4202da029820
:1024dc000bf026fb0323099a1340022b11d1079b07
:1024ec009c1e002c0ddd38000bf0daf8059b984291
:1024fc0000dba3e0f818220030210bf0f9f90023df
:10250c000c933800aee6c0460000f07f4cda0000b9
:10251c000000f03f0000b03f00002040069b0294fa
:10252c00039501330693029a039b1000190002f0e5
:10253c009dfc04000d0002000b000898310009f00e
:10254c0097fd0028ead0029a039b0898310009f005
:10255c008ffd002800d1cbe60298039900223f4b57
:10256c0002f02aff002200230af019fa00280fd0eb
:10257c000298039900223a4b02f01eff00220290af
:10258c000391374b0898310002f016ff0e000890ab
:10259c00324b02980399002202f00eff069b029028
:1025ac000391013b0693cee700232e4c0690029339
:1025bc000394b8e70f9ba8e6002300240a930b941e
:1025cc00f7e6109a002a0ad1089a002a07d02e2280
:1025dc00ba55079a0134013a0792012210922e192a
:1025ec00302201e03a550134b442fbd11800079a6d
:1025fc005730551b092b01dc303318000e9b192b5f
:10260c0006d820230343613b192b01d80bf045fa64
:10261c006b1e741cb85507930025f7e606980a2123
:10262c0005f044ff013d3031795506980a2105f03b
:10263c00f3fe079b0690013b07932fe7079b3a5c41
:10264c00023bfb181a54013850e7099bdb0600d4f7
:10265c0017e72e233b55013413e7c0460000e03f3b
:08266c00000050430000f03fa4
:020000040000fa
:10267400f0b5de4657464e464546e0b5b9b0cb4bbd
:102684001c68002c03d0ca4b20330393a5e0c9492e
:102694004a780131c84806f003fe00280bd0c34b2a
:1026a4001c68002cefd1012039b03cbc90469946ff
:1026b400a246ab46f0bdc14b1b78002befd1bf4bfc
:1026c40001221a70ebe700236375bd4e12339c465a
:1026d400a4446346029337004837032231680298c2
:1026e4000af055fa002800d1ece10c36be42f4d1d0
:1026f400002323826de00d283dd00a283bd0082812
:1027040000d173e17f2800d1a4e11b2800d1c1e1ed
:10271400e16920239846a0444346cb1a4f2b00dda1
:10272400c1e1a369cb1a00d1b9e14a1ed843091803
:1027340010785070013a9142fad1e269511ce1617a
:1027440000215170a269013299494431200072304c
:102754000bf012f87123e75433682100713128001b
:102764009847a3691f70a3690133a361e269934287
:102774002fd9e3612de020239a46a244e36953450f
:1027840057d0904968312800336898470023e2699c
:1027940013705346a361e3612022002106a80bf0c5
:1027a400abf867680497512251460ea80bf0c2f9a2
:1027b400082206a90ea806f0e1f9814600283ed1b8
:1027c40023681b68804938009847336803992800b8
:1027d4009847a468002c00d165e72668656828003e
:1027e400f36898470028f4d0280033699847070015
:1027f4001021635e002b00d17de7e2189074013351
:102804001db22582032d00d15de7022de1dde668ce
:10281400b3689d42ddd13168200012300af0b7ff61
:10282400002803d1736831002000984700232382d5
:10283400cfe766493368183128009847c9e700286c
:1028440006dc614923681b68703104989847bce72b
:10285400cc23e3582200cc325768bb423bd0796882
:102864002200cc3251600b60cc23e35852685a608a
:1028740038000830512251460bf05cf9cc23e35860
:10288400002b30d03b60cc232200cc3252687a60db
:102894001760e2585760e750d4230022e250069ba9
:1028a40002934b4f3b00243294466344a0462c00d1
:1028b4001d00396802980af06aff00281bd00c3703
:1028c400af42f6d125004446424bb34605951e005f
:1028d400d046a2463ae00022cc2162502100cc31fd
:1028e4004a601f00c4e7cc33e7502300cc335f6059
:1028f4003f607f60d0e7250044464b46082b07dd48
:10290400314923685b6808223831049898475ce7aa
:102914007b6806aa49464046984756e754465e46b1
:10292400059d294923685b68082238310498984733
:102934004be754465e46059d7b6806aa49465046c9
:10294400984742e71836244b9e4247d07468002cbf
:10295400f8d03569002d13d05122414623a80bf03d
:10296400e9f873690093512323aa51462000a8472c
:10297400002837d1082206a923a806f0fff88146cb
:102984004b46082bcadc77683468002cdad0069be7
:1029940002930025396802980af0f9fe0028c8d08d
:1029a40001350c37a542f5d1cce7c046f8530020d9
:1029b400c04300003454002048d80000d454002000
:1029c400a0b700004042000040430000c0420000a5
:1029d400accf0000884b0020484c002054465e4693
:1029e400059d2ee754465e46059deee6a16923004b
:1029f4002033994200d8ece6e36999421ed24a1e7c
:102a04005b1a06d0581e0918507810700132914292
:102a1400fad1a269013aa261e269013ae2610021b4
:102a240011702949a26924312700713738000af04e
:102a3400a3fe3368390028009847cae62249336860
:102a4400303128009847a369013ba361e369013b46
:102a5400e361bee6e369a269934200d8b9e6511c7a
:102a64005b1a05d0d0185178117001328242fad124
:102a7400e269013ae261002111701349a269383117
:102a84002700713738000af077fe336839002800d0
:102a940098479ee61b23a3740123238299e672239d
:102aa4000022e25456e6084f39004c3128003368be
:102ab40098474346a361e361390020313368280015
:0c2ac400984786e6e660a2e6c0430000ea
:020000040000fa
:102ad000f0b58bb0040001910292242901d801299c
:102ae00003d11622b84b1a6056e0e36be26c9342b6
:102af00024d25a1ce2631d78202df6d02b00093b0e
:102b0000042bf2d90222223b9343002203929342e8
:102b10000bd12d3d6b425d416b420393e26ce36b45
:102b2000934210d25a1ce2631d78019be26c002b89
:102b30000ed0102b54d1302d0cd051e0200008f0d5
:102b4000bdf90500d8e7200008f0b8f90500ece76a
:102b5000302d43d1e36b934224d25a1ce2631d789b
:102b600020232b43782b2ed1e36be26c93421ed2b1
:102b70005a1ce2631d781022944b01925b5d0f2b6f
:102b800000d8c7e0e36c002b00d1a9e1029ae36b07
:102b9000002a11d0023be3630026002730003900f1
:102ba0000bb0f0bd200008f089f90500d8e720003f
:102bb00008f084f90500dee7013be3630021200013
:102bc0000af083fce8e7019b002b00d1a0e0019b09
:102bd0000a2b00d09ee0002302931de00a230193fc
:102be0007a4b01995b5d8b42f1d3002a02d0e36bf3
:102bf000013be363002120000af067fc71e70a2330
:102c0000029a5343e26c5d19e36b303d02959342a7
:102c100068d25a1ce2631d782b00303b092b03d885
:102c20006b4b029a9a42ead90027029e2b00303b56
:102c30000293092b33d8674b9f4213d802d1664bbe
:102c40009e420fd800230a223000390008f0f6ff18
:102c5000029b049300230593049bdb434a1c46d14b
:102c6000984244d9594b019a5b5d934217d2e36b6a
:102c7000e26c934200d318e15a1ce2631878534b7c
:102c8000019a1b5c9342f2d3109e119f22224e4b5d
:102c90001a600123109a134201d000230393e36cbe
:102ca000002b02d0e36b013be363119bbb4200d9d5
:102cb0000ce103d1109bb34200d907e10123109a24
:102cc000134200d0f5e0039b002b00d0f1e022225c
:102cd00001267642f7173c4b1a60109b119cf618a0
:102ce00067415be7200008f0e9f8050094e7e36b33
:102cf000e26c049e059f36184f41934203d25a1c42
:102d0000e2631d7892e7200008f0d8f805008de70f
:102d100008230193019b5e1e3340029300d0bce068
:102d2000019a173353432d4a1b065b0fd35c049360
:102d3000264b019a5b5d9a4203d9294a0299914236
:102d40002bd9049a01204042c1170af0c7fc002782
:102d5000029e089006911d4b5b5d0293029a019bb7
:102d6000934200d87ee7069b9f4200d97ae703d1c1
:102d7000089b9e4200d975e7049a300039000af09a
:102d8000b9fc029be26c03431e00e36b0f0093420d
:102d900015d25a1ce2631d78dde7029e049a964024
:102da000e26c1e43e36b0296934203d25a1ce26329
:102db0001d78bde7200008f081f80500b8e7200085
:102dc00008f07cf80500c6e7b4540020266900002e
:102dd0009899991999999919999999991c69000043
:102de000ffffff07029e019a5643f3180293e26c1d
:102df000e36b93424cd25a1ce2631d783c4b019a20
:102e00005b5d9a4203d93b4a02999142ead9002775
:102e1000029e374b5b5d0293029a019b934200d85e
:102e200020e7002f17d01a0000233000190008f007
:102e300005ff002304913a001900019808f0fefef6
:102e4000049b089300230993089a099b8018594111
:102e5000002900d006e73b0032000198002108f06d
:102e6000edfe029b069300230793069bdb434a1c5f
:102e700002d1984200d9f5e6069e079fe36be26c0b
:102e800036184f4193420bd25a1ce2631d78c0e7bb
:102e9000200008f013f80500b0e700230293ade727
:102ea000200008f00bf80500b3e7200008f006f852
:102eb000e5e6119b9f4203d808d1109b9e4205d99d
:102ec000109e119f22220c4b1a6067e6039b013370
:102ed00000d063e633003c0000275e42a7415de678
:102ee000029b00260027002b00d057e666e6c0466e
:0c2ef00026690000c6711c07b4540020c5
:020000040000fa
:102efc00f0b583b0050004780b2c2dd8a300c74a7d
:102f0c00d3589f46c64cfa277f003a000021200078
:102f1c000af0eefcc34e3a00002130000af0e8fc47
:102f2c00c14b186805f0aafc0023c04a1370c04ab4
:102f3c001370c04a1370c04a1370c04a1370c04a51
:102f4c001660c04a1460c04a012151702b700022d7
:102f5c002900be480af000f803b0f0bd6b46002211
:102f6c00da71bb4b186809f001faba4b18600028eb
:102f7c0000dc86e0b84b1b78002b1fd0b54ea94f58
:102f8c00b34b18683268390009f0d4f9a74a1378a2
:102f9c0031688c4663441370b0493a000431002008
:102fac0006f0cefe3378002b65d0a54b1b681b7842
:102fbc0000260a2b46d0a94f08372ae0a64b01223f
:102fcc001a70a74e0023726969460731a54807f0ad
:102fdc00b7feb060431cd1d19f4b00221a70cde7d5
:102fec00934b00221a70964b1a68905d914b19788e
:102ffc00944b1b689b1958549b4b0121197001343d
:10300c00e4b2944b1b78a34235d92600135d0a2bee
:10301c0018d0262be4d1864a13780133dbb2137017
:10302c00022be0d90023884a5370814a13707e4bdf
:10303c00186806f0b7fb3900002009f0f7fa08f021
:10304c0019fed0e7864b986808f074ff774b1a7816
:10305c0086494723c95c7f235b1adbb2934207d2b4
:10306c00754b01211970e82a02d9744b01221a7090
:10307c007d4b00221a706f4a764b1b6811785b18d7
:10308c001370714b5b78012b00d065e7764b1b7886
:10309c00002b07d16f4b1b68002b03d0634b1978a7
:1030ac00002907d100232b7000222900674809f062
:1030bc0053ff51e7604b1b78002b15d05f4b1b78ef
:1030cc00002b07d007232b70002229005f4809f042
:1030dc0043ff41e7654a4733d35c7f21c91ac9b224
:1030ec004f4802f0cffa37e7012903d14c4b1b783c
:1030fc00002b03d04a4802f0c5fa2de700222a70b3
:10310c002900524809f028ff26e7fa24640022001f
:10311c00002143480af0ecfb2200002141480af050
:10312c00e7fb0023414a1370414a1370414a137064
:10313c00454a01215170404a1370404a1370464a67
:10314c0013702b7000222900404809f005ff03e79b
:10315c00394b00221a70464809f054fd434a472364
:10316c00d35c324a117859187f39c9b27f20c01a02
:10317c002b4bc01802f086faeee6334b5b78012b32
:10318c0000d0e9e6394a4633d15c7f235b1adbb2c7
:10319c00264a11788b4216d2274a01201070e82952
:1031ac0001d9264a1070304a1278002a13d0234acb
:1031bc001278002a28d007232b70002229002348dc
:1031cc0009f0cafec8e6284a1278002a17d11a4b11
:1031dc001b78002b03d0194b1b78002bebd100294b
:1031ec0005d0012915d10e4b1b78002b11d10723cb
:1031fc002b7000222900154809f0aefeace60e4af1
:10320c001278002aebd0d2e71900054802f03afafe
:10321c00a2e6034802f036fa9ee6c04670c70000ec
:10322c00444700205045002054540020f752002001
:10323c00f6520020c6540020c8540020c754002069
:10324c00f44e002034520020c454002014540020aa
:10325c00205400203c430020f55200206c640000f8
:10326c001453002015d200001f540020f84e0020eb
:10327c00102700006b46de1d0023337001308022c6
:10328c00520000210af034fb144c00232269310057
:10329c00134807f055fd6060431c00d05ce6092321
:1032ac002b70002229000f4809f056fe54e60e4bf5
:1032bc0002225a70012007f0d7fa4de6022007f0df
:1032cc00d3fa49e6002007f0cffa45e6032007f0d1
:1032dc00cbfa41e6042007f0c7fa3de61453002070
:0c32ec00f9d1000014540020c45400204c
:020000040000fa
:1032f800f85200201c00000000000000f84e0020da
:103308007000000000000000c4540020020000000b
:1033180000000000684f002070000000000000005e
:1033280050450020f4010000000000001f54002058
:103338000100000000000000f5520020010000001c
:1033480000000000402f0020000a000000000000dc
:10335800f652002002000000000000003c4300205c
:103368000400000000000000c65400200100000016
:1033780000000000f44e00200400000000000000df
:10338800345200200400000000000000c754002050
:10339800020000000000000044470020f401000083
:1033a80000000000c95400200200000000000000d6
:1033b800e84c00208c00000000000000e8530020ca
:1033c8000800000000000000205400200400000055
:1033d8000000000038520020a0000000000000009b
:1033e80018540020070000000000000014530020bb
:1033f8001c00000000000000cb5400200200000068
:1034080000000000a4500020500000000000000050
:10341800cd540020020000000000000024540020c9
:103428000400000000000000cf540020010000004c
:1034380000000000744d0020800000000000000023
:10344800d054002003000000000000002854002091
:1034580004000000000000003053002018000000a5
:10346800000000002c5400200400000000000000b0
:10347800ac5300200c00000000000000d8520020cf
:103488001d0000000000000030540020040000006f
:1034980000000000d84f0020680000000000000075
:1034a80040390020fc05000000000000b85300204f
:1034b8001800000000000000c84a0020c0000000fa
:1034c80000000000d35400200100000000000000ac
:1034d800085200202c00000000000000f44d0020dd
:1034e800000100000000000088510020400000009a
:1034f80000000000f0530020100000000000000051
:10350800345400200400000000000000d4540020bf
:1035180001000000000000003c3f00200004000003
:1035280000000000385400200400000000000000e3
:10353800884b0020c000000000000000d05300208d
:103548000c00000000000000384900209001000035
:10355800000000003c5400200400000000000000af
:10356800d55400200100000000000000dc530020ba
:103578000c00000000000000c851002040000000be
:1035880000000000484c0020a000000000000000df
:10359800d6540020020000000100000001000000d5
:1035a8004451002044000000000000004054002066
:1035b8000c0000000000000000540020080000007b
:1035c800000000004c540020100000000000000023
:1035d800d85400200400000001000000aaaaaaaaea
:1035e8005c540020040000000000000000000020df
:1035f800402f00000000000060540020140000006c
:10360800000000000854002008000000000000002e
:10361800745400200c0000000000000040500020fe
:103628006400000000000000805400201400000026
:10363800000000004853002028000000000000009f
:103648009454002010000000000000007053002077
:103658001400000000000000a45400200400000032
:103668000000000084530020280000000000000033
:10367800a85400200800000000000000105400209a
:103688000800000000000000b054002008000000fe
:1036980000000000f450002050000000000000006e
:1036a800404300201002000000000000b854002031
:1036b8000c000000000000000000000000000000f6
:020000040000fa
:1036c8000023f0b506001500b1b0079103930799e0
:1036d8000b78002b00d10de101235b420c9310ab5a
:1036e80000240e9380230b940d940f930b5d002bf5
:1036f80001d0252b2ad1002c06d02200300009f059
:10370800adfb079b1b190793079b1a78252a00d046
:10371800e5e0013304930793022301219c46102717
:10372800079803782b2b1ad025d8202b1ad0232bb7
:103738001dd02a2b28d008f01ffc0d90079b1a7863
:10374800303a092a31d801330793f7e70134cde736
:103758000b9b05930b4301300b930790e0e7042381
:103768000b9a0fe00b9b0593059a08230ae00b9b25
:1037780005933b43efe72d2bead0302bd9d1624696
:103788000b9b05931343e6e72b6801301a1d1b6852
:1037980007902a600d93002b07da0b9a5b4205927b
:1037a800012205990d934a400b920b9bda0702d52b
:1037b800022293430b93079b1a782e2a0ed10022dc
:1037c800581c0c9207905a782a2a28d1023307935a
:1037d8002b681a1d1b682a6005930c9307a808f02c
:1037e80075ff079b070018780af052f9692800d17d
:1037f80083e035dc632800d1dde01bdc252800d11f
:10380800eae0612859d0049b012207930023524221
:103818000c920b930d93784900930232e7e008f07d
:10382800abfb0c90079b1a78303a092ad6d801339b
:103838000793f7e7642860d06728e4dc2a0039009a
:1038480008a809f0b7f9002800d1b0e0079b0ba938
:103858005a1c07921b7808aa3000fef765fa3de06b
:10386800702800d17de016dc6e2800d198e06f2822
:10387800c9d12b000022390008a804f045fa002815
:1038880000d194e0079b08aa01330ba930000793e5
:1038980006f072fb22e0752840d078284fd07328b4
:1038a800b1d1802f00d082e0079b2a6801330793ab
:1038b800131d2b601268002389e02a00390008a82c
:1038c80009f078f9002800d171e0079b0ba95a1c70
:1038d80007921b7808aa3000fef784fc2418039b83
:1038e8001c19a34200dc84e04f22444b1a600123d8
:1038f8005b420393039831b0f0bd2b0001223900dd
:1039080008a804f001fa002851d0079b08aa01333f
:103918000ba93000079304f025fcdfe72b000022f9
:10392800390008a804f0f0f9002840d0079b08aa3d
:1039380001330ba93000079307f0f4fbcee72b0007
:103948000022390008a804f0dff900282fd0079bcf
:103958005a1c07921b7808aa0ba9300002f069fcd0
:10396800bce72b000022f02108a804f0cdf90028bc
:103978001dd0079b099a01330793089b13430dd168
:103988001d4f1637380009f08dfe390002000b9bd9
:1039980000930d9b300005f0c0ff9fe77823dae71e
:1039a800039b39001a1908a82b0006f0cdfd079bc8
:1039b8000133079393e7802ff9d1079b01330793ce
:1039c8002b681a1d1b682a6008aa137001230ba90b
:1039d800300007f01dfd81e7802fe8d10122079b09
:1039e8000549013307930b9b049300930d9b1c31ee
:1039f800d0e703946be6c046bcd10000b454002065
:020000040000fa
:103a080010b582b00400c3886a4613806946532003
:103a180000f0d2fa002825d16946532002f034fa82
:103a2800002803d16b461a88bb4bda8063886a4644
:103a380013806946502000f0bffa00281ad1694661
:103a4800502002f021fa002803d16b461a88b24ba5
:103a58005a803d23e35c0d2b13d9b04b0c221a700e
:103a68000c2005e003f058f9ac4b0b221a700b2020
:103a780002b010bd03f050f9a84b0b221a700b20ae
:103a8800f6e76a4613706946032000f095fa0028a5
:103a98002bd16946032002f0f7f9002804d16b46c0
:103aa80019789d4a3d23d1546378132b24d89c4a16
:103ab800da40d20720d56a4613706946042000f020
:103ac8007bfa00281dd16946042002f0ddf90028a0
:103ad80003d16b461a78904b5a7023780a2b17d962
:103ae8008e4b0c221a700c20c2e703f015f98b4b91
:103af8000b221a700b20bbe7884b0c221a700c2083
:103b0800b6e703f009f9854b0b221a700b20afe7d3
:103b18006a4613706946002000f04efa00282ad140
:103b28006946002002f0b0f9002803d16b461a78e4
:103b3800794b1a70a26ae36a009201936946f020f1
:103b480000f03afa00281dd16946f02002f09cf9ed
:103b5800002806d1009a019b6f498a62cb628a606d
:103b6800cb604323e35cda1e052a12d96b4b0c2287
:103b78001a700c207ce703f0cff8684b0b221a7000
:103b88000b2075e703f0c8f8644b0b221a700b2062
:103b98006ee76a4613706946572000f00dfa002850
:103ba80013d16946572002f06ff9002804d16b46fb
:103bb8001978594a4323d1544423e35c032b0bd986
:103bc800564b0c221a700c2052e703f0a5f8534b01
:103bd8000b221a700b204be76a46137069464f2078
:103be80000f0eaf900283fd169464f2002f04cf96d
:103bf800002804d16b461978474a4423d15421231d
:103c0800e156cbb21a001932d2b2242a33d842482c
:103c180021228154002932db6a461370694602204a
:103c280000f0caf900282fd16946022002f02cf9c9
:103c3800002804d16b461978374a2223d1543f22f1
:103c4800a15c354b9954628a5a823b22a15c9954f3
:103c5800216b626b19635a634223e35c072b19d902
:103c68000c202e4b187003e703f056f82b4b0b2251
:103c78001a700b20fce60c20284b1870f8e6023a64
:103c8800134001321343c7e703f046f80b20234bd8
:103c98001870ede66a4613706946592000f08cf9f1
:103ca800002812d16946592002f0eef8002804d104
:103cb8006b461978184a4223d1544023e35c052bfc
:103cc80009d90c20154b1870d2e603f025f80b2003
:103cd800124b1870cce66a46137069464e2000f005
:103ce8006bf9002812d169464e2002f0cdf8002861
:103cf80004d16b461978084a4023d1544523e15c26
:103d0800054ad1540a20054b1870b1e603f004f8af
:103d18000b20024b1870abe6f84e0020c45400206c
:043d280025000f0063
:020000040000fa
:103d2c00e00d0000a1d20000e80d0000040e000020
:103d3c0081bd0000100e0000600e0000b193000069
:103d4c006c0e0000ac0e0000917b0000bc0e00005d
:103d5c00f40e0000e9480000040f00004c0f0000b6
:103d6c0041bd0000580f0000800f0000e18e0000e4
:103d7c008c0f0000bc0f000045b90000cc0f0000f8
:103d8c00f40f000025890000041000003c10000016
:103d9c0001bd0000481000006c1000009d9900004f
:103dac0078100000a41000004dd20000b0100000ec
:103dbc00d810000049a70000e41000001c110000fe
:103dcc0031d200002c11000058110000a19e0000ff
:103ddc0068110000ac11000035c50000b0100000e7
:103dec00b8110000158c0000c4110000f81100007f
:103dfc00b9b40000041200002c1200007185000000
:103e0c003812000068120000c9b6000074120000dd
:103e1c009812000021820000a4120000d0120000b1
:103e2c0001c50000dc1200000413000081a6000094
:103e3c00101300004c130000bdc000005c13000008
:103e4c0084130000f19b000094130000cc130000bd
:103e5c00c1bd0000d81300002814000001be0000f2
:103e6c00341400008814000085d200009414000063
:103e7c00b4140000659c0000b8140000f414000099
:103e8c00f16f00000815000078150000f5510000d6
:103e9c0088150000d4150000ddd90000d8150000ed
:103eac00f81500001da60000fc15000038160000d7
:103ebc00c9a00000481600009016000015d500009f
:103ecc00a0160000e016000079b80000f016000003
:103edc0020170000bdb800002c170000541700007c
:103eec0009ca000064170000981700003d960000f6
:103efc00ac170000e41700008b730000f4170000ef
:103f0c0034180000cf7d000044180000ac180000ed
:103f1c002d930000bc180000dc1800008178000014
:103f2c00ec180000181900000d9100002819000071
:103f3c009019000073af00009c190000e4190000f8
:103f4c0061d00000f4190000381a000035a90000f7
:103f5c00481a0000d01a000089b90000e01a0000cd
:103f6c00441b0000e5d40000541b0000941b00000f
:103f7c00b5da0000a41b0000d81b000005b500003a
:103f8c00ec1b0000641c000017550000701c0000a6
:103f9c008c1c0000276a0000a41c0000c81c000038
:103fac0035ca0000e01c0000fc1c0000a1c700008a
:043fbc00141d0000d0
:020000040000fa
:103fc00070b50d009b4b1c78042c00d120e14e28cd
:103fd00007d059280ad10a78974b1a770024200075
:103fe00070bd0a78944b1a750024f8e7914b5b7802
:103ff0000f2b00d10ee10b2800d1ffe018d9532878
:1040000000d1aee078d84f2800d199e0892450281b
:10401000e5d1894c0b880978a1731b0ae373222030
:1040200006f0faf9e17b232006f0f6f90024d6e742
:10403000022800d1cae01fd9032800d1d4e0042807
:1040400058d1002c00d0ebe0082b00d1ece0082088
:1040500000f02cfa0828fad12e78300000f038fd54
:104060000500162000f022fa002d00d1dae0724b94
:104070001e7604f02df9b2e7002839d1002c00d0cb
:10408000cae06d4b1b7e052b7ad00a786b4bd34070
:10409000db0700d4c2e0684bde7c2a78da7404f0d7
:1040a00017f9644b5d78082d05d0082000f0fef963
:1040b0000828fad11625604b187e052867d05e4b7c
:1040c000db7c002b01d0002e6bd100f001fd07f04e
:1040d0001ffb594bd87d07f03bfa0100052006f085
:1040e0009bf9082d00d17ae7162000f0dff976e77a
:1040f000892474e7892472e7572858d08924f02846
:1041000000d06ce70a684b684b4d2a70110a697041
:10411000110ca970120eea702b711a0a6a711a0238
:10412000120eaa711b0eeb7124242978200006f0d0
:1041300073f901350134e4b22c2cf6d100244ee79a
:104140000b783d4a5375d27e934201d93a4b5a754a
:10415000394b5b7d00220f212f2008f0bbfe00248d
:104160003de7354c0b88097821731b0a63732020c7
:1041700006f052f9617b212006f04ef900242ee76b
:104180000a780a33d340db0785d4882427e7db7c11
:104190005b000b33dbb20022ff210e3008f09afee9
:1041a0009fe700221f21082008f094fe99e70b7872
:1041b000214ad376527d9a4201d91f4a537504226f
:1041c000f0212f2008f086fe002408e70b781a4c17
:1041d000e37507f09dfae07d07f0baf901000520cc
:1041e00006f01af90024fae60b78134a93740522b4
:1041f0006021082008f06efe0024f0e60b780e4add
:104200009375032208212e2008f064fe0024e6e6c0
:104210008624e4e68124e2e68624e0e68824dee6dd
:104220008624dce68824dae60e78300000f050fcc4
:10423000050019e730530020d8520020ff07000086
:020000040000fa
:104240000d0a2d2d2d2d2d2d2d20537570706f7273
:1042500074656420636f6d6d616e642067726f7545
:104260007073202d2d2d2d2d2d0000000d0a202adc
:104270002a2a2000202a2a2a000000000d0a2d2dbb
:104280002d2d2d2d2d2d2d2d204275696c7420691d
:104290006e20636f6d6d616e6473202d2d2d2d2d3d
:1042a0002d2d2d2d2d0000000d0a00000d0a556e3c
:1042b0006b6e6f776e20636f6d6d616e64206772d9
:1042c0006f75702e205472792068656c700d0a002d
:1042d00008200800080000000d0a3e001b5b256452
:1042e000430000001b5b2564440000000d0a202ae7
:1042f0002a2a205175697474696e67207468652074
:10430000436f6d6d616e642050726f636573736f80
:10431000722e20427965202a2a2a0d0a0000000008
:104320000d0a202a2a2a2053797374656d2052655c
:10433000626f6f74202a2a2a0d0a000020092c00bf
:10434000202a2a2a20436f6d6d616e642050726f9f
:10435000636573736f723a20506c65617365207486
:1043600079706520696e206120636f6d6d616e6488
:104370002a2a2a0d0a0000000a0d20546f6f206db2
:10438000616e7920617267756d656e74732e204d54
:104390006178696d756d20617267732073757070d7
:1043a0006f727465643a202564210d0a00000000d4
:1043b000202a2a2a20436f6d6d616e642050726f2f
:1043c000636573736f723a20756e6b6e6f776e20d4
:1043d000636f6d6d616e642e202a2a2a0d0a00001b
:1043e0003e000000081b5b4b25731b5b25644400eb
:1043f000081b5b4b000000001b5b4b25731b5b2500
:104400006444000025731b5b25644400202a2a2a8b
:1044100020436f6d6d616e642050726f63657373be
:104420006f72206275666665722065786365656483
:1044300065642e2052657472792e202a2a2a0d0a6c
:104440000000000072657365740000003a20526538
:1044500073657420686f73740000000071000000c1
:104460003a207175697420636f6d6d616e642070a0
:10447000726f636573736f720000000068656c7023
:10448000000000003a2068656c7000001b5b410072
:104490001b5b42001b5b43001b5b44001b5b317ecc
:0c44a000000000001b5b347e0000c046e2
:020000040000fa
:1044ac0070b50400854b5b780f2b07d00338c2b274
:1044bc00162a6ed89000824a125897460f287dd043
:1044cc007e4d00232b7108f0edfc08236b70082c3b
:1044dc0000d1efe0032c00d1eee0201fc3b2152b6e
:1044ec0057d89800774b1b589f460321022005f0a4
:1044fc008dff09f0c9f80400c1b22d2005f086ff2c
:10450c00a3b21b0a002207212e2008f0ddfc0f208d
:10451c0005f00afe10210e2005f078ff012008f0ae
:10452c00e5fc694a982380210902d150232008f028
:10453c00ddfc624b0f225a700f203fe05f4b5b7823
:10454c00082b26d00821022005f060ff012008f07e
:10455c00cdfc1ee0082b1cd00321022005f056ffd9
:10456c00012008f0c3fc14e0544b5b78082b26d0d8
:10457c000dd9162b01d0192b0bd10821022005f0d7
:10458c0045ff012008f0b2fc07f034fd01e0062bda
:10459c00f3d0012005f0c8fd1f231840474b58707d
:1045ac0063241d001f2809d1012005f0bdfd1f2328
:1045bc0018406870013ce4b2002cf3d170bd07f0d8
:1045cc0019fde6e73d4b5b78082b06d0092be0d0b4
:1045dc000421022005f01affdbe707f00bfdd8e7fa
:1045ec00364b5b78092b0ed009d8082bd1d106217c
:1045fc00022005f00bff012008f078fcc9e7162b10
:10460c0001d0192bc5d10821022005f0fffe012095
:10461c0008f06cfc0621022005f0f8fe012008f0e1
:10462c0065fcb6e7254b5b78082b16d004d9092b13
:10463c0004d0192badd101e0062baad10821022000
:10464c0005f0e4fe012008f051fc1621022005f0d3
:10465c00ddfe012008f04afc9be71621022005f044
:10466c00d5fe012008f042fc93e7144b5b78082b35
:10467c0018d005d9092b06d0162b00d089e702e0fb
:10468c00062b00d085e70821022005f0bffe012093
:10469c0008f02cfc1921022005f0b8fe012008f0ce
:1046ac0025fc76e71921022005f0b0fe012008f068
:1046bc001dfc6ee7200081e708207fe730530020c7
:0c46cc0004800000608000000028004016
:020000040000fa
:1046d80030b583b0784b1b7e002b3fd1774b1b7ec8
:1046e800002b00d066e0764b1b7e002b00d08ce0c0
:1046f800744b1b7e002b00d0b2e0734b1b7e002b4b
:1047080056d0714c00232376704b9a697049483112
:10471800002005f017fb6f4b196d5a6da160e26020
:10472800996cda6c21606260996dda6d2161626161
:10473800002000219865d9659864d9641865596581
:10474800654808f061faa268e368206861686569ed
:1047580024690094019504f079fb29e0564c002364
:1047680023765e492031002007f062ff594b196d0e
:104778005a6da160e260996cda6c21606260996d93
:10478800da6d21616261002000219865d96598641d
:10479800d96418655965504808f036faa268e36884
:1047a80020686168656924690094019504f04efbee
:1047b80003b030bd414c00232376484944310020e2
:1047c80007f036ff434b196d5a6da160e260996c92
:1047d800da6c21606260996dda6d21616261002096
:1047e80000219865d9659864d964186559653a486f
:1047f80008f00afaa268e3682068616865692469b4
:104808000094019504f022fbd2e72d4c0023237677
:1048180032497031002007f00bff2e4b196d5a6d8d
:10482800a160e260996cda6c21606260996dda6d62
:1048380021616261002000219865d9659864d96476
:1048480018655965244808f0dff9a268e36820680c
:104858006168656924690094019504f0f7faa7e78f
:10486800184c002323761a492031002007f0e0fe77
:10487800184b196d5a6da160e260996cda6c216071
:104888006260996dda6d216162610020002198658e
:10489800d9659864d964186559650f4808f0b4f962
:1048a800a268e368206861686569246900940195d5
:1048b80004f0ccfa7ce7c0465852002098520020f9
:1048c8003852002078520020b8520020145300209b
:1048d800580d0000f84e002040420f00d80c000090
:020000040000fa
:1048e80030b587b01400002315226a44137005aa56
:1048f8001370022977dd17216944606805f074fb9d
:10490800002873d017236b441a78f02a00d96fe077
:1049180069493831002005f015fa17236b441b78d4
:10492800002b0ad0da1e012a07d94e3bdbb20b2b2b
:104938001bd8624ada40d3071cd516216944a068ff
:1049480005f052fb002810d016236b441b78322b3d
:1049580052d802a90b7017236b441878fff72cfb69
:10496800050002f0d9f9002d4ad017236b441b78b3
:10497800022b56d017236b441b78532b01d0502b96
:1049880034d1a0686b46991d05f016fa00282dd081
:104998006b469d1dda884a4c21002831002005f01d
:1049a800d1f921004c31002005f0ccf902a92b885f
:1049b8000b8017236b441878fff7fefa040002f007
:1049c800abf9002c12d117236b4418786b46991d4c
:1049d80001f05afa002809d16b46da883849703153
:1049e80005f0b0f902e0032002f0aafd07b030bddf
:1049f800052002f0a5fdf9e7052002f0a1fdf5e785
:104a080017236b4418781621694401f03dfa0028f1
:104a1800abd116236b441a782749543105f092f923
:104a2800a3e705a9a06807f047f90028a2d005abbd
:104a38001b780c33dbb21a2b36d8224a2123d256e4
:104a48001d497431002005f07df905ab00229a5606
:104a580020231100203105db013b1f2a02dc002a3c
:104a680026dbd3b215226a44137002a90b701723f0
:104a78006b441878fff7a0fa050002f04df9002df5
:104a880000d077e717236b4418781521694401f0a3
:104a9800fbf9002800d06de715236b441a78084904
:104aa800103105f04ff965e7052002f049fd9de753
:104ab800134020221343d5e7580800000b0a0000d2
:084ac800d8080000f84e0020a0
:020000040000fa
:104ad00010b5734b1b7e002b00d1cae0704b0a222d
:104ae0001a74093a5a7408230132c9e003220821d2
:104af0000c3008f0eff9032300220321162008f000
:104b0000e9f90023042210210c2008f0e3f9644b9a
:104b1000db7c002b20d1022204210c2008f0daf9e2
:104b2000002302220421172008f0d4f95c4c012351
:104b30005b422372083363720023a372e372002284
:104b40000721142008f0c6f9e37c00221f21082069
:104b500008f0c0f90123a0e00123022204210c2067
:104b600008f0b8f9dce70123032208210c2008f043
:104b7000b1f9022300220321162008f0abf900232b
:104b8000002203210c2008f0a5f9002304221021a3
:104b90000c2008f09ff9424bdb7c002b20d1022235
:104ba00004210c2008f096f900230222042117208a
:104bb00008f090f93a4c01235b4223720833637288
:104bc0000023a372e37200220721142008f082f967
:104bd000e37c00221f21082008f07cf901235ce01f
:104be0000123022204210c2008f074f9dce70123e0
:104bf000032208210c2008f06df902230022032172
:104c0000162008f067f90023002203210c2008f089
:104c100061f90123042210210c2008f05bf9012323
:104c2000022204210c2008f055f90023022204215d
:104c3000172008f04ff91a4b0f221a7200225a72ed
:104c40009a72da72db7c032b01d9154bda740423d8
:104c500000220721142008f03df9114bdb7c5b009a
:104c60000b33dbb20022ff21132008f033f90123bc
:104c700013e00b4b28221a74243a5a74202304326e
:104c80000749d3184b768a76022800d16be70528ae
:104c9000add00023002800d128e7180010bdc04681
:044ca000d8520020c6
:020000040000fa
:104ca400f0b5c64600b584b001900f00029396009b
:104cb400300001f0f1fb051e00d1bae0542001f0f0
:104cc400ebfb041e58d005633200a521280008f030
:104cd40013fe236b9846002f54d03b783422a35400
:104ce400002b09d0012321003431fa5cca54002a74
:104cf40002d00133102bf8d143230022e2540a9d41
:104d0400042d00d90425e56265640027a764231dea
:104d14000393180008f063ff2000183008f05fffc9
:104d2400246105235b1ba3616462e7645023e75499
:104d3400301f4044493b9843029a019908f0eef928
:104d440020600b9b002b00d01c6008f07dfc3c4acb
:104d54001368013313603b4b1b68002b16d03a4b8e
:104d64001b68002b17d1374b1b68db6ae26a93423e
:104d740011d8344b1c600ee0280006f07df90120a8
:104d8400404258e034230022e254b8e72d4b1c6023
:104d94001368012b23d02d4a136801331360e36a8f
:104da4002b4a1268934201d9294a13609800c0180b
:104db4008000284b1818039908f0c8fc08f056fd29
:104dc400214b1b680120002b35d01e4b1b68da6a6f
:104dd400e36a9a422fd208f02bfc01202be01d4df0
:104de400280008f0a8fc2800143008f0a4fc2800cf
:104df400283008f0a0fc28003c3008f09cfc280077
:104e0400503008f098fc144e300008f094fc134d18
:104e1400280008f090fc124808f08dfc114808f0b6
:104e24008afc114808f087fc104b1e60104b1d6073
:104e3400b1e70120404204b004bc9046f0bdc04636
:104e44008054002074540020a45400208c5400206a
:104e54009054002040500020485300205c53002010
:104e6400705300209853002084530020785400206d
:044e74007c5400204a
:020000040000fa
:104e7800f0b40125ed070f005f405ad48b4200d1f2
:104e8800824205d950404240504059404b40594019
:104e98004e18760ddf187f0d3bd0741c640529d0a1
:104ea800f41b352c26d80e0ddb022b43db0ac90276
:104eb8002943c9121700202c1ed2e741e24057406f
:104ec800e3415a40a340e3405a4000248018594126
:104ed8000ad3b21c520521d0c207012f6241170024
:104ee8004008cb0718434908013636054208af4148
:104ef80060417141f0bc7047203c06d01f00e7417b
:104f0800e3405f400024012a6741c0186141ebd3a8
:104f1800dfe7002eeed129400020ebe7013631050e
:104f28000020e7e7e742e5d10020c143090dc904a5
:104f3800e0e76b400e00871a9e4104d26e40c01b0a
:104f4800b141d21973414e18df18ac0ae642e9d2d2
:104f5800760d7f0d31d0f41b362ccbd8b4460e0d10
:104f6800db022b43db0ac9022943c90a012c32d8c8
:104f780004d1d4075208df073a435b08ef0a6442ba
:104f8800904199411ed0002239424dd12419404107
:104f980049410124394204d10134001849413942b8
:104fa800fad06246a24204d9361b013e3605891959
:104fb800a0e7f10ac90700209ce736429ad10020f1
:104fc800002197e70200224394d0b842ded20100c4
:104fd80020002024e3d1202c13dd203ce2411700df
:104fe800a240e2405740e3415a40a340e3405a40c0
:104ff800012fbf410137174300227c42984191415c
:105008000ce01700e741e2405740e3415a40a34013
:10501800e3405a407c429041994100220f0303d259
:10502800013e241940414941013e36054708ac413b
:0850380050417141f0bc7047ca
:020000040000fa
:10504000f8b5de4657464e464546e0b59b460aaca7
:10505000237898460bac23789c460cac23789a4670
:105060005e4d47242e5d8e19f6b24334641a5c4bb4
:10507000e318002906d00024055d1d550134e5b272
:105080008d42f9d35549097c022900d171e01f00f6
:10509000083f0636f6b251498868cc683d001900d1
:1050a00028702306000a1843240a01358d42f7d1df
:1050b000c0231b02994649482021415c022963d044
:1050c0003d00083d4346002b00d175e091008a1851
:1050d000d20044498a181168526840488161c2610f
:1050e0000636f6b2280001701406090a2143120a96
:1050f00001308742f7d1c42212014b461a43a91e40
:10510000fe200870691e34380870e91e5b460b707b
:105110006346002b53d1012313436a1f13702a1fc8
:105120001b0a1370063d2e702f4845602b4c3f2301
:10513000e15c524606f0f4fc6023e054002810d1f4
:105140002649012200238c6ccd6ca4185d418c642f
:10515000cd6426494979002903d020498b6ea342aa
:1051600034d003f08fff3cbc90469946a246ab4634
:10517000f8bd9f1e1949c8883870013b000a187095
:1051800080231b02994696e7bd1e4346002b11d093
:1051900091008a18d20013498a1812890f494a824d
:1051a000b91e0a70013f120a3a70842212014b465e
:1051b0001a43a4e70e4af1e70d4900228de707499b
:1051c00045230120c85421231343a6e7ca6eaa42ef
:1051d000c7d1064b01229a71c3e7c046f84e0020a2
:1051e000e84c0020402f0020e853002018540020f5
:0451f000ffff0000bd
:020000040000fa
:1051f400f0b5ce46474680b583b06b460020d880d4
:1052040001295add50686b46991d04f0d7fd00282a
:1052140056d06b46da883f2a01d9ff2a55d1564920
:105224002831002004f090fd6b46dc88ff2c56d01a
:10523400e4b2a3001b19da00504b9b1820331b78ef
:10524400002b46d04c497831002007f0f3f96b4627
:10525400da884b4e370034373900002004f074fdef
:10526400464b9846a3001d19ed0045442a89310098
:105274003831002004f068fdea7a3900002004f097
:1052840063fd0a22aa563900002004f05dfd3700b0
:1052940040372a696b693900002004f055fdaa697a
:1052a400eb693900002004f04ffd2a686b68310077
:1052b4004831002004f048fd02e0033002f042f9d6
:1052c40003b00cbc90469946f0bd052002f03af9b3
:1052d400f6e72b494c31002007f0acf9f0e72649fa
:1052e4007831002007f0a6f9244ca0231b0199462d
:1052f400a14400262023984639e0214d2f0034375d
:1053040032003900002004f01ffd228929003831c1
:10531400002004f019fde27a3900002004f014fda5
:105324000a22a2563900002004f00efd2f00403757
:10533400226963693900002004f006fda269e3696b
:105344003900002004f000fd290048312268636818
:10535400002004f0f9fc29006831002007f06af904
:10536400084807f053fc013628344c45a8d043467e
:10537400e35c002bf7d0c0e7d80a0000402f0020e0
:08538400580b000060e3160065
:020000040000fa
:10538c0008d1002806d1f54204d801d3002a01d156
:10539c006d0d09d10020c143090dc904f0bdf9d12f
:1053ac001242f7d1640df5d00020c14349054908dc
:1053bc00a6e000206146f0bdf0b50127ff070e0006
:1053cc005e403e40b446be0a4c18dd18f442d7d2bb
:1053dc00f542e4d2640decd06d0dead06419c9022b
:1053ec003943460dc0023143db023b43db0a10b4a8
:1053fc008e4685b297b26f43140c6c433e0ca419c5
:10540c00260c2404bfb227439cb26c43a419190c7c
:10541c006943250ca4b249190d04090c6419000c3c
:10542c0095b245433e0c76193743bfb2360c150c7a
:10543c004543ad19a6b2240cad192e0437432e0cde
:10544c0036199db24543ad19acb22e0c89191d0c01
:10545c0045436d182e04290c3443704680b295b226
:10546c0045433e0c76193743bfb2360c150c4543f9
:10547c00ad19a6b2ad19240c2e0437432e0c3619d7
:10548c009db24543ad19acb22e0c89191d0c454388
:10549c006d182e043443290c75462d0c90b26843bc
:1054ac003e0c80190604bfb23e43070ca0b23f1855
:1054bc00120c6a43d019020c80b2240ca4189ab2b4
:1054cc006a43121914042043120c89181b0c6b43e9
:1054dc00c91810bc01273d05294203d1b61940411a
:1054ec004941013cff077d0d013d641b0bdb6d0049
:1054fc00ac4209da240500254208be4168416141ed
:0a550c0066463143f0bd54e74ee758
:020000040000fa
:025516007047dc
:020000040000fa
:1055180070b50500594c207fc0b2002800d0a7e024
:1055280000294ad0002d48d0554c666807243440dd
:10553800012c5ed0514805604260002444618461ba
:1055480004614e488160002a58d04c4ad3604b4ac7
:10555800012111774a4a127e520705d5484a04208c
:10556800916a117e0142fbd1454a518b04200143c7
:105578005183117e80200143117640498a68c968a9
:10558800914203d93d48c168891a01613c4949687b
:10559800490743d139498969914233d2374a116859
:1055a800087837498862916901319161002b5ad096
:1055b800334b04229a7501205be0002b59d0002a56
:1055c80057d02f4c666807243440012c0cd02b4848
:1055d800056042600024446184610461002db0d1fb
:1055e800264900208860aee7002943d1dc07eed5c4
:1055f8003fe0cc073dd4002be9d0f7e71f4a002154
:10560800d160a4e71d4a1269002acfd01c4aff21a5
:1056180091621a490a69013a0a61c7e7174a91680b
:1056280049089160116949081161d1684908d16038
:10563800916892698a420ad210490a681288d2058a
:10564800d20d0f4882628a6901328a61aee70b4a3d
:105658001269002aaad00a4a0a49916207490a69c6
:10566800013a0a61a2e7064b01229a75012000e07f
:10567800002070bdcc07b9d5fbe7c0460852002012
:0856880000040043ff010000d3
:020000040000fa
:1056900030b5a3b005000c007822002104a808f062
:1056a0002df9eb783a2b16d0504a4823d35c002bc7
:1056b00000d18de001224e493923ca544d490b785f
:1056c000581c087002920192009221002800fff7f6
:1056d000b7fc23b030bd042c07d9363b03a9ea5ce4
:1056e000ca540133dab2a242f9d3211fc9b22b78ce
:1056f000662b22d0462b33d06a78103a98001b18bc
:105700005b00d218d2b23f2a3ed893009b18d80033
:10571000364b1b1820331b78002b25d00120344c2e
:105720003923e054334c23785d1c2570029001909e
:10573000009004a8fff784fccbe76a78662adbd1e7
:1057400000222b483923c2542a4803785c1c047079
:105750000292019200920f3204a8fff771fcb8e7a1
:105760006a78462ac8d1ebe7002221483923c2547f
:10577000204803785c1c04700292019200920f3260
:1057800004a8fff75dfca4e7184a4823d35c002b6c
:105790000ed0012216483923c254164803785c1ce7
:1057a000047002920192009204a8fff749fc90e76e
:1057b00000220f483923c2540e4803785c1c047041
:1057c0000292019200920f3204a8fff739fc80e7a1
:1057d000084a1378591c117000220292019200921b
:1057e0000f3221002800fff72bfc72e7402f00202a
:0857f000f84e0020ca5400200d
:020000040000fa
:1057f800f0b583b006f0e6f8002800d091e0d2308a
:10580800400007f075fb4c4c80239b02a361942356
:1058180080256d01e55080221202e2500a2007f02f
:1058280067fb9823e5501e2007f062fb00221f212a
:10583800012008f07df86b46d871da79d2b2da71b6
:105848000a24642007f054fb1c2004f06ffc07288e
:1058580005d0013ce4b2002cf3d1852762e0082191
:10586800053804f0d5fd00221f21012008f060f85a
:105878000828f2d10021063004f0cafd2f4b082277
:105888005a702f4807f016fd00284ed1012001f06c
:10589800bdfa071e4dd12b4d08e02a4c26000836cc
:1058a80007f0f4fe20700134b442f9d12878697801
:1058b80009020843a97809040143e8780006084367
:1058c80002002879697909020843a9790904014382
:1058d800e87900060843030001204042c117121866
:1058e8004b41591c01d1d31cd7d8002216490e2090
:1058f80007f02afa0e2008f075f804f0e9f98c2070
:1059080006f0e2fc114b1860002810d0ff21104867
:1059180008f0d2f807f01efe084b822252041a61e2
:1059280000e08527380003b0f0bd8527fae7852712
:10593800f8e78527f6e7c0460028004030530020e6
:10594800cd540020d85200204fdb000030540020f6
:04595800ac5300202c
:020000040000fa
:10595c0070b5504b586a504b9b7d002b54d04e4920
:10596c004c68072214404b4b5a699d699e680b7e0c
:10597c005b0757d5896a474bdb68934252d9002c99
:10598c0043d1444b5b6899540132434b1b7edb077c
:10599c0016d5414b012119753e4b9b68ab4256d92c
:1059ac003c4b1b68595d3c4b99620135394b1b696b
:1059bc00002b01d1b54262d0364bdb68934262d0ea
:1059cc00344b5a619d61344b1b7e9b0715d5334b71
:1059dc001b78002b18d02f4bdb68934211d12d4b29
:1059ec0000221a772c4907240c752c490a701b6a63
:1059fc00002b09d0274b1b6a9847284b1b78002b90
