:020000040000fa
:10000000f87f0020d19900006f410000934d00005f
:1000100000000000000000000000000000000000e0
:100020000000000000000000000000000b8700003e
:100030000000000000000000e19c0000c1b30000cf
:1000400017650000176500001765000017650000c0
:10005000d1890000176500001765000017650000d2
:10006000176500000d93000017650000176500007c
:10007000176500008548000017650000176500003f
:10008000176500001765000091ae000017650000bd
:100090001765000000000000000000001765000068
:0c00a0001765000000000000176500005c
:020000040000fa
:1000ac00f8b5c046f8bc08bc9e467047b199000034
:1000bc00f8b5c046f8bc08bc9e467047899900004c
:020000040000fa
:0800cc006c5b00000100000064
:020000040000fa
:1000d400f0b59bb013930b6815900a938b680d9140
:1000e4000b930b694d681893cb68029313680893bc
:1000f4005368089806930022002306990af0dbf857
:1001040000280dd10a9b5b073ad408200a9b0340c0
:1001140009930b9b0393099b002b0fd0202306e02c
:10012400802212069446069b634406932d23029a6a
:1001340013700b9b013b039301230993069b0899be
:100144005b005b08944a00291ed193421cd1029c97
:10015400139ba446099a413b624490491000192b11
:1001640010d80bf0b7fe02980bf034fc0a9b020087
:10017400009302990b9b159807f057fe1bb0f0bd36
:100184002b23d4e70431ece7934203d810d1089b26
:10019400002b0dd0029c139ba446099a413b624458
:1001a4007e491000192b01d80831dae70c31d8e761
:1001b40000220023089806990af04efd0026784f85
:1001c400002400283ed1040002e00134049e059f6f
:1001d4000022744b3000390003f01eff089a069b7e
:1001e400049005910af048f80028eed00023049307
:1001f40020e06d4b9c4214da049b002b11d10022a9
:100204006a4b0898069903f007ff684b089006911b
:1002140030003900002203f0fffe012306000f0026
:1002240004933000390000225e4b05f0f1ff060014
:100234000f00013c32003b00089806990af03bf895
:100244000028d6d113980bf0effdc3b20c93002d08
:1002540000da8fe10493672b00d0ade0002d00d1cc
:1002640084e1231d02dbac4200daa1e06523b1e0a6
:10027400002200230e920f93fee006960797049b3c
:100284002600652b00d015e1002613e1129b002bfc
:100294000bd1002e09da029a14992e335354039b7e
:1002a4000137013b039301231293ea193b0094465f
:1002b400302102e0029ad15401339c45fad1039ac9
:1002c400eb19551b029a30305f1cd0546b1e0393fc
:1002d400002521e00d9b14971b691093053bbb423d
:1002e40000d8f0e0069a079b08980e9905f090ff55
:1002f40006f0d6fa109011910af044fb092800ddab
:10030400092010230a9a13400343bfd10c9b672b87
:10031400bcd1002ec9da01358020000684460e992e
:10032400089a61440b001098119900920193069a5f
:10033400079b0bf05bfd80231b06cb1808900e93e4
:10034400069807990022174b05f062ff013e0690bc
:100354000791b4e00a9bdb0600d4b8e02e23029a8e
:10036400d3550137b3e020000a2106f04bfd029b70
:100374003031013d595520000a2106f0f9fc039b58
:100384000400013b0393b2e0029b03991a5c5b18df
:100394001a540138dbe0c0460000f07fe0bd0000e5
:1003a4000000f03f00002440d4feffff0000504353
:1003b400002c0eda66230493049b0135662b0ad1c4
:1003c400002c02da002600246d4f0c9b672b00d012
:1003d4002d1966230493089b0e960f971293069b80
:1003e4001093002314930e9a0f9b1298109905f002
:1003f4000fff06f055fa169017910af0c3fa1990f8
:100404008020000684461099129a61440b001698c5
:100414001799009201930e9a0f9b0bf0e7fc80232f
:100424001b06cb18129010930e980f99554b00226f
:1004340005f0eefe149b0e900f91013314939d4230
:10044400d1d10022504b03f0e7fd0e900f91020032
:100454000b001298109909f02eff002800d007e72e
:100464000e9a0f9b129810990af0f6fb002803d0fd
:10047400199bdb0700d4fbe60e9a0f9b089806999c
:1004840002f0f0ff002208900e913e4b300039003c
:1004940003f0c2fd089a0e9b0690079109f0c8fc70
:1004a400002800d1e9e6049b0134662b00d0e6e67f
:1004b40026000135731b0025099f16931295169b80
:1004c4009e4200d006e7129b002b00d142e7002693
:1004d400029bdb1906931e70049b652b2ad1189b83
:1004e4005d1e029b5e55b44201da64420136002c63
:1004f40000d038e7189beb1a0333002b00dd32e7fa
:100504006a1e2d23002e00d1023b0299023d8b541a
:10051400139b413b192b01d845230493029b591982
:10052400049b0b70039b023b0393af4202da0698d1
:100534000bf0d0fc03230a9a1340022b00d012e6de
:10054400039b002b00dc0ee602980bf043fa099b98
:10055400834200dc18e7029a302194466344180071
:10056400039a0bf0a7fb00230b93fce5012578e627
:10057400062576e60c9b672bfad0049306251be729
:0c0584000000f03f000024400000144084
:020000040000fa
:10059000f0b599b014930b68566809934b681390a3
:1005a0000d938b68cf680c930b693100119313681e
:1005b000002208930898002309f07ffe00280cd140
:1005c000099b5b0732d40820099b0c9d03400593cf
:1005d0000cd02023013d3b7006e080231b06f6185b
:1005e0002d233b700c9b5d1e01230593089a73001d
:1005f0005b08002a1cd1b04a934219d1149baf4c1e
:10060000059a413bb8182100192b00d9211d0bf088
:1006100063fc201d0bf0e0f9099b020000933900f8
:100620000c9b139807f003fc19b0f0bd2b23d8e7ff
:10063000a14a934203d812d1089b002b0fd0149be0
:100640009e4c059a413bb8182100192b05d808315a
:100650000bf042fc20000c30dce70c31f8e7059b86
:1006600005995a1c30237b54149b413b0e930e99e1
:100670005823192900d920330599bb540231ab1ee8
:100680000591079300220023089831000af0e6fa4a
:10069000002800d160e10023894c06930293039463
:1006a0000d9b1093002b01da18231093029b039cdf
:1006b0000a930b9434000023089d129328000a9a91
:1006c0000b9b210005f0a6fd06f0ecf80a9a0b9ba7
:1006d0001690179103f0a2fc02000b0028002100e5
:1006e0000bf08efb774b05000c000a980b9900224b
:1006f00003f094fc129b0a900b9101330f930d9b16
:10070000002b07da00220023280021000af0a6fab5
:10071000002806d1109b129a934200dd22e101339a
:100720000f9300220a980b99674b03f077fc0a900d
:100730000b9102000b002800210009f0befd0028eb
:1007400000d011e10a9a0b9b280021000af086fada
:10075000002806d0169817990af016f9c30700d496
:1007600002e10a9a0b9b0898310002f07dfe12917b
:1007700049000a904908002803d14f4b994200d103
:100780003ce70025059c10950895119b2600053b2c
:10079000a34230d9029a039b0a98129905f03afdb8
:1007a00006f080f8149015910af0eef8031e00d0c0
:1007b000dfe0089a002a00d1dbe00135029a039bb2
:1007c0001498159903f02afc02000b000a9812995c
:1007d0000bf016fb00220a9012913a4b02980399f3
:1007e00003f01cfc089b0290039101330893089ac4
:1007f0000f9b9342c9d1109b002b1ad1002d00d121
:10080000fbe00d9b002b00dcf7e0099bdb0700d52c
:10081000f3e02e2230213b191a702a19ba185970a8
:1008200001339a42fbd12c19ed43079b0134eb189d
:10083000079300263b191e700293119b5d1e069bb9
:100840007e55b34202da5b4206930136069b002bcb
:1008500000d0bbe0119beb1a013300d1b6e06a1e59
:100860002d23002e00d1023bbb540e9a023d502393
:10087000192a00d9203379190b70ac4202da029898
:100880000bf02afb0323099a1340022b11d1079b7b
:100890009c1e002c0ddd38000bf09ef8059b984245
:1008a00000dba3e0f818220030210bf005fa00234a
:1008b0000c933800aee6c0460000f07fd0bd0000cb
:1008c0000000f03f0000b03f00002040069b029473
:1008d000039501330693029a039b1000190002f05e
:1008e000c3fd04000d0002000b000898310009f060
:1008f000e4fc0028ead0029a039b0898310009f032
:10090000dcfc002800d1cbe60298039900223f4b83
:1009100003f084fb002200230af0a0f900280fd086
:100920000298039900223a4b03f078fb00220290d0
:100930000391374b0898310003f070fb0e000890cc
:10094000324b02980399002203f068fb069b029049
:100950000391013b0693cee700232e4c06900293b1
:100960000394b8e70f9ba8e6002300240a930b9496
:10097000f7e6109a002a0ad1089a002a07d02e22f8
:10098000ba55079a0134013a0792012210922e19a2
:10099000302201e03a550134b442fbd11800079ae5
:1009a0005730551b092b01dc303318000e9b192bd7
:1009b00006d820230343613b192b01d80bf03dfae5
:1009c0006b1e741cb85507930025f7e606980a219c
:1009d00006f01afa013d3031795506980a2106f0e1
:1009e000c9f9079b0690013b07932fe7079b3a5ce9
:1009f000023bfb181a54013850e7099bdb0600d470
:100a000017e72e233b55013413e7c0460000e03fb3
:080a1000000050430000f03f1c
:020000040000fa
:100a1800f8b5050001684b691878c84ad0701b18ea
:100a280058782123d0544b69997809025c780c4393
:100a380024b2a7b217801e1ddb781371300004f0b2
:100a480023ff3b074ed4361807231c40bb4b9c7032
:100a5800032c10d0012c00d0a3e1b84a2823d35c82
:100a6800002b00d1d3e1752b02d928237621d1544c
:100a7800b24bde62cbe131781a002023d154e1e198
:100a8800ae4a34230021d154c1e17178ab4a2c23fa
:100a9800d154bce1aa4c711c022220000bf0fef8d4
:100aa800f378a370b3e17178a44a2c23d154aee152
:100ab800a34c711c022220000bf0f0f8a01cf11cc2
:100ac80002220bf0ebf873792371a01db11d0222ed
:100ad8000bf0e4f8fb0400d499e1317a974a342307
:100ae800d15494e1280009f0dfffa7e1934a1d33b0
:100af800d35c042b0cd0072b0ad0924b1b78012b0c
:100b080000d141e1002b28d0032b00d993e110e05c
:100b180029008d480af0a8fa0af080fd8ee1894b79
:100b28001b78012b00d125e1002b16d0032b00d90f
:100b380081e107f0b5fe814b9b78012b00d115e1cf
:100b4800032b00d077e17d4a1d33d15c082900d9f9
:100b580071e18b007d4ad3589f467d4b1b78002b53
:100b680000d08ce07b4b1b78022b3cd9032b00d0a8
:100b780061e1724b9b78012b2dd0002b2fd0032bda
:100b880000d058e16d4a1d33d15c072900d952e1e4
:100b98008b00714ad3589f46280009f00bfa4de1a3
:100ba800280009f073f849e16c4b5b7a002b03d0fd
:100bb800280005f07fff41e103f0b2fd3be128008a
:100bc8000af0daf93ae128000bf04cf936e1ee20a8
:100bd80005f018ff2fe1280003f040fc2ee100206b
:100be80008f03aff27e1554a9278012a43d0002ab3
:100bf8000cd0032a00d01ee150492022885c082826
:100c080000d918e1820056498a589746554ad27c3d
:100c1800012a00d00fe1002b00d10ce1002004f0e4
:100c28009dfb08e1280009f031f84a4b1b78012b9d
:100c380000d003e109f0befe00e1280007f01efc29
:100c4800fce0022b00d0f6e028000bf00bf9f5e0f1
:100c5800280009f0aff9f1e0404b5b7a002b03d094
:100c6800280005f027ffe9e003f05afde3e028003b
:100c78000af082f9e2e0280003f0f0fbdee0032b43
:100c880022d0042b02d0022b00d0d4e02b4b9b782f
:100c9800002b00d0cfe02f4b1b78032b07d0314b14
:100ca800db7c012b07d0280002f0f4fac6e0012013
:100cb80008f0d2fef3e7274b1b78013b012bf2d853
:100cc800012004f04bfbeee71c4b9b78032b00d074
:100cd800b1e01a4a1d33d35c082b00d0abe0224b9d
:100ce80018780af053f8280005f024fda6e028003b
:100cf80009f060f9a2e0280008f0c8ff09f05afee0
:100d08009ce0164b5b7a002b03d0280005f0d2fe3e
:100d180094e003f005fd8ee028000af02df98de03f
:100d28000c4b1b78022b00d085e028000bf09af8ba
:100d380084e0280007f0a2fb80e0c046d0450020f0
:100d4800fc4500205b49002008480020fc76000094
:100d5800604900206149002020770000f04700200a
:100d680040770000b046002066490020280003f0c4
:100d780075fb63e0384b9b78032b05d0012b5ad1c8
:100d8800280003f06bfb59e0334a2023d35c022b85
:100d980051d1324b187809f0f9ff280006f07ef996
:100da8004ce0002c4bd12e4c0222310020000af0de
:100db80075ffb278a270072313400322002b00d0de
:100dc8001a1d501cb35c24492f228b540724210080
:100dd80019401f0922003a403b431c4202d03318f5
:100de8001d4c2363002902d049004018c0b2002ad4
:100df80002d0d2008018c0b2174a2823d35c83429d
:100e080000d83de61b1a3421535436189663154b07
:100e18001b78002b00d182e60f4b9b78032b00d167
:100e280064e6114a1278012aa8d0002a00d194e673
:100e3800032a00d87de6280009f036fef8bd032c09
:100e480000d04fe6044a2023d15c082900d949e69e
:100e58008b00064ad3589f46d0450020644900209d
:100e6800fc450020594900205b49002064770000b8
:020000040000fa
:100e7800104700201c000000000000008c450020e6
:100e880004000000000000006c480020040000007e
:100e9800000000009048002004000000000000004e
:100ea800d44700200e000000000000000d4700207d
:100eb800010000000000000084410020c000000084
:100ec80000000000944800200c0000000000000012
:100ed800e44300206400000000000000a048002057
:100ee800140000000000000048470020280000000f
:100ef80000000000b44800201000000000000000be
:100f0800704700201400000000000000c4480020c2
:100f180004000000000000008447002028000000b2
:100f280000000000c8480020080000000000000081
:100f38005c480020080000000000000090450020e8
:100f4800400000000000000044420020a000000013
:100f580000000000724900200200000001000000ab
:100f6800010000000e470020020000000000000001
:100f780054490020020000000000000084460020c0
:100f88002c0000000000000056490020010000006d
:100f980000000000d048002004000000000000000d
:100fa800574900200100000000000000e44700202d
:100fb8000c00000000000000bc400020c800000039
:100fc80000000000d44800200400000000000000d9
:100fd800584900200100000000000000644800207b
:100fe8000800000000000000f04700200c0000008e
:100ff80000000000504600203400000000000000ff
:10100800594900200100000000000000d8480020d5
:1010180008000000000000005a49002001000000fc
:1010280000000000704800200800000000000000d8
:10103800d04500204000000000000000b04600201d
:1010480020000000000000005b49002003000000b1
:1010580000000000e048002004000000000000003c
:101068005e4900200200000000000000ee4600205b
:10107800020000000000000060490020030000009a
:1010880000000000fc4700201800000000000000dd
:1010980078480020080000000000000014480020e4
:1010a8000c00000000000000e448002004000000dc
:1010b800000000002c4700201c0000000000000079
:1010c800e84800200400000000000000204800203c
:1010d8000c00000000000000f04600201d00000089
:1010e80000000000ec4800200400000000000000a0
:1010f800484500204400000000000000f04800209f
:1011080008000000000000008048002008000000df
:1011180000000000f8480020040000000000000063
:10112800fc4800200800000000000000e43f002008
:10113800d800000000000000402f0020a41000008c
:10114800000000002c4800202400000000000000df
:10115800634900200400000000000000e442002071
:1011680000010000000000001046002040000000c0
:1011780000000000044900200800000000000000f2
:10118800ac47002028000000000000000c490020a7
:101198001000000000000000674900200400000063
:1011a800000000008c49002004000000010000003d
:1011b800aaaaaaaa6b4900200100000000000000aa
:1011c8001c49002004000000000000006c490020b9
:1011d8000200000000000000a844002050000000a9
:1011e80000000000504800200c0000000000000033
:1011f800204900200400000000000000000000203a
:10120800402f0000000000002449002014000000c6
:1012180000000000884800200800000000000000ce
:10122800384900200c000000000000006e49002032
:101238000400000000000000484400206000000096
:1012480000000000e247002002000000000000004b
:10125800d04600201e000000000000007449002055
:1012680018000000010000004d6963726f6368692f
:101278007020626561636f6e2064656d6f20300059
:10128800444900200400000000000000f844002049
:101298005000000000000000484900200c00000039
:1012a800000000000000000000000000666666669e
:020000040000fa
:1012b8006e3a0000083b00006e3a00006e3a0000eb
:1012c8006e3a0000083b0000083b0000083b0000a5
:1012d800083b0000083b0000083b0000083b0000fa
:1012e800083b0000083b0000083b0000083b0000ea
:1012f800083b0000083b0000083b0000083b0000da
:10130800083b0000083b0000083b0000083b0000c9
:10131800083b0000083b0000083b0000083b0000b9
:10132800083b0000083b0000083b0000083b0000a9
:10133800083b0000083b0000083b0000083b000099
:10134800083b0000083b0000083b0000083b000089
:10135800083b0000083b0000083b0000083b000079
:10136800083b0000083b0000083b0000083b000069
:10137800083b0000083b0000083b0000083b000059
:10138800083b0000083b0000083b0000083b000049
:10139800083b0000083b0000083b0000083b000039
:1013a800083b0000083b0000083b0000083b000029
:1013b800083b0000f0390000dc3900006e3a0000fc
:1013c800e6390000fa390000083a00006e3a0000d9
:1013d800083b0000183a00002c3a00003a3a000096
:1013e800443a0000083b00006e3a00006e3a0000e4
:1013f8006e3a0000083b00004e3a00006e3a0000ca
:101408006e3a0000223a0000a43900006e3a00004b
:10141800c83900006e3a0000d2390000083b0000cd
:10142800083b0000083b0000083b0000083b0000a8
:10143800083b0000083b0000083b0000083b000098
:10144800083b0000083b0000083b0000083b000088
:10145800083b0000083b0000083b0000083b000078
:041678006e3a0000c6
:020000040000fa
:10167c00b02c0000c22c0000d82c0000ea2c00007a
:10168c00882b00009a2b0000b02b0000c22b00000e
:10169c00fc2c0000fc2c0000fc2c0000fc2c00009e
:1016ac00fc2c0000fc2c0000fc2c0000fc2c00008e
:1016bc00fc2c0000fc2c0000fc2c0000fc2c00007e
:1016cc00fc2c0000fc2c0000fc2c0000fc2c00006e
:1016dc00fc2c0000fc2c0000fc2c0000fc2c00005e
:1016ec00fc2c0000fc2c0000fc2c0000fc2c00004e
:1016fc00fc2c0000fc2c0000fc2c0000fc2c00003e
:10170c00fc2c0000fc2c0000fc2c0000fc2c00002d
:10171c00fc2c0000fc2c0000fc2c0000fc2c00001d
:10172c00fc2c0000fc2c0000fc2c0000fc2c00000d
:10173c00fc2c0000fc2c0000fc2c0000fc2c0000fd
:10174c00fc2c0000fc2c0000fc2c0000fc2c0000ed
:10175c00fc2c0000fc2c0000fc2c0000fc2c0000dd
:10176c00fc2c0000fc2c0000fc2c0000fc2c0000cd
:10177c00fc2c0000de2b0000d42b0000fc2c000005
:10178c00fc2c0000e82b0000f82b0000fc2c0000c7
:10179c00fc2c0000022c00001a2c0000282c00004d
:1017ac00362c0000fc2c0000402c0000522c0000b9
:1017bc00642c0000fc2c00007a2c0000842c00000f
:1017cc00fc2c00000c2c0000322b00003e2b0000e7
:1017dc00502b00005e2b0000702b0000fc2c000036
:1017ec00fc2c00007e2b0000fc2c0000fc2c0000cc
:1017fc00fc2c0000fc2c0000fc2c0000fc2c00003d
:10180c00fc2c0000fc2c0000fc2c0000fc2c00002c
:10181c00fc2c0000fc2c0000fc2c0000fc2c00001c
:10182c00fc2c0000fc2c0000fc2c0000fc2c00000c
:041a3c009a2c0000e0
:020000040000fa
:101a40000023f0b506001500b1b007910393079984
:101a50000b78002b00d10de101235b420c9310abfe
:101a600000240e9380230b940d940f930b5d002b99
:101a700001d0252b2ad1002c06d02200300009f0fd
:101a800059fb079b1b190793079b1a78252a00d03f
:101a9000e5e0013304930793022301219c461027bc
:101aa000079803782b2b1ad025d8202b1ad0232b5c
:101ab0001dd02a2b28d008f0a1fb0d90079b1a7887
:101ac000303a092a31d801330793f7e70134cde7db
:101ad0000b9b05930b4301300b930790e0e7042326
:101ae0000b9a0fe00b9b0593059a08230ae00b9bca
:101af00005933b43efe72d2bead0302bd9d162463b
:101b00000b9b05931343e6e72b6801301a1d1b68f6
:101b100007902a600d93002b07da0b9a5b4205921f
:101b2000012205990d934a400b920b9bda0702d5cf
:101b3000022293430b93079b1a782e2a0ed1002280
:101b4000581c0c9207905a782a2a28d102330793fe
:101b50002b681a1d1b682a6005930c9307a808f0d0
:101b6000f9fe079b070018780af060f9692800d190
:101b700083e035dc632800d1dde01bdc252800d1c3
:101b8000eae0612859d0049b0122079300235242c6
:101b90000c920b930d93784900930232e7e008f022
:101ba0002dfb0c90079b1a78303a092ad6d80133be
:101bb0000793f7e7642860d06728e4dc2a0039003f
:101bc00008a809f028f9002800d1b0e0079b0ba96c
:101bd0005a1c07921b7808aa3000fef77bfa3de0fa
:101be000702800d17de016dc6e2800d198e06f28c7
:101bf000c9d12b000022390008a804f02dfc0028d0
:101c000000d194e0079b08aa01330ba93000079389
:101c100006f000fc22e0752840d078284fd07328c9
:101c2000b1d1802f00d082e0079b2a68013307934f
:101c3000131d2b601268002389e02a00390008a8d0
:101c400009f0e9f8002800d171e0079b0ba95a1ca4
:101c500007921b7808aa3000fef79afc2418039b11
:101c60001c19a34200dc84e04f22444b1a6001237c
:101c70005b420393039831b0f0bd2b000122390081
:101c800008a804f0e9fb002851d0079b08aa0133fb
:101c90000ba93000079304f05ffedfe72b00002262
:101ca000390008a804f0d8fb002840d0079b08aaf8
:101cb00001330ba93000079307f054facee72b004d
:101cc0000022390008a804f0c7fb00282fd0079b8a
:101cd0005a1c07921b7808aa0ba9300003f0f4f8ed
:101ce000bce72b000022f02108a804f0b5fb002877
:101cf0001dd0079b099a01330793089b13430dd10d
:101d00001d4f1637380009f067fe390002000b9ba3
:101d100000930d9b300006f08af89fe77823dae7fe
:101d2000039b39001a1908a82b0006f057fd079be2
:101d30000133079393e7802ff9d1079b0133079372
:101d40002b681a1d1b682a6008aa137001230ba9af
:101d5000300007f099fc81e7802fe8d10122079b32
:101d60000549013307930b9b049300930d9b1c3192
:101d7000d0e703946be6c046e8b500005049002068
:020000040000fa
:101d8000f0b5de4657464e464546e0b58bb0814637
:101d9000076804ac18223900200009f083ff637c37
:101da0005a0705d4a24a1278a24909780a433ad1bf
:101db000069d079a9046aab20192db0703d504abb1
:101dc0009b78022b37d09c4b049a1a423ed004ab2e
:101dd0005b789a46012b41d004ab9b789b46012b44
:101de0003cd00e233b7004ab1a7c3a7200223a734b
:101df0009e7cbc1bb2345346022b3dd0032b00d13a
:101e00009ce00536f6b202a9502003f01dfa02aba1
:101e10001b8804aa92889a4200d1a4e05246002a64
:101e20004bd0a24641e004ab1a7c0023e121484696
:101e300009f06afb19e0814b9a42c4d104ab1a7cc9
:101e40000023e821484609f05ffb0ee004ab1a7c52
:101e50000023f521484609f057fb06e004ab1a7c45
:101e60000023e821484609f04ffb0bb03cbc9046ec
:101e70009946a246ab46f0bda31e9a460736f6b277
:101e800002a9532003f0e0f902ab1b8852461370fd
:101e9000013c1b0a237002a9502003f0d5f902abc4
:101ea0001b8804aa9288934262d05246941e02363e
:101eb000f6b22370013a1b0a137000215b46002b17
:101ec0005dd15f4a937d581c9075621e137004ab00
:101ed000587cc30779d401230b4304aa927c662a59
:101ee00002d980225201134304a94a7892038978c7
:101ef00089020a4313439bb2e21e1370a21e1b0aff
:101f0000137073b2002b00da89e0043c26707c6108
:101f1000430704d54b4b1b78023b012b58d909f0e2
:101f2000e3fa4b467b6001220221380009f070f988
:101f300000286ad1444b01221a7096e70b3b9a465f
:101f4000a2440d36f6b202a9f02003f07df9029bff
:101f500003995246137008061b0a0343090a01320b
:101f6000a242f7d197e75246002aa6d0a2461a000d
:101f70005b46002b01d1130097e7544640215b4696
:101f8000022b19d0200008380836f6b203001d7065
:101f9000424612062d0a15434246120a9046013364
:101fa0009c42f4d1841e0236f6b204ab9b882370a7
:101fb00001381b0a037084e7a01e0236f6b20570d2
:101fc000013c019b1b0a2370ece721230b4384e7b0
:101fd00049461e4809f04cf801280bd0184b1b89c4
:101fe0007b811b4b187809f0fdf900280ad009f015
:101ff00019fb3ae704ab1a7c0023f121484609f0ab
:1020000083fa32e708f06cfcf1e704ab1a7c00239a
:10201000e121484609f078fa09f08af925e704ab8e
:102020001a7c0023e521484609f06efa1de7c046f8
:102030005b4900206049002000ffff00ffff000017
:10204000b04600206149002059490020f047002097
:0420500063490020c0
:020000040000fa
:1020540030b583b00400844b00221a70872822d044
:1020640009d98c2821d08d3c63425c4164425c23b5
:102074001c40853402e0002800d085247b4b1b786b
:10208400022b14d0032b04d1794b1b681b78062b2d
:1020940012d0774b1d682b780e2b00d9e0e09b0003
:1020a400744ad3589f46fd24e8e7e924e6e7704bd9
:1020b4001b681b78072becd1200005f023f903b033
:1020c40030bd2b7b002b11d000232b73002c01d0af
:1020d400fd2c08d1280009f0e1f82b692a7a6868f8
:1020e400210009f00ffa09f021f9e8e72b692a7aaf
:1020f4006868210009f006faf5e7686808f0d6fc7c
:1021040009f014f9dbe72b7b002b13d000232b738e
:10211400002c01d0fd2c06d1280009f0bff8686816
:10212400210002f023f8544b1b78012b07d009f04f
:10213400fdf8c4e76868210002f018f8f3e708f036
:102144003bfcf4e7f7232340e12b07d168684b4ab3
:10215400210009f097f909f0e9f8b0e7484b0122aa
:102164001a70484bd9890901474b18780023019309
:102174000093464b002205f021fd00289fd000204b
:1021840006f0e4fc9be7686808f090fc3c4b1b7885
:10219400012b00d193e72b78042b1cd0f7231c4090
:1021a400e12c2dd0364b03221a70364b9989090144
:1021b400354b1878002301930093354b002205f02a
:1021c400fdfc294b01221a70002800d177e700207a
:1021d40008f084fc73e7fd2c03d1294b02221a700a
:1021e400e3e72c4b1a6812682321117054701968a4
:1021f400294808f03bff09f099f809f011fa5ee765
:1022040009f094f85be700232b73002c01d0fd2c1c
:1022140006d1280009f042f86968200006f074fa33
:1022240009f084f84be76968200006f06dfa09f0bc
:102234007df844e7686808f039fcee2004f0e4fb1c
:1022440009f074f83be76968200007f04ffc09f0d7
:102254006df834e7686808f029fc09f067f82ee7a0
:1022640009f064f82be7c046594900206049002072
:10227400dc4800209ca4000061490020ffff00000e
:102284005b490020b046002064490020518b0000c7
:0c229400e1aa0000d848002044480020c7
:020000040000fa
:1022a0000d0a20536563757269747920546f6f6ce1
:1022b00020426f78204f6e2053414c203a204469d1
:1022c0007361626c656400000d0a204d4143204437
:1022d0006174612026205365637572697479204d9d
:1022e0006f64756c65203a2044697361626c656443
:1022f000000000000d0a204869676820446174618d
:10230000205261746520537570706f7274203a208a
:1023100044697361626c65640a0000000a4d4143c0
:10232000204646442044656d6f204170706c69639f
:102330006174696f6e0d0a0a000000004d696c6cd3
:10234000695f54696d657200537563636573730dde
:102350000a0000005472616e73616374696f6e20cd
:102360006f766572666c6f770d0a00005472616e4d
:1023700073616374696f6e20657870697265640d4e
:102380000a0000004672616d65205472616e736dc3
:102390006974746564204d4143204e6f2041636b26
:1023a0000d0a00004d4143204368616e6e656c204c
:1023b000416363657373204661696c7572650d0acc
:1023c00000000000256300000a0000000a2d2d2dea
:1023d000427574746f6e20507265737365642d2d31
:1023e0002d0000000a556e69636173742064617486
:1023f00061203a5175657565206461746120666f6e
:1024000072206465766963652025752000000000f0
:102410002d526563656976656420556e69636173e5
:102420007420446174612d000a42756666657220ed
:1024300066756c6c000000000a42726f6164636133
:1024400073742064617461203a205175657565204c
:102450006461746120666f7220616c6c20646576c3
:1024600069636573200000002d52656365697665b8
:10247000642042726f6164636173742044617461ab
:102480002d0000000d0a53746172746564204e6f54
:1024900020626561636f6e206e6574776f726b206a
:1024a000696e204368616e6e656c202d2025640d79
:1024b0000a0000000a202044656661756c7420687b
:1024c0006173206265656e2063616c6c65642020b9
:0424d0000000c04602
:020000040000fa
:1024d400f0b5de4657464e464546e0b585b00700a2
:1024e4000191904699460eab1e88b42008f08cf9f1
:1024f400051e00d1f7e004683800471eb841404289
:10250400072398430c3020706560aa330422e254f8
:1025140002a9532002f096fe02ab1a88931c9bb2c8
:10252400012b02d9019b002b2fd02700a93702a928
:10253400f02002f087fe029b03993a00b120844602
:10254400a444137008061b0a0343090a01326245b6
:10255400f7d1664b9b4612239a4602a9502002f0fb
:1025640071fe4346002b1cd002ab1b88b34218d02b
:10257400ba1e51460231c9b28a461370013f1b0a82
:102584003b70170000239c4611e02700af37af23b0
:10259400e254120a0133e254554b9b460c239a46eb
:1025a400dbe740235a461a43934601239c4643469d
:1025b400022b12d0032b4ed04e4b5b894e4a9342d2
:1025c40064d080221201594611438b46ba1e9046ac
:1025d4001370013f1b0a3b700ce09b025a461a43de
:1025e4009346bb1e98464b461b8842461370013fd8
:1025f4001b0a3b706346002b62d14346023b1e70ac
:102604004346013b360a1e703a4a937d591c917524
:102614004246033a13704346053b5a461a704346f2
:102624001a1f5b461b0a13704346063b52461a7038
:10263400636101220221200008f0e8fd00284dd149
:102644002e4b01221a70013005b03cbc90469946cd
:10265400a246ab46f0bdc0231b015a461a4393461b
:1026640008235b429846b84453460633dbb29a4685
:102674004b461b684a4651684246137008061b0abb
:102684000343090a01329742f7d1b3e7c0231b0180
:102694005a461a43934608235b429846b844534625
:1026a4000633dbb29a46134a1368506842461370e5
:1026b40001061b0a0b43000a0132ba42f7d199e71b
:1026c40002a9502002f0befd02ab1b884246023a2a
:1026d40013704246013a1b0a137095e7280008f06c
:1026e400e5f90020b0e70020aee7c04623c00000b3
:1026f40023800000b0460020feff0000594900205e
:020000040000fa
:1027040070b50d007f4b1c78042c00d1e7e04e28f7
:1027140007d059280ad10a787b4b1a770024200065
:1027240070bd0a78784b1a750024f8e7754b5a780f
:102734000f2a00d1d5e00b2800d1c6e016d95328c2
:102744007cd047d84f2868d089245028e7d16e4cd4
:102754000b880978a1731b0ae373222006f008f89a
:10276400e17b232006f004f80024d8e7022800d1f6
:1027740082e00cd9032800d19de0042828d1002c44
:1027840000d0b4e00c78002cc9d08824c7e7002816
:102794001cd1002c00d0a6e00b785c49d940c907b5
:1027a40000d4a2e0082a00d1a3e0082000f0b0f889
:1027b4000828fad12b78544ad37400221f21082008
:1027c40008f0eafd162000f0a3f8a8e78924a6e79c
:1027d4008924a4e7572840d08924f0289fd10a6887
:1027e4004b68494d2a70110a6970110ca970120eb8
:1027f400ea702b711a0a6a711a02120eaa711b0e60
:10280400eb7124242978200005f0b2ff013501344e
:10281400e4b22c2cf6d1002481e70b783a4a5375a4
:10282400d27e934201d9384b5a75374b5b7d0022d7
:102834000f212f2008f0b0fd002470e7324c0b88e4
:10284400097821731b0a6373202005f091ff617bd3
:10285400212005f08dff002461e70b782a4ad37606
:10286400527d9a4201d9284a53750422f0212f201f
:1028740008f092fd002452e70878830612d43f231f
:102884000340042b00dd0420802318431e4bd8751d
:1028940006f094ff030000220f21052008f07cfdc0
:1028a40000243ce742421f2313405b425bb21133d6
:1028b400eada2f20e8e70b78134a937405226021a3
:1028c400082008f069fd002429e70b780e4a937567
:1028d400032208212e2008f05ffd00241fe7862430
:1028e4001de781241be7862419e7882417e786243b
:1028f40015e7054ad37400221f21082008f04cfd77
:102904000de7c0462c470020f046002000f8ff07e2
:020000040000fa
:1029140070b504007c4b5b780f2b07d00338c2b230
:10292400162a5fd89000794a125897460f286ed01d
:10293400754d00232b7108f057fc08236b70082c8d
:1029440000d1dde0032c00d1dce0201fc3b2152b45
:1029540048d898006e4b1b589f460321022005f06f
:1029640007ff0f2005f064fe10210e2005f000ff84
:10297400654c0f236370012008f09cff654b802297
:1029840052039a61232008f095ff60783fe05e4b84
:102994005b78082b26d00821022005f0e9fe0120ef
:1029a40008f088ff1ee0082b1cd00321022005f04c
:1029b400dffe012008f07eff14e0534b5b78082b08
:1029c40026d00dd9162b01d0192b0bd108210220aa
:1029d40005f0cefe012008f06dff04f0c1fa01e01d
:1029e400062bf3d0012005f023fe1f231840464b8d
:1029f400587063241d001f2809d1012005f018fe1a
:102a04001f2318406870013ce4b2002cf3d170bd60
:102a140004f0a6fae6e73c4b5b78082b06d0092bba
:102a2400e0d00421022005f0a3fedbe704f098facd
:102a3400d8e7354b5b78092b11d00cd81f24082b11
:102a4400d0d10621022005f093fe08f059fe204063
:102a54000628f6d1c6e7162b01d0192bc2d10821be
:102a6400022005f085fe1f240621022005f080fec9
:102a740008f046fe20400628f6d1b3e7224b5b78e7
:102a84001f24082b16d004d9092b04d0192ba9d143
:102a940001e0062ba6d10821022005f069fe1f24bf
:102aa4001621022005f064fe08f02afe20401628b4
:102ab400f6d197e71621022005f05afe08f020fe11
:102ac40020401628f6d18de70f4b5b78082b12d0e7
:102ad40005d9092b06d0162b00d083e702e0062b7c
:102ae40000d07fe70821022005f042fe19210220d0
:102af40005f03efe76e71921022005f039fe71e764
:102b0400200084e7082082e72c470020d4650000d9
:082b140030660000004400419e
:020000040000fa
:102b1c0030b583b004000d00f02800d9e8e0830044
:102b2c00744ad3589f46744bdb7c0b70002003b067
:102b3c0030bd6946572002f081fb6b461b782b7029
:102b4c000020f4e702226d49280009f0a5f80020c6
:102b5c00ede76946592002f071fb6b461b782b7030
:102b6c000020e4e702226649280009f095f80020cd
:102b7c00dde7614b1b7e0b700020d8e76946042013
:102b8c0002f05cfb6b461b782b700020cfe769468c
:102b9c00052002f053fb02226946280009f07cf85c
:102bac000020c4e76946062002f048fb6b461b7800
:102bbc002b700020bbe76946072002f03ffb6b46f9
:102bcc001b782b700020b2e74b4b1b7d0b70002049
:102bdc00ade7494b1b7c0b700020a8e7464b5a7c99
:102bec004849280009f058f80020a0e7424b5b7ccc
:102bfc000b7000209be7404b9b7c0b70002096e7f2
:102c0c0002224149280009f047f800208fe70822ea
:102c1c003949280009f040f8002088e702223b4996
:102c2c00280009f039f8002081e7334b9b7d0b70ad
:102c3c0000207ce769464e2002f000fb6b461b78b7
:102c4c002b70002073e769464f2002f0f7fa6b46b1
:102c5c001b782b7000206ae76946502002f0eefad0
:102c6c0002226946280009f017f800205fe7224b82
:102c7c00db7d0b7000205ae76946532002f0defa28
:102c8c0002226946280009f007f800204fe7694640
:102c9c00f02002f0d3fa08226946280008f0fcff65
:102cac00002044e76946002002f0c8fa6b461b7806
:102cbc002b7020003be76946012002f0bffa04228a
:102ccc006946280008f0e8ff002030e7694602203a
:102cdc0002f0b4fa6b461b782b70002027e769468c
:102cec00032002f0abfa6b461b782b7000201ee71a
:102cfc00f4201ce77c160000b0460020bc460020e7
:102d0c00be46002050460020b8460020ba4600209f
:020000040000fa
:102d1c00f0b5c64600b584b001900f000293960042
:102d2c00300002f065f9051e00d1bce0542002f021
:102d3c005ff9041e5ad005633200a521280008f063
:102d4c00b5ff236b9846002f56d03b783422a35402
:102d5c00002b09d0012321003431fa5cca54002a1b
:102d6c0002d00133102bf8d143230022e2540a9de8
:102d7c00042d00d90425e56265640027a764231d92
:102d8c000393180009f0f4f82000183009f0f0f85b
:102d9c00246105235b1ba3616462e7645023e75441
:102dac000133e754301f40444a3b9843029a01993f
:102dbc0008f0b4fb20600b9b002b00d01c6008f0cb
:102dcc00d5fd3c4a1368013313603b4b1b68002b49
:102ddc0016d03a4b1b68002b17d1374b1b68db6a9c
:102dec00e26a934211d8344b1c600ee0280006f0c6
:102dfc0087f90120404258e034230022e254b6e720
:102e0c002d4b1c601368012b23d02d4a1368013302
:102e1c001360e36a2b4a1268934201d9294a136062
:102e2c009800c0188000284b1818039908f057fe1a
:102e3c0008f000ff214b1b680120002b35d01e4be6
:102e4c001b68da6ae36a9a422fd208f083fd0120ec
:102e5c002be01d4d280008f037fe2800143008f038
:102e6c0033fe2800283008f02ffe28003c3008f0f4
:102e7c002bfe2800503008f027fe144e300008f0ce
:102e8c0023fe134d280008f01ffe124808f01cfe0c
:102e9c00114808f019fe114808f016fe104b1e6080
:102eac00104b1d60b1e70120404204b004bc9046b9
:102ebc00f0bdc046a048002094480020c448002023
:102ecc00ac480020b0480020e443002048470020d4
:102edc005c47002070470020984700208447002062
:082eec00984800209c480020da
:020000040000fa
:102ef400f0b5c64600b58cb00500046806af1822cc
:102f04002100380008f0ccfe04ae3100502002f05d
:102f140099f97b8832889a420bd006aa527808a97c
:102f24000091e821280007f0a7f80cb004bc9046f3
:102f3400f0bd656003232370b022a35406ab1a7c52
:102f4400b123e25404a9f02002f07cf9049b059912
:102f54002200a8322600b036137008061b0a034369
:102f6400090a0132b242f7d106ab5b78022b5ad080
:102f74002600a036089b099932002700a837137051
:102f840008061b0a0343090a01329742f7d119279d
:102f940004ab98461900502002f054f943461b88ac
:102fa400b21e1370721e1b0a1370424a937d591c81
:102fb4009175f21e137006ab5b789b029bb2721f75
:102fc40063211170321f1b0ac0210b431370063e8c
:102fd4003770666100232373374b1b78023b012b48
:102fe4004fd806ab5b7c002b4bd006ab5a78022a39
:102ff40025d0032a2ad12f4b0899039118688142be
:103004002dd029002d4808f031f801282cd0294b67
:103014001b8963812a4b187808f0e2f900282dd027
:1030240008f0fefa81e72600a636a433089ae25493
:10303400089b9bb21b0aa722a3541327a8e7089b4b
:1030440003934b2bddd1099b002bdad106ab5b88b4
:1030540008a90091e821280007f00ef865e709990e
:103064005b689942cdd1f1e706aa5388527808a942
:103074000091f121280006f0ffff56e707f02efc2f
:10308400cee708f02ffa01220221286808f0bef8e2
:10309400002803d10b4b01221a7046e706aa538875
:1030a400527808a90091e121280006f0e5ff08f014
:1030b4003df93ae7b046002061490020f04700207e
:0830c400634900205949002076
:020000040000fa
:1030cc00f0b587b00600046804ad2900002002f0ba
:1030dc00b5f82a78604b1a702900042002f0aef87b
:1030ec002a785e4b1a70207a5d4b187062785d4bb3
:1030fc001a7061685c4b19605c4b657a1d705c4d95
:10310c002e601b252570a2701b78e37000232372a0
:10311c002374584b1b78584a127813430fd100294b
:10312c0004d0564b194201d10e2812d9e8236370f2
:10313c003100534807f096ff08f06efa07e0e823d9
:10314c00637031004e4807f08dff08f065fa07b048
:10315c00f0bd08f0c3f934684a4b0b221a70414b8e
:10316c001b78022b0bd8002b18d100236374424b15
:10317c0001221a703100002000f068fee7e7032bf3
:10318c005ed1b42007f03cfb3f4b186000284cd0bc
:10319c00374b1968032000f059fed8e76b469d1d8c
:1031ac0001235b422b8002af3900502002f046f81d
:1031bc003a88364b1a802900502007f05bfc294bcb
:1031cc001b78012b1fd0b42007f01afb284b18607a
:1031dc0000281bd0234b1b78022b22d0244a1368c7
:1031ec001b681b2119701f49087898701f490978b2
:1031fc00d9701d4909685960002119721974116838
:10320c0000f024fea3e7204b1e60dce7e82363708c
:10321c0031001b4807f026ff08f084f808f0fcf991
:10322c0095e7300007f03efcd8e7e82363703100e7
:10323c00134807f017ff08f075f808f0edf986e76a
:10324c00e823637031000e4807f00cff08f06af8b1
:10325c0008f0e2f97be7c0465e4900205f49002098
:10326c00694900206a49002018490020684900205b
:10327c00d84800205b49002060490020ff0700f877
:10328c004448002067490020e0480020ee4600201a
:020000040000fa
:10329c00f0b5de4657464e464546e0b58db00500c6
:1032ac00684b1b78023bfd22134200d171e00023d6
:1032bc0098460024644a177c04ab1f70528a5a80cb
:1032cc00022f00d174e0604b9a69db690692079378
:1032dc0002ab99461900002001f0b0ff04ae4b463a
:1032ec001b7833746946042001f0a8ff6b461b78e9
:1032fc007374554b9a8d72822e229a5cd209327558
:10330c0021229a5c72755b6ab3614e4b1b78023b4f
:10331c00fd22134054d04c4b2f22985c020990464e
:10332c0034229b5c002b04d1484b1b7d002b00d01e
:10333c0075e0296817230b70434b9c461b794b7027
:10334c0004aa0b000833d0cad0c3d0cad0c350ca09
:10335c0050c32f236246d25c073bca5443461843e2
:10336c00430702d063461b6bcb62374b3422985c0d
:10337c00043a88549b6b4b632900354807f072fe66
:10338c0008f04af90db03cbc90469946a246ab46b3
:10339c00f0bd2e4b1b7d012b03d00023984600243f
:1033ac0088e72c4b1b681b6898461c00103481e77f
:1033bc00002000219860d960234a128b1a8187e77c
:1033cc00224a127d012aa6d14246107a00282dd01d
:1033dc0004aa2149049e3140168ab346069eb4467f
:1033ec00079eb1461289924608e02289524500d1c7
:1033fc0091e720340133dbb2834214d0164a26689d
:10340c0032409142f5d1228a5a45f2d1022fecd0aa
:10341c00a2686245edd1e2684a45ead17be7280013
:10342c0007f040fbaee7042800d974e7202204a97a
:10343c00200008f031fc43461b7a013342461372dc
:10344c0069e7c04660490020d0450020b046002006
:0c345c0044480020d8480020ff00ffff7b
:020000040000fa
:10346800f0b40125ed070f005f405ad48b4200d11c
:10347800824205d950404240504059404b40594043
:103488004e18760ddf187f0d3bd0741c640529d0cb
:10349800f41b352c26d80e0ddb022b43db0ac902a0
:1034a8002943c9121700202c1ed2e741e240574099
:1034b800e3415a40a340e3405a4000248018594150
:1034c8000ad3b21c520521d0c207012f624117004e
:1034d8004008cb0718434908013636054208af4172
:1034e80060417141f0bc7047203c06d01f00e741a5
:1034f800e3405f400024012a6741c0186141ebd3d3
:10350800dfe7002eeed129400020ebe70136310538
:103518000020e7e7e742e5d10020c143090dc904cf
:10352800e0e76b400e00871a9e4104d26e40c01b34
:10353800b141d21973414e18df18ac0ae642e9d2fc
:10354800760d7f0d31d0f41b362ccbd8b4460e0d3a
:10355800db022b43db0ac9022943c90a012c32d8f2
:1035680004d1d4075208df073a435b08ef0a6442e4
:10357800904199411ed0002239424dd12419404131
:1035880049410124394204d10134001849413942e2
:10359800fad06246a24204d9361b013e3605891983
:1035a800a0e7f10ac90700209ce736429ad100201b
:1035b800002197e70200224394d0b842ded20100ee
:1035c80020002024e3d1202c13dd203ce241170009
:1035d800a240e2405740e3415a40a340e3405a40ea
:1035e800012fbf410137174300227c429841914186
:1035f8000ce01700e741e2405740e3415a40a3403e
:10360800e3405a407c429041994100220f0303d283
:10361800013e241940414941013e36054708ac4165
:0836280050417141f0bc7047f4
:020000040000fa
:10363000f0b5c64600b592b061492c31002007f0c4
:103640001bf9604b1b88002b3fd05f4b1b78002b76
:1036500005d0012b57d05c4807f0b2fb35e002a93a
:10366000574c230044330a0061cb61c261cb61c275
:1036700061cb61c2186810601b791371524daa7832
:103680000132002004f056fe5049230070330a0036
:1036900013cb13c203cb03c2198811809b7893709c
:1036a0000ea8022303704a4b43806988494a4b00a5
:1036b0005c18e400a45a04815b18db00d3181b7c5f
:1036c0007f2b06d8404807f07bfb12b004bc904625
:1036d000f0bd414c22780132d2b222703f49002025
:1036e00004f028fe0523019323780093374b17221b
:1036f0000ea9022003f074ff0028e3d138490831f5
:1037000007f0baf8dee702a9354c230018330a00a7
:1037100061cb61c261cb61c261cb61c221cb21c2ed
:103720001b881380002004f005fe2849230048333d
:103730000a0013cb13c213cb13c21b781370214b97
:103740001b88002b38d000240ead214b1e1c244baf
:10375000082294466344984605e00134e4b2194bcc
:103760001b88a34228d902232b706e8063001b198b
:10377000db00184ad3181b7c7f2beed963001b1982
:10378000db009b5a2b81144f3a780132d2b23a7047
:103790001249002004f0cefd052301933b780093ed
:1037a0000a4b19222900022003f01aff0028d4d165
:1037b000414607f061f8d0e7034807f001fb84e7d2
:1037c000a0230000e247002038490020d046002016
:1037d00011110000484400206f49002068bc00001f
:0437e00020240000a1
:020000040000fa
:1037e400f0b5de4657464e464546e0b589b00d680d
:1037f40069600b232b702c00b234574b5a7c0d2676
:10380400002a59d1554b5b7a002b5ed1013c002331
:103814002370631e00221a70514b1b78033b5a1eff
:1038240093415b429b034f4a944663444a4a127c49
:10383400012a00d175e0e21eff211170a21e1b0aad
:10384400137006af3900532001f0fcfc3b88464a54
:1038540093426ad0671f3b70043c1b0a2370802488
:10386400240202ab98461900502001f0ebfc4346b9
:103874001b88ba1e13707a1e1b0a1370364a937c77
:10388400591c9174fa1e13707b1f00221a703a1f80
:10389400240a1470063f3e706f6100220221280042
:1038a40007f0b4fc314b01221a7009b03cbc9046bd
:1038b4009946a246ab46f0bda41a16000d36f6b2e0
:1038c4002b49200008f0ecf99ce72a4b9a461c602f
:1038d400294f00239b463b70284b00935b46019382
:1038e40069461e4807f0a1f93b7899465b463b7050
:1038f400234b00936946194807f097f93b785246e1
:103904001268013a49460901194311704a46920066
:103914009b185b00dbb23b70f618f6b2db43e4188d
:1039240077e7184a13439bb285e727000b3f063617
:10393400f6b204a9f02001f085fc049b05993a0035
:10394400033c137008061b0a0343090a0132a2420e
:10395400f7d1c024240284e7b0460020f0470020b9
:1039640061490020ff4f0000feff0000594900207c
:1039740050460020d04800205749002061a4000090
:0839840025a400000080fffff4
:020000040000fa
:10398c0070b586b004000e001500f02800d9b5e023
:10399c008300604ad3589f460a785f4bda74002440
:1039ac00002d08d05d4b1b78002b04d05a4bdb7dcf
:1039bc00002b00d1a6e0200006b070bd0a88564b43
:1039cc009a810024ece70a88534bda810024e7e75c
:1039dc000a78514b1a750024e2e70a784e4b5a7557
:1039ec000024dde70a784c4b1a740024d8e74a4bc4
:1039fc005a7c4b4808f050f90024d1e70b78342b53
:103a0c0000d97de0444a53740024c9e70a78424b3c
:103a1c009a740024c4e70a883f4b1a810024bfe73c
:103a2c00086849683c4b186059600024b8e70a885c
:103a3c00394b5a810024b3e70a78374b9a75002426
:103a4c00aee70b78344ad375002b06d007f046fd51
:103a5c00012005f04dfa0024a2e707f063fc0024d6
:103a6c009ee7fef749fe81283ad00024002800d0ba
:103a7c0096e76946572001f0e1fb02ae31004f207a
:103a8c0001f0dcfb04ac21004e2001f0d7fb6b46af
:103a9c001878317824782200431aa34200dadcb279
:103aac0001238340013b121b53439bb21a4a93815f
:103abc00002c0cd000220126300088401b189bb231
:103acc000132d2b201319442f6d1134a9381124a97
:103adc00938914214b430b33ff33938100245fe70d
:103aec0007f0f8f931002000fef706fe002400284c
:103afc0000d055e7094b01221a70bae7f4244fe7be
:103b0c00e8244de7002006f07bf8044b00221a70e5
:103b1c0051e7c046b8120000b046002056490020bc
:043b2c0050460020df
:020000040000fa
:103b3000f0b5ce46474680b587b0604b984603ac9b
:103b40005f4f43461b681d68002d25d0db681d684c
:103b500008f01ef9200003f061f80600039a002a1d
:103b600063d1a84226d301f07fff544b1b68db686a
:103b7000db689946181d07f0cafa24234a46d35c2d
:103b80005a073dd401229343233249468b544b4676
:103b90001b6a4846984716e008f0faf8200003f040
:103ba0003df80600039b002b3fd1464b1b681a686b
:103bb00053425a41a91b424b186805f0c5fc01f05d
:103bc00053ff00282ed0260000223100386801f073
:103bd000e3fd0028b5d02368002bf5dba5686b69f1
:103be000002b02d0281d07f092fa02a803f016f865
:103bf0002368092be8d833689b00334ad3589f4683
:103c00004b469b69e9182b003200484605f004ff3b
:103c10000028bcd0002300932a000021484605f06c
:103c200049fab4e707f09cfecde701f01dffcae7b3
:103c30002422ab5c01210b43ab546368aa69944610
:103c40006344190063680200280005f0e5fe0028bf
:103c5000bad028002b6a98472423eb5c5b07b3d5c6
:103c60006368a9698c4663441a000023009300210d
:103c7000280005f01ffaa7e72422ab5c01218b4343
:103c8000ab54a1e72422ab5c01210b43ab54616828
:103c9000a961411803000200280005f0bdfe93e76a
:103ca0002423eb5c9a0704d5012293432332ab54bf
:103cb0008ae7280005f02afa86e7c0460449002072
:0c3cc0001049002008490020d0af00008f
:020000040000fa
:103ccc00f0b5c64600b588b0050002ac18220168f4
:103cdc00200007f0e1ff574b1d60e3789a1e012a84
:103cec007dd8022b00d180e0534b0499059a1960c2
:103cfc005a60022252425a8103a9502006f0bafea1
:103d0c0007f0ecfb2c68012323706560b022a354f0
:103d1c0002ab1a7cb123e2546946f02001f08efa12
:103d2c00009b01992200a8322600b03613700806b9
:103d3c001b0a0343090a0132b242f7d1ff23a62220
:103d4c00a3540132a35402abdb78022b52d02600d1
:103d5c009e36394a1368516832002700a637137013
:103d6c0008061b0a0343090a0132ba42f7d1334b46
:103d7c0098461b276946502001f060fa6b461b8859
:103d8c00b21e1370721e1b0a13702b4a937d591ca2
:103d9c009175f21e1370731f23221a70321f434643
:103dac001b0a1370063e377066610a2169440420b1
:103dbc0006f060fe060009216944002006f05afe58
:103dcc000643f6b2002e2ad101220221200007f070
:103ddc0019fa00281bd11a4b01221a7026e0194a35
:103dec00e821280007f04afb20e002ab1a89124bad
:103dfc005a8181e72600a4360f4b5b89033aa35402
:103e0c001b0a0132a354104b98461527b2e70d4af2
:103e1c00e121280007f032fb07f084fa06e0094a9a
:103e2c00e121280007f02afb07f07cfa08b004bc5b
:103e3c009046f0bdd8480020b046002023cc0000ae
:0c3e4c0059490020ffff000023c80000bf
:020000040000fa
:103e5800f0b5c64600b582b0050088460c685749db
:103e6800042006f009fe564b19781a2900d974e087
:103e7800544b1b78023bfd201840534b1e7d0b0012
:103e880000220192012715e0012e15d1227a042a79
:103e980012d9019b002b60d0494b19705de0626814
:103ea800da40174226d1591cc9b201330197dab258
:103eb8001a2a50d80028e7d0032df0d1227a002af8
:103ec800edd0019b002b01d03d4b19703f4d286868
:103ed80006f0eafd00232b60237a5a1e93415b42c9
:103ee800e9229343ea33637000232372404605f0c6
:103ef8004ffb19e0019b002b01d0314b1970012dac
:103f080005d0032d06d12f4b03221a7002e02d4b4a
:103f180002221a702a49002006f0aefd002807d1b7
:103f280003f00af907f07afb02b004bc9046f0bd32
:103f3800264f386806f0b8fd00253d6007f0f4f913
:103f4800ea23637025724146214807f08df81d4b1e
:103f58001d708520e4e71a4b1970012d0bd0002d38
:103f680003d0032db2d0c046dee70023637040467d
:103f780005f00efbd8e7154d286806f095fd0023df
:103f88002b60114b1b7d002b09d163701149502008
:103f980006f072fd104b186805f0fafac4e7237aa8
:103fa800042b02d9fa236370f0e7002b02d0002318
:103fb8006370ebe7ea236370e8e7c04668490020ce
:103fc8006749002060490020b0460020e0480020f2
:0c3fd80044480020ee460020d84800209d
:020000040000fa
:103fe40008d1002806d1f54204d801d3002a01d112
:103ff4006d0d09d10020c143090dc904f0bdf9d1eb
:104004001242f7d1640df5d00020c1434905490897
:10401400a6e000206146f0bdf0b50127ff070e00c1
:104024005e403e40b446be0a4c18dd18f442d7d276
:10403400f542e4d2640decd06d0dead06419c902e6
:104044003943460dc0023143db023b43db0a10b463
:104054008e4685b297b26f43140c6c433e0ca41980
:10406400260c2404bfb227439cb26c43a419190c38
:104074006943250ca4b249190d04090c6419000cf8
:1040840095b245433e0c76193743bfb2360c150c36
:104094004543ad19a6b2240cad192e0437432e0c9a
:1040a40036199db24543ad19acb22e0c89191d0cbd
:1040b40045436d182e04290c3443704680b295b2e2
:1040c40045433e0c76193743bfb2360c150c4543b5
:1040d400ad19a6b2ad19240c2e0437432e0c361993
:1040e4009db24543ad19acb22e0c89191d0c454344
:1040f4006d182e043443290c75462d0c90b2684378
:104104003e0c80190604bfb23e43070ca0b23f1810
:10411400120c6a43d019020c80b2240ca4189ab26f
:104124006a43121914042043120c89181b0c6b43a4
:10413400c91810bc01273d05294203d1b6194041d5
:104144004941013cff077d0d013d641b0bdb6d0004
:10415400ac4209da240500254208be4168416141a8
:0a41640066463143f0bd54e74ee714
:020000040000fa
:02416e00fee76a
:020000040000fa
:10417000f0b58db006000d0003680020002104900a
:104180000591586984782407a40fa31e012b28d910
:10419000544b1b78032b33d0022b00d07ce0022c35
:1041a00048d0032c0ed1831d02aa0e30197811704d
:1041b000013301328342f9d1039a4b4b19680298bb
:1041c00081425bd00aaf3900502001f03df83b88b6
:1041d00004aa009222002900300005f04fff0db024
:1041e000f0bd831d02aa07000e3719781170013344
:1041f0000132bb42f9d1029a039b04920593c7e7af
:104200000aa9502001f020f8022c09d00aab1b8823
:1042100004aa009222002900300005f02fffdee7fb
:104220000aab1b8804aa009202222900300005f084
:1042300025ffd4e7c279120283792b4949891343b8
:104240009942bfd108ac2100532000f0fdff0aa91c
:10425000502000f0f9ff06a9f02000f0f5ff2388b8
:1042600002339bb2012b0dd90aab1b8808aa00921e
:1042700002222900300005f001ffb0e75b6893429d
:10428000a0d1dfe70aab1b8806aa0092032229000f
:10429000300005f0f3fea2e708ac2100532000f047
:1042a000d3ff0aa9502000f0cfff06a9f02000f0ac
:1042b000cbff238802339bb2012b09d90aab1b88a1
:1042c00008aa009202222900300005f0d7fe86e7f6
:1042d0000aab1b8806aa009203222900300005f0d1
:0c42e000cdfe7ce761490020b0460020c4
:020000040000fa
:1042ec0070b50500594c207fc0b2002800d0a7e063
:1042fc0000294ad0002d48d0554c6668072434401c
:10430c00012c5ed0514805604260002444618461f8
:10431c0004614e488160002a58d04c4ad3604b4a05
:10432c00012111774a4a127e520705d5484a0420ca
:10433c00916a117e0142fbd1454a518b0420014305
:10434c005183117e80200143117640498a68c968e7
:10435c00914203d93d48c168891a01613c494968b9
:10436c00490743d139498969914233d2374a116897
:10437c00087837498862916901319161002b5ad0d4
:10438c00334b04229a7501205be0002b59d0002a94
:10439c0057d02f4c666807243440012c0cd02b4886
:1043ac00056042600024446184610461002db0d139
:1043bc00264900208860aee7002943d1dc07eed502
:1043cc003fe0cc073dd4002be9d0f7e71f4a002192
:1043dc00d160a4e71d4a1269002acfd01c4aff21e4
:1043ec0091621a490a69013a0a61c7e7174a91684a
:1043fc0049089160116949081161d1684908d16077
:10440c00916892698a420ad210490a681288d205c8
:10441c00d20d0f4882628a6901328a61aee70b4a7b
:10442c001269002aaad00a4a0a49916207490a6904
:10443c00013a0a61a2e7064b01229a75012000e0bd
:10444c00002070bdcc07b9d5fbe7c04684460020e0
:08445c0000180042ff010000fe
:020000040000fa
:1044640070b584b0534a2823d35c002b53d003681f
:10447400504a117921241955546a5c62167c5e7085
:10448400528a5a80b21e012a4dd900225a80002431
:1044940000259c60dd60484a12788a4255d0464a1d
:1044a4001170464a9c68dd681460556041494a7938
:1044b4001a74002400259c61dd61c9885982032a8d
:1044c4004fd0022a53d000225a823a4a2121545c06
:1044d40001395c540831545c5c54d26ada621122aa
:1044e4001a700100364806f0c1fd324b1b88db060a
:1044f4005dd5344b1b78032b11d02e4b1b7c022b28
:104504003bd0032b45d00023009300220021002040
:10451400fdf7deff03e006f0c9fa06f007ff07f037
:104524007ff804b070bd002400259c60dd60022e7d
:1045340005d0204a9469d5699c60dd60abe71d4acb
:10454400128b9a600022da60a5e71c4a9c68156801
:10455400ac42a4d15268dc689442a0d106f0a6fa19
:10456400c3e7144a9168d2689961da61ade7114ae8
:1045740012899a610022da61a7e702ab0d4a118b16
:104584001980528a0092022200210020fdf7a0ff28
:10459400c5e7084b9969da69029103925b8a009333
:1045a40002ab032200210020fdf792ffb7e706f0db
:1045b400bdfeb4e7d04500205a49002070480020d1
:0845c400444800206149002079
:020000040000fa
:1045cc00f8b505f0cbfb002800d08fe04c4c9825bb
:1045dc0080231b066351802636026651db0a636119
:1045ec00a530400007f062f99423e6500a2007f04a
:1045fc005df966510a24642007f058f91c2004f078
:10460c0013f80b2805d0013ce4b2002cf3d185271c
:10461c006de00821093804f0a7f8642007f046f98a
:10462c0000221f21012007f082fb0a2408280cd04d
:10463c00642007f03bf900221f21012007f077fbd3
:10464c00013ce4b2002cf1d1e1e72e4b08225a7068
:10465c002d4807f07bf800284bd1012003f060f9be
:10466c00071e4ad1294d08e0284c2600083607f0d1
:10467c00a1f920700134a642f9d128786978090291
:10468c000843a97809040143e878000608430200ae
:10469c002879697909020843a97909040143e87961
:1046ac0000060843030001204042c11712184b4179
:1046bc00591c01d1d31cd7d800221549002006f073
:1046cc00b9fb002007f04efb02f0f4fbb42006f01f
:1046dc0097f8104b186000280dd0ff210e4807f0fa
:1046ec00e9fb084b822252045a6100e0852738000e
:1046fc00f8bd8527fbe78527f9e78527f7e7c0464f
:10470c00004400412c4700200d470020f0460020bb
:0c471c00e5be0000ec4800202048002012
:020000040000fa
:10472800f0b5c64600b582b0b42006f06bf8051e99
:104738005ed004680d2323706060002323736946ec
:10474800532000f07dfd6b461b8802339bb2012b82
:1047580052d9b0239846a0446946532000f070fd12
:104768006b461b88b022a3541b0a0132a35480272e
:104778003f020b266946502000f062fd6b461b88fd
:10478800394a528a9a424fd04246901e0236f6b2b1
:104798000370013a1b0a1370334b1b7c032b47d061
:1047a800831e314a128b1a700138120a02702f4a7e
:1047b8003a432d49498a981e0170581e090a01700a
:1047c8002b48817d4f1c8775d81e0170591f0a70b0
:1047d800191f120a0a70063b1e706361002202212b
:1047e800286806f011fd00283ad1224b01221a70e0
:1047f80002b004bc9046f0bdaa239846a04469467e
:10480800f02000f01dfd009b019942462600b236bb
:10481800137008061b0a0343090a0132b242f7d192
:10482800c0273f021126a5e740231f434046b3e7b0
:104838000300083b0636f6b20b498a69c9698c46fb
:10484800190080460a7060460006120a0243604654
:10485800000a844601318845f4d1074a3a43a8e75b
:10486800280006f021f9c3e7d04500200108000020
:0c487800b046002059490020010c00004f
:020000040000fa
:1048840070b5504b586a504b9b7d002b54d04e4909
:104894004c68072214404b4b5a699d699e680b7ef5
:1048a4005b0757d5896a474bdb68934252d9002c82
:1048b40043d1444b5b6899540132434b1b7edb0765
:1048c40016d5414b012119753e4b9b68ab4256d915
:1048d4003c4b1b68595d3c4b99620135394b1b6954
:1048e400002b01d1b54262d0364bdb68934262d0d3
:1048f400344b5a619d61344b1b7e9b0715d5334b5a
:104904001b78002b18d02f4bdb68934211d12d4b11
:1049140000221a772c4907240c752c490a701b6a4b
:10492400002b09d0274b1b6a9847284b1b78002b78
:1049340002d0254b02229a7570bd224b5b6854004d
:10494400e1520132204b1b7edb07d1d51e4b0121e6
:10495400197508e01c4b1b7edb07c9d51a4b0121d6
:104964001975002cb0d0174b9b68ab4213d9154b6b
:104974001b686900c95a144b99620135aee7114ba3
:104984001b69002baad0104bff2199620d490b69ba
:10499400013b0b61a2e70b4b1b69002b9ed00a4b1a
:1049a4000b49996207490b69013b0b6196e7074b79
:1049b400012119709ce7044b012199750331197584
:1049c40096e7c0468446002000180042554900205e
:0449d400ffff0000e1
:020000040000fa
:1049d800f0b5ce46474680b589b006008946150031
:1049e800984610ab1f780c6818222100684607f01b
:1049f80055f926704b466360a9230822e254013317
:104a0800e5542d0a0133e55406ad2900532000f082
:104a180017fc2b88ac22a3541b0a0132a354ae23e3
:104a28004246e2540a2e54d0ff22af23e254230018
:104a3800b133b02162541f7006a9f02000f000fcc9
:104a4800069b07992200a1322500a9351370080694
:104a58001b0a0343090a0132aa42f7d106ad29000d
:104a6800502000f0edfb2b889f22a3541b0a013233
:104a7800a3540a2e37d021009d31ff239d22a35431
:104a88000132a354214b1c26881eff220270481ea7
:104a980002701f48827d551c8575c81e02704a1f0a
:104aa80013700a1f1b0a137006390e706161012208
:104ab8000221200006f0a8fb0023002803d1154b93
:104ac80001221a700123180009b00cbc90469946bf
:104ad800f0bd6b461a8aaf23e2542300b133120aa1
:104ae800b0216254a7e721009731029b03980a007e
:104af80026009f36137005061b0a2b43000a013255
:104b0800b242f7d1044b2226bee7c04603d80000c4
:0c4b1800b04600205949002023dc0000ba
:020000040000fa
:104b2400f0b5ce4600b584b00400009101921f0098
:104b34000025442640e0a66b3a000099200003f0cb
:104b440065faa36c002b11d0022f00d180e0200065
:104b540004f0e7fd002806d107f070f8012004b046
:104b640004bc9146f0bd06f0f9fef5e7636a002b3c
:104b740004d10028f0d006f0f1feede72000243047
:104b840003f090f90028e7d006f0e8fee4e707f028
:104b940055f80020e3e702a806f020fe19e0002300
:104ba400a35520e045230022e25421e0200002f036
:104bb40013fb00f057ff012506f0dcfea36be26b4c
:104bc4009342b8d3022f3ad0019b002bdfd0002da3
:104bd400e1d007f033f807f0d9f806f0cbfea35d77
:104be4005bb20133dbd04523e35c5bb20133d9d044
:104bf40007f024f801a902a803f07efa002817d1cf
:104c040006f0b8fea36b9946e56b07f017f8a945c3
:104c1400ccd120001030019906f010fd200002f0e4
:104c2400dbfa00f01fff0028c5d106f097fec2e7ab
:104c3400200002f0d1fa00f015ff00208fe7a66be8
:104c440002220099200003f0e1f9a36c002b8dd01f
:084c5400002e00d080e77ae792
:020000040000fa
:104c5c00f0b585b004000191002300930025442693
:104c6c00002743e0013ba3632368002b09d0236991
:104c7c00002b0ad106f0deff01230093009805b04b
:104c8c00f0bd06f0e5fca060f1e72000103003f069
:104c9c0005f90028eed006f05dfeebe706f0caff42
:104cac0000230093eae702a806f094fd28e0a7553c
:104cbc0030e04523e75432e006f058fea06802f0dd
:104ccc00b1fb009006f0b6ff39e0200002f080fa4c
:104cdc0000f0c4fe09e0200002f07afa00f0befefb
:104cec00200006f093ff002838d1012506f03efe87
:104cfc00a36b002bb6d1019b002bcfd0002dd2d0b3
:104d0c0006f098ff07f03ef806f030fea35d5bb2ac
:104d1c000133ccd04523e35c5bb20133c9d006f040
:104d2c0089ff01a902a803f0e3f90028d3d12000e0
:104d3c0006f06cff0028c8d02368002bbcd02000e4
:104d4c002430019906f076fc200002f041fa00f0c4
:104d5c0085fe0028c9d106f0fdfdc6e7009b002b9f
:104d6c0000d18be706f002fe616a002903d0236ba9
:104d7c001b680521c91aa06803f020fc06f05aff35
:064d8c00002300937ae70a
:020000040000fa
:024d9200fee73a
:020000040000fa
:104d9400f0b5c64600b582b03f4b1b68002b00d06f
:104da40071e03e4b1a68013290461a60002a20d006
:104db4003b4b1b68434529d900230193394b1b689e
:104dc400da6a93009b189b00374a9b58012b01d940
:104dd40001230193354b1b68002b51d0344b1b68c6
:104de400002b01d001230193019802b004bc90462a
:104df400f0bd304a1168304b1868106019602f4ab2
:104e040013680133136005f055ffd1e700230193c4
:104e1400284e370017e0224b012252421a60cde798
:104e24001f4a1360cae79800c01880001e4b181868
:104e3400290006f058fe1b4b1b68e26adb6a9a42a3
:104e440001d30123019333681b68002be3d03b6833
:104e5400db68dc6863689845e2d3251d280006f00a
:104e640054f9a36a002b03d02000183006f04df942
:104e7400e36a134a12689342d5d9114a1360d2e700
:104e840000f049ffaae7094a13680133136000f0f0
:104e940042ff00230193a7e7a8480020c848002048
:104ea400b848002094480020e4430020c048002073
:104eb400cc480020984800209c480020bc48002092
:044ec400b0480020d2
:020000040000fa
:104ec800f0b58fb00d934b680c9006938b680d006e
:104ed8000793cb6816000393069b0f68002b44dbef
:104ee80002239f4310233b400a93079b04930a9b8a
:104ef800002b07d0726833681343079a02d0130057
:104f0800023b049308233b400b935a1e9341049a97
:104f1800d31a04933368039a0893736809932b6927
:104f28005c1e00231355069b0593012c20dc0a9b6d
:104f3800002b51d10b9b002b03d02023039a013c5b
:104f480013552b6900975a1e039b121b19190c98ad
:104f5800079b02f068ff0c9b5b68db0503d56b6859
:104f6800984200da18000fb0f0bd01230693b9e7a4
:104f7800089b099a13430bd1059b002b08dc069a62
:104f8800049b9b1a059a9b18002bd0ddbb07ced536
:104f98000f23089a013c134018005730092b01dcf5
:104fa800303318000d9b413b192b06d820230343af
:104fb800613b192b01d806f03cff039b1855059b54
:104fc800013b0593099b1a07089b1b091a43099b78
:104fd80008921b090993a8e70cce1343aad0039b98
:104fe8000d9a1b19013b1a703023039a023c135582
:024ff800a0e730
:020000040000fa
:024ffa007047fe
:020000040000fa
:104ffc00f8b5040006f0c6fe404b1b68002b15d01c
:10500c003f4b1e68344238d1002c3dd02200083270
:10501c00530702d007239a430832002a34d0394b65
:10502c001f68974233d338490c6835e0374a530729
:10503c0020d0d11d07239943bd239b019c4662447c
:10504c00531a0a003048026000214160d318083b13
:10505c00072083432948036059601960991a5160ed
:10506c0013602b4b1960274b1960254b80221206bd
:10507c001a60c5e7bd239b01e4e700f0effc06f0e6
:10508c007cff00252800f8bd00f0e8fcf7e700f0f5
:10509c00e5fcf4e721001c006368934202d223680c
:1050ac00002bf7d1154b1b68a3421ed00d68083599
:1050bc0023680b6063689b1a102b19d86368ff1a5e
:1050cc00104a1760124a1268974201d2104a1760b0
:1050dc001e436660002323600e4a1368013313607d
:1050ec0000f0bcfc002dcdd1c9e700f0b7fcc6e741
:1050fc00a0184360626004f057f9dfe720490020f4
:10510c002449002028490020884800200000002065
:08511c002c490020304900205d
:020000040000fa
:10512400f0b585b0050004680c222100414806f062
:10513400b7fd02ae3100532000f084f832883e4bb4
:105144009a4211d03d4be2889a4207d1a3790f2ba2
:1051540004d8e27993420cd20f2a0ad0e82128001d
:1051640006f006fb05b0f0bdec21280006f000fbbc
:10517400f8e7a37a012b39d0210008310b2005f080
:105184007dfc2c4b9b7a012b35d0a11d472005f0cb
:1051940075fca3790f2b3ed0e11d542005f06efc65
:1051a40006f0a0f9234ca11c502005f067fc611dfa
:1051b400042005f063fc0600211d002005f05efcc0
:1051c4000700210008310b2005f058fc3e43f6b2dd
:1051d400002e04d1012003f08ffe16281dd0e821f3
:1051e400280006f0c5fa06f0a1f8bbe7144b1b78bb
:1051f400012bc1d8b2e70f490b794a88497900914c
:1052040029000820fff7e6fb0028abd1e82128009d
:1052140006f0aefaa6e7e371bee7064b1b7a013b44
:105224005a4253410233064a13700021280006f003
:105234009ffad8e750480020ffff00000f0f00003e
:04524400614900209c
:020000040000fa
:1052480010b50b00072800d171e012d9502846d0bc
:1052580021d9572800d174e029d9592800d175e0ff
:10526800f02830d108223c49180006f017fd00202c
:105278001ce003284ed006d8012838d045d8364a35
:10528800d27c0a7012e0052849d055d8324a127edd
:105298000a7000200ae04e2817d01bd80b2804d12a
:1052a8002d4a927d0a70002000e0892010bd532805
:1052b80007d12949087b4a7b120202431a80002041
:1052c800f4e78920f2e78920f0e7234a127d0a7083
:1052d8000020ebe7204a527d0a700020e6e71e49cd
:1052e800887bca7b120202431a800020dee71a4834
:1052f800027a417a09021143827a12041143c27a6e
:1053080012060a431a600020d0e7134ad27d0a70b9
:105318000020cbe7104a927c0a700020c6e70e49ad
:10532800087c4a7c120202431a800020bee70a4a1f
:10533800927e0a700020b9e7074a527e0a70002060
:10534800b4e7054ad27e0a700020afe7024a127f0e
:0c5358000a700020aae7c046f0460020c2
:020000040000fa
:1053640070b584b00400404b9b8d5b0401d404b041
:1053740070bd02a95020fff765ff002c05d13a4b00
:105384005a8a02ab1b889a4205d0374b5a8a374b4c
:105394001b889a42ebd1344b1a8b354b5b899a426a
:1053a400e5d0314a324b91691868814203d1d26900
:1053b4005b689a42dbd0b42005f026fa051ed6d0ed
:1053c4000468052323706060b122a3546946f02069
:1053d400fff738ff009b01992200a9322600b1365d
:1053e400137008061b0a0343090a0132b242f7d1bb
:1053f4001f4a136851682200a1322600a93613708f
:1054040008061b0a0343090a0132b242f7d169466e
:105414005020fff717ff6b461b889f22a3541b0adb
:105424000132a354124a937d591c91759e22a354b0
:105434009c233b3ae25401336932e254023bb43ace
:10544400e25423009b336361173a0221200005f0e4
:10545400ddfe002803d1074b01221a7087e72800dc
:1054640005f024fb83e7c046d0450020ee4600202b
:08547400b04600205949002058
:020000040000fa
:10547c0010b52b4b06225a6002f0e6fe01f0c8fc78
:10548c0006f0f4fc02f090fa04f0a8ff02f010fc15
:10549c0004f02efd2349002000f054fe224c206025
:1054ac00224b234a1a60234a5a60234a9a60234aa1
:1054bc00da60234a1a61234a5a61234a9a61234ac1
:1054cc00da61234a1a62234a5a62234a9a62234aad
:1054dc00da62234a1a63234a5a63234a9a63234a99
:1054ec00da63234a1a64002314220121214803f0b1
:1054fc00d1fc0023142201211f4803f0cbfc1f49cf
:10550c00002002f0d9fe606006f0ccf802f064fed8
:10551c0002f062fefff754f806f050fb10bdc046d7
:10552c000040004130bf000080480020484500206a
:10553c0091b7000059b80000a18e000035b20000f0
:10554c0071b80000ada8000005bd000029b800002e
:10555c0081b1000045a80000a5b10000f3bc00001b
:10556c003dbb000051bb000051ba000019bf000048
:10557c0021bf0000f0480020f448002090be00003d
:020000040000fa
:10558c0070b588b00500046818222100684606f042
:10559c0083fb394b1b78023b012b60d80223237011
:1055ac00ae22a3546b461b8a0132a3541b0a013250
:1055bc00a3546b469a7cb123e25406a9f020fff762
:1055cc003dfe069b07992200a6322600ae361370cc
:1055dc0008061b0a0343090a0132b242f7d1029ba7
:1055ec00039922009e322600a636137008061b0a69
:1055fc000343090a01329642f7d106ae310050201e
:10560c00fff71cfe33889c22a3541b0a0132a354bf
:10561c001a4a937d591c91759b22a3549923383aad
:10562c00e25401336932e254023bb13ae2542300b2
:10563c0098336361002323732900114805f012fd90
:10564c00012810d00d4b1b8963810e4b187805f087
:10565c00c3fe00280cd005f0dfff08b070bd280099
:10566c0005f020faf9e72900f03003f049f8f4e7e7
:10567c0005f030f9efe7c04661490020b046002044
:08568c00f047002063490020f3
:020000040000fa
:10569400f0b5de4657464e464546e0b583b08046f3
:1056a40000296ed00024384f0726384b9c469b4671
:1056b4009946009108e03648415549468a60621c83
:1056c4000134009991424cd97a683240012a16d0ab
:1056d4009d68da6892466a1c19698a4289410a40bf
:1056e40092453fd04146095d786830400128e2d1b7
:1056f4006d0027484155013500214155dde76246db
:105704009568d26892466a1c614609698a42894151
:105714000a40924526d0610001204044405c0002ca
:1057240082464046415c50460143019178683040ce
:10573400012809d0694609798a46154950464855d1
:1057440059468a60621cbbe7690068460079104dbf
:10575400aa4668540d0001350199090a504641557d
:10576400eee7140005f0daff002802d0064b012210
:105774009a75200003b03cbc90469946a246ab46bd
:10578400f0bd0c00eee7c0460008004210460020c1
:04579400644300204a
:020000040000fa
:10579800f0b5c64600b584b0040000910192002718
:1057a80044260023984638e00099200005f0cefdf5
:1057b8006b1ea3632369002b06d106f03dfa012076
:1057c80004b004bc9046f0bd2000103002f068fb25
:1057d8000028f2d006f0c0f8efe706f02dfa002016
:1057e800eee702a805f0f8ff21e04346a35528e0bc
:1057f80045234246e25429e0200001f0ebfc00f08a
:105808002ff909e0200001f0e5fc00f029f920005b
:1058180006f0fef9002835d1012706f0a9f8a56b96
:10582800002dc1d1019b002bd7d0002fd9d006f075
:1058380003fa06f0a9fa06f09bf8a35d5bb2013300
:10584800d3d04523e35c5bb20133d1d006f0f4f941
:1058580001a902a802f04efc0028d3d1200006f0ce
:10586800d7f90028c8d020002430019905f0e4febb
:10587800200001f0affc00f0f3f80028ccd106f0ce
:085888006bf8c9e700209be763
:020000040000fa
:10589000f0b583b00200384b1b889c469e0b1b055d
:1058a0009b0f181e0cd0507800021178014332482b
:1058b000c180022b20d0911c032b2ad00a00022089
:1058c000002e0fd06146490634d454782402117852
:1058d000214302320230c0b2274c6182022e2cd00a
:1058e000032e37d02449ca78053a121a28240a55bb
:1058f0000e744b7103b0f0bd050000200021a860bc
:10590000e960d078000291780143298104320420b3
:10591000d6e7684617000a370d7805700131013067
:10592000b942f9d11449009c019d8c60cd600a32c6
:105930000a20c5e71049c988cee7270000240025c2
:10594000bc61fd615178090212780a433a83023042
:10595000c0b2c7e711006c4608320d7825700131de
:1059600001348a42f9d1044a009c019d9461d561b9
:0c5970000830c0b2b6e7c046d0450020a9
:020000040000fa
:10597c00f0b5d6464f464646c0b50426344da8462b
:10598c00a946334b9a465be04a46126a002a42d03b
:10599c00796a3b6a01209847bb6a01333a6b9342a0
:1059ac009241134037e05246926a5200e0b22949c4
:1059bc0088540132240a8c543ce005f0b9fe244b87
:1059cc001b6a002bddd0224b596a3c23204ad35c46
:1059dc00002b06d0936b9842d3d3136a00209847c0
:1059ec00cfe71b4b9b6b9842cbd1194b1b6a00200a
:1059fc009847c6e7184b1b7e334223d0164b1c8da1
:105a0c00a4b2ab6a01332a6b9342924113404246d3
:105a1c00d26a9a42b8d00e4ad26a9a42ead00e4a58
:105a2c00516807220a40012abdd0094a926ae4b2a1
:105a3c0008498c54064a93623423d35c002bbcd1a6
:105a4c00034fd7e71cbc90469946a246f0bdc04612
:0c5a5c0010460020e44200200008004238
:020000040000fa
:105a6800f8b5ce46474680b505f082ff2e4b1a683a
:105a7800013a1a601b680024002b03d12b4b1b68ca
:105a8800002b06d106f0d8f820000cbc90469946a9
:105a9800f8bd0024264eb046264f274b994633685a
:105aa800002b22d04346db68dc682000183005f064
:105ab8002afb251d280005f026fbe36a3a68934275
:105ac80001d91c4a13609800c01880001b4b181895
:105ad800290006f006f81a4b1b68db6ae26a9a424c
:105ae800ddd301234a461360d9e7002c01d005f025
:105af800dff8144b1c68002c0ed00f4e012502e075
:105b0800013c002c05d0fff741f90028f8d035609a
:105b1800f6e70c4b00221a60074b1c68002cb1d02a
:105b280005f01aff0124ade7a8480020a04800208e
:105b380070470020b0480020cc480020e4430020f3
:085b480094480020c048002031
:020000040000fa
:105b5000f8b5374c656b63689b699847606160690d
:105b600005f098fda66ae76a0023020092197b41be
:105b7000a262e362002d51d02d4c3022a35c013390
:105b8000a35404f0b7fd646b002c06d0a368002b6f
:105b900003d101250027264e11e0264d00242e00ba
:105ba00021e0e06904f0eaf9e368002b01d0206904
:105bb0009847746b002cf0d0a368002bedd12575ad
:105bc0006575a378002b02d1e368002be9d1200092
:105bd00002f05effa378002be6d16770e4e70134a2
:105be0002035052c15d06301f3185b7d002bf6d012
:105bf0006201104b9b1800225a75ab78012beed135
:105c000061010c4b59186b688b60280000f0f6f8a6
:105c1000e5e7074930228b5c013b8b5406f06cf9b9
:105c2000040000f079fc200006f06af9f8bdc046d7
:085c30009045002044420020d1
:020000040000fa
:105c3800f0b5060085b00f0015001c008b4265d832
:105c480001d1824262d82100280005f0f1fe390016
:105c58000090300005f0ecfe009b21001b1a1a0092
:105c68002800039305f0d8fe00900191019bbb42e8
:105c780046d802d1009bb34242d8009b019c039aac
:105c880001200021f61aa74105f0c6fe039b002b50
:105c98002fd0019b009adb0754081c43019b5d0829
:105ca800039b9c46bd422ed801d1b4422bd832006a
:105cb8003b00121bab41012692185b410027b61826
:105cc8005f4101235b429c446346002bead1801963
:105cd8007941039a04000d003000390005f090fe68
:105ce800039a06000f0005f097fe241a8d41200044
:105cf80029000a9b002b01d01e605f6005b0f0bd33
:105d080000200021c2e7b6197f41dae70020002110
:025d1800efe7b3
:020000040000fa
:025d1a007047d0
:020000040000fa
:105d1c00f0b5ce46474680b583b00125314ca04640
