:020000040000fa
:10000000f07f00209d780000c77c00003781000051
:1000100000000000000000000000000000000000e0
:10002000000000000000000000000000a7840000a5
:100030000000000000000000817a00000589000037
:100040004b7600004b7600004b7600004b760000ac
:10005000016e00004b7600004b7600004b760000ee
:100060004b7600004b7600004b7600004b7600008c
:100070004b760000153400004b7600004b760000f4
:100080004b7600004b760000b18600004b760000f6
:100090004b76000000000000000000004b760000de
:0c00a0004b760000000000004b760000d2
:020000040000fa
:1000ac00f8b5c046f8bc08bc9e467047a577000062
:1000bc00f8b5c046f8bc08bc9e4670477d7700007a
:020000040000fa
:0800cc00b04400000100000037
:020000040000fa
:1000d400f0b5de4657464e464546e0b58fb007902c
:1000e4000d0014001f0018ab1e783b78082b01d9b3
:1000f40000f007fc9b00e04ad3589f46df4b1b7877
:10010400062b01d000f0fdfbdd4b1a88ff231a42b9
:1001140001d000f0f6fb22000821da4804f0baf915
:10012400002801d100f0edfb8c2007f0d9fe071e5a
:1001340001d100f0e6fb0668002e01d100f0e1fbde
:10014400cf4b198889b20bab0022012006f0f6fdd3
:1001540004ab5b7f2022134304aa537731000ba81e
:1001640007f0f6fe804602233354c74b1a78030087
:100174000133dbb2f254c54b9a46c54b9b465146fc
:10018400180004f0a1fd43460233dbb2f0545b4691
:100194001a7843460333dbb2f25453461a78434683
:1001a4000433dbb2f2544346581dc0b2301808225f
:1001b400b44908f07bfe0497b64b039300230293e3
:1001c4000194009533000d2241460ba802f0c2ffb2
:1001d400002800d095e3380007f0dcff91e3a74b3b
:1001e4001b78032b00d08ce3ab4b1b68ab4a116824
:1001f4005a784423cb5c9a421ed3a74b1b68a74a68
:1002040011685a784423cb5c9a4200d079e3a44c19
:10021400606907f0f7fc606907f0d4fc9e4b19682d
:1002240009230b70954b05221a7048789d4c23685e
:1002340098470023236064e37b1d08939a4a0821ae
:10024400180004f027f9002800d15ae3924b1d68e6
:1002540000232b706878002813d0079bdc882b8a36
:10026400a34200d14de32a00223200230133dbb242
:10027400834206d01232110012390988a142f5d105
:100284003fe3079ce3889c46c1000a185200ab1860
:1002940062461a82854a12781a736288da817a78f9
:1002a4001a72ba785a72fa789a723a790b185b0011
:1002b400eb18da720130c30018184000281808221d
:1002c400089908f0f3fd791d08226e4808f0eefd48
:1002d4006978cb005a185200aa185673108a330052
:1002e4000122010005f0a6fb6b4b1a685378013319
:1002f400537082e7614b1b78062b00d001e3604bff
:100304001a88ff231a4200d0fbe27b789b0700d1b6
:100314004de1bb789b46db0743d4604b1b68994691
:10032400db7f9a46012b39d9fb1c08934b465b684b
:10033400099314229c466244012707912500140066
:10034400b046564608222900200008f02dfc00285b
:1003540000d1e5e00137ffb21434b742f2d12c00ea
:10036400079d01274d4b9a464b463e002700b0009f
:100374008019800004005b68181807f083fc0028cb
:1003840000d1e6e00136f6b253461b68da7fb2428a
:10039400edd83c004646464b98460ae1444b984605
:1003a40007e13e4b1b6899469b7f9a46002b00d180
:1003b4004ae14b461b6808930027079125001c005f
:1003c400b046564608222900200008f0edfb00281c
:1003d40070d00137ffb21034b742f3d12c00079d1f
:1003e40000272e4b9a464a463e011068801907f0b2
:1003f40049fc002870d00137ffb253461a68937f36
:100404009f42f1d34646002b00d120e11068826858
:100414009046002a00d17ce002001832002708210f
:100424004942091a07940800b4460137ffb2bb4297
:1004340071d084181600083e103211001039096872
:100444000029f2d13000a046079c6646082221000c
:1004540008f02cfd114b1a6813684344594619736c
:1004640013684344d28d9a60054b1b888033df198f
:10047400bbb298469de0c04608880000383e002084
:10048400423d0020143d0020253b0020333e002047
:10049400f53b0020273900006c3d0020743d00200e
:1004a4003c350020603d00208c3e0020363e00207c
:1004b400ffff00002c00079d4646089bff22120107
:1004c400944663444a46d28d9a60d84b1b88803345
:1004d400df19bbb298466ce04346b0461e00d44bcd
:1004e40099461b68186840440822210008f0defc85
:1004f4004b461a68136843445946197313684344b6
:10050400d28d9a60c94b1b888033df19bbb29846e1
:100514004fe000279ae7079c6646c64b984648e09a
:100524002c00079d4646099bc34a94466344180021
:100534000422089908f0bafc4b465b68bf4a94460b
:1005440063449a68da60b94b1b88df19bbb29846da
:100554002fe022003c0037004646b54b99461b6805
:1005640058680792944660440822210008f09efcd3
:100574004b461b6899465b68079a94466344594600
:1005840019744b465b6818006044083004220899cb
:1005940008f08cfc4b465b68079a944663449a685f
:1005a400da60a24b1b88df19bbb2984601e0a14b6d
:1005b40098469e4b198889b20baf3b00012201205b
:1005c40006f0bcfb7b78202213437b708c2007f061
:1005d40087fc8246002800d193e103689946002bea
:1005e40000d18ee119000ba807f0b2fc8346421c2f
:1005f400d2b2042349460b548e4b98452ad1871c0a
:10060400ffb201238b544b464246da557a1cd2b2d0
:1006140043461b0a49468b545b46fa1a0232d2b24d
:1006240053460493864b039300230293019400954d
:100634004b4659460ba802f08dfd002800d060e11e
:10064400504607f0a7fd5ce17a4b9846b1e7794b39
:100654009846aee7871cffb200238b543300012277
:100664004146404605f0e6f9cde7764c606907f06f
:10067400c9fa606907f0a6fa734b1b78042b00d003
:100684003fe17b78002b09d06f4b05221a707878f4
:100694006e4c236898470023236032e1fa781202f3
:1006a400bb781343614803800799ca88684b1a8052
:1006b400684c4b88238007f095ff200007f07effed
:1006c4005b4b1b683c22995c634a11703f229a5c25
:1006d400d10704d555490888ff21084251d1920712
:1006e40004d5524a1188ff2211427ad1564a062172
:1006f40011701a8b5001801a80008018c0000139d3
:1007040007f078fc4f4b586398634e4c5348206471
:100714003c230122e2541b2104ab9c466144002388
:100724000b700133a26b06f0c1fd6064431c00d161
:10073400e7e03e4b1a88ff231a42a8d03b4b1b88a4
:100744001b065bd53a4b1b689b8d5801c01a800071
:10075400c018c000052107f04dfc0200394c60634d
:10076400a0633e4820643c230121e1540ba90023eb
:100774000b70013306f09afd6064431c00d086e7d9
:10078400bfe0314af83911702e4c3548a062597fc8
:100794004a01521a92005218d200e2615b7f5a0158
:1007a400d21a9200d218d200226224230121e154e9
:1007b4000ba900230b70013306f078fde062431ca3
:1007c40000d19ee01a4b1b689b8d5801c01a800013
:1007d400c018c000052107f00dfc1a4b586398633c
:1007e40093e7194bfa3a1a70104b063a1a80174cd1
:1007f4000120236898470023236082e0114c1948a4
:10080400a023e0506e3b9422a3500432a350002353
:100814000432a3540ba90b706a3a06f047fda423d3
:10082400e050431c00d032e76be0c046423d00205c
:10083400743d0020ffff0000f4130000ec130000df
:10084400273900003c350020383e00205c3d002064
:10085400423e0020303e0020273b00204d4b00004c
:10086400d5620000619000004f4b1b78062b48d1e5
:10087400079ef3881b0644d54c4b1d68ab7f002ba9
:100884003fd00024494b9946b84609e0380005f0aa
:1008940087f80134e4b24b461d68ab7fa34230d9dc
:1008a400f78880233b409c42f3d123012a68924677
:1008b4009a444346591c0822504608f075f900280a
:1008c400e4d1eb8d52469360e3e7394b00221a7072
:1008d400384ca425605907f095f9606c07f092f93b
:1008e400605907f06ff9606c07f06cf92e4b082221
:1008f4001a70314b093a1a80304b1b68002b00d018
:1009040098470fb03cbc90469946a246ab46f0bd12
:10091400254b1b78072bf4d1ba7812027b7813434a
:10092400254803800799ca88254b1a80254c4b8893
:10093400238007f057fe200007f040fe1d4ce06abc
:1009440007f060f9e06a07f03df9606c07f05af9c6
:10095400606c07f037f9154b1b681a8b5001801a2d
:1009640080008018c000052107f044fb020060638a
:10097400a063154820643c230121e1540ba9002302
:100984000b70013306f092fc6064431cb9d0064b33
:1009940006221a700d4b1b68002bb2d0064a108831
:1009a40080b29847ade7c046383e0020743d002031
:1009b400263b00203c350020423d0020643d0020c1
:1009c400423e0020303e00204d4b0000683d002098
:020000040000fa
:1009d400f0b5de4657464e464546e0b591b00400b4
:1009e400028ab64b1b88934253d1836818780da9a9
:1009f40008705d784d709e780e72e17b002900d0fe
:100a0400d2e20da949788d0600d559e3082208924f
:100a1400d0e2ab4a15880daa95800325e3e20133a1
:100a2400dbb20432834206d01188b142f7d1917807
:100a3400a142f4d12de0604607974c46a14b9a455c
:100a44002ed00dab5b78db0606d50dab9a889c4b9c
:100a54001b889bb29a426cd00dab5a780323134087
:100a6400012b00d1dee00dab5b780026db0710d450
:100a7400954b1b78063b012b00d809e1002e08d0ca
:100a84000dab1b78002b04d08f4b1b78062b00d1a9
:100a9400f9e111b03cbc90469946a246ab46f0bd84
:100aa4000128ced04346db7f012bcad90126874bd0
:100ab4009a464346a946a04606e00136f6b2534696
:100ac4001b68da7fb24231d9b000801980005b68bc
:100ad400181807f0d7f80028efd08c2007f000fa98
:100ae400041ed6d00768002fd3d0380014300a2251
:100af4000da908f0dbf95b46bb7700257d60380063
:100b04001f305a46099908f0d1f90123bb746c4b84
:100b14001b889b19bb816d4b1b685b690133bb60f0
:100b24003d7421006a4807f0f9fcc6e74d46444687
:100b340087e7684b9a4200d98ee70dabda88904676
:100b44001b7a99465e4b198889b20aae3300ff209e
:100b540006f0f4f84b463372737803229343012270
:100b64001343102293437370ff234246134207d06a
:100b7400534b1b889bb2ff22414691438b422bd09f
:100b84008c2007f0adf9061e00d165e7036898468e
:100b9400002b00d160e719000aa807f0d9f9010079
:100ba4004d4a1378013b1370322342461354049682
:100bb4004a4b039300230293079b0193089b0093e2
:100bc400434601220aa802f0c5fa002800d043e7f0
:100bd400300007f0dffa3fe743461b06d0d48c20f1
:100be40007f07ef98046002800d135e70668002e1c
:100bf40000d131e7300014300a220aa908f056f96e
:100c04000122b277002171603223f3772f4b1b68e6
:100c14005b699b18b3603174b27441462c4807f089
:100c24007dfc19e7099b1b780f229343102b16d0e8
:100c340009d9202b27d00026302b1ed109990da8c5
:100c440001f0aafc0fe70026002b16d1a37b00932a
:100c5400099b079a08990da8fff73afa03e71a4b7c
:100c64001b78062b00d014e7a37b0093099b079afb
:100c740008990da800f096fc06000dab5b78db0725
:100c840000d4f5e6fae609990da807f05bfceae65c
:100c94000dab9b880f4a934242d9094a1188ff221f
:100ca40011421dd0064a1288120619d4054a9342ed
:100cb40000d0e3e6024b1b8816e0c046303e00201d
:100cc400423d0020ffff0000383e0020743d00201c
:100cd400f03c0020fcff0000393e0020a77100001a
:100ce400a84a1288120617d40aab0daad188198013
:100cf4005946197209990b91a17b9972617b5972ba
:100d04005278032313401bd19f4b1b68002b00d147
:100d1400b4e60aa89847b1e69c4a9342e4d1ade60a
:100d24000dabdf881b7a98461900380007f006f8e7
:100d3400002800d0a2e64146380004f0c5fed3e7ff
:100d4400022b00d0a5e6924b1b68002b00d195e640
:100d54000aa8984792e68f4b1b78062b00d060e1d7
:100d640053461b0635d58c2007f0baf8051e00d172
:100d74008fe60768002f00d18be60aae0daca2887f
:100d8400e1882078330005f0d9ff63787370390067
:100d9400300007f0ddf8237abb70040038185a4697
:100da400099908f083f804957b4b0393002302937d
:100db4000eab0193022300933b005a4621003000fe
:100dc40002f0c8f9002800d063e6280007f0e2f931
:100dd4005fe68c2007f084f8051e00d159e604680c
:100de400002c00d155e6200014300dae0a2231004b
:100df40008f05cf85b46a37700236360b388a381a3
:100e040020001f305a46099908f050f80123a374b2
:100e1400624b1b685b690133a3602900604807f0db
:100e24007dfb36e68c2007f05bf8051e00d130e62a
:100e34000468002c00d12ce6200014300dae0a22e8
:100e4400310008f033f85b46a377002363605a4609
:100e5400099920001f3008f029f80123a374b088f1
:100e640004f0a2f8002803d1280007f093f910e653
:100e74004a4b1a682123d35c0133a36029004948f3
:100e840007f04cfb05e60aab012252421a808c2083
:100e940007f026f8071e00d1fbe503689846002bef
:100ea40000d1f6e50dae3378013b33704146300096
:100eb40007f04ef80790317a43469970f08805f0b0
:100ec40047fa002820d0079e330043441800227bb1
:100ed400521b099907f0eaff227b521bd2b20497f6
:100ee4002d4b0393002302930aab01930223009337
:100ef400434631000da802f02df9002800d0c8e5c2
:100f0400380007f047f9c4e5380007f043f9c0e5b5
:100f1400676807970dad6a807a78120294463a782a
:100f240067463a43ea80022208922278520700d4a4
:100f34006fe50daa01256d4295804a0700d5a8e505
:100f440003330993237b033bdbb29b460dab9b88a6
:100f54009a4603250dabdb889946104b1b689846cf
:100f640022234246d35c9c46002b00d166e51269dd
:100f74000023079f61468446200034004e46814684
:100f8400080051e5423d0020a43d0020fdff000083
:100f9400a03d0020383e00201f6c0000743d00205e
:100fa400f03c0020083d00200da949788d06afd4ff
:100fb40002220892626807920daa1d792d02ac469e
:100fc400dd7867463d4355809d792d02ac465d79b9
:100fd40067463d4395801d7a2d02ac46dd79674610
:100fe4003d43d58009254a0700d552e55b1909938d
:100ff400237b5b1bdbb29b460dab9b889a46344b31
:101004009a45a7d8334b1b889bb29a4500d118e563
:10101400304b1b889bb2ff22514691438b4200d137
:1010240099e62c4b1b889bb29a4500d131e50028e8
:1010340000d12ee5284b1b78062b00d029e5254b43
:101044001b889bb20daad2889a4200d121e50138af
:101054000dab1870504607f0b9f90aab18801f4b56
:10106400984200d1dee68c2006f03aff041e00d13f
:101074000fe50668002e00d10be50daf31003800f6
:1010840006f066ff05003b7ab37030185a4609999a
:1010940007f00cff0494124b0393002302930aab52
:1010a40001930223009333005a462900380002f0ca
:1010b40051f8002800d0ece4200007f06bf8e8e4d5
:1010c400656807950dad6a80082208922de7c04631
:1010d400fcff0000423d0020383e0020ffff0000de
:0410e4001f6c00007d
:020000040000fa
:1010e800f83b00201c000000000000004a3d0020e2
:1010f80002000000000000007039002050000000cd
:1011080000000000a43a00200400000000000000d5
:10111800143c00201c000000000000004c3d002092
:101128000400000000000000a83c00200c000000a3
:1011380000000000d83b00201d0000000000000057
:10114800503d002004000000000000002a3e00205e
:101158000200000000000000543d002004000000d0
:10116800000000002e3e00200200000000000000e9
:10117800323e00200100000000000000dc370020a3
:101188006800000000000000402f0020fc0500005f
:1011980000000000b43c002018000000000000001f
:1011a8009a3e00200100000001000000010000003c
:1011b800333e00200100000000000000143d002024
:1011c8000800000000000000253b0020030000008c
:1011d80000000000f53b00200200000000000000b5
:1011e800583d00200800000000000000f73b0020e8
:1011f8000100000000000000603d00200800000021
:1012080000000000423d0020020000000000000035
:10121800683d002008000000000000003c35002068
:10122800c000000000000000423e00200200000054
:1012380001000000ffff0000b83b00202000000074
:10124800000000005c370020800000000000000063
:10125800343e00200100000000000000c0390020da
:101268005000000000000000903b00202800000013
:1012780000000000283b00203c00000000000000a7
:1012880044380020c800000000000000443e002050
:101298005000000001000000c0390020a8380020dc
:1012a8005c370020b83b0020283b002003000000ea
:1012b8007800b004201905053c050f05903b002077
:1012c8003c0000007800b00434120a40030000001b
:1012d800060000000f190303443800200500000031
:1012e800ab11223344556622703d002008000000ef
:1012f80000000000cc3c00200c00000000000000b2
:10130800353e00200200000000000000d83c00200c
:101318002400000000000000373e00200300000009
:1013280000000000303e0020020000000000000025
:10133800fc3c00200c00000000000000783d00206c
:1013480004000000000000009b3e00200100000097
:1013580001000000010000003c3d002006000000e4
:10136800000000007c3d0020040000000000000098
:10137800e83a00203d000000000000003a3e00204e
:101388000100000000000000803d00200400000073
:10139800000000003b3e00200100000000000000ab
:1013a8003c3e00200100000000000000083d002035
:1013b8000c000000000000003d3e0020020000007c
:1013c800000000001c3d0020080000000000000094
:1013d800303c002014000000000000002c3e0020db
:1013e8000200000000000000843d0020040000000e
:1013f80000000000283e002002000000000000005d
:101408009c3e0020020000000100000002010000d4
:10141800443d00200600000000000000883d002038
:101428002000000000000000fc350020c000000083
:10143800000000003f3e0020010000000000000006
:10144800643b00202c00000000000000243d002028
:101458000800000000000000a83a0020400000003a
:1014680000000000bc360020a000000000000000c2
:10147800983e00200200000001000000010000006a
:10148800a83d00200400000000000000603a002091
:101498004400000000000000ac3d00201c000000db
:1014a80000000000943e002004000000010000003d
:1014b800aaaaaaaac83d0020040000000000000053
:1014c80000000020402f000000000000cc3d00205c
:1014d80014000000000000002c3d0020080000005f
:1014e80000000000e03d00200c00000000000000ab
:1014f8000c3900206400000000000000ec3d0020d2
:101508001400000000000000443c002028000000f7
:1015180000000000003e0020100000000000000055
:101528006c3c00201400000000000000103e002069
:101538000400000000000000803c0020280000009b
:1015480000000000143e0020080000000000000019
:10155800343d00200800000000000000403e00204c
:1015680002000000000000001c3e002004000000f3
:1015780000000000103a00205000000000000000a9
:10158800203e0020080000000000000000000000cd
:10159800000000006666666666666666666666667b
:020000040000fa
:1015a800f0b5de4657464e464546e0b591b00500d3
:1015b8001aa90f7854782002ff2112780243cb48e9
:1015c8000088084200d083e191b2ff20084200d091
:1015d80086e1e888ae79002e00d083e11e78122ecd
:1015e80000d162e1132e04d0112e00d1ece00020ce
:1015f8006fe159788946002900d187e039090991b6
:101608000021023307930f20b94b98469c46089453
:101618004e460a970b9224e007402b7883433b43be
:101628002b708d000235b24f3b689b68089a5a555b
:101638003b689b689a46aa4453465b788343099a59
:101648001343524653703b689b685d196b7803409f
:10165800302291464a4613436b700131cbb29e4209
:1016680051d9079b5b181d78854335d01d782d0906
:101678006a1c151c0f2a00d90f25eab245462d68a9
:10168800ed686d182f78874303d02f783f0997426c
:1016980022d912012f7807403a432a708d00944ac4
:1016a8001768bf68bb462f005d46089cec55156857
:1016b800ad68ab46bb445d466d788543099c2543c0
:1016c8005c4665701568ad68ef197d780540302275
:1016d80091464a4615437d701d782842bdd02d0796
:1016e8002d0f01352b1c0f2d00d90f23dfb26346b8
:1016f8001d68ed686d182b7818428dd01b071b0fdd
:10170800bb42aad988e7089c0a9f0b9ae30749d5e8
:10171800774b1b686108d868435c0f25ab430125ec
:101728002b434354640072490b689b681204120ee1
:101738001a550b689a6812193b0957780f20874386
:101748001f4357700b689b681c1962780f2313405e
:10175800302213436370654b1b881b0a09685a00c3
:101768008868805cff2800d1bee0d80725d55b08d3
:10177800c868c15c0f24a143c1545d490b689b68cc
:10178800ff2098540b689b689b1858780f24a04337
:1017980058700b689b689a1851780f230b40537048
:1017a800002096e0524b1b686108d868455c0f23ff
:1017b8002b4010252b434354b4e75b08c868c45c2e
:1017c8000f212140c154d8e79c7822025b7813434b
:1017d8009846474b994633261b689a5d02322b7808
:1017e800d21ad2b23b0004f023f94b461b689b5d2a
:1017f8000120a3426dd9200006f0cafe020007901e
:101808003a4b1b889bb2434502d00120002a60d086
:10181800eb889a468c2006f061fb061e43d00568cb
:10182800002d40d0314b198889b20daf3b0052468c
:10183800ff2005f081fa7b78102293437b70290002
:10184800380006f083fb814612232b540300013332
:10185800dbb200229346ea5403000233dbb2ec54b5
:1018680003000333dbb2079aea54504606f0acfd96
:101878001a2306aa94466344188004961d4a0392c4
:101888005a4602920193022300932b0004324946e0
:10189800380001f05dfc002801d0002019e030007c
:1018a80006f076fcf9e7002013e09c7824025878cb
:1018b8000f4a16683322b25c0232db78d2182b78d2
:1018c800d21ad2b220433b0004f0b2f8002000e064
:1018d800002011b03cbc90469946a246ab46f0bdec
:1018e8000020f6e70020f4e70020f2e7423d002060
:0818f800743d0020b7690000f7
:020000040000fa
:10190000f0b5de4657464e464546e0b583b00190f9
:101910001e000cab01cb81461b789a460eab1f789c
:101920005478240213781c43502e00d943e1a4b20a
:10193000a94b1b889bb29c4200d145e1a74b1b7869
:10194000063b0025012b00d936e1022900d033e106
:101950008c2006f0c7fa8046002800d136e10368e3
:101960009b46002b00d133e1019b023b5a425a4176
:1019700051005b465b7d032293430b435a465375ec
:101980001483954b1b88538301233b401a015b460c
:101990005b7d10218b4313435a4653755b46967704
:1019a00052465a7400235a4693745b460f9a5a6003
:1019b0003200494658461f3007f07afa884b9c425d
:1019c00057d95b465b7d102293435a465375854b2e
:1019d0009c4235d1844b1b68da7f012a30d901241f
:1019e000814d05e00134e4b22b68da7fa24227d9a9
:1019f000a000001980005b68181806f045f900285f
:101a0000f0d08c2006f06efa071e00d1e2e00668e6
:101a1000002ee7d070225946300007f049fa724b89
:101a20001b685b690133b360002232746a4b1b8808
:101a30001b19b381726039006c4806f071fdd1e763
:101a40006b4a6849584600f083ff051e0cd10f9b76
:101a5000002b05d05b46587c5a4601210f9b9847c6
:101a6000404606f099fba7e04146624806f058fd63
:101a7000a2e0ff23234207d0574b1b889bb2ff22d3
:101a8000210091438b4234d0544b1b78072b4ed10d
:101a9000514b1b88ff2293435a469381002f6ed0ef
:101aa0005b469b89a3422ad05b46198b4e4b1a6832
:101ab0003323d05c0130c0b205f012f95b46986068
:101ac000494b1a683e23d35c01335a4613749189fb
:101ad000494a584600f03cff002804d15b461b7c75
:101ae000013b5a4613744146444806f019fd01254e
:101af00062e05b469c81230609d5002f3fd05b4600
:101b0000198b012005f0ecf85b469860d8e7364b5e
:101b10001a685369013359468b603e23d35c013305
:101b20000b744146314806f0fbfc012544e0ff23dd
:101b30002000984306f04cfc5b469881294b984264
:101b4000acd1200003f032fa051e0cd10f9b002b04
:101b500005d05b46587c5a4601210f9b984740466a
:101b600006f01afb28e0204b1a682123d35c0133ce
:101b70005a4693604146224806f0d2fc1ce00023fe
:101b80005a46137491891a4a584600f0e1fe051e20
:101b90000cd10f9b002b05d05b46587c5a46012187
:101ba0000f9b9847404606f0f7fa05e0414611487a
:101bb00006f0b6fc00e00025280003b03cbc9046cf
:101bc0009946a246ab46f0bd0025f5e70025f3e7b0
:101bd0000025f1e70025efe7423d0020383e0020d8
:101be000fcff0000ffff0000743d0020f03c0020df
:101bf000896a0000fc3c0020f92c0000cc3c00204d
:041c0000083d00207b
:020000040000fa
:101c0400f0b5de4657464e464546e0b587b0061c5d
:101c140003900f0004911400240a0592019310ab61
:101c24001d78b606f60f0297d3b29946e3b29846ea
:101c34008c2006f055f98246002800d116e104688c
:101c4400002c00d114e123000c33636003ab18783b
:101c5400430701d50123994603220240012a35d0c6
:101c640051425141c9b28d4b1b8803af7f899f42ba
:101c74002ed000239b4607339c46634608334f46c9
:101c8400002f00d0063b4746002f30d00233dbb292
:101c94002427384020282dd0032a2dd0aa1c9b1895
:101ca4002373617303ab72011e7820218e431643a4
:101cb4001e70f3439b0727d04b46002b00d184e0d2
:101cc4004346002b6cd08823a3736be00321cae73f
:101cd400734fbb4206d04023194301239b46043370
:101ce4009c46cae700239b4607339c46c5e7083356
:101cf400dbb2cde70143cfe701239846002600235a
:101d04009b4600210733c9e78023a373654a1378f0
:101d1400591c1170e37304265b46002b0ad1721c14
:101d2400d2b25e490b78606883550236f6b24b78be
:101d340061688b544346002b63d05b4a1378616817
:101d44008b55b31cdbb20136f6b2527861688a5502
:101d5400002d0ad0019a5d19edb2591c10786668fd
:101d6400f0540132cbb29d42f7d1504b129a1a6013
:101d740006f0e0f90f2858d0534623604c4b1a78ec
:101d84004c4b1978200005f09dff002856d10130f6
:101d9400139b002b63d0180006f0fcf901205ee0d1
:101da400c823a3733f4a1378591c1170e37303ab20
:101db4009a7a2274db7a6374730769d4029a13786b
:101dc400a3745378e3740826a6e74346002b51d046
:101dd4008c23a373334a1378591c1170e37303ab38
:101de4009a7a2274db7a6374730751d40623029fb0
:101df400063ffa5c6168ca5401330e2bf9d10e26f2
:101e04008ae72d4b5b681f0008371a00f31aac46ab
:101e140010789918c9b2656868540132ba42f7d18a
:101e2400654633000833dbb292e7f03006f0eefb90
:101e3400002006f09bfd06f07df99de71f4b012273
:101e44001a701f4a1378013b1370139b002b02d0a6
:101e5400180006f09ff9504606f09cf9002007b0e0
:101e64003cbc90469946a246ab46f0bd0020f6e73e
:101e74000020f4e7cc23a3730a4a1378591c117089
:101e8400e37303ab9a7a2274db7a63747307add578
:101e9400ff23a374e37408263ee7c0462c3e0020cb
:101ea400ffff00003e3e0020283e0020843d00202d
:101eb4009d3e00209c3e00201c3d00209b3e0020b7
:041ec400353e002087
:020000040000fa
:101ec800f8b50021ab4804f03dfd002800d14de1f4
:101ed8000268002a00d14be1536819785e784024e3
:101ee8002640a54b00241c70dc73013c1c825468fe
:101ef800a3783325ab43882b00d197e00ad9c82ba8
:101f08003ad0cc2b6bd08c2b00d1c7e006f040f92f
:101f180000201ce1082b00d1ece0802bf6d1964b79
:101f28001c7804252543802464422c431c7001241a
:101f3800dc73546824791c74546864795c7454683c
:101f480006345c600c00093c1c73546808349c60bf
:101f580053685c78230700d5e0e007232340012b72
:101f680000d1dfe0002b00d1fae0032b00d1efe035
:101f780006f00ef90020eae0a379ff2b16d07e4d7b
:101f88002f7880235b423b432b70002e17d0247997
:101f98002c74546864796c74546808346c600c0050
:101fa800113c2c7354681034ac60d1e7e379ff2bf3
:101fb800e5d1714d2b7804273b432b70dfe7247a5a
:101fc8006d4b1c745468647a5c7454680a345c60a1
:101fd8000c00133c1c73546812349c60b8e7664dbf
:101fe8002f7880235b423b432b70002e0ed0247940
:101ff8002c74546864796c7454680e346c600c00ea
:10200800173c2c7354681634ac60a1e7a47b5a4b78
:102018001c745468e47b5c74546810345c600c0075
:10202800193c1c73546818349c6091e7a379ff2b02
:102038001ad0514b1d78802464422c431c70012413
:10204800dc73002e19d153681c7a4b4b1c745468ee
:10205800647a5c7454680a345c600c000d3c1c7330
:1020680054680c349c6073e7e379ff2be1d1424c50
:10207800237804252b432370dbe753681c793e4bf8
:102088001c74546864795c74546808345c600c008f
:102098000b3c1c7354680a349c6059e7364b1d7816
:1020a800802464422c431c700124dc73002e10d061
:1020b80053681c79304b1c74546864795c74546898
:1020c8000e345c600c00113c1c73546810349c6026
:1020d8003ee753685c7b284b1c745468a47b5c7493
:1020e80054680f345c600c00133c1c735468123441
:1020f8009c602de7a379ff2b07d01f4c0b00083bf2
:10210800237353680733a36022e7e379ff2bf4d1e5
:10211800194c237804252b432370eee706f038f892
:10212800002014e0144c23780325ab4323700231bc
:10213800c9b253685b18023b1b780f4ca3735368f2
:10214800591801390b78637306f022f80120f8bd9d
:10215800094c23780325ab4301252b432370e6e77d
:10216800054c237803252b432370e0e70020eee796
:0c2178000020ece7d83c0020303c0020a8
:020000040000fa
:1021840070b50d007f4b1c78042c00d1e7e04e287d
:1021940007d059280ad10a787b4b1a7700242000eb
:1021a40070bd0a78784b1a750024f8e7754b5a7895
:1021b4000f2a00d1d5e00b2800d1c6e016d9532848
:1021c4007cd047d84f2868d089245028e7d16e4c5a
:1021d4000b880978a1731b0ae373222004f01efc08
:1021e400e17b232004f01afc0024d8e7022800d164
:1021f40082e00cd9032800d19de0042828d1002cca
:1022040000d0b4e00c78002cc9d08824c7e700289b
:102214001cd1002c00d0a6e00b785c49d940c9073a
:1022240000d4a2e0082a00d1a3e0082000f0b0f80e
:102234000828fad12b78544ad37400221f2108208d
:1022440006f0bcfa162000f0a3f8a8e78924a6e754
:102254008924a4e7572840d08924f0289fd10a680c
:102264004b68494d2a70110a6970110ca970120e3d
:10227400ea702b711a0a6a711a02120eaa711b0ee5
:10228400eb7124242978200004f0c8fb01350134c3
:10229400e4b22c2cf6d1002481e70b783a4a53752a
:1022a400d27e934201d9384b5a75374b5b7d00225d
:1022b4000f212f2006f082fa002470e7324c0b889d
:1022c400097821731b0a6373202004f0a7fb617b48
:1022d400212004f0a3fb002461e70b782a4ad3767b
:1022e400527d9a4201d9284a53750422f0212f20a5
:1022f40006f064fa002452e70878830612d43f23d8
:102304000340042b00dd0420802318431e4bd875a2
:1023140005f09af9030000220f21052006f04efa79
:1023240000243ce742421f2313405b425bb211335b
:10233400eada2f20e8e70b78134a93740522602128
:10234400082006f03bfa002429e70b780e4a93751f
:10235400032208212e2006f031fa00241fe78624e8
:102364001de781241be7862419e7882417e78624c0
:1023740015e7054ad37400221f21082006f01efa2f
:102384000de7c046143c0020d83b002000f8ff07ae
:020000040000fa
:1023940070b504007c4b5b780f2b07d00338c2b2b6
:1023a400162a5fd89000794a125897460f286ed0a3
:1023b400754d00232b7106f013fa08236b70082c5b
:1023c40000d1dde0032c00d1dce0201fc3b2152bcb
:1023d40048d898006e4b1b589f460321022004f0f6
:1023e4001dfb0f2004f00efa10210e2004f016fb42
:1023f400654c0f236370012006f0fefb654b8022c1
:1024040052039a61232006f0f7fb60783fe05e4bad
:102414005b78082b26d00821022004f0fffa012063
:1024240006f0eafb1ee0082b1cd00321022004f076
:10243400f5fa012006f0e0fb14e0534b5b78082b1f
:1024440026d00dd9162b01d0192b0bd1082102202f
:1024540004f0e4fa012006f0cffb02f04fff01e0a4
:10246400062bf3d0012004f0cdf91f231840464b6e
:10247400587063241d001f2809d1012004f0c2f9fb
:102484001f2318406870013ce4b2002cf3d170bde6
:1024940002f034ffe6e73c4b5b78082b06d0092baf
:1024a400e0d00421022004f0b9fadbe702f026ffb1
:1024b400d8e7354b5b78092b11d00cd81f24082b97
:1024c400d0d10621022004f0a9fa06f0effa204048
:1024d4000628f6d1c6e7162b01d0192bc2d1082144
:1024e400022004f09bfa1f240621022004f096fa2d
:1024f40006f0dcfa20400628f6d1b3e7224b5b78dd
:102504001f24082b16d004d9092b04d0192ba9d1c8
:1025140001e0062ba6d10821022004f07ffa1f2433
:102524001621022004f07afa06f0c0fa2040162898
:10253400f6d197e71621022004f070fa06f0b6faf5
:1025440020401628f6d18de70f4b5b78082b12d06c
:1025540005d9092b06d0162b00d083e702e0062b01
:1025640000d07fe70821022004f058fa1921022044
:1025740004f054fa76e71921022004f04ffa71e7c7
:10258400200084e7082082e7143c0020444e000029
:08259400a04e000000440041cc
:020000040000fa
:10259c00f8b5ce46474680b507000b78312b09d0ed
:1025ac00322b26d1694b5b7a0024002b21d0674b50
:1025bc00994696e083799c00e418a400644b1b6850
:1025cc005868001905f05afb002816d0604b1b68a0
:1025dc005b681c19a368e3605e4b5b7a9846002b22
:1025ec0007d05d4b1a8892b2fb88ff218b439a422d
:1025fc0007d00cbc90469946f8bdf88803f0ccf98e
:10260c00f7e70024002600253be00021514804f0a8
:10261c0097f9061eedd0056837e04d4a91463322f6
:10262c0049460968885c0130c0b2190004f052fbbd
:10263c00a8604b461a683e23d35c01332b74f9888f
:10264c00464a280000f07ef9002802d12b7c013b81
:10265c002b7431003d4805f05dff0ee06b68002bdc
:10266c0003d0687c2a0001219847300005f08efdcc
:10267c00bfe73100374805f04dff0134e4b2a04507
:10268c00b7d0344b5b7a002bbfd1002db1d0f98879
:10269c002b8b994205d0324a9342ead1aa898a42bd
:1026ac00e7d16a7dd20604d52b4a128892b29342a6
:1026bc00b3d02c4a280000f045f90028ced00023d6
:1026cc002b743100284805f025ffd6e731001f4850
:1026dc0005f020ff0134e4b24b465b7aa34200d8ec
:1026ec0087e70021194804f02bf906000568002d36
:1026fc0000d17ee73a7a2b7f9a42e7d1fa882b8b6e
:10270c009a42e3d16b68002b03d0687c2a0000212d
:10271c009847300005f03afd2b8b2a7e002ad9d140
:10272c000d4a128892b2ff21180088438242d1d000
:10273c00074a12681b0a92685b00d31859780f225b
:10274c000a4030210a435a70c4e7c046cc3c0020f2
:10275c00743d0020f03c0020423d0020f92c00008c
:0c276c00ffff0000896a0000fc3c002018
:020000040000fa
:10277800f0b5de4657464e464546e0b58bb06a4b47
:102788005b7a002b69d00025674e27e06368002b31
:102798001fd0607c220007219847380005f0f8fc1c
:1027a80017e00023237462680100200000f0ccf8d1
:1027b800002806d16368002b03d0607c2200012129
:1027c8009847380005f0e4fc03e03900564805f066
:1027d800a3fe0135edb2737aab423ed900215248cf
:1027e80004f0b0f8071e42d00468002c3fd0a3685c
:1027f800002bead0013ba360002be6d1238b9a463d
:10280800180005f0e1fd8146484b9842bed0637d33
:10281800db06c6d5464b9b4633235a461268d05c26
:102828000130c0b2514604f057faa0605b461a68fe
:102838003e23d35c013323744b46a3813d4a49466a
:10284800200000f081f8002802d1237c013b23748a
:102858003900394805f060febbe7384b1b78002b80
:1028680005d0013bdbb2354a1370002b06d00bb004
:102878003cbc90469946a246ab46f0bd2c4b1a6824
:102888002023d25c2d4b1a7005f0ccfb0028eed02b
:10289800c30744d44008c4b21a236b4403225242eb
:1028a8001a808c2005f01afb061ee0d00768002f5e
:1028b800ddd0234b198889b21a256d442a8807abc5
:1028c800012004f039fa390007a805f03ffb8046db
:1028d80013233b5403000133dbb2fc540230c0b273
:1028e8003818134b1b68d968220006f0ddfa01235b
:1028f8005b422b80a21cd2b20496124b0393002396
:1029080002930195023300933b00414607a800f06b
:102918001ffc0028abd1300005f03afca7e74408bb
:102928000134e4b2b8e7c046083d0020ffff0000cc
:10293800743d0020f92c0000cc3c00203d3e0020d6
:08294800423d0020476500003c
:020000040000fa
:10295000f0b5d6464f464646c0b58eb00400079245
:102960001e2302aa9446634419808c2005f0bafa0b
:10297000061e00d1c5e0674b1b889bb21e2202a930
:102980008c46624412889a4200d1bce0002c00d1ef
:10299000bbe00768002f00d1b9e00bad228b618b43
:1029a0002b00ff2004f0ccf9627d9107890f6b7832
:1029b000032083430d3002400b4310218b4313430c
:1029c0006b70238b227e002a07d0524a128892b263
:1029d000ef3118008843824248d04f4a93423ad0a0
:1029e00039000ba805f0b6fa0890a37c002b00d1a3
:1029f00073e0237fbb70494a1378013b1370089b37
:102a0000f818a27f21001f3106f052faa37f9a46e0
:102a10001e2302aa944663441a883f4b9a425fd011
:102a20000496079b0393637c02931e2302aa944699
:102a300063440193022300933b00524608990ba87c
:102a400000f08afb051e58d028000eb01cbc904632
:102a50009946a246f0bda389227b002ac0d02d4a08
:102a6000128892b2ff218b439a42b9d12c4b5b7ae8
:102a7000002bb5d02a4d0021280005f04dfc02683e
:102a80006d7a002dacd01e2302a98c4663441b88ae
:102a90009a46002340218c461f49884611e002a82f
:102aa00025214018007861460843814602a8252167
:102ab00041184846087012680133dbb2ab4200d1be
:102ac0008ee7002af7d0108b218b8142e7d040455a
:102ad000f1d190895045eed1e1e7bb7823778ee7bd
:102ae0000c4b188880b2b97803f034fc051e00d076
:102af00096e7300005f050fba6e7300005f04cfbf0
:102b0000a2e70025a0e700259ee700259ce7002519
:102b10009ae7c046423d0020ffff0000393e0020fa
:042b2000f03c002065
:020000040000fa
:102b2400f0b5c64600b584b001900f00029396003c
:102b3400300000f0f7fe051e00d1bae0542000f08a
:102b4400f1fe041e58d005633200a521280006f0ca
:102b5400b7f9236b9846002f54d03b783422a35402
:102b6400002b09d0012321003431fa5cca54002a15
:102b740002d00133102bf8d143230022e2540a9de2
:102b8400042d00d90425e56265640027a764231d8c
:102b94000393180006f0affa2000183006f0abfae1
:102ba400246105235b1ba3616462e7645023e7543b
:102bb400301f4044493b9843029a019905f048ff6d
:102bc40020600b9b002b00d01c6006f08df83c4a63
:102bd4001368013313603b4b1b68002b16d03a4b30
:102be4001b68002b17d1374b1b68db6ae26a9342e0
:102bf40011d8344b1c600ee0280004f083fb012044
:102c0400404258e034230022e254b8e72d4b1c60c4
:102c14001368012b23d02d4a136801331360e36a30
:102c24002b4a1268934201d9294a13609800c018ac
:102c34008000284b1818039906f0bff806f00ef927
:102c4400214b1b680120002b35d01e4b1b68da6a10
:102c5400e36a9a422fd206f03bf801202be01d4d87
:102c6400280006f09ff82800143006f09bf828008e
:102c7400283006f097f828003c3006f093f8280036
:102c8400503006f08ff8144e300006f08bf8134dd8
:102c9400280006f087f8124806f084f8114806f078
:102ca40081f8114806f07ef8104b1e60104b1d6031
:102cb400b1e70120404204b004bc9046f0bdc046d8
:102cc400ec3d0020e03d0020103e0020f83d0020b7
:102cd400fc3d00200c390020443c0020583c0020de
:102ce4006c3c0020943c0020803c0020e43d00200b
:042cf400e83d002097
:020000040000fa
:102cf800f0b5de4657464e464546e0b583b08046b9
:102d080089469246177b574b1a88ff231a4206d1e9
:102d1800554b5b7a002b00d19de000246ee0080043
:102d280003f0fcfcf4e7fc33034200d07ce04d4b9d
:102d38001b889bb2ff22010091438b4274d04b4bfe
:102d48001a68030a5b009268d3185a780f218a43dd
:102d58006ad05a78934612090f321140019109013d
:102d68008c4659460f221140624611435970019b07
:102d7800002b59d104f08cfc56e00123ab74a989cf
:102d88003b4a2800fff7e0fd002802d12b7c013bdd
:102d98002b743100344805f0bffb29e0ff230342c0
:102da80013d1304b1b889bb2ff22010091438b4209
:102db8000bd02e4b1b68000a9b68400018184278fd
:102dc8000f231340302213434370298b274b1a6873
:102dd8003323d05c0130c0b203f07effa86031001d
:102de800214805f099fb03e031001f4805f094fbea
:102df8000134e4b21c4b5b7aa3422cd900211a4857
:102e080003f0a0fd061e26d00568002d23d02b7fd9
:102e1800bb42e9d16b7c4345e6d1288b4b46002b5e
:102e2800bcd0032b00d17ee72b7c002b04d0013bc8
:102e3800dbb22b74002b03d00e4b1b78082b9cd1d4
:102e48006b68002b03d052464946404698473000ed
:102e580005f09ef9cce703b03cbc90469946a246e3
:102e6800ab46f0bd423d0020cc3c0020743d002024
:082e7800f92c0000383e002097
:020000040000fa
:102e800070b50500594c207fc0b2002800d0a7e0e3
:102e900000294ad0002d48d0554c6668072434409c
:102ea000012c5ed051480560426000244461846179
:102eb00004614e488160002a58d04c4ad3604b4a86
:102ec000012111774a4a127e520705d5484a04204b
:102ed000916a117e0142fbd1454a518b0420014386
:102ee0005183117e80200143117640498a68c96868
:102ef000914203d93d48c168891a01613c4949683a
:102f0000490743d139498969914233d2374a116817
:102f1000087837498862916901319161002b5ad054
:102f2000334b04229a7501205be0002b59d0002a14
:102f300057d02f4c666807243440012c0cd02b4806
:102f4000056042600024446184610461002db0d1b9
:102f5000264900208860aee7002943d1dc07eed582
:102f60003fe0cc073dd4002be9d0f7e71f4a002112
:102f7000d160a4e71d4a1269002acfd01c4aff2164
:102f800091621a490a69013a0a61c7e7174a9168ca
:102f900049089160116949081161d1684908d160f7
:102fa000916892698a420ad210490a681288d20549
:102fb000d20d0f4882628a6901328a61aee70b4afc
:102fc0001269002aaad00a4a0a49916207490a6985
:102fd000013a0a61a2e7064b01229a75012000e03e
:102fe000002070bdcc07b9d5fbe7c046643b00208c
:082ff00000180042ff0100007f
:020000040000fa
:102ff80010b584b004000378082b3bd022d8022bec
:103008001ed101aa0a2313706b46002159719971c8
:10301800d9710231197207316944444b0b70180a8f
:1030280048701802000e88701b0ecb7040480123b0
:103038000370083343704280120c828005f0daf97d
:1030480004b010bd0a3b012bfad801a900230b706c
:10305800384a394804f028f9384b1860431cefd037
:103068000c23374a1370237000222100354805f0dd
:1030780021fce5e705f04efe334c23001f33e077d3
:10308800000a587000229a70da7005f043fe7f2318
:10309800184023002333187000225a709a70000ecb
:1030a800d87005f037feff23184023002733187027
:1030b800020a5a70020c9a70000ed87021000a3168
:1030c800022002f0bdff638963801b0ca3800023ec
:1030d800e380238121001631002002f0b1ff210096
:1030e8001431012002f0acff2b232022e254628924
:1030f8001206d31705221a400c32134b2c215a54ae
:1031080019003931114a0a70100a48701002000e6d
:103118008870120eca70064843801b0c83803d23ba
:1031280043703b3b037005f065f989e7cd6000000b
:103138003c3d002010270000816f00007c3d0020ee
:103148003b3e0020383d0020e83a0020395f00006f
:020000040000fa
:10315800f0b5de464f4680b585b0019002910392e6
:103168001f000cab1d780eab1b789b460f9e8c2066
:1031780004f0b4fe8146002800d18ae00468002cdf
:1031880000d188e000232375022d6ad0237d042214
:103198009343202213432375237d082293432375e9
:1031a8003e4b1b889bb23e4a93426bd03d4b1a78ec
:1031b800063ad2b20023012191425b41dbb2637728
:1031c800ab1e5a4253412377237d9a08012151406f
:1031d80001220a40920140218b431343802252422c
:1031e80013432375019b5b88e38327743b0a63744d
:1031f8003b0ca3743b0ee374271d2a000d9938007d
:1032080005f052fea7612673330a6373330ca37368
:10321800360ee67321235a46e254029b039a9446db
:1032280063442022a3542423109ae254109b1a0ac0
:103238002523e254109b1b021b0e2622a354109b2d
:103248001d0e2723e5544946174805f065f900285f
:103258001ad105f0edf9012005b00cbc91469b464a
:10326800f0bd0d9b5a7812021b789b189bb20f4a2f
:10327800934200d88ae7237d0422134320229343f4
:10328800237589e700239ae7484604f081ff002068
:10329800e2e70020e0e70020dee7c046423d0020ec
:1032a800ffff0000383e0020e43c0020fcff000047
:020000040000fa
:1032b800f8b504f013fb002800d08fe04c4c98259b
:1032c80080231b066351802636026651db0a636140
:1032d800a530400005f08efc9423e6500a2005f046
:1032e80089fc66510a24642005f084fc1c2003f044
:1032f80087fa0b2805d0013ce4b2002cf3d18527ce
:103308006de00821093803f087fb642005f072fca2
:1033180000221f21012005f0dbfd0a2408280cd01b
:10332800642005f067fc00221f21012005f0d0fd74
:10333800013ce4b2002cf1d1e1e72e4b08225a708f
:103348002d4805f0a3fb00284bd1012002f068fdb1
:10335800071e4ad1294d08e0284c2600083605f0fa
:10336800d9fc20700134a642f9d12878697809027d
:103378000843a97809040143e878000608430200d5
:103388002879697909020843a97909040143e87988
:1033980000060843030001204042c11712184b41a0
:1033a800591c01d1d31cd7d800221549002005f09b
:1033b80053f9002005f0dcfd03f076f98c2004f0c9
:1033c8008dfd104b186000280dd0ff210e4805f028
:1033d800fcfd084b822252045a6100e08527380020
:1033e800f8bd8527fbe78527f9e78527f7e7c04676
:1033f80000440041143c00202a3e0020d83b002015
:0c3408004d900000503d0020a83c00202a
:020000040000fa
:1034140070b5504b586a504b9b7d002b54d04e498d
:103424004c68072214404b4b5a699d699e680b7e79
:103434005b0757d5896a474bdb68934252d9002c06
:1034440043d1444b5b6899540132434b1b7edb07e9
:1034540016d5414b012119753e4b9b68ab4256d999
:103464003c4b1b68595d3c4b99620135394b1b69d8
:10347400002b01d1b54262d0364bdb68934262d057
:10348400344b5a619d61344b1b7e9b0715d5334bde
:103494001b78002b18d02f4bdb68934211d12d4b96
:1034a40000221a772c4907240c752c490a701b6ad0
:1034b400002b09d0274b1b6a9847284b1b78002bfd
:1034c40002d0254b02229a7570bd224b5b685400d2
:1034d400e1520132204b1b7edb07d1d51e4b01216b
:1034e400197508e01c4b1b7edb07c9d51a4b01215b
:1034f4001975002cb0d0174b9b68ab4213d9154bf0
:103504001b686900c95a144b99620135aee7114b27
:103514001b69002baad0104bff2199620d490b693e
:10352400013b0b61a2e70b4b1b69002b9ed00a4b9e
:103534000b49996207490b69013b0b6196e7074bfd
:10354400012119709ce7044b012199750331197508
:1035540096e7c046643b0020001800423f3e00202e
:04356400ffff000065
:020000040000fa
:10356800f0b58db04c4b1b88ff229343dd3a6a447b
:1035780013808c2004f0b2fc051e5ad00668002e79
:1035880057d000230793454aa433d05807a902f01f
:1035980013fd079b002b4ed1404c4148a023e0501f
:1035a800404b19684a6b53019b1a9b009b18db0020
:1035b8009422a350496b4a01521a92005218d20021
:1035c8009823e25000239c216354813969440b708d
:1035d80003f06afea423e050431c2ad0324a137831
:1035e800013313702c4b198889b209ac22276f4418
:1035f8003a882300012003f09ffb637820221343bd
:103608001022934363703100200004f09ffc0100f6
:10361800312333540495254b0393002302930197d8
:1036280002330093330001222000fff791fd0028a8
:103638000ad00db0f0bd194fa424385904f0e0faaf
:10364800385904f0bdfaa7e7280004f0a1fd164a8e
:103658001378013b1370114c1148a023e050114b13
:1036680019684a6b53019b1a9b009b18db00942234
:10367800a350496b4a01521a92005218d20098235b
:10368800e25000239c21635407a90b7003f00cfe41
:10369800a423e050cde7c046423d00203c35002041
:1036a80061900000743d0020353e00204154000028
:020000040000fa
:1036b800f0b5ce4600b584b00400009101921f0019
:1036c8000025442640e0a66b3a000099200002f04d
:1036d800afffa36c002b11d0022f00d180e0200097
:1036e80003f088ff002806d105f0b6fb012004b0de
:1036f80004bc9146f0bd05f0e9faf5e7636a002bd2
:1037080004d10028f0d005f0e1faede720002430dc
:1037180002f052ff0028e7d005f0d8fae4e705f0f8
:103728009bfb0020e3e702a805f0e8fa19e0002374
:10373800a35520e045230022e25421e0200002f0b6
:10374800e1f800f031fe012505f0ccfaa36be26b3d
:103758009342b8d3022f3ad0019b002bdfd0002d23
:10376800e1d005f079fb05f01bfc05f0bbfaa35d81
:103778005bb20133dbd04523e35c5bb20133d9d0c4
:1037880005f06afb01a902a803f0e6fd002817d19d
:1037980005f0a8faa36b9946e56b05f05dfba94512
:1037a800ccd120001030019905f0d2f9200002f0a8
:1037b800a9f800f0f9fd0028c5d105f087fac2e79d
:1037c800200002f09ff800f0effd00208fe7a66bc5
:1037d80002220099200002f02bffa36c002b8dd051
:0837e800002e00d080e77ae713
:020000040000fa
:1037f000f0b585b004000191002300930025442614
:10380000002743e0013ba3632368002b09d0236911
:10381000002b0ad105f024fb01230093009805b08a
:10382000f0bd05f0a7f9a060f1e72000103002f02c
:10383000c7fe0028eed005f04dfaebe705f010fbcf
:1038400000230093eae702a805f05cfa28e0a755f8
:1038500030e04523e75432e005f048faa06802f072
:103860000ffa009005f0fcfa39e0200002f04ef863
:1038700000f09efd09e0200002f048f800f098fdfd
:10388000200005f0f7fa002838d1012505f02efabe
:10389000a36b002bb6d1019b002bcfd0002dd2d033
:1038a00005f0defa05f080fb05f020faa35d5bb2bf
:1038b0000133ccd04523e35c5bb20133c9d005f0c2
:1038c000cffa01a902a803f04bfd0028d3d12000b4
:1038d00005f0d0fa0028c8d02368002bbcd0200007
:1038e0002430019905f038f9200002f00ff800f0bb
:1038f0005ffd0028c9d105f0edf9c6e7009b002b5c
:1039000000d18be705f0f2f9616a002903d0236b3f
:103910001b680521c91aa06802f0e2ff05f0a0fab1
:06392000002300937ae78a
:020000040000fa
:023926007047e8
:020000040000fa
:10392800f8b5040005f03cfb404b1b68002b15d094
:103938003f4b1e68344238d1002c3dd0220008325b
:10394800530702d007239a430832002a34d0394b50
:103958001f68974233d338490c6835e0374a530714
:1039680020d0d11d07239943bd239b019c46624467
:10397800531a0a003048026000214160d318083bfe
:10398800072083432948036059601960991a5160d8
:1039980013602b4b1960274b1960254b80221206a8
:1039a8001a60c5e7bd239b01e4e700f0fdfc05f0c4
:1039b800a5fb00252800f8bd00f0f6fcf7e700f0ad
:1039c800f3fcf4e721001c006368934202d22368e9
:1039d800002bf7d1154b1b68a3421ed00d68083584
:1039e80023680b6063689b1a102b19d86368ff1a49
:1039f800104a1760124a1268974201d2104a17609b
:103a08001e436660002323600e4a13680133136067
:103a180000f0cafc002dcdd1c9e700f0c5fcc6e70f
:103a2800a0184360626003f041fddfe7c83d002055
:103a3800cc3d0020d03d00202c3d0020000000207f
:083a4800d43d0020d83d002010
:020000040000fa
:103a5000f0b5c64600b582b03a4b1b68002b65d165
:103a6000394b1a68013290461a60002a18d0374b39
:103a70001b68434521d900230193354b1b68da6a43
:103a800093009b189b00334a9b58012b01d90123bb
:103a90000193314b1b68002b4ed0012301934be067
:103aa0002e4a11682e4b1868106019602d4a136851
:103ab0000133136004f0b8fcd9e700230193274ecb
:103ac000370033681b68002b28d03b68db68dc6854
:103ad0006368984527d3251d280004f05efea36a7d
:103ae000002b03d02000183004f057fee36a1e4a72
:103af0001268934201d91c4a13609800c0188000d4
:103b0000144b1818290005f05af9114b1b68e26a8a
:103b1000db6a9a42d5d301230193d2e70b4b0122f2
:103b200052421a60a9e7094a1360a6e70f4a1368d0
:103b30000133136000230193019802b004bc904646
:103b4000f0bdc046f43d0020143e0020043e00209d
:103b5000e03d00200c390020183e0020e43d00200c
:103b6000e83d0020083e0020fc3d00200c3e0020e7
:020000040000fa
:103b700010b50b00072800d171e012d9502846d0ab
:103b800021d9572800d174e029d9592800d175e0ee
:103b9000f02830d108223c49180005f089f90020ae
:103ba0001ce003284ed006d8012838d045d8364a24
:103bb000d27c0a7012e0052849d055d8324a127ecc
:103bc0000a7000200ae04e2817d01bd80b2804d119
:103bd0002d4a927d0a70002000e0892010bd5328f4
:103be00007d12949087b4a7b120202431a80002030
:103bf000f4e78920f2e78920f0e7234a127d0a7072
:103c00000020ebe7204a527d0a700020e6e71e49bb
:103c1000887bca7b120202431a800020dee71a4822
:103c2000027a417a09021143827a12041143c27a5c
:103c300012060a431a600020d0e7134ad27d0a70a8
:103c40000020cbe7104a927c0a700020c6e70e499c
:103c5000087c4a7c120202431a800020bee70a4a0e
:103c6000927e0a700020b9e7074a527e0a7000204f
:103c7000b4e7054ad27e0a700020afe7024a127ffd
:0c3c80000a700020aae7c046d83b0020d4
:020000040000fa
:103c8c00f8b5404b5b7a002b6cd000253d4f24e0ff
:103c9c000123a374a1893c4a2000fef753fe00289f
:103cac0002d1237c013b2374218b384b1a683323bc
:103cbc00d05c0130c0b203f00df8a0603100314887
:103ccc0004f028fc03e031002e4804f023fc0135fd
:103cdc00edb22c4b5b7aab4244d90021380002f098
:103cec002ffe061e3ed00468002c3bd0a368002b90
:103cfc00e9d0013ba360002be5d1237c002bc7d07e
:103d0c00013bdbb22374002bc2d16368002b03d0c0
:103d1c00607c220003219847300004f037fa208b96
:103d2c00237e002bd3d11a4b1b889bb2ff220100a0
:103d3c0091439942cbd0154b1a68030a5b009268e9
:103d4c00d3185a780f218a43c1d05c7822090f32dc
:103d5c000a401601214031435970002ab7d103f0b3
:103d6c0095fcb4e703f090f90a4b1b78062b02d0b4
:103d7c0001f0e2fcf8bdfef7f9fc03f057f903f093
:103d8c0009f8f5e7cc3c0020f92c0000743d00202c
:083d9c00423d0020383e0020ea
:020000040000fa
:103da40070b52b4b06225a6001f062fd01f0e2fb74
:103db40005f020f903f0e0ff02f0c8f903f0c2feb9
:103dc4002449002000f0fcfd234b1860234c244bb5
:103dd4002360244b6360244ba360244be360244b97
:103de4002361244b6361244ba361244be361244b83
:103df4002362244b6362244ba362244be362244b6f
:103e04002363244b6363244ba363244be363244b5a
:103e14002364002314220121224803f095f900238e
:103e240014220121204803f08ff9204d042240215f
:103e3400280004f01dff2900200004f0c3f904f059
:103e4400a5fe03f0dbf903f0d9f9fff733fa70bdef
:103e540000400041b0900000b43d0020603a0020d2
:103e6400c98b00002d8c00004d7100007588000086
:103e7400458c000061800000fd8e0000758c000000
:103e8400bd88000095800000e18800000f8f0000cd
:103e9400fd8d0000118e00007d8d000081900000da
:103ea40089900000ac3d0020b03d0020a83d0020da
:020000040000fa
:103eb40070b584b03a4b5b7a002b03d0394b1b7836
:103ec400002b05d1384b5b7a002b61d104b070bd57
:103ed4000021334802f038fd05000468002cf1d0bd
:103ee400237b627b12021a43a37b1b041a43e37bea
:103ef4001b0613432d4a13602d4a137801331370a4
:103f0400237c627c12021a43a37c1b041a43e37cc5
:103f14001b0613432422a25c2521615c0902114380
:103f24002622a25c120411432722a25c12060a4331
:103f34000392204a02922122a25c01922022a25cd6
:103f44000092207d627d12020243a07d00040243a0
:103f5400e07d00061043217e627e12020a43a17ea8
:103f640009040a43e17e09061143227f667f360273
:103f74001643a27f12041643e27f12063243fdf772
:103f84003ffe084b00221a70280004f003f999e759
:103f9400fdf798ff002899d00748fcf719fd95e72d
:103fa400e43c00209b3e0020d83c0020783d0020cb
:0c3fb400353e002071850000303c0020ec
:020000040000fa
:103fc000f0b5ce4600b58cb014001f001f266e441d
:103fd0003070374b1b689a6a089205f04df83378b9
:103fe000d840c30759d5129a002a5bd0314b1878b4
:103ff000002853d08c2003f075ff051e54d00668ae
:10400000002e53d01f216944002001f029f8294bcc
:1040100004221a70284b06971f7009af63781b02a1
:104020002278d21892b23b002449012002f088fe87
:104030007b78202213437b703100380003f08aff25
:1040400081460322030032540133dbb2f2540300f1
:104050000233dbb2069af2540330c0b230180422a5
:1040600008a904f025ff164b129a1a600495154b07
:104070000393002302930194023300933300072239
:1040800049463800fff768f803000120002b05d1ee
:10409000280004f081f8002000e001200cb004bcee
:1040a0009146f0bd0120f9e70020f7e70020f5e791
:1040b000743d0020383e0020f63b0020ffff00004a
:0840c0005c3d0020596b00007b
:020000040000fa
:1040c800f8b5394e394c23689d6800231422012124
:1040d8003000a847364d23681b6b1c2128009847e1
:1040e80023685b6b29003348984723685b6b29007a
:1040f80030009847304b314a1a60314c2b4f2d4dc8
:1041080007e02a4b1b68db6800212748984704f022
:10411800abff3b689b6b2b4a2549200098472368d7
:10412800214a12689342ecd02a689342f1d1224e78
:104138001e4b1b689b6a002231001e489847336853
:104148001a78012a0ed0022ae3d19878da78120276
:10415800024318790004024358790006104301f01d
:1041680039fbd6e79978da78120211431a791204e2
:104178000a435b791b0613435a799979090211435b
:10418800da79120411431a7a12060a435978987890
:1041980000020843d978090408431979090601433c
:1041a800187801f033fab4e7943d00208c3d0020e4
:1041b8009c3d0020883d0020903d0020443d00208b
:0841c800983d0020ffff0000fc
:020000040000fa
:1041d000f0b5c64600b584b00400009101920027f6
:1041e00044260023984638e00099200004f09cfb08
:1041f0006b1ea3632369002b06d104f031fe01205e
:1042000004b004bc9046f0bd2000103002f0d8f994
:104210000028f2d004f05efdefe704f021fe00205c
:10422000eee702a804f06efd21e04346a35528e026
:1042300045234246e25429e0200001f067fb00f0ec
:10424000b7f809e0200001f061fb00f0b1f82000b0
:1042500004f010fe002835d1012704f047fda56bbe
:10426000002dc1d1019b002bd7d0002fd9d004f055
:10427000f7fd04f099fe04f039fda35d5bb2013354
:10428000d3d04523e35c5bb20133d1d004f0e8fd29
:1042900001a902a803f064f80028d3d1200004f09b
:1042a000e9fd0028c8d020002430019904f054fc16
:1042b000200001f02bfb00f07bf80028ccd104f0ab
:0842c00009fdc9e700209be79e
:020000040000fa
:1042c800f8b5374c656b63689b69984760616069ae
:1042d80004f022fca66ae76a0023020092197b41d7
:1042e800a262e362002d51d02d4c3022a35c013331
:1042f800a35403f047fe646b002c06d0a368002b80
:1043080003d101250027264e11e0264d00242e005a
:1043180021e0e06903f054fce368002b01d0206938
:104328009847746b002cf0d0a368002bedd125754d
:104338006575a378002b02d1e368002be9d1200032
:1043480002f08afda378002be6d16770e4e7013418
:104358002035052c15d06301f3185b7d002bf6d0b2
:104368006201104b9b1800225a75ab78012beed1d5
:1043780061010c4b59186b688b60280000f06cf9d0
:10438800e5e7074930228b5c013b8b5404f080fe43
:10439800040000f0f5fc200004f07efef8bdc046e5
:0843a800a83a0020bc360020f9
:020000040000fa
:1043b000f8b5ce46474680b504f098fc2e4b1a68f7
:1043c000013a1a601b680024002b03d12b4b1b6899
:1043d000002b06d104f044fd20000cbc9046994609
:1043e000f8bd0024264eb046264f274b9946336829
:1043f000002b22d04346db68dc682000183004f034
:10440000ccf9251d280004f0c8f9e36a3a68934204
:1044100001d91c4a13609800c01880001b4b181863
:10442000290004f0ccfc1a4b1b68db6ae26a9a4252
:10443000ddd301234a461360d9e7002c01d003f0f5
:10444000f3ff144b1c68002c0ed00f4e012502e028
:10445000013c002c05d0fff7fbfa0028f8d03560ae
:10446000f6e70c4b00221a60074b1c68002cb1d0f9
:1044700004f030fc0124ade7f43d0020ec3d0020c9
:104480006c3c0020fc3d0020183e00200c39002030
:08449000e03d00200c3e00207d
:020000040000fa
:10449800f0b5ce46474680b583b081468846324b54
:1044a8001e78002e59d1cd00013debb201931700c3
:1044b8001500083500202d4c0fe04000604080b208
:1044c800013bdbb2002b05d001b20029f5db40002f
:1044d80080b2f5e70132954204d013781b025840a8
:1044e8000823f1e7002422490fe064004c40a4b2fd
:1044f800013bdbb2002b05d022b2002af5db6400b9
:10450800a4b2f5e70137bd4204d03b781b025c40fa
:104518000823f1e7019d290000f040fe0f00290063
:10452800200000f03bfe4346013bcab2d2089a1a6b
:104538004846805cfab2d2089b1a07221740063a0e
:10454800ba404c46e35c1a4207d0072319400126bb
:104558008e400640731e9e41f6b2300003b00cbc7c
:1045680090469946f0bdc0469a3e002021100000b2
:044578000580ffffbc
:020000040000fa
:10457c00f0b5060085b00f0015001c008b4265d805
:10458c0001d1824262d82100280004f0e5fb3900f9
:10459c000090300004f0e0fb009b21001b1a1a0075
:1045ac002800039304f0ccfb00900191019bbb42cb
:1045bc0046d802d1009bb34242d8009b019c039a7f
:1045cc0001200021f61aa74104f0bafb039b002b33
:1045dc002fd0019b009adb0754081c43019b5d08fc
:1045ec00039b9c46bd422ed801d1b4422bd832003d
:1045fc003b00121bab41012692185b410027b618f9
:10460c005f4101235b429c446346002bead1801935
:10461c007941039a04000d003000390004f084fb4a
:10462c00039a06000f0004f08bfb241a8d41200026
:10463c0029000a9b002b01d01e605f6005b0f0bd05
:10464c0000200021c2e7b6197f41dae700200021e3
:02465c00efe786
:020000040000fa
:02465e007047a3
:020000040000fa
:10466000f0b5de4657464e464546e0b585b0814634
:10467000002854d0304b596b83689a4600290cd0df
:104680008b6852460392002290469a4549d30022f5
:1046900000238b460092019306e052468260264b2f
:1046a0005863012034e0e3465e46b66834000025d6
:1046b000009a019b12196b41009201935e46b66904
:1046c000b446002e12d06646b66800210f00009a4c
:1046d000019bb6185f41474529d8e4d1039b9e4210
:1046e000e1d960465946009a019b01e030005946e5
:1046f0004c46a0618c61002051468a1a4b469a6054
:104700009b69002b04d04a4691689a68521a9a60b5
:1047100005b03cbc90469946a246ab46f0bd002091
:10472000f6e7054b5863816100220120e4e760460b
:0c4730005946009a019bdbe7a83a0020e4
:020000040000fa
:10473c0070b504000d000b2861d88300314ad358a2
:10474c009f46032208210d2004f0c0fb2870200096
:10475c0070bd072280210d2004f0b8fb28700020ca
:10476c00f6e7002203210d2004f0b0fb2870002096
:10477c00eee701220221172004f0a8fb287000208c
:10478c00e6e700220f21142004f0a0fb2870002083
:10479c00dee7132002f032f828700020d8e7002260
:1047ac000f21052004f092fb28700020d0e7002296
:1047bc000f21152004f08afb28700020c8e7052281
:1047cc002021162004f082fb28700020c0e7042270
:1047dc0010212e2004f07afb28700020b8e7042268
:1047ec001021172004f072fb28700020b0e705227e
:1047fc002021172004f06afb28700020a8e78820ed
:08480c00a6e7c0466881000028
:020000040000fa
:1048140070b50400002927d02c4b1b7f0422f02103
:104824002c2003f0cbff012c34d9284b1b7d012213
:104834000e212c2003f0c2ff1920fdf7a9fd192831
:10484400fad1234b186801780139c9b202f0e6f9ac
:10485400204b01221a70204c80256d03a561012094
:1048640004f0caf9656170bd00230422f0212c20f4
:1048740003f0a4ff012cd8d8072301220e212c20f9
:1048840003f09cff13e0154803f0f7fd114b0022e1
:10489400da70d1e7072301220e212c2003f08effca
:1048a4000a4b1a7f0e4b1a700e4b01221a70012c00
:1048b400c2d1084bdb78122be5d8002bbcd0972053
:1048c40003f0dbfd034b0022da70b5e7d83b002090
:1048d4004c3d0020143c00200044004157020000dd
:0848e4002e3e00202f3e0020b3
:020000040000fa
:1048ec00f0b58bb006002f4b1c781a2c4dd8012735
:1048fc001d0007e00a2053e00a2051e00134e3b226
:10490c001a2b42d8e2b27368e3401f42f6d02a70e9
:10491c002900002000f09efb0028efd01a236b44e6
:10492c00012252421a808c2003f0d6fa061ee1d0e6
:10493c000568002de0d007ac1a276f443a88230095
:10494c001949012002f0f6f96378202213436370b1
:10495c002900200003f0f8fa010001232b540496df
:10496c00124b0393002302930197023300932b0005
:10497c0001222000fef7eafb03000020002b0fd1e0
:10498c00300003f003fc0a200ae0094b05221a70e0
:10499c007078084c3100236898470023236000206e
:1049ac000bb0f0bd363e0020ffff0000b9510000f7
:0849bc00383e0020603d0020a0
:020000040000fa
:1049c40070b50d1e4cd000284dd12848383004f065
:1049d40006f9012802d00120404246e02b68234c0e
:1049e4006360db689847e0600026c822002300214a
:1049f40003f066f81e4a002303f024f90222002380
:104a04008018594120620423eb5623722661194b06
:104a1400a361194be36100220023a262e36266638f
:104a24003023e65463681b68002114489847636880
:104a34001b69002b02d00d4a108b98470b4ce06980
:104a440080b263685b69984763685b689847a02293
:104a540000210b4804f034fa02232370200004e000
:104a64000120404201e00120404270bda83a0020ec
:104a7400006cdc02ffff0000ff7f0000c942000061
:044a8400bc3600201c
:020000040000fa
:104a880010b52a4b1b68002b03d0294b01221a6052
:104a980010bd274b00221a60264b1b681b6b264a49
:104aa8001968914202d1596891422fd0214b186858
:104ab8001968343104f020fb204b1b689a00d21887
:104ac80092001f495258002a06d1013b9a00d21879
:104ad80092005258002af8d019489a00d118890033
:104ae80041184c6864684c60d218920008328218e9
:104af800944212d09a00d218920011498a1852682a
:104b0800d1680c4a11600d4a1360c1e79968914257
:104b1800ccd1db689342c9d1cee760689a00d2183d
:104b2800920007498a185060e4e7c046f43d002027
:104b3800183e0020e03d0020a5a5a5a5fc3d0020cd
:044b48000c39002004
:020000040000fa
:104b4c0070b58ab01a236b4400221a80274b1a883e
:104b5c00ff231a423dd0264b1a881a236b441a8025
:104b6c001a236b441a88234b9a4230d08c2003f0c2
:104b7c00b3f9051e2bd00468002c28d01b4b1988c8
:104b8c0089b21b4b1a8807abff2002f0d3f8210027
:104b9c0007a803f0d9f90600072323540130c0b24b
:104bac0020180822144904f07df90495134b039343
:104bbc00002302931a336b440193022300932300c6
:104bcc000922310007a8fef7c1fa002809d00ab063
:104bdc0070bd074b188803f0f5fb1a236b44188043
:104bec00bee7280003f0d2faf1e7c046423d0020b0
:104bfc00423e0020ffff00008c3e0020cd8a0000ca
:020000040000fa
:104c0c00f0b583b006000d0001921f0008ab1c78b4
:104c1c0003f0eaf8002845d0244b1b785bb2022b3a
:104c2c0006d00124644203f051fd200003b0f0bd16
:104c3c00002d31d0b54232d31d4b1b78002b0bd03d
:104c4c001c4b01221978002908d001322033052a87
:104c5c00f8d101246442e6e70022154b01211970ba
:104c6c0000215970197559759c705d600199d96056
:104c7c001f61ad1b9d60104909881404240c0a04a3
:104c8c001443dc61013189b20c4a914202d00a4ac8
:104c9c001180c8e70121fae701246442c3e701242b
:104cac006442c0e701246442bfe7c046a83a002032
:104cbc00bc360020dc360020983e0020ffff0000b0
:020000040000fa
:104ccc00f0b5ce46474680b583b0814688462a4b20
:104cdc001a68957f002d17d000250023019300241e
:104cec000127254e06e001970134e4b23268937f28
:104cfc00a3420bd923011068c01802f0bfff002893
:104d0c00f1d00135edb2efe7002301931a4b1b688c
:104d1c00da7f012a17d900270124174e07e0012357
:104d2c0001930134e4b23368da7fa2420cd9a000bb
:104d3c00001980005b68181802f0a0ff0028eed064
:104d4c000137ffb2ede70027997f481b64246043cd
:104d5c0000f0d8f94b461870074b1b68d97fc81b5d
:104d6c00604300f0cff943461870019803b00cbcb7
:0c4d7c0090469946f0bdc046743d0020f2
:020000040000fa
:104d8800f0b5c64600b52a4b5a6b59691961002a15
:104d980042d09168274b994234d9254b5b6900254d
:104da8001c00244a0023a4185d41214b98465b68e7
:104db8009b6998470027060043461b69834203d92d
:104dc8001d4a0023b6185f41194b196a00230a00cf
:104dd80092197b41ab4202d827d1a24225d98e191c
:104de800134bde61124bdb691b0402d1104b01220d
:104df800da610f4bd86980b25b685b69984704bc7d
:104e08009046f0bd91680a4b5b6900251c000023a1
:104e18000a00a4185d41c8e7054b5b6900251c0022
:104e2800044a0023a4185d41bfe7014bdc61d9e7c0
:0c4e3800a83a0020ff7f0000ffff0000f0
:020000040000fa
:104e44002a2400009a24000068240000b6240000ec
:104e540068240000122400003e240000682400009e
:104e6400682400006824000068240000682400000e
:104e7400de23000068240000682400006824000089
:104e84006824000068240000682400000025000055
:104e940068240000682400004c2500009a240000c7
:104ea40068240000b62400006824000012240000d6
:104eb4003e240000682400006824000068240000e8
:104ec4006824000068240000de2300006824000039
:104ed400682400006824000068240000682400009e
:104ee40068240000002500006824000068240000f5
:044ef4004c25000049
:020000040000fa
:104ef80010b582b002f002ff01a8012464420480c8
:104f080003f06efb1c4803f057fb01f041fc00f076
:104f1800a1f903f09df903f0b3f9184b01221a70b7
:104f2800174b1c801e21174804f04ff81e21164805
:104f380004f04bf81e21154804f047f81e211448c8
:104f480004f043f81e21134804f03ff86b46d91dbe
:104f580000230b70fa22013392000f4802f0a4f9e3
:104f6800431c07d003f0d6fe0c4b18700c4b187876
:104f780002b010bd0120fbe7303e0020383e002083
:104f8800423d0020cc3c0020fc3c0020f03c0020ae
:104f9800e43c0020d83c00208d3c0000393e002035
:044fa800373e002070
:020000040000fa
:104fac00f0b5c64600b58ab007001a236b4401223f
:104fbc0052421a808c2002f08fff061e3ed00568ec
:104fcc00002d3dd0214c218889b21a236b441a88bc
:104fdc0007abff2001f0aefe290007a802f0b4ffda
:104fec008046208880b2a97801f0aef9041e21d049
:104ffc0011234246ab5443460133dbb20022ea5440
:10500c0043460233dbb23f0aef540496104b039332
:10501c0002921a236b440193022300932b00033258
:10502c00414607a8fef792f8041e0ad1300003f09f
:10503c00adf806e0300003f0a9f802e0002400e02f
:10504c00002420000ab004bc9046f0bd423d002074
:04505c00af6600003b
:020000040000fa
:1050600010b582b00c00022826d008d906283ed000
:1050700080282fd0052834d0002002b010bd002891
:1050800011d001280dd101a80b7803704b78437023
:1050900003f096fa0028f0d001ab1a88164b1a805c
:1050a000ebe70020e9e7002003f051fb0028e4d003
:1050b0002278124b1a70e0e701a80b7803704b7846
:1050c000437003f091fa0028d7d001ab1a880c4b3b
:1050d0001a80d2e70b785a1e93410a4a13700120b6
:1050e000cbe70422084803f0e3fe0120c5e70a7875
:1050f000064b1a700120c0e7303e0020363e0020eb
:10510000423d00209a3e0020583d0020f63b002002
:020000040000fa
:10511000002941d010b4041c4c40a44601230022b5
:10512000002900d54942002800d5404288422cd3ae
:1051300001242407a14204d2814202d209011b01a9
:10514000f8e7e400a14204d2814202d249005b00a8
:10515000f8e7884201d3401a1a434c08a04202d310
:10516000001b5c0822438c08a04202d3001b9c0851
:105170002243cc08a04202d3001bdc0822430028b3
:1051800003d01b0901d00909e3e7101c6446002c79
:1051900000d5404210bc704701b5002003f0b6ffb7
:1051a00002bdc0460029f7d003b5fff7b3ff0ebc20
:0851b0004243891a1847c0466a
:020000040000fa
:1051b800f0b583b000292dd1204d214eae65214f89
:1051c8003b78012422009a40130001331801c01ac9
:1051d800800102f04ffcfa21890000f0dbfde86451
:1051e8003b789c4001342001001b800102f042fc06
:1051f800fa21890000f0cefd020028650023542121
:105208006b54694607310b70300002f04df8e865c1
:1052180003b0f0bd0c4b1868fff764fb0028f7d00b
:10522800094b19680870094b05221a704878084c10
:105238002368984700232360eae7c0463c350020ee
:105248000d780000f73b00206c3d0020383e002020
:04525800603d002095
:020000040000fa
:10525c00f8b5274b1a68937f002b1cd00024244fe1
:10526c0001262501106840190822ff2103f024feb5
:10527c003a681368591908000830ff230b728355dc
:10528c008370c37011688c4665442b730134e4b28f
:10529c00937fa342e5d8164b1a68d37f002b26d0f8
:1052ac000025134f0126ac006419a40050680019a6
:1052bc000822ff2103f000fe3a6853681919080010
:1052cc000830ff230b7283558370c3705168091922
:1052dc0008000c300b7383558370c37051688c4677
:1052ec00644423740135edb2d37fab42dbd8f8bdf7
:0452fc00743d0020dd
:020000040000fa
:10530000f0b583b000221f21012003f0e5fd08283d
:1053100001d003b0f0bd073001f076fa0e2001f0a5
:1053200073fa019001210e2001f07afb002003f0b6
:105330002bfe0921022001f073fb03f044fe040060
:10534000154fa0260125bb591d4216d103f03bfe87
:10535000001bfa28f7d91a2001f056fa054208d0a6
:10536000a843c1b21a2001f05bfb03f02cfe04003d
:10537000e9e701210143c9b2f4e70f2001f044fa43
:10538000064b01221a61002003f0f6fd01990e2060
:1053900001f046fbbde7c046004400410018004054
:020000040000fa
:1053a000f0b585b00600029103921c0003f094fe54
:1053b0000190b36bf26b934208d30025022c05d009
:1053c000019803f097fe280005b0f0bd4523f55c79
:1053d0006db2b76b22000299300001f02df96b1c01
:1053e00005d001356db24523f5540125e8e7b36cce
:1053f000002b10d0022c02d10235002fe0d130005a
:1054000002f0fcf801250028dad0039a002a12d015
:1054100001231360d4e7736a0125002bd0d030003c
:10542000243001f0cdf80028cad0039a002a04d015
:0e54300001231360c4e70125c2e70125c0e790
:020000040000fa
:02543e007047b5
:020000040000fa
:1054400070b582b00c1e09d11f4b06221a7000f0f5
:105450002df9200001f066f902b070bd1b4ea425a5
:10546000705902f0d1fb705902f0aefb184a137864
:10547000013bdbb21370002b22d0144d1548a02342
:10548000e850154b19684a6b53019b1a9b009b18f7
:10549000db009422ab50496b4a01521a9200521819
:1054a000d2009823ea5000239c216b5469460731af
:1054b0000b7001f0fdfea423e850431cc9d1cbe7db
:1054c000002003f0a5f8d8e7383e00203c35002046
:0c54d000353e002061900000743d00207b
:020000040000fa
:1054dc0030b587b0fff70afd0e2833d00022002329
:1054ec00049205931f4d0832290004a803f058fbc1
:1054fc00040001225242d317049205930932290069
:10550c0004a803f04dfb002801d0002c1ed108216b
:10551c00684602f051f9002812d16946f030fcf7c8
:10552c002bfe02ac2100f020fef71cfb02232370a3
:10553c0021000320fcf720fe21000320fef712fbc4
:10554c0007b030bd084b05221a70c7e70822054981
:10555c0002a803f0a7fc02a9f020fcf70dfe00281e
:0c556c00dfd0ede78c3e00203b3e00202d
:020000040000fa
:105578001d4b00229a619a8c80218a439a841a00d2
:105588001023d1680b42fcd0184b1b689b0e3f2b95
:1055980027d09b02802292001343134a9362102360
:1055a800d1680b42fcd0104b02229a841a001023b7
:1055b800d1680b42fcd00e4b0e4a5a601a00537841
:1055c8005bb2002bfbdb0a4b0b4a5a800b4a5a8012
:1055d8000b4a5a800b4b0c4a1a62034b00221a6280
:1055e8007047203bd5e7c046000800402460800093
:1055f800000c0040000701000540000018400000b2
:0c5608001b4000000004004040080100ae
:020000040000fa
:1056140070b50e2836d8002a36d01c4b1c780423cb
:1056240025009d43012d02d00123082c28d1174bbe
:1056340003241c70164b1870164b1960164b1b680c
:105644001b6c1648036000245c70082018705960b5
:10565400134b1a6003f00efd124b1c70c3070ad4df
:105664000121012200e0190052004b1cdbb202426e
:10567400f9d00c4b1970094b1868fff735f9030082
:10568400180070bd0123fbe70123f9e7383e002031
:10569400f73b0020583d0020743d00206c3d002065
:0856a400603d0020363e0020ad
:020000040000fa
:1056ac0070b582b0204b1b780a249c42a441312354
:1056bc009c4364341d4dbc26a85902f09ffaa8598e
:1056cc0002f07cfa00230193a433e85801a900f0fe
:1056dc0071fc019b002b21d0144ea425705902f0b3
:1056ec008dfa705902f06afa104d1148b823e8503f
:1056fc000c3bec500433ec500023b422ab546a4600
:10570c00d11c0b70220001f0cdfdbc23e850431cd2
:10571c0002d0084b01221a7002b070bd034aa423b8
:10572c00d05802f04bfadfe7363e00203c35002023
:08573c00b15e0000263b0020d5
:020000040000fa
:10574400f8b5244b1b689a7f002a19d00024214ff6
:105754003e0005e00134e4b233689a7fa2420fd9d7
:1057640025011868401902f08dfa0028f2d03b6830
:105774001b685d19ab68002becd0013bab60e9e71b
:10578400144b1b68da7f012a23d90124114f3e00f0
:1057940005e00134e4b23368da7fa24219d9a500e6
:1057a4002d19ad005868401902f06cfa0028f0d0a9
:1057b40039684b685b19da68002aead0013ada6082
:1057c400002ae6d1486840190832ff2103f078fb2b
:0857d400dfe7f8bd743d002081
:020000040000fa
:1057dc0010b5c6b0040012236b4400221a800020be
:1057ec0003f012f9e075000a20763923e35c3a22c3
:1057fc00a25c12021a433b23e35c1b041a433c23b6
:10580c00e35c1b061343029301230193134b1b7898
:10581c00009323003d2212216944022002f07efff6
:10582c0000280fd00d4a13780133137009230c4a4a
:10583c00137005aa1370002205a90a4803f038f862
:10584c0046b010bd0a2305aa1370054a1370002236
:10585c0005a9044803f02cf8f2e7c0463c3e0020b2
:08586c003b3e0020383d002006
:020000040000fa
:1058740070b5234b802252031a6012021a6101216f
:105884004422995401329954022005329854013229
:105894009854002254241a554f3c5c255c552a3deb
:1058a40033265e5503355a5505355a5504355a5530
:1058b4004235144e5e51403559550f355a55013510
:1058c4005855013558550d35595501355a552f3d03
