:020000040000fa
:10000000f07f0020295c0000cb370000eb420000ad
:1000100000000000000000000000000000000000e0
:10002000000000000000000000000000f74c00008d
:100030000000000000000000815d000085680000f5
:10004000232b0000232b0000232b0000232b000078
:1000500011510000232b0000232b0000232b000054
:10006000232b0000232b0000232b0000232b000058
:10007000232b0000ed240000232b0000232b000085
:10008000232b0000232b0000fd650000232b000024
:10009000232b00000000000000000000232b0000c4
:0c00a000232b000000000000232b0000b8
:020000040000fa
:1000ac00f8b5c046f8bc08bc9e467047c15b000062
:1000bc00f8b5c046f8bc08bc9e467047995b00007a
:020000040000fa
:0800cc001c36000001000000d9
:020000040000fa
:1000d400f0b5d6464f464646c0b58cb0c34b5b7aa6
:1000e400002b03d0c24b1b78002b09d1c14b5b7a88
:1000f400002b65d10cb01cbc90469946a246f0bdbd
:100104000021ba4804f0d2fe05000468002cedd0aa
:10011400237b627b12021a43a37b1b041a43e37bf7
:100124001b061343b44a1360b44a137801331370a3
:10013400237c627c12021a43a37c1b041a43e37cd3
:100144001b0613432422a25c2521615c090211438e
:100154002622a25c120411432722a25c12060a433f
:100164000392a74a02922122a25c01922022a25c5d
:100174000092207d627d12020243a07d00040243ae
:10018400e07d00061043217e627e12020a43a17eb6
:1001940009040a43e17e09061143227f667f360281
:1001a4001643a27f12041643e27f1206324300f084
:1001b400fbfd8f4b00221a70280006f093f895e798
:1001c40001f056fa002895d08e4b19784a07cd08cd
:1001d40001242540ed00d20f03230b40013b5e4276
:1001e400734123405b012a43cd092c40a4011343ee
:1001f4002343854a137049b2002919db814a158ac1
:10020400814b5d80147b1c7391689960967b9e730f
:10021400527b5a731b789b0600d40ee30b78773b12
:10022400dab2632a00d90ce39300784ad3589f4684
:10023400744b5a68744b5a60e0e78c2005f094ffc5
:10024400041e00d1fde2724b1b78012b00d0f8e2b2
:10025400704b1b78012b00d9f3e26b4b9b685978e8
:100264006d4a1278914200d0ebe2674a52886b499a
:100274008a4208d06a490988914204d0624a127bb2
:10028400f227022a03d8987803f00cfb07005e4b90
:100294009b68db78aa2b32d05e4b1b78012b47d0ae
:1002a4002568002d00d1cce291232b706f705d4b3b
:1002b4001b78ab700322012f08d85b4b1b78eb70c3
:1002c4005a4b1b68db681b782b7102324e4906942b
:1002d400574b059301230493002003900295019248
:1002e4000a781207d20f00924a68498802f0a6f9e8
:1002f400002800d0a5e2200005f0f4ffa1e2424b63
:100304005b689a46494b1b6899460025ff2398462b
:1003140002e01035502dbfd04b465b685e19311d8d
:10032400504606f01bfa0028f3d04346f373f0e777
:100334007b1edbb2012bb3d92568002d00d180e2ee
:1003440091232b7062336b70364b1b78ab70032296
:10035400bce7384b1b78042b00d072e24b78012b9e
:1003640000d96ee22e4b1a882c4b9a420ad0264ba7
:100374009b685b78012b14d0002b25d12e4b0022d7
:100384005a7011e0262002ab9c46604401235b4274
:100394000380234c258006f075f8200006f05cf8f5
:1003a400e5e7254b06225a70234b0022da70164be0
:1003b4009b68d87803f076fa012809d9124b9b6818
:1003c4009a781e4b1a703ce21b4b01225a70ebe7e1
:1003d4000f4b02221a701a4b1b88002b02d1184ba8
:1003e4000d321a80174b00221a70e7e7843a002076
:1003f400103c0020783a0020703b0020bd3b0020d8
:1004040075660000043a0020383a00201c1f0000e2
:10041400c73b00200d3c00200f3c0020ffff0000e4
:10042400a43b0020bc3b00200e3c0020603b00208d
:10043400ed6d0000c53b0020183a0020c33b0020ae
:100444002a390020bf3b00208c2005f08dfe041ebd
:1004540000d1f6e1bf4b1b78022b00d9f1e1be4b72
:100464009b685a78bd4b1b789a4200d0e9e100683a
:10047400002800d1e5e197230370b94b1b78437042
:10048400b84b1b68db681b788370b34b5a68598878
:100494000694b54d05950125049500250395029014
:1004a400032001901b781b07db0f0093012300201e
:1004b40002f0c4f8002800d0c3e1200005f012ffc8
:1004c400bfe1aa4b1b78092b00d0bae1a84c002548
:1004d4006570a64b07221a70a04b18780021e368b8
:1004e4009847e560ade1a34b1b78022b00d0a8e14f
:1004f4004d78052d00d9a4e18b78042b00d9a0e117
:100504001333ca78934200d09be1042c00d8a0e1b5
:10051400cb79053bdbb2f92b00d892e104230433f9
:10052400dbb29c4200d8a9e1ca18d278053ad2b20b
:10053400f92af4d885e10433dbb29c4200d88ae17d
:10054400ca18d278ff2af6d096008b4fbc46b44422
:100554006746fa70ca5c884ff255ca1856786746df
:100564007e709278ba70e6e70133dbb204319d42c3
:1005740009d008786045f7d14878b042f4d1089c96
:1005840022000027f0e7002a1fd1002c00d058e1f8
:100594007a4a13780133dbb21370012b00d850e18f
:1005a400774b00221a80774b1b68934204d06f4a22
:1005b4001278082a05d098476c4b1b78042b00d17d
:1005c4003fe16a4b08221a703be16c4b1f70dce779
:1005d40000216d4804f06afc04000368002b00d17c
:1005e4002fe15d68002d04d01a001632187d002119
:1005f400a847200005f076fe23e15e4b1b78012b13
:1006040000d01ee1481c05f0b9f80600ff2800d10f
:1006140017e18c2005f0a8fd05000468002c00d12a
:100624000fe1504b1f683601230008337a68911993
:1006340004310822180006f0f5fb474a536819787c
:10064400a1755978e1759b782376127b042a39d9f0
:10065400414b9b689c460423200015306146c95ccd
:10066400c1540133d9b29142f8d3013ad1b2617580
:100674000123e374384b1b781b07db0fdab2944673
:100684006622a3547a689219137b7e208343802bbd
:100694001ad00432002006903c4b059301230493a6
:1006a400039316340294019163460093030038497e
:1006b400098801f0c3ff002811d02900324805f051
:1006c4005fffbee00321d2e7002363600c33237491
:1006d4000b3b637429002f4805f052ffb1e028005a
:1006e40005f000feade0234b1b78012b00d0a8e001
:1006f400194b5d682c781b4b1b685b6818005030e5
:1007040003e01033984200d19be019001a79a24209
:10071400f7d15e796a789642f3d19e79aa789642a7
:10072400efd19b7b01338b738be08c2005f01cfd98
:10073400061e00d185e00768002f00d181e09223d6
:100744003b70054b5b680993064b1b685d6800248e
:1007540027e0c0460d3c0020383a00200f3c002022
:100764000e3c0020603b00201b4f0000c53b0020d6
:10077400283a0020c73b0020dc390020bf3b002082
:100784002a390020683b00206c3a0020b52800007c
:10079400a43b0020903a00200134e4b21035052c2b
:1007a4002ad008952b7b7f2bf6d9291d099805f0b3
:1007b400d5ff0028f0d00023089a13737b70052c12
:1007c4001fd002202f4b5a68598806962e4c059448
:1007d4000124049400240394029701901b781b07be
:1007e400db0f00930123002001f028ff002828d10b
:1007f400300005f077fd24e00123581cf022fa5460
:10080400e0e70223f9e74b78002b1ad11d4b5e6811
:100814001e4b1b685c682700503702e01034a74267
:100824000fd0237b7f2bf9d9211d300005f096ffd3
:100834000028f3d00023237303e0154b1b78072b08
:1008440002d006f094fa55e4124b1b680d48984701
:10085400f7e7114b1d704b788a789a42f1d2ca7827
:100864009a42eed30d4b1a7894465e780c4b1f785f
:100874000c49002214001300089078e6064b1d7002
:1008840004235de6383a00201b4f0000603b002043
:10089400c53b00206c3b0020c13b0020003c0020f5
:0808a400bf3b0020dc390020fd
:020000040000fa
:1008ac002c3900201c000000000000002939002019
:1008bc000100000000000000a93b00200100000026
:1008cc00000000006837002050000000000000000d
:1008dc009c38002004000000000000004839002073
:1008ec001c00000000000000d83a002004000000aa
:1008fc0000000000483a00200c000000000000003e
:10090c000c3900201d00000000000000dc3a002023
:10091c000400000000000000aa3b002002000000c0
:10092c0000000000e03a002004000000000000007d
:10093c00ad3b002003000000000000009c360020ae
:10094c006800000000000000402f0020fc050000a3
:10095c0000000000543a00201800000000000000c5
:10096c003c350020c000000000000000b03b00201f
:10097c000100000000000000e03800202c00000006
:10098c0000000000a83a0020080000000000000051
:10099c00a03800204000000000000000fc350020c2
:1009ac00a000000000000000ca3b00200200000074
:1009bc000100000001000000e43a002004000000e7
:1009cc000000000058380020440000000000000027
:1009dc00e83a00201c00000000000000083c002049
:1009ec000400000001000000aaaaaaaa043b0020ef
:1009fc00040000000000000000000020402f000058
:100a0c0000000000083b0020140000000000000063
:100a1c00b03a002008000000000000001c3b002041
:100a2c000c000000000000000437002064000000ef
:100a3c0000000000283b0020140000000000000013
:100a4c006439002028000000000000003c3b00201e
:100a5c0010000000000000008c3900201400000081
:100a6c00000000004c3b00200400000000000000cf
:100a7c00a03900202800000000000000503b00209e
:100a8c000800000000000000b83a00200800000038
:100a9c0000000000b13b002001000000000000003d
:100aac00b23b00200300000000000000b53b00201a
:100abc000200000000000000b837002050000000c9
:100acc0000000000ac3b0020010000000000000012
:100adc00b73b002002000000000000000c3c00208e
:100aec00010000000100000001000000ec3b0020b0
:100afc00140000000100000000000000b8370020c6
:100b0c00000000000c3c002000000000c93b00204d
:100b1c0001000000010000001a000000b93b002099
:100b2c000200000000000000c83900201400000082
:100b3c0000000000583b00200c00000000000000ea
:100b4c00dc3900201400000000000000bb3b00203a
:100b5c000200000000000000a83b00200100000083
:100b6c00000000006c3a00200c00000000000000a7
:100b7c00bd3b00200300000000000000d63a00201e
:100b8c000200000000000000f039002014000000fa
:100b9c0000000000643b0020040000000000000086
:100bac00c03b002001000000000000009e3b002024
:100bbc000200000000000000c13b0020010000000a
:100bcc0000000000783a002018000000000000002f
:100bdc00183a00201000000000000000a23b00208a
:100bec000200000000000000903a00200c00000001
:100bfc0000000000683b0020040000000000000022
:100c0c00c23b002001000000000000002a39002037
:100c1c0002000000000000009c3a00200c000000c4
:100c2c0000000000c33b0020010000000000000099
:100c3c00a43b00200200000000000000c43b002088
:100c4c0003000000000000006c3b002004000000ca
:100c5c0000000000283a00201000000000000000f6
:100c6c00c73b00200100000000000000383a0020c3
:100c7c001000000000000000703b00200400000089
:100c8c0000000000a63b0020020000000000000055
:100c9c000d3c002003000000010000000301ff00d8
:100cac00003c00200800000001000000ab112233c2
:100cbc0044556611103c00200100000001000000aa
:100ccc0001000000d03a00200600000000000000e7
:100cdc00743b00201800000000000000c83b0020fe
:100cec000100000000000000c03a002008000000d5
:100cfc0000000000043a0020140000000000000076
:100d0c00a03b002002000000000000008c3b0020f3
:100d1c0004000000000000009c3b002002000000ca
:100d2c0000000000903b00200400000000000000c8
:100d3c00083800205000000000000000943b002008
:100d4c000400000000000000cc3b0020200000004c
:100d5c000100000001000000030000000000000082
:100d6c000000000000000000000000000000000077
:100d7c00c83a0020c83a002008000000000000001b
:100d8c00983b002004000000000000000000000060
:100d9c00000000006666666666666666666666667f
:020000040000fa
:100dac00f0b5de4657464e464546e0b589b0051cc3
:100dbc0005900e0006911100090a0792029312abde
:100dcc001c78ad06ed0f0396d7b2cbb20193af4ba7
:100ddc001a78af4b1a708c2005f0c2f980460028a7
:100dec0000d14fe10068002800d14de10c23994659
:100dfc0081444b46436005ab1b789c465b0700d592
:100e0c000127032263461a40012a3ed05142514128
:100e1c00c9b2a04b1b8805ae76899e4237d0002301
:100e2c009b4607339a4653460833002f00d0063ba7
:100e3c00019e002e3ad00233dbb204932426b24634
:100e4c00664653461e40202e34d0032a34d0a21cb2
:100e5c00049b9b1803730122531c9c464b469954cc
:100e6c0005ab6d0119782026b1430d431d70eb4382
:100e7c009b0729d0002f7cd0019b002b73d0023212
:100e8c008823416866468b5581e00321c1e7824e79
:100e9c00b34206d04023194301239b4604339a46a0
:100eac00c1e700239b4607339a46bce70833dbb205
:100ebc000493c3e73143c8e70123019300250023c2
:100ecc009b4600210022c7e78023416865464b55ad
:100edc006e4d29784b1cdbb22b70d51c0232466848
:100eec00b1546b4a13705b46002b0ad16a1cd2b208
:100efc0068490b78466873550235edb24b784168fa
:100f0c008b54019b002b00d190e0644a137841680c
:100f1c004b55ab1cdbb20135edb2527841684a55ea
:100f2c00002c0ad0029a1c19e4b2591c1578466898
:100f3c00f5540132cbb29c42f7d1594b149a1a603a
:100f4c00434603600122022105f01af8002800d064
:100f5c0080e00130159b002b00d18ce0180005f0cf
:100f6c00bdf9012087e00232c823416866468b55e3
:100f7c000de0019b002b05d002328c2341686646a4
:100f8c008b5504e00232cc23416866468b553f49b1
:100f9c000b785e1c0e7041688b54511cc9b205abaa
:100fac0004939e7ab446466863467354d11cc9b206
:100fbc008946931cdbb29c46049bdb7a46686146ef
:100fcc0073546b070ad5ff27436849465f54551d78
:100fdc00edb20432d2b243689f5484e7002f0cd098
:100fec0003990b7845684e46ab55551dedb24b78c1
:100ffc000432d2b241688b5475e7039b15000b3554
:10100c00e9b28c46019e494665469446a1462a00a3
:10101c004d1c1f78446867540133e9b29142f7d1f3
:10102c00624601964c460b32d5b25ce71d4b5e68ae
:10103c00370008373200ae1ba4461178b318dbb268
:10104c004468e1540132ba42f7d164462b000833ac
:10105c00dbb265e7144b01221a70144a1378013b7a
:10106c001370159b002b02d0180005f037f9404681
:10107c0005f034f9002009b03cbc90469946a246d4
:10108c00ab46f0bd0020f6e70020f4e7c83b00209b
:10109c00c63b0020a03b0020ffff00009c3b002033
:1010ac008c3b0020c03a0020103c0020bd3b0020af
:020000040000fa
:1010bc00f0b5de4657464e464546e0b58bb0099036
:1010cc000e001500089314ab1b78994615ab1f78ce
:1010dc0016ab1b789846a34b1b780024072b00d02b
:1010ec002fe14c2a00d92be1022807d14a781202b1
:1010fc000b789b189bb29c4a934277d08c2005f0be
:10110c002ff88346002800d127e10468002c00d179
:10111c0025e1179b6360200008300822310005f0a0
:10112c007dfe4b4623756575002323746774663307
:10113c004246e2548d4b1b78022b00d0dce0099b1d
:10114c00082b0ad18a4b1b6859680431300005f012
:10115c0001fb8246002800d080e0cc23a3753378b5
:10116c00e37573782376b37863762a0008992000a8
:10117c001a3005f053fe0435edb26575002f00d121
:10118c0098e0032323747a4b1b685a680432794b1a
:10119c00198800230693784b0593012304934b463f
:1011ac0003931634029401954346009301230020c7
:1011bc0001f040fa002875d05946704805f0dcf96a
:1011cc006f4b1c78002c00d0bbe06e4a137b9268ee
:1011dc006d4909786d4804f0f1f96d4b1860431caa
:1011ec0064d0674b01221a703c00aae08a3004f0ec
:1011fc00b7ff071e00d1ace00068002800d1aae0c0
:10120c00179b43604b460375457504746623424631
:10121c00c254503b9a4682442a000899504605f025
:10122c00fdfd544b198806945a4b059304944b4678
:10123c0003935346029301954346009300233200d7
:10124c00012001f0f7f9041e04d03900524805f0d2
:10125c0093f976e0380005f041f872e016342a0074
:10126c000899200005f0dafd424b198800230693fb
:10127c00484b059304974b460393029401954346c0
:10128c00009300233200002001f0d4f9041e04d096
:10129c005946414805f070f953e0584605f01ef8e0
:1012ac0054464ee0584605f019f889e7344b0022b5
:1012bc001a7046e02e4b1b685a6804322d4b198865
:1012cc00002306933348059004934b46039316343e
:1012dc0002940195434600930123002001f0aaf9e2
:1012ec00041e04d059462c4805f046f929e058460e
:1012fc0004f0f4ff012424e016342a00089920009d
:10130c0005f08cfd1b4b198800230693214b05938c
:10131c0004974b4603930294019543460093002394
:10132c003200002001f086f9041e04d059461a48f8
:10133c0005f022f905e0584604f0d0ff012400e046
:10134c00002420000bb03cbc90469946a246ab460c
:10135c00f0bd0024f5e70024f3e70024f1e70024b6
:10136c00efe7c046c53b0020ffff0000c73b002055
:10137c00603b0020a43b0020b52800006c3a002004
:10138c00c03b0020f0390020ba3b00200948000087
:0c139c00643b0020b93f00009c3a002098
:020000040000fa
:1013a80010b586b003780f2b00d193e03ad9102bf3
:1013b80000d1e4e0112b41d1a24b1978a24b1b7844
:1013c800013b0024994201d80131ccb29d4b1c70dd
:1013d8009e4b1b78012b00d10ce19d4b1878062100
:1013e80003f0c0f9c9b24b005918cb005b1a9949f0
:1013f8005b1899490a78501c0870a400974961182d
:101408009748039000200290013001900092152225
:101418000230fff74ffe002810d08d4a13780133b1
:1014280013700be00e2b09d1884b1b78012b07d0ca
:101438008c4b1a78834b1b789a4228d006b010bd83
:1014480016246c44023b2380814b1878062103f054
:1014580089f9c9b24b005918cb005b1a7d4a9b1811
:101468007d490a78501c08707d490391002102913a
:10147800013101910092152221000220fff71afe86
:101488000028dbd0724a137801331370d6e7704b0b
:101498001878062103f066f9c9b24b005918cb0039
:1014a8005b1a6c4a9b186c490a78501c08706c4986
:1014b80003910021029101310191009215226a499c
:1014c8000820fff7f7fd0028b8d0614a13780133e8
:1014d8001370b3e75d4b1b78012b28d0594b1c7850
:1014e800a4005e4be4185a4b1878062103f03af929
:1014f800c9b24b005918cb005b1a56495b185649bc
:101508000a78501c08705649039100210291013154
:1015180001910092152221000320fff7cbfd00283e
:1015280000d18be74a4a13780133137086e71624f3
:101538006c44023b2380464b1878062103f012f9cd
:10154800c9b24b005918cb005b1a424a9b18424952
:101558000a78501c08704249039100210291013118
:1015680001910092152221000220fff7a3fd002817
:1015780000d163e7364a1378013313705ee7334bc3
:101588001b78012b0ad02f4b1a782f4b1b78013b65
:101598009a422bd92b4b00221a704fe716246c4421
:1015a800023b23802a4b1878062103f0dbf8c9b2e6
:1015b8004b005918cb005b1a264a9b1826490a7813
:1015c800501c0870264903910021029101310191b4
:1015d8000092152221000220fff76cfd002800d19f
:1015e8002ce71b4a13780133137027e70132154b98
:1015f8001a7023e716246c44023b2380144b187896
:10160800062103f0aff8c9b24b005918cb005b1a9a
:10161800104a9b1810490a78501c08701049039109
:10162800002102910131019100921522210002202e
:10163800fff740fd002800d100e7054a1378013381
:101648001370fbe6b63b0020c13b0020c73b0020df
:10165800b43b0020144a0000b53b0020dc390020d0
:0c166800f5600000c33b0020bc370020f0
:020000040000fa
:10167400f8b50021ab4803f019fc002800d14de176
:101684000268002a00d14be1536819785e7840243f
:101694002640a54b00241c70dc73013c1c8254685a
:1016a400a3783325ab43882b00d197e00ad9c82b04
:1016b4003ad0cc2b6bd08c2b00d1c7e004f012feb7
:1016c40000201ce1082b00d1ece0802bf6d1964bd6
:1016d4001c7804252543802464422c431c70012477
:1016e400dc73546824791c74546864795c74546899
:1016f40006345c600c00093c1c73546808349c601c
:1017040053685c78230700d5e0e007232340012bce
:1017140000d1dfe0002b00d1fae0032b00d1efe091
:1017240004f0e0fd0020eae0a379ff2b16d07e4d03
:101734002f7880235b423b432b70002e17d02479f3
:101744002c74546864796c74546808346c600c00ac
:10175400113c2c7354681034ac60d1e7e379ff2b4f
:10176400e5d1714d2b7804273b432b70dfe7247ab6
:101774006d4b1c745468647a5c7454680a345c60fd
:101784000c00133c1c73546812349c60b8e7664d1b
:101794002f7880235b423b432b70002e0ed024799c
:1017a4002c74546864796c7454680e346c600c0046
:1017b400173c2c7354681634ac60a1e7a47b5a4bd5
:1017c4001c745468e47b5c74546810345c600c00d2
:1017d400193c1c73546818349c6091e7a379ff2b5f
:1017e4001ad0514b1d78802464422c431c70012470
:1017f400dc73002e19d153681c7a4b4b1c7454684b
:10180400647a5c7454680a345c600c000d3c1c738c
:1018140054680c349c6073e7e379ff2be1d1424cac
:10182400237804252b432370dbe753681c793e4b54
:101834001c74546864795c74546808345c600c00eb
:101844000b3c1c7354680a349c6059e7364b1d7872
:10185400802464422c431c700124dc73002e10d0bd
:1018640053681c79304b1c74546864795c745468f4
:101874000d345c600c00113c1c73546810349c6083
:101884003ee753685c7b284b1c745468a47b5c74ef
:1018940054680f345c600c00133c1c73546812349d
:1018a4009c602de7a379ff2b07d01f4c0b00083b4e
:1018b400237353680833a36022e7e379ff2bf4d141
:1018c400194c237804252b432370eee704f00afd1a
:1018d400002014e0144c23780325ab432370023119
:1018e400c9b253685b18023b1b780f4ca37353684f
:1018f400591801390b78637304f0f4fc0120f8bd26
:10190400094c23780325ab4301252b432370e6e7d9
:10191400054c237803252b432370e0e70020eee7f2
:0c1924000020ece7783a0020043a002094
:020000040000fa
:1019300070b50d007f4b1c78042c00d1e7e04e28d9
:1019400007d059280ad10a787b4b1a770024200047
:1019500070bd0a78784b1a750024f8e7754b5a78f1
:101960000f2a00d1d5e00b2800d1c6e016d95328a4
:101970007cd047d84f2868d089245028e7d16e4cb6
:101980000b880978a1731b0ae373222003f0c6fabf
:10199000e17b232003f0c2fa0024d8e7022800d11b
:1019a00082e00cd9032800d19de0042828d1002c26
:1019b00000d0b4e00c78002cc9d08824c7e70028f8
:1019c0001cd1002c00d0a6e00b785c49d940c90797
:1019d00000d4a2e0082a00d1a3e0082000f0b0f86b
:1019e0000828fad12b78544ad37400221f210820ea
:1019f00004f0dcfe162000f0a3f8a8e78924a6e78f
:101a00008924a4e7572840d08924f0289fd10a6868
:101a10004b68494d2a70110a6970110ca970120e99
:101a2000ea702b711a0a6a711a02120eaa711b0e41
:101a3000eb7124242978200003f070fa0135013479
:101a4000e4b22c2cf6d1002481e70b783a4a537586
:101a5000d27e934201d9384b5a75374b5b7d0022b9
:101a60000f212f2004f0a2fe002470e7324c0b88d7
:101a7000097821731b0a6373202003f04ffa617bfe
:101a8000212003f04bfa002461e70b782a4ad37631
:101a9000527d9a4201d9284a53750422f0212f2001
:101aa00004f084fe002452e70878830612d43f2312
:101ab0000340042b00dd0420802318431e4bd875ff
:101ac00003f0acff030000220f21052004f06efe9e
:101ad00000243ce742421f2313405b425bb21133b8
:101ae000eada2f20e8e70b78134a93740522602185
:101af000082004f05bfe002429e70b780e4a93755a
:101b0000032208212e2004f051fe00241fe7862422
:101b10001de781241be7862419e7882417e786241c
:101b200015e7054ad37400221f21082004f03efe69
:101b30000de7c046483900200c39002000f8ff07a7
:020000040000fa
:101b400070b504007c4b5b780f2b07d00338c2b212
:101b5000162a5fd89000794a125897460f286ed0ff
:101b6000754d00232b7104f033fe08236b70082c95
:101b700000d1dde0032c00d1dce0201fc3b2152b27
:101b800048d898006e4b1b589f460321022003f053
:101b9000c5f90f2003f0eaf810210e2003f0bef97a
:101ba000654c0f236370012004f0ceff654b80224b
:101bb00052039a61232004f0c7ff60783fe05e4b38
:101bc0005b78082b26d00821022003f0a7f901201a
:101bd00004f0baff1ee0082b1cd00321022003f002
:101be0009df9012004f0b0ff14e0534b5b78082b03
:101bf00026d00dd9162b01d0192b0bd1082102208c
:101c000003f08cf9012004f09fff02f07ffa01e05d
:101c1000062bf3d0012003f0a9f81f231840464bf0
:101c2000587063241d001f2809d1012003f09ef87d
:101c30001f2318406870013ce4b2002cf3d170bd42
:101c400002f064fae6e73c4b5b78082b06d0092be0
:101c5000e0d00421022003f061f9dbe702f056fa3c
:101c6000d8e7354b5b78092b11d00cd81f24082bf3
:101c7000d0d10621022003f051f904f0dbfe204010
:101c80000628f6d1c6e7162b01d0192bc2d10821a0
:101c9000022003f043f91f240621022003f03ef93d
:101ca00004f0c8fe20400628f6d1b3e7224b5b784b
:101cb0001f24082b16d004d9092b04d0192ba9d125
:101cc00001e0062ba6d10821022003f027f91f24ea
:101cd0001621022003f022f904f0acfe2040162861
:101ce000f6d197e71621022003f018f904f0a2febe
:101cf00020401628f6d18de70f4b5b78082b12d0c9
:101d000005d9092b06d0162b00d083e702e0062b5d
:101d100000d07fe70821022003f000f919210220fa
:101d200003f0fcf876e71921022003f0f7f871e7d9
:101d3000200084e7082082e748390020043f0000a3
:081d4000603f00000044004177
:020000040000fa
:101d4800f0b5c64600b584b001900f000293960026
:101d5800300000f07bff051e00d1bae0542000f0ef
:101d680075ff041e58d005633200a521280005f030
:101d780061f8236b9846002f54d03b783422a35443
:101d8800002b09d0012321003431fa5cca54002aff
:101d980002d00133102bf8d143230022e2540a9dcc
:101da800042d00d90425e56265640027a764231d76
:101db8000393180005f057f92000183005f053f97f
:101dc800246105235b1ba3616462e7645023e75425
:101dd800301f4044493b9843029a019904f0e8fdba
:101de80020600b9b002b00d01c6004f021ff3c4ab4
:101df8001368013313603b4b1b68002b16d03a4b1a
:101e08001b68002b17d1374b1b68db6ae26a9342c9
:101e180011d8344b1c600ee0280003f0fdfb0120b4
:101e2800404258e034230022e254b8e72d4b1c60ae
:101e38001368012b23d02d4a136801331360e36a1a
:101e48002b4a1268934201d9294a13609800c01896
:101e58008000284b1818039904f053ff04f09affe8
:101e6800214b1b680120002b35d01e4b1b68da6afa
:101e7800e36a9a422fd204f0cffe01202be01d4dd9
:101e8800280004f033ff2800143004f02fff280046
:101e9800283004f02bff28003c3004f027ff2800ee
:101ea800503004f023ff144e300004f01fff134d90
:101eb800280004f01bff124804f018ff114804f032
:101ec80015ff114804f012ff104b1e60104b1d60e7
:101ed800b1e70120404204b004bc9046f0bdc046c2
:101ee800283b00201c3b00204c3b0020343b0020ba
:101ef800383b00200437002064390020783900205e
:101f08008c390020b4390020a0390020203b002063
:041f1800243b002046
:020000040000fa
:101f1c00ea0400004608000046080000ea0600003b
:101f2c00460800004608000046080000460800006d
:101f3c0046080000460800003e0200002e07000084
:101f4c00460800004608000046080000460800004d
:101f5c004c0400004608000046080000460800003b
:101f6c00460800004608000046080000460800002d
:101f7c004608000046080000560300000a0800004e
:101f8c00460800004608000046080000460800000d
:101f9c00c604000046080000460800004608000081
:101fac0046080000460800004608000046080000ed
:101fbc0046080000460800004608000046080000dd
:101fcc0046080000460800004608000046080000cd
:101fdc0046080000460800004608000046080000bd
:101fec0046080000460800004608000046080000ad
:101ffc00460800004608000046080000460800009d
:10200c00460800004608000046080000460800008c
:10201c00460800004608000046080000460800007c
:10202c00460800004608000046080000460800006c
:10203c00460800004608000046080000460800005c
:10204c00460800004608000046080000460800004c
:10205c00460800004608000046080000460800003c
:10206c0046080000fe050000460800004608000077
:10207c00460800004608000046080000460800001c
:10208c00460800004608000046080000460800000c
:10209c00460800004608000046080000d405000071
:020000040000fa
:1020ac0070b50500594c207fc0b2002800d0a7e0c5
:1020bc0000294ad0002d48d0554c6668072434407e
:1020cc00012c5ed05148056042600024446184615b
:1020dc0004614e488160002a58d04c4ad3604b4a68
:1020ec00012111774a4a127e520705d5484a04202d
:1020fc00916a117e0142fbd1454a518b0420014368
:10210c005183117e80200143117640498a68c96849
:10211c00914203d93d48c168891a01613c4949681b
:10212c00490743d139498969914233d2374a1168f9
:10213c00087837498862916901319161002b5ad036
:10214c00334b04229a7501205be0002b59d0002af6
:10215c0057d02f4c666807243440012c0cd02b48e8
:10216c00056042600024446184610461002db0d19b
:10217c00264900208860aee7002943d1dc07eed564
:10218c003fe0cc073dd4002be9d0f7e71f4a0021f4
:10219c00d160a4e71d4a1269002acfd01c4aff2146
:1021ac0091621a490a69013a0a61c7e7174a9168ac
:1021bc0049089160116949081161d1684908d160d9
:1021cc00916892698a420ad210490a681288d2052b
:1021dc00d20d0f4882628a6901328a61aee70b4ade
:1021ec001269002aaad00a4a0a49916207490a6967
:1021fc00013a0a61a2e7064b01229a75012000e020
:10220c00002070bdcc07b9d5fbe7c046e0380020f4
:08221c0000180042ff01000060
:020000040000fa
:10222400f0b5de4657464e464546e0b58bb0534bb7
:102234001c781321200002f097fac9b200290ad0b1
:102244001321200002f054fa0130c3b2099313247d
:1022540000239a466ae01321200002f049fac3b22f
:102264000993122cf3d80bb03cbc90469946a24675
:10227400ab46f0bd3679c6544e4636687668761855
:102284007679b3465e1cf6b25f468755de1cf6b21d
:10229400b3464e463668766871188e79991cc9b271
:1022a40046540433dbb2594642540132d2b21100cf
:1022b400a2421ad22e789642f7d90901304e3668d6
:1022c40076687618377b7f2fd4d86146c154591c61
:1022d400c9b266464654d91cc9b29e1cf6b26746ba
:1022e40087550433dbb24254dfe74f2b07d8c218bb
:1022f400ff210133dbb2117001324f2bf9d9214a8e
:10230400118842460692204a059201220492002234
:1023140003920290019300920123012000f08ef9b0
:10232400002827d01334099b9a459cd28c2003f0b3
:102334001bff8046002896d00068002893d077239e
:1023440003700e4b1b784370e3b21a00133ad2b2f7
:10235400827051460131c9b28a46c3701100a2424b
:1023640006d20423054dff26b446054eb146a1e727
:102374000423bce7404603f0b5ffd3e7be3b00208f
:0c238400603b0020a43b00201b4f000029
:020000040000fa
:10239000f8b503f06dfc002800d08fe04c4c982578
:1023a00080231b066351802636026651db0a636177
:1023b000a530400004f0c8fb9423e6500a2004f046
:1023c000c3fb66510a24642004f0befb1c2002f00b
:1023d000cdfc0b2805d0013ce4b2002cf3d18527bd
:1023e0006de00821093802f099fd642004f0acfb8f
:1023f00000221f21012004f02bfd0a2408280cd004
:10240000642004f0a1fb00221f21012004f020fd24
:10241000013ce4b2002cf1d1e1e72e4b08225a70c6
:102420002d4804f0f9fa00284bd1012002f0a8f958
:10243000071e4ad1294d08e0284c2600083604f032
:1024400013fc20700134a642f9d12878697809027a
:102450000843a97809040143e8780006084302000c
:102460002879697909020843a97909040143e879bf
:1024700000060843030001204042c11712184b41d7
:10248000591c01d1d31cd7d800221549002004f0d3
:102490008df8002004f024fd02f02efc8c2003f0c7
:1024a00065fe104b186000280dd0ff210e4804f087
:1024b0004cfd084b822252045a6100e08527380007
:1024c000f8bd8527fbe78527f9e78527f7e7c046ad
:1024d0000044004148390020aa3b00200c3900206c
:0c24e000b96f0000dc3a0020483a0020f0
:020000040000fa
:1024ec0070b5504b586a504b9b7d002b54d04e49c5
:1024fc004c68072214404b4b5a699d699e680b7eb1
:10250c005b0757d5896a474bdb68934252d9002c3d
:10251c0043d1444b5b6899540132434b1b7edb0720
:10252c0016d5414b012119753e4b9b68ab4256d9d0
:10253c003c4b1b68595d3c4b99620135394b1b690f
:10254c00002b01d1b54262d0364bdb68934262d08e
:10255c00344b5a619d61344b1b7e9b0715d5334b15
:10256c001b78002b18d02f4bdb68934211d12d4bcd
:10257c0000221a772c4907240c752c490a701b6a07
:10258c00002b09d0274b1b6a9847284b1b78002b34
:10259c0002d0254b02229a7570bd224b5b68540009
:1025ac00e1520132204b1b7edb07d1d51e4b0121a2
:1025bc00197508e01c4b1b7edb07c9d51a4b012192
:1025cc001975002cb0d0174b9b68ab4213d9154b27
:1025dc001b686900c95a144b99620135aee7114b5f
:1025ec001b69002baad0104bff2199620d490b6976
:1025fc00013b0b61a2e70b4b1b69002b9ed00a4bd6
:10260c000b49996207490b69013b0b6196e7074b34
:10261c00012119709ce7044b01219975033119753f
:10262c0096e7c046e038002000180042b03b00207e
:04263c00ffff00009c
:020000040000fa
:10264000f0b5de4657464e464546e0b583b0060037
:102650006846c18000921f000cab187880460dab15
:10266000187882460fab1878834610ab1d788c2003
:1026700003f07cfd8146002800d178e00468002c3e
:1026800000d176e0734273415b421d4001231d403f
:102690006d01032217401800304081002f4340464f
:1026a0001840c2000f4300216177267701214e4078
:1026b00033409b0117433b4380225242134323750f
:1026c0000099a1616b46da88e283002906d0237d58
:1026d0005b0741d4201d082204f0a6fb0e9b237447
:1026e0000e9b1b0a63740e9b1b0ca3740e9b1b0e8c
:1026f000e374231da361119b2373119b1b0a637356
:10270000119b1b0ca373119b1b0ee37321235a46d1
:10271000e254013b5246e2540433129ae254129bb3
:102720001a0a2523e254129b1b021b0e2622a354d5
:10273000129b1b0e0132a35449460f4803f022ff9f
:1027400000280fd103f0aaff012003b03cbc904643
:102750009946a246ab46f0bd201d0222009904f026
:1027600063fbbbe7484603f0bffd0020ede7002018
:0c277000ebe70020e9e7c046843a0020b7
:020000040000fa
:10277c00f0b5ce4600b584b00400009101921f0064
:10278c000025442640e0a66b3a000099200002f098
:10279c0071faa36c002b11d0022f00d180e0200025
:1027ac0003f00ef9002806d104f0f2fa012004b06f
:1027bc0004bc9146f0bd04f02dfaf5e7636a002bda
:1027cc0004d10028f0d004f025faede720002430e5
:1027dc0002f014fa0028e7d004f01cfae4e704f045
:1027ec00d7fa0020e3e702a804f02cfa19e0002342
:1027fc00a35520e045230022e25421e0200001f003
:10280c0009fe00f0f7fe012504f010faa36be26b51
:10281c009342b8d3022f3ad0019b002bdfd0002d6e
:10282c00e1d004f0b5fa04f06dfb04f0fff9a35d00
:10283c005bb20133dbd04523e35c5bb20133d9d00f
:10284c0004f0a6fa01a902a802f010ff002817d183
:10285c0004f0ecf9a36b9946e56b04f099faa945e1
:10286c00ccd120001030019904f016f9200001f0b1
:10287c00d1fd00f0bffe0028c5d104f0cbf9c2e7b2
:10288c00200001f0c7fd00f0b5fe00208fe7a66b1d
:10289c0002220099200002f0edf9a36c002b8dd0e0
:0828ac00002e00d080e77ae75e
:020000040000fa
:1028b400f0b5de464f464646c0b588b007008946a7
:1028c4009046444b1b78012b08d000297cd0424b06
:1028d4005b7a002b78d000243f4d5ae03e4b5b7a64
:1028e400002b71d0002431e08c2003f03dfc8346a2
:1028f4000068002868d0da230370384b1b683a015b
:102904005b689a180432364b19885b460693354b3c
:1029140005930123049300270397029001936533e1
:10292400f35c009301230020fff788fe002822d1e6
:10293400584603f0d7fc1ee02900274803f020fe88
:102944000134e4b2244b5b7aa3423dd900212248ee
:1029540002f0acfa051e37d00668002e34d03000e1
:1029640016304045e8d14b46002b04d102f006ff57
:102974000700ff28b8d1280003f0b4fce0e73100d9
:10298400154803f0fdfd0134e4b2134b5b7aa34216
:102994001ad90021280002f089fa061e14d003680f
:1029a400002b11d01a7dba42e9d11a001632904593
:1029b400e5d15b68002b03d042464946380098476e
:1029c400300003f08ffcdee708b01cbc904699464b
:1029d400a346f0bdc73b00206c3a0020603b0020ba
:0829e400a43b00201b4f000082
:020000040000fa
:1029ec00f0b585b004000191002300930025442626
:1029fc00002743e0013ba3632368002b09d0236924
:102a0c00002b0ad104f0c4f901230093009805b0ff
:102a1c00f0bd04f04ff8a060f1e72000103002f098
:102a2c00edf80028eed004f0f5f8ebe704f0b0f97f
:102a3c0000230093eae702a804f004f928e0a75564
:102a4c0030e04523e75432e004f0f0f8a06801f0e0
:102a5c00bdfd009004f09cf939e0200001f0dafc97
:102a6c0000f0c8fd09e0200001f0d4fc00f0c2fd2c
:102a7c00200004f097f9002838d1012504f0d6f88d
:102a8c00a36b002bb6d1019b002bcfd0002dd2d045
:102a9c0004f07ef904f036fa04f0c8f8a35d5bb2da
:102aac000133ccd04523e35c5bb20133c9d004f0d5
:102abc006ff901a902a802f0d9fd0028d3d120009a
:102acc0004f070f90028c8d02368002bbcd020007b
:102adc002430019903f0e0ff200001f09bfc00f092
:102aec0089fd0028c9d104f095f8c6e7009b002b9e
:102afc0000d18be704f09af8616a002903d0236bac
:102b0c001b680521c91aa06802f096f904f040f977
:062b1c00002300937ae79c
:020000040000fa
:022b2200fee7cc
:020000040000fa
:102b240070b588b0414b1b88002b05d0013b9bb28c
:102b34003e4a1380002b29d03d4b1b88002b05d027
:102b4400013b9bb23a4a1380002b23d0394b1b889c
:102b5400002b05d0013b9bb2002b1ed0354a1380bd
:102b6400354b1b88002b05d0013b9bb2002b1ad0a0
:102b7400314a1380314b1b88002b05d0013b9bb29b
:102b8400002b2cd02d4a138008b070bd2c4b002292
:102b94001a70d1e700f0ccffd8e7264b0f221a8039
:102ba400fff73efbdce7244b3c221a800024254d32
:102bb400002603e09e730134052cdbd0e0b22b68c1
:102bc40022015b689b181a7b7f2af4d99a7b002a1e
:102bd400f0d1da7bff2aedd002f0e6fbebe7174bee
:102be4000f221a808c2003f0bffa041eccd0036895
:102bf400002bc9d07a221a70124a12685268043221
:102c04001149098806901148059001250495002072
:102c140003900293019500900123fff70ffd002814
:102c2400b2d1200003f05efbaee7c0469e3b00201d
:102c3400d63a0020a63b0020a23b00202a390020df
:102c4400c43b0020603b0020a43b00202957000027
:020000040000fa
:102c5400f8b5040004f05af9404b1b68002b15d05a
:102c64003f4b1e68344238d1002c3dd0220008323c
:102c7400530702d007239a430832002a34d0394b31
:102c84001f68974233d338490c6835e0374a5307f5
:102c940020d0d11d07239943bd239b019c46624448
:102ca400531a0a003048026000214160d318083bdf
:102cb400072083432948036059601960991a5160b9
:102cc40013602b4b1960274b1960254b8022120689
:102cd4001a60c5e7bd239b01e4e700f08ffc04f014
:102ce400c7f900252800f8bd00f088fcf7e700f0dc
:102cf40085fcf4e721001c006368934202d2236838
:102d0400002bf7d1154b1b68a3421ed00d68083564
:102d140023680b6063689b1a102b19d86368ff1a29
:102d2400104a1760124a1268974201d2104a17607b
:102d34001e436660002323600e4a13680133136048
:102d440000f05cfc002dcdd1c9e700f057fcc6e7cc
:102d5400a0184360626002f0bbfddfe7043b002083
:102d6400083b00200c3b0020b03a0020000000206b
:082d7400103b0020143b00207d
:020000040000fa
:102d7c0000b583b06b4601225242da80314b0022ff
:102d8c001a70314b01321a70304b314a1a8003f0f1
:102d9c008bfb304b1b78ff2b39d16b46981d03f006
:102dac006dfb2a4803f054fb2b4a2c4b1b781b0160
:102dbc0011780b431370fa22294b197801239200d6
:102dcc00284802f0fbfb431c06d0274b64229a6078
:102ddc00633a1a73254a1a610a21254804f0aff8a0
:102dec000a21244804f0abf80a21234804f0a7f880
:102dfc000a21224804f0a3f80a21214804f09ff884
:102e0c00114b1b78072b07d0002003b000bd1149d4
:102e1c00002003f067fdc0e71a4b1b78012b0ad08a
:102e2c00194b1b88002b02d1174b0f221a80174b02
:102e3c0000221a70e8e7164b3c221a80154b2d3aeb
:102e4c001a80e1e7a83b0020c53b0020a43b0020f2
:102e5c00341200000f3c00200e3c00200d3c0020e2
:102e6c00ba3b0020252b0000f03900200948000057
:102e7c006c3a00209c3a0020903a0020843a0020c2
:102e8c00783a0020c73b00202a390020bf3b0020a5
:082e9c00a23b0020a63b002030
:020000040000fa
:102ea400f0b5c64600b582b03a4b1b68002b65d11d
:102eb400394b1a68013290461a60002a18d0374bf1
:102ec4001b68434521d900230193354b1b68da6afb
:102ed40093009b189b00334a9b58012b01d9012373
:102ee4000193314b1b68002b4ed0012301934be01f
:102ef4002e4a11682e4b1868106019602d4a136809
:102f04000133136003f07cfad9e700230193274ec1
:102f1400370033681b68002b28d03b68db68dc680b
:102f24006368984527d3251d280003f004fca36a91
:102f3400002b03d02000183003f0fdfbe36a1e4a87
:102f44001268934201d91c4a13609800c01880008b
:102f5400144b1818290003f0d6fe114b1b68e26ac3
:102f6400db6a9a42d5d301230193d2e70b4b0122aa
:102f740052421a60a9e7094a1360a6e70f4a136888
:102f84000133136000230193019802b004bc9046fe
:102f9400f0bdc046303b0020503b0020403b0020a9
:102fa4001c3b002004370020543b0020203b002021
:102fb400243b0020443b0020383b0020483b0020b9
:020000040000fa
:102fc400f0b583b00d0016001c003f4b1b780422a3
:102fd40093430022012b02d0100003b0f0bd3a4b02
:102fe40002321a7001283fd0002808d0022864d089
:102ff4000120a047344b01221a700022ece76b46f3
:1030040000225a716b46981d01235b4203802f4da9
:103014002f4b2b8003f036fa280003f01dfaf30738
:103024000dd46b4659790131c9b2012200e019006f
:1030340052004b1cdbb23242f9d06b4659716b46dd
:10304400591d002003f052fc224b01221a701e4b22
:1030540006321a70204b35321a80204b2d3a1a80d2
:103064000020a0470122b7e76b46981d01235b426d
:103074000380164f164b3b8003f004fa380003f02c
:10308400ebf96b46053300222900300000f0e4fc24
:1030940001a90870002003f029fc0e4b01221a70cc
:1030a400094b06321a700c4b35321a800b4b2d3af1
:1030b4001a800020a04701228ee70120a047024b7e
:1030c40001221a70002287e7c53b0020a43b0020a0
:1030d40034120000c73b0020a23b0020a63b002086
:020000040000fa
:1030e40010b50b00072800d171e012d9502846d042
:1030f40021d9572800d174e029d9592800d175e085
:10310400f02830d108223c49180003f08bfe00203f
:103114001ce003284ed006d8012838d045d8364aba
:10312400d27c0a7012e0052849d055d8324a127e62
:103134000a7000200ae04e2817d01bd80b2804d1af
:103144002d4a927d0a70002000e0892010bd53288a
:1031540007d12949087b4a7b120202431a800020c6
:10316400f4e78920f2e78920f0e7234a127d0a7008
:103174000020ebe7204a527d0a700020e6e71e4952
:10318400887bca7b120202431a800020dee71a48b9
:10319400027a417a09021143827a12041143c27af3
:1031a40012060a431a600020d0e7134ad27d0a703f
:1031b4000020cbe7104a927c0a700020c6e70e4933
:1031c400087c4a7c120202431a800020bee70a4aa5
:1031d400927e0a700020b9e7074a527e0a700020e6
:1031e400b4e7054ad27e0a700020afe7024a127f94
:0c31f4000a700020aae7c0460c39002039
:020000040000fa
:1032000070b52b4b06225a6001f0bef801f06ef843
:1032100003f0a2fe02f0d8fe01f03afb02f016fe27
:103220002449002000f0ecfc234b1860234c244b75
:103230002360244b6360244ba360244be360244b46
:103240002361244b6361244ba361244be361244b32
:103250002362244b6362244ba362244be362244b1e
:103260002363244b6363244ba363244be363244b0a
:103270002364002314220121224802f0f3f80023e2
:1032800014220121204802f0edf8204d04224021b3
:10329000280003f095fc2900200003f06df803f0ee
:1032a0001dfc02f039f902f037f9fff771f870bd33
:1032b0000040004104700000f03a0020583800201f
:1032c000156b0000796b000065540000f567000085
:1032d000916b000015620000636e0000c16b00007e
:1032e0003d6800004962000061680000756e0000e2
:1032f000376d00004b6d0000c96c0000d56f0000f9
:10330000dd6f0000e83a0020ec3a0020e43a0020ab
:020000040000fa
:1033100030b589b00400394b00221a701e236b446b
:10332000013a1a80364803f057fd3648047436498e
:10333000fff724fd0f2846d00022002302920393ba
:10334000324d0832290002a803f0d6fb0400012206
:103350005242d317029203930932290002a803f0c4
:10336000cbfb002801d0002c36d1082104a802f0a4
:1033700037fc002807d104a9f030fef7d9fa04a9d8
:10338000f020fff7affe002003f026fb20490020cd
:1033900003f0aefa041e2bd01d4c2078002102f061
:1033a0003cfb1c4b00221a7020781b4b009300231f
:1033b0001e326a44022101f06bff441ea041c4b2d8
:1033c000200009b030bd154b1878431e9841c0b29b
:1033d00003f021fb0124f3e708220c4904a803f0c1
:1033e00023fd04a9f020fef7a3fa0028c7d0cae7fe
:1033f000074b187803f09df8e2e7c046b73b002082
:10340000d1560000ec3b0020ac3b0020003c0020eb
:10341000c93b0020b83b0020c55d0000c73b002031
:020000040000fa
:10342000f0b5c64600b584b00400009101920027b3
:1034300044260023984638e00099200003f034fa2f
:103440006b1ea3632369002b06d103f0a7fc0120a8
:1034500004b004bc9046f0bd2000103001f0d4fb55
:103460000028f2d003f0dcfbefe703f097fc00202c
:10347000eee702a803f0ecfb21e04346a35528e069
:1034800045234246e25429e0200000f0c9ff00f045
:10349000b7f809e0200000f0c3ff00f0b1f8200009
:1034a00003f086fc002835d1012703f0c5fba56b8e
:1034b000002dc1d1019b002bd7d0002fd9d003f014
:1034c0006dfc03f025fd03f0b7fba35d5bb2013398
:1034d000d3d04523e35c5bb20133d1d003f05efc73
:1034e00001a902a802f0c8f80028d3d1200003f0f7
:1034f0005ffc0028c8d020002430019903f0d2fae4
:10350000200000f08dff00f07bf80028ccd103f004
:0835100087fbc9e700209be7df
:020000040000fa
:10351800f8b5374c656b63689b699847606160696b
:1035280003f0a0faa66ae76a0023020092197b4119
:10353800a262e362002d51d02d4c3022a35c0133ee
:10354800a35402f02bfe646b002c06d0a368002b5a
:1035580003d101250027264e11e0264d00242e0018
:1035680021e0e06902f0aefce368002b01d020699d
:103578009847746b002cf0d0a368002bedd125750b
:103588006575a378002b02d1e368002be9d12000f0
:1035980001f0eafda378002be6d16770e4e7013477
:1035a8002035052c15d06301f3185b7d002bf6d070
:1035b8006201104b9b1800225a75ab78012beed193
:1035c80061010c4b59186b688b60280000f0faf801
:1035d800e5e7074930228b5c013b8b5403f002fd81
:1035e800040000f02dfc200003f000fdf8bdc046eb
:0835f800a0380020fc35002082
:020000040000fa
:10360000f8b5ce46474680b503f016fb2e4b1a6838
:10361000013a1a601b680024002b03d12b4b1b6856
:10362000002b06d103f0bafb20000cbc9046994653
:10363000f8bd0024264eb046264f274b99463368e6
:10364000002b22d04346db68dc682000183003f0f2
:1036500074f8251d280003f070f8e36a3a68934275
:1036600001d91c4a13609800c01880001b4b181821
:10367000290003f04afb1a4b1b68db6ae26a9a4294
:10368000ddd301234a461360d9e7002c01d002f0b4
:10369000b9fe144b1c68002c0ed00f4e012502e021
:1036a000013c002c05d0fff7fdfb0028f8d0356069
:1036b000f6e70c4b00221a60074b1c68002cb1d0b7
:1036c00003f0aefa0124ade7303b0020283b002098
:1036d0008c390020383b0020543b00200437002068
:0836e0001c3b0020483b0020c8
:020000040000fa
:1036e800f0b5060085b00f0015001c008b4265d8a8
:1036f80001d1824262d82100280003f0d5fa3900ae
:103708000090300003f0d0fa009b21001b1a1a0029
:103718002800039303f0bcfa00900191019bbb427f
:1037280046d802d1009bb34242d8009b019c039a21
:1037380001200021f61aa74103f0aafa039b002be7
:103748002fd0019b009adb0754081c43019b5d089e
:10375800039b9c46bd422ed801d1b4422bd83200df
:103768003b00121bab41012692185b410027b6189b
:103778005f4101235b429c446346002bead18019d8
:103788007941039a04000d003000390003f074faff
:10379800039a06000f0003f07bfa241a8d412000db
:1037a80029000a9b002b01d01e605f6005b0f0bda8
:1037b80000200021c2e7b6197f41dae70020002186
:0237c800efe729
:020000040000fa
:0237ca00fee718
:020000040000fa
:1037cc00f0b5de4657464e464546e0b585b08146d7
:1037dc00002854d0304b596b83689a4600290cd082
:1037ec008b6852460392002290469a4549d3002298
:1037fc0000238b460092019306e052468260264bd2
:10380c005863012034e0e3465e46b6683400002578
:10381c00009a019b12196b41009201935e46b669a6
:10382c00b446002e12d06646b66800210f00009aee
:10383c00019bb6185f41474529d8e4d1039b9e42b2
:10384c00e1d960465946009a019b01e03000594687
:10385c004c46a0618c61002051468a1a4b469a60f6
:10386c009b69002b04d04a4691689a68521a9a6058
:10387c0005b03cbc90469946a246ab46f0bd002034
:10388c00f6e7054b5863816100220120e4e76046ae
:0c389c005946009a019bdbe7a038002091
:020000040000fa
:1038a800f0b5c64600b582b001902e4b1e682e4b6f
:1038b8005f687568ff23984600240ae0291d3800d0
:1038c80002f04aff002848d10134e4b21035052c33
:1038d80007d02b7b7f2bf1d84346ff2bf4d1a04692
:1038e800f2e700244346ff2b3ad0204b1b78002bed
:1038f8002ed11f4b42461a70100100221a4f7b68c6
:10390800995c73681b189b1819710132082af6d143
:1039180073681b18197b883a0a431a7373681b1853
:1039280001210122019d2a401d7b8d4315431d73f2
:1039380073681b1899730c4b9b68da7873681818ae
:1039480042730c4b42461a7002f06efd0a4b187017
:10395800200002b004bc9046f0bda0460124c1e797
:10396800f124f5e7603b0020383a00200d3c0020a8
:0c397800bc3b0020bb3b0020be3b0020fd
:020000040000fa
:1039840070b50400002927d02c4b1b7f0422f021a2
:103994002c2002f009ff012c34d9284b1b7d012275
:1039a4000e212c2002f000ff1920fef7c7f8192879
:1039b400fad1234b186801780139c9b201f046fbea
:1039c400204b01221a70204c80256d03a561012033
:1039d40003f0b8f8656170bd00230422f0212c20a7
:1039e40002f0e2fe012cd8d8072301220e212c205c
:1039f40002f0dafe13e0154802f085fd114b0022b7
:103a0400da70d1e7072301220e212c2002f0ccfe2c
:103a14000a4b1a7f0e4b1a700e4b01221a70012c9e
:103a2400c2d1084bdb78122be5d8002bbcd09720f1
:103a340002f069fd034b0022da70b5e70c3900206f
:103a4400d83a0020483900200044004157020000c1
:083a5400ad3b0020ae3b002059
:020000040000fa
:103a5c00f0b5de4657464e46c0b584b007000d00a3
:103a6c001100019299462d4b00221a7000294cd15d
:103a7c0002abda71f0208000a840f0239b009c463a
:103a8c0060440001264900f02ffe013083b29a46b3
:103a9c00ff239b4600931fe0dcb23378002b08d049
:103aac002900012003f036f9231c8442f4d2031cb4
:103abc00f2e75c4508d202ab07331b7800934b4608
:103acc00002b20d01c70a34602abda1ddb7901332e
:103adc00dbb213701f2b1ad803f0b2fa02abda79ef
:103aec00012393403b401842eed002abd91d00207d
:103afc0002f0f8fe0b4b52461a80084b01221a704a
:103b0c00019c1e00cce7a346dee7ff230093009840
:103b1c0004b01cbc91469a46a346f0bdc43b0020a1
:083b2c0040420f009e3b002007
:020000040000fa
:103b340010b588b02a4bdb78002b03d0294b1b78b7
:103b4400042b11d0264b5878062801d000283ad1ee
:103b5400244b07221a70224bdb689847204b002223
:103b6400da60042008b010bd8c2002f0fdfa041eb7
:103b740031d00368002b30d081221a701a4a12788f
:103b84005a701a4a12789a70194a1268d2681278ce
:103b9400da70184a11880690174a05920122049295
:103ba400002203920293042301930092033b012019
:103bb400fef744fd03000020002bd3d1200002f0c7
:103bc40091fb0120cee7064b9978064a1170db6819
:103bd40001209847c2e70a20c4e70a20c2e7c0468a
:103be400183a0020c53b00200f3c00200e3c00206a
:0c3bf400603b0020a43b0020156900008d
:020000040000fa
:103c000070b50d1e4cd000284dd12848383002f038
:103c10008eff012802d00120404246e02b68234c51
:103c20006360db689847e0600026c822002300211b
:103c300002f0eaf81e4a002302f088f9022200236b
:103c40008018594120620423eb5623722661194bd8
:103c5000a361194be36100220023a262e362666361
:103c60003023e65463681b68002114489847636852
:103c70001b69002b02d00d4a108b98470b4ce06952
:103c800080b263685b69984763685b689847a02265
:103c900000210b4803f0d2f802232370200004e037
:103ca0000120404201e00120404270bda0380020c8
:103cb000006cdc02ffff0000ff7f000019350000f0
:043cc000fc350020af
:020000040000fa
:103cc40010b52a4b1b68002b03d0294b01221a6024
:103cd40010bd274b00221a60264b1b681b6b264a1b
:103ce4001968914202d1596891422fd0214b18682a
:103cf4001968343102f0c0fa204b1b689a00d218bc
:103d040092001f495258002a06d1013b9a00d2184a
:103d140092005258002af8d019489a00d118890004
:103d240041184c6864684c60d218920008328218ba
:103d3400944212d09a00d218920011498a185268fb
:103d4400d1680c4a11600d4a1360c1e79968914229
:103d5400ccd1db689342c9d1cee760689a00d2180f
:103d6400920007498a185060e4e7c046303b0020bf
:103d7400543b00201c3b0020a5a5a5a5383b0020f2
:043d840004370020e0
:020000040000fa
:103d8800f0b583b006000d0001921f0008ab1c7847
:103d980002f052f9002845d0244b1b785bb2022b65
:103da80006d00124644202f039fc200003b0f0bdc3
:103db800002d31d0b54232d31d4b1b78002b0bd0d0
:103dc8001c4b01221978002908d001322033052a1a
:103dd800f8d101246442e6e70022154b012119704d
:103de80000215970197559759c705d600199d960e9
:103df8001f61ad1b9d60104909881404240c0a0436
:103e08001443dc61013189b20c4a914202d00a4a5a
:103e18001180c8e70121fae701246442c3e70124bd
:103e28006442c0e701246442bfe7c046a0380020ce
:103e3800fc3500201c360020ca3b0020ffff000094
:020000040000fa
:103e4800f0b5c64600b52a4b5a6b59691961002a64
:103e580042d09168274b994234d9254b5b6900259c
:103e68001c00244a0023a4185d41214b98465b6836
:103e78009b6998470027060043461b69834203d97c
:103e88001d4a0023b6185f41194b196a00230a001e
:103e980092197b41ab4202d827d1a24225d98e196b
:103ea800134bde61124bdb691b0402d1104b01225c
:103eb800da610f4bd86980b25b685b69984704bccc
:103ec8009046f0bd91680a4b5b6900251c000023f1
:103ed8000a00a4185d41c8e7054b5b6900251c0072
:103ee800044a0023a4185d41bfe7014bdc61d9e710
:0c3ef800a0380020ff7f0000ffff00004a
:020000040000fa
:103f0400d61b0000461c0000141c0000621c0000ac
:103f1400141c0000be1b0000ea1b0000141c00005f
:103f2400141c0000141c0000141c0000141c0000cd
:103f34008a1b0000141c0000141c0000141c000048
:103f4400141c0000141c0000141c0000ac1c000015
:103f5400141c0000141c0000f81c0000461c000087
:103f6400141c0000621c0000141c0000be1b000096
:103f7400ea1b0000141c0000141c0000141c0000a8
:103f8400141c0000141c00008a1b0000141c0000f8
:103f9400141c0000141c0000141c0000141c00005d
:103fa400141c0000ac1c0000141c0000141c0000b5
:043fb400f81c0000f5
:020000040000fa
:103fb800f0b58bb00500099117000021234800f0e7
:103fc80073ff061e19d00468002c16d06368002bf6
:103fd80006d0a27c012a03d03a0009992800984704
:103fe800e37c002b06d02000163001f0c5fb04004e
:103ff800ff2804d1300002f073f90bb0f0bd8c201b
:1040080002f0b0f8051ef8d00368002bf5d0da22cc
:104018001a700f4a126824015268121904320d49a5
:10402800098806900c480590012004900024039408
:1040380002930190009001230020fef7fdfa00286a
:10404800d8d1280002f04cf9d4e7c0469c3a0020a9
:0c405800603b0020a43b00201b4f000038
:020000040000fa
:1040640070b50500254b1c78002c09d05c780f3cfa
:1040740063425c41644204239c438634200070bd47
:10408400002002f033ff0420fdf758fd0f2000f05c
:104094006bfe012307228021152002f085fb1023eb
:1040a4000022ff210e2002f07ffb002002f016ff09
:1040b4000620fdf743fd062814d1104b04221a7084
:1040c400ff21072000f028ff0d4b00221a70f02377
:1040d4009b00ab40f022920094466344db08094afb
:1040e4001360cbe7002307228021152002f05cfb3c
:1040f40008210e2000f010ff8524bfe74839002076
:08410400ab3b0020e03a002073
:020000040000fa
:10410c00f0b583b000221f21012002f09bfe08288d
:10411c0001d003b0f0bd073000f022fe0e2000f0fd
:10412c001ffe019001210e2000f0f2fe002002f093
:10413c00d9fe0921022000f0ebfe02f0fafe040089
:10414c00154fa0260125bb591d4216d102f0f1fed8
:10415c00001bfa28f7d91a2000f002fe054208d0fd
:10416c00a843c1b21a2000f0d3fe02f0e2fe040014
:10417c00e9e701210143c9b2f4e70f2000f0f0fd9b
:10418c00064b01221a61002002f0a4fe01990e20b8
:10419c0000f0befebde7c0460044004100180040e0
:020000040000fa
:1041ac00f8b51f4e1f4c23689d6800231422012173
:1041bc003000a8471c4d23681b6b1c212800984716
:1041cc0023685b6b29001948984723685b6b2900af
:1041dc0030009847164b174a1a60134e164c114f65
:1041ec00124d07e00f4b1b68db6800210c48984709
:1041fc0002f01eff3b689b6b104a31002000984771
:10420c002368074a12689342ecd02a689342f1d192
:10421c00044b1b689b6a0022054904489847e9e750
:10422c00803b0020783b0020883b0020743b002022
:10423c007c3b0020d03a0020843b0020ffff000094
:020000040000fa
:10424c00f0b585b00600029103921c0002f0e8fe66
:10425c000190b36bf26b934208d30025022c05d06e
:10426c00019802f0fbfe280005b0f0bd4523f55c7b
:10427c006db2b76b22000299300000f0fbfc6b1c96
:10428c0005d001356db24523f5540125e8e7b36c33
:10429c00002b10d0022c02d10235002fe0d13000bf
:1042ac0001f08efb01250028dad0039a002a12d0e7
:1042bc0001231360d4e7736a0125002bd0d03000a2
:1042cc00243000f09bfc0028cad0039a002a04d0aa
:0e42dc0001231360c4e70125c2e70125c0e7f6
:020000040000fa
:0242ea00fee7ed
:020000040000fa
:1042ec001d4b00229a619a8c80218a439a841a0071
:1042fc001023d1680b42fcd0184b1b689b0e3f2b34
:10430c0027d09b02802292001343134a93621023fe
:10431c00d1680b42fcd0104b02229a841a00102355
:10432c00d1680b42fcd00e4b0e4a5a601a005378df
:10433c005bb2002bfbdb0a4b0b4a5a800b4a5a80b0
:10434c000b4a5a800b4b0c4a1a62034b00221a621e
:10435c007047203bd5e7c046000800402460800031
:10436c00000c004000070100054000001840000050
:0c437c001b40000000040040400801004d
:020000040000fa
:1043880070b5234b802252031a6012021a61012170
:10439800442299540132995402200532985401322a
:1043a8009854002254241a554f3c5c255c552a3dec
:1043b80033265e5503355a5505355a5504355a5531
:1043c8004235144e5e51403559550f355a55013511
:1043d8005855013558550d35595501355a552f3d04
:1043e8005a5507355a5501355a5507355c554c34d9
:1043f800ff3418555130ff3019545420ff301954e8
:104408003831ff315a543a22ff32e339995470bd9a
:08441800004400410080008017
:020000040000fa
:1044200070b5050002f008fc4523ec5c64b2002c7a
:104430001cdd2e0024360be06b6a002b16d03000fa
:1044400000f0e2fb00280ed1013c64b2002c0dd03c
:10445000ab6c002bf0d0280001f0b8fa0028f3d0a4
:1044600002f098fdf0e702f095fdede74523ff220d
:10447000ea5402f093fc02f0dffb4423ec5c64b2ec
:10448000002c04dd2b692e001036002b0ed14423a6
:10449000ff22ea5402f082fc70bd02f07bfd013c79
:1044a00064b2002cf3d02b69002bf0d0300000f068
:0844b000abfb0028f3d0f0e79c
:020000040000fa
:1044b80070b5224da97b222000f02cfde97b23203a
:1044c80000f028fd24242978200000f023fd013580
:1044d8000134e4b22c2cf6d1184c217b202000f0ba
:1044e80019fd617b212000f015fda37c05226021c8
:1044f800082002f057f9637d00220f212f2002f0d7
:1045080051f9a37d032208212e2002f04bf9e37e06
:104518000422f0212f2002f045f9e37c00221f211c
:10452800082002f03ff9e07d01f074fa0300002250
:104538000f21052002f036f970bdc0460c39002065
:020000040000fa
:1045480030b583b080256d00184c194b01930423b6
:10455800009300232a0021001648fdf7f1fb2100f3
:104568000c31154b01930523009300232a001348af
:10457800fdf7e6fb6d0021001831114b0193032371
:10458800009300232a000f48fdf7dafb21002431ad
:104598000d4b01930123009300232a000b48fdf7dc
:1045a800cffb01f0bdf903b030bdc0464863000041
:1045b800fc3a002025700000003b00201d70000020
:1045c800f83a00200d700000f43a00201570000041
:020000040000fa
:1045d80070b5041e3cd0c26a1e4b1b68db6a9a4247
:1045e8002ed28369002b05db1a4b1b68d96a052379
:1045f8005b1a836193009b189b00174ad318626962
:104608009a4205d0134b1b68db6ae36201201ee067
:10461800251d280002f08df80e4b1b68db6ae3624b
:104628000e4a1268934201d90c4a13609800c018c8
:104638008000094b1818290002f063fb012006e0ee
:10464800044b1b68406cdb6a98428041404270bd55
:104658000020fce71c3b002004370020383b0020ea
:020000040000fa
:1046680070b5002817d01c4b07221a701b4b1b78fb
:10467800002b07d01a4b1b78002b03d0164b1b7846
:10468800052b10d0174b02221a70013a9a7000209d
:1046980001f04cff70bd0522e021022002f0d4fb9e
:1046a8000d4b1870e2e71920fdf746fa1928fad1e0
:1046b8000d4c80256d03a561183802f041fa65613b
:1046c800074a1378013bdbb21370002be2d1034b8e
:1046d80000221a70dee7c046af3b0020ae3b002048
:0c46e800ad3b0020483900200044004198
:020000040000fa
:1046f400002934d00123002210b488422cd3012491
:104704002407a14204d2814202d209011b01f8e725
:10471400e400a14204d2814202d249005b00f8e7de
:10472400884201d3401a1a434c08a04202d3001b0a
:104734005c0822438c08a04202d3001b9c0822433d
:10474400cc08a04202d3001bdc082243002803d07b
:104754001b0901d00909e3e7101c10bc704701b51f
:10476400002002f089fc02bd0029f8d003b5fff750
:0c477400c1ff0ebc4243891a1847c04622
:020000040000fa
:1047800070b504001e4d80235b036b61d22002f0e4
:10479000dbf9802636029423ee500a2002f0d4f989
:1047a0009823ee50642002f0cff900221f2101204f
:1047b00002f04efb0a2508280dd0642002f0c4f94f
:1047c00000221f21012002f043fb013dedb2002d2c
:1047d000f1d1852070bd0b4b08225a7000f0daf839
:1047e00000f0fafa002c07d1fff766fe054b002215
:1047f0001a709a700020ede701f018f8f4e7c0464f
:0848000000440041483900208a
:020000040000fa
:10480800f8b51e4b5b7a002b2cd000251b4c2700db
:1048180008e03100194801f0b1fe0135edb27b7aac
:10482800ab421cd90021200000f03efb061e18d028
:104838000168002915d00b7c002bead0013bdbb2c4
:104848000b74002be5d14b68002b04d00a001632fc
:10485800087d03219847300001f042fddde7002b79
:1048680000d0f8bd064c206801f04cfb054b002237
:104878001a70206801f026fbf3e7c0466c3a002066
:08488800643b0020c03b00204e
:020000040000fa
:1048900010b51e4a137801210b43137053785bb295
:1048a000002bfbdb194901238b610233cb6102230f
:1048b000ff33cb60164b00221a7210321a7520207b
:1048c0001a540c301a540c301a540c301a540c3040
:1048d0001a540c301a540c3008241c540c301a543e
:1048e0000c301a540c301a540c301a540c301a5420
:1048f0000c301a540c301a540b78022213430b70ec
:104900000a0053785bb2002bfbdb10bd001800409f
:044910003c35002012
:020000040000fa
:1049140010b51c4b9b78002b12d01a4b1b7802222b
:1049240093430dd1184b1b68002b14d0154b002258
:104934009a701620fdf702f902f07af81628f8d1d9
:10494400124b5b7a002b0ed10e4b1b78022b13d02b
:10495400052b14d010bd8c2001f006fc0a4b186006
:104964000028edd0e2e70021084800f09ffa002873
:10497400ead001f0bff9e7e701f0def9eae700f079
:10498400fbffe7e748390020dc3a0020483a0020e2
:020000040000fa
:1049940070b5162000f0e8f90500c121162000f0da
:1049a400bbfa002002f0a2fa0620fdf7c7f8062899
:1049b400fad10023072280210f3001f0f5fe0826ea
:1049c400002405226021062002f040faa400a4b2cb
:1049d4000443a4b2012002f0b5f8013ef6b2002e61
:1049e400efd10320fdf7aaf80f2000f0bdf9074b23
:1049f40001221a61002002f071fa200002f0d4fab8
:104a04002900162000f088fa70bdc0460018004046
:020000040000fa
:104a140020b2202020b22020b220b220202020204a
:104a2400b220b20d0ab220b220b220b2202020b2ad
:104a34002020b22020b220200d0ab22020b2202053
:104a4400b220b220b22020b22020b220b20d0ab28d
:104a54002020b22020b220b22020b220b220b220e6
:104a640020b20d0ab22020b22020b220b220202091
:104a7400b220b2202020b20d0a20202020202020a5
:104a84002020202020202020202020200d0ac04685
:020000040000fa
:104a940030b583b01a4b1b68002b24d01d686b46bd
:104aa400dc1d0121200000f001fb2178154bd97099
:104ab4004bb2002b15db0331c9b26c1a8c342000c5
:104ac40000f0f4fa6c600e4c21680f4801f058fdb8
:104ad4008c2001f049fb206000280ad0002001f05e
:104ae40027fd03b030bd01216b46981d00f0defaae
:104af400f7e70930fdf722f8024b01229a70ede73f
:0c4b0400dc3a002048390020483a00202c
:020000040000fa
:104b100070b504000d00174b1e68174b1868043061
:104b200001f00bfe631c0dd03419134b1b685c6045
:104b3000a64210d9114b18680f4b1968043101f0c7
:104b400033fc70bd002defd00b4b196804310c48bd
:104b500002f0dbf8f5e70b4b1868074b19680431d6
:104b600001f022fc084b1b68a342ead9064b1c60eb
:104b7000e7e7c046503b00201c3b0020243b0020c0
:0c4b8000a0390020203b0020403b00201a
:020000040000fa
:104b8c00f8b504000e0002f04bfa0500a26b0027ea
:104b9c00e36b93420bd94523e35c5bb20132a26316
:104bac005a1c09d001335bb24522a35401272800bb
:104bbc0002f054fa3800f8bda36c002b0ad0200088
:104bcc0000f0fefe01370028f1d0002e11d0012399
:104bdc003360ece7636a0127002be8d02000243017
:104bec0000f00cf80028e2d0002e04d00123336032
:0a4bfc00dde70127dbe70127d9e719
:020000040000fa
:024c06007047f5
:020000040000fa
:104c080070b5c368dc6825001835280001f091fdef
:104c1800134b1b68002b1ed1251d280001f089fdb0
:104c2800e36a104a1268934201d90e4a1360980049
:104c3800c01880000c4b1818290002f062f80b4bc2
:104c48001b68e26adb6a00209a4203d9084b0122fa
:104c58001a60013070bd2900064802f052f8eee7ec
:104c6800303b0020383b0020043700201c3b00204c
:084c7800543b00208c390020a0
:020000040000fa
:104c800070b504001600856b026c002a0cd1002060
:104c90002368002b02d00135a56370bda06800f029
:104ca000c7fa0023a360f6e7002e0ed1406802f099
:104cb000bbf86368226c9446634463603000a2686a
:104cc0009342e8d323686360e5e7c06802f0acf87c
:104cd000236c5a42e3689b18e36021688b4203d23d
:104ce000a3689c466244e2600020022ed3d1002dce
:064cf000d1d0013dcfe729
:020000040000fa
:024cf600704705
:020000040000fa
:104cf800f8b50a21164802f024f90321154802f0f4
:104d080020f9154d154c27005037114e256021000c
:104d1800300001f033fc8c350834bc42f6d10f4c1e
:104d28000f4d2565210050310a4e300001f026fc58
:104d38002b002c33a36521005831300001f01efcf4
:104d48005835256621006031300001f017fcf8bda8
:104d5800543a0020603a0020402f00209c36002062
:044d6800b83400203b
:020000040000fa
:104d6c0010b584b06b46dc1dd871002002f0baf887
:104d7c00227880235b4213432370134a94238021af
:104d8c000906d15001f020fc0028fbd101216b4613
:104d9c00d81d02f0e1f801f017fc0028fbd101212d
:104dac000e30684402f0a6f801f00efc0028fbd18e
:104dbc00054a982380210906d15002f08bf80e2366
:0c4dcc006b44187804b010bd0044004196
:020000040000fa
:104dd80010b5002303220821032001f0e3fc01237e
:104de80000220721032001f0ddfc01f039ff040057
:104df800c1b22d2000f08ef8a3b21b0a00220721b1
:104e08002e2001f0cffc01230622c0212e2001f024
:104e1800c9fc0123052220212e2001f0c3fc012317
:104e2800072280210c2001f0bdfc08210e2000f093
:0c4e380071f8ff21162000f06df810bd8d
:020000040000fa
:104e440070b5041e09d0436c8b4200d20b00e26a99
:104e54009a4202d0a16c012900d070bde362a1691d
:104e6400002902db0521cb1aa36193009a18920052
:104e74000c4b9a1863699342efd1251d280001f069
:104e84005afce36a084a1268934201d9064a13603d
:104e94009800c0188000034b1818290001f033ff54
:0c4ea400dbe7c04604370020383b00204c
:020000040000fa
:104eb000f8b505000e00437a002b17d004680029ce
:104ec00026d0002c0cd0270000e01c007168206860
:104ed0003368984700280bd163682700002bf4d172
:104ee000002413e06f600be06b600fe000240de026
:104ef0002b68a3420ed063687b606b68a342f1d03d
:104f00006b7a013b6b722b68002bedd02000f8bd53
:0a4f1000271efbd063682b60efe75b
:020000040000fa
:024f1a007047de
:020000040000fa
:104f1c0010b582b06b46dc1dd8719971002001f080
:104f2c00e1ff227840235b4213432370114a942300
:104f3c0080210906d15001f047fb0028fbd101214b
:104f4c006b46d81d02f008f801f03efb0028fbd19f
:104f5c0001216b46981d01f0ffff01f035fb002885
:104f6c00fbd1044a982380210906d15001f0b2ffed
:084f7c0002b010bd0044004129
:020000040000fa
:104f8400f0b5c64600b5144b9846144f144e1d0098
:104f940043461b68002b17d001f04cfefb68dc680d
:104fa400201d01f0c8fb3368013b33602b68013bd3
:104fb4002b6001f0f1fe206b00f030fb200000f0cc
:104fc4002dfb2b68002be7d1064b1b68012bdfd987
:104fd40001f024fedce7c0462c3b0020b43900205d
:084fe400283b002004370020e7
:020000040000fa
:104fec0070b504000d0001f021fe2268216ce36b0a
:104ffc004b43d018a0600020a06362605b1ad318ea
:10500c00e360ff234422a3540132a354002d0fd19b
:10501c002369002b03d101f0bbfe012070bd2000e1
:10502c001030fff7ebfd0028f5d001f0f3fdf2e7af
:10503c002000103001f058fe2000243001f054fe06
:02504c00e9e792
:020000040000fa
:02504e007047a9
:020000040000fa
:1050500030b583b004000d00002001f049ff134a71
:10506000942380210906d1506b466022da7101f049
:10507000b1fa0028fbd101216b46d81d01f072ff67
:1050800001f0a8fa0028fbd12900200001f06afff6
:1050900001f0a0fa0028fbd1044a982380210906d8
:1050a000d15001f01dff03b030bdc04600440041a7
:020000040000fa
:1050b00030b583b004000d00002001f019ff134a41
:1050c000942380210906d1506b462022da8001f01a
:1050d00081fa0028fbd101216b46981d01f042ffa7
:1050e00001f078fa0028fbd12900200001f008ff28
:1050f00001f070fa0028fbd1044a982380210906a8
:10510000d15001f0edfe03b030bdc0460044004177
:020000040000fa
:10511000f8b50024144d154e03e037610134102c0e
:1051200020d063001b199b00eb181b7adbb2e1b2a5
:105130008b42f3d133690127a7401f42eed06300b1
:105140001b199b0008495b58002be6d00800630040
:1051500019198900411849681b199b001b58080040
:105160009847dae7f8bdc0463c35002000180040fb
:020000040000fa
:1051700010b5164b5a6b002a24d0824205d18369a0
:10518000002b17d0002208e01a009369002b1bd0d7
:105190009842f9d18369002b05d084689968091970
:1051a0009960002a08d083699361002300228261fc
:1051b000180010bd1a00f4e7044b5a6b92695a6349
:1051c0000123f3e70023f3e70023f1e7a0380020f1
:020000040000fa
:1051d00070b5040000f034ff002825d0200000f056
:1051e00055fe041e1ed043780025002b12d1836883
:1051f000002b01d1436883600c4a3023d35c002b21
:105200000cd1200000f0b4f900232375637501333d
:105210006370002501f006fa280070bd2000fef73b
:10522000d5faf1e70125f5e70125f5e7a0380020db
:020000040000fa
:1052300070b5041e23d0836c013b8364c26a416c49
:105240008a421ed00020002b00d070bd251d2800f2
:1052500001f073fa606ce06205231b1aa3610a4b2c
:105260001b68984201d9084b186083001818800009
:10527000064b1818290001f048fd0120e5e7002041
:10528000e3e70020e1e7c046383b00200437002078
:020000040000fa
:1052900070b582b016006b46d871124b1c78002c8a
:1052a00002d1200002b070bd0f4b00221a700f4dca
:1052b000069beb602970281d0a00310001f0b4fd47
:1052c000ac7008236b70053beb70064b04221a7020
:1052d0006b46d91d002001f00bfbfef72bfc0400f0
:1052e000dfe7c046c53b00200d3c0020183a0020f7
:020000040000fa
:1052f00030b589b005008c2000f038ff041e1bd0ab
:105300000368002b18d082221a700e4a12682d01f1
:105310005268521904320c49098806900b480590ce
:10532000012504950020039002930195009001232c
:10533000fdf786f9002801d009b030bd200000f04b
:10534000d3fff9e7603b0020a43b00201b4f000087
:020000040000fa
:1053500010b5114b1b78002b08d00f4b1b78013375
:10536000dbb2022b14d80c4a137010bd0b4b0c4847
:105370001861fa2292009a605a6000211973002382
:10538000084900f021f9084b1860431ce5d1ece70f
:10539000014b00221a70e8e7b93b0020c839002011
:0c53a000b55a0000ba3b0020583b00202a
:020000040000fa
:1053ac00f8b5ff2808d00401134b1b685b681b1968
:1053bc001b7b7f2b17d8f8bd00240f4f3e0007e056
:1053cc0033685b685b1900221a730134052cf2d028
:1053dc00e0b225013b685b685b191b7b7f2befd927
:1053ec00fff780ffece7fff77dff034b1b685b6863
:0c53fc001c1900232373dee7603b002037
:020000040000fa
:1054080000230e4a10b513600d4a13600d4a13604d
:105418000d4a13600d4a13600d4a5362136101333c
:10542800936001f079fd01f04efd0a4c0a4b9c4255
:1054380000d310bd08cc9847f8e7c046983b002039
:105448001438002010380020083800200c380020bc
:0c54580018380020b8000000bc00000064
:020000040000fa
:1054640070b504001d00002906d001291bd00023bb
:105474000360012040421fe00020012b1cd80322be
:105484000021013000f014ff2060002810d0012d0d
:105494000ed1002300220021fdf76ef901384342aa
:1054a400584140b208e01900100001f089fc206066
:0a54b4002068431e984140b270bd0d
:020000040000fa
:0254be00704735
:020000040000fa
:1054c00010b5134b1b78002b1fd100280dd0114baa
:1054d0001b68002b11d01620fcf732fb1f2401f0b3
:1054e000a9fa20401628fad110e00830fcf728fb72
:1054f000074b00229a70082008e0054b01229a70a1
:10550000002001f017f8162000e0122010bdc04660
:0855100048390020dc3a0020bc
:020000040000fa
:10551800bff35f8f62b6114bc12189005a58ff2033
:105528008243bf3802435a5010221a60c3208000b9
:105538001a580b491140802212020a431a5080223d
:1055480092011a6004301a5806491140c022120408
:105558000a431a508022d2021a60704700e100e024
:08556800ff00ffffffff00ff41
:020000040000fa
:10557000f0b583b00190134c63689b6998476061f4
:10558000606901f073fa050000f00cfe01f02efdd9
:10559000a66ae76a00232a0092197b41a262e362ad
:1055a00001f028fd0198fef711f9002801d103b0a0
:1055b000f0bd01f01bfd0400fef746fc200001f0e9
:0855c00019fdf4e7a0380020fa
:020000040000fa
:1055c80070b582b005000e001c1e01d100281ed047
:1055d800002a04d101246442200002b070bd0d4ba2
:1055e800d8680023002100f00bfcfa229200002367
:1055f80000f0a8fc0100009433002a000020fef708
:10560800bffb0400431ce7d0fff7defde4e70124fd
:085618006442e1e7a038002024
:020000040000fa
:1056200010b500280bd00300083b5b680f4a1268d6
:105630001a4204d0010008390968002900d010bdc1
:10564000083804009343436001f062fc084a636831
:1056500011688c4663441360200000f03bf9054a52
:10566000136801331360fdf7cbffe8e7083b002028
:085670000c3b0020183b002058
:020000040000fa
:1056780070b504000d0001f0dbfa114b1a682b68b5
:10568800591c17d061680f4800682668864202d006
:10569800012691420fd9501a834203d800232b6068
:1056a800012608e09b1a5b182b60200001f0ccfa59
:1056b800002600e0002601f06dfb300070bdc046fa
:0856c800503b0020443b002090
:020000040000fa
:1056d00010b5114b1878114b19780131c9b21970f6
:1056e00000f001fefa20400000f00fff0c4b1b7889
:1056f000022b07d00a4b1878431e9841c0b201f024
:105700008af910bd074b1b789b07f3d1054b9868ae
:1057100001f046fceee7c046b33b0020b23b002060
:08572000c73b0020383a0020cd
:020000040000fa
:1057280010b500291bd0104b1b78022b12d90f4b38
:1057380000221a800e4b1b68002b04d00d4a1278e9
:10574800082a04d098470b4b1b78042b02d0094b2e
:1057580008221a70044a13780133137010bd024be3
:1057680000221a70fae7c046c23b00202a390020fe
:08577800683b0020c53b002046
:020000040000fa
:1057800070b50600124b1c78002c1ed0114b1b6804
:105790005b68002004e00130c0b21033a04212d098
:1057a0001a7b7f2af7d935781a799542f3d1757823
:1057b0005a799542efd1b5789a799542ebd18442e6
:1057c00002d1ff2000e0ff2070bdff20fce7c046b3
:0857d000be3b0020603b0020fd
:020000040000fa
