:020000040000fa
:10000000f07f00204d700000a77800003b7c0000ce
:1000100000000000000000000000000000000000e0
:1000200000000000000000000000000077810000d8
:10003000000000000000000071720000e980000074
:10004000bb680000bb680000bb68000015650000cd
:10005000bb680000bb680000bb680000bb68000014
:10006000bb680000bb680000bb680000bb68000004
:1000700071320000bb680000bb680000bb68000074
:10008000bb6800000d780000bb68000000000000a5
:1000900000000000bb680000bb680000bb680000f7
:0800a00000000000bb68000035
:020000040000fa
:1000a800f8b5c046f8bc08bc9e467047556f0000be
:1000b800f8b5c046f8bc08bc9e4670472d6f0000d6
:020000040000fa
:0800c800f845000001000000f2
:020000040000fa
:1000d000f0b5de4657464e464546e0b591b00400c1
:1000e000028ab74b1b88934254d1836818780da9b4
:1000f00008705d784d709e780e72e17b002900d00b
:10010000d4e20da949788d0600d55be30822089258
:10011000d2e2ac4a15880daa95800325e5e20133a9
:10012000dbb20432834206d01188b142f7d1917814
:10013000a142f4d12ee0604607974c46a24b9a4567
:100140002fd00dab5b78db0607d50dab9a889d4ba6
:100150001b889bb29a4200d16ee00dab5a78032304
:100160001340012b00d1e0e00dab5b780026db07ec
:1001700010d4964b1b78063b012b00d80be1002ec8
:1001800008d00dab1b78002b04d0904b1b78062bae
:1001900000d1fae111b03cbc90469946a246ab466c
:1001a000f0bd0128cdd027234246d35c012bc8d90e
:1001b0000126874b9a464346a946a04607e00136ea
:1001c000f6b253461b6827229a5cb24231d9b0007e
:1001d00080198000db68181807f04df90028eed070
:1001e0008c2007f057fa041ed4d00768002fd1d016
:1001f000380014300a220da908f02efa5b46bb77ae
:1002000000257d6038001f305a46099908f024fa0d
:100210000123bb746b4b1b889b19bb816c4b1b6808
:10022000db690133bb603d7421006a4807f07efd45
:10023000c5e74d46444684e7674b9a4200d98ce7b0
:100240000dabda8890461b7a99465e4b198889b2c5
:100250000aae3300ff2006f0fdf84b463372737888
:100260000322934301221343102293437370ff230d
:100270004246134207d0534b1b889bb2ff22414694
:1002800091438b422bd08c2007f004fa061e00d13c
:1002900063e703689846002b00d15ee719000aa8bf
:1002a00007f014fa01004d4a1378013b1370322312
:1002b0004246135404964a4b039300230293079b30
:1002c0000193089b0093434601220aa802f020fff5
:1002d000002800d041e7300007f0fefa3de7434632
:1002e0001b06d0d48c2007f0d5f98046002800d119
:1002f00033e70668002e00d12fe7300014300a22c1
:100300000aa908f0a9f90122b2770021716032230d
:10031000f3772f4b1b68db699b18b3603174b274a1
:1003200041462c4807f002fd17e7099b1b780f2276
:100330009343102b16d009d9202b27d00026302b21
:100340001ed109990da802f021f80de70026002b17
:1003500016d1a37b0093099b079a08990da800f07a
:100360008bfc01e7194b1b78062b00d012e7a37b0f
:100370000093099b079a08990da800f03bfe060020
:100380000dab5b78db0700d4f3e6f8e609990da81e
:1003900007f008fde8e60dab9b880f4a934241d970
:1003a000084a1188ff2211421cd0064a1288120600
:1003b00018d4054a934200d0e1e6024b1b8815e0b1
:1003c000b0410020de400020ffff0000973f0020ea
:1003d000f84000208c400020fcff0000b5410020c8
:1003e000a3470000a84a1288120617d40aab0daa28
:1003f000d18819805946197209990b91a17b99727c
:10040000617b59725278032313401bd19f4b1b68a9
:10041000002b00d1b3e60aa89847b0e69c4a934265
:10042000e4d1ace60dabdf881b7a984619003800a2
:1004300007f05ef8002800d0a1e64146380005f03c
:10044000a1f8d3e7022b00d0a4e6924b1b68002b47
:1004500000d194e60aa8984791e68f4b1b78062bab
:1004600000d060e153461b0635d58c2007f012f909
:10047000051e00d18ee60768002f00d18ae60aae7d
:100480000daca288e1882078330005f0e3ff6378a3
:1004900073703900300007f019f9237abb7004003b
:1004a00038185a46099908f0d7f804957b4b0393fe
:1004b000002302930eab0193022300933b005a46a4
:1004c0002100300002f024fe002800d062e628005f
:1004d00007f002fa5ee68c2007f0dcf8051e00d17a
:1004e00058e60468002c00d154e6200014300dae0c
:1004f0000a22310008f0b0f85b46a377002363605e
:10050000b388a38120001f305a46099908f0a4f847
:100510000123a374624b1b68db690133a3602900cc
:10052000604807f003fc35e68c2007f0b3f8051ea1
:1005300000d12fe60468002c00d12be620001430f7
:100540000dae0a22310008f087f85b46a37700233e
:1005500063605a46099920001f3008f07df8012396
:10056000a374b08804f084fc002803d1280007f0ad
:10057000b3f90fe64a4b1a682923d35c0133a36011
:100580002900494807f0d2fb04e60aab0122524297
:100590001a808c2007f07ef8071e00d1fae5036868
:1005a0009846002b00d1f5e50dae3378013b337052
:1005b0004146300007f08af80790317a4346997037
:1005c000f08805f0e3fa002820d0079e330043446a
:1005d0001800227b521b099908f03ef8227b521b1f
:1005e000d2b204972d4b0393002302930aab0193dd
:1005f00002230093434631000da802f089fd002834
:1006000000d0c7e5380007f067f9c3e5380007f008
:1006100063f9bfe5676807970dad6a807a781202c3
:1006200094463a7867463a43ea8002220892227852
:10063000520700d46de50daa01256d4295804a0749
:1006400000d5a7e503330993237b033bdbb29b462d
:100650000dab9b889a4603250dabdb889946104b62
:100660001b6898462a234246d35c9c46002b00d147
:1006700064e592690023079f6146844620003400a8
:100680004e46814608004fe5de400020184100201c
:10069000fdff000014410020973f0020af3800000c
:1006a000f84000208c400020a44000200da949788b
:1006b0008d06afd402220892626807920daa1d79b6
:1006c0002d02ac46dd7867463d4355809d792d026d
:1006d000ac465d7967463d4395801d7a2d02ac4658
:1006e000dd7967463d43d58009254a0700d551e5a8
:1006f0005b190993237b5b1bdbb29b460dab9b888d
:100700009a46344b9a45a7d8334b1b889bb29a45df
:1007100000d116e5304b1b889bb2ff225146914316
:100720008b4200d199e62c4b1b889bb29a4500d195
:1007300030e5002800d12de5284b1b78062b00d092
:1007400028e5254b1b889bb20daad2889a4200d17e
:1007500020e501380dab1870504607f003fa0aabdc
:1007600018801f4b984200d1dee68c2006f092ffe5
:10077000041e00d10ee50668002e00d10ae50daf7b
:100780003100380006f0a2ff05003b7ab370301844
:100790005a46099907f060ff0494124b0393002313
:1007a00002930aab01930223009333005a462900b7
:1007b000380002f0adfc002800d0ebe4200007f088
:1007c0008bf8e7e4656807950dad6a80082208920a
:1007d0002de7c046fcff0000de400020973f0020d0
:0807e000ffff0000af3800002c
:020000040000fa
:1007e800983f00201c00000000000000e6400020a8
:1007f8000200000000000000103d00205000000032
:1008080000000000aa4100200200000000000000d3
:10081800ae41002001000000000000003c3800202c
:100828000400000000000000b43f00201800000091
:1008380000000000e8400020040000000000000064
:10084800444000200c00000000000000783f002019
:100858001d00000000000000ec4000200400000023
:1008680000000000af41002001000000000000006f
:10087800b24100200100000000000000f04000200c
:100888000400000000000000b34100200100000047
:1008980000000000e03b00206800000000000000ad
:1008a800402f0020fc050000000000005040002000
:1008b8001800000000000000d840002006000000da
:1008c80000000000443e002042000000000000003c
:1008d800863e00200100000000000000f4400020d7
:1008e800080000000000000040380020000100005f
:1008f80000000000583f0020200000000000000019
:10090800603b002080000000000000003c35002013
:100918000003000000000000b441002001000000b6
:1009280000000000603d00205000000000000000b2
:10093800303f00202800000000000000c83e0020d2
:100948003c00000000000000483c0020640000005b
:1009580000000000c041002050000000010000001d
:100968003c35002040380020603d0020483c0020f5
:10097800603b0020583f0020c83e002003000000d4
:100988007800b004201905053c050f05303f00200c
:100998003c0000007800b00434120a400300000054
:1009a800060000000f190301ab11223344556611ec
:1009b800e04000200600000000000000fc4000208d
:1009c8002000000000000000684000200c0000002b
:1009d80000000000873e0020010000000000000029
:1009e800953f002001000000000000007440002036
:1009f8002400000000000000963f002002000000d4
:100a080000000000b54100200100000000000000c7
:100a1800b0410020020000000000000098400020c3
:100a28000c000000000000001c4100200400000031
:100a38000000000016420020010000000100000034
:100a48000100000017420020010000000100000022
:100a580001000000b6410020010000000000000075
:100a6800b04000200800000000000000cc3f00203b
:100a78001400000000000000ac410020020000004b
:100a880000000000204100200400000000000000d9
:100a9800a8410020020000000000000018420020c9
:100aa800020000000100000002010000a440002034
:100ab8000c00000000000000b74100200200000008
:100ac80000000000b84000200800000000000000fe
:100ad800b94100200300000000000000244100206c
:100ae8000400000000000000de40002002000000ba
:100af80000000000bc4100200100000000000000d0
:100b0800403900208001000000000000bd410020a5
:100b18000100000000000000043f00202c0000003d
:100b280000000000c0400020080000000000000095
:100b3800883e00204000000000000000c03a00206d
:100b4800a000000000000000144200200200000085
:100b580001000000010000002841002014000000ee
:100b680000000000003e00204400000000000000db
:100b78003c4100200c000000000000001042002052
:100b88000400000001000000aaaaaaaa4841002007
:100b9800040000000000000000000020402f0000ba
:100ba800000000004c41002014000000000000007c
:100bb800c84000200800000000000000604100203c
:100bc8000c00000000000000ac3c002064000000a5
:100bd800000000006c41002014000000000000002c
:100be800e03f0020280000000000000080410020b5
:100bf8001000000000000000084000201400000061
:100c080000000000904100200400000000000000e7
:100c18001c40002028000000000000009441002033
:100c28000800000000000000d0400020080000007c
:100c380000000000be41002002000000000000008b
:100c48009c4100200400000000000000b03d00208e
:100c58005000000000000000a04100200800000033
:100c680000000000000000000000000066666666e4
:020000040000fa
:100c7800f0b5de4657464e464546e0b58db007000e
:100c8800069114001e0016ab1d783278032a00d195
:100c980089e01ed9052a00d1ece0072a00d0f3e04c
:100ca800c94b1b78062b00d0eee0c3888279002a56
:100cb80000d058e1ff32934300d154e1c34b1d6883
:100cc8003b23eb5c012b00d84de10124bf4b994637
:100cd80033e1012a00d0d7e0bb4b1b78062b00d0ac
:100ce800d2e0bb4b1a88ff231a4200d0cce0220086
:100cf8000821b84804f0c6ff002800d1c4e08c20c1
:100d080006f0c4fc051e00d1bee00668002e00d126
:100d1800bae0af4b198889b209ab0022012005f06f
:100d280095fb02ab5b7f2022134302aa5377310065
:100d380009a806f0c7fc070002233354a64b1a780b
:100d4800431cdbb2f254a54b9a46a54b9b46514631
:100d5800180003f0edf8bb1cdbb2f0545b461a78c0
:100d6800fb1cdbb2f25453461a783b1ddbb2f2543b
:100d7800781dc0b230180822964907f069fc04951e
:100d8800984b0393002302930194069b009333002e
:100d98000d22390009a802f0b7f9002874d12800fb
:100da80006f096fd70e07178b278874b1b78062bb9
:100db8006ad1874b1888ff23184265d1f31c20009d
:100dc80000f046fc06000790814b198889b209afec
:100dd8003b000122012005f039fb7b7820221343d8
:100de8007b708c2006f052fc814600284cd00768a6
:100df800002f49d0390009a806f064fc8246030098
:100e08000133dbb204223a54774a0799914224d13c
:100e180002000232d2b293460122fa545b46fe54d3
:100e28000133dbb2360afe545b4652469a1a023246
:100e3800d2b24b4604936b4b039300230293019465
:100e4800069b00933b00514609a802f05df9002873
:100e58001ad1484606f03cfd16e002000232d2b232
:100e680093460022fa542b0001323100300004f07e
:100e7800cffbd3e71a2302aa9446634400221a80c0
:100e8800514b1b78062b06d00db03cbc90469946ba
:100e9800a246ab46f0bd701c00230522022100f0db
:100ea800d7fb0400504b9842eed08c2006f0eefba6
:100eb800051ee9d00668002ee6d0454b198889b290
:100ec800fa8809abff2005f0c1fa310009a806f03d
:100ed800f9fb070006233354431cdbb2f454831c8c
:100ee800dbb2240af45402ab188cff23984306f0b3
:100ef80035fe1a2302aa9446634418800495394a99
:100f080003920022029201930223009333000332da
:100f1800390009a802f0f8f80028b5d1280006f031
:100f2800d7fcb1e7404604f0bdfb0134e4b24b46c0
:100f38001d683b23eb5ca34215d9fb8898461b0a26
:100f48009c42f2d16000001980002b689a468244c6
:100f5800711c0822504607f003fa0028e2d16b8c76
:100f680052469360e1e7fb881b0600d48ce7174bd9
:100f78001d682623eb5c002b00d185e70024134b6a
:100f880099460be0404604f08dfb0134e4b24b4631
:100f98001d682623eb5ca34200d875e7fb889846ba
:100fa8008023424613409c42efd12301aa6892460f
:100fb8009a44711c0822504607f0d2f90028e1d162
:100fc800eb8e52469360e0e7973f0020f840002000
:100fd800de400020b8400020b9410020b841002080
:0c0fe800ba4100208f610000ffff0000f4
:020000040000fa
:100ff400f0b5de4657464e464546e0b591b005008d
:101004001aa90f7854782002ff2112780243cb48a2
:101014000088084200d083e191b2ff20084200d04a
:1010240086e1e888ae79002e00d083e11e78122e86
:1010340000d162e1132e04d0112e00d1ece0002087
:101044006fe159788946002900d187e0390909916f
:101054000021023307930f20b94b98469c4608940d
:101064004e460a970b9224e007402b7883433b4378
:101074002b708d000235b24f3b681b69089a5a5594
:101084003b681b699a46aa4453465b788343099a92
:101094001343524653703b681b695d196b780340d8
:1010a400302291464a4613436b700131cbb29e42c3
:1010b40051d9079b5b181d78854335d01d782d09c0
:1010c4006a1c151c0f2a00d90f25eab245462d6863
:1010d4006d696d182f78874303d02f783f099742a5
:1010e40022d912012f7807403a432a708d00944a7e
:1010f40017683f69bb462f005d46089cec55156890
:101104002d69ab46bb445d466d788543099c2543f8
:101114005c46657015682d69ef197d7805403022ad
:1011240091464a4615437d701d782842bdd02d074f
:101134002d0f01352b1c0f2d00d90f23dfb2634671
:101144001d686d696d182b7818428dd01b071b0f15
:10115400bb42aad988e7089c0a9f0b9ae30749d5a2
:10116400774b1b6861085869435c0f25ab43012525
:101174002b434354640072490b681b691204120e1a
:101184001a550b681a6912193b0957780f208743bf
:101194001f4357700b681b691c1962780f23134097
:1011a400302213436370654b1b881b0a09685a007d
:1011b4000869805cff2800d1bee0d80725d55b080c
:1011c4004869c15c0f24a143c1545d490b681b6984
:1011d400ff2098540b681b699b1858780f24a04370
:1011e40058700b681b699a1851780f230b40537081
:1011f400002096e0524b1b6861085869455c0f2338
:101204002b4010252b434354b4e75b084869c45c66
:101214000f212140c154d8e79c7822025b78134304
:101224009846474b99463b261b689a5d02322b78b9
:10123400d21ad2b23b0004f0edf94b461b689b5d19
:101244000120a3426dd9200006f0fafd02000790a8
:101254003a4b1b889bb2434502d00120002a60d040
:10126400eb889a468c2006f013fa061e43d00568d4
:10127400002d40d0314b198889b20daf3b00524646
:10128400ff2005f0e5f87b78102293437b7029005a
:10129400380006f019fa814612232b540300013357
:1012a400dbb200229346ea5403000233dbb2ec546f
:1012b40003000333dbb2079aea54504606f050fcad
:1012c4001a2306aa94466344188004961d4a03927e
:1012d4005a4602920193022300932b00043249469a
:1012e400380001f013ff002801d0002019e030007d
:1012f40006f0f0faf9e7002013e09c78240258780d
:101304000f4a16683b22b25c0232db78d2182b7883
:10131400d21ad2b220433b0004f07cf9002000e052
:10132400002011b03cbc90469946a246ab46f0bda5
:101334000020f6e70020f4e70020f2e7de4000207a
:08134400f8400020675f000083
:020000040000fa
:10134c00f0b5de4657464e464546e0b583b00090b4
:10135c001e000cab01cb81461b789a460eab1f7856
:10136c005478240213781c43502e00d946e1a4b2c1
:10137c00ab4b1b889bb29c4200d148e1a94b1b781c
:10138c00063b0025012b00d939e1022900d036e1ba
:10139c008c2006f079f90190002800d139e103681e
:1013ac009b46002b00d136e1009b023b5a425a412e
:1013bc0051005b465b7d032293430b435a465375a6
:1013cc001483974b1b88538301233b401a015b46c4
:1013dc005b7d10218b4313435a4653755b469677be
:1013ec0052465a7400235a4693745b460f9a5a60bd
:1013fc003200494658461f3007f028f98a4b9c4268
:10140c005ad95b465b7d102293435a465375874be2
:10141c009c4238d1864b1b6827229a5c012a32d910
:10142c000124834e273505e00134e4b233685a5d5c
:10143c00a24228d9a00000198000db68181806f019
:10144c0014f80028f0d08c2006f01ef980460028f5
:10145c0000d1e2e00768002fe6d070225946380030
:10146c0007f0f4f8724b1b68db690133bb60002298
:10147c003a746b4b1b881b19bb817a6041466d48d3
:10148c0006f04efcd0e76c4a6849584601f03cfa2d
:10149c00051e0cd10f9b002b05d05b46587c5a4681
:1014ac0001210f9b9847019806f010faa7e00199cb
:1014bc00624806f035fca2e0ff23234207d0584bcc
:1014cc001b889bb2ff22210091438b4234d0554b99
:1014dc001b78072b4ed1524b1b88ff2293435a4645
:1014ec009381002f6ed05b469b89a3422ad05b462a
:1014fc00198b4f4b1a683b23d05c0130c0b205f0fe
:10150c001ff95b4698604a4b1a684623d35c01333b
:10151c005a46137491894a4a584601f0f5f9002845
:10152c0004d15b461b7c013b5a4613740199454818
:10153c0006f0f6fb012562e05b469c81230609d58b
:10154c00002f3fd05b46198b012005f0f9f85b4664
:10155c009860d8e7364b1a68d369013359468b60cb
:10156c004623d35c01330b740199324806f0d8fb47
:10157c00012544e0ff232000984306f0edfa5b467a
:10158c0098812a4b9842acd1200003f06bfc051ecd
:10159c000cd10f9b002b05d05b46587c5a46012181
:1015ac000f9b9847019806f091f928e0204b1a6898
:1015bc002923d35c01335a4693600199224806f0e3
:1015cc00affb1ce000235a46137491891a4a584603
:1015dc0001f09af9051e0cd10f9b002b05d05b4630
:1015ec00587c5a4601210f9b9847019806f06ef9da
:1015fc0005e00199114806f093fb00e00025280056
:10160c0003b03cbc90469946a246ab46f0bd0025c3
:10161c00f5e70025f3e70025f1e70025efe7c046e5
:10162c00de400020973f0020fcff0000ffff000081
:10163c00f84000208c400020fd6d000098400020f8
:0c164c00bd2c000068400020a4400020dd
:020000040000fa
:10165800f0b5de4657464e464546e0b585b00190a2
:1016680091460293ceb20623334203d04a46134032
:10167800042b37d0b30700d156e14b46db0700d522
:10168800a1e0af4b1f682723fd5c012d00d898e02f
:10169800fb689a461e00143601240822019930007e
:1016a80006f05efe002800d10ce10134e4b21436e5
:1016b800ac42f2d10124a24b9a462726a000001979
:1016c80080000500fb68181805f0d1fe002800d13d
:1016d80009e10134e4b253461f68bb5da342edd86b
:1016e800984822e1964b1d683b23eb5c9a46012bf8
:1016f800c0d92b689b461f000c370124082201998a
:10170800380006f02dfe00283fd00134e4b20c3733
:101718005445f3d101248a4b9a463b2760000019af
:10172800800003902b68181805f0a1fe002832d01d
:101738000134e4b253461d68eb5da342eed8012b99
:1017480098d928684269002a37d00200203201243b
:1017580008256d422d1a0134e4b2a3428ad0af188d
:10176800100008380c3211000c3909680029f2d130
:101778000822019906f06cff714b1b681a689446a1
:1017880067445b8cbb602002cfe06f4b5b446a8c84
:101798009a602002c9e06a4e33681868039dac4617
:1017a80060440822019906f053ff326811688846a0
:1017b8004544528caa602002b7e00c3001240c2763
:1017c800d6e76048b1e05e4b1f682623fd5c002d1c
:1017d80000d1b1e0bb6898461e0000240822019998
:1017e800300006f0bdfd002845d00134e4b21036c3
:1017f800ac42f3d10024524b9a4626252601b868fc
:10180800801905f034fe002840d00134e4b2534674
:101818001f687b5da342f1d8002b00d18ee0b86829
:101828008668002e4ad002001832002408277f421a
:101838003f1a0134e4b2a34242d0be18100008385f
:1018480010321100103909680029f2d108220199d3
:1018580006f0fefe3a4b1b689a68921949461173c6
:101868009a6894466644db8eb360384b188880309b
:10187800001980b259e0ff231b014344fa8e9a6095
:10188800324b18888030001980b24ee02c4f3b68ec
:10189800986880190822019906f0dafe3b689a6870
:1018a8009219494611739a6894466644db8eb36070
:1018b800264b18888030001980b236e00024c5e72e
:1018c800204832e0224850440422029906f0c0fe23
:1018d800fb68204a944663449a68da601b4b188870
:1018e800001980b221e0164f3b68d8682e00ac463c
:1018f80060440822019906f0abfe3d68eb68b446e7
:10190800634449461974eb6818006044083004229f
:10191800029906f09dfeeb689e19b368f3600b4bc5
:101928001888001980b200e0064805b03cbc904613
:101938009946a246ab46f0bd0248f6e70148f4e7ef
:10194800f8400020ffff0000f40b0000de400020fc
:08195800f4130000ec13000081
:020000040000fa
:10196000f0b5de4657464e464546e0b587b0061c04
:1019700003900f0004911400240a0592019310ab08
:101980001d78b606f60f0297d3b29946e3b2984691
:101990008c2005f07ffe8246002800d116e1046805
:1019a000002c00d114e123000c33636003ab1878e2
:1019b000430701d50123994603220240012a35d06d
:1019c00051425141c9b28d4b1b8803af7f899f4261
:1019d0002ed000239b4607339c46634608334f4670
:1019e000002f00d0063b4746002f30d00233dbb239
:1019f0002427384020282dd0032a2dd0aa1c9b183c
:101a00002373617303ab72011e7820218e4316434a
:101a10001e70f3439b0727d04b46002b00d184e078
:101a20004346002b6cd08823a3736be00321cae7e5
:101a3000734fbb4206d04023194301239b46043316
:101a40009c46cae700239b4607339c46c5e70833fc
:101a5000dbb2cde70143cfe7012398460026002300
:101a60009b4600210733c9e78023a373654a137897
:101a7000591c1170e37304265b46002b0ad1721cbb
:101a8000d2b25e490b78606883550236f6b24b7865
:101a900061688b544346002b63d05b4a13786168be
:101aa0008b55b31cdbb20136f6b2527861688a55a9
:101ab000002d0ad0019a5d19edb2591c10786668a4
:101ac000f0540132cbb29d42f7d1504b129a1a60ba
:101ad00006f006f80f2858d0534623604c4b1a786e
:101ae0004c4b1978200005f019fb002856d1013025
:101af000139b002b63d0180005f0eefe01205ee082
:101b0000c823a3733f4a1378591c1170e37303abc6
:101b10009a7a2274db7a6374730769d4029a137811
:101b2000a3745378e3740826a6e74346002b51d0ec
:101b30008c23a373334a1378591c1170e37303abde
:101b40009a7a2274db7a6374730751d40623029f56
:101b5000063ffa5c6168ca5401330e2bf9d10e2698
:101b60008ae72d4b5b681f0008371a00f31aac4652
:101b700010789918c9b2656868540132ba42f7d131
:101b8000654633000833dbb292e7f03006f046f9e1
:101b9000002006f0dffa05f0a3ff9de71f4b0122ae
:101ba0001a701f4a1378013b1370139b002b02d04d
:101bb000180005f091fe504605f08efe002007b09b
:101bc0003cbc90469946a246ab46f0bd0020f6e7e5
:101bd0000020f4e7cc23a3730a4a1378591c117030
:101be000e37303ab9a7a2274db7a63747307add51f
:101bf000ff23a374e37408263ee7c046ac410020ef
:101c0000ffff0000b6410020a84100202041002035
:101c10001942002018420020b04000201642002047
:041c2000873e0020db
:020000040000fa
:101c2400f8b50021ab4804f07bfa002800d14de15f
:101c34000268002a00d14be1536819785e78402489
:101c44002640a54b00241c70dc73013c1c825468a4
:101c5400a3783325ab43882b00d197e00ad9c82b4e
:101c64003ad0cc2b6bd08c2b00d1c7e005f032fee0
:101c740000201ce1082b00d1ece0802bf6d1964b20
:101c84001c7804252543802464422c431c700124c1
:101c9400dc73546824791c74546864795c745468e3
:101ca40006345c600c00093c1c73546808349c6066
:101cb40053685c78230700d5e0e007232340012b19
:101cc40000d1dfe0002b00d1fae0032b00d1efe0dc
:101cd40005f000fe0020eae0a379ff2b16d07e4d2c
:101ce4002f7880235b423b432b70002e17d024793e
:101cf4002c74546864796c74546808346c600c00f7
:101d0400113c2c7354681034ac60d1e7e379ff2b99
:101d1400e5d1714d2b7804273b432b70dfe7247a00
:101d24006d4b1c745468647a5c7454680a345c6047
:101d34000c00133c1c73546812349c60b8e7664d65
:101d44002f7880235b423b432b70002e0ed02479e6
:101d54002c74546864796c7454680e346c600c0090
:101d6400173c2c7354681634ac60a1e7a47b5a4b1f
:101d74001c745468e47b5c74546810345c600c001c
:101d8400193c1c73546818349c6091e7a379ff2ba9
:101d94001ad0514b1d78802464422c431c700124ba
:101da400dc73002e19d153681c7a4b4b1c74546895
:101db400647a5c7454680a345c600c000d3c1c73d7
:101dc40054680c349c6073e7e379ff2be1d1424cf7
:101dd400237804252b432370dbe753681c793e4b9f
:101de4001c74546864795c74546808345c600c0036
:101df4000b3c1c7354680a349c6059e7364b1d78bd
:101e0400802464422c431c700124dc73002e10d007
:101e140053681c79304b1c74546864795c7454683e
:101e24000e345c600c00113c1c73546810349c60cc
:101e34003ee753685c7b284b1c745468a47b5c7439
:101e440054680f345c600c00133c1c7354681234e7
:101e54009c602de7a379ff2b07d01f4c0b00083b98
:101e6400237353680733a36022e7e379ff2bf4d18c
:101e7400194c237804252b432370eee705f02afd43
:101e8400002014e0144c23780325ab432370023163
:101e9400c9b253685b18023b1b780f4ca373536899
:101ea400591801390b78637305f014fd0120f8bd4e
:101eb400094c23780325ab4301252b432370e6e724
:101ec400054c237803252b432370e0e70020eee73d
:0c1ed4000020ece774400020cc3f002010
:020000040000fa
:101ee00070b50d009b4b1c78042c00d120e14e28ce
:101ef00007d059280ad10a78974b1a770024200076
:101f000070bd0a78944b1a750024f8e7914b5b7802
:101f10000f2b00d10ee10b2800d1ffe018d9532878
:101f200000d1aee078d84f2800d199e0892450281c
:101f3000e5d1894c0b880978a1731b0ae373222031
:101f400004f026f9e17b232004f022f90024d6e7ef
:101f5000022800d1cae01fd9032800d1d4e0042808
:101f600058d1002c00d0ebe0082b00d1ece0082089
:101f700000f0f6f80828fad12e78300000f0e0fbe7
:101f80000500162000f0ecf8002d00d1dae0724bcd
:101f90001e7603f01ff8b2e7002839d1002c00d0dc
:101fa000cae06d4b1b7e052b7ad00a786b4bd34071
:101fb000db0700d4c2e0684bde7c2a78da7403f0d9
:101fc00009f8644b5d78082d05d0082000f0c8f8aa
:101fd0000828fad11625604b187e052867d05e4b7d
:101fe000db7c002b01d0002e6bd100f0a9fb04f0ac
:101ff000e5ff594bd87d04f0dbfe0100052004f01d
:10200000c7f8082d00d17ae7162000f0a9f876e786
:10201000892474e7892472e7572858d08924f02846
:1020200000d06ce70a684b684b4d2a70110a697042
:10203000110ca970120eea702b711a0a6a711a0239
:10204000120eaa711b0eeb7124242978200004f0d3
:102050009ff801350134e4b22c2cf6d100244ee770
:102060000b783d4a5375d27e934201d93a4b5a754b
:10207000394b5b7d00220f212f2005f093ff0024b8
:102080003de7354c0b88097821731b0a63732020c8
:1020900004f07ef8617b212004f07af800242ee71a
:1020a0000a780a33d340db0785d4882427e7db7c12
:1020b0005b000b33dbb20022ff210e3005f072ff14
:1020c0009fe700221f21082005f06cff99e70b789d
:1020d000214ad376527d9a4201d91f4a5375042270
:1020e000f0212f2005f05eff002408e70b781a4c42
:1020f000e37504f063ffe07d04f05afe0100052063
:1021000004f046f80024fae60b78134a937405228b
:102110006021082005f046ff0024f0e60b780e4a07
:102120009375032208212e2005f03cff0024e6e6eb
:102130008624e4e68124e2e68624e0e68824dee6de
:102140008624dce68824dae60e78300000f0f8fa1f
:10215000050019e7b43f0020783f0020ff0700008a
:020000040000fa
:1021600070b50400854b5b780f2b07d00338c2b2e3
:10217000162a6dd89000824a125897460f287cd0b4
:102180007e4d00232b7105f01fff08236b70082c78
:1021900000d1eee0032c00d1ede0201fc3b2152bdf
:1021a00056d89800774b1b589f460321022003f016
:1021b000efff06f085f90400c1b22d2003f0e8ff1f
:1021c000a3b21b0a002207212e2005f0ebfe0f20f0
:1021d00003f03cff10210e2003f0daff012005f090
:1021e00005ff694b802252039a61232005f0fefe11
:1021f000624b0f225a700f203fe0604b5b78082b38
:1022000026d00821022003f0c3ff012005f0eefed6
:102210001ee0082b1cd00321022003f0b9ff01208f
:1022200005f0e4fe14e0554b5b78082b26d00dd961
:10223000162b01d0192b0bd10821022003f0a8ff87
:10224000012005f0d3fe05f0f7f801e0062bf3d0ee
:10225000012003f0fbfe1f231840484b58706324f5
:102260001d001f2809d1012003f0f0fe1f23184094
:102270006870013ce4b2002cf3d170bd05f0dcf8cd
:10228000e6e73e4b5b78082b06d0092be0d0042113
:10229000022003f07dffdbe705f0cef8d8e7374bef
:1022a0005b78092b0ed009d8082bd1d1062102204a
:1022b00003f06eff012005f099fec9e7162b01d04f
:1022c000192bc5d10821022003f062ff012005f07f
:1022d0008dfe0621022003f05bff012005f086fe43
:1022e000b6e7264b5b78082b16d004d9092b04d00f
:1022f000192badd101e0062baad10821022003f051
:1023000047ff012005f072fe1621022003f040ff76
:10231000012005f06bfe9be71621022003f038ff39
:10232000012005f063fe93e7144b5b78082b18d06f
:1023300005d9092b06d0162b00d089e702e0062b21
:1023400000d085e70821022003f022ff012005f0dc
:102350004dfe1921022003f01bff012005f046fe6f
:1023600076e71921022003f013ff012005f03efe5d
:102370006ee7200081e708207fe7c046b43f0020d9
:0c238000bc4d0000184e0000002800407a
:020000040000fa
:10238c00f8b5ce46474680b507000b78312b09d0ff
:10239c00322b26d1694b5b7a0024002b21d0674b62
:1023ac00994696e083799c00e418a400644b1b6862
:1023bc00d868001905f059f8002816d0604b1b6836
:1023cc00db681c19a368e3605e4b5b7a9846002bb4
:1023dc0007d05d4b1a8892b2fb88ff218b439a423f
:1023ec0007d00cbc90469946f8bdf88803f058f914
:1023fc00f7e70024002600253be00021514803f0bc
:10240c008bfe061eedd0056837e04d4a91463b2207
:10241c0049460968885c0130c0b2190004f090f993
:10242c00a8604b461a684623d35c01332b74f98899
:10243c00464a280000f068fa002802d12b7c013ba8
:10244c002b7431003d4805f06bfc0ee06b68002be3
:10245c0003d0687c2a0001219847300005f036fa39
:10246c00bfe73100374805f05bfc0134e4b2a0450e
:10247c00b7d0344b5b7a002bbfd1002db1d0f9888b
:10248c002b8b994205d0324a9342ead1aa898a42cf
:10249c00e7d16a7dd20604d52b4a128892b29342b8
:1024ac00b3d02c4a280000f02ffa0028ced00023fd
:1024bc002b743100284805f033fcd6e731001f4857
:1024cc0005f02efc0134e4b24b465b7aa34200d8f3
:1024dc0087e70021194803f01ffe06000568002d50
:1024ec0000d17ee73a7a2b7f9a42e7d1fa882b8b80
:1024fc009a42e3d16b68002b03d0687c2a00002140
:10250c009847300005f0e2f92b8b2a7e002ad9d1ae
:10251c000d4a128892b2ff21180088438242d1d012
:10252c00074a12681b0a12695b00d31859780f22ec
:10253c000a4030210a435a70c4e7c0466840002064
:10254c00f84000208c400020de400020bd2c000014
:0c255c00ffff0000fd6d00009840002013
:020000040000fa
:10256800f0b5de4657464e464546e0b58bb06a4b59
:102578005b7a002b69d00025674e27e06368002b43
:102588001fd0607c220007219847380005f0a0f989
:1025980017e00023237462680100200000f0b6f9f8
:1025a800002806d16368002b03d0607c220001213b
:1025b8009847380005f08cf903e03900564805f0d3
:1025c800b1fb0135edb2737aab423ed900215248d6
:1025d80003f0a4fd071e42d00468002c3fd0a36876
:1025e800002bead0013ba360002be6d1238b9a464f
:1025f800180005f0b3fa8146484b9842bed0637d77
:10260800db06c6d5464b9b463b235a461268d05c30
:102618000130c0b2514604f095f8a0605b461a68d4
:102628004623d35c013323744b46a3813d4a494674
:10263800200000f06bf9002802d1237c013b2374b1
:102648003900394805f06efbbbe7384b1b78002b87
:1026580005d0013bdbb2354a1370002b06d00bb016
:102668003cbc90469946a246ab46f0bd2c4b1a6836
:102678002823d25c2d4b1a7005f076f80028eed08e
:10268800c30744d44008c4b21a236b4403225242fd
:102698001a808c2004f0faff061ee0d00768002f8d
:1026a800ddd0234b198889b21a256d442a8807abd7
:1026b800012003f0cbfe390007a805f003f8804697
:1026c80013233b5403000133dbb2fc540230c0b285
:1026d8003818134b1b685969220005f0b9ff01230c
:1026e8005b422b80a21cd2b20496124b03930023a8
:1026f80002930195023300933b00414607a800f07e
:1027080003fd0028abd1300005f0e2f8a7e7440844
:102718000134e4b2b8e7c046a4400020ffff00003f
:10272800f8400020bd2c000068400020b741002080
:08273800de4000201b530000ed
:020000040000fa
:1027400010b5734b1b7e002b00d1cae0704b0a22e0
:102750001a74093a5a7408230132c9e00322082185
:102760000c3005f01ffc032300220321162005f086
:1027700019fc0023042210210c2005f013fc644beb
:10278000db7c002b20d1022204210c2005f00afc66
:10279000002302220421172005f004fc5c4c0123d5
:1027a0005b422372083363720023a372e372002238
:1027b0000721142005f0f6fbe37c00221f210820ee
:1027c00005f0f0fb0123a0e00123022204210c20ec
:1027d00005f0e8fbdce70123032208210c2005f0cb
:1027e000e1fb022300220321162005f0dbfb00237e
:1027f000002203210c2005f0d5fb00230422102128
:102800000c2005f0cffb424bdb7c002b20d10222b9
:1028100004210c2005f0c6fb00230222042117200e
:1028200005f0c0fb3a4c01235b422372083363720c
:102830000023a372e37200220721142005f0b2fbeb
:10284000e37c00221f21082005f0acfb01235ce0a3
:102850000123022204210c2005f0a4fbdce7012364
:10286000032208210c2005f09dfb022300220321f6
:10287000162005f097fb0023002203210c2005f011
:1028800091fb0123042210210c2005f08bfb012376
:10289000022204210c2005f085fb002302220421e2
:1028a000172005f07ffb1a4b0f221a7200225a7272
:1028b0009a72da72db7c032b01d9154bda7404238c
:1028c00000220721142005f06dfb114bdb7c5b001f
:1028d0000b33dbb20022ff21132005f063fb012341
:1028e00013e00b4b28221a74243a5a742023043222
:1028f0000749d3184b768a76022800d16be7052862
:10290000add00023002800d128e7180010bdc04634
:04291000783f0020ec
:020000040000fa
:10291400f0b5d6464f464646c0b58eb00400079281
:102924001e2302aa9446634419808c2004f0b0fe4e
:10293400061e00d1c5e0674b1b889bb21e2202a96c
:102944008c46624412889a4200d1bce0002c00d12b
:10295400bbe00768002f00d1b9e00bad228b618b7f
:102964002b00ff2003f074fd627d9107890f6b78c3
:10297400032083430d3002400b4310218b43134348
:102984006b70238b227e002a07d0524a128892b29f
:10299400ef3118008843824248d04f4a93423ad0dc
:1029a40039000ba804f090fe0890a37c002b00d102
:1029b40073e0237fbb70494a1378013b1370089b73
:1029c400f818a27f21001f3105f044fea37f9a4628
:1029d4001e2302aa944663441a883f4b9a425fd04e
:1029e4000496079b0393637c02931e2302aa9446d6
:1029f40063440193022300933b00524608990ba8b9
:102a040000f084fb051e58d028000eb01cbc904674
:102a14009946a246f0bda389227b002ac0d02d4a44
:102a2400128892b2ff218b439a42b9d12c4b5b7a24
:102a3400002bb5d02a4d0021280004f0f3ff0268d2
:102a44006d7a002dacd01e2302a98c4663441b88ea
:102a54009a46002340218c461f49884611e002a86b
:102a640025214018007861460843814602a82521a3
:102a740041184846087012680133dbb2ab4200d1fa
:102a84008ee7002af7d0108b218b8142e7d0404596
:102a9400f1d190895045eed1e1e7bb7823778ee7f9
:102aa4000c4b188880b2b97803f06ef8051e00d07c
:102ab40096e7300004f00effa6e7300004f00affaa
:102ac400a2e70025a0e700259ee700259ce7002556
:102ad4009ae7c046de400020ffff0000b541002019
:042ae4008c40002002
:020000040000fa
:102ae800f0b5c64600b584b001900f000293960079
:102af800300000f0d9fe051e00d1bae0542000f0e5
:102b0800d3fe041e58d005633200a521280005f025
:102b1800a9fd236b9846002f54d03b783422a35448
:102b2800002b09d0012321003431fa5cca54002a51
:102b380002d00133102bf8d143230022e2540a9d1e
:102b4800042d00d90425e56265640027a764231dc8
:102b58000393180005f085fe2000183005f081fe6b
:102b6800246105235b1ba3616462e7645023e75477
:102b7800301f4044493b9843029a019905f028fbcd
:102b880020600b9b002b00d01c6005f07dfc3c4aac
:102b98001368013313603b4b1b68002b16d03a4b6c
:102ba8001b68002b17d1374b1b68db6ae26a93421c
:102bb80011d8344b1c600ee0280003f02bff0120d5
:102bc800404258e034230022e254b8e72d4b1c6001
:102bd8001368012b23d02d4a136801331360e36a6d
:102be8002b4a1268934201d9294a13609800c018e9
:102bf8008000284b1818039905f0affc05f000fd7c
:102c0800214b1b680120002b35d01e4b1b68da6a4c
:102c1800e36a9a422fd205f02bfc01202be01d4dd0
:102c2800280005f08ffc2800143005f08bfc2800e4
:102c3800283005f087fc28003c3005f083fc28008c
:102c4800503005f07ffc144e300005f07bfc134d2e
:102c5800280005f077fc124805f074fc114805f0cf
:102c680071fc114805f06efc104b1e60104b1d6086
:102c7800b1e70120404204b004bc9046f0bdc04614
:102c88006c410020604100209041002078410020e4
:102c98007c410020ac3c0020e03f0020f43f0020b5
:102ca80008400020304000201c40002064410020e3
:042cb800684100204f
:020000040000fa
:102cbc00f0b5de4657464e464546e0b583b08046f5
:102ccc0089469246177b534b5b7a002b00d199e0d7
:102cdc0000246ae0fc33034200d07ce04e4b1b889e
:102cec009bb2ff22010091438b4274d04b4b1a686c
:102cfc00030a5b001269d3185a780f218a436ad0f1
:102d0c005a78934612090f321140019109018c46f1
:102d1c0059460f221140624611435970019b002bfa
:102d2c0059d104f0b1f856e00123ab74a9893c4a9f
:102d3c002800fff7e9fd002802d12b7c013b2b7406
:102d4c003100344804f0ecff29e0ff23034213d197
:102d5c00314b1b889bb2ff22010091438b420bd05d
:102d6c002e4b1b68000a1b694000181842780f2371
:102d7c001340302213434370298b284b1a683b2392
:102d8c00d05c0130c0b203f0dbfca86031002148fc
:102d9c0004f0c6ff03e031001e4804f0c1ff01340b
:102dac00e4b21c4b5b7aa3422cd90021194803f0e6
:102dbc00b3f9061e26d00568002d23d02b7fbb420d
:102dcc00e9d16b7c4345e6d1288b4b46002bbcd01c
:102ddc00032b00d17ee72b7c002b04d0013bdbb214
:102dec002b74002b03d00f4b1b78082b9cd16b68da
:102dfc00002b03d05246494640469847300004f019
:102e0c0065fdcce703b03cbc90469946a246ab4668
:102e1c00f0bdc04668400020de400020f840002095
:082e2c00bd2c0000973f0020bf
:020000040000fa
:102e340070b50500594c207fc0b2002800d0a7e02f
:102e440000294ad0002d48d0554c666807243440e8
:102e5400012c5ed0514805604260002444618461c5
:102e640004614e488160002a58d04c4ad3604b4ad2
:102e7400012111774a4a127e520705d5484a042097
:102e8400916a117e0142fbd1454a518b04200143d2
:102e94005183117e80200143117640498a68c968b4
:102ea400914203d93d48c168891a01613c49496886
:102eb400490743d139498969914233d2374a116864
:102ec400087837498862916901319161002b5ad0a1
:102ed400334b04229a7501205be0002b59d0002a61
:102ee40057d02f4c666807243440012c0cd02b4853
:102ef400056042600024446184610461002db0d106
:102f0400264900208860aee7002943d1dc07eed5ce
:102f14003fe0cc073dd4002be9d0f7e71f4a00215e
:102f2400d160a4e71d4a1269002acfd01c4aff21b0
:102f340091621a490a69013a0a61c7e7174a916816
:102f440049089160116949081161d1684908d16043
:102f5400916892698a420ad210490a681288d20595
:102f6400d20d0f4882628a6901328a61aee70b4a48
:102f74001269002aaad00a4a0a49916207490a69d1
:102f8400013a0a61a2e7064b01229a75012000e08a
:102f9400002070bdcc07b9d5fbe7c046043f002034
:082fa40000100042ff010000d3
:020000040000fa
:102fac00f0b583b004f070f8002800d091e0d23076
:102fbc00400005f015f84c4c982580231b066351f6
:102fcc00802636029423e65080235b0363610a203b
:102fdc0005f006f866511e2005f002f800221f21ac
:102fec00012005f047fb6b46d871da79d2b2da7161
:102ffc000a24642004f0f4ff1c2003f021f80728b5
:10300c0005d0013ce4b2002cf3d1852762e0082105
:10301c00053803f0b7f800221f21012005f02afb28
:10302c000828f2d10021063003f0acf82f4b08220f
:10303c005a702f4805f0eaf800284ed1012001f013
:10304c00eff8071e4dd12b4d08e02a4c2600083610
:10305c0005f030fa20700134b442f9d1287869783f
:10306c0009020843a97809040143e87800060843db
:10307c0002002879697909020843a97909040143f6
:10308c00e87900060843030001204042c1171218da
:10309c004b41591c01d1d31cd7d800221649002012
:1030ac0004f0defe002005f02dfb02f057ff8c2013
:1030bc0004f0eafa114b1860002810d0ff211048d8
:1030cc0005f047fb05f07ef9084b822252041a6189
:1030dc0000e08527380003b0f0bd8527fae7852787
:1030ec00f8e78527f6e7c04600280040b43f0020eb
:1030fc00b3410020783f0020d9870000ec4000202d
:04310c00444000201b
:020000040000fa
:10311000f0b5de464f4680b585b00190029103922e
:103120001f000cab1d780eab1b789b460f9e8c20ae
:1031300004f0b0fa8146002800d18ae00468002c2f
:1031400000d188e000232375022d6ad0237d04225c
:103150009343202213432375237d08229343237531
:103160003e4b1b889bb23e4a93426bd03d4b1a7834
:10317000063ad2b20023012191425b41dbb2637770
:10318000ab1e5a4253412377237d9a0801215140b7
:1031900001220a40920140218b4313438022524274
:1031a00013432375019b5b88e38327743b0a637495
:1031b0003b0ca3743b0ee374271d2a000d993800c5
:1031c00005f04afaa7612673330a6373330ca373bd
:1031d000360ee67321235a46e254029b039a944624
:1031e00063442022a3542423109ae254109b1a0a09
:1031f0002523e254109b1b021b0e2622a354109b76
:103200001d0e2723e5544946174804f08ffd00287a
:103210001ad104f09ffd012005b00cbc91469b46dd
:10322000f0bd0d9b5a7812021b789b189bb20f4a77
:10323000934200d88ae7237d04221343202293433c
:10324000237589e700239ae7484604f045fb0020f0
:10325000e2e70020e0e70020dee7c046de40002095
:10326000ffff0000973f002080400020fcff00008f
:020000040000fa
:1032700070b5504b586a504b9b7d002b54d04e4933
:103280004c68072214404b4b5a699d699e680b7e1f
:103290005b0757d5896a474bdb68934252d9002cac
:1032a00043d1444b5b6899540132434b1b7edb078f
:1032b00016d5414b012119753e4b9b68ab4256d93f
:1032c0003c4b1b68595d3c4b99620135394b1b697e
:1032d000002b01d1b54262d0364bdb68934262d0fd
:1032e000344b5a619d61344b1b7e9b0715d5334b84
:1032f0001b78002b18d02f4bdb68934211d12d4b3c
:1033000000221a772c4907240c752c490a701b6a75
:10331000002b09d0274b1b6a9847284b1b78002ba2
:1033200002d0254b02229a7570bd224b5b68540077
:10333000e1520132204b1b7edb07d1d51e4b012110
:10334000197508e01c4b1b7edb07c9d51a4b012100
:103350001975002cb0d0174b9b68ab4213d9154b95
:103360001b686900c95a144b99620135aee7114bcd
:103370001b69002baad0104bff2199620d490b69e4
:10338000013b0b61a2e70b4b1b69002b9ed00a4b44
:103390000b49996207490b69013b0b6196e7074ba3
:1033a000012119709ce7044b0121997503311975ae
:1033b00096e7c046043f002000100042bd410020b7
:0433c000ffff00000b
:020000040000fa
:1033c40070b50400002928d0454b1b7f0422f0214e
:1033d4002c2004f0e5fd012c5ad9414b1b7d012220
:1033e4000e212c2004f0dcfd1920fef7b7fe19286d
:1033f400fad13c4b1868017802f0caff3a4b01221b
:103404001a703a4c80256d03a561012004f0ecfd8f
:103414006561002005f07af970bd00230422f021d3
:103424002c2004f0bdfd012cd7d8072301220e2146
:103434002c2004f0b5fd38e0294bd87c4342584198
:103444004042f0239b001840294b9c46604441e0d5
:10345400002bc9d0224b1b7e002b0fd1204bd87cd4
:1034640043425841404296235b0018400430ff30e9
:1034740004f0cdfb1c4b0022da70b5e7184bd87c66
:1034840043425841404290235b0018409730efe795
:10349400072301220e212c2004f082fd104b1a7ff9
:1034a400144b1a70144b01221a70012c9cd10e4b30
:1034b400db78122bccd90a4b1b7e002bbcd1084bda
:1034c400d87c434258414042fa239b0018400b4b9e
:1034d4009c46604404f09bfb034b0022da7083e7b4
:1034e400783f0020e8400020b43f0020002800403e
:1034f40057020000aa410020ab410020bf03000096
:020000040000fa
:1035040010b5072800d183e024d9502858d033d9e6
:10351400572800d186e03bd9592800d187e0f0280c
:1035240042d1454b1a785878000210439a78120415
:103534001043da78120602431c79587900020443d6
:10354400987900042043db791b0603430a604b602f
:1035540000201ce003284ed006d8012838d045d8d6
:10356400354bdb7c0b7012e0052849d055d8324b23
:103574001b7e0b7000200ae04e2817d01bd80b28a6
:1035840004d12d4b9b7d0b70002000e0892010bde1
:10359400532807d1284a107b537b1b0203430b801b
:1035a4000020f4e78920f2e78920f0e7224b1b7d15
:1035b4000b700020ebe7204b5b7d0b700020e6e7ef
:1035c4001d4a907bd37b1b0203430b800020dee764
:1035d4001948037a427a12021a43837a1b041a4363
:1035e400c37a1b0613430b600020d0e7124bdb7d2c
:1035f4000b700020cbe7104b9b7c0b700020c6e7c0
:103604000d4a107c537c1b0203430b800020bee751
:10361400094b9b7e0b700020b9e7074b5b7e0b7058
:103624000020b4e7044bdb7e0b700020afe7024bb5
:0c3634001b7f0b700020aae7783f0020ed
:020000040000fa
:10364000f0b5ce4600b584b00400009101921f0091
:103650000025442640e0a66b3a000099200002f0c5
:1036600047fca36c002b11d0022f00d180e020007a
:1036700003f076fb002806d104f0c6ff012004b059
:1036800004bc9146f0bd04f0f7fef5e7636a002b39
:1036900004d10028f0d004f0effeede72000243044
:1036a00002f0eafb0028e7d004f0e6fee4e704f0cd
:1036b000abff0020e3e702a804f0f6fe19e00023c8
:1036c000a35520e045230022e25421e0200001f030
:1036d0000dff00f081ff012504f0dafea36be26b21
:1036e0009342b8d3022f3ad0019b002bdfd0002d9c
:1036f000e1d004f089ff05f023f804f0c9fea35dd2
:103700005bb20133dbd04523e35c5bb20133d9d03c
:1037100004f07aff01a902a803f0acf9002817d140
:1037200004f0b6fea36b9946e56b04f06dffa94566
:10373000ccd120001030019904f0ecfd200001f004
:10374000d5fe00f049ff0028c5d104f095fec2e780
:10375000200001f0cbfe00f03fff00208fe7a66bba
:1037600002220099200002f0c3fba36c002b8dd035
:08377000002e00d080e77ae78b
:020000040000fa
:10377800f0b585b00400019100230093002544268c
:10378800002743e0013ba3632368002b09d023698a
:10379800002b0ad104f034ff01230093009805b0f0
:1037a800f0bd04f0c1fda060f1e72000103002f088
:1037b8005ffb0028eed004f05bfeebe704f020ff8f
:1037c80000230093eae702a804f06afe28e0a75560
:1037d80030e04523e75432e004f056fea06801f0db
:1037e800f3ff009004f00cff39e0200001f07afeae
:1037f80000f0eefe09e0200001f074fe00f0e8fea3
:10380800200004f007ff002838d1012504f03cfe11
:10381800a36b002bb6d1019b002bcfd0002dd2d0ab
:1038280004f0eefe04f088ff04f02efea35d5bb208
:103838000133ccd04523e35c5bb20133c9d004f03b
:10384800dffe01a902a803f011f90028d3d1200056
:1038580004f0e0fe0028c8d02368002bbcd020006c
:103868002430019904f052fd200001f03bfe00f0e5
:10387800affe0028c9d104f0fbfdc6e7009b002b72
:1038880000d18be704f000fe616a002903d0236ba6
:103898001b680521c91aa06802f00afc04f0b0fef2
:0638a800002300937ae703
:020000040000fa
:0238ae00704761
:020000040000fa
:1038b000f8b5040004f044ff404b1b68002b15d002
:1038c0003f4b1e68344238d1002c3dd022000832d4
:1038d000530702d007239a430832002a34d0394bc9
:1038e0001f68974233d338490c6835e0374a53078d
:1038f00020d0d11d07239943bd239b019c466244e0
:10390000531a0a003048026000214160d318083b76
:10391000072083432948036059601960991a516050
:1039200013602b4b1960274b1960254b8022120620
:103930001a60c5e7bd239b01e4e700f04dfe04f0eb
:1039400099ff00252800f8bd00f046fef7e700f0db
:1039500043fef4e721001c006368934202d223680f
:10396000002bf7d1154b1b68a3421ed00d680835fc
:1039700023680b6063689b1a102b19d86368ff1ac1
:10398000104a1760124a1268974201d2104a176013
:103990001e436660002323600e4a136801331360e0
:1039a00000f01afe002dcdd1c9e700f015fec6e7e4
:1039b000a0184360626003f007f9dfe74841002088
:1039c0004c41002050410020c84000200000002051
:0839d000544100205841002081
:020000040000fa
:1039d800f0b5c64600b582b03a4b1b68002b65d1de
:1039e800394b1a68013290461a60002a18d0374bb2
:1039f8001b68434521d900230193354b1b68da6abc
:103a080093009b189b00334a9b58012b01d9012333
:103a18000193314b1b68002b4ed0012301934be0df
:103a28002e4a11682e4b1868106019602d4a1368c9
:103a38000133136004f0bef8d9e700230193274e41
:103a4800370033681b68002b28d03b68db68dc68cc
:103a58006368984527d3251d280004f079faa36ade
:103a6800002b03d02000183004f072fae36a1e4ad3
:103a78001268934201d91c4a13609800c01880004c
:103a8800144b1818290004f068fd114b1b68e26af2
:103a9800db6a9a42d5d301230193d2e70b4b01226b
:103aa80052421a60a9e7094a1360a6e70f4a136849
:103ab8000133136000230193019802b004bc9046bf
:103ac800f0bdc0467441002094410020844100208c
:103ad80060410020ac3c0020984100206441002057
:103ae80068410020884100207c4100208c41002052
:020000040000fa
:103af800f8b5404b5b7a002b6cd000253d4f24e095
:103b08000123a374a1893c4a2000fef7fffe002888
:103b180002d1237c013b2374218b384b1a683b2349
:103b2800d05c0130c0b202f00dfea0603100314817
:103b380004f0f8f803e031002e4804f0f3f80135fa
:103b4800edb22c4b5b7aab4244d90021380002f02d
:103b5800e5fa061e3ed00468002c3bd0a368002b73
:103b6800e9d0013ba360002be5d1237c002bc7d013
:103b7800013bdbb22374002bc2d16368002b03d056
:103b8800607c220003219847300003f0a1fe208bbf
:103b9800237e002bd3d11a4b1b889bb2ff22010036
:103ba80091439942cbd0154b1a68030a5b001269fe
:103bb800d3185a780f218a43c1d05c7822090f3272
:103bc8000a401601214031435970002ab7d103f049
:103bd8005df9b4e702f088fd0a4b1b78062b02d08a
:103be80000f026faf8bdfef7bbfc02f04ffd02f02c
:103bf8005dfcf5e768400020bd2c0000f84000207f
:083c0800de400020973f002080
:020000040000fa
:103c100070b52d4b06225a6003f034ff01f01afcf8
:103c200001f070f804f0aefd02f0b3fb03f09cfc71
:103c300001f0ecff03f080fb2449002000f084fe3b
:103c4000234b1860234c244b2360244b6360244b8c
:103c5000a360244be360244b2361244b6361244b1a
:103c6000a361244be361244b2362244b6362244b06
:103c7000a362244be362244b2363244b6363244bf2
:103c8000a363244be363244b236400231422012108
:103c9000224802f0e5fd002314220121204802f011
:103ca000dffd204d04224021280004f0cdfb290037
:103cb000200003f029fe04f049fb02f02bfe02f085
:103cc00029fefff773f970bd004000414c880000e9
:103cd00044410020003e0020858300000184000054
:103ce000616800005980000019840000a577000079
:103cf0009386000049840000a1800000d97700006d
:103d0000c5800000a5860000a5850000b9850000db
:103d100037850000058800000d8800003c41002028
:083d2000404100203841002061
:020000040000fa
:103d280070b584b03a4b5b7a002b03d0394b1b78c3
:103d3800002b05d1384b5b7a002b61d104b070bde4
:103d48000021334802f0eaf905000468002cf1d09c
:103d5800237b627b12021a43a37b1b041a43e37b77
:103d68001b0613432d4a13602d4a13780133137031
:103d7800237c627c12021a43a37c1b041a43e37c53
:103d88001b0613432422a25c2521615c090211430e
:103d98002622a25c120411432722a25c12060a43bf
:103da8000392204a02922122a25c01922022a25c64
:103db8000092207d627d12020243a07d000402432e
:103dc800e07d00061043217e627e12020a43a17e36
:103dd80009040a43e17e09061143227f667f360201
:103de8001643a27f12041643e27f12063243fdf700
:103df800b3fd084b00221a70280003f069fd99e70b
:103e0800fdf70cff002899d00748fcf75df995e706
:103e18008040002016420020744000201c410020f1
:0c3e2800873e00207d7d0000cc3f002084
:020000040000fa
:103e3400f0b5de4657464e464546e0b585b005002a
:103e44000c0093469a46374b00221a705b46002baf
:103e54005ed102abda7101238b4001331a01d31a0c
:103e64009b010193ff23984699460ae0d94651e005
:103e7400984602abda1ddb790133dbb213701f2bda
:103e840048d804f0b9fc02abda79012393402b4003
:103e94001842eed002abd91d002001f041f8224ea9
:103ea400224f3767019804f0dff9fa21890001f005
:103eb40061fd7066019804f0d7f9fa21890001f0d8
:103ec40059fd0200b06600236c21735402a9063127
:103ed4000b70380002f074fd7067431cc6d0114ba0
:103ee40001221a701e002100012004f017fb337810
:103ef400002bf8d10e4b1b784345bad202aa0732e5
:103f0400127891465246002ab2d013709846b0e710
:103f1400ff239946484605b03cbc90469946a246c4
:103f2400ab46f0bdbc410020403900207987000039
:043f3400863e0020a5
:020000040000fa
:103f3800f0b5ce46474680b583b0804689463b4bb0
:103f48001b683b229a5c012a17d90022019201249e
:103f58000126364f3b2505e00134e4b23b685a5d43
:103f6800a2420cd96000001980001b68181803f0e1
:103f78007efa0028f0d10196eee7002301932b4b3f
:103f88001a682623d75c002f16d0002700260124a4
:103f9800264d07e001940136f6b22a682623d35c41
:103fa800b34209d933019068c01803f060fa0028b9
:103fb800f0d00137ffb2eee71c4b1b6827229a5c52
:103fc800012a18d900260124184d08e0012301937d
:103fd8000134e4b22b6827229a5ca2420cd9a000d3
:103fe80000198000db68181803f041fa0028edd0aa
:103ff8000136f6b2ece700262622995cc81b642439
:10400800604301f0e3f843461870084b1a68272309
:10401800d15c881b604301f0d9f84b4618700198b1
:1040280003b00cbc90469946f0bdc046f84000204d
:020000040000fa
:10403800f0b5c64600b53c4b1b683b229a5c002a8b
:104048001ed00024384a904617003b2605e001346c
:10405800e4b23b689a5da24212d965002d19ad0001
:104068001868401903f003fa0028f0d043461b688b
:104078001b685d19ab68002be9d0013bab60e6e734
:10408800294b1b6826229a5c002a1cd00024264a49
:1040980090461700262605e00134e4b23b689a5d95
:1040a800a24210d925019868401903f0e0f90028c8
:1040b800f2d043461b689b685d19ab68002bebd0b8
:1040c800013bab60e8e7184b1b6827229a5c012a82
:1040d80026d90124144a9046170027260be0c86801
:1040e80040190832ff2104f0bdfa0134e4b23b68fc
:1040f8009a5da24214d9a5002d19ad00d8684019bf
:1041080003f0b5f90028f0d043461968cb685b196d
:10411800da68002ae9d0013ada60002ae5d1dee758
:0c41280004bc9046f0bdc046f8400020ea
:020000040000fa
:10413400f0b5c64600b584b0040000910192002792
:1041440044260023984638e00099200003f0dcff61
:104154006b1ea3632369002b06d104f053fa0120dc
:1041640004b004bc9046f0bd2000103001f082fe83
:104174000028f2d004f07ef9efe704f043fa0020bf
:10418400eee702a804f08ef921e04346a35528e0a7
:1041940045234246e25429e0200001f0a5f900f04d
:1041a40019fa09e0200001f09ff900f013fa200049
:1041b40004f032fa002835d1012704f067f9a56b21
:1041c400002dc1d1019b002bd7d0002fd9d004f0f2
:1041d40019fa04f0b3fa04f059f9a35d5bb20133a0
:1041e400d3d04523e35c5bb20133d1d004f00afaa7
:1041f40001a902a802f03cfc0028d3d1200004f05d
:104204000bfa0028c8d020002430019904f080f86b
:10421400200001f069f900f0ddf90028ccd104f0a8
:0842240029f9c9e700209be71e
:020000040000fa
:10422c0070b50400384d80235b036b61d2204000d5
:10423c0003f0d6fe802636029423ee500a2003f0bb
:10424c00cffe9823ee50642003f0cafe00221f21fb
:10425c00012004f00ffa0a2508280dd0642003f081
:10426c00bffe00221f21012004f004fa013dedb233
:10427c00002df1d1852070bd244b08225a7001f01d
:10428c00e9ff002304223021032003f085fe0023e4
:10429c0003220821032003f07ffe04f00bf9050034
:1042ac00c1b22d2001f06effabb21b0a0022072118
:1042bc002e2003f071fe0123052220212e2003f075
:1042cc006bfe0123072280210c2003f065fe0123e5
:1042dc0001220221042003f05ffe08210e2001f0d0
:1042ec0051ff062304227021152003f055fe002ceb
:1042fc0007d101f0c3fb054b00221a709a70002005
:10430c00b9e702f079fef4e700280040b43f002042
:020000040000fa
:10431c00f8b5324e324c23689d68002314220121db
:10432c003000a8472f4d23681b6b1c212800984791
:10433c0023685b6b29002c48984723685b6b29002a
:10434c0030009847294b2a4a1a602a4c244f264d94
:10435c0007e0234b1b68db6800212048984704f0da
:10436c003efa3b689b6b244a1e4920009847236801
:10437c001a4a12689342ecd02a689342f1d11b4e30
:10438c00174b1b689b6a002231001748984733680b
:10439c001a78002ae5d19878da7812020243187953
:1043ac00000402435879000610438379c279120243
:1043bc001a43037a1b041a43437a1b06134382786d
:1043cc00c178090211430279120411434279120691
:1043dc000a434178007800f011f8c2e70841002048
:1043ec000041002010410020fc400020044100202e
:0c43fc00e04000200c410020ffff00000a
:020000040000fa
:1044080070b582b00c0015001e000e295ed8002b76
:1044180060d0314b1a780023012a58d12e4b022143
:1044280019702e4b1d6001282dd0002808d00228b5
:1044380045d00120b047284b01221a70002346e0de
:104448006b460021d971eb0709d4013100e01a004d
:104458004900531cdbb22942f9d06b46da716b462e
:10446800d91d002000f05afd1d480023038003f0e9
:10447800bdfc1c4803f0a6fc0020b047164b0622e2
:104488001a70012323e016480023038003f0aefcd2
:10449800144803f097fc6b460733002221002800dc
:1044a800fff7c4fc6b46991d0870002000f036fd2c
:1044b8000020b047084b06221a70012307e00120ac
:1044c800b047054b01221a70002300e000231800b2
:1044d80002b070bd0023fae7973f00202441002076
:0844e800de400020b04100207d
:020000040000fa
:1044f000f8b5374c656b63689b6998476061606984
:1045000003f0ecfea66ae76a0023020092197b41e1
:10451000a262e362002d51d02d4c3022a35c013306
:10452000a35403f0eff8646b002c06d0a368002bb3
:1045300003d101250027264e11e0264d00242e0030
:1045400021e0e06902f038ffe368002b01d0206928
:104550009847746b002cf0d0a368002bedd1257523
:104560006575a378002b02d1e368002be9d1200008
:1045700002f000f8a378002be6d16770e4e701347d
:104580002035052c15d06301f3185b7d002bf6d088
:104590006201104b9b1800225a75ab78012beed1ab
:1045a00061010c4b59186b688b60280000f0faf819
:1045b000e5e7074930228b5c013b8b5404f02ef970
:1045c000040000f0e5fa200004f02cf9f8bdc04624
:0845d000883e0020c03a0020e3
:020000040000fa
:1045d800f8b5ce46474680b503f056ff2e4b1a680d
:1045e800013a1a601b680024002b03d12b4b1b686f
:1045f800002b06d104f004f820000cbc9046994624
:10460800f8bd0024264eb046264f274b99463368fe
:10461800002b22d04346db68dc682000183003f00a
:1046280097fc251d280003f093fce36a3a6893423f
:1046380001d91c4a13609800c01880001b4b181839
:10464800290003f08aff1a4b1b68db6ae26a9a4268
:10465800ddd301234a461360d9e7002c01d003f0cb
:10466800a9fa144b1c68002c0ed00f4e012502e04d
:10467800013c002c05d0fff7abf90028f8d03560d5
:10468800f6e70c4b00221a60074b1c68002cb1d0cf
:1046980003f0eefe0124ade7744100206c410020d8
:1046a800084000207c41002098410020ac3c0020bc
:0846b800604100208c4100204c
:020000040000fa
:1046c000f0b5060085b00f0015001c008b4265d8c0
:1046d00001d1824262d82100280003f015ff390081
:1046e0000090300003f010ff009b21001b1a1a00fd
:1046f0002800039303f0fcfe00900191019bbb4254
:1047000046d802d1009bb34242d8009b019c039a39
:1047100001200021f61aa74103f0eafe039b002bbb
:104720002fd0019b009adb0754081c43019b5d08b6
:10473000039b9c46bd422ed801d1b4422bd83200f7
:104740003b00121bab41012692185b410027b618b3
:104750005f4101235b429c446346002bead18019f0
:104760007941039a04000d003000390003f0b4fed3
:10477000039a06000f0003f0bbfe241a8d412000af
:1047800029000a9b002b01d01e605f6005b0f0bdc0
:1047900000200021c2e7b6197f41dae7002000219e
:0247a000efe741
:020000040000fa
:0247a20070475e
:020000040000fa
:1047a400f0b5de4657464e464546e0b585b08146ef
:1047b400002854d0304b596b83689a4600290cd09a
:1047c4008b6852460392002290469a4549d30022b0
:1047d40000238b460092019306e052468260264bea
:1047e4005863012034e0e3465e46b6683400002591
:1047f400009a019b12196b41009201935e46b669bf
:10480400b446002e12d06646b66800210f00009a06
:10481400019bb6185f41474529d8e4d1039b9e42ca
:10482400e1d960465946009a019b01e0300059469f
:104834004c46a0618c61002051468a1a4b469a600e
:104844009b69002b04d04a4691689a68521a9a6070
:1048540005b03cbc90469946a246ab46f0bd00204c
:10486400f6e7054b5863816100220120e4e76046c6
:0c4874005946009a019bdbe7883e0020bb
:020000040000fa
:1048800070b504000d000b2859d883002d4ad35869
:104890009f46032208210d2003f0f2fe287020001d
:1048a00070bd072280210d2003f0eafe2870002051
:1048b000f6e7002203210d2003f0e2fe287000201d
:1048c000eee701220221172003f0dafe2870002013
:1048d000e6e700220721142003f0d2fe2870002012
:1048e000dee7132001f0b2fb28700020d8e7002299
:1048f0001f21052003f0c4fe28700020d0e700220d
:104900000f21152003f0bcfe28700020c8e7042208
:1049100010212e2003f0b4fe28700020c0e70422ee
:104920001021172003f0acfe28700020b8e7052204
:104930002021172003f0a4fe28700020b0e7882073
:08494000aee7c046a8780000b4
:020000040000fa
:1049480070b50d1e4cd000284dd12848383003f0e2
:1049580022fd012802d00120404246e02b68234c6a
:104968006360db689847e0600026c82200230021c6
:1049780002f09cfc1e4a002302f03afd02220023aa
:104988008018594120620423eb5623722661194b83
:10499800a361194be36100220023a262e36266630c
:1049a8003023e65463681b680021144898476368fd
:1049b8001b69002b02d00d4a108b98470b4ce069fd
:1049c80080b263685b69984763685b689847a02210
:1049d80000210b4803f046fe02232370200004e068
:1049e8000120404201e00120404270bd883e002085
:1049f800006cdc02ffff0000ff7f0000f1440000b4
:044a0800c03a002090
:020000040000fa
:104a0c0010b52a4b1b68002b03d0294b01221a60ce
:104a1c0010bd274b00221a60264b1b681b6b264ac5
:104a2c001968914202d1596891422fd0214b1868d4
:104a3c001968343103f016ff204b1b689a00d2180a
:104a4c0092001f495258002a06d1013b9a00d218f5
:104a5c0092005258002af8d019489a00d1188900af
:104a6c0041184c6864684c60d21892000832821865
:104a7c00944212d09a00d218920011498a185268a6
:104a8c00d1680c4a11600d4a1360c1e799689142d4
:104a9c00ccd1db689342c9d1cee760689a00d218ba
:104aac00920007498a185060e4e7c0467441002020
:104abc009841002060410020a5a5a5a57c410020bf
:044acc00ac3c0020de
:020000040000fa
:104ad000f0b583b006000d0001921f0008ab1c78f2
:104ae00002f07efd002845d0244b1b785bb2022be0
:104af00006d00124644203f0e1f9200003b0f0bdc8
:104b0000002d31d0b54232d31d4b1b78002b0bd07a
:104b10001c4b01221978002908d001322033052ac4
:104b2000f8d101246442e6e70022154b01211970f7
:104b300000215970197559759c705d600199d96093
:104b40001f61ad1b9d60104909881404240c0a04e0
:104b50001443dc61013189b20c4a914202d00a4a05
:104b60001180c8e70121fae701246442c3e7012468
:104b70006442c0e701246442bfe7c046883e00208b
:104b8000c03a0020e03a002014420020ffff00005d
:020000040000fa
:104b9000f0b5c64600b52a4b5a6b59691961002a0f
:104ba00042d09168274b994234d9254b5b69002547
:104bb0001c00244a0023a4185d41214b98465b68e1
:104bc0009b6998470027060043461b69834203d927
:104bd0001d4a0023b6185f41194b196a00230a00c9
:104be00092197b41ab4202d827d1a24225d98e1916
:104bf000134bde61124bdb691b0402d1104b012207
:104c0000da610f4bd86980b25b685b69984704bc76
:104c10009046f0bd91680a4b5b6900251c0000239b
:104c20000a00a4185d41c8e7054b5b6900251c001c
:104c3000044a0023a4185d41bfe7014bdc61d9e7ba
:0c4c4000883e0020ff7f0000ffff000006
:020000040000fa
:104c4c0010b582b002f06cfc01a80124644204800f
:104c5c0003f0caf81d4803f0b3f802f02bf801f08a
:104c6c00b7f900f007fa02f061fe02f077fe184b7c
:104c7c0001221a70174b1c801e21174803f069fd86
:104c8c001e21164803f065fd1e21154803f061fd39
:104c9c001e21144803f05dfd1e21134803f059fd3d
:104cac006b46d91d00230b70fa22013392000f487a
:104cbc0001f082fe431c07d003f0fcfb0c4b187078
:104ccc000c4b187802b010bd0120fbe7b04100205e
:104cdc00973f0020de4000206840002098400020d4
:104cec008c4000208040002074400020f93a0000e5
:084cfc00b5410020963f0020a5
:020000040000fa
:104d0400274a002393611361264a082191710739c8
:104d14005171254a13831100920dcb681342fcd0c4
:104d2400224b1b689b0e9b028022920013431e4a57
:104d3400d3611100920dcb681342fcd01a4b0222ae
:104d44001a831900d201cb681342fcd0184b194abc
:104d54001a62190004224b681a42fcd1144a8c23ab
:104d64004021d15010004c31402243581a42fcd00b
:104d74000f4ad8234021d150100098314022435883
:104d84001a42fcd00a4aec234021d1501000ac3125
:104d9400402243581a42fcd0034b00221a75704734
:104da4000010004000040040000c0040206080001f
:084db400001800400701010096
:020000040000fa
:104dbc001222000082220000502200009e220000dd
:104dcc0050220000fa210000262200005022000090
:104ddc0050220000502200005022000050220000ff
:104dec00aa21000050220000502200005022000096
:104dfc00502200005022000050220000e22200004d
:104e0c0050220000502200002823000082220000c3
:104e1c00502200009e22000050220000fa210000c7
:104e2c0026220000502200005022000050220000d8
:104e3c005022000050220000aa2100005022000045
:104e4c00502200005022000050220000502200008e
:104e5c0050220000e22200005022000050220000ec
:044e6c0028230000f7
:020000040000fa
:104e7000f0b5c64600b58ab007001a236b4401227c
:104e800052421a808c2002f005fc061e3ed00568b6
:104e9000002d3dd0214c218889b21a236b441a88f9
:104ea00007abff2001f0d6fa290007a802f00efc9c
:104eb0008046208880b2a97800f068fe041e21d0c8
:104ec00011234246ab5443460133dbb20022ea547d
:104ed00043460233dbb23f0aef540496104b039370
:104ee00002921a236b440193022300932b00033296
:104ef000414607a8fef70cf9041e0ad1300002f063
:104f0000ebfc06e0300002f0e7fc02e0002400e0e9
:104f1000002420000ab004bc9046f0bdde40002012
:044f2000ff5d000031
:020000040000fa
:104f240010b582b00c00022826d008d906283ed03d
:104f340080282fd0052834d0002002b010bd0028ce
:104f440011d001280dd101a80b7803704b78437060
:104f540002f03aff0028f0d001ab1a88164b1a80f1
:104f6400ebe70020e9e7002002f0e1ff0028e4d0ad
:104f74002278124b1a70e0e701a80b7803704b7883
:104f8400437002f035ff0028d7d001ab1a880c4bd0
:104f94001a80d2e70b785a1e93410a4a13700120f3
:104fa400cbe70422084803f055fb0120c5e70a7843
:104fb400064b1a700120c0e7b0410020953f002045
:104fc400de4000201742002024410020bb41002085
:020000040000fa
:104fd40010b5294bda7d930613d43f231340264a98
:104fe400127e052a13d01100123901290fd9002a83
:104ff4002cd1214ad27c002a19d1062b17dd062395
:1050040034e052421f2313405b425bb2e7e71a4984
:10501400c97c002909d0032907d0052a01d0122a06
:1050240005d10a2b03dd0a2320e0042b1ddc9f227b
:105034001f2b13dd104ce27501f0beffe07d01f083
:10504400b5fe0100052001f0a1f810bd0a4ad27c8a
:10505400002aecd1032beadd032307e0002b05da59
:10506400803a134081321a43e4e7042380225242f7
:0c5074001a43d2b2dee7c046783f0020ad
:020000040000fa
:10508000f8b5294b1a682623d35c002b1dd00024c9
:10509000254f01262501906840190822ff2103f0c1
:1050a000e5fa3a689368591908000830ff230b7233
:1050b00083558370c37091688c4665442b730134ab
:1050c000e4b2d93bd35ca342e4d8174b1a68272338
:1050d000d35c002b27d00025134f0126ac006419a8
:1050e000a400d06800190822ff2103f0bffa3a6833
:1050f000d368191908000830ff230b728355837099
:10510000c370d168091908000c300b738355837084
:10511000c370d1688c46644423740135edb2d83b2a
:0c512000d35cab42dad8f8bdf8400020a8
:020000040000fa
:10512c0070b50500254b1c78002c09d05c780f3c21
:10513c0063425c41644204239c438634200070bd6e
:10514c00002003f0e7fa0420fdf704f80f2000f02c
:10515c0077ff012307228021152002f01dff102369
:10516c000022ff210e2002f017ff002003f0cafae4
:10517c000620fcf7efff062814d1104b04221a70fe
:10518c00ff21072000f0feff0d4b00221a70f023c8
:10519c009b00ab40f022920094466344db08094a22
:1051ac001360cbe7002307228021152002f0f4fec8
:1051bc0008210e2000f0e6ff8524bfe7b43f002055
:0851cc00b2410020f040002078
:020000040000fa
:1051d400002941d010b4041c4c40a44601230022f1
:1051e400002900d54942002800d5404288422cd3ea
:1051f40001242407a14204d2814202d209011b01e5
:10520400f8e7e400a14204d2814202d249005b00e3
:10521400f8e7884201d3401a1a434c08a04202d34b
:10522400001b5c0822438c08a04202d3001b9c088c
:105234002243cc08a04202d3001bdc0822430028ee
:1052440003d01b0901d00909e3e7101c6446002cb4
:1052540000d5404210bc704701b5002003f00cfba0
:1052640002bdc0460029f7d003b5fff7b3ff0ebc5b
:085274004243891a1847c046a5
:020000040000fa
:10527c00f0b585b00600029103921c0003f0e4fa2d
:10528c000190b36bf26b934208d30025022c05d02e
:10529c00019803f0e1fa280005b0f0bd4523f55c58
:1052ac006db2b76b22000299300000f01bfe6b1c34
:1052bc0005d001356db24523f5540125e8e7b36cf3
:1052cc00002b10d0022c02d10235002fe0d130007f
:1052dc0001f040fd01250028dad0039a002a12d0f3
:1052ec0001231360d4e7736a0125002bd0d0300062
:1052fc00243000f0bbfd0028cad0039a002a04d049
:0e530c0001231360c4e70125c2e70125c0e7b5
:020000040000fa
:02531a007047da
:020000040000fa
:10531c0070b582b0224b1b68002b34d01e6807205e
:10532c0000f08efe05006b46dc1d0121200001f013
:10533c005bf821781b4bd9704bb2002b21dbcc1cba
:10534c00e4b2341b8c340231c9b2200001f04cf8a9
:10535c0074606b46da79a418a570da7973689b18b7
:10536c005a78104b5a750e4c21680f4802f0d8fc35
:10537c008c2002f089f9206000280ad0002002f06d
:10538c00a7fc02b070bd01216b46981d01f02cf8f2
:10539c00f7e70930fcf7defe024b01229a70ede7cd
:0c53ac00ec400020b43f002044400020f2
:020000040000fa
:1053b80030b587b0fff746fc0e2833d00022002313
:1053c800049205931f4d0832290004a802f0c8ff73
:1053d800040001225242d31704920593093229008e
:1053e80004a802f0bdff002801d0002c1ed108211e
:1053f800684601f0bbfd002812d16946f030fcf781
:105408006bfd02ac2100f020fef778f80223237030
:1054180021000320fcf760fd21000320fef76ef851
:1054280007b030bd084b05221a70c7e708220549a6
:1054380002a803f00df902a9f020fcf74dfd0028a1
:0c544800dfd0ede708420020853e002088
:020000040000fa
:1054540030b5234b802252031a6012021a610121d3
:105464004422995401329954002254201a54052498
:1054740008301c542a3833251d5408301a5404307b
:105484001a544230174d1d50403019540f301a54dd
:10549400cd38d0255855013558550d355955013558
:1054a4005a552f3d5a5507355a5501355a55073522
:1054b4005c55fb348025ed021d5150341855513094
:1054c400ff304e3cff3c1c545420ff3019543831fb
:1054d400ff315a543a22ff32e339995430bdc04661
:0854e400002800400080008058
:020000040000fa
:1054ec0070b5050002f0ceff4523ec5c64b2002cd5
:1054fc001cdd2e0024360be06b6a002b16d030001e
:10550c0000f0b4fc00280ed1013c64b2002c0dd08c
:10551c00ab6c002bf0d0280001f01cfc0028f3d061
:10552c0003f03cf9f0e703f039f9ede74523ff22ee
:10553c00ea5403f063f802f0a5ff4423ec5c64b278
:10554c00002c04dd2b692e001036002b0ed14423c9
:10555c00ff22ea5403f052f870bd03f01ff9013c2e
:10556c0064b2002cf3d02b69002bf0d0300000f08b
:08557c007dfc0028f3d0f0e7ec
:020000040000fa
:10558400f0b5c64600b582b0009001911f4b1b6870
:105594003a229f5c002f37d0de6a32881c4b9a4235
:1055a40010d004240023321f904619480133dbb283
:1055b400bb4227d03119221d4546ad5a854203d03e
:1055c4001400f3e731000024009a0a800f4d2b6881
:1055d400db6a1b19019999703b232968cb5c013361
:1055e400dbb21100180001f0aff82a68d36a023068
:1055f4004621525c50431c19e070012002b004bce7
:105604009046f0bd0020f9e70020f7e7f8400020bd
:04561400ffff000094
:020000040000fa
:10561800f0b5ce4600b582b00193040a204b1e684f
:105628003b23f35ca34231d90f0abb4233d9ff2392
:10563800034232d1131c0f2a00d90f23ddb22000f8
:1056480002f0fcfb031e02d00020ab421fd963000e
:10565800994633694a469f542900200001f0e2fd2b
:105668000f490b681a694a44019b1d0953780f209a
:1056780083431d4355700b681a694a4451780f23b8
:105688000b4030210b4353700e3800e0002002b06d
:1056980004bc9146f0bd0020f9e70020f7e7c046ba
:0456a800f8400020a6
:020000040000fa
:1056ac0070b58ab00400ff23034232d0e53b6b4453
:1056bc0018801a236b441a881b4b9a4227d08c20d3
:1056cc0001f0e2ff051e22d00668002e1fd0174bfa
:1056dc00198889b207ab2200ff2000f0b5fe31001b
:1056ec0007a801f0edff0100082333540495104b7b
:1056fc000393002302931a336b4401930223009308
:10570c003300012207a8fdf7fdfc002807d00ab0e2
:10571c0070bd02f021fa1a236b441880c9e72800e7
:10572c0002f0d4f8f3e7c046ffff0000de40002093
:04573c008f61000079
:020000040000fa
:1057400030b583b080256d00184c194b01930423ac
:10575000009300232a0021001648fdf7c5f9210017
:105760000c31154b01930523009300232a001348a5
:10577000fdf7baf96d0021001831114b0193032395
:10578000009300232a000f48fdf7aef921002431d1
:105790000d4b01930123009300232a000b48fdf7d2
:1057a000a3f901f03bfa03b030bdc046f879000020
:1057b0003041002045880000344100203d88000031
:1057c0002c4100202d880000284100203588000051
:020000040000fa
:1057d00070b5041e3cd0c26a1e4b1b68db6a9a423d
:1057e0002ed28369002b05db1a4b1b68d96a05236f
:1057f0005b1a836193009b189b00174ad318626958
:105800009a4205d0134b1b68db6ae36201201ee05d
:10581000251d280002f0a0fb0e4b1b68db6ae3622b
:105820000e4a1268934201d90c4a13609800c018be
:105830008000094b1818290002f093fe012006e0b1
:10584000044b1b68406cdb6a98428041404270bd4b
:105850000020fce760410020ac3c00207c4100209f
:020000040000fa
:1058600070b5002817d01c4b07221a701b4b1b78f1
:10587000002b07d01a4b1b78002b03d0164b1b783c
:10588000052b10d0174b02221a70013a9a70002093
:1058900002f024fa70bd0522e021022002f0f0fea1
:1058a0000d4b1870e2e71920fcf75afc1928fad1c1
:1058b0000d4c80256d03a561183802f097fb6561da
