:020000040000fa
:10000000f87f0020999a0000eb4f00000b5d000084
:1000100000000000000000000000000000000000e0
:100020000000000000000000000000007fbf000092
:100030000000000000000000e19d00008db3000002
:1000400093700000937000009370000093700000a4
:10005000e18a00009370000093700000937000002c
:1000600093700000fd9200009370000093700000f8
:1000700093700000754800009370000093700000ba
:100080009370000093700000e9af000093700000cf
:10009000937000000000000000000000937000005a
:0c00a0009370000000000000937000004e
:020000040000fa
:1000ac00f8b5c046f8bc08bc9e467047a199000044
:1000bc00f8b5c046f8bc08bc9e467047799900005c
:020000040000fa
:0800cc005c5b00000100000074
:020000040000fa
:1000d400f0b59bb013930b6815900a938b680d9140
:1000e4000b930b694d681893cb68029313680893bc
:1000f4005368089806930022002306990af0d3f85f
:1001040000280dd10a9b5b073ad408200a9b0340c0
:1001140009930b9b0393099b002b0fd0202306e02c
:10012400802212069446069b634406932d23029a6a
:1001340013700b9b013b039301230993069b0899be
:100144005b005b08944a00291ed193421cd1029c97
:10015400139ba446099a413b624490491000192b11
:1001640010d80bf0affe02980bf02cfc0a9b020097
:10017400009302990b9b159807f04ffe1bb0f0bd3e
:100184002b23d4e70431ece7934203d810d1089b26
:10019400002b0dd0029c139ba446099a413b624458
:1001a4007e491000192b01d80831dae70c31d8e761
:1001b40000220023089806990af046fd0026784f8d
:1001c400002400283ed1040002e00134049e059f6f
:1001d4000022744b3000390003f016ff089a069b86
:1001e400049005910af040f80028eed0002304930f
:1001f40020e06d4b9c4214da049b002b11d10022a9
:100204006a4b0898069903f0fffe684b0890069124
:1002140030003900002203f0f7fe012306000f002e
:1002240004933000390000225e4b05f0e9ff06001c
:100234000f00013c32003b00089806990af033f89d
:100244000028d6d113980bf0e7fdc3b20c93002d10
:1002540000da8fe10493672b00d0ade0002d00d1cc
:1002640084e1231d02dbac4200daa1e06523b1e0a6
:10027400002200230e920f93fee006960797049b3c
:100284002600652b00d015e1002613e1129b002bfc
:100294000bd1002e09da029a14992e335354039b7e
:1002a4000137013b039301231293ea193b0094465f
:1002b400302102e0029ad15401339c45fad1039ac9
:1002c400eb19551b029a30305f1cd0546b1e0393fc
:1002d400002521e00d9b14971b691093053bbb423d
:1002e40000d8f0e0069a079b08980e9905f088ff5d
:1002f40006f0cefa109011910af03cfb092800ddbb
:10030400092010230a9a13400343bfd10c9b672b87
:10031400bcd1002ec9da01358020000684460e992e
:10032400089a61440b001098119900920193069a5f
:10033400079b0bf053fd80231b06cb1808900e93ec
:10034400069807990022174b05f05aff013e0690c4
:100354000791b4e00a9bdb0600d4b8e02e23029a8e
:10036400d3550137b3e020000a2106f043fd029b78
:100374003031013d595520000a2106f0f1fc039b60
:100384000400013b0393b2e0029b03991a5c5b18df
:100394001a540138dbe0c0460000f07fd0bd0000f5
:1003a4000000f03f00002440d4feffff0000504353
:1003b400002c0eda66230493049b0135662b0ad1c4
:1003c400002c02da002600246d4f0c9b672b00d012
:1003d4002d1966230493089b0e960f971293069b80
:1003e4001093002314930e9a0f9b1298109905f002
:1003f40007ff06f04dfa169017910af0bbfa199010
:100404008020000684461099129a61440b001698c5
:100414001799009201930e9a0f9b0bf0dffc802337
:100424001b06cb18129010930e980f99554b00226f
:1004340005f0e6fe149b0e900f91013314939d4238
:10044400d1d10022504b03f0dffd0e900f9102003a
:100454000b001298109909f026ff002800d007e736
:100464000e9a0f9b129810990af0eefb002803d005
:10047400199bdb0700d4fbe60e9a0f9b089806999c
:1004840002f0e8ff002208900e913e4b3000390044
:1004940003f0bafd089a0e9b0690079109f0c0fc80
:1004a400002800d1e9e6049b0134662b00d0e6e67f
:1004b40026000135731b0025099f16931295169b80
:1004c4009e4200d006e7129b002b00d142e7002693
:1004d400029bdb1906931e70049b652b2ad1189b83
:1004e4005d1e029b5e55b44201da64420136002c63
:1004f40000d038e7189beb1a0333002b00dd32e7fa
:100504006a1e2d23002e00d1023b0299023d8b541a
:10051400139b413b192b01d845230493029b591982
:10052400049b0b70039b023b0393af4202da0698d1
:100534000bf0c8fc03230a9a1340022b00d012e6e6
:10054400039b002b00dc0ee602980bf03bfa099ba0
:10055400834200dc18e7029a302194466344180071
:10056400039a0bf09ffb00230b93fce5012578e62f
:10057400062576e60c9b672bfad0049306251be729
:0c0584000000f03f000024400000144084
:020000040000fa
:10059000f0b599b014930b68566809934b681390a3
:1005a0000d938b68cf680c930b693100119313681e
:1005b000002208930898002309f077fe00280cd148
:1005c000099b5b0732d40820099b0c9d03400593cf
:1005d0000cd02023013d3b7006e080231b06f6185b
:1005e0002d233b700c9b5d1e01230593089a73001d
:1005f0005b08002a1cd1b04a934219d1149baf4c1e
:10060000059a413bb8182100192b00d9211d0bf088
:100610005bfc201d0bf0d8f9099b02000093390008
:100620000c9b139807f0fbfb19b0f0bd2b23d8e708
:10063000a14a934203d812d1089b002b0fd0149be0
:100640009e4c059a413bb8182100192b05d808315a
:100650000bf03afc20000c30dce70c31f8e7059b8e
:1006600005995a1c30237b54149b413b0e930e99e1
:100670005823192900d920330599bb540231ab1ee8
:100680000591079300220023089831000af0defa52
:10069000002800d160e10023894c06930293039463
:1006a0000d9b1093002b01da18231093029b039cdf
:1006b0000a930b9434000023089d129328000a9a91
:1006c0000b9b210005f09efd06f0e4f80a9a0b9bb7
:1006d0001690179103f09afc02000b0028002100ed
:1006e0000bf086fb774b05000c000a980b99002253
:1006f00003f08cfc129b0a900b9101330f930d9b1e
:10070000002b07da00220023280021000af09efabd
:10071000002806d1109b129a934200dd22e101339a
:100720000f9300220a980b99674b03f06ffc0a9015
:100730000b9102000b002800210009f0b6fd0028f3
:1007400000d011e10a9a0b9b280021000af07efae2
:10075000002806d0169817990af00ef9c30700d49e
:1007600002e10a9a0b9b0898310002f075fe129183
:1007700049000a904908002803d14f4b994200d103
:100780003ce70025059c10950895119b2600053b2c
:10079000a34230d9029a039b0a98129905f032fdc0
:1007a00006f078f8149015910af0e6f8031e00d0d0
:1007b000dfe0089a002a00d1dbe00135029a039bb2
:1007c0001498159903f022fc02000b000a98129964
:1007d0000bf00efb00220a9012913a4b02980399fb
:1007e00003f014fc089b0290039101330893089acc
:1007f0000f9b9342c9d1109b002b1ad1002d00d121
:10080000fbe00d9b002b00dcf7e0099bdb0700d52c
:10081000f3e02e2230213b191a702a19ba185970a8
:1008200001339a42fbd12c19ed43079b0134eb189d
:10083000079300263b191e700293119b5d1e069bb9
:100840007e55b34202da5b4206930136069b002bcb
:1008500000d0bbe0119beb1a013300d1b6e06a1e59
:100860002d23002e00d1023bbb540e9a023d502393
:10087000192a00d9203379190b70ac4202da029898
:100880000bf022fb0323099a1340022b11d1079b83
:100890009c1e002c0ddd38000bf096f8059b98424d
:1008a00000dba3e0f818220030210bf0fdf9002353
:1008b0000c933800aee6c0460000f07fc0bd0000db
:1008c0000000f03f0000b03f00002040069b029473
:1008d000039501330693029a039b1000190002f05e
:1008e000bbfd04000d0002000b000898310009f068
:1008f000dcfc0028ead0029a039b0898310009f03a
:10090000d4fc002800d1cbe60298039900223f4b8b
:1009100003f07cfb002200230af098f900280fd096
:100920000298039900223a4b03f070fb00220290d8
:100930000391374b0898310003f068fb0e000890d4
:10094000324b02980399002203f060fb069b029051
:100950000391013b0693cee700232e4c06900293b1
:100960000394b8e70f9ba8e6002300240a930b9496
:10097000f7e6109a002a0ad1089a002a07d02e22f8
:10098000ba55079a0134013a0792012210922e19a2
:10099000302201e03a550134b442fbd11800079ae5
:1009a0005730551b092b01dc303318000e9b192bd7
:1009b00006d820230343613b192b01d80bf035faed
:1009c0006b1e741cb85507930025f7e606980a219c
:1009d00006f012fa013d3031795506980a2106f0e9
:1009e000c1f9079b0690013b07932fe7079b3a5cf1
:1009f000023bfb181a54013850e7099bdb0600d470
:100a000017e72e233b55013413e7c0460000e03fb3
:080a1000000050430000f03f1c
:020000040000fa
:100a1800f8b5050001684b691878c84ad0701b18ea
:100a280058782123d0544b69997809025c780c4393
:100a380024b2a7b217801e1ddb781371300004f0b2
:100a48001bff3b074ed4361807231c40bb4b9c703a
:100a5800032c10d0012c00d0a3e1b84a2823d35c82
:100a6800002b00d1d3e1752b02d928237621d1544c
:100a7800b24bde62cbe131781a002023d154e1e198
:100a8800ae4a34230021d154c1e17178ab4a2c23fa
:100a9800d154bce1aa4c711c022220000bf0f6f8dc
:100aa800f378a370b3e17178a44a2c23d154aee152
:100ab800a34c711c022220000bf0e8f8a01cf11cca
:100ac80002220bf0e3f873792371a01db11d0222f5
:100ad8000bf0dcf8fb0400d499e1317a974a34230f
:100ae800d15494e1280009f0d7ffa7e1934a1d33b8
:100af800d35c042b0cd0072b0ad0924b1b78012b0c
:100b080000d141e1002b28d0032b00d993e110e05c
:100b180029008d480af014fa0af078fd8ee1894b15
:100b28001b78012b00d125e1002b16d0032b00d90f
:100b380081e107f0adfe814b9b78012b00d115e1d7
:100b4800032b00d077e17d4a1d33d15c082900d9f9
:100b580071e18b007d4ad3589f467d4b1b78002b53
:100b680000d08ce07b4b1b78022b3cd9032b00d0a8
:100b780061e1724b9b78012b2dd0002b2fd0032bda
:100b880000d058e16d4a1d33d15c072900d952e1e4
:100b98008b00714ad3589f46280009f0a3f94de10c
:100ba800280009f027f849e16c4b5b7a002b03d049
:100bb800280005f077ff41e103f0fcfc3be1280049
:100bc8000af032f93ae1280009f098fe36e1ee2001
:100bd80005f010ff2fe1280003f038fc2ee100207b
:100be80008f0eafe27e1554a9278012a43d0002a04
:100bf8000cd0032a00d01ee150492022885c082826
:100c080000d918e1820056498a589746554ad27c3d
:100c1800012a00d00fe1002b00d10ce1002004f0e4
:100c280095fb08e1280008f0e5ff4a4b1b78012beb
:100c380000d003e109f0b6fe00e1280007f016fc39
:100c4800fce0022b00d0f6e0280009f057fef5e0a2
:100c5800280009f047f9f1e0404b5b7a002b03d0fc
:100c6800280005f01fffe9e003f0a4fce3e02800fa
:100c78000af0daf8e2e0280003f0e8fbdee0032bf4
:100c880022d0042b02d0022b00d0d4e02b4b9b782f
:100c9800002b00d0cfe02f4b1b78032b07d0314b14
:100ca800db7c012b07d0280002f0ecfac6e001201b
:100cb80008f082fef3e7274b1b78013b012bf2d8a3
:100cc800012004f043fbeee71c4b9b78032b00d07c
:100cd800b1e01a4a1d33d35c082b00d0abe0224b9d
:100ce80018780af01ff8280005f0c2fca6e02800d2
:100cf80009f0f8f8a2e0280008f07cff09f052fe9d
:100d08009ce0164b5b7a002b03d0280005f0cafe46
:100d180094e003f04ffc8ee028000af085f88de09f
:100d28000c4b1b78022b00d085e0280009f0e6fd6b
:100d380084e0280007f09afb80e0c0469045002038
:100d4800bc45002055490020fc4700206076000083
:100d58005a4900205b49002084760000e4470020bf
:100d6800a4760000b046002060490020280003f067
:100d78006dfb63e0384b9b78032b05d0012b5ad1d0
:100d8800280003f063fb59e0334a2023d35c022b8d
:100d980051d1324b187809f0c5ff280006f076f9d2
:100da8004ce0002c4bd12e4c0222310020000af0de
:100db8006dffb278a270072313400322002b00d0e6
:100dc8001a1d501cb35c24492f228b540724210080
:100dd80019401f0922003a403b431c4202d03318f5
:100de8001d4c2363002902d049004018c0b2002ad4
:100df80002d0d2008018c0b2174a2823d35c83429d
:100e080000d83de61b1a3421535436189663154b07
:100e18001b78002b00d182e60f4b9b78032b00d167
:100e280064e6114a1278012aa8d0002a00d194e673
:100e3800032a00d87de6280009f02efef8bd032c11
:100e480000d04fe6044a2023d15c082900d949e69e
:100e58008b00064ad3589f46904500205e490020e3
:100e6800bc4500200f47002055490020c8760000e7
:020000040000fa
:100e7800104700201c000000000000008c450020e6
:100e880004000000000000005c480020040000008e
:100e9800000000009048002004000000000000004e
:100ea800d44700200e000000000000000d4700207d
:100eb8000100000000000000944800200400000029
:100ec800000000000e4700200100000000000000a4
:100ed800e44700200c0000000000000050460020fd
:100ee80034000000000000000f470020010000004f
:100ef80000000000984800200800000000000000e2
:100f08005449002001000000000000006048002053
:100f1800080000000000000090450020400000008c
:100f280000000000b0460020200000000000000083
:100f3800554900200300000000000000a0480020e0
:100f480004000000000000005849002002000000d2
:100f580000000000ee460020020000000000000033
:100f68005a4900200300000000000000f04700205c
:100f78001800000000000000684800200800000079
:100f880000000000084800200c00000000000000dd
:100f98005d4900200400000000000000a448002073
:100fa8000400000000000000614900200400000067
:100fb80000000000144800200c00000000000000a1
:100fc800654900200200000000000000a84400203d
:100fd80050000000000000006749002004000000e5
:100fe80000000000a84800200400000000000000e5
:100ff8002c4700201c00000000000000ac48002026
:101008000400000000000000204800200c00000040
:1010180000000000f04600201d0000000000000055
:10102800b048002004000000000000006b490020c8
:101038000100000000000000b44800200400000087
:1010480000000000e43f0020d8000000000000007d
:10105800402f0020a4100000000000002c480020b1
:10106800180000000000000084410020c0000000bb
:10107800000000006c490020010000000000000092
:10108800844600202c00000000000000e4420020fc
:101098000001000000000000d045002040000000d2
:1010a8000000000070480020080000000000000058
:1010b800444800200c00000000000000bc40002054
:1010c800c800000000000000b8480020040000002c
:1010d800000000006d490020010000000000000031
:1010e800504800200c0000000000000010460020be
:1010f800400000000000000044420020a000000062
:1011080000000000724900200200000001000000f9
:1011180001000000484500204400000000000000d5
:10112800bc480020080000000000000078480020ab
:101138000800000000000000c4480020040000006f
:1011480000000000c8480020140000000000000053
:101158006e49002004000000000000004844002000
:101168006000000000000000e247002002000000cc
:1011780000000000d04600201e0000000000000013
:10118800744900201c000000010000004d696372d2
:101198006f6368697020626561636f6e2064656d56
:1011a8006f203000aaaaaaaadc4800200400000088
:1011b8000000000000000020402f00000000000098
:1011c800e0480020140000000000000080480020d3
:1011d8000800000000000000f44800200c00000097
:1011e80000000000e443002064000000000000004c
:1011f80000490020140000000000000048470020bb
:101208002800000000000000144900201000000021
:1012180000000000704700201400000000000000db
:10122800244900200400000000000000844700203a
:1012380028000000000000002849002010000000dd
:1012480000000000ac47002028000000000000005b
:10125800384900200c0000000000000088480020e9
:1012680008000000000000004449002004000000bd
:1012780000000000f84400205000000000000000ba
:10128800484900200c000000000000000000000099
:10129800000000006666666666666666666666667e
:020000040000fa
:1012a8005e3a0000f83a00005e3a00005e3a00003c
:1012b8005e3a0000f83a0000f83a0000f83a0000f8
:1012c800f83a0000f83a0000f83a0000f83a00004e
:1012d800f83a0000f83a0000f83a0000f83a00003e
:1012e800f83a0000f83a0000f83a0000f83a00002e
:1012f800f83a0000f83a0000f83a0000f83a00001e
:10130800f83a0000f83a0000f83a0000f83a00000d
:10131800f83a0000f83a0000f83a0000f83a0000fd
:10132800f83a0000f83a0000f83a0000f83a0000ed
:10133800f83a0000f83a0000f83a0000f83a0000dd
:10134800f83a0000f83a0000f83a0000f83a0000cd
:10135800f83a0000f83a0000f83a0000f83a0000bd
:10136800f83a0000f83a0000f83a0000f83a0000ad
:10137800f83a0000f83a0000f83a0000f83a00009d
:10138800f83a0000f83a0000f83a0000f83a00008d
:10139800f83a0000f83a0000f83a0000f83a00007d
:1013a800f83a0000e0390000cc3900005e3a00004d
:1013b800d6390000ea390000f83900005e3a00002a
:1013c800f83a0000083a00001c3a00002a3a0000e7
:1013d800343a0000f83a00005e3a00005e3a000035
:1013e8005e3a0000f83a00003e3a00005e3a00001b
:1013f8005e3a0000123a0000943900005e3a00009c
:10140800b83900005e3a0000c2390000f83a00001e
:10141800f83a0000f83a0000f83a0000f83a0000fc
:10142800f83a0000f83a0000f83a0000f83a0000ec
:10143800f83a0000f83a0000f83a0000f83a0000dc
:10144800f83a0000f83a0000f83a0000f83a0000cc
:041668005e3a0000e6
:020000040000fa
:10166c00a02c0000b22c0000c82c0000da2c0000ca
:10167c00782b00008a2b0000a02b0000b22b00005e
:10168c00ec2c0000ec2c0000ec2c0000ec2c0000ee
:10169c00ec2c0000ec2c0000ec2c0000ec2c0000de
:1016ac00ec2c0000ec2c0000ec2c0000ec2c0000ce
:1016bc00ec2c0000ec2c0000ec2c0000ec2c0000be
:1016cc00ec2c0000ec2c0000ec2c0000ec2c0000ae
:1016dc00ec2c0000ec2c0000ec2c0000ec2c00009e
:1016ec00ec2c0000ec2c0000ec2c0000ec2c00008e
:1016fc00ec2c0000ec2c0000ec2c0000ec2c00007e
:10170c00ec2c0000ec2c0000ec2c0000ec2c00006d
:10171c00ec2c0000ec2c0000ec2c0000ec2c00005d
:10172c00ec2c0000ec2c0000ec2c0000ec2c00004d
:10173c00ec2c0000ec2c0000ec2c0000ec2c00003d
:10174c00ec2c0000ec2c0000ec2c0000ec2c00002d
:10175c00ec2c0000ec2c0000ec2c0000ec2c00001d
:10176c00ec2c0000ce2b0000c42b0000ec2c000055
:10177c00ec2c0000d82b0000e82b0000ec2c000017
:10178c00ec2c0000f22b00000a2c0000182c00009e
:10179c00262c0000ec2c0000302c0000422c000009
:1017ac00542c0000ec2c00006a2c0000742c00005f
:1017bc00ec2c0000fc2b0000222b00002e2b000038
:1017cc00402b00004e2b0000602b0000ec2c000086
:1017dc00ec2c00006e2b0000ec2c0000ec2c00001c
:1017ec00ec2c0000ec2c0000ec2c0000ec2c00008d
:1017fc00ec2c0000ec2c0000ec2c0000ec2c00007d
:10180c00ec2c0000ec2c0000ec2c0000ec2c00006c
:10181c00ec2c0000ec2c0000ec2c0000ec2c00005c
:041a2c008a2c000000
:020000040000fa
:101a30000023f0b506001500b1b007910393079994
:101a40000b78002b00d10de101235b420c9310ab0e
:101a500000240e9380230b940d940f930b5d002ba9
:101a600001d0252b2ad1002c06d02200300009f00d
:101a700059fb079b1b190793079b1a78252a00d04f
:101a8000e5e0013304930793022301219c461027cc
:101a9000079803782b2b1ad025d8202b1ad0232b6c
:101aa0001dd02a2b28d008f0a1fb0d90079b1a7897
:101ab000303a092a31d801330793f7e70134cde7eb
:101ac0000b9b05930b4301300b930790e0e7042336
:101ad0000b9a0fe00b9b0593059a08230ae00b9bda
:101ae00005933b43efe72d2bead0302bd9d162464b
:101af0000b9b05931343e6e72b6801301a1d1b6807
:101b000007902a600d93002b07da0b9a5b4205922f
:101b1000012205990d934a400b920b9bda0702d5df
:101b2000022293430b93079b1a782e2a0ed1002290
:101b3000581c0c9207905a782a2a28d1023307930e
:101b40002b681a1d1b682a6005930c9307a808f0e0
:101b5000f9fe079b070018780af060f9692800d1a0
:101b600083e035dc632800d1dde01bdc252800d1d3
:101b7000eae0612859d0049b0122079300235242d6
:101b80000c920b930d93784900930232e7e008f032
:101b90002dfb0c90079b1a78303a092ad6d80133ce
:101ba0000793f7e7642860d06728e4dc2a0039004f
:101bb00008a809f028f9002800d1b0e0079b0ba97c
:101bc0005a1c07921b7808aa3000fef783fa3de002
:101bd000702800d17de016dc6e2800d198e06f28d7
:101be000c9d12b000022390008a804f02dfc0028e0
:101bf00000d194e0079b08aa01330ba9300007939a
:101c000006f000fc22e0752840d078284fd07328d9
:101c1000b1d1802f00d082e0079b2a68013307935f
:101c2000131d2b601268002389e02a00390008a8e0
:101c300009f0e9f8002800d171e0079b0ba95a1cb4
:101c400007921b7808aa3000fef7a2fc2418039b19
:101c50001c19a34200dc84e04f22444b1a6001238c
:101c60005b420393039831b0f0bd2b000122390091
:101c700008a804f0e9fb002851d0079b08aa01330b
:101c80000ba93000079304f05ffedfe72b00002272
:101c9000390008a804f0d8fb002840d0079b08aa08
:101ca00001330ba93000079307f054facee72b005d
:101cb0000022390008a804f0c7fb00282fd0079b9a
:101cc0005a1c07921b7808aa0ba9300003f0f4f8fd
:101cd000bce72b000022f02108a804f0b5fb002887
:101ce0001dd0079b099a01330793089b13430dd11d
:101cf0001d4f1637380009f067fe390002000b9bb4
:101d000000930d9b300006f08af89fe77823dae70e
:101d1000039b39001a1908a82b0006f057fd079bf2
:101d20000133079393e7802ff9d1079b0133079382
:101d30002b681a1d1b682a6008aa137001230ba9bf
:101d4000300007f099fc81e7802fe8d10122079b42
:101d50000549013307930b9b049300930d9b1c31a2
:101d6000d0e703946be6c046d8b500005049002088
:020000040000fa
:101d7000f0b5de4657464e464546e0b58bb0814647
:101d8000076804ac18223900200009f083ff637c47
:101d90005a0705d4a24a1278a24909780a433ad1cf
:101da000069d079a9046aab20192db0703d504abc1
:101db0009b78022b37d09c4b049a1a423ed004ab3e
:101dc0005b789a46012b41d004ab9b789b46012b54
:101dd0003cd00e233b7004ab1a7c3a7200223a735b
:101de0009e7cbc1bb2345346022b3dd0032b00d14a
:101df0009ce00536f6b202a9502003f01dfa02abb2
:101e00001b8804aa92889a4200d1a4e05246002a74
:101e10004bd0a24641e004ab1a7c0023e1214846a6
:101e200009f01afb19e0814b9a42c4d104ab1a7c29
:101e30000023e821484609f00ffb0ee004ab1a7cb2
:101e40000023f521484609f007fb06e004ab1a7ca5
:101e50000023e821484609f0fffa0bb03cbc90464d
:101e60009946a246ab46f0bda31e9a460736f6b287
:101e700002a9532003f0e0f902ab1b88524613700d
:101e8000013c1b0a237002a9502003f0d5f902abd4
:101e90001b8804aa9288934262d05246941e02364e
:101ea000f6b22370013a1b0a137000215b46002b27
:101eb0005dd15f4a937d581c9075621e137004ab10
:101ec000587cc30779d401230b4304aa927c662a69
:101ed00002d980225201134304a94a7892038978d7
:101ee00089020a4313439bb2e21e1370a21e1b0a0f
:101ef000137073b2002b00da89e0043c26707c6119
:101f0000430704d54b4b1b78023b012b58d909f0f2
:101f100093fa4b467b6001220221380009f028f930
:101f200000286ad1444b01221a7096e70b3b9a466f
:101f3000a2440d36f6b202a9f02003f07df9029b0f
:101f400003995246137008061b0a0343090a01321b
:101f5000a242f7d197e75246002aa6d0a2461a001d
:101f60005b46002b01d1130097e7544640215b46a6
:101f7000022b19d0200008380836f6b203001d7075
:101f8000424612062d0a15434246120a9046013374
:101f90009c42f4d1841e0236f6b204ab9b882370b7
:101fa00001381b0a037084e7a01e0236f6b20570e2
:101fb000013c019b1b0a2370ece721230b4384e7c0
:101fc00049461e4808f0c0ff01280bd0184b1b895a
:101fd0007b811b4b187809f025f900280ad009f0fd
:101fe00019fb3ae704ab1a7c0023f121484609f0bb
:101ff00033fa32e708f01efcf1e704ab1a7c002349
:10200000e121484609f028fa09f0faf825e704ab7f
:102010001a7c0023e521484609f01efa1de7c04658
:10202000554900205a49002000ffff00ffff000033
:10203000b04600205b4900200f470020e447002005
:042040005d490020d6
:020000040000fa
:1020440030b583b00400844b00221a70872822d054
:1020540009d98c2821d08d3c63425c4164425c23c5
:102064001c40853402e0002800d085247b4b1b787b
:10207400022b14d0032b04d1794b1b681b78062b3d
:1020840012d0774b1d682b780e2b00d9e0e09b0013
:10209400744ad3589f46fd24e8e7e924e6e7704be9
:1020a4001b681b78072becd1200005f0d9f803b08e
:1020b40030bd2b7b002b11d000232b73002c01d0bf
:1020c400fd2c08d1280009f063f82b692a7a686886
:1020d400210009f0bff909f091f8e8e72b692a7aa1
:1020e4006868210009f0b6f9f5e7686808f0d6fcdd
:1020f40009f084f8dbe72b7b002b13d000232b7330
:10210400002c01d0fd2c06d1280009f041f86868a4
:10211400210002f023f8544b1b78012b07d009f05f
:102124006df8c4e76868210002f018f8f3e708f0d6
:102134003bfcf4e7f7232340e12b07d168684b4ac3
:10214400210009f057f909f059f8b0e7484b01228a
:102154001a70484bd9890901474b18780023019319
:102164000093464b002205f0a1fc00289fd00020dc
:1021740006f0f4fb9be7686808f090fc3c4b1b7886
:10218400012b00d193e72b78042b1cd0f7231c40a0
:10219400e12c2dd0364b03221a70364b9989090154
:1021a400354b1878002301930093354b002205f03a
:1021b4007dfc294b01221a70002800d177e700200a
:1021c40008f054fc73e7fd2c03d1294b02221a704a
:1021d400e3e72c4b1a6812682321117054701968b4
:1021e400294808f0affe09f009f809f011fa5ee792
:1021f40009f004f85be700232b73002c01d0fd2cbd
:1022040006d1280008f0c4ff6968200006f074fabb
:1022140008f0f4ff4be76968200006f06dfa08f057
:10222400edff44e7686808f039fcee2004f0e4fbb5
:1022340008f0e4ff3be76968200007f0e3fb08f0df
:10224400ddff34e7686808f029fc08f0d7ff2ee7c3
:1022540008f0d4ff2be7c0460f4700205a4900205e
:102264009c48002060a300005b490020ffff0000a1
:1022740055490020b04600205e49002061890000d5
:0c22840071aa00009848002008480020c3
:020000040000fa
:102290000d0a20536563757269747920546f6f6cf1
:1022a00020426f78204f6e2053414c203a204469e1
:1022b0007361626c656400000d0a204d4143204447
:1022c0006174612026205365637572697479204dad
:1022d0006f64756c65203a2044697361626c656453
:1022e000000000000d0a204869676820446174619d
:1022f000205261746520537570706f7274203a209b
:1023000044697361626c65640a0000000a4d4143d0
:10231000204646442044656d6f204170706c6963af
:102320006174696f6e0d0a0a000000004d696c6ce3
:10233000695f54696d657200537563636573730dee
:102340000a0000005472616e73616374696f6e20dd
:102350006f766572666c6f770d0a00005472616e5d
:1023600073616374696f6e20657870697265640d5e
:102370000a0000004672616d65205472616e736dd3
:102380006974746564204d4143204e6f2041636b36
:102390000d0a00004d4143204368616e6e656c205c
:1023a000416363657373204661696c7572650d0adc
:1023b00000000000256300000a0000000a2d2d2dfa
:1023c000427574746f6e20507265737365642d2d41
:1023d0002d0000000a556e69636173742064617496
:1023e00061203a5175657565206461746120666f7e
:1023f0007220646576696365202575200000000001
:102400002d526563656976656420556e69636173f5
:102410007420446174612d000a42756666657220fd
:1024200066756c6c000000000a42726f6164636143
:1024300073742064617461203a205175657565205c
:102440006461746120666f7220616c6c20646576d3
:1024500069636573200000002d52656365697665c8
:10246000642042726f6164636173742044617461bb
:102470002d0000000d0a53746172746564204e6f64
:1024800020626561636f6e206e6574776f726b207a
:10249000696e204368616e6e656c202d2025640d89
:1024a0000a0000000a202044656661756c7420688b
:1024b0006173206265656e2063616c6c65642020c9
:0424c0000000c04612
:020000040000fa
:1024c400f0b5de4657464e464546e0b585b00700b2
:1024d4000191904699460eab1e88b42008f000f98d
:1024e400051e00d1f7e004683800471eb841404299
:1024f400072398430c3020706560aa330422e25409
:1025040002a9532002f096fe02ab1a88931c9bb2d8
:10251400012b02d9019b002b2fd02700a93702a938
:10252400f02002f087fe029b03993a00b120844612
:10253400a444137008061b0a0343090a01326245c6
:10254400f7d1664b9b4612239a4602a9502002f00b
:1025540071fe4346002b1cd002ab1b88b34218d03b
:10256400ba1e51460231c9b28a461370013f1b0a92
:102574003b70170000239c4611e02700af37af23c0
:10258400e254120a0133e254554b9b460c239a46fb
:10259400dbe740235a461a43934601239c464346ad
:1025a400022b12d0032b4ed04e4b5b894e4a9342e2
:1025b40064d080221201594611438b46ba1e9046bc
:1025c4001370013f1b0a3b700ce09b025a461a43ee
:1025d4009346bb1e98464b461b8842461370013fe8
:1025e4001b0a3b706346002b62d14346023b1e70bc
:1025f4004346013b360a1e703a4a937d591c917535
:102604004246033a13704346053b5a461a70434602
:102614001a1f5b461b0a13704346063b52461a7048
:10262400636101220221200008f0a0fd00284dd1a1
:102634002e4b01221a70013005b03cbc90469946dd
:10264400a246ab46f0bdc0231b015a461a4393462b
:1026540008235b429846b84453460633dbb29a4695
:102664004b461b684a4651684246137008061b0acb
:102674000343090a01329742f7d1b3e7c0231b0190
:102684005a461a43934608235b429846b844534635
:102694000633dbb29a46134a1368506842461370f5
:1026a40001061b0a0b43000a0132ba42f7d199e72b
:1026b40002a9502002f0befd02ab1b884246023a3a
:1026c40013704246013a1b0a137095e7280008f07c
:1026d400e5f90020b0e70020aee7c04623c00000c3
:1026e40023800000b0460020feff00000f470020ba
:020000040000fa
:1026f40070b50d007f4b1c78042c00d1e7e04e2808
:1027040007d059280ad10a787b4b1a770024200075
:1027140070bd0a78784b1a750024f8e7754b5a781f
:102724000f2a00d1d5e00b2800d1c6e016d95328d2
:102734007cd047d84f2868d089245028e7d16e4ce4
:102744000b880978a1731b0ae373222006f008f8aa
:10275400e17b232006f004f80024d8e7022800d106
:1027640082e00cd9032800d19de0042828d1002c54
:1027740000d0b4e00c78002cc9d08824c7e7002826
:102784001cd1002c00d0a6e00b785c49d940c907c5
:1027940000d4a2e0082a00d1a3e0082000f0b0f899
:1027a4000828fad12b78544ad37400221f21082018
:1027b40008f05afd162000f0a3f8a8e78924a6e73c
:1027c4008924a4e7572840d08924f0289fd10a6897
:1027d4004b68494d2a70110a6970110ca970120ec8
:1027e400ea702b711a0a6a711a02120eaa711b0e70
:1027f400eb7124242978200005f0b2ff013501345f
:10280400e4b22c2cf6d1002481e70b783a4a5375b4
:10281400d27e934201d9384b5a75374b5b7d0022e7
:102824000f212f2008f020fd002470e7324c0b8884
:10283400097821731b0a6373202005f091ff617be3
:10284400212005f08dff002461e70b782a4ad37616
:10285400527d9a4201d9284a53750422f0212f202f
:1028640008f002fd002452e70878830612d43f23bf
:102874000340042b00dd0420802318431e4bd8752d
:1028840006f0e0ff030000220f21052008f0ecfc15
:1028940000243ce742421f2313405b425bb21133e6
:1028a400eada2f20e8e70b78134a937405226021b3
:1028b400082008f0d9fc002429e70b780e4a937508
:1028c400032208212e2008f0cffc00241fe78624d1
:1028d4001de781241be7862419e7882417e786244b
:1028e40015e7054ad37400221f21082008f0bcfc18
:1028f4000de7c0462c470020f046002000f8ff07f3
:020000040000fa
:1029040070b504007c4b5b780f2b07d00338c2b240
:10291400162a5fd89000794a125897460f286ed02d
:10292400754d00232b7108f08dfc08236b70082c67
:1029340000d1dde0032c00d1dce0201fc3b2152b55
:1029440048d898006e4b1b589f460321022005f07f
:1029540007ff0f2005f0f8fd10210e2005f000ff01
:10296400654c0f236370012008f053ff654b8022f0
:1029740052039a61232008f04cff60783fe05e4bdd
:102984005b78082b26d00821022005f0e9fe0120ff
:1029940008f03fff1ee0082b1cd00321022005f0a5
:1029a400dffe012008f035ff14e0534b5b78082b61
:1029b40026d00dd9162b01d0192b0bd108210220ba
:1029c40005f0cefe012008f024ff04f0c1fa01e076
:1029d400062bf3d0012005f0b7fd1f231840464b0a
:1029e400587063241d001f2809d1012005f0acfd97
:1029f4001f2318406870013ce4b2002cf3d170bd71
:102a040004f0a6fae6e73c4b5b78082b06d0092bca
:102a1400e0d00421022005f0a3fedbe704f098fadd
:102a2400d8e7354b5b78092b11d00cd81f24082b21
:102a3400d0d10621022005f093fe08f021fe2040ab
:102a44000628f6d1c6e7162b01d0192bc2d10821ce
:102a5400022005f085fe1f240621022005f080fed9
:102a640008f00efe20400628f6d1b3e7224b5b782f
:102a74001f24082b16d004d9092b04d0192ba9d153
:102a840001e0062ba6d10821022005f069fe1f24cf
:102a94001621022005f064fe08f0f2fd20401628fd
:102aa400f6d197e71621022005f05afe08f0e8fd5a
:102ab40020401628f6d18de70f4b5b78082b12d0f7
:102ac40005d9092b06d0162b00d083e702e0062b8c
:102ad40000d07fe70821022005f042fe19210220e0
:102ae40005f03efe76e71921022005f039fe71e774
:102af400200084e7082082e72c4700202c67000090
:082b0400886700000044004155
:020000040000fa
:102b0c0030b583b004000d00f02800d9e8e0830054
:102b1c00744ad3589f46744bdb7c0b70002003b077
:102b2c0030bd6946572002f081fb6b461b782b7039
:102b3c000020f4e702226d49280009f0a5f80020d6
:102b4c00ede76946592002f071fb6b461b782b7040
:102b5c000020e4e702226649280009f095f80020dd
:102b6c00dde7614b1b7e0b700020d8e76946042023
:102b7c0002f05cfb6b461b782b700020cfe769469c
:102b8c00052002f053fb02226946280009f07cf86c
:102b9c000020c4e76946062002f048fb6b461b7810
:102bac002b700020bbe76946072002f03ffb6b4609
:102bbc001b782b700020b2e74b4b1b7d0b70002059
:102bcc00ade7494b1b7c0b700020a8e7464b5a7ca9
:102bdc004849280009f058f80020a0e7424b5b7cdc
:102bec000b7000209be7404b9b7c0b70002096e702
:102bfc0002224149280009f047f800208fe70822fb
:102c0c003949280009f040f8002088e702223b49a6
:102c1c00280009f039f8002081e7334b9b7d0b70bd
:102c2c0000207ce769464e2002f000fb6b461b78c7
:102c3c002b70002073e769464f2002f0f7fa6b46c1
:102c4c001b782b7000206ae76946502002f0eefae0
:102c5c0002226946280009f017f800205fe7224b92
:102c6c00db7d0b7000205ae76946532002f0defa38
:102c7c0002226946280009f007f800204fe7694650
:102c8c00f02002f0d3fa08226946280008f0fcff75
:102c9c00002044e76946002002f0c8fa6b461b7816
:102cac002b7020003be76946012002f0bffa04229a
:102cbc006946280008f0e8ff002030e7694602204a
:102ccc0002f0b4fa6b461b782b70002027e769469c
:102cdc00032002f0abfa6b461b782b7000201ee72a
:102cec00f4201ce76c160000b0460020bc46002007
:102cfc00be46002050460020b8460020ba460020b0
:020000040000fa
:102d0c00f0b5c64600b58cb00500046806af1822b5
:102d1c002100380008f0b8ff04ae3100502002f05a
:102d2c0085fa7b8832889a420bd006aa527808a979
:102d3c000091e821280007f013f90cb004bc904670
:102d4c00f0bd656003232370b022a35406ab1a7c3c
:102d5c00b123e25404a9f02002f068fa049b05990f
:102d6c002200a8322600b036137008061b0a034353
:102d7c00090a0132b242f7d106ab5b78022b5ad06a
:102d8c002600a036089b099932002700a83713703b
:102d9c0008061b0a0343090a01329742f7d1192787
:102dac0004ab98461900502002f040fa43461b88a9
:102dbc00b21e1370721e1b0a1370424a937d591c6b
:102dcc009175f21e137006ab5b789b029bb2721f5f
:102ddc0063211170321f1b0ac0210b431370063e76
:102dec003770666100232373374b1b78023b012b32
:102dfc004fd806ab5b7c002b4bd006ab5a78022a23
:102e0c0025d0032a2ad12f4b0899039118688142a7
:102e1c002dd029002d4808f091f801282cd0294bf1
:102e2c001b8963812a4b187808f0f6f900282dd0fd
:102e3c0008f0eafb81e72600a636a433089ae25490
:102e4c00089b9bb21b0aa722a3541327a8e7089b35
:102e5c0003934b2bddd1099b002bdad106ab5b889e
:102e6c0008a90091e821280007f07af865e709998c
:102e7c005b689942cdd1f1e706aa5388527808a92c
:102e8c000091f121280007f06bf856e707f0ccfc15
:102e9c00cee708f0cbfa01220221286808f062f98b
:102eac00002803d10b4b01221a7046e706aa53885f
:102ebc00527808a90091e121280007f051f808f098
:102ecc0099f93ae7b04600205b490020e44700201e
:082edc005d4900200f470020b2
:020000040000fa
:102ee400f0b5c64600b584b001900f000293960079
:102ef400300002f079f8051e00d1bce0542002f045
:102f040073f8041e5ad005633200a521280008f086
:102f1400c9fe236b9846002f56d03b783422a35425
:102f2400002b09d0012321003431fa5cca54002a51
:102f340002d00133102bf8d143230022e2540a9d1e
:102f4400042d00d90425e56265640027a764231dc8
:102f54000393180009f008f82000183009f004f869
:102f6400246105235b1ba3616462e7645023e75477
:102f74000133e754301f40444a3b9843029a019975
:102f840008f008fb20600b9b002b00d01c6008f0ad
:102f9400e9fc3c4a1368013313603b4b1b68002b6c
:102fa40016d03a4b1b68002b17d1374b1b68db6ad2
:102fb400e26a934211d8344b1c600ee0280006f0fc
:102fc4006ff80120404258e034230022e254b6e76f
:102fd4002d4b1c601368012b23d02d4a1368013339
:102fe4001360e36a2b4a1268934201d9294a136099
:102ff4009800c0188000284b1818039908f06bfd3e
:1030040008f01efe214b1b680120002b35d01e4bff
:103014001b68da6ae36a9a422fd208f097fc01200f
:103024002be01d4d280008f04bfd2800143008f05b
:1030340047fd2800283008f043fd28003c3008f004
:103044003ffd2800503008f03bfd144e300008f0de
:1030540037fd134d280008f033fd124808f030fd09
:10306400114808f02dfd114808f02afd104b1e6090
:10307400104b1d60b1e70120404204b004bc9046ef
:10308400f0bdc04600490020f44800202449002037
:103094000c49002010490020e44300204847002048
:1030a4005c47002070470020984700208447002098
:0830b400f8480020fc48002050
:020000040000fa
:1030bc00f0b587b00600046804ad2900002002f0ca
:1030cc00b5f82a78604b1a702900042002f0aef88b
:1030dc002a785e4b1a70207a5d4b187062785d4bc3
:1030ec001a7061685c4b19605c4b657a1d705c4da5
:1030fc002e601b252570a2701b78e37000232372b1
:10310c002374584b1b78584a127813430fd100295b
:10311c0004d0564b194201d10e2812d9e823637002
:10312c003100534807f00aff08f06efa07e0e82375
:10313c00637031004e4807f001ff08f065fa07b0e4
:10314c00f0bd08f073f934684a4b0b221a70414bee
:10315c001b78022b0bd8002b18d100236374424b25
:10316c0001221a703100002000f068fee7e7032b03
:10317c005ed1b42007f0b0fa3f4b186000284cd059
:10318c00374b1968032000f059fed8e76b469d1d9c
:10319c0001235b422b8002af3900502002f046f82d
:1031ac003a88364b1a802900502007f043fc294bf3
:1031bc001b78012b1fd0b42007f08efa284b186017
:1031cc0000281bd0234b1b78022b22d0244a1368d7
:1031dc001b681b2119701f49087898701f490978c2
:1031ec00d9701d4909685960002119721974116848
:1031fc0000f024fea3e7204b1e60dce7e82363709d
:10320c0031001b4807f09afe07f0f4ff08f0fcf9b8
:10321c0095e7300007f03efcd8e7e82363703100f7
:10322c00134807f08bfe07f0e5ff08f0edf986e791
:10323c00e823637031000e4807f080fe07f0daffd8
:10324c0008f0e2f97be7c0465849002059490020b4
:10325c006349002064490020a448002062490020f2
:10326c0098480020554900205a490020ff0700f8d3
:10327c000848002061490020a0480020ee460020ac
:020000040000fa
:10328c00f0b5de4657464e464546e0b58db00500d6
:10329c00684b1b78023bfd22134200d171e00023e6
:1032ac0098460024644a177c04ab1f70528a5a80db
:1032bc00022f00d174e0604b9a69db690692079388
:1032cc0002ab99461900002001f0b0ff04ae4b464a
:1032dc001b7833746946042001f0a8ff6b461b78f9
:1032ec007374554b9a8d72822e229a5cd209327568
:1032fc0021229a5c72755b6ab3614e4b1b78023b60
:10330c00fd22134054d04c4b2f22985c020990465e
:10331c0034229b5c002b04d1484b1b7d002b00d02e
:10332c0075e0296817230b70434b9c461b794b7037
:10333c0004aa0b000833d0cad0c3d0cad0c350ca19
:10334c0050c32f236246d25c073bca5443461843f2
:10335c00430702d063461b6bcb62374b3422985c1d
:10336c00043a88549b6b4b632900354807f0e6fd03
:10337c0008f04af90db03cbc90469946a246ab46c3
:10338c00f0bd2e4b1b7d012b03d00023984600244f
:10339c0088e72c4b1b681b6898461c00103481e78f
:1033ac00002000219860d960234a128b1a8187e78c
:1033bc00224a127d012aa6d14246107a00282dd02d
:1033cc0004aa2149049e3140168ab346069eb4468f
:1033dc00079eb1461289924608e02289524500d1d7
:1033ec0091e720340133dbb2834214d0164a2668ad
:1033fc0032409142f5d1228a5a45f2d1022fecd0bb
:10340c00a2686245edd1e2684a45ead17be7280023
:10341c0007f040fbaee7042800d974e7202204a98a
:10342c00200008f031fc43461b7a013342461372ec
:10343c0069e7c0465a49002090450020b04600205c
:0c344c000848002098480020ff00ffff07
:020000040000fa
:10345800f0b40125ed070f005f405ad48b4200d12c
:10346800824205d950404240504059404b40594053
:103478004e18760ddf187f0d3bd0741c640529d0db
:10348800f41b352c26d80e0ddb022b43db0ac902b0
:103498002943c9121700202c1ed2e741e2405740a9
:1034a800e3415a40a340e3405a4000248018594160
:1034b8000ad3b21c520521d0c207012f624117005e
:1034c8004008cb0718434908013636054208af4182
:1034d80060417141f0bc7047203c06d01f00e741b5
:1034e800e3405f400024012a6741c0186141ebd3e3
:1034f800dfe7002eeed129400020ebe70136310549
:103508000020e7e7e742e5d10020c143090dc904df
:10351800e0e76b400e00871a9e4104d26e40c01b44
:10352800b141d21973414e18df18ac0ae642e9d20c
:10353800760d7f0d31d0f41b362ccbd8b4460e0d4a
:10354800db022b43db0ac9022943c90a012c32d802
:1035580004d1d4075208df073a435b08ef0a6442f4
:10356800904199411ed0002239424dd12419404141
:1035780049410124394204d10134001849413942f2
:10358800fad06246a24204d9361b013e3605891993
:10359800a0e7f10ac90700209ce736429ad100202b
:1035a800002197e70200224394d0b842ded20100fe
:1035b80020002024e3d1202c13dd203ce241170019
:1035c800a240e2405740e3415a40a340e3405a40fa
:1035d800012fbf410137174300227c429841914196
:1035e8000ce01700e741e2405740e3415a40a3404e
:1035f800e3405a407c429041994100220f0303d294
:10360800013e241940414941013e36054708ac4175
:0836180050417141f0bc704704
:020000040000fa
:10362000f0b5c64600b592b061492c31002007f0d4
:103630004ff9604b1b88002b3fd05f4b1b78002b52
:1036400005d0012b57d05c4807f09cfb35e002a960
:10365000574c230044330a0061cb61c261cb61c285
:1036600061cb61c2186810601b791371524daa7842
:103670000132002004f056fe5049230070330a0046
:1036800013cb13c203cb03c2198811809b789370ac
:103690000ea8022303704a4b43806988494a4b00b5
:1036a0005c18e400a45a04815b18db00d3181b7c6f
:1036b0007f2b06d8404807f065fb12b004bc90464b
:1036c000f0bd414c22780132d2b222703f49002035
:1036d00004f028fe0523019323780093374b17222b
:1036e0000ea9022003f0e4fe0028e3d13849083196
:1036f00007f0eef8dee702a9354c230018330a0084
:1037000061cb61c261cb61c261cb61c221cb21c2fd
:103710001b881380002004f005fe2849230048334d
:103720000a0013cb13c213cb13c21b781370214ba7
:103730001b88002b38d000240ead214b1e1c244bbf
:10374000082294466344984605e00134e4b2194bdc
:103750001b88a34228d902232b706e8063001b199b
:10376000db00184ad3181b7c7f2beed963001b1992
:10377000db009b5a2b81144f3a780132d2b23a7057
:103780001249002004f0cefd052301933b780093fd
:103790000a4b19222900022003f08afe0028d4d106
:1037a000414607f095f8d0e7034807f0ebfa84e7c5
:1037b00090230000e2470020d0480020d04600209f
:1037c00011110000484400206f4900201cbc00007b
:0437d00010240000c1
:020000040000fa
:1037d400f0b5de4657464e464546e0b589b00d681d
:1037e40069600b232b702c00b234574b5a7c0d2686
:1037f400002a59d1554b5b7a002b5ed1013c002342
:103804002370631e00221a70514b1b78033b5a1e0f
:1038140093415b429b034f4a944663444a4a127c59
:10382400012a00d175e0e21eff211170a21e1b0abd
:10383400137006af3900532001f0fcfc3b88464a64
:1038440093426ad0671f3b70043c1b0a2370802498
:10385400240202ab98461900502001f0ebfc4346c9
:103864001b88ba1e13707a1e1b0a1370364a937c87
:10387400591c9174fa1e13707b1f00221a703a1f90
:10388400240a1470063f3e706f6100220221280052
:1038940007f06cfc314b01221a7009b03cbc904615
:1038a4009946a246ab46f0bda41a16000d36f6b2f0
:1038b4002b49200008f0ecf99ce72a4b9a461c603f
:1038c400294f00239b463b70284b00935b46019392
:1038d40069461e4807f08af93b7899465b463b7077
:1038e400234b00936946194807f080f93b78524608
:1038f4001268013a49460901194311704a46920077
:103904009b185b00dbb23b70f618f6b2db43e4189d
:1039140077e7184a13439bb285e727000b3f063627
:10392400f6b204a9f02001f085fc049b05993a0045
:10393400033c137008061b0a0343090a0132a2421e
:10394400f7d1c024240284e7b0460020e4470020d5
:103954005b490020ff4f0000feff00000f470020de
:1039640050460020944800200e47002025a3000064
:08397400e9a200000080ffff42
:020000040000fa
:10397c0070b586b004000e001500f02800d9b5e033
:10398c008300604ad3589f460a785f4bda74002450
:10399c00002d08d05d4b1b78002b04d05a4bdb7ddf
:1039ac00002b00d1a6e0200006b070bd0a88564b53
:1039bc009a810024ece70a88534bda810024e7e76c
:1039cc000a78514b1a750024e2e70a784e4b5a7567
:1039dc000024dde70a784c4b1a740024d8e74a4bd4
:1039ec005a7c4b4808f050f90024d1e70b78342b63
:1039fc0000d97de0444a53740024c9e70a78424b4d
:103a0c009a740024c4e70a883f4b1a810024bfe74c
:103a1c00086849683c4b186059600024b8e70a886c
:103a2c00394b5a810024b3e70a78374b9a75002436
:103a3c00aee70b78344ad375002b06d007f0f6fcb2
:103a4c00012005f0d1fa0024a2e707f0d3fb0024f3
:103a5c009ee7fef749fe81283ad00024002800d0ca
:103a6c0096e76946572001f0e1fb02ae31004f208a
:103a7c0001f0dcfb04ac21004e2001f0d7fb6b46bf
:103a8c001878317824782200431aa34200dadcb289
:103a9c0001238340013b121b53439bb21a4a93816f
:103aac00002c0cd000220126300088401b189bb241
:103abc000132d2b201319442f6d1134a9381124aa7
:103acc00938914214b430b33ff33938100245fe71d
:103adc0007f0f8f931002000fef706fe002400285c
:103aec0000d055e7094b01221a70bae7f4244fe7ce
:103afc00e8244de7002006f0bff8044b00221a70b2
:103b0c0051e7c046a8120000b04600200d47002027
:043b1c0050460020ef
:020000040000fa
:103b2000f0b5ce46474680b587b0604b984603acab
:103b30005f4f43461b681d68002d25d0db681d685c
:103b400008f036f9200003f061f80600039a002a15
:103b500063d1a84226d301f0f3ff544b1b68db6806
:103b6000db689946181d07f0cafa24234a46d35c3d
:103b70005a073dd401229343233249468b544b4686
:103b80001b6a4846984716e008f012f9200003f037
:103b90003df80600039b002b3fd1464b1b681a687b
:103ba00053425a41a91b424b186805f03dfd01f0f4
:103bb000c7ff00282ed0260000223100386801f00f
:103bc000e3fd0028b5d02368002bf5dba5686b6901
:103bd000002b02d0281d07f092fa02a803f016f875
:103be0002368092be8d833689b00334ad3589f4693
:103bf0004b469b69e9182b003200484605f094ffbc
:103c00000028bcd0002300932a000021484605f07c
:103c100075fab4e707f09cfecde701f091ffcae723
:103c20002422ab5c01210b43ab546368aa69944620
:103c30006344190063680200280005f075ff00283e
:103c4000bad028002b6a98472423eb5c5b07b3d5d6
:103c50006368a9698c4663441a000023009300211d
:103c6000280005f04bfaa7e72422ab5c01218b4327
:103c7000ab54a1e72422ab5c01210b43ab54616838
:103c8000a961411803000200280005f04dff93e7e9
:103c90002423eb5c9a0704d5012293432332ab54cf
:103ca0008ae7280005f0fef986e7c0463049002083
:0c3cb0003c49002034490020b0b0000066
:020000040000fa
:103cbc00f0b5c64600b588b0050002ac1822016804
:103ccc00200007f0e1ff574b1d60e3789a1e012a94
:103cdc007dd8022b00d180e0534b0499059a1960d2
:103cec005a60022252425a8103a9502006f0a2fec9
:103cfc0007f09cfb2c68012323706560b022a35451
:103d0c0002ab1a7cb123e2546946f02001f08efa22
:103d1c00009b01992200a8322600b03613700806c9
:103d2c001b0a0343090a0132b242f7d1ff23a62230
:103d3c00a3540132a35402abdb78022b52d02600e1
:103d4c009e36394a1368516832002700a637137023
:103d5c0008061b0a0343090a0132ba42f7d1334b56
:103d6c0098461b276946502001f060fa6b461b8869
:103d7c00b21e1370721e1b0a13702b4a937d591cb2
:103d8c009175f21e1370731f23221a70321f434653
:103d9c001b0a1370063e377066610a2169440420c1
:103dac0006f048fe060009216944002006f042fe98
:103dbc000643f6b2002e2ad101220221200007f080
:103dcc00d1f900281bd11a4b01221a7026e0194a8e
:103ddc00e821280007f00afb20e002ab1a89124bfd
:103dec005a8181e72600a4360f4b5b89033aa35412
:103dfc001b0a0132a354104b98461527b2e70d4a03
:103e0c00e121280007f0f2fa07f0f4f906e0094a7c
:103e1c00e121280007f0eafa07f0ecf908b004bc3d
:103e2c009046f0bd98480020b046002023cc0000fe
:0c3e3c000f470020ffff000023c800001b
:020000040000fa
:103e4800f0b5c64600b582b0050088460c685749eb
:103e5800042006f0f1fd564b19781a2900d974e0b0
:103e6800544b1b78023bfd201840534b1e7d0b0022
:103e780000220192012715e0012e15d1227a042a89
:103e880012d9019b002b60d0494b19705de0626824
:103e9800da40174226d1591cc9b201330197dab268
:103ea8001a2a50d80028e7d0032df0d1227a002a08
:103eb800edd0019b002b01d03d4b19703f4d286878
:103ec80006f0eafd00232b60237a5a1e93415b42d9
:103ed800e9229343ea33637000232372404605f0d6
:103ee800fffa19e0019b002b01d0314b1970012d0d
:103ef80005d0032d06d12f4b03221a7002e02d4b5b
:103f080002221a702a49002006f096fd002807d1df
:103f180003f00af907f07afb02b004bc9046f0bd42
:103f2800264f386806f0b8fd00253d6007f064f9b3
:103f3800ea23637025724146214807f001f81d4bba
:103f48001d708520e4e71a4b1970012d0bd0002d48
:103f580003d0032db2d0c046dee70023637040468d
:103f680005f0befad8e7154d286806f095fd002340
:103f78002b60114b1b7d002b09d163701149502018
:103f880006f05afd104b186805f0aafac4e7237a20
:103f9800042b02d9fa236370f0e7002b02d0002328
:103fa8006370ebe7ea236370e8e7c04662490020e4
:103fb800614900205a490020b0460020a04800204e
:0c3fc80008480020ee4600209848002029
:020000040000fa
:103fd40008d1002806d1f54204d801d3002a01d122
:103fe4006d0d09d10020c143090dc904f0bdf9d1fb
:103ff4001242f7d1640df5d00020c14349054908a8
:10400400a6e000206146f0bdf0b50127ff070e00d1
:104014005e403e40b446be0a4c18dd18f442d7d286
:10402400f542e4d2640decd06d0dead06419c902f6
:104034003943460dc0023143db023b43db0a10b473
:104044008e4685b297b26f43140c6c433e0ca41990
:10405400260c2404bfb227439cb26c43a419190c48
:104064006943250ca4b249190d04090c6419000c08
:1040740095b245433e0c76193743bfb2360c150c46
:104084004543ad19a6b2240cad192e0437432e0caa
:1040940036199db24543ad19acb22e0c89191d0ccd
:1040a40045436d182e04290c3443704680b295b2f2
:1040b40045433e0c76193743bfb2360c150c4543c5
:1040c400ad19a6b2ad19240c2e0437432e0c3619a3
:1040d4009db24543ad19acb22e0c89191d0c454354
:1040e4006d182e043443290c75462d0c90b2684388
:1040f4003e0c80190604bfb23e43070ca0b23f1821
:10410400120c6a43d019020c80b2240ca4189ab27f
:104114006a43121914042043120c89181b0c6b43b4
:10412400c91810bc01273d05294203d1b6194041e5
:104134004941013cff077d0d013d641b0bdb6d0014
:10414400ac4209da240500254208be4168416141b8
:0a41540066463143f0bd54e74ee724
:020000040000fa
:02415e007047a8
:020000040000fa
:10416000f0b58db006000d0003680020002104901a
:104170000591586984782407a40fa31e012b28d920
:10418000544b1b78032b33d0022b00d07ce0022c45
:1041900048d0032c0ed1831d02aa0e30197811705d
:1041a000013301328342f9d1039a4b4b19680298cb
:1041b00081425bd00aaf3900502001f03df83b88c6
:1041c00004aa009222002900300005f0cffe0db0b5
:1041d000f0bd831d02aa07000e3719781170013354
:1041e0000132bb42f9d1029a039b04920593c7e7bf
:1041f0000aa9502001f020f8022c09d00aab1b8834
:1042000004aa009222002900300005f0affedee78c
:104210000aab1b8804aa009202222900300005f094
:10422000a5fed4e7c279120283792b494989134349
:104230009942bfd108ac2100532000f0fdff0aa92c
:10424000502000f0f9ff06a9f02000f0f5ff2388c8
:1042500002339bb2012b0dd90aab1b8808aa00922e
:1042600002222900300005f081feb0e75b6893422e
:10427000a0d1dfe70aab1b8806aa0092032229001f
:10428000300005f073fea2e708ac2100532000f0d7
:10429000d3ff0aa9502000f0cfff06a9f02000f0bc
:1042a000cbff238802339bb2012b09d90aab1b88b1
:1042b00008aa009202222900300005f057fe86e786
:1042c0000aab1b8806aa009203222900300005f0e1
:0c42d0004dfe7ce75b490020b04600205a
:020000040000fa
:1042dc0070b50500594c207fc0b2002800d0a7e073
:1042ec0000294ad0002d48d0554c6668072434402c
:1042fc00012c5ed051480560426000244461846109
:10430c0004614e488160002a58d04c4ad3604b4a15
:10431c00012111774a4a127e520705d5484a0420da
:10432c00916a117e0142fbd1454a518b0420014315
:10433c005183117e80200143117640498a68c968f7
:10434c00914203d93d48c168891a01613c494968c9
:10435c00490743d139498969914233d2374a1168a7
:10436c00087837498862916901319161002b5ad0e4
:10437c00334b04229a7501205be0002b59d0002aa4
:10438c0057d02f4c666807243440012c0cd02b4896
:10439c00056042600024446184610461002db0d149
:1043ac00264900208860aee7002943d1dc07eed512
:1043bc003fe0cc073dd4002be9d0f7e71f4a0021a2
:1043cc00d160a4e71d4a1269002acfd01c4aff21f4
:1043dc0091621a490a69013a0a61c7e7174a91685a
:1043ec0049089160116949081161d1684908d16087
:1043fc00916892698a420ad210490a681288d205d9
:10440c00d20d0f4882628a6901328a61aee70b4a8b
:10441c001269002aaad00a4a0a49916207490a6914
:10442c00013a0a61a2e7064b01229a75012000e0cd
:10443c00002070bdcc07b9d5fbe7c04684460020f0
:08444c0000180042ff0100000e
:020000040000fa
:1044540070b584b0534a2823d35c002b53d003682f
:10446400504a117921241955546a5c62167c5e7095
:10447400528a5a80b21e012a4dd900225a80002441
:1044840000259c60dd60484a12788a4255d0464a2d
:104494001170464a9c68dd681460556041494a7948
:1044a4001a74002400259c61dd61c9885982032a9d
:1044b4004fd0022a53d000225a823a4a2121545c16
:1044c40001395c540831545c5c54d26ada621122ba
:1044d4001a700100364806f035fd324b1b88db06a6
:1044e4005dd5344b1b78032b11d02e4b1b7c022b38
:1044f4003bd0032b45d00023009300220021002051
:10450400fdf7deff03e006f0c9fa06f077fe07f0d8
:104514007ff804b070bd002400259c60dd60022e8d
:1045240005d0204a9469d5699c60dd60abe71d4adb
:10453400128b9a600022da60a5e71c4a9c68156811
:10454400ac42a4d15268dc689442a0d106f0a6fa29
:10455400c3e7144a9168d2689961da61ade7114af8
:1045640012899a610022da61a7e702ab0d4a118b26
:104574001980528a0092022200210020fdf7a0ff38
:10458400c5e7084b9969da69029103925b8a009343
:1045940002ab032200210020fdf792ffb7e706f0eb
:1045a4002dfeb4e7904500205449002060480020c7
:0845b400084800205b490020cb
:020000040000fa
:1045bc00f0b5c64600b582b0b42006f08df8051ee5
:1045cc005ed004680d23237060600023237369465a
:1045dc00532000f02bfe6b461b8802339bb2012b41
:1045ec0052d9b0239846a0446946532000f01efed1
:1045fc006b461b88b022a3541b0a0132a35480279c
:10460c003f020b266946502000f010fe6b461b88bb
:10461c00394a528a9a424fd04246901e0236f6b21e
:10462c000370013a1b0a1370334b1b7c032b47d0ce
:10463c00831e314a128b1a700138120a02702f4aeb
:10464c003a432d49498a981e0170581e090a017077
:10465c002b48817d4f1c8775d81e0170591f0a701d
:10466c00191f120a0a70063b1e7063610022022198
:10467c00286806f077fd00283ad1224b01221a70e7
:10468c0002b004bc9046f0bdaa239846a0446946eb
:10469c00f02000f0cbfd009b019942462600b2367b
:1046ac00137008061b0a0343090a0132b242f7d100
:1046bc00c0273f021126a5e740231f434046b3e71e
:1046cc000300083b0636f6b20b498a69c9698c4669
:1046dc00190080460a7060460006120a02436046c2
:1046ec00000a844601318845f4d1074a3a43a8e7c9
:1046fc00280006f0cff9c3e7904500200108000020
:0c470c00b04600200f470020010c000008
:020000040000fa
:10471800f8b505f091fa002800d08fe04c4c9825a8
:1047280080231b066351802636026651db0a6361cb
:10473800a530400007f06bf89423e6500a2007f0f4
:1047480066f866510a24642007f061f81c2003f01b
:10475800f9fe0b2805d0013ce4b2002cf3d18527e3
:104768006de00821093803f0f9ff642007f04ff8dd
:1047780000221f21012007f0b0fa0a2408280cd0d3
:10478800642007f044f800221f21012007f0a5fa51
:10479800013ce4b2002cf1d1e1e72e4b08225a701b
:1047a8002d4806f05dff00284bd1012003f0b2f838
:1047b800071e4ad1294d08e0284c2600083607f084
:1047c800f3f820700134a642f9d1287869780902f3
:1047d8000843a97809040143e87800060843020061
:1047e8002879697909020843a97909040143e87914
:1047f80000060843030001204042c11712184b412c
:10480800591c01d1d31cd7d800221549002006f025
:10481800bffb002007f0b0fa02f0f4fab42005f06c
:104828005dff104b186000280dd0ff210e4807f0df
:104838000bfb084b822252045a6100e0852738009e
:10484800f8bd8527fbe78527f9e78527f7e7c04601
:10485800004400412c47002067490020f046002012
:0c486800d5be0000b04800202048002011
:020000040000fa
:1048740070b5504b586a504b9b7d002b54d04e4919
:104884004c68072214404b4b5a699d699e680b7e05
:104894005b0757d5896a474bdb68934252d9002c92
:1048a40043d1444b5b6899540132434b1b7edb0775
:1048b40016d5414b012119753e4b9b68ab4256d925
:1048c4003c4b1b68595d3c4b99620135394b1b6964
:1048d400002b01d1b54262d0364bdb68934262d0e3
:1048e400344b5a619d61344b1b7e9b0715d5334b6a
:1048f4001b78002b18d02f4bdb68934211d12d4b22
:1049040000221a772c4907240c752c490a701b6a5b
:10491400002b09d0274b1b6a9847284b1b78002b88
:1049240002d0254b02229a7570bd224b5b6854005d
:10493400e1520132204b1b7edb07d1d51e4b0121f6
:10494400197508e01c4b1b7edb07c9d51a4b0121e6
:104954001975002cb0d0174b9b68ab4213d9154b7b
:104964001b686900c95a144b99620135aee7114bb3
:104974001b69002baad0104bff2199620d490b69ca
:10498400013b0b61a2e70b4b1b69002b9ed00a4b2a
:104994000b49996207490b69013b0b6196e7074b89
:1049a400012119709ce7044b012199750331197594
:1049b40096e7c04684460020001800426c49002057
:0449c400ffff0000f1
:020000040000fa
:1049c800f0b5ce46474680b589b006008946150041
:1049d800984610ab1f780c6818222100684607f02b
:1049e80055f926704b466360a9230822e254013327
:1049f800e5542d0a0133e55406ad2900532000f093
:104a080017fc2b88ac22a3541b0a0132a354ae23f3
:104a18004246e2540a2e54d0ff22af23e254230028
:104a2800b133b02162541f7006a9f02000f000fcd9
:104a3800069b07992200a1322500a93513700806a4
:104a48001b0a0343090a0132aa42f7d106ad29001d
:104a5800502000f0edfb2b889f22a3541b0a013243
:104a6800a3540a2e37d021009d31ff239d22a35441
:104a78000132a354214b1c26881eff220270481eb7
:104a880002701f48827d551c8575c81e02704a1f1a
:104a980013700a1f1b0a137006390e706161012218
:104aa8000221200006f060fb0023002803d1154beb
:104ab80001221a700123180009b00cbc90469946cf
:104ac800f0bd6b461a8aaf23e2542300b133120ab1
:104ad800b0216254a7e721009731029b03980a008e
:104ae80026009f36137005061b0a2b43000a013265
:104af800b242f7d1044b2226bee7c04603d80000d5
:0c4b0800b04600200f47002023dc000016
:020000040000fa
:104b1400f0b5ce4600b584b00400009101921f00a8
:104b24000025442640e0a66b3a000099200003f0db
:104b340065faa36c002b11d0022f00d180e0200075
:104b440004f0e7fd002806d107f07af8012004b04c
:104b540004bc9146f0bd06f0f9fef5e7636a002b4c
:104b640004d10028f0d006f0f1feede72000243057
:104b740003f008fa0028e7d006f0e8fee4e707f0bf
:104b84005ff80020e3e702a806f0f8fe19e000232e
:104b9400a35520e045230022e25421e0200002f046
:104ba40013fb00f0cbff012506f0dcfea36be26be8
:104bb4009342b8d3022f3ad0019b002bdfd0002db3
:104bc400e1d007f03df807f0f1f806f0cbfea35d65
:104bd4005bb20133dbd04523e35c5bb20133d9d054
:104be40007f02ef801a902a803f0b8fa002817d19b
:104bf40006f0b8fea36b9946e56b07f021f8a945ca
:104c0400ccd120001030019906f08efd200002f076
:104c1400dbfa00f093ff0028c5d106f097fec2e747
:104c2400200002f0d1fa00f089ff00208fe7a66b84
:104c340002220099200003f0e1f9a36c002b8dd02f
:084c4400002e00d080e77ae7a2
:020000040000fa
:104c4c00f0b585b0040001910023009300254426a3
:104c5c00002743e0013ba3632368002b09d02369a1
:104c6c00002b0ad106f0e8ff01230093009805b051
:104c7c00f0bd06f063fda060f1e72000103003f0fa
:104c8c007df90028eed006f05dfeebe706f0d4ffd0
:104c9c0000230093eae702a806f06cfe28e0a75573
:104cac0030e04523e75432e006f058fea06802f0ed
:104cbc0089fc009006f0c0ff39e0200002f080fa79
:104ccc0000f038ff09e0200002f07afa00f032ff21
:104cdc00200006f0bbff002838d1012506f03efe6f
:104cec00a36b002bb6d1019b002bcfd0002dd2d0c3
:104cfc0006f0a2ff07f056f806f030fea35d5bb29b
:104d0c000133ccd04523e35c5bb20133c9d006f050
:104d1c0093ff01a902a803f01dfa0028d3d12000ab
:104d2c0006f094ff0028c8d02368002bbcd02000cc
:104d3c002430019906f0f4fc200002f041fa00f056
:104d4c00f9fe0028c9d106f0fdfdc6e7009b002b3b
:104d5c0000d18be706f002fe616a002903d0236bb9
:104d6c001b680521c91aa06803f056fc06f064ff05
:064d7c00002300937ae71a
:020000040000fa
:024d8200704778
:020000040000fa
:104d8400f0b5c64600b582b03f4b1b68002b00d07f
:104d940071e03e4b1a68013290461a60002a20d016
:104da4003b4b1b68434529d900230193394b1b68ae
:104db400da6a93009b189b00374a9b58012b01d950
:104dc40001230193354b1b68002b51d0344b1b68d6
:104dd400002b01d001230193019802b004bc90463a
:104de400f0bd304a1168304b1868106019602f4ac2
:104df40013680133136005f0d9ffd1e70023019351
:104e0400284e370017e0224b012252421a60cde7a8
:104e14001f4a1360cae79800c01880001e4b181878
:104e2400290006f058fe1b4b1b68e26adb6a9a42b3
:104e340001d30123019333681b68002be3d03b6843
:104e4400db68dc6863689845e2d3251d280006f01a
:104e540054f9a36a002b03d02000183006f04df952
:104e6400e36a134a12689342d5d9114a1360d2e710
:104e740001f0c1fdaae7094a13680133136001f088
:104e8400bafd00230193a7e7084900202849002020
:104e940018490020f4480020e44300202049002061
:104ea4002c490020f8480020fc4800201c49002020
:044eb4001049002081
:020000040000fa
:104eb800f0b58fb00d934b680c9006938b680d007e
:104ec8000793cb6816000393069b0f68002b44dbff
:104ed80002239f4310233b400a93079b04930a9b9a
:104ee800002b07d0726833681343079a02d0130067
:104ef800023b049308233b400b935a1e9341049aa8
:104f0800d31a04933368039a0893736809932b6937
:104f18005c1e00231355069b0593012c20dc0a9b7d
:104f2800002b51d10b9b002b03d02023039a013c6b
:104f380013552b6900975a1e039b121b19190c98bd
:104f4800079b02f068ff0c9b5b68db0503d56b6869
:104f5800984200da18000fb0f0bd01230693b9e7b4
:104f6800089b099a13430bd1059b002b08dc069a72
:104f7800049b9b1a059a9b18002bd0ddbb07ced546
:104f88000f23089a013c134018005730092b01dc05
:104f9800303318000d9b413b192b06d820230343bf
:104fa800613b192b01d806f03cff039b1855059b64
:104fb800013b0593099b1a07089b1b091a43099b88
:104fc80008921b090993a8e70cce1343aad0039ba8
:104fd8000d9a1b19013b1a703023039a023c135592
:024fe800a0e740
:020000040000fa
:024fea00fee7e0
:020000040000fa
:104fec00f8b5040006f0defe404b1b68002b15d014
:104ffc003f4b1e68344238d1002c3dd02200083281
:10500c00530702d007239a430832002a34d0394b75
:10501c001f68974233d338490c6835e0374a530739
:10502c0020d0d11d07239943bd239b019c4662448c
:10503c00531a0a003048026000214160d318083b23
:10504c00072083432948036059601960991a5160fd
:10505c0013602b4b1960274b1960254b80221206cd
:10506c001a60c5e7bd239b01e4e700f063fd06f081
:10507c007eff00252800f8bd00f05cfdf7e700f08e
:10508c0059fdf4e721001c006368934202d22368a7
:10509c00002bf7d1154b1b68a3421ed00d680835a9
:1050ac0023680b6063689b1a102b19d86368ff1a6e
:1050bc00104a1760124a1268974201d2104a1760c0
:1050cc001e436660002323600e4a1368013313608d
:1050dc0000f030fd002dcdd1c9e700f02bfdc6e767
:1050ec00a0184360626004f057f9dfe7dc48002049
:1050fc00e0480020e4480020804800200000002008
:08510c00e8480020ec480020f7
:020000040000fa
:10511400f0b585b0050004680c222100414806f072
:10512400b7fd02ae3100532000f084f832883e4bc4
:105134009a4211d03d4be2889a4207d1a3790f2bb2
:1051440004d8e27993420cd20f2a0ad0e82128002d
:1051540006f07afa05b0f0bdec21280006f074fae6
:10516400f8e7a37a012b39d0210008310b2005f090
:1051740065fc2c4b9b7a012b35d0a11d472005f0f3
:105184005dfca3790f2b3ed0e11d542005f056fca5
:1051940006f050f9234ca11c502005f04ffc611d72
:1051a400042005f04bfc0600211d002005f046fc00
:1051b4000700210008310b2005f040fc3e43f6b205
:1051c400002e04d1012003f013ff16281dd0e8217e
:1051d400280006f039fa06f011f8bbe7144b1b78e7
:1051e400012bc1d8b2e70f490b794a88497900915c
:1051f40029000820fff7e6fb0028abd1e8212800ae
:1052040006f022faa6e7e371bee7064b1b7a013be0
:105214005a4253410233064a13700021280006f013
:1052240013fad8e714480020ffff00000f0f000016
:045234005b490020b2
:020000040000fa
:1052380010b50b00072800d171e012d9502846d0cc
:1052480021d9572800d174e029d9592800d175e00f
:10525800f02830d108223c49180006f017fd00203c
:105268001ce003284ed006d8012838d045d8364a45
:10527800d27c0a7012e0052849d055d8324a127eed
:105288000a7000200ae04e2817d01bd80b2804d13a
:105298002d4a927d0a70002000e0892010bd532815
:1052a80007d12949087b4a7b120202431a80002051
:1052b800f4e78920f2e78920f0e7234a127d0a7093
:1052c8000020ebe7204a527d0a700020e6e71e49dd
:1052d800887bca7b120202431a800020dee71a4844
:1052e800027a417a09021143827a12041143c27a7e
:1052f80012060a431a600020d0e7134ad27d0a70ca
:105308000020cbe7104a927c0a700020c6e70e49bd
:10531800087c4a7c120202431a800020bee70a4a2f
:10532800927e0a700020b9e7074a527e0a70002070
:10533800b4e7054ad27e0a700020afe7024a127f1e
:0c5348000a700020aae7c046f0460020d2
:020000040000fa
:1053540070b584b00400404b9b8d5b0401d404b051
:1053640070bd02a95020fff765ff002c05d13a4b10
:105374005a8a02ab1b889a4205d0374b5a8a374b5c
:105384001b889a42ebd1344b1a8b354b5b899a427a
:10539400e5d0314a324b91691868814203d1d26910
:1053a4005b689a42dbd0b42005f09af9051ed6d08a
:1053b4000468052323706060b122a3546946f02079
:1053c400fff738ff009b01992200a9322600b1366d
:1053d400137008061b0a0343090a0132b242f7d1cb
:1053e4001f4a136851682200a1322600a93613709f
:1053f40008061b0a0343090a0132b242f7d169467f
:105404005020fff717ff6b461b889f22a3541b0aeb
:105414000132a354124a937d591c91759e22a354c0
:105424009c233b3ae25401336932e254023bb43ade
:10543400e25423009b336361173a0221200005f0f4
:1054440095fe002803d1074b01221a7087e7280034
:1054540005f024fb83e7c04690450020ee4600207b
:08546400b04600200f470020b4
:020000040000fa
:10546c0010b52b4b06225a6002f0e6fe01f01afd35
:10547c0006f0eefc02f090fa05f002f802f04efc99
:10548c0004f0cefd2349002000f0f2fd224c2060f8
:10549c00224b234a1a60234a5a60234a9a60234ab1
:1054ac00da60234a1a61234a5a61234a9a61234ad1
:1054bc00da61234a1a62234a5a62234a9a62234abd
:1054cc00da62234a1a63234a5a63234a9a63234aa9
:1054dc00da63234a1a64002314220121214803f0c1
:1054ec00d1fc0023142201211f4803f0cbfc1f49df
:1054fc00002002f0d9fe606006f02ef902f064fe86
:10550c0002f062fefff702f906f014fb10bdc04674
:10551c000040004120bf0000784800204845002092
:10552c009bb7000061b80000918e0000d9b200005a
:10553c0079b800009da8000007bd000049b8000024
:10554c0091b2000069a80000b5b20000f5bc0000e3
:10555c0069bb00007dbb000099ba0000e7be0000eb
:10556c00efbe0000bc480020c048002080be0000f8
:020000040000fa
:10557c0070b588b00500046818222100684606f052
:10558c0083fb394b1b78023b012b60d80223237021
:10559c00ae22a3546b461b8a0132a3541b0a013260
:1055ac00a3546b469a7cb123e25406a9f020fff772
:1055bc003dfe069b07992200a6322600ae361370dc
:1055cc0008061b0a0343090a0132b242f7d1029bb7
:1055dc00039922009e322600a636137008061b0a79
:1055ec000343090a01329642f7d106ae310050202e
:1055fc00fff71cfe33889c22a3541b0a0132a354d0
:10560c001a4a937d591c91759b22a3549923383abd
:10561c00e25401336932e254023bb13ae2542300c2
:10562c0098336361002323732900114805f086fc2d
:10563c00012810d00d4b1b8963810e4b187805f097
:10564c00ebfd00280cd005f0dfff08b070bd280082
:10565c0005f020faf9e72900f03003f049f8f4e7f7
:10566c0005f0e2f8efe7c0465b490020b0460020a9
:08567c00e44700205d49002015
:020000040000fa
:10568400f0b5de4657464e464546e0b583b0804603
:1056940000296ed00024384f0726384b9c469b4681
:1056a4009946009108e03648415549468a60621c93
:1056b4000134009991424cd97a683240012a16d0bb
:1056c4009d68da6892466a1c19698a4289410a40cf
:1056d40092453fd04146095d786830400128e2d1c7
:1056e4006d0027484155013500214155dde76246eb
:1056f4009568d26892466a1c614609698a42894162
:105704000a40924526d0610001204044405c0002da
:1057140082464046415c50460143019178683040de
:10572400012809d0694609798a46154950464855e1
:1057340059468a60621cbbe7690068460079104dcf
:10574400aa4668540d0001350199090a504641558d
:10575400eee7140005f0a2ff002802d0064b012258
:105764009a75200003b03cbc90469946a246ab46cd
:10577400f0bd0c00eee7c04600080042d045002012
:04578400644300205a
:020000040000fa
:10578800f0b5c64600b584b0040000910192002728
:1057980044260023984638e00099200005f004fece
:1057a8006b1ea3632369002b06d106f047fa01207c
:1057b80004b004bc9046f0bd2000103002f0e0fbbd
:1057c8000028f2d006f0c0f8efe706f037fa00201c
:1057d800eee702a806f0d0f821e04346a35528e0fa
:1057e80045234246e25429e0200001f0ebfc00f09a
:1057f800a3f909e0200001f0e5fc00f09df9200084
:1058080006f026fa002835d1012706f0a9f8a56b7d
:10581800002dc1d1019b002bd7d0002fd9d006f085
:105828000dfa06f0c1fa06f09bf8a35d5bb20133ee
:10583800d3d04523e35c5bb20133d1d006f0fef947
:1058480001a902a802f088fc0028d3d1200006f0a4
:10585800fff90028c8d020002430019905f062ff24
:10586800200001f0affc00f067f90028ccd106f069
:085878006bf8c9e700209be773
:020000040000fa
:10588000f0b583b00200384b1b889c469e0b1b056d
:105890009b0f181e0cd0507800021178014332483b
:1058a000c180022b20d0911c032b2ad00a00022099
:1058b000002e0fd06146490634d454782402117862
:1058c000214302320230c0b2274c6182022e2cd01a
:1058d000032e37d02449ca78053a121a28240a55cb
:1058e0000e744b7103b0f0bd050000200021a860cc
:1058f000e960d078000291780143298104320420c4
:10590000d6e7684617000a370d7805700131013077
:10591000b942f9d11449009c019d8c60cd600a32d6
:105920000a20c5e71049c988cee7270000240025d2
:10593000bc61fd615178090212780a433a83023052
:10594000c0b2c7e711006c4608320d7825700131ee
:1059500001348a42f9d1044a009c019d9461d561c9
:0c5960000830c0b2b6e7c04690450020f9
:020000040000fa
:10596c00f0b5d6464f464646c0b50426344da8463b
:10597c00a946334b9a465be04a46126a002a42d04b
:10598c00796a3b6a01209847bb6a01333a6b9342b0
:10599c009241134037e05246926a5200e0b22949d4
:1059ac0088540132240a8c543ce005f081fe244bcf
:1059bc001b6a002bddd0224b596a3c23204ad35c56
:1059cc00002b06d0936b9842d3d3136a00209847d0
:1059dc00cfe71b4b9b6b9842cbd1194b1b6a00201a
:1059ec009847c6e7184b1b7e334223d0164b1c8db1
:1059fc00a4b2ab6a01332a6b9342924113404246e4
:105a0c00d26a9a42b8d00e4ad26a9a42ead00e4a68
:105a1c00516807220a40012abdd0094a926ae4b2b1
:105a2c0008498c54064a93623423d35c002bbcd1b6
:105a3c00034fd7e71cbc90469946a246f0bdc04622
:0c5a4c00d0450020e44200200008004289
:020000040000fa
:105a5800f8b5374c656b63689b6998476061606906
:105a680005f044fea66ae76a0023020092197b410a
:105a7800a262e362002d51d02d4c3022a35c013389
:105a8800a35404f0b7fe646b002c06d0a368002b67
:105a980003d101250027264e11e0264d00242e00b3
:105aa80021e0e06904f03efbe368002b01d02069a7
:105ab8009847746b002cf0d0a368002bedd12575a6
:105ac8006575a378002b02d1e368002be9d120008b
:105ad80003f032f8a378002be6d16770e4e70134cd
:105ae8002035052c15d06301f3185b7d002bf6d00b
:105af8006201104b9b1800225a75ab78012beed12e
:105b080061010c4b59186b688b60280000f06af92a
:105b1800e5e7074930228b5c013b8b5406f0f0f92e
:105b2800040000f0edfc200006f0eef9f8bdc046d8
:085b3800104600204442002049
:020000040000fa
:105b4000f8b5ce46474680b505f00eff2e4b1a68d5
:105b5000013a1a601b680024002b03d12b4b1b68f1
:105b6000002b06d106f06ef820000cbc904699463a
:105b7000f8bd0024264eb046264f274b9946336881
:105b8000002b22d04346db68dc682000183005f08b
:105b9000b6fa251d280005f0b2fae36a3a68934286
:105ba00001d91c4a13609800c01880001b4b1818bc
:105bb000290005f092ff1a4b1b68db6ae26a9a42e1
:105bc000ddd301234a461360d9e7002c01d005f04c
:105bd000eff8144b1c68002c0ed00f4e012502e08c
:105be000013c002c05d0fff7cdf80028f8d0356037
:105bf000f6e70c4b00221a60074b1c68002cb1d052
:105c000005f0a6fe0124ade7084900200049002068
:105c100070470020104900202c490020e443002058
:085c2000f44800202049002097
:020000040000fa
:105c2800f0b5060085b00f0015001c008b4265d842
:105c380001d1824262d82100280005f0f1fe390026
:105c48000090300005f0ecfe009b21001b1a1a00a2
:105c58002800039305f0d8fe00900191019bbb42f8
:105c680046d802d1009bb34242d8009b019c039abc
:105c780001200021f61aa74105f0c6fe039b002b60
:105c88002fd0019b009adb0754081c43019b5d0839
:105c9800039b9c46bd422ed801d1b4422bd832007a
:105ca8003b00121bab41012692185b410027b61836
:105cb8005f4101235b429c446346002bead1801973
:105cc8007941039a04000d003000390005f090fe78
:105cd800039a06000f0005f097fe241a8d41200054
:105ce80029000a9b002b01d01e605f6005b0f0bd43
:105cf80000200021c2e7b6197f41dae70020002121
:025d0800efe7c3
:020000040000fa
:025d0a00fee7b2
:020000040000fa
:105d0c00f0b5ce46474680b583b00125314ca04650
:105d1c00314a304eff23994616e058002f4f3f5c16
