:020000040000fa
:10000000f07f002079200200452b02004b2b0200dc
:1000100000000000000000000000000000000000e0
:1000200000000000000000000000000091e9010055
:10003000000000000000000091ea0100d7ea010082
:10004000b7510100b7510100b751010015e6010099
:10005000b7510100b7510100b7510100b75101007c
:10006000b7510100b7510100b751010061290100ea
:10007000b75101002d8b0100b7510100b7510100ac
:10008000b7510100c9e80100b7510100b7510100a3
:10009000b7510100b7510100b7510100b75101003c
:1000a000b7510100b7510100b7510100b75101002c
:020000040000fa
:1000b000f8b5c046f8bc08bc9e46704759200200ff
:1000c000f8b5c046f8bc08bc9e4670473120020017
:020000040000fa
:0800d000080a02000100000013
:020000040000fa
:1000d80090b585b000af0200fb1d1a70fb1d1b78a0
:1000e8007b4a6c214b43d31808339a790121494242
:1000f8000a439a71da79012149420a43da71fb1df0
:100108001b78734a6c214b43d31808331a790121a1
:1001180049420a431a715a79012149420a435a71dc
:10012800fb1d1b78002b00d0d4e0694b04225a75c4
:10013800674b05229a75664b08221a77644b03228f
:100148005a77634b202205219954614b0022da75b6
:100158005f4b5c22002199545d4b22220721995460
:100168005b4b25331a7800210a401a705a7800210f
:100178000a40111c432252420a435a709a780021bd
:100188000a40111c2b2252420a439a70da78002145
:100198000a40111c35220a43da704d4b29331a786c
:1001a80000210a40111c802252420a431a705a78d0
:1001b80000210a40111c4f220a435a709a780021e4
:1001c8000a40111c12220a439a70da7800210a4068
:1001d800da703f4b2122012199543d4b2d220021f9
:1001e80099543b4b13331a7800210a401a705a78f5
:1001f80000210a405a70364b352200219954344b5d
:100208003b2200219954324b592203219954304bf7
:100218005822002199542e4b3d22002199542c4bf1
:100228003e22002199542a4b3f2200219954284b01
:100238004022995c00200140081c08210143995480
:100248009b185a7800210a405a70214b44220021f9
:1002580099541f4b4522012199541d4b46220021d8
:1002680099541b4b4722995c00200140081c6421cb
:10027800014399549b185a7800210a405a70144b2c
:10028800492201219954124b4a2201219954104bb9
:100298005122012199540e4b5222002199540c4ba2
:1002a80053331a7800210a40111c10220a431a708d
:1002b8005a7800210a40111c27220a435a709a785a
:1002c80000210a409a70da7800210a40da70e5e0e5
:1002d80084570020a64b812204219954a44b8222e2
:1002e80005219954a24b882208219954a04b8922b0
:1002f800032199549e4b8c22052199549c4b8322af
:10030800002199549a4bc82200219954984b8e2267
:100318000d219954964b9122995c00200140081cac
:100328008021494201439954991848780024204073
:10033800041c6720204348709918887800242040be
:10034800041c1f20204388709b18da7800210a407b
:10035800111c712252420a43da70854b9522995c2e
:1003680000200140081c80214942014399549918f2
:10037800487800242040041c4f20204348709918d6
:10038800887800242040041c1220204388709b1881
:10039800da7800210a40da70754b8d2201219954d0
:1003a800734b992200219954714b7f22995c00204c
:1003b800014099549b185a7800210a405a706c4b96
:1003c800a122002199546a4ba72200219954684b15
:1003d800c52203219954664bc42200219954644bc9
:1003e800a92200219954624baa2200219954604bfa
:1003f800ab22002199545e4bac22995c002001404d
:10040800081c0821014399549b185a7800210a4076
:100418005a70574bb02200219954554bb1220121f3
:100428009954534bb22200219954514bb322995cf1
:1004380000200140081c6421014399549b185a78f4
:1004480000210a405a704a4bb52201219954484b61
:10045800b62201219954464bbd2201219954444b9f
:10046800be2200219954424bbf22995c00200140d2
:10047800081c1021014399549918487800242040f9
:10048800041c2720204348709918887800242040ad
:1004980088709b18da7800210a40da70fb1d1b78f7
:1004a800334a6c214b43d3181e3300221a70fb1dac
:1004b8001b782f4a3c216c204343d3185b18002239
:1004c8001a700c23fa18fb1d1b78110018000ff086
:1004d8001dfa031e30d1fb1d1b78fa6824496c20d5
:1004e8004343cb180833ff2111400c001978002032
:1004f8000140081c211c01431970110aff2001400a
:100508000c00597800200140081c211c0143597037
:10051800110cff2001400c00997800200140081cb4
:10052800211c01439970100eda7800210a40111c31
:10053800021c0a43da7016e0fb1d1b780c4a6c217a
:100548004b43d31808331a7800210a401a705a7896
:1005580000210a405a709a7800210a409a70da7885
:1005680000210a40da70c046bd4605b090bdc046bd
:1005780084570020b0b584b000af0200fb1d1a708c
:100588000f257c19fb1d1b78180013f011fd0300c3
:1005980023707b191b78002b61d17c19fb1d1b78fc
:1005a800180000f001fd030023707b191b78002b55
:1005b80055d1fb1d1b782d4a58216c204343d31875
:1005c8005b189a78db781b0213439ab2fb1d1b78e1
:1005d800110018001af014fafb1d1b789ab20c25aa
:1005e8007b1912021a807b191b88214a944663449e
:1005f8009cb2fb1d1b781d4a5c216c204343d31819
:100608005b181b7803220821200016f0a0ff7b1935
:100618001b88184a944663449cb2fb1d1b78134af6
:1006280067216c204343d3185b181b785bb2dbb29d
:100638001900200016f0d5ff7b191b880e4a944636
:10064800634498b2fb1d1b786c22534360331a0035
:10065800064bd31801330222190016f0d9fe0f23d6
:10066800fb181b781800bd4604b0b0bd84570020a5
:10067800010300004103000043030000b0b584b04b
:1006880000af0200fb1d1a70fb1d1c78fb1d1b78b8
:1006980018000ef04dfb03001a00dd4958206c23aa
:1006a8006343cb181b18ff2111400c0099790020d7
:1006b8000140081c211c01439971120a90b2da7991
:1006c80000210a40111c021c0a43da71fb1d1b7829
:1006d800cf4a21216c204343d3185b181b78032b86
:1006e80028d1fb1d1b78ca4a5c216c204343d318d0
:1006f8005b1801221a70fb1d1b78c54a5d216c200e
:100708004343d3185b1802221a70fb1d1b78c04a9a
:1007180060216c204343d3185b1805331a780021f5
:100728000a40111c7f220a431a705a7800210a4095
:100738005a7028e0fb1d1b78b54a5c216c204343a6
:10074800d3185b1800221a70fb1d1b78b04a5d2174
:100758006c204343d3185b1804221a70fb1d1b78c6
:10076800ab4a60216c204343d3185b1805331a78d1
:10077800012149420a431a705a7800210a40111c83
:1007880007220a435a70fb1d1c78fb1d1b781800b2
:1007980002f04afc030019009d4a6c236343d318f6
:1007a80019330a1c1a700c23fa18fb1d1b78110048
:1007b80018000ff0abf8031e30d1fb1d1b78fa6848
:1007c80093496c204343cb180833ff2111400c0098
:1007d800197800200140081c211c01431970110ad6
:1007e800ff2001400c00597800200140081c211c02
:1007f80001435970110cff2001400c00997800202a
:100808000140081c211c01439970100eda78002160
:100818000a40111c021c0a43da7016e0fb1d1b7803
:100828007b4a6c214b43d31808331a7800210a40bd
:100838001a705a7800210a405a709a7800210a40a2
:100848009a70da7800210a40da70fb1d1b781800cc
:100858000ef01fff031c191c6e4820f0fbfd031c43
:100868001a1cfb1d1c78101c21f08fff03009ab284
:10087800674968206c236343cb181b18ff2111407c
:100888000c00197800200140081c211c0143197034
:10089800120a90b25a7800210a40111c021c0a431d
:1008a8005a70fb1d1c78fb1d1b7818000ef08afa85
:1008b80003001a00564958206c236343cb181b18b1
:1008c800ff2111400c00997800200140081c211cd0
:1008d80001439970120a90b2da7800210a40111c7b
:1008e800021c0a43da70fb1d1b78494a58216c2008
:1008f8004343d3185b189a78db781b0213439db2e5
:10090800fb1d1b78424a58216c204343d3185b18bf
:100918009a79db791b0213439ab2fb1d1c781100ec
:10092800280020f0e1fd03009ab239496c236343a3
:10093800cb183833ff2111400c00197800200140f2
:10094800081c211c01431970120a90b25a78002120
:100958000a40111c021c0a435a70fb1d1c78fb1d1f
:100968001b7818000ef09efa03001800284a672129
:100978006c236343d3185b18021c1a70fb1d1c7888
:10098800fb1d1b7818000ef001fb03001a0020491c
:1009980060206c236343cb181b180333ff211140dd
:1009a8000c00197800200140081c211c0143197013
:1009b800120a90b25a7800210a40111c021c0a43fc
:1009c8005a70fb1d1c78fb1d1b7818000ef0d4fb19
:1009d80003001a000e4960206c236343cb181b18d0
:1009e8000133ff2111400c00197800200140081c38
:1009f800211c01431970120a90b25a7800210a404a
:100a0800111c021c0a435a70c046bd4604b0b0bd52
:100a1800845700200000fa45b0b584b000af02004a
:100a2800fb1d1a70fb1d1b789ab20e243b1912028b
:100a38001a80fb1d1b786a4a5c216c204343d3183b
:100a48005b181b78002b13d03b191b88654a94460a
:100a580063449cb2fb1d1b78614a5c216c204343b4
:100a6800d3185b181b7803220821200016f06ffdad
:100a78000e243b191b885c4a9446634498b2fb1dbc
:100a88001b786c22534308331a00554bd31806338e
:100a98000222190016f0bcfc3b191b88534a9446e5
:100aa800634498b2fb1d1b786c22534308331a0029
:100ab8004b4bd31804330222190016f0a9fc3b193a
:100ac8001b884b4a9446634498b2fb1d1b786c22e2
:100ad8005a43434bd3180822190016f099fcfb1d02
:100ae8001b783f4a6c214b43d31817331b78002bd4
:100af80011d03b191b883f4a9446634498b2fb1daa
:100b08001b78374a6c214b43d31817331b780022c4
:100b1800012116f01cfdfb1d1b78314a6c214b434b
:100b2800d3181e331b78002b12d00e23fb181b88fa
:100b3800c82292009446634498b2012304221021eb
:100b480016f005fdfb1d1b78012118001ff01cfd88
:100b58000e257b191b88c5229200944663449cb2db
:100b6800fb1d1b781e4a3b216c204343d3185b189e
:100b78001b7801220e21200016f0e9fcfb1d1b78d2
:100b8800180000f03bf87b191b88c322920094469a
:100b980063449cb2fb1d1b78114a59216c204343c6
:100ba800d3185b181b7800220721200016f0cffc11
:100bb8007b191b88104a944663449cb2fb1d1b7822
:100bc800074a58216c204343d3185b181b7802222c
:100bd8000421200016f0bbfcc046bd4604b0b0bde1
:100be80084570020010300002d0300002f0300009c
:100bf80025030000210300000e030000b0b584b0f7
:100c080000af0200fb1d1a70fb1d1b789ab20e255f
:100c18007b1912021a807b191b884c4a944663443c
:100c28009cb2fb1d1b784a4a3d216c204343d318d4
:100c38005b181b7803220821200016f088fc7b191a
:100c48001b88444a944663449cb2fb1d1b78404a67
:100c58003e216c204343d3185b181b7800220121e6
:100c6800200016f074fc7b191b883a4a94466344aa
:100c78009cb2fb1d1b78364a3f216c204343d31896
:100c88005b181b7801220221200016f060fc7b19fa
:100c98001b88304a944663449cb2fb1d1b782c4a3f
:100ca80046216c204343d3185b181b780322082184
:100cb800200016f04cfc7b191b88274a9446634495
:100cc8009cb2fb1d1b78224a40216c204343d31859
:100cd8005b181a785b781b0213439bb2dbb21900ce
:100ce800200016f07efc7b191b881c4a944663443e
:100cf8009cb2fb1d1b78164a40216c204343d31835
:100d08005b181a785b781b0213439bb21b0a9bb2d1
:100d1800dbb20622c021200016f019fc7b191b88c3
:100d28000a4a944663449cb2fb1d1b78084a452135
:100d38006c204343d3185b181b780222042120003f
:100d480016f005fcc046bd4604b0b0bd6a030000fd
:100d5800845700206203000065030000610300005f
:100d6800f0b585b000af0200fb1d1a70bb1d0a1c50
:100d78001a70fb1d1b789ab20c26bb1912021a8036
:100d8800bb191b88d9229200944663449bb20f2555
:100d98007c19180016f084fc0300237028003b1807
:100da8003a1812780f218a431a70bb1d1b78002b42
:100db80011d03b183a1812780d210a431a70bb1942
:100dc8001b88184a9446634498b2002304221021d1
:100dd80016f0bdfb12e00f22bb18ba1812780821d2
:100de8000a431a700c23fb181b880e4a9446634466
:100df80098b201230422102116f0a9fb0c23fb183a
:100e08001b88d9229200944663449ab20f23fb1898
:100e18001b781900100016f0e4fbc046bd4605b06b
:100e2800f0bdc0460103000080b584b000af0200e9
:100e3800fb1d1a70bb1d0a1c1a70bb1d1b785bb208
:100e48000e2b03ddbb1d0e221a7007e0bb1d1b789d
:100e58005bb2113302dabb1def221a70fb1d1b783f
:100e6800154a6c214b43d3181833ba1d12781a70df
:100e7800fb1d1b78104a6c214b43d31818331b7881
:100e88005bb2dab20f217b1811321a70fb1d1b7886
:100e98009ab20c203b1812021a803b181b88153393
:100ea800ff3398b27b181b7800221f2116f04ffbe6
:100eb800c046bd4604b080bd8457002090b587b0b9
:100ec80000af0200fb1d1a7017243b1900221a708c
:100ed800fb1d1b782c4a6c214b43d31820335a79bd
:100ee800997909020a43d97909040a431b7a1b062e
:100ef80013433b61fb1d1b78234a6c214b43d318da
:100f080028335a78997809020a43d97809040a4398
:100f18001b791b061343fb60fb681c49180020f073
:100f28001ffb0b1e03d03b1985221a7024e0fb1d02
:100f38001b78002b14d13b69154a93420bd93b69a6
:100f4800144a934207d83b69134a934214d93b6920
:100f5800124a934210d81723fb1885221a700be007
:100f68003b690f4a934203d93b690e4a934203d91e
:100f78001723fb1885221a701723fb181b781800f3
:100f8800bd4607b090bdc04684570020a861000048
:100f98005f4c371700f7cb3c80fb651ebf986e2e61
:100fa800ff170d8fe0330794b0b588b000af02008b
:100fb800fb1d1a70fb1d1b789ab21a23fb1812022c
:100fc8001a8019257c19fb1d1b781800fff776ff7e
:100fd800030023707b191b78002b00d040e2fb1d17
:100fe8001b78bb4a6c214b43d31820335a79997923
:100ff80009020a43d97909040a431b7a1b061343d9
:10100800fb61fb1d1b78b24a6c214b43d318283374
:101018005a78997809020a43d97809040a431b794e
:101028001b0613437b61fb1d1b789ab21223fb1826
:1010380012021a80fb1d1b78012b04d1fb69a54afb
:1010480094466344fb61fb69a349180020f04cfafd
:1010580003009ab20e217b181a8012243b191b88b0
:101068000633ff339bb279180222180016f0d0f924
:101078007b699949180020f037fa03007b613b1916
:101088001b880533ff339bb27a69d2b2110018006e
:1010980016f0a7fafb1d1b788d4a21216c204343cb
:1010a800d3185b181b78032b00d017e1fb1d1b78a6
:1010b800874a22216c204343d3185b181b78032be3
:1010c8003ed1fb1d1b78824a6c214b43d318103349
:1010d800da781b791b0213439bb2032b20d9fb1d23
:1010e8001a787b496c235343cb1810330333197890
:1010f80000200140081c0321014319705978002081
:101108000140597072496c235343cb181033da7875
:101118001b791b0213439ab20c23fb181a80cae0ee
:10112800fb1d1b786a4a6c214b43d3181033da78bd
:101138001b791b0213439ab20c23fb181a80bae0de
:10114800fb1d1b78624a22216c204343d3185b188d
:101158001b780d2b52d1fb1d1b785d4a6c214b432c
:10116800d3181033da781b791b0213439bb21a2b5e
:101178000dd8fb1d1b78564a6c214b43d3181033ee
:10118800da781b791b0213439bb20a2b24d8fb1d68
:101198001b784f4a6c214b43d318103303331a780a
:1011a80000210a40111c0b220a431a705a780021a8
:1011b8000a405a70fb1d1b78454a6c214b43d318d3
:1011c8001033da781b791b0213439bb20b3b9ab29c
:1011d8000c23fb181a806ee0fb1d1b783c4a6c211f
:1011e8004b43d3181033da781b791b0213439bb295
:1011f8000b3b9ab20c23fb181a805ce0fb1d1b7892
:10120800334a22216c204343d3185b181b78072be1
:1012180051d1fb1d1b782e4a6c214b43d318103338
:10122800da781b791b0213439bb20a2b0dd8fb1dde
:101238001b78274a6c214b43d3181033da781b7973
:101248001b0213439bb2002b24d1fb1d1b78204aa1
:101258006c214b43d318103303331a7800210a400a
:10126800111c01220a431a705a7800210a405a7048
:10127800fb1d1b78164a6c214b43d3181033da78c0
:101288001b791b0213439bb2013b9ab20c23fb1838
:101298001a8010e0fb1d1b780d4a6c214b43d318b4
:1012a8001033da781b791b0213439bb2013b9ab2c5
:1012b8000c23fb181a801a23fb181b880833ff33ea
:1012c8009bb20c22b9180222180016f0a1f8bce053
:1012d8008457002000d197a6a861000010257c192a
:1012e800fb1d1b7818000ef01bfd03002380fb1d5f
:1012f8001b785f4a6c214b43d3181033da781b797b
:101308001b0213439bb27a1912889a421ed8fb1dfe
:101318001b787a191288013a92b255496c204343d6
:10132800cb1810330333ff2111400c00197800202b
:101338000140081c211c01431970120a90b25a7806
:1013480000210a40111c021c0a435a70fb1d1b781d
:10135800474a22216c204343d3185b181b78042b7f
:1013680060d1fb1d1b78424a21216c204343d318ce
:101378005b181b78022b55d1fb1d1b783c4a6c214e
:101388004b43d3181033da781b791b0213439bb2f3
:10139800002b02d1374bfb6120e0fb1d1b78344a40
:1013a8006c214b43d3181033da781b791b02134393
:1013b8009bb2012b02d1304bfb610fe0fb1d1b7868
:1013c8002b4a6c214b43d3181033da781b791b0254
:1013d80013439bb2022b01d1284bfb610a243b1912
:1013e80000221a80fb692649180020f07df80300c6
:1013f8009ab20e217b181a801a257b191b8806338e
:10140800ff339bb279180222180016f001f87b19f5
:101418001b880833ff339bb239190222180015f0d4
:10142800f7ff12e01a23fb181b880833ff3398b222
:10143800fb1d1b786c22534310331a000c4bd31836
:1014480003330222190015f0e3fffb1d1b780d4a38
:10145800d35c032b04d1fb1d1b78180001f086fa1e
:101468001923fb181b781800bd4608b0b0bdc0464c
:1014780084570020e034c133f01fcb3308e6d33360
:10148800a8610000a458002090b585b000af3a606c
:10149800fb1d021c1a70bb1d0a1c1a70fb1d1b7851
:1014a800012b07d9ea4cbe239a00ea49ea482300ef
:1014b80021f00af90f23fb1800221a70bb1d1b78b4
:1014c800f22b00d945e29a00e44bd3181b689f46db
:1014d800fb1d1b786c22534320331a00e04bd318b2
:1014e800591c3b681422180021f09efa36e2fb1db5
:1014f8001b78db4a6c214b43d3181033da781b79fd
:101508001b0213439ab23b681a8027e2fb1d1b7823
:10151800d34a21216c204343d3185b181b78032b33
:1015280014d1fb1d1b78ce4a6c214b43d3180833ca
:101538001a78597809020a43997809040a43db782a
:101548001b0613431a003b681a6007e20f23fb18b7
:10155800f4221a7002e2fb1d1b78c14a6c214b432e
:10156800d318183300229a563b681a70f6e1fb1d0f
:101578001b78bb4a6c214b43d31819331a783b6844
:101588001a70ebe1fb1d1b78b54a57216c204343c9
:10159800d3185b181a783b681a70dfe1fb1d1b78bb
:1015a800af4a6c214b43d31838331a785b781b0247
:1015b80013439bb2dab23b681a70cfe1fb1d1b786c
:1015c800a74a3a216c204343d3185b181a783b6822
:1015d8001a70c3e1fb1d1b78a14a67216c204343a5
:1015e800d3185b181b785bb2dab23b681a70b5e1a6
:1015f800fb1d1b789a4a3b216c204343d3185b1888
:101608001a783b681a70a9e1fb1d1b78944a3d21a2
:101618006c204343d3185b181a783b681a709de115
:10162800fb1d1b788e4a3e216c204343d3185b1860
:101638001a783b681a7091e1fb1d1b78884a3f2194
:101648006c204343d3185b181a783b681a7085e1fd
:10165800fb1d1b78824a40216c204343d3185b183a
:101668001a785b781b0213439ab23b681a8075e1bb
:10167800fb1d1b787a4a44216c204343d3185b181e
:101688001a783b681a7069e1fb1d1b78744a45217a
:101698006c204343d3185b181a783b681a705de1d5
:1016a800fb1d1b786e4a46216c204343d3185b18f8
:1016b8001a783b681a7051e1fb1d1b78684a402173
:1016c8006c204343d3185b18da791b7a1b02134347
:1016d8009ab23b681a80fb1d1b783c68604a482117
:1016e8006c204343d3185b18012220009b180a2260
:1016f800190021f099f931e1fb1d1b78584a6c213a
:101708004b43d3185033da78197909020a435979c7
:1017180009040a439b791b0613431a003b681a60a5
:101728001ce1fb1d1b784e4a59216c204343d318fa
:101738005b181a783b681a7010e1fb1d1b78484a41
:1017480058216c204343d3185b181a783b681a70e9
:1017580004e1fb1d1b78424a20216c204343d31827
:101768005b181a783b681a70f8e0fb1d1b783c4a36
:101778006c214b43d31815331a783b681a70ede087
:10178800fb1d1b78364a6c214b43d31816331a7845
:101798003b681a70e2e0fb1d1b78314a6c214b4311
:1017a800d3181c331a783b681a70d7e0fb1d1b78d6
:1017b8002b4a6c214b43d31812331a783b681a70a2
:1017c800cce0fb1d1b78264a5c216c204343d318d0
:1017d8005b181a783b681a70c0e0fb1d1b78204a1a
:1017e80060216c204343d3185b18da781b791b02fd
:1017f80013439ab23b681a80b0e0fb1d1b78184a65
:1018080060216c204343d3185b185a789b781b02dd
:1018180013439ab23b681a80a0e0fb1d1b78104a5c
:101828006c214b43d3181d331a783b681a7095e026
:10183800fb1d1b780a4a6c214b43d31810331a78c6
:101848005b781b0213439ab23b681a8086e0c04655
:10185800cc620100785a0100c45a0100e85a01001c
:1018680084570020fb1d1b78404a6c214b43d3183a
:101878001b331a783b681a7070e0fb1d1b783b4ad3
:101888006c214b43d3181e331a783b681a7065e0f5
:10189800fb1d1b78354a6c214b43d31808339a79c2
:1018a800db791b0213439ab23b681a8056e0fb1d92
:1018b8001b782e4a6c214b43d31808331a795b796d
:1018c8001b0213439ab23b681a8047e0fb1d1b7842
:1018d800264a6c214b43d31818785c78240220439d
:1018e8009c7824042043dc782406204301001879de
:1018f8005c79240220439c7924042043db791b066d
:1019080003431a003b6819605a6027e0fb1d1b78e7
:10191800164a6c214b43d31817331a783b681a7050
:101928001ce0fb1d1b78114a3c216c204343d31853
:101938005b181a783b681a7010e0fb1d1b780b4a7d
:1019480035216c204343d3185b181a783b681a700a
:1019580004e00f23fb18f4221a70c0460f23fb186b
:101968001b781800bd4605b090bdc04684570020be
:10197800f0b58bb000af3a60fb1d021c1a70bb1d9e
:101988000a1c1a70fb1d1b78012b07d9e14cfe239a
:101998009a00e149e148230020f096fe2723fb182e
:1019a80000221a70fb1d1b78dd4ad35c012b02d183
:1019b800812300f0befefb1d1b78d94ad35c002ba7
:1019c80002d0862300f0b5fefb1d1b789ab22423b3
:1019d800fb1812021a80bb1d1b78f22b01d900f0ec
:1019e8008dfe9a00cf4bd3181b689f46fb1d1b78b2
:1019f8006c22534320331a00cb4bd318591c0c23a9
:101a0800fb181422180021f00ff8fb1d1b786c221c
:101a1800534320331a00c44bd318013339681422b6
:101a2800180021f001f80823fa18fb1d1b78110093
:101a380018000df06bff031e0fd0fb1d1b78ba4a70
:101a48006c214b43d318103303331a7800210a4012
:101a58001a705a7800210a405a70fb1d1b7818002a
:101a6800fef70cfe27257c19fb1d1b781800fef7d6
:101a780081fd030023707b191b78002b01d100f036
:101a880042fefb1d1b786c22534320331a00a64be1
:101a9800d31801330c22b9181422180020f0c4ffff
:101aa800fb1d1b781800fef7e9fd00f02cfe3b68d3
:101ab8001a882723fc18fb1d1b781100180000f05a
:101ac8007dfe0300237000f031fe3b681a78232165
:101ad8007b181a707b1800229a56fb1d1b78110080
:101ae8001800fff7a1f900f021fe3b681a782723b8
:101af800fc18fb1d1b781100180000f06cff030098
:101b0800237000f013fe3b681a78fb1d1b7892b215
:101b180085496c204343cb183833ff2111400c0012
:101b2800197800200140081c211c01431970120a71
:101b380090b25a7800210a40111c021c0a435a70bc
:101b4800fb1d1c78fb1d1b7818000df08ffe030091
:101b58001a00754958206c236343cb181b18ff21c2
:101b680011400c00997800200140081c211c0143f9
:101b78009970120a90b2da7800210a40111c021cee
:101b88000a43da70fb1d1b78674a58216c204343cf
:101b9800d3185b189a78db781b0213439ab2fb1da3
:101ba8001b781100180018f02bff00f0bffdfb1d7b
:101bb8001b783a6814785c4a3a216c204343d3185e
:101bc8005b18221c1a70fb1d1c78fb1d1b78180063
:101bd8000df04cfe03001a00534958206c23634350
:101be800cb181b18ff2111400c00997800200140e8
:101bf800081c211c01439970120a90b2da7800215e
:101c08000a40111c021c0a43da70fb1d1b78464a65
:101c180058216c204343d3185b189a78db781b0251
:101c280013439ab2fb1d1b781100180018f0e8fe48
:101c380000f07cfd3b681a78fb1d1b7854b23a4ac9
:101c480067216c204343d3185b18221c1a70242385
:101c5800fb181b88354a944663449cb2fb1d1b78cd
:101c6800314a67216c204343d3185b181b785bb259
:101c7800dbb21900200015f0b4fc00f057fdfb1d85
:101c88001b783a681478284a3b216c204343d318c0
:101c98005b18221c1a7024257b191b88c522920008
:101ca800944663449cb2fb1d1b781f4a3b216c2061
:101cb8004343d3185b181b7801220e21200015f02e
:101cc80046fcfb1d1b78184a21216c204343d3187e
:101cd8005b181b78022b01d000f017fdfb1d1b7849
:101ce8001800fef7cbfc7b191b88104a9446634406
:101cf8009cb2fb1d1b780c4a67216c204343d31808
:101d08005b181b785bb2dbb21900200015f069fc88
:101d180000f0fbfcd8620100785a0100c45a0100a7
:101d28005c580020b45e0100845700204103000085
:101d3800fb1d1b783a681478ec4a3d216c2043431c
:101d4800d3185b18221c1a702423fb181b88e84a36
:101d5800944663449cb2fb1d1b78e44a3d216c20e9
:101d68004343d3185b181b7803220821200015f081
:101d7800eefbfb1d1b78dd4a21216c204343d31861
:101d88005b181b78002b01d000f0c1fcfb1d1b78f1
:101d98001800fef773fc00f0bafcfb1d1b783a68cc
:101da8001478d24a3e216c204343d3185b18221c76
:101db8001a702423fb181b88ce4a944663449cb2ad
:101dc800fb1d1b78c94a3e216c204343d3185b187e
:101dd8001b7800220121200015f0b9fb00f0a6fcb9
:101de800fb1d1b783a681478c04a3f216c20434396
:101df800d3185b18221c1a702423fb181b88bd4ab1
:101e0800944663449cb2fb1d1b78b84a3f216c2062
:101e18004343d3185b181b7801220221200015f0d8
:101e280096fb00f083fcfb1d1b783a681288af49cb
:101e380040206c246343cb181b18ff2111400c0071
:101e4800197800200140081c211c01431970120a4e
:101e580090b25a7800210a40111c021c0a435a7099
:101e6800fb1d1b78a14a2f216c204343d3185b1814
:101e78001a78fb1d1b781100180012f027fbfb1db8
:101e88001b789a4a21216c204343d3185b181b788e
:101e9800002b01d000f03dfcfb1d1b781800fef75d
:101ea800edfb00f036fcfb1d1b783a6814788f4a6e
:101eb80044216c204343d3185b18221c1a70fb1d65
:101ec8001b78180012f0d6fc00f030fcfb1d1b78c4
:101ed8003a681478854a45216c204343d3185b1827
:101ee800221c1a702423fb181b88814a94466344d9
:101ef8009cb2fb1d1b787d4a45216c204343d318b7
:101f08005b181b7802220421200015f020fb00f04a
:101f18000dfcfb1d1b783a681478744a46216c2026
:101f28004343d3185b18221c1a702423fb181b8800
:101f3800704a944663449cb2fb1d1b786b4a462149
:101f48006c204343d3185b181b7803220821200018
:101f580015f0fdfa00f0eafbfb1d1b783a681288c1
:101f6800624940206c246343cb181b180733ff21b8
:101f780011400c00197800200140081c211c014365
:101f88001970120a90b25a7800210a40111c021cda
:101f98000a435a7000f0cafbfb1d1b786c2253439e
:101fa80048331a00514bd318013339680a221800f4
:101fb80020f03afd00f0bafbfb1d18783b681a6860
:101fc8004a496c234343cb1850330333ff21114054
:101fd8000c00197800200140081c211c01431970cd
:101fe800110aff2001400c00597800200140081c0c
:101ff800211c01435970110cff2001400c009978f5
:1020080000200140081c211c01439970100eda7849
:1020180000210a40111c021c0a43da7086e3fb1dea
:102028001b783a681478314a59216c204343d318f5
:102038005b18221c1a7024257b191b88c322920066
:10204800944663449cb2fb1d1b78284a59216c2096
:102058004343d3185b181b7800220721200015f092
:1020680076fafb1d1b78214a21216c204343d318a3
:102078005b181b78012b00d04de3fb1d1a78222634
:10208800bb191a496c2042438a18183212781a7000
:10209800fb1d1b781800fef7f1fa2723fc18fb1d1f
:1020a8001b78180011f084ff03002370bb1900226d
:1020b8009a56fb1d1b7811001800fef7b5fe7b1918
:1020c8001b880d4a944663449cb2fb1d1b78074a43
:1020d80067216c204343d3185b181b785bb2dbb2d3
:1020e8001900200015f07dfa15e3c046845700203a
:1020f8006a0300006203000041030000fb1d1b7817
:102108003a681478dd4a58216c204343d3185b1889
:10211800221c1a702423fb181b88d94a944663444e
:102128009cb2fb1d1b78d54a58216c204343d31819
:102138005b181b7802220421200015f008fafb1d09
:102148001b78ce4a21216c204343d3185b181b7897
:10215800012b00d0e1e2fb1d1b781800fef78efa78
:102168002723fc18fb1d1b78180011f021ff030022
:102178002370d2e2fb1d1b783a681478bf4a2021ed
:102188006c204343d3185b18221c1a70cee2fb1d47
:102198001b783a681078b94a6c214b43d318153329
:1021a800021c1a70c2e23b681a78fb1d1b78b349ff
:1021b8006c204343cb181c331b789a4204d927233d
:1021c800fb18e8221a70b1e2fb1d1b783a681078f8
:1021d800aa4a6c214b43d3181633021c1a70a5e285
:1021e8003b681a78fb1d1b78a4496c204343cb1825
:1021f80016331b789a4203d33b681b78082b04d903
:102208002723fb18e8221a7090e2fb1d1b783a6816
:1022180010789a4a6c214b43d3181c33021c1a704d
:1022280084e23b681b78012b00d178e22723fb1856
:10223800e8221a7073e2fb1d1b783a6814788f4afb
:102248005c216c204343d3185b18221c1a7024238a
:10225800fb181b888b4a944663449cb2fb1d1b7871
:10226800864a5c216c204343d3185b181b780322f1
:102278000821200015f06bf9fb1d1b787f4a5c21b3
:102288006c204343d3185b181b7801225340dbb200
:10229800002b0ad0fb1d1b78784a5d216c20434334
:1022a800d3185b1804221a7040e2fb1d1b78734a8e
:1022b8005d216c204343d3185b1802221a7035e263
:1022c800fb1d1b783a6812886c4960206c246343b4
:1022d800cb181b180333ff2111400c00197800207c
:1022e8000140081c211c01431970120a90b25a7847
:1022f80000210a40111c021c0a435a7016e2fb1df9
:102308001b783a6812885d4960206c246343cb18b7
:102318001b180133ff2111400c00197800200140df
:10232800081c211c01431970120a90b25a78002126
:102338000a40111c021c0a435a70f7e1fb1d1b7866
:102348003a6810784d4a6c214b43d3181d33021c50
:102358001a70ebe1fb1d1b784b4ad35c002b56d15e
:10236800fb1d1b783a681078444a6c214b43d318fc
:102378001e33021c1a7024243b191b88c8229200a1
:102388009446634498b2fb1d1b783c4a6c214b432e
:10239800d3181e331b780422102115f0d8f8fb1d22
:1023a8001b78364a6c214b43d3181e331b78002bfd
:1023b80012d03b191b88d02292009446634498b2ed
:1023c80000230322082115f0c2f8fb1d1b78012108
:1023d80018001ef0d9f8a4e12423fb181b88d0228a
:1023e80092009446634498b201230322082115f011
:1023f800aef8fb1d1b78254ad35c052b00d190e174
:10240800fb1d1b78002118001ef0bef889e1272368
:10241800fb1886221a7084e1fb1d1b783a68128823
:1024280016496c204343cb180833ff2111400c0098
:10243800997900200140081c211c01439971120a56
:1024480090b2da7900210a40111c021c0a43da71a1
:102458002423fb181b880e4a9446634498b2fb1d3c
:102468001b786c22534308331a00044bd3180633e5
:102478000222190014f0ccff58e1c046845700200e
:102488000e030000010300005c580020a85800203b
:102498002d030000fb1d1b783a681288a7496c20a1
:1024a8004343cb180833ff2111400c001979002051
:1024b8000140081c211c01431971120a90b25a7973
:1024c80000210a40111c021c0a435a712423fb18dc
:1024d8001b889b4a9446634498b2fb1d1b786c2268
:1024e800534308331a00954bd318043302221900ba
:1024f80014f08eff1ae1fb1d1c783b6819685a68b6
:102508008e486c236343c318ff20084005001878e1
:1025180000242040041c281c20431870080aff24ab
:1025280020400500587800242040041c281c204323
:102538005870080cff24204005009878002420409b
:10254800041c281c204398700d0ed87800242040c5
:10255800041c281c2043d870ff201040050018795f
:1025680000242040041c281c20431871100aff2452
:1025780020400500587900242040041c281c2043d2
:102588005871100cff242040050098790024204041
:10259800041c281c20439871100eda7900210a4087
:1025a800111c021c0a43da712423fb181b88654a94
:1025b8009446634498b2fb1d1b786c225a435f4bc8
:1025c800d3180822190014f023ffafe0fb1d1b7875
:1025d8003a681078594a6c214b43d3181733021cb8
:1025e8001a702423fb181b88574a9446634498b2f0
:1025f800fb1d1b78514a6c214b43d31817331b78aa
:102608000022012114f0a3ff90e0fb1d1b783a681b
:1026180014784a4a3c216c204343d3185b18221c87
:102628001a702423fb181b88484a944663449cb2ba
:10263800fb1d1b78414a3c216c204343d3185b188f
:102648001b7805222021200014f081fffb1d1b7838
:102658003a4a21216c204343d3185b181b78032b7b
:1026680061d1fb1d1b781800fef708f85be0fb1d25
:102678001b783a681478314a35216c204343d318c3
:102688005b18221c1a70fb1d1b782c4a21216c2018
:102698004343d3185b181b78022b14d12423fb184f
:1026a8001b882b4a944663449cb2fb1d1b78234a23
:1026b80035216c204343d3185b181b780422102162
:1026c800200014f044fffb1d1b781c4a21216c20bc
:1026d8004343d3185b181b78002b26d1fb1d1b78ae
:1026e800164a2f216c204343d3185b181a78fb1d18
:1026f8001b781100180011f0e9fe16e02723fb18db
:10270800f4221a7012e0c04610e0c0460ee0c0463f
:102718000ce0c0460ae0c04608e0c04606e0c046f5
:1027280004e0c04602e0c04600e0c0462723fb188c
:102738001b781800bd460bb0f0bdc046845700207a
:102748002f030000250300002103000013030000ed
:1027580012030000f0b585b000af02003960fb1d20
:102768001a700f23fb1800221a700e23fb18002280
:102778001a7015e00f26bc193a68fb1d19780e254a
:102788007b191b781800fff7f3f803002370bb19b7
:102798001b78002b0ad17b191a787b1901321a7021
:1027a8000e23fb181b78012be4d900e0c0460f2349
:1027b800fb181b781800bd4605b0f0bd90b585b074
:1027c80000af0200fb1d1a703b1d0a1c1a800c2367
:1027d800fb183a1d12881a800f23fb1800221a7062
:1027e800fb1d1b785f4a21216c204343d3185b18db
:1027f8001b78032b4dd1fb1d1b78012b13d13b1ddf
:102808001b880a2b03d93b1d1b881a2b04d90f23bd
:10281800fb18e8221a703ce03b1d1b880b3b9ab260
:102828003b1d1a8035e0fb1d1b784e4a22216c2087
:102838004343d3185b181b78072b12d13b1d1b8809
:10284800002b03d03b1d1b880a2b03d90f23fb1831
:10285800e8221a703b1d1b88013b9ab23b1d1a8067
:1028680017e0fb1d1b783f4a22216c204343d318f5
:102878005b181b78032b08d13b1d1b88032b08d939
:102888000f23fb18e8221a7003e00f23fb18e82235
:102898001a700f23fb181b78002b5bd1fb1d1b78cc
:1028a800304a6c214b43d31810330c22ba18033327
:1028b8001478197800200140081c211c0143197064
:1028c80050785a7800210a40111c021c0a435a7099
:1028d800fb1d1a780b23fb1823498a5c1a70fb1d11
:1028e8001b78214ad35c052b09d1fb1d1b781800e6
:1028f80013f0c2fefb1d1b78180013f06cfffb1dc4
:102908001b789ab208217b1812021a807b181b8840
:102918000833ff339bb2391d0222180014f078fdea
:10292800fb1d1b78104ad35c032b04d1fb1d1b78bd
:10293800180000f01bf80b23fb181b78052b09d196
:10294800fb1d1b78180013f05afefb1d1b7818009e
:1029580013f0daff0f23fb181b781800bd4605b0eb
:1029680090bdc04684570020a458002080b584b08c
:1029780000af0200fb1d1a70fb1d1b789ab20e23d4
:10298800fb1812021a800e23fb181b882233ff3310
:102998009bb201220221180014f0acfd03001a00ba
:1029a8000d203b18511e8a411a703b181b780122d2
:1029b8005340dbb2002b02d00a2016f0ebfd0d23aa
:1029c800fb181b7801225340dbb2002bdbd1c04639
:1029d800bd4604b080bd90b585b000af0200fb1db8
:1029e8001a70bb1d0a1c1a700f23fb1800221a70dc
:1029f800bb1d1b78122b00d9cce29a00ef4bd318e1
:102a08001b689f46fb1d1b78002b04d10f23fb1866
:102a1800e8221a70c3e20e243b1900221a70fb1d2b
:102a28001b78e74a6c214b43d318283301331a78b3
:102a380000210a40111c40220a431a705a780021ca
:102a48000a40111c4b220a435a709a7800210a4006
:102a5800111c4c220a439a70da7800210a40da7075
:102a6800fb1d1b78d64a22216c204343d3185b18e0
:102a78000d221a70fb1d1b78d14a6c214b43d318c9
:102a8800203305331a7800210a40111c40220a43da
:102a98001a705a7800210a40111c63220a435a709e
:102aa8009a7800210a40111c59220a439a70da7850
:102ab80000210a40111c712252420a43da70fb1da0
:102ac8001b78bf4a21216c204343d3185b1803228b
:102ad8001a70fb1d1b78ba4a2d216c204343d3186a
:102ae8005b1803221a703a19fb1d1b783421180051
:102af800fef73eff53e2fb1d1b78012b04d10f2389
:102b0800fb18e8221a704ae20e243b1900221a70b8
:102b1800fb1d1b78aa4a6c214b43d3182833013379
:102b28001a7800210a40111c802252420a431a7066
:102b38005a7800210a40111c7c2252420a435a70da
:102b48009a7800210a40111c1e220a439a70da78ea
:102b580000210a40da70fb1d1b78994a22216c205b
:102b68004343d3185b1807221a70fb1d1b78944a3d
:102b78006c214b43d318203305331a7800210a40bf
:102b8800111c802252420a431a705a7800210a40c6
:102b9800111c76220a435a709a7800210a409a70ca
:102ba800da7800210a40111c36220a43da70fb1d2c
:102bb8001b78834a21216c204343d3185b180322d6
:102bc8001a70fb1d1b787e4a2d216c204343d318b5
:102bd8005b1802221a703a19fb1d1b783421180061
:102be800fef7c6fedbe1fb1d1b78012b04d10f238a
:102bf800fb18e8221a70d2e10e243b1900221a7041
:102c0800fb1d1b786e4a6c214b43d31828330133c4
:102c18001a7800210a40111c802252420a431a7075
:102c28005a7800210a40111c7c2252420a435a70e9
:102c38009a7800210a40111c1e220a439a70da78f9
:102c480000210a40da70fb1d1b785d4a22216c20a6
:102c58004343d3185b1803221a70fb1d1b78584a8c
:102c68006c214b43d318203305331a7800210a40ce
:102c78001a705a7800210a40111c252252420a4330
:102c88005a709a7800210a40111c7d220a439a70d2
:102c9800da7800210a40111c2e220a43da70fb1d43
:102ca8001b78474a21216c204343d3185b18032221
:102cb8001a70fb1d1b78424a2d216c204343d31800
:102cc8005b1802221a703a19fb1d1b783421180070
:102cd800fef74efe63e1fb1d1b78002b72d10e241c
:102ce8003b1901221a70fb1d1b78354a6c214b4396
:102cf800d318283301331a7800210a40111c802286
:102d080052420a431a705a7800210a40111c7c2248
:102d180052420a435a709a7800210a40111c1e2216
:102d28000a439a70da7800210a40da70fb1d1b7892
:102d3800234a22216c204343d3185b1807221a70b8
:102d4800fb1d1b781e4a6c214b43d31820330533d7
:102d58001a7800210a40111c802252420a431a7034
:102d68005a7800210a40111c76220a435a709a7830
:102d780000210a409a70da7800210a40111c362294
:102d88000a43da70fb1d1b780d4a21216c2043434e
:102d9800d3185b1803221a70fb1d1b78084a2d21d3
:102da8006c204343d3185b1802221a703a19fb1d92
:102db8001b7834211800fef7dbfdf0e0806201008b
:102dc800845700200e243b1901221a70fb1d1b7822
:102dd800944a6c214b43d318283301331a780021c5
:102de8000a40111c40220a431a705a7800210a40ee
:102df800111c4b220a435a709a7800210a40111c70
:102e08004c220a439a70da7800210a40da70fb1dd6
:102e18001b78844a22216c204343d3185b180d2267
:102e28001a70fb1d1b787f4a6c214b43d318203343
:102e380005331a7800210a40111c40220a431a70ef
:102e48005a7800210a40111c63220a435a709a7862
:102e580000210a40111c59220a439a70da7800218d
:102e68000a40111c712252420a43da70fb1d1b787a
:102e78006c4a21216c204343d3185b1803221a7033
:102e8800fb1d1b78674a2d216c204343d3185b1820
:102e980003221a703a19fb1d1b7834211800fef71b
:102ea80067fd7ce0fb1d1b78012b04d10f23fb1869
:102eb800e8221a7073e00e243b1901221a70fb1dd8
:102ec8001b78584a6c214b43d318283301331a789e
:102ed80000210a40111c802252420a431a705a7873
:102ee80000210a40111c7c2252420a435a709a78e7
:102ef80000210a40111c1e220a439a70da78002128
:102f08000a40da70fb1d1b78464a22216c20434395
:102f1800d3185b1803221a70fb1d1b78414a6c21d9
:102f28004b43d318203305331a7800210a401a700e
:102f38005a7800210a40111c252252420a435a702d
:102f48009a7800210a40111c7d220a439a70da7887
:102f580000210a40111c2e220a43da70fb1d1b783f
:102f6800304a21216c204343d3185b1803221a707e
:102f7800fb1d1b782b4a2d216c204343d3185b186b
:102f880002221a703a19fb1d1b7834211800fef72b
:102f9800effc04e00f23fb18e8221a70c0460f2448
:102fa8003b191b78002b15d10823fa18fb1d1b7839
:102fb800110018000cf0aafcfb1d1b781800fdf787
:102fc8005dfb3c19fb1d1b781800fdf7d3fa0300c5
:102fd80023701fe0fb1d1b78124a6c214b43d3184a
:102fe8001933ff221a70fb1d1b780e4a6c214b43c4
:102ff800d31808331a7800210a401a705a78002129
:103008000a405a709a7800210a409a70da780021aa
:103018000a40da700f23fb181b781800bd4605b06c
:1030280090bdc0468457002080b584b000af020030
:10303800fb1d1a70fb1d1b781d4a21216c20434380
:10304800d3185b181b78032b26d1fb1d1b78002b8c
:103058001dd1fb1d1b78164a22216c204343d3182f
:103068005b181b78032b02d0072b05d009e00f2330
:10307800fb1805221a7013e00f23fb1802221a709e
:103088000ee00f23fb18ff221a70c04608e00f233a
:10309800fb1800221a7003e00f23fb1809221a708c
:1030a8000f23fb181b781800bd4604b080bdc0462e
:0430b8008457002019
:020000040000fa
:1030bc0080b500af044b054a05483b2109f03cfaaa
:1030cc00c046bd4680bdc046149600002c9600003c
:1030dc005093000080b584b000aff860b9607a609e
:1030ec00044b1900002015f037fac046bd4604b059
:1030fc0080bdc0463496000080b588b004aff8603f
:10310c00b9607a60bb68012b05dc174b19000020f5
:10311c0015f022fa23e07b6804331b68134a110074
:10312c00180002f03dfb031e19d0114b00221a703f
:10313c0005f06af800230293002301930023009307
:10314c00002300220021012002f084fd094b18000d
:10315c0016f01efa084b01221a7604f045ffc04601
:10316c00bd4604b080bdc04640960000b45a002055
:10317c00b045002060e31600c85a002080b588b026
:10318c0004aff860b9607a60bb68012b05dc194ba1
:10319c001900002015f0e0f927e07b6804331b6868
:1031ac00154a1100180002f0fbfa031e1dd0134b38
:1031bc001a69134b1900002015f0cef905f024f80c
:1031cc000023029300230193002300930023002289
:1031dc000121002002f03efd0a4b180016f0d8f930
:1031ec00094b01221a7604f0fffec046bd4604b01e
:1031fc0080bdc04640960000b05a0020a05a002066
:10320c005896000060e31600e85a002080b588b09c
:10321c0004aff860b9607a6004f0f6ff0023029303
:10322c00002301930023009300230122002100209e
:10323c0002f010fd084b180016f0aaf9074b0122fa
:10324c001a76074b1900002015f086f904f0ccfe15
:10325c00c046bd4604b080bd60e31600085b00208c
:10326c007096000080b588b004aff860b9607a60e1
:10327c000f4b1900002015f06ff904f0c5ff002367
:10328c0002930023019301230093002300220021c9
:10329c00002002f0dffc074b180016f079f9064b02
:1032ac0001221a7604f0a0fec046bd4604b080bdd3
:1032bc008c96000060e31600285b002090b585b06a
:1032cc0000aff860b9607a607b6804331b680a4a07
:1032dc001100180002f0acfa031e08d0074b5c6f0b
:1032ec001b6f07491a002300002015f035f9c04662
:1032fc00bd4605b090bdc046a83b0020383b002021
:10330c00a0960000b0b5c6b000aff860b9607a60a6
:10331c001023fb188a2464003a1913600e4b190011
:10332c00002015f019f921007b181b6803221a7074
:10333c001425ff357c197b181968084b00221800de
:10334c001bf03dfe030023707b197a1912781a705a
:10335c00c046bd4646b0b0bdd4960000085e002005
:10336c0090b58bb004aff860b9607a6017243b1944
:10337c0000221a7004f048ff0023029300230193eb
:10338c0000230093012300220021002002f062fca4
:10339c00124b180016f0fcf8114b01221a76114b47
:1033ac001900002015f0d8f839190f4b9a690f48fd
:1033bc0000230bf053fc02000b4bda600a4bdb686a
:1033cc00013302d004f010fe04e0094b1900002078
:1033dc0015f026f9c046bd4607b090bd60e3160057
:1033ec00485b0020f0960000a05a0020e17b000012
:1033fc000c97000080b584b000aff860b9607a60bb
:10340c007b6804331b68094a1100180002f0c8f9e4
:10341c00031e06d0064b9a69064b1900002015f0c6
:10342c009bf8c046bd4604b080bdc046b85a0020cb
:10343c00a05a002024970000b0b588b000aff86007
:10344c00b9607a601e23fb1800221a701c23fb182b
:10345c0000221a80002300243b617c61bb68032b93
:10346c0009dc1f217b1803221a707b181b781800ab
:10347c0002f0d2fb91e07b6804331b681e243a19de
:10348c001100180002f072f8031e1ad03b191b78b9
:10349c00002b03d03b191b78402b09d91f217b181b
:1034ac0005221a707b181b78180002f0b5fb74e02b
:1034bc001e23fb181b781a00394b1900002015f03d
:1034cc004bf87b6808331b681c243a191100180050
:1034dc0002f018f9031e24d0324b1900002015f00d
:1034ec003bf81e257b191b7819003b1918882e4aae
:1034fc000b009b005b18db00d3180833021c1a80ee
:10350c007b191b781900284a0b009b005b18db0009
:10351c00d31808331b881a00244b1900002015f00f
:10352c001bf87b680c331b681022ba1811001800aa
:10353c0002f07ef9031e30d01d4b1900002015f04f
:10354c000bf81e257b191b781c0039697a69164803
:10355c0023009b001b19db00c31819605a607b19f0
:10356c001b781900104a0b009b005b18db00d3186a
:10357c005c681b680d491a002300002014f0ecff56
:10358c007b191b781800084a202103009b001b188c
:10359c00db00d3185b1801221a70bd4608b0b0bd11
:1035ac004c97000068970000b03b0020809700000b
:1035bc0088970000b0b586b000aff860b9607a604b
:1035cc0016217b1800221a701223fb1800221a8075
:1035dc00bb68012b08dc7b1803221a707b181b7844
:1035ec00180002f019fb4de17b6804331b681224b0
:1035fc003a191100180002f037f8031e00d141e10e
:10360c003b191b883f2b0dd93b191b88ff2b09d06d
:10361c0016217b1805221a707b181b78180002f0f3
:10362c00fbfa2fe112257b191b881a00974b190006
:10363c00002014f091ff7b191b88ff2b00d189e02f
:10364c007b191a8815243b191a703b191a78904962
:10365c00202013009b009b18db00cb181b181b7839
:10366c00002b71d08b4b1900002014f0d9ff7b1963
:10367c001b881a00884b1900002014f06dff3b19b1
:10368c001a78834913009b009b18db00cb18083376
:10369c001b881a00814b1900002014f05dff3b19a8
:1036ac001a787b4913009b009b18db00cb180b335b
:1036bc001b781a00784b1900002014f04dff3b19b1
:1036cc001a78734913009b009b18db00cb180a3344
:1036dc001b785bb21a00704b1900002014f03cfff1
:1036ec0025007b191a786a4913009b009b18db0094
:1036fc00cb1810335c681b6869491a002300002042
:10370c0014f02aff7b191a78614913009b009b184f
:10371c00db00cb1818335c681b6861491a00230066
:10372c00002014f019ff7b191a78594913009b00db
:10373c009b18db00cb185c681b685a491a002300e5
:10374c00002014f009ff9de0574b1900002014f0e5
:10375c0067ff97e04f4b1900002014f061ff17230f
:10376c00fb1800221a7087e017243b191a78484975
:10377c00202013009b009b18db00cb181b181b7818
:10378c00002b73d03b191a78434b1900002014f00e
:10379c00e3fe3b191a783e4913009b009b18db0093
:1037ac00cb1808331b881a003c4b1900002014f06e
:1037bc00d3fe3b191a78364913009b009b18db008b
:1037cc00cb180b331b781a00334b1900002014f064
:1037dc00c3fe3b191a782e4913009b009b18db0083
:1037ec00cb180a331b785bb21a002b4b1900002044
:1037fc0014f0b2fe25007b191a78254913009b00a2
:10380c009b18db00cb1810335c681b6824491a002a
:10381c002300002014f0a0fe7b191a781c49130019
:10382c009b009b18db00cb1818335c681b681c4989
:10383c001a002300002014f08ffe7b191a7814490b
:10384c0013009b009b18db00cb185c681b681549a8
:10385c001a002300002014f07ffe144b19000020e6
:10386c0014f0defe124b180015f092fe17217b1897
:10387c001a787b1801321a701723fb181b783f2b10
:10388c0000d871e7bd4606b0b0bdc0464c970000ed
:10389c00b03b00209c970000d8970000dc970000fc
:1038ac00e4970000ec970000f09700000c980000e3
:1038bc0060e31600b0b586b000aff860b9607a600e
:1038cc00094b1900002014f047fe17257c1913f042
:1038dc002df9030023707b191b78180002f008f8ef
:1038ec00c046bd4606b0b0bd10980000b0b586b05d
:1038fc0000aff860b9607a60bb68012b09dc172156
:10390c007b1803221a707b181b78180002f084f9bc
:10391c001de07b6804331b6815243a19110018004c
:10392c0001f092fd031e12d00a4b1900002014f076
:10393c0013fe3b191b7816257c1918000ff09cf808
:10394c00030023707b191b78180001f0d1ffbd46d2
:10395c0006b0b0bd28980000b0b586b000aff860d6
:10396c00b9607a601523fb1800221a7013f0def888
:10397c00031e50d1bb68012b09dc17217b180322d5
:10398c001a707b181b78180002f046f944e07b682b
:10399c0004331b6815243a191100180001f0e6fdd8
:1039ac00031e0dd03b191b780e2b09d917217b1840
:1039bc0005221a707b181b78180002f02df92be0e9
:1039cc00174b1900002014f0c7fd15203b1819786f
:1039dc00144b432299543b181b7816257c1918005c
:1039ec000ff060f8030023700e4b7a194421127803
:1039fc005a547b191b78180001f07aff7b191b783d
:103a0c00002b09d1074b1b881a00074b190000200b
:103a1c0014f0a2fd00e0c046bd4606b0b0bdc046e5
:103a2c003c980000383b002064980000f0b589b049
:103a3c0000aff860b9607a601d23fb1800221a7081
:103a4c00bb68012b09dc1f217b1803221a707b1821
:103a5c001b78180002f0e0f887e07b6804331b68e1
:103a6c001d243a191100180001f032fd031e0dd06f
:103a7c003b191b78f02b09d91f217b1805221a70d2
:103a8c007b181b78180002f0c7f86ee0384b190051
:103a9c00002014f061fd1d22bb181b78002b1fd0d9
:103aac00bb181b78022b1bd0bb181b78032b17d011
:103abc00bb181b78042b13d0bb181b784f2b0fd0c3
:103acc00bb181b78572b0bd0bb181b784e2b07d071
:103adc00bb181b78592b03d0bb181b78512b1dd14d
:103aec001d23fb181b781e257c191026ba191100f2
:103afc0018000ef0ffff030023707b191b781800d1
:103b0c0001f0f6fe7b191b78002b07d1bb191b7833
:103b1c001a00184b1900002014f01efd1d22bb18b2
:103b2c001b78532b03d0bb181b78502b1dd11d2396
:103b3c00fb181b781e257c191026ba1911001800c9
:103b4c000ef0d8ff030023707b191b78180001f0ce
:103b5c00cffe7b191b78002b07d1bb191b881a00d1
:103b6c00044b1900002014f0f7fcbd4609b0f0bd61
:103b7c00ac980000cc980000f0b589b000aff860ac
:103b8c00b9607a601f257c191026bb19190000201a
:103b9c000ef0b0ff030023707b191b78180001f0a6
:103bac00a7fe7b191b78002b0cd1bb191b881a00a4
:103bbc00094b1900002014f0cffcbb191a88074bd5
:103bcc001a8005e01f23fb181b78180001f090feeb
:103bdc00c046bd4609b0f0bdec980000383b002053
:103bec00b0b588b000aff860b9607a601d23fb18df
:103bfc0000221a701a23fb1800221a80bb68012bb2
:103c0c0009dc1f217b1803221a707b181b78180003
:103c1c0002f002f847e07b6804331b681d243a1954
:103c2c001100180001f0a2fc031e0dd03b191b78eb
:103c3c001a2b09d91f217b1805221a707b181b78a7
:103c4c00180001f0e9ff2ee01d23fb181b789ab237
:103c5c0010217b181a801e257c197b181900002056
:103c6c000ef060ff030023707b191b78180001f025
:103c7c003ffe7b191b78002b15d11a243b19190018
:103c8c0000200ef037ff031e07d13b191b881a00ca
:103c9c00064b1900002014f05ffc1d23fb181b7849
:103cac009ab2034b1a80bd4608b0b0bdec98000028
:103cbc00383b0020f0b587b000aff860b9607a608f
:103ccc0017257c191626bb19190004200ef012ffbb
:103cdc00030023707b191b78180001f009fe7b1977
:103cec001b78002b0cd1bb191b781a00094b19003f
:103cfc00002014f031fcbb191a78074b9a7005e0c0
:103d0c001723fb181b78180001f0f2fdc046bd46c6
:103d1c0007b0f0bd04990000383b0020f0b589b025
:103d2c0000aff860b9607a601d23fb1800221a708e
:103d3c00bb68012b09dc1f217b1803221a707b182e
:103d4c001b78180001f068ff69e07b6804331b687e
:103d5c001d243a191100180001f008fc031e32d082
:103d6c002200bb181b78002b2dd0bb181b78022b04
:103d7c0029d0bb181b78052b25d0bb181b78062b1c
:103d8c0021d0bb181b78072b1dd0bb181b78082b18
:103d9c0019d0bb181b78092b15d0bb181b780a2b14
:103dac0011d0bb181b78102b0dd0bb181b78122b05
:103dbc0009d01f217b1805221a707b181b7818005c
:103dcc0001f02aff2be01d257b191a7810217b1896
:103ddc001a701e26bc197b18190004200ef0a2fec6
:103dec0003002370bb191b78180001f081fdbb196f
:103dfc001b78002b13d17b19190004200ef07afece
:103e0c00031e07d17b191b781a00064b19000020e2
:103e1c0014f0a2fb1d23fb181a78034b9a70bd46b5
:103e2c0009b0f0bd04990000383b002090b587b074
:103e3c0000aff860b9607a60bb68012b09dc172110
:103e4c007b1803221a707b181b78180001f0e4fe13
:103e5c000ee07b6804331b6816243a191100180015
:103e6c0001f084fb031e03d03b191a78024b1a7025
:103e7c00bd4607b090bdc0461b5e002080b584b027
:103e8c0000aff860b9607a600b4b1b78dbb2012b8a
:103e9c0005d10a4b1900002014f05efb08e0064b1c
:103eac001b78dbb21a00064b1900002014f054fbef
:103ebc00c046bd4604b080bd1b5e00201c990000ae
:103ecc004099000080b584b000aff860b9607a60aa
:103edc00204b1b78dbb218001f4a21216c23434373
:103eec00d3185b181b78002b05d11c4b1900002034
:103efc0014f032fb2ae0174b1b78dbb21800164a81
:103f0c0021216c234343d3185b181b78012b05d15b
:103f1c00134b1900002014f01ffb17e00d4b1b78fe
:103f2c00dbb218000c4a21216c234343d3185b18d5
:103f3c001b78022b05d10b4b1900002014f00cfb45
:103f4c0004e0094b1900002014f006fbc046bd46e6
:103f5c0004b080bd1b5e00208457002068990000cf
:103f6c008099000098990000b499000090b589b030
:103f7c0000aff860b9607a601e23fb1800221a703b
:103f8c00bb68012b09dc1f217b1803221a707b18dc
:103f9c001b78180001f040fe1be07b6804331b68a3
:103fac001e243a191100180001f092fa031e10d0c9
:103fbc003b191b78002b02d13b1901221a70064bbe
:103fcc001b78dab21e23fb181b78190010000ef0b8
:103fdc00faffbd4609b090bd1b5e0020f0b589b05c
:103fec0000aff860b9607a601f257c191026bb19e8
:103ffc00190050200ef07efd030023707b191b78f6
:10400c00180001f075fc7b191b78002b0cd1bb1927
:10401c001b881a00094b1900002014f09dfabb19db
:10402c001a88074b9a8005e01f23fb181b78180091
:10403c0001f05efcc046bd4609b0f0bdd49900004d
:10404c00383b0020f0b589b000aff860b9607a60f9
:10405c001c23fb1800221a80bb68012b09dc1f21d2
:10406c007b1803221a707b181b78180001f0d4fd02
:10407c0035e07b6804331b681c257a191100180085
:10408c0001f040fb031e2ad07b191a8810217b18e3
:10409c001a801e26bc197b18190050200ef042fd08
:1040ac0003002370bb191b78180001f021fcbb190d
:1040bc001b78002b13d17b19190050200ef01afd20
:1040cc00031e07d17b191b881a00064b1900002010
:1040dc0014f042fa1c23fb181a88034b9a80bd4635
:1040ec0009b0f0bde8990000383b002080b584b0e1
:1040fc0000aff860b9607a60054b5b8b1a00054b1a
:10410c001900002014f028fac046bd4604b080bd4a
:10411c00383b0020fc99000090b587b000aff860e8
:10412c00b9607a601423fb1800221a80bb68012b3b
:10413c0009dc17217b1803221a707b181b781800d6
:10414c0001f06afd26e07b6804331b6814243a19dd
:10415c001100180001f0d6fa031e1bd00f4b5b8b1d
:10416c001a000f4b1900002014f0f6f93b191a88ad
:10417c000a4b5a83094b5b8b1a000a4b190000201f
:10418c0014f0eaf9054b5a8b074b1a86064b48225a
:10419c0001219954bd4607b090bdc046383b002064
:1041ac001c9a0000489a0000b03b002090b587b0e4
:1041bc0000aff860b9607a601623fb1800221a7001
:1041cc00bb68012b09dc17217b1803221a707b18a2
:1041dc001b78180001f020fd48e07b6804331b6855
:1041ec0016243a191100180001f0c0f9031e3dd035
:1041fc003b191b781a001f4b1900002014f0acf966
:10420c003b191b7818001c4a202103009b001b182b
:10421c00db00d3185b181b78002b22d020003b1836
:10422c001b781900144a0b009b005b18db00d31899
:10423c0008331a88114b5a833b181b7819000e4a05
:10424c000b009b005b18db00d3185c681b680b4ae7
:10425c009363d463094bdc6b9b6b084a1362546207
:10426c0004e0074b1900002014f076f9bd4607b0a6
:10427c0090bdc0466c9a0000b03b0020383b00203b
:10428c00a09a000090b585b000aff860b9607a6074
:10429c00064b5c6a1b6a06491a002300002014f0c6
:1042ac005bf9c046bd4605b090bdc046383b00200a
:1042bc00fc99000090b589b000aff860b9607a60e5
:1042cc00002300243b617c61bb68012b09dc1f21ae
:1042dc007b1803221a707b181b78180001f09cfcc9
:1042ec0031e07b6804331b681022ba1811001800e7
:1042fc0001f09efa031e26d0144b5c6a1b6a14490b
:10430c001a002300002014f027f93b697c690f4a3e
:10431c009363d4630d4bdc6b9b6b0c4a136254623e
:10432c000a4b5c6a1b6a0b491a002300002014f02c
:10433c0013f9064b5c6a1b6a074a9362d462064bfc
:10434c00482201219954bd4609b090bd383b00204c
:10435c001c9a0000489a0000b03b0020f0b589b0d0
:10436c0000aff860b9607a601f257c191026bb1964
:10437c00190053200ef0befb030023707b191b7831
:10438c00002b0cd1bb191a880a4b1a81094b1b89bb
:10439c001a00094b1900002014f0def805e01f2369
:1043ac00fb181b78180001f0a3fac046bd4609b0f3
:1043bc00f0bdc046383b0020dc9a0000f0b58bb055
:1043cc0000aff860b9607a601623fb1800221a80df
:1043dc00bb68012b09dc27217b1803221a707b1880
:1043ec001b78180001f018fc4ce07b6804331b6848
:1043fc0016243a191100180001f084f9031e41d05b
:10440c003b191a881826bb191a80204b1b891a00d5
:10441c001f4b1900002014f09ff826257c19bb199e
:10442c00190053200ef07efb030023707b191b78c0
:10443c00002b05d07b191b78180001f059fa21e0ec
:10444c002626bc1916257b19190053200ef052fb99
:10445c0003002370bb191b78002b13d17b191a880e
:10446c000a4b1a817b191a880a4b1a81094b202294
:10447c0001219954054b1b891a00074b1900002088
:10448c0014f06af8bd460bb0f0bdc046383b0020b6
:10449c00f89a0000b03b00201c9b000080b584b053
:1044ac0000aff860b9607a60144b47229b5c002b1c
:1044bc0005d1134b1900002014f04ef81ae00f4be5
:1044cc0047229b5c012b05d10e4b1900002014f0e8
:1044dc0043f80fe0094b47229b5c022b05d10a4b9a
:1044ec001900002014f038f804e0084b19000020e3
:1044fc0014f032f8c046bd4604b080bd383b0020f5
:10450c003c9b00005c9b0000809b0000a09b00007b
:10451c0090b587b000aff860b9607a601623fb18cd
:10452c0000221a70bb68012b09dc17217b180322af
:10453c001a707b181b78180001f06efb4ee07b683c
:10454c0004331b6816243a191100180001f00ef8f8
:10455c00031e0dd03b191b78032b09d917217b188f
:10456c0005221a707b181b78180001f055fb35e0fa
:10457c001623fb181b78002b09d11a4b472200215c
:10458c009954194b1900002013f0e6ff26e016236e
:10459c00fb181b78012b09d1124b4722012199548e
:1045ac00124b1900002013f0d7ff17e01623fb184d
:1045bc001b78022b09d10b4b4722022199540c4b2f
:1045cc001900002013f0c8ff08e0064b4722032116
:1045dc009954084b1900002013f0beffbd4607b0dc
:1045ec0090bdc046383b00203c9b00005c9b00000b
:1045fc00809b0000a09b0000f0b589b000aff86074
:10460c00b9607a601f26bc1910257b19190002208d
:10461c000ef070fa03002370bb191b78002b16d117
:10462c00104b29229b561a000f4b1900002013f037
:10463c0093ff7b191b781a000c4b1900002013f008
:10464c008bff7b191978074b2a22995405e01f23fd
:10465c00fb181b78180001f04bf9c046bd4609b099
:10466c00f0bdc046383b0020c09b0000e09b000022
:10467c00f0b589b000aff860b9607a601f217b1883
:10468c0000221a701d23fb1800221a70bb68012b24
:10469c0008dc7b1803221a707b181b78180001f0b9
:1046ac00bbfa7de07b6804331b681d243a191100aa
:1046bc00180000f0a9ff031e00d171e03b191b7814
:1046cc005bb2113304db3b191b785bb20e2b09dd9b
:1046dc001f217b1805221a707b181b78180001f01b
:1046ec009bfa5de01d23fb18002159562e4b292205
:1046fc0099542d4b29229b561a002c4b1900002043
:10470c0013f02aff284b29229b5620331bdb264b08
:10471c0029229b561f2b14dc234b29229b56002b42
:10472c000ada214b29229b561f2213405bb220220e
:10473c0013435bb2dbb207e01b4b29229b56dbb267
:10474c0002e01f2300e0202310257a1913701e2687
:10475c00bc197b19190002200ef0e4f90300237038
:10476c00bb191b78002b15d17b19190002200ef0f8
:10477c00c1f9031e14d17b1919780b4b2a229954b9
:10478c00094b2a229b5c1a00094b1900002013f0dc
:10479c00e3fe05e01e23fb181b78180001f0a8f8b7
:1047ac00bd4609b0f0bdc046383b0020f49b00006c
:1047bc000c9c0000b0b588b000aff860b9607a60ae
:1047cc001f257c191023fb181900f0200ef092f90c
:1047dc00030023707b191b78002b0dd13b697c697e
:1047ec00074a13635463064b5c6b1b6b05491a0039
:1047fc002300002013f0b0fec046bd4608b0b0bd8b
:10480c00383b0020289c0000f0b58bb000aff8605e
:10481c00b9607a60002300243b617c617b680433bf
:10482c001b681026ba191100180001f001f8031ebc
:10483c0033d03b697c69bb61fc6127257c1918234b
:10484c00fb181900f0200ef06df9030023707b1992
:10485c001b78002b21d17c19bb191900f0200ef00c
:10486c0049f9030023703b697c690e4a1363546356
:10487c000c4b5c6b1b6b0b4a13615461094b5c6bef
:10488c001b6b094a13605460064b5c6b1b6b07492e
:10489c001a002300002013f05ffec046bd460bb08b
:1048ac00f0bdc046383b0020b03b0020289c0000e7
:1048bc00f0b587b000aff860b9607a6016257b1947
:1048cc0000221a701726bc197b19190059200ef0fa
:1048dc0011f903002370bb191b78002b0ed17b1927
:1048ec0019780b4b4a229954094b4a229b5c1a00ab
:1048fc00084b1900002013f02ffe05e01723fb18be
:10490c001b78180000f0f4ffc046bd4607b0f0bda0
:10491c00383b0020449c0000f0b589b000aff86033
:10492c00b9607a601d217b1800221a707b680433f1
:10493c001b680c007a181100180000f017fe031efb
:10494c000dd03b191b78072b09d91f217b18052289
:10495c001a707b181b78180001f05ef934e01d23e7
:10496c00fb181a7810217b181a701e257c197b18dd
:10497c00190059200ef0d6f8030023707b191b7810
:10498c00002b05d07b191b78180000f0b1ff1be041
:10499c001e257c191d26bb19190059200ef0aaf8ea
:1049ac00030023707b191b78002b0dd1bb191978d0
:1049bc00074b4a229954064b4a229b5c1a00054b22
:1049cc001900002013f0c8fdbd4609b0f0bdc0466b
:1049dc00383b00205c9c0000f0b58bb000aff86059
:1049ec00b9607a602323fb1800221a702223fb186b
:1049fc0000221a70bb68022b09dc27217b180322ca
:104a0c001a707b181b78180001f006f967e17b68b7
:104a1c0004331b6825243a191100180000f058fdc6
:104a2c00031e00d15be13b191b78f02b09d9272120
:104a3c007b1805221a707b181b78180001f0ecf813
:104a4c004de125243b191b781a00a64b19000020b8
:104a5c0013f082fd2200bb181b78002b1bd0bb1857
:104a6c001b78032b17d0bb181b78042b13d0bb1847
:104a7c001b784f2b0fd0bb181b78572b0bd0bb18a8
:104a8c001b784e2b07d0bb181b78592b03d0bb18a7
:104a9c001b78512b4ad17b6808331b6824243a19a4
:104aac001100180000f014fd031e3fd03b191b78b9
:104abc00322b09d927217b1805221a707b181b78f9
:104acc00180001f0a9f80ae12426bb191a7818215c
:104adc007b181a702523fb181b7826257c197a184d
:104aec00110018000ef01ef8030023707b191b78c0
:104afc00180000f0fdfe7b191b78002b16d1252326
:104b0c00fb181b787c19ba19110018000df0f2ff74
:104b1c00030023707b191b78002b07d1bb191b7862
:104b2c001a00714b1900002013f016fd2523fb18f9
:104b3c001b78022b00d080e07b6808331b68222492
:104b4c003a191100180000f05ffd031e00d174e04b
:104b5c003b191b785bb20c3304db3b191b785bb243
:104b6c000e2b09dd27217b1805221a707b181b7868
:104b7c00180001f051f8b2e05c4b29229b561a0048
:104b8c005b4b1900002013f0e7fc2222bb181b78aa
:104b9c005bb220331cdbbb181b785bb21f2b15dc04
:104bac00bb181b785bb2002b0adabb181b785bb204
:104bbc001f2213405bb2202213435bb2dbb208e02e
:104bcc002223fb181b785bb2dbb202e01f2300e050
:104bdc0020232326ba191370bb191a7818217b18b5
:104bec001a702523fb181b7826257c197a181100be
:104bfc0018000df097ff030023707b191b78180029
:104c0c0000f076fe7b191b78002b16d12523fb18a0
:104c1c001b787c19ba19110018000df06bff0300fa
:104c2c0023707b191b78002b07d1bb191b781a003a
:104c3c00304b1900002013f08ffc2522bb181b7879
:104c4c00532b03d0bb181b78502b48d17b680833ef
:104c5c001b6816257a191100180000f005fd031ebb
:104c6c003dd07b191b881a00234b1900002013f030
:104c7c0073fc224b1900002013f06efc7b191a8870
:104c8c0018217b181a802523fb181b782626bc19a3
:104c9c007a18110018000df045ff03002370bb19a2
:104cac001b78180000f024febb191b78002b16d1c2
:104cbc002523fb181b78bc197a19110018000df06c
:104ccc0019ff03002370bb191b78002b07d17b192c
:104cdc001b881a000a4b1900002013f03dfcbd463e
:104cec000bb0f0bd789c0000949c0000383b002079
:104cfc00b49c0000d09c0000e89c00000c9d0000bf
:104d0c00309d0000b0b586b000aff860b9607a6035
:104d1c00bb68012b09dc17217b1803221a707b1846
:104d2c001b78180000f078ff1de07b6804331b68cb
:104d3c0015243a191100180000f086fb031e12d03e
:104d4c000a4b1900002013f007fc3b191b781625a1
:104d5c007c1918000df0fefe030023707b191b78e4
:104d6c00180000f065febd4606b0b0bd509d0000b9
:104d7c00f0b587b000aff860b9607a60bb68012b02
:104d8c0009dc17217b1803221a707b181b7818007a
:104d9c0000f042ff22e07b6804331b6814243a19ac
:104dac001100180000f050fb031e17d03b191a78a5
:104dbc0016257b191a700b4b1900002013f0ccfb35
:104dcc001526bc197b191b7818000df022ff030067
:104ddc002370bb191b78180000f08afdbd4607b084
:104dec00f0bdc046949d0000b0b586b000aff86031
:104dfc00b9607a60094b1900002013f0adfb172540
:104e0c007c190df019ff030023707b191b78180017
:104e1c0000f06efdc046bd4606b0b0bdb89d0000aa
:104e2c00b0b588b000aff860b9607a601f23fb188a
:104e3c0085221a701c23fb1800221a70bb68012be8
:104e4c0009dc1e217b1803221a707b181b781800b2
:104e5c0000f0e2fe43e07b6804331b681c243a1923
:104e6c001100180000f082fb031e38d03b191b7890
:104e7c001a2b09d91e217b1805221a707b181b7856
:104e8c00180000f0c9fe2ae01c243b191b781a00fc
:104e9c00144b1900002013f05ffb3b191a781021fa
:104eac007b181a701f257c197b18190000200df037
:104ebc0039fe030023707b191b78002b0fd10a4b92
:104ecc001900002013f048fb1d257c190df0c2fec3
:104edc00030023707b191b78180000f009fdbd46f8
:104eec0008b0b0bdd09d0000f09d000080b584b02e
:104efc0000aff860b9607a60054b1900002013f020
:104f0c002bfb03f081f9c046bd4604b080bdc04602
:104f1c00089e0000b0b586b000aff860b9607a604a
:104f2c0017217b1800221a701523fb1800221a7007
:104f3c001623fb1800221a701423fb1801221a7076
:104f4c00bb68022b08dc7b1803221a707b181b78b9
:104f5c00180000f061fe31e07b6804331b681524f7
:104f6c003a191100180000f001fb031e26d03b1962
:104f7c001b78012b09d917217b1805221a707b1875
:104f8c001b78180000f048fe18e016243b19152277
:104f9c00ba1812781a707b6808331b6814257a19b2
:104fac001100180000f050fa031e07d07b191a7874
:104fbc003b191b78110018000df05afebd4606b0c7
:104fcc00b0bdb0b586b000aff860b9607a600df0d6
:104fdc0067fe17257c1901f029f8030023707b1953
:104fec001b78002b04d0044b1900002013f018fb85
:104ffc00c046bd4606b0b0bd289e000090b587b037
:10500c0000aff860b9607a601723fb1885221a701c
:10501c001523fb1801221a7016217b1800221a7016
:10502c00bb68012b08dc7b1803221a707b181b78d9
:10503c00180000f0f1fd1de07b6804331b6815249b
:10504c003a191100180000f0fff9031e08d03b19a3
:10505c001b781722bc1818000df096fe0300237065
:10506c001723fb181b78002b04d1044b19000020cc
:10507c0013f0d6fabd4607b090bdc046409e000066
:10508c00b0b586b000aff860b9607a6017257c19ae
:10509c000df0e6fe030023707b1900229a56044b98
:1050ac001900002013f058fac046bd4606b0b0bd3a
:1050bc00849e0000b0b586b000aff860b9607a602d
:1050cc0017257c190df0befe030023707b191b788d
:1050dc00180000f0adfcc046bd4606b0b0bdf0b542
:1050ec0087b000aff860b9607a601523fb18032213
:1050fc001a7017217b1800221a701623fb188522b0
:10510c001a70bb68012b08dc7b1803221a707b1801
:10511c001b78180000f080fd32e07b6804331b68bc
:10512c0015257a191100180000f020fa031e27d05b
:10513c007b191b780f2b1ad87b191b781626bc19d8
:10514c0018000df0d7fd03002370bb191b78002b42
:10515c0016d1bc197b19190007200df05bfe03005a
:10516c002370bb191b78180000f0c2fb08e0172154
:10517c007b1805221a707b181b78180000f04cfd68
:10518c00bd4607b0f0bd80b584b000aff860b96023
:10519c007a60c046bd4604b080bd80b584b000af17
:1051ac00f860b9607a60c046bd4604b080bd90b569
:1051bc0087b000aff860b9607a601723fb188522be
:1051cc001a701523fb1801221a7016217b18002265
:1051dc001a70bb68012b08dc7b1803221a707b1831
:1051ec001b78180000f018fd32e07b6804331b6854
:1051fc0015243a191100180000f0b8f9031e08d054
:10520c003b191b781722bc1818000df09ffd0300ea
:10521c0023701723fb181b78002b0ad11523fb18be
:10522c001b78012b05d10c4b1900002013f0f8f959
:10523c000ee01723fb181b78002b09d11523fb1844
:10524c001b78002b04d1054b1900002013f0e8f952
:10525c00bd4607b090bdc0469c9e0000d49e000089
:10526c0080b584b000aff860b9607a60c046bd46c6
:10527c0004b080bd80b584b000aff860b9607a60ce
:10528c00c046bd4604b080bd80b584b000aff860a8
:10529c00b9607a601e4b1900002013f05df91d4bac
:1052ac004e229b5c052b28d89a001b4bd3181b68ed
:1052bc009f461a4b1900002013f0b2f923e0184b4b
:1052cc001900002013f0acf91de0164b190000205a
:1052dc0013f0a6f917e0144b1900002013f0a0f9f5
:1052ec0011e0124b1900002013f09af90be0104b4f
:1052fc001900002013f094f905e00e4b1900002062
:10530c0013f08ef9c046c046bd4604b080bdc04601
:10531c00089f0000383b00208c9f00001c9f000061
:10532c002c9f00003c9f0000489f0000549f0000f1
:10533c00649f00007c9f000090b587b000aff860c0
:10534c00b9607a601623fb1800221a70bb68012b17
:10535c0009dc17217b1803221a707b181b781800a4
:10536c0000f05afc58e07b6804331b6816243a1989
:10537c001100180000f0faf8031e4cd03b191b78f2
:10538c00052b09d917217b1805221a707b181b785d
:10539c00180000f041fc3fe016243b191978204b13
:1053ac004e2299541f4b1900002013f0d5f83b19cd
:1053bc001b78052b28d89a001b4bd3181b689f46cb
:1053cc001a4b1900002013f02bf925e0184b19008b
:1053dc00002013f025f91fe0164b1900002013f0e4
:1053ec001ff919e0144b1900002013f019f913e000
:1053fc00124b1900002013f013f90de0104b19009b
:10540c00002013f00df907e00e4b1900002013f0eb
:10541c0007f9c04600e0c046bd4607b090bdc04687
:10542c00383b0020a49f0000b89f00001c9f000088
:10543c002c9f00003c9f0000489f0000549f0000e0
:10544c00649f00007c9f000080b582b000af786044
:10545c0039601a4a7b68110018001df0a6fa031e69
:10546c0007d0174a7b68110018001df09efa031e26
:10547c0004d13b6801221a7001231ae0114a7b689f
:10548c00110018001df091fa031e07d00e4a7b681c
:10549c00110018001df089fa031e04d13b6800228c
:1054ac001a70012305e0094b1900002013f0b8f81d
:1054bc0000231800bd4602b080bdc046d09f00003e
:1054cc00d89f0000e09f0000e89f0000f09f0000c4
:1054dc0080b584b000af78603960224b00221a602e
:1054ec000823f9187b68102218001df0ccfa020072
:1054fc000e217b181a801b4b1b68002b07d1bb6835
:10550c001b78002b03d17b181b88ff2b06d9164b5d
:10551c001900002013f084f800231ee0114b002228
:10552c001a600823f9187b68102218001df0abfada
:10553c0002000d23fb181a700a4b1b68002b06d0b7
:10554c00094b1900002013f06bf8002305e03b68b1
:10555c000d22ba1812781a7001231800bd4604b037
:10556c0080bdc046285e00202ca0000080b584b011
:10557c0000af78603960224b00221a600823f918ba
:10558c007b680a2218001df07efa02000e217b189f
:10559c001a801b4b1b68002b07d1bb681b78002b98
:1055ac0003d17b181b88ff2b06d9164b1900002042
:1055bc0013f036f800231ee0114b00221a6008236a
:1055cc00f9187b680a2218001df05dfa02000d2301
:1055dc00fb181a700a4b1b68002b06d0094b1900dc
:1055ec00002013f01df8002305e03b680d22ba18cb
:1055fc0012781a7001231800bd4604b080bdc04655
:10560c00285e00202ca0000080b584b000af78602c
:10561c003960134b00221a600823f9187b680a22a0
:10562c0018001df030fa02000f23fb181a700c4bf7
:10563c001b68002b03d1bb681b78002b06d0094bd1
:10564c001900002012f0ecff002305e03b680f224c
:10565c00ba1812781a7001231800bd4604b080bd28
:10566c00285e00202ca0000080b586b000af7860ca
:10567c003960214b00221a600c23f9187b680a222e
:10568c0018001df0f7f903007b611b4b1b68002b06
:10569c0007d1fb681b78002b03d17b69174a934217
:1056ac0006d9174b1900002012f0baff00231ee098
:1056bc00114b00221a600c23f9187b680a2218007f
:1056cc001df0d8f902001223fb181a800a4b1b6834
:1056dc00002b06d00a4b1900002012f0a1ff00236a
:1056ec0005e03b681222ba1812881a8001231800b0
:1056fc00bd4606b080bdc046285e0020ffff0000fe
:10570c002ca0000080b586b000af78603960214bca
:10571c0000221a600c23f9187b68102218001df067
:10572c00a9f903007b611b4b1b68002b07d1fb689d
:10573c001b78002b03d17b69174a934206d9174b70
:10574c001900002012f06cff00231ee0114b002208
:10575c001a600c23f9187b68102218001df08af9c6
:10576c0002001223fb181a800a4b1b68002b06d070
:10577c000a4b1900002012f053ff002305e03b6890
:10578c001222ba1812881a8001231800bd4606b0de
:10579c0080bdc046285e0020ffff00002ca000004a
:1057ac0090b587b000af786039601f4b00221a604b
:1057bc00082439197b680a2218001df05bf90300d4
:1057cc003b6100237b61184b1b68002b16d1bb6817
:1057dc001b78002b12d17b69002b0fd1124b0022ae
:1057ec001a6039197b680a2218001df043f903006e
:1057fc00fb600d4b1b68002b0ed006e00b4b190009
:10580c00002012f00dff00230ae0084b19000020c5
:10581c0012f006ff002303e03b68fa681a600123cc
:10582c001800bd4607b090bd285e00202ca00000db
:10583c0090b587b000af78603960134b00221a60c6
:10584c000c23f9187b68102218001df0d7f8030000
:10585c000c003b617c610c4b1b68002b03d1fb687b
:10586c001b78002b06d0094b1900002012f0d8fe33
:10587c00002305e03a683b697c691360546001239e
:10588c001800bd4607b090bd285e00202ca000007b
:10589c0090b587b000af78603960134b00221a6066
:1058ac000c23f9187b680a2218001df0a7f80300d6
:1058bc000c003b617c610c4b1b68002b03d1fb681b
:1058cc001b78002b06d0094b1900002012f0a8fe03
:1058dc00002305e03a683b697c691360546001233e
:1058ec001800bd4607b090bd285e00202ca000001b
:1058fc0080b582b000af0200fb1d1a70fb1d1b7837
:10590c00862b3dd00bdc822b22d004dc002b13d059
:10591c00812b17d064e0842b26d02bdc1ee08a2b45
:10592c0046d003dc882b37d03cdc2fe08c2b4bd0c3
:10593c0044db8d2b4ed053e02e4b1900002012f07f
:10594c000bfe53e02c4b1900002012f005fe4de02d
:10595c002a4b1900002012f0fffd47e0284b1900dc
:10596c00002012f0f9fd41e0264b1900002012f046
:10597c00f3fd3be0244b1900002012f0edfd35e067
:10598c00224b1900002012f0e7fd2fe0204b1900ec
:10599c00002012f0e1fd29e01e4b1900002012f04e
:1059ac00dbfd23e01c4b1900002012f0d5fd1de09f
:1059bc001a4b1900002012f0cffd17e0184b1900fc
:1059cc00002012f0c9fd11e0164b1900002012f056
:1059dc00c3fd0be0144b1900002012f0bdfd05e0d7
:1059ec00124b1900002012f0b7fdc046c046bd4650
:1059fc0002b080bd40a0000050a0000064a00000d8
:105a0c0078a0000090a00000a8a00000b8a00000a2
:105a1c00c4a00000dca00000f8a0000018a1000049
:105a2c0030a1000048a1000058a1000078a100009e
:105a3c0080b582b000af0200fb1d1a70fb1d1b78f5
:105a4c00083b182b34d89a001e4bd3181b689f4662
:105a5c001d4b1900002012f07ffd2fe01a4b19008e
:105a6c00002012f079fd29e0184b1900002012f0eb
:105a7c0073fd23e0164b1900002012f06dfd1de0a4
:105a8c00144b1900002012f067fd17e0124b19009f
:105a9c00002012f061fd11e0104b1900002012f0f3
:105aac005bfd0be00e4b1900002012f055fd05e0dc
