:020000040000fa
:10000000f07f0020796c0000236500006b6a00001f
:1000100000000000000000000000000000000000e0
:10002000000000000000000000000000a7740000b5
:100030000000000000000000616e0000517c000024
:10004000f75f0000f75f0000f75f0000f75f000058
:10005000d9610000f75f0000f75f0000f75f000064
:10006000f75f0000f75f0000f75f0000f75f000038
:10007000f75f0000f52f0000f75f0000f75f00005a
:10008000f75f0000f75f0000217a0000f75f0000d3
:10009000f75f00000000000000000000f75f0000b4
:0c00a000f75f000000000000f75f0000a8
:020000040000fa
:1000ac00f8b5c046f8bc08bc9e467047116c000001
:1000bc00f8b5c046f8bc08bc9e467047e96b00001a
:020000040000fa
:0800cc002041000001000000ca
:020000040000fa
:1000d400f0b5de4657464e464546e0b591b00400bd
:1000e400028ab74b1b88934254d1836818780da9b0
:1000f40008705d784d709e780e72e17b002900d007
:10010400d4e20da949788d0600d55be30822089254
:10011400d2e2ac4a15880daa95800325e5e20133a5
:10012400dbb20432834206d01188b142f7d1917810
:10013400a142f4d12ee0604607974c46a24b9a4563
:100144002fd00dab5b78db0607d50dab9a889d4ba2
:100154001b889bb29a4200d16ee00dab5a78032300
:100164001340012b00d1e0e00dab5b780026db07e8
:1001740010d4964b1b78063b012b00d80be1002ec4
:1001840008d00dab1b78002b04d0904b1b78062baa
:1001940000d1fae111b03cbc90469946a246ab4668
:1001a400f0bd0128cdd027234246d35c012bc8d90a
:1001b4000126874b9a464346a946a04607e00136e6
:1001c400f6b253461b6827229a5cb24231d9b0007a
:1001d40080198000db68181806f024ff0028eed090
:1001e4008c2007f06bf8041ed4d00768002fd1d000
:1001f400380014300a220da907f0d2ff5b46bb7702
:1002040000257d6038001f305a46099907f0c8ff61
:100214000123bb746b4b1b889b19bb816c4b1b6804
:10022400db690133bb603d7421006a4807f02efb93
:10023400c5e74d46444684e7674b9a4200d98ce7ac
:100244000dabda8890461b7a99465e4b198889b2c1
:100254000aae3300ff2005f05dff4b46337273781e
:100264000322934301221343102293437370ff2309
:100274004246134207d0534b1b889bb2ff22414690
:1002840091438b422bd08c2007f018f8061e00d126
:1002940063e703689846002b00d15ee719000aa8bb
:1002a40007f028f801004d4a1378013b13703223fc
:1002b4004246135404964a4b039300230293079b2c
:1002c4000193089b0093434601220aa802f032fde1
:1002d400002800d041e7300007f014f93de7434619
:1002e4001b06d0d48c2006f0e9ff8046002800d1fc
:1002f40033e70668002e00d12fe7300014300a22bd
:100304000aa907f04dff0122b27700217160322360
:10031400f3772f4b1b68db699b18b3603174b2749d
:1003240041462c4807f0b2fa17e7099b1b780f22c5
:100334009343102b16d009d9202b27d00026302b1d
:100344001ed109990da801f0cfff0de70026002b5f
:1003540016d1a37b0093099b079a08990da800f076
:1003640083fc01e7194b1b78062b00d012e7a37b13
:100374000093099b079a08990da800f033fe060024
:100384000dab5b78db0700d4f3e6f8e609990da81a
:1003940007f090fae8e60dab9b880f4a934241d9e7
:1003a400084a1188ff2211421cd0064a12881206fc
:1003b40018d4054a934200d0e1e6024b1b8815e0ad
:1003c400b4410020e2400020ffff0000ba410020b9
:1003d4000041002090400020fcff0000bb410020b1
:1003e4005b5e0000a84a1288120617d40aab0daa55
:1003f400d18819805946197209990b91a17b997278
:10040400617b59725278032313401bd19f4b1b68a5
:10041400002b00d1b3e60aa89847b0e69c4a934261
:10042400e4d1ace60dabdf881b7a9846190038009e
:1004340006f072fe002800d0a1e64146380004f020
:10044400dbfed3e7022b00d0a4e6924b1b68002b03
:1004540000d194e60aa8984791e68f4b1b78062ba7
:1004640000d060e153461b0635d58c2006f026ffec
:10047400051e00d18ee60768002f00d18ae60aae79
:100484000daca288e1882078330005f043fe637840
:1004940073703900300006f02dff237abb7004001e
:1004a40038185a46099907f07bfe04957b4b039351
:1004b400002302930eab0193022300933b005a46a0
:1004c4002100300002f036fc002800d062e628004b
:1004d40007f018f85ee68c2006f0f0fe051e00d149
:1004e40058e60468002c00d154e6200014300dae08
:1004f4000a22310007f054fe5b46a37700236360b1
:10050400b388a38120001f305a46099907f048fe9a
:100514000123a374624b1b68db690133a3602900c8
:10052400604807f0b3f935e68c2006f0c7fe051ed7
:1005340000d12fe60468002c00d12be620001430f3
:100544000dae0a22310007f02bfe5b46a377002391
:1005540063605a46099920001f3007f021fe0123e9
:10056400a374b08804f030fa002803d1280006f000
:10057400c9ff0fe64a4b1a682923d35c0133a360f1
:100584002900494807f082f904e60aab01225242e5
:100594001a808c2006f092fe071e00d1fae503684b
:1005a4009846002b00d1f5e50dae3378013b33704e
:1005b4004146300006f09efe0790317a434699701a
:1005c400f08805f013f9002820d0079e3300434437
:1005d4001800227b521b099907f0e2fd227b521b73
:1005e400d2b204972d4b0393002302930aab0193d9
:1005f40002230093434631000da802f09bfb002820
:1006040000d0c7e5380006f07dffc3e5380006f0ea
:1006140079ffbfe5676807970dad6a807a781202a3
:1006240094463a7867463a43ea800222089222784e
:10063400520700d46de50daa01256d4295804a0745
:1006440000d5a7e503330993237b033bdbb29b4629
:100654000dab9b889a4603250dabdb889946104b5e
:100664001b6898462a234246d35c9c46002b00d143
:1006740064e592690023079f6146844620003400a4
:100684004e46814608004fe5e24000202841002004
:10069400fdff000024410020ba410020c75b000098
:1006a4000041002090400020a84000200da9497876
:1006b4008d06afd402220892626807920daa1d79b2
:1006c4002d02ac46dd7867463d4355809d792d0269
:1006d400ac465d7967463d4395801d7a2d02ac4654
:1006e400dd7967463d43d58009254a0700d551e5a4
:1006f4005b190993237b5b1bdbb29b460dab9b8889
:100704009a46344b9a45a7d8334b1b889bb29a45db
:1007140000d116e5304b1b889bb2ff225146914312
:100724008b4200d199e62c4b1b889bb29a4500d191
:1007340030e5002800d12de5284b1b78062b00d08e
:1007440028e5254b1b889bb20daad2889a4200d17a
:1007540020e501380dab1870504606f0efff0aabe8
:1007640018801f4b984200d1dee68c2006f0a6fdcf
:10077400041e00d10ee50668002e00d10ae50daf77
:100784003100380006f0b6fd05003b7ab37030182e
:100794005a46099907f004fd0494124b039300236d
:1007a40002930aab01930223009333005a462900b3
:1007b400380002f0bffa002800d0ebe4200006f075
:1007c400a1fee7e4656807950dad6a8008220892ea
:1007d4002de7c046fcff0000e2400020ba410020a3
:0807e400ffff0000c75b0000ed
:020000040000fa
:1007ec00983f00201c00000000000000ea400020a0
:1007fc000200000000000000103d0020500000002e
:10080c00000000003c380020040000000000000044
:10081c00b43f00201c00000000000000ec40002051
:10082c000400000000000000484000200c00000004
:10083c0000000000783f00201d00000000000000b8
:10084c00f04000200400000000000000ae41002039
:10085c000200000000000000f44000200400000032
:10086c0000000000b2410020020000000000000067
:10087c00b64100200100000000000000e03b002019
:10088c006800000000000000402f0020fc05000064
:10089c000000000054400020180000000000000080
:1008ac00c341002001000000010000000100000015
:1008bc00b74100200100000000000000b4400020ff
:1008cc000800000000000000853e0020030000002e
:1008dc0000000000f84000200400000000000000b0
:1008ec00e24000200200000000000000953f0020c4
:1008fc00010000000000000040390020c000000092
:10090c000000000040380020000100000000000042
:10091c00583f00202000000000000000603b002039
:10092c0080000000000000003c35002000030000a7
:10093c0000000000b8410020010000000000000091
:10094c00603d00205000000000000000303f0020ff
:10095c002800000000000000c83e00203c00000001
:10096c0000000000483c0020640000000000000073
:10097c00c441002050000000010000003c35002064
:10098c0040380020603d0020483c0020603b0020a7
:10099c00583f0020c83e0020030000007800b0043f
:1009ac00201905053c050f05303f00203c000000d8
:1009bc007800b00434120a40030000000600000066
:1009cc000f190301ab11223344556611fc40002072
:1009dc0008000000000000006c4000200c0000002b
:1009ec0000000000963f0020020000000000000004
:1009fc00784000202400000000000000b9410020d5
:100a0c000300000000000000b441002002000000c0
:100a1c00000000009c4000200c00000000000000c2
:100a2c000441002004000000000000001a420020d5
:100a3c00010000000100000001000000dc4000206b
:100a4c000600000000000000443e002041000000b1
:100a5c0000000000bc41002001000000000000006c
:100a6c00bd4100200100000000000000a840002053
:100a7c000c00000000000000be410020020000003d
:100a8c0000000000bc400020080000000000000036
:100a9c00d03f00201400000000000000b0410020f6
:100aac0002000000000000000841002004000000cb
:100abc0000000000ac41002002000000000000001b
:100acc001b42002002000000010000000201000097
:100adc00e440002006000000000000000c41002053
:100aec002000000000000000003a0020c0000000c0
:100afc0000000000c04100200100000000000000c8
:100b0c00043f00202c00000000000000c440002026
:100b1c000800000000000000883e0020400000009b
:100b2c0000000000c03a0020a000000000000000ff
:100b3c00184200200200000001000000010000002b
:100b4c002c4100200400000000000000003e0020aa
:100b5c004400000000000000304100201c00000098
:100b6c0000000000144200200400000001000000fe
:100b7c00aaaaaaaa4c410020040000000000000010
:100b8c0000000020402f0000000000005041002019
:100b9c001400000000000000cc4000200800000001
:100bac0000000000644100200c0000000000000068
:100bbc00ac3c0020640000000000000070410020ec
:100bcc001400000000000000e43f0020280000009a
:100bdc000000000084410020100000000000000014
:100bec000c40002014000000000000009441002084
:100bfc00040000000000000020400020280000003d
:100c0c0000000000984100200800000000000000d7
:100c1c00d44000200800000000000000c14100206a
:100c2c000200000000000000a041002004000000b1
:100c3c0000000000b03d002050000000000000004b
:100c4c00a44100200800000000000000000000008b
:100c5c0000000000666666666666666666666666c0
:020000040000fa
:100c6c00f0b5de4657464e464546e0b58db007001a
:100c7c00069114001e0016ab1d783278032a00d1a1
:100c8c0089e01ed9052a00d1ece0072a00d0f3e058
:100c9c00c94b1b78062b00d0eee0c3888279002a62
:100cac0000d058e1ff32934300d154e1c34b1d688f
:100cbc003b23eb5c012b00d84de10124bf4b994643
:100ccc0033e1012a00d0d7e0bb4b1b78062b00d0b8
:100cdc00d2e0bb4b1a88ff231a4200d0cce0220092
:100cec000821b84804f0fcfd002800d1c4e08c2099
:100cfc0006f0e0fa051e00d1bee00668002e00d119
:100d0c00bae0af4b198889b209ab0022012005f07b
:100d1c00fdf902ab5b7f2022134302aa537731000b
:100d2c0009a806f0e3fa070002233354a64b1a78fd
:100d3c00431cdbb2f254a54b9a46a54b9b4651463d
:100d4c00180002f001ffbb1cdbb2f0545b461a78b2
:100d5c00fb1cdbb2f25453461a783b1ddbb2f25447
:100d6c00781dc0b230180822964907f015fa049580
:100d7c00984b0393002302930194069b009333003a
:100d8c000d22390009a801f0d1ff002874d12800e8
:100d9c0006f0b4fb70e07178b278874b1b78062ba9
:100dac006ad1874b1888ff23184265d1f31c2000a9
:100dbc0000f046fc06000790814b198889b209aff8
:100dcc003b000122012005f0a1f97b78202213437e
:100ddc007b708c2006f06efa814600284cd0076898
:100dec00002f49d0390009a806f080fa824603008a
:100dfc000133dbb204223a54774a0799914224d149
:100e0c0002000232d2b293460122fa545b46fe54df
:100e1c000133dbb2360afe545b4652469a1a023252
:100e2c00d2b24b4604936b4b039300230293019471
:100e3c00069b00933b00514609a801f077ff002860
:100e4c001ad1484606f05afb16e002000232d2b222
:100e5c0093460022fa542b0001323100300004f08a
:100e6c007df9d3e71a2302aa9446634400221a8020
:100e7c00514b1b78062b06d00db03cbc90469946c6
:100e8c00a246ab46f0bd701c00230522022100f0e7
:100e9c00d7fb0400504b9842eed08c2006f00afa97
:100eac00051ee9d00668002ee6d0454b198889b29c
:100ebc00fa8809abff2005f029f9310009a806f0e2
:100ecc0015fa070006233354431cdbb2f454831c7d
:100edc00dbb2240af45402ab188cff23984306f0bf
:100eec0029fc1a2302aa9446634418800495394ab3
:100efc0003920022029201930223009333000332e7
:100f0c00390009a801f012ff0028b5d1280006f01d
:100f1c00f5fab1e7404604f0d7f80134e4b24b4699
:100f2c001d683b23eb5ca34215d9fb8898461b0a32
:100f3c009c42f2d16000001980002b689a468244d2
:100f4c00711c0822504606f0a3ff0028e2d16b8cde
:100f5c0052469360e1e7fb881b0600d48ce7174be5
:100f6c001d682623eb5c002b00d185e70024134b76
:100f7c0099460be0404604f0a7f80134e4b24b4626
:100f8c001d682623eb5ca34200d875e7fb889846c6
:100f9c008023424613409c42efd12301aa6892461b
:100fac009a44711c0822504606f072ff0028e1d1c9
:100fbc00eb8e52469360e0e7ba41002000410020de
:100fcc00e2400020b4400020853e0020b7410020c4
:0c0fdc00863e0020b7330000ffff00003d
:020000040000fa
:100fe800f0b5de4657464e464546e0b591b0050099
:100ff8001aa90f7854782002ff2112780243cb48af
:101008000088084200d083e191b2ff20084200d056
:1010180086e1e888ae79002e00d083e11e78122e92
:1010280000d162e1132e04d0112e00d1ece0002093
:101038006fe159788946002900d187e0390909917b
:101048000021023307930f20b94b98469c46089419
:101058004e460a970b9224e007402b7883433b4384
:101068002b708d000235b24f3b681b69089a5a55a0
:101078003b681b699a46aa4453465b788343099a9e
:101088001343524653703b681b695d196b780340e4
:10109800302291464a4613436b700131cbb29e42cf
:1010a80051d9079b5b181d78854335d01d782d09cc
:1010b8006a1c151c0f2a00d90f25eab245462d686f
:1010c8006d696d182f78874303d02f783f099742b1
:1010d80022d912012f7807403a432a708d00944a8a
:1010e80017683f69bb462f005d46089cec5515689c
:1010f8002d69ab46bb445d466d788543099c254305
:101108005c46657015682d69ef197d7805403022b9
:1011180091464a4615437d701d782842bdd02d075b
:101128002d0f01352b1c0f2d00d90f23dfb263467d
:101138001d686d696d182b7818428dd01b071b0f21
:10114800bb42aad988e7089c0a9f0b9ae30749d5ae
:10115800774b1b6861085869435c0f25ab43012531
:101168002b434354640072490b681b691204120e26
:101178001a550b681a6912193b0957780f208743cb
:101188001f4357700b681b691c1962780f231340a3
:10119800302213436370654b1b881b0a09685a0089
:1011a8000869805cff2800d1bee0d80725d55b0818
:1011b8004869c15c0f24a143c1545d490b681b6990
:1011c800ff2098540b681b699b1858780f24a0437c
:1011d80058700b681b699a1851780f230b4053708d
:1011e800002096e0524b1b6861085869455c0f2344
:1011f8002b4010252b434354b4e75b084869c45c73
:101208000f212140c154d8e79c7822025b78134310
:101218009846474b99463b261b689a5d02322b78c5
:10122800d21ad2b23b0003f09bff4b461b689b5d72
:101238000120a3426dd9200006f062fb020007904e
:101248003a4b1b889bb2434502d00120002a60d04c
:10125800eb889a468c2006f02ff8061e43d00568c6
:10126800002d40d0314b198889b20daf3b00524652
:10127800ff2004f04dff7b78102293437b702900f8
:10128800380006f035f8814612232b540300013349
:10129800dbb200229346ea5403000233dbb2ec547b
:1012a80003000333dbb2079aea54504606f044fac7
:1012b8001a2306aa94466344188004961d4a03928a
:1012c8005a4602920193022300932b0004324946a6
:1012d800380001f02dfd002801d0002019e0300071
:1012e80006f00ef9f9e7002013e09c7824025878fc
:1012f8000f4a16683b22b25c0232db78d2182b7890
:10130800d21ad2b220433b0003f02aff002000e0ab
:10131800002011b03cbc90469946a246ab46f0bdb1
:101328000020f6e70020f4e70020f2e7e240002082
:08133800004100205f5a000093
:020000040000fa
:10134000f0b5de4657464e464546e0b583b00090c0
:101350001e000cab01cb81461b789a460eab1f7862
:101360005478240213781c43502e00d946e1a4b2cd
:10137000ab4b1b889bb29c4200d148e1a94b1b7828
:10138000063b0025012b00d939e1022900d036e1c6
:101390008c2005f095ff0190002800d139e1036809
:1013a0009b46002b00d136e1009b023b5a425a413a
:1013b00051005b465b7d032293430b435a465375b2
:1013c0001483974b1b88538301233b401a015b46d0
:1013d0005b7d10218b4313435a4653755b469677ca
:1013e00052465a7400235a4693745b460f9a5a60c9
:1013f0003200494658461f3006f0d4fe8a4b9c42c4
:101400005ad95b465b7d102293435a465375874bee
:101410009c4238d1864b1b6827229a5c012a32d91c
:101420000124834e273505e00134e4b233685a5d68
:10143000a24228d9a00000198000db68181805f026
:10144000f3fd0028f0d08c2005f03aff80460028fc
:1014500000d1e2e00768002fe6d07022594638003c
:1014600006f0a0fe724b1b68db690133bb600022f3
:101470003a746b4b1b881b19bb817a6041466d48df
:1014800006f006fad0e76c4a6849584601f008f9b8
:10149000051e0cd10f9b002b05d05b46587c5a468d
:1014a00001210f9b9847019806f02ef8a7e00199bb
:1014b000624806f0edf9a2e0ff23234207d0584b23
:1014c0001b889bb2ff22210091438b4234d0554ba5
:1014d0001b78072b4ed1524b1b88ff2293435a4651
:1014e0009381002f6ed05b469b89a3422ad05b4636
:1014f000198b4f4b1a683b23d05c0130c0b204f00b
:10150000dbfd5b4698604a4b1a684623d35c013387
:101510005a46137491894a4a584601f0c1f8002886
:1015200004d15b461b7c013b5a4613740199454824
:1015300006f0aef9012562e05b469c81230609d5e1
:10154000002f3fd05b46198b012004f0b5fd5b46b0
:101550009860d8e7364b1a68d369013359468b60d7
:101560004623d35c01330b740199324806f090f99d
:10157000012544e0ff232000984306f0e1f85b4694
:1015800098812a4b9842acd1200003f01ffa051e27
:101590000cd10f9b002b05d05b46587c5a4601218d
:1015a0000f9b9847019805f0afff28e0204b1a6881
:1015b0002923d35c01335a4693600199224806f0ef
:1015c00067f91ce000235a46137491891a4a584659
:1015d00001f066f8051e0cd10f9b002b05d05b4671
:1015e000587c5a4601210f9b9847019805f08cffc3
:1015f00005e00199114806f04bf900e000252800ac
:1016000003b03cbc90469946a246ab46f0bd0025cf
:10161000f5e70025f3e70025f1e70025efe7c046f1
:10162000e2400020ba410020fcff0000ffff000064
:101630000041002090400020b96a00009c4000203a
:0c164000492a00006c400020a840002057
:020000040000fa
:10164c00f0b5de4657464e464546e0b585b00190ae
:10165c0091460293ceb20623334203d04a4613403e
:10166c00042b37d0b30700d156e14b46db0700d52e
:10167c00a1e0af4b1f682723fd5c012d00d898e03b
:10168c00fb689a461e00143601240822019930008a
:10169c0006f0fefb002800d10ce10134e4b2143654
:1016ac00ac42f2d10124a24b9a462726a000001985
:1016bc0080000500fb68181805f0b0fc002800d16c
:1016cc0009e10134e4b253461f68bb5da342edd877
:1016dc00984822e1964b1d683b23eb5c9a46012b04
:1016ec00c0d92b689b461f000c3701240822019996
:1016fc00380006f0cdfb00283fd00134e4b20c37a3
:10170c005445f3d101248a4b9a463b2760000019bb
:10171c00800003902b68181805f080fc002832d04c
:10172c000134e4b253461d68eb5da342eed8012ba5
:10173c0098d928684269002a37d002002032012447
:10174c0008256d422d1a0134e4b2a3428ad0af1899
:10175c00100008380c3211000c3909680029f2d13c
:10176c000822019906f018fd714b1b681a68944603
:10177c0067445b8cbb602002cfe06f4b5b446a8c90
:10178c009a602002c9e06a4e33681868039dac4623
:10179c0060440822019906f0fffc32681168884603
:1017ac004544528caa602002b7e00c3001240c276f
:1017bc00d6e76048b1e05e4b1f682623fd5c002d28
:1017cc0000d1b1e0bb6898461e00002408220199a4
:1017dc00300006f05dfb002845d00134e4b2103631
:1017ec00ac42f3d10024524b9a4626252601b86808
:1017fc00801905f013fc002840d00134e4b25346a4
:10180c001f687b5da342f1d8002b00d18ee0b86835
:10181c008668002e4ad002001832002408277f4226
:10182c003f1a0134e4b2a34242d0be18100008386b
:10183c0010321100103909680029f2d108220199df
:10184c0006f0aafc3a4b1b689a6892194946117328
:10185c009a6894466644db8eb360384b18888030a7
:10186c00001980b259e0ff231b014344fa8e9a60a1
:10187c00324b18888030001980b24ee02c4f3b68f8
:10188c00986880190822019906f086fc3b689a68d2
:10189c009219494611739a6894466644db8eb3607c
:1018ac00264b18888030001980b236e00024c5e73a
:1018bc00204832e0224850440422029906f06cfc85
:1018cc00fb68204a944663449a68da601b4b18887c
:1018dc00001980b221e0164f3b68d8682e00ac4648
:1018ec0060440822019906f057fc3d68eb68b44649
:1018fc00634449461974eb681800604408300422ac
:10190c00029906f049fceb689e19b368f3600b4b27
:10191c001888001980b200e0064805b03cbc90461f
:10192c009946a246ab46f0bd0248f6e70148f4e7fb
:10193c0000410020ffff0000f40b0000e2400020fb
:08194c00f4130000ec1300008d
:020000040000fa
:10195400f0b5de4657464e464546e0b587b0061c10
:1019640003900f0004911400240a0592019310ab14
:101974001d78b606f60f0297d3b29946e3b298469d
:101984008c2005f09bfc8246002800d116e10468f7
:10199400002c00d114e123000c33636003ab1878ee
:1019a400430701d50123994603220240012a35d079
:1019b40051425141c9b28d4b1b8803af7f899f426d
:1019c4002ed000239b4607339c46634608334f467c
:1019d400002f00d0063b4746002f30d00233dbb245
:1019e4002427384020282dd0032a2dd0aa1c9b1848
:1019f4002373617303ab72011e7820218e43164357
:101a04001e70f3439b0727d04b46002b00d184e084
:101a14004346002b6cd08823a3736be00321cae7f1
:101a2400734fbb4206d04023194301239b46043322
:101a34009c46cae700239b4607339c46c5e7083308
:101a4400dbb2cde70143cfe701239846002600230c
:101a54009b4600210733c9e78023a373654a1378a3
:101a6400591c1170e37304265b46002b0ad1721cc7
:101a7400d2b25e490b78606883550236f6b24b7871
:101a840061688b544346002b63d05b4a13786168ca
:101a94008b55b31cdbb20136f6b2527861688a55b5
:101aa400002d0ad0019a5d19edb2591c10786668b0
:101ab400f0540132cbb29d42f7d1504b129a1a60c6
:101ac40005f0f0fc0f2858d0534623604c4b1a788d
:101ad4004c4b1978200005f0c5fa002856d1013086
:101ae400139b002b63d0180005f00cfd01205ee071
:101af400c823a3733f4a1378591c1170e37303abd3
:101b04009a7a2274db7a6374730769d4029a13781d
:101b1400a3745378e3740826a6e74346002b51d0f8
:101b24008c23a373334a1378591c1170e37303abea
:101b34009a7a2274db7a6374730751d40623029f62
:101b4400063ffa5c6168ca5401330e2bf9d10e26a4
:101b54008ae72d4b5b681f0008371a00f31aac465e
:101b640010789918c9b2656868540132ba42f7d13d
:101b7400654633000833dbb292e7f03005f0fefe31
:101b8400002006f099f805f08dfc9de71f4b01221b
:101b94001a701f4a1378013b1370139b002b02d059
:101ba400180005f0affc504605f0acfc002007b06f
:101bb4003cbc90469946a246ab46f0bd0020f6e7f1
:101bc4000020f4e7cc23a3730a4a1378591c11703c
:101bd400e37303ab9a7a2274db7a63747307add52b
:101be400ff23a374e37408263ee7c046b0410020f7
:101bf400ffff0000bf410020ac410020084100204d
:101c04001c4200201b420020bc4000201a4200203d
:041c1400963f0020d7
:020000040000fa
:101c1800f8b50021ab4804f0e7f8002800d14de101
:101c28000268002a00d14be1536819785e78402495
:101c38002640a54b00241c70dc73013c1c825468b0
:101c4800a3783325ab43882b00d197e00ad9c82b5a
:101c58003ad0cc2b6bd08c2b00d1c7e005f050fcd0
:101c680000201ce1082b00d1ece0802bf6d1964b2c
:101c78001c7804252543802464422c431c700124cd
:101c8800dc73546824791c74546864795c745468ef
:101c980006345c600c00093c1c73546808349c6072
:101ca80053685c78230700d5e0e007232340012b25
:101cb80000d1dfe0002b00d1fae0032b00d1efe0e8
:101cc80005f01efc0020eae0a379ff2b16d07e4d1c
:101cd8002f7880235b423b432b70002e17d024794a
:101ce8002c74546864796c74546808346c600c0003
:101cf800113c2c7354681034ac60d1e7e379ff2ba6
:101d0800e5d1714d2b7804273b432b70dfe7247a0c
:101d18006d4b1c745468647a5c7454680a345c6053
:101d28000c00133c1c73546812349c60b8e7664d71
:101d38002f7880235b423b432b70002e0ed02479f2
:101d48002c74546864796c7454680e346c600c009c
:101d5800173c2c7354681634ac60a1e7a47b5a4b2b
:101d68001c745468e47b5c74546810345c600c0028
:101d7800193c1c73546818349c6091e7a379ff2bb5
:101d88001ad0514b1d78802464422c431c700124c6
:101d9800dc73002e19d153681c7a4b4b1c745468a1
:101da800647a5c7454680a345c600c000d3c1c73e3
:101db80054680c349c6073e7e379ff2be1d1424c03
:101dc800237804252b432370dbe753681c793e4bab
:101dd8001c74546864795c74546808345c600c0042
:101de8000b3c1c7354680a349c6059e7364b1d78c9
:101df800802464422c431c700124dc73002e10d014
:101e080053681c79304b1c74546864795c7454684a
:101e18000e345c600c00113c1c73546810349c60d8
:101e28003ee753685c7b284b1c745468a47b5c7445
:101e380054680f345c600c00133c1c7354681234f3
:101e48009c602de7a379ff2b07d01f4c0b00083ba4
:101e5800237353680733a36022e7e379ff2bf4d198
:101e6800194c237804252b432370eee705f048fb33
:101e7800002014e0144c23780325ab43237002316f
:101e8800c9b253685b18023b1b780f4ca3735368a5
:101e9800591801390b78637305f032fb0120f8bd3e
:101ea800094c23780325ab4301252b432370e6e730
:101eb800054c237803252b432370e0e70020eee749
:0c1ec8000020ece778400020d03f002014
:020000040000fa
:101ed40070b50d007f4b1c78042c00d1e7e04e2830
:101ee40007d059280ad10a787b4b1a77002420009e
:101ef40070bd0a78784b1a750024f8e7754b5a7848
:101f04000f2a00d1d5e00b2800d1c6e016d95328fa
:101f14007cd047d84f2868d089245028e7d16e4c0c
:101f24000b880978a1731b0ae373222003f0c8ff0e
:101f3400e17b232003f0c4ff0024d8e7022800d16a
:101f440082e00cd9032800d19de0042828d1002c7c
:101f540000d0b4e00c78002cc9d08824c7e700284e
:101f64001cd1002c00d0a6e00b785c49d940c907ed
:101f740000d4a2e0082a00d1a3e0082000f0b0f8c1
:101f84000828fad12b78544ad37400221f21082040
:101f940005f0ccfd162000f0a3f8a8e78924a6e7f5
:101fa4008924a4e7572840d08924f0289fd10a68bf
:101fb4004b68494d2a70110a6970110ca970120ef0
:101fc400ea702b711a0a6a711a02120eaa711b0e98
:101fd400eb7124242978200003f072ff01350134c9
:101fe400e4b22c2cf6d1002481e70b783a4a5375dd
:101ff400d27e934201d9384b5a75374b5b7d002210
:102004000f212f2005f092fd002470e7324c0b883d
:10201400097821731b0a6373202003f051ff617b4d
:10202400212003f04dff002461e70b782a4ad37680
:10203400527d9a4201d9284a53750422f0212f2057
:1020440005f074fd002452e70878830612d43f2378
:102054000340042b00dd0420802318431e4bd87555
:1020640004f002fd030000220f21052005f05efdaf
:1020740000243ce742421f2313405b425bb211330e
:10208400eada2f20e8e70b78134a937405226021db
:10209400082005f04bfd002429e70b780e4a9375c0
:1020a400032208212e2005f041fd00241fe7862489
:1020b4001de781241be7862419e7882417e7862473
:1020c40015e7054ad37400221f21082005f02efdd0
:1020d4000de7c046b43f0020783f002000f8ff071a
:020000040000fa
:1020e40070b504007c4b5b780f2b07d00338c2b269
:1020f400162a5fd89000794a125897460f286ed056
:10210400754d00232b7105f023fd08236b70082cfb
:1021140000d1dde0032c00d1dce0201fc3b2152b7d
:1021240048d898006e4b1b589f460321022003f0a9
:10213400c7fe0f2003f0b8fd10210e2003f0c0feef
:10214400654c0f236370012005f0cefe654b8022a1
:1021540052039a61232005f0c7fe60783fe05e4b8e
:102164005b78082b26d00821022003f0a9fe012069
:1021740005f0bafe1ee0082b1cd00321022003f058
:102184009ffe012005f0b0fe14e0534b5b78082b52
:1021940026d00dd9162b01d0192b0bd108210220e2
:1021a40003f08efe012005f09ffe02f0bdfd01e06c
:1021b400062bf3d0012003f077fd1f231840464b74
:1021c400587063241d001f2809d1012003f06cfd01
:1021d4001f2318406870013ce4b2002cf3d170bd99
:1021e40002f0a2fde6e73c4b5b78082b06d0092bf6
:1021f400e0d00421022003f063fedbe702f094fd4b
:10220400d8e7354b5b78092b11d00cd81f24082b49
:10221400d0d10621022003f053fe05f0cdfd20406d
:102224000628f6d1c6e7162b01d0192bc2d10821f6
:10223400022003f045fe1f240621022003f040fe85
:1022440005f0bafd20400628f6d1b3e7224b5b78af
:102254001f24082b16d004d9092b04d0192ba9d17b
:1022640001e0062ba6d10821022003f029fe1f2439
:102274001621022003f024fe05f09efd20401628be
:10228400f6d197e71621022003f01afe05f094fd1b
:1022940020401628f6d18de70f4b5b78082b12d01f
:1022a40005d9092b06d0162b00d083e702e0062bb4
:1022b40000d07fe70821022003f002fe192102204a
:1022c40003f0fefd76e71921022003f0f9fd71e722
:1022d400200084e7082082e7b43f0020184900006a
:0822e4007449000000440041b0
:020000040000fa
:1022ec00f8b5ce46474680b507000b78312b09d0a0
:1022fc00322b26d1694b5b7a0024002b21d0674b03
:10230c00994696e083799c00e418a400644b1b6802
:10231c00d868001904f082fe002816d0604b1b68a8
:10232c00db681c19a368e3605e4b5b7a9846002b54
:10233c0007d05d4b1a8892b2fb88ff218b439a42df
:10234c0007d00cbc90469946f8bdf88802f0bcfe4c
:10235c00f7e70024002600253be00021514803f05c
:10236c0041fd061eedd0056837e04d4a91463b22f3
:10237c0049460968885c0130c0b2190003f096fe2a
:10238c00a8604b461a684623d35c01332b74f9883a
:10239c00464a280000f07ef9002802d12b7c013b34
:1023ac002b7431003d4805f06dfa0ee06b68002b84
:1023bc0003d0687c2a0001219847300005f09ef874
:1023cc00bfe73100374805f05dfa0134e4b2a045af
:1023dc00b7d0344b5b7a002bbfd1002db1d0f9882c
:1023ec002b8b994205d0324a9342ead1aa898a4270
:1023fc00e7d16a7dd20604d52b4a128892b2934259
:10240c00b3d02c4a280000f045f90028ced0002388
:10241c002b743100284805f035fad6e731001f48f7
:10242c0005f030fa0134e4b24b465b7aa34200d893
:10243c0087e70021194803f0d5fc06000568002d3c
:10244c0000d17ee73a7a2b7f9a42e7d1fa882b8b20
:10245c009a42e3d16b68002b03d0687c2a000021e0
:10246c009847300005f04af82b8b2a7e002ad9d1e8
:10247c000d4a128892b2ff21180088438242d1d0b3
:10248c00074a12681b0a12695b00d31859780f228d
:10249c000a4030210a435a70c4e7c0466c40002001
:1024ac000041002090400020e2400020492a00001a
:0c24bc00ffff0000b96a00009c400020f7
:020000040000fa
:1024c800f0b5de4657464e464546e0b58bb06a4bfa
:1024d8005b7a002b69d00025674e27e06368002be4
:1024e8001fd0607c220007219847380005f008f8c3
:1024f80017e00023237462680100200000f0ccf884
:10250800002806d16368002b03d0607c22000121db
:102518009847380004f0f4ff03e03900564805f006
:10252800b3f90135edb2737aab423ed90021524876
:1025380003f05afc071e42d00468002c3fd0a36861
:10254800002bead0013ba360002be6d1238b9a46ef
:10255800180005f0f1f88146484b9842bed0637ddb
:10256800db06c6d5464b9b463b235a461268d05cd1
:102578000130c0b2514603f09bfda0605b461a686b
:102588004623d35c013323744b46a3813d4a494615
:10259800200000f081f8002802d1237c013b23743d
:1025a8003900394805f070f9bbe7384b1b78002b28
:1025b80005d0013bdbb2354a1370002b06d00bb0b7
:1025c8003cbc90469946a246ab46f0bd2c4b1a68d7
:1025d8002823d25c2d4b1a7004f0dcfe0028eed0c4
:1025e800c30744d44008c4b21a236b44032252429e
:1025f8001a808c2004f060fe061ee0d00768002fc9
:10260800ddd0234b198889b21a256d442a8807ab77
:10261800012003f07dfd390007a804f069fe80461b
:1026280013233b5403000133dbb2fc540230c0b225
:102638003818134b1b685969220005f0affd0123b8
:102648005b422b80a21cd2b20496124b0393002348
:1026580002930195023300933b00414607a800f01e
:1026680067fb0028abd1300004f04affa7e7440815
:102678000134e4b2b8e7c046a8400020ffff0000dc
:1026880000410020492a00006c400020be41002083
:08269800e2400020cf420000e7
:020000040000fa
:1026a000f0b5d6464f464646c0b58eb004000792f8
:1026b0001e2302aa9446634419808c2004f000fe75
:1026c000061e00d1c5e0674b1b889bb21e2202a9e3
:1026d0008c46624412889a4200d1bce0002c00d1a2
:1026e000bbe00768002f00d1b9e00bad228b618bf6
:1026f0002b00ff2003f010fd627d9107890f6b789e
:10270000032083430d3002400b4310218b431343be
:102710006b70238b227e002a07d0524a128892b215
:10272000ef3118008843824248d04f4a93423ad052
:1027300039000ba804f0e0fd0890a37c002b00d129
:1027400073e0237fbb70494a1378013b1370089be9
:10275000f818a27f21001f3105f024fda37f9a46bf
:102760001e2302aa944663441a883f4b9a425fd0c4
:102770000496079b0393637c02931e2302aa94464c
:1027800063440193022300933b00524608990ba82f
:1027900000f0d2fa051e58d028000eb01cbc90469e
:1027a0009946a246f0bda389227b002ac0d02d4abb
:1027b000128892b2ff218b439a42b9d12c4b5b7a9b
:1027c000002bb5d02a4d0021280004f05dff0268df
:1027d0006d7a002dacd01e2302a98c4663441b8861
:1027e0009a46002340218c461f49884611e002a8e2
:1027f00025214018007861460843814602a825211a
:1028000041184846087012680133dbb2ab4200d170
:102810008ee7002af7d0108b218b8142e7d040450c
:10282000f1d190895045eed1e1e7bb7823778ee76f
:102830000c4b188880b2b97802f0daff051e00d080
:1028400096e7300004f060fea6e7300004f05cfe7e
:10285000a2e70025a0e700259ee700259ce70025cc
:102860009ae7c046e2400020ffff0000bb41002085
:042870009040002074
:020000040000fa
:10287400f0b5c64600b584b001900f0002939600ef
:10288400300000f097fd051e00d1bae0542000f09e
:1028940091fd041e58d005633200a521280005f0df
:1028a40089fc236b9846002f54d03b783422a354e0
:1028b400002b09d0012321003431fa5cca54002ac8
:1028c40002d00133102bf8d143230022e2540a9d95
:1028d400042d00d90425e56265640027a764231d3f
:1028e4000393180005f075fd2000183005f071fd04
:1028f400246105235b1ba3616462e7645023e754ee
:10290400301f4044493b9843029a019905f026fa46
:1029140020600b9b002b00d01c6005f05dfb3c4a43
:102924001368013313603b4b1b68002b16d03a4be2
:102934001b68002b17d1374b1b68db6ae26a934292
:1029440011d8344b1c600ee0280003f099fe0120de
:10295400404258e034230022e254b8e72d4b1c6077
:102964001368012b23d02d4a136801331360e36ae3
:102974002b4a1268934201d9294a13609800c0185f
:102984008000284b1818039905f09afb05f0e0fb2a
:10299400214b1b680120002b35d01e4b1b68da6ac3
:1029a400e36a9a422fd205f00bfb01202be01d4d68
:1029b400280005f07afb2800143005f076fb280087
:1029c400283005f072fb28003c3005f06efb28002f
:1029d400503005f06afb144e300005f066fb134dd1
:1029e400280005f062fb124805f05ffb114805f072
:1029f4005cfb114805f059fb104b1e60104b1d6029
:102a0400b1e70120404204b004bc9046f0bdc0468a
:102a14007041002064410020944100207c4100204a
:102a240080410020ac3c0020e43f0020f83f00201f
:102a34000c40002034400020204000206841002049
:042a44006c410020c1
:020000040000fa
:102a4800f0b5de4657464e464546e0b583b080466b
:102a580089469246177b534b5b7a002b00d199e04d
:102a680000246ae0fc33034200d07ce04e4b1b8814
:102a78009bb2ff22010091438b4274d04b4b1a68e2
:102a8800030a5b001269d3185a780f218a436ad067
:102a98005a78934612090f321140019109018c4668
:102aa80059460f221140624611435970019b002b71
:102ab80059d104f023f856e00123ab74a9893c4aa4
:102ac8002800fff7e9fd002802d12b7c013b2b747d
:102ad8003100344804f0d8fe29e0ff23034213d123
:102ae800314b1b889bb2ff22010091438b420bd0d4
:102af8002e4b1b68000a1b694000181842780f23e8
:102b08001340302213434370298b284b1a683b2308
:102b1800d05c0130c0b203f0cbfaa8603100214884
:102b280004f0b2fe03e031001e4804f0adfe0134ab
:102b3800e4b21c4b5b7aa3422cd90021194803f05c
:102b480053f9061e26d00568002d23d02b7fbb42e3
:102b5800e9d16b7c4345e6d1288b4b46002bbcd092
:102b6800032b00d17ee72b7c002b04d0013bdbb28a
:102b78002b74002b03d00f4b1b78082b9cd16b6850
:102b8800002b03d05246494640469847300004f08f
:102b9800b7fccce703b03cbc90469946a246ab468e
:102ba800f0bdc0466c400020e240002000410020fb
:082bb800492a0000ba41002087
:020000040000fa
:102bc00070b50500594c207fc0b2002800d0a7e0a6
:102bd00000294ad0002d48d0554c6668072434405f
:102be000012c5ed05148056042600024446184613c
:102bf00004614e488160002a58d04c4ad3604b4a49
:102c0000012111774a4a127e520705d5484a04200d
:102c1000916a117e0142fbd1454a518b0420014348
:102c20005183117e80200143117640498a68c9682a
:102c3000914203d93d48c168891a01613c494968fc
:102c4000490743d139498969914233d2374a1168da
:102c5000087837498862916901319161002b5ad017
:102c6000334b04229a7501205be0002b59d0002ad7
:102c700057d02f4c666807243440012c0cd02b48c9
:102c8000056042600024446184610461002db0d17c
:102c9000264900208860aee7002943d1dc07eed545
:102ca0003fe0cc073dd4002be9d0f7e71f4a0021d5
:102cb000d160a4e71d4a1269002acfd01c4aff2127
:102cc00091621a490a69013a0a61c7e7174a91688d
:102cd00049089160116949081161d1684908d160ba
:102ce000916892698a420ad210490a681288d2050c
:102cf000d20d0f4882628a6901328a61aee70b4abf
:102d00001269002aaad00a4a0a49916207490a6947
:102d1000013a0a61a2e7064b01229a75012000e000
:102d2000002070bdcc07b9d5fbe7c046043f0020aa
:082d300000180042ff01000041
:020000040000fa
:102d3800f0b5de464f4680b585b00190029103920a
:102d48001f000cab1d780eab1b789b460f9e8c208a
:102d580004f0b2fa8146002800d18ae00468002c09
:102d680000d188e000232375022d6ad0237d042238
:102d78009343202213432375237d0822934323750d
:102d88003e4b1b889bb23e4a93426bd03d4b1a7810
:102d9800063ad2b20023012191425b41dbb263774c
:102da800ab1e5a4253412377237d9a080121514093
:102db80001220a40920140218b4313438022524250
:102dc80013432375019b5b88e38327743b0a637471
:102dd8003b0ca3743b0ee374271d2a000d993800a1
:102de80005f0dcf9a7612673330a6373330ca37308
:102df800360ee67321235a46e254029b039a944600
:102e080063442022a3542423109ae254109b1a0ae4
:102e18002523e254109b1b021b0e2622a354109b51
:102e28001d0e2723e5544946174804f02dfd0028b8
:102e38001ad104f0b5fd012005b00cbc91469b46a3
:102e4800f0bd0d9b5a7812021b789b189bb20f4a53
:102e5800934200d88ae7237d042213432022934318
:102e6800237589e700239ae7484604f049fb0020c8
:102e7800e2e70020e0e70020dee7c046e24000206d
:102e8800ffff0000ba41002084400020fcff000042
:020000040000fa
:102e9800f8b503f011ff002800d08fe04c4c9825be
:102ea80080231b066351802636026651db0a636164
:102eb800a530400005f016f89423e6500a2005f0e6
:102ec80011f866510a24642005f00cf81c2002f061
:102ed800e9fe0b2805d0013ce4b2002cf3d185278c
:102ee8006de00821093802f0e9ff642004f0faffd8
:102ef80000221f21012005f065f90a2408280cd0ba
:102f0800642004f0efff00221f21012005f05af988
:102f1800013ce4b2002cf1d1e1e72e4b08225a70b3
:102f28002d4804f039ff00284bd1012002f056fb50
:102f3800071e4ad1294d08e0284c2600083605f01e
:102f480061f820700134a642f9d12878697809021d
:102f58000843a97809040143e878000608430200f9
:102f68002879697909020843a97909040143e879ac
:102f780000060843030001204042c11712184b41c4
:102f8800591c01d1d31cd7d800221549002004f0c0
:102f98001bfd002005f066f902f012fe8c2004f0fb
:102fa8008bf9104b186000280dd0ff210e4805f052
:102fb80086f9084b822252045a6100e085273800be
:102fc800f8bd8527fbe78527f9e78527f7e7c0469a
:102fd80000440041b43f0020ae410020783f00206b
:0c2fe80041830000f04000204840002021
:020000040000fa
:102ff40070b5504b586a504b9b7d002b54d04e49b2
:103004004c68072214404b4b5a699d699e680b7e9d
:103014005b0757d5896a474bdb68934252d9002c2a
:1030240043d1444b5b6899540132434b1b7edb070d
:1030340016d5414b012119753e4b9b68ab4256d9bd
:103044003c4b1b68595d3c4b99620135394b1b69fc
:10305400002b01d1b54262d0364bdb68934262d07b
:10306400344b5a619d61344b1b7e9b0715d5334b02
:103074001b78002b18d02f4bdb68934211d12d4bba
:1030840000221a772c4907240c752c490a701b6af4
:10309400002b09d0274b1b6a9847284b1b78002b21
:1030a40002d0254b02229a7570bd224b5b685400f6
:1030b400e1520132204b1b7edb07d1d51e4b01218f
:1030c400197508e01c4b1b7edb07c9d51a4b01217f
:1030d4001975002cb0d0174b9b68ab4213d9154b14
:1030e4001b686900c95a144b99620135aee7114b4c
:1030f4001b69002baad0104bff2199620d490b6963
:10310400013b0b61a2e70b4b1b69002b9ed00a4bc2
:103114000b49996207490b69013b0b6196e7074b21
:10312400012119709ce7044b01219975033119752c
:1031340096e7c046043f002000180042c04100202a
:04314400ffff000089
:020000040000fa
:10314800f0b5ce4600b584b00400009101921f008e
:103158000025442640e0a66b3a000099200002f0c2
:10316800f3fca36c002b11d0022f00d180e02000cb
:1031780003f050fc002806d104f0e8ff012004b059
:1031880004bc9146f0bd04f019fff5e7636a002b13
:1031980004d10028f0d004f011ffede7200024301e
:1031a80002f096fc0028e7d004f008ffe4e704f0fa
:1031b800cdff0020e3e702a804f018ff19e0002380
:1031c800a35520e045230022e25421e0200001f02d
:1031d80031ff00f093ff012504f0fcfea36be26bc6
:1031e8009342b8d3022f3ad0019b002bdfd0002d99
:1031f800e1d004f0abff05f04df804f0ebfea35d61
:103208005bb20133dbd04523e35c5bb20133d9d039
:1032180004f09cff01a902a803f05cfa002817d16a
:1032280004f0d8fea36b9946e56b04f08fffa9451f
:10323800ccd120001030019904f002fe200001f0ea
:10324800f9fe00f05bff0028c5d104f0b7fec2e725
:10325800200001f0effe00f051ff00208fe7a66b81
:1032680002220099200002f06ffca36c002b8dd085
:08327800002e00d080e77ae788
:020000040000fa
:10328000f0b585b004000191002300930025442689
:10329000002743e0013ba3632368002b09d0236987
:1032a000002b0ad104f056ff01230093009805b0cb
:1032b000f0bd04f0d7fda060f1e72000103002f06f
:1032c0000bfc0028eed004f07dfeebe704f042ff9b
:1032d00000230093eae702a804f08cfe28e0a7553b
:1032e00030e04523e75432e004f078fea06802f0b5
:1032f0005ff8009004f02eff39e0200001f09efe00
:1033000000f000ff09e0200001f098fe00f0fafe56
:10331000200004f029ff002838d1012504f05efeca
:10332000a36b002bb6d1019b002bcfd0002dd2d0a8
:1033300004f010ff04f0b2ff04f050fea35d5bb296
:103340000133ccd04523e35c5bb20133c9d004f038
:1033500001ff01a902a803f0c1f90028d3d1200080
:1033600004f002ff0028c8d02368002bbcd0200046
:103370002430019904f068fd200001f05ffe00f0a8
:10338000c1fe0028c9d104f01dfec6e7009b002b3a
:1033900000d18be704f022fe616a002903d0236b81
:1033a0001b680521c91aa06802f0ecfc04f0d2feeb
:0633b000002300937ae700
:020000040000fa
:0233b60070475e
:020000040000fa
:1033b800f8b5040004f06eff404b1b68002b15d0d5
:1033c8003f4b1e68344238d1002c3dd022000832d1
:1033d800530702d007239a430832002a34d0394bc6
:1033e8001f68974233d338490c6835e0374a53078a
:1033f80020d0d11d07239943bd239b019c466244dd
:10340800531a0a003048026000214160d318083b73
:10341800072083432948036059601960991a51604d
:1034280013602b4b1960274b1960254b802212061d
:103438001a60c5e7bd239b01e4e700f05ffe04f0d6
:10344800cdff00252800f8bd00f058fef7e700f092
:1034580055fef4e721001c006368934202d22368fa
:10346800002bf7d1154b1b68a3421ed00d680835f9
:1034780023680b6063689b1a102b19d86368ff1abe
:10348800104a1760124a1268974201d2104a176010
:103498001e436660002323600e4a136801331360dd
:1034a80000f02cfe002dcdd1c9e700f027fec6e7bd
:1034b800a0184360626003f0e1f9dfe74c410020a7
:1034c8005041002054410020cc4000200000002042
:0834d800584100205c41002076
:020000040000fa
:1034e000f0b5c64600b582b03a4b1b68002b65d1db
:1034f000394b1a68013290461a60002a18d0374baf
:103500001b68434521d900230193354b1b68da6ab8
:1035100093009b189b00334a9b58012b01d9012330
:103520000193314b1b68002b4ed0012301934be0dc
:103530002e4a11682e4b1868106019602d4a1368c6
:103540000133136004f028f9d9e700230193274ed3
:10355000370033681b68002b28d03b68db68dc68c9
:103560006368984527d3251d280004f0cefaa36a86
:10357000002b03d02000183004f0c7fae36a1e4a7b
:103580001268934201d91c4a13609800c018800049
:10359000144b1818290004f095fd114b1b68e26ac2
:1035a000db6a9a42d5d301230193d2e70b4b012268
:1035b00052421a60a9e7094a1360a6e70f4a136846
:1035c0000133136000230193019802b004bc9046bc
:1035d000f0bdc0467841002098410020884100207d
:1035e00064410020ac3c00209c4100206841002048
:1035f0006c4100208c41002080410020904100203f
:020000040000fa
:1036000010b50b00072800d171e012d9502846d020
:1036100021d9572800d174e029d9592800d175e063
:10362000f02830d108223c49180004f0bbfd0020ee
:103630001ce003284ed006d8012838d045d8364a99
:10364000d27c0a7012e0052849d055d8324a127e41
:103650000a7000200ae04e2817d01bd80b2804d18e
:103660002d4a927d0a70002000e0892010bd532869
:1036700007d12949087b4a7b120202431a800020a5
:10368000f4e78920f2e78920f0e7234a127d0a70e7
:103690000020ebe7204a527d0a700020e6e71e4931
:1036a000887bca7b120202431a800020dee71a4898
:1036b000027a417a09021143827a12041143c27ad2
:1036c00012060a431a600020d0e7134ad27d0a701e
:1036d0000020cbe7104a927c0a700020c6e70e4912
:1036e000087c4a7c120202431a800020bee70a4a84
:1036f000927e0a700020b9e7074a527e0a700020c5
:10370000b4e7054ad27e0a700020afe7024a127f72
:0c3710000a700020aae7c046783f0020a5
:020000040000fa
:10371c00f8b5404b5b7a002b6cd000253d4f24e074
:10372c000123a374a1893c4a2000fef7b3ff0028b3
:10373c0002d1237c013b2374218b384b1a683b2329
:10374c00d05c0130c0b202f0b1fca0603100314855
:10375c0004f098f803e031002e4804f093f801359a
:10376c00edb22c4b5b7aab4244d90021380002f00d
:10377c0039fb061e3ed00468002c3bd0a368002bfe
:10378c00e9d0013ba360002be5d1237c002bc7d0f3
:10379c00013bdbb22374002bc2d16368002b03d036
:1037ac00607c220003219847300003f0a7fe208b99
:1037bc00237e002bd3d11a4b1b889bb2ff22010016
:1037cc0091439942cbd0154b1a68030a5b001269de
:1037dc00d3185a780f218a43c1d05c7822090f3252
:1037ec000a401601214031435970002ab7d103f029
:1037fc0083f9b4e702f006fe0a4b1b78062b02d0c5
:10380c0000f022faf8bdfef759fe02f0cdfd02f0f1
:10381c00adfcf5e76c400020492a00000041002077
:08382c00e2400020ba41002037
:020000040000fa
:1038340070b52b4b06225a6001f0b2fb01f062fb1b
:1038440004f052fd03f086fc01f00eff03f06afb66
:103854002449002000f080fe234b1860234c244ba5
:103864002360244b6360244ba360244be360244b0c
:103874002361244b6361244ba361244be361244bf8
:103884002362244b6362244ba362244be362244be4
:103894002363244b6363244ba363244be363244bd0
:1038a4002364002314220121224802f00bfe00238a
:1038b40014220121204802f005fe204d042240215b
:1038c400280004f04dfb2900200003f033fe04f02f
:1038d400d5fa02f051fe02f04ffefff7dbfa70bd9d
:1038e400004000418c83000038410020003e00204d
:1038f400b97e00001d7f0000c9640000c17b000088
:10390400357f0000d1730000df810000657f000077
:10391400097c0000057400002d7c0000f18100008a
:10392400f180000005810000838000005d830000b9
:103934006583000030410020344100202c410020e8
:020000040000fa
:1039440070b584b03a4b5b7a002b03d0394b1b78ab
:10395400002b05d1384b5b7a002b61d104b070bdcc
:103964000021334802f042fa05000468002cf1d02b
:10397400237b627b12021a43a37b1b041a43e37b5f
:103984001b0613432d4a13602d4a13780133137019
:10399400237c627c12021a43a37c1b041a43e37c3b
:1039a4001b0613432422a25c2521615c09021143f6
:1039b4002622a25c120411432722a25c12060a43a7
:1039c4000392204a02922122a25c01922022a25c4c
:1039d4000092207d627d12020243a07d0004024316
:1039e400e07d00061043217e627e12020a43a17e1e
:1039f40009040a43e17e09061143227f667f3602e9
:103a04001643a27f12041643e27f12063243fdf7e7
:103a14009fff084b00221a70280003f073fd99e7fa
:103a2400fef7f8f8002899d00748fcf751fb95e712
:103a3400844000201a4200207840002004410020e5
:0c3a4400963f0020e1780000d03f0020f9
:020000040000fa
:103a5000f0b5de4657464e464546e0b585b0050012
:103a60000c0093469a46374b00221a705b46002b97
:103a70005ed102abda7101238b4001331a01d31af4
:103a80009b010193ff23984699460ae0d94651e0ed
:103a9000984602abda1ddb790133dbb213701f2bc2
:103aa00048d804f057fc02abda79012393402b404d
:103ab0001842eed002abd91d002000f0e1ff224eeb
:103ac000224f3767019804f089fcfa21890001f040
:103ad00043fd7066019804f081fcfa21890001f031
:103ae0003bfd0200b06600236c21735402a906312d
:103af0000b70380002f09afd7067431cc6d0114b62
:103b000001221a701e002100012004f0affa337860
:103b1000002bf8d10e4b1b784345bad202aa0732cc
:103b2000127891465246002ab2d013709846b0e7f8
:103b3000ff239946484605b03cbc90469946a246ac
:103b4000ab46f0bd953f002040390020d5820000f3
:043b5000bd41002053
:020000040000fa
:103b5400f0b5ce46474680b583b0804689463b4b98
:103b64001b683b229a5c012a17d900220192012486
:103b74000126364f3b2505e00134e4b23b685a5d2b
:103b8400a2420cd96000001980001b68181803f0c9
:103b940049fa0028f0d10196eee7002301932b4b5c
:103ba4001a682623d75c002f16d00027002601248c
:103bb400264d07e001940136f6b22a682623d35c29
:103bc400b34209d933019068c01803f02bfa0028d6
:103bd400f0d00137ffb2eee71c4b1b6827229a5c3a
:103be400012a18d900260124184d08e00123019365
:103bf4000134e4b22b6827229a5ca2420cd9a000bb
:103c040000198000db68181803f00cfa0028edd0c6
:103c14000136f6b2ece700262622995cc81b642420
:103c2400604301f02df843461870084b1a682723a7
:103c3400d15c881b604301f023f84b46187001984f
:103c440003b00cbc90469946f0bdc046004100202c
:020000040000fa
:103c5400f0b5c64600b53c4b1b683b229a5c002a73
:103c64001ed00024384a904617003b2605e0013454
:103c7400e4b23b689a5da24212d965002d19ad00e9
:103c84001868401903f0cef90028f0d043461b68a9
:103c94001b685d19ab68002be9d0013bab60e6e71c
:103ca400294b1b6826229a5c002a1cd00024264a31
:103cb40090461700262605e00134e4b23b689a5d7d
:103cc400a24210d925019868401903f0abf90028e5
:103cd400f2d043461b689b685d19ab68002bebd0a0
:103ce400013bab60e8e7184b1b6827229a5c012a6a
:103cf40026d90124144a9046170027260be0c868e9
:103d040040190832ff2104f055fa0134e4b23b684b
:103d14009a5da24214d9a5002d19ad00d8684019a6
:103d240003f080f90028f0d043461968cb685b198a
:103d3400da68002ae9d0013ada60002ae5d1dee740
:0c3d440004bc9046f0bdc04600410020c9
:020000040000fa
:103d5000f0b5c64600b584b004000091019200277a
:103d600044260023984638e00099200003f082ffa3
:103d70006b1ea3632369002b06d104f0ebf901202d
:103d800004b004bc9046f0bd2000103001f0a4fe49
:103d90000028f2d004f016f9efe704f0dbf9002078
:103da000eee702a804f026f921e04346a35528e0f7
:103db00045234246e25429e0200001f03ff900f09b
:103dc000a1f909e0200001f039f900f09bf9200089
:103dd00004f0caf9002835d1012704f0fff8a56bdb
:103de000002dc1d1019b002bd7d0002fd9d004f0da
:103df000b1f904f053fa04f0f1f8a35d5bb20133ba
:103e0000d3d04523e35c5bb20133d1d004f0a2f9f7
:103e100001a902a802f062fc0028d3d1200004f01e
:103e2000a3f90028c8d020002430019904f00cf830
:103e3000200001f003f900f065f90028ccd104f06e
:083e4000c1f8c9e700209be76f
:020000040000fa
:103e4800f8b5324e324c23689d68002314220121b4
:103e58003000a8472f4d23681b6b1c21280098476a
:103e680023685b6b29002c48984723685b6b290003
:103e780030009847294b2a4a1a602a4c244f264d6d
:103e880007e0234b1b68db6800212048984704f0b3
:103e980058fa3b689b6b244a1e49200098472368c0
:103ea8001a4a12689342ecd02a689342f1d11b4e09
:103eb800174b1b689b6a00223100174898473368e4
:103ec8001a78002ae5d19878da781202024318792c
:103ed800000402435879000610438379c27912021c
:103ee8001a43037a1b041a43437a1b061343827846
:103ef800c17809021143027912041143427912066a
:103f08000a434178007800f011f8c2e71841002010
:103f180010410020204100200c41002014410020c5
:0c3f2800e44000201c410020ffff0000ce
:020000040000fa
:103f340070b582b00c0015001e000e295ed8002b4f
:103f440060d0314b1a780023012a58d12e4b02211c
:103f540019702e4b1d6001282dd0002808d002288e
:103f640045d00120b047284b01221a70002346e0b7
:103f74006b460021d971eb0709d4013100e01a0026
:103f84004900531cdbb22942f9d06b46da716b4607
:103f9400d91d002000f072fd1d480023038003f0aa
:103fa400d9fc1c4803f0c2fc0020b047164b062283
:103fb4001a70012323e016480023038003f0cafc8f
:103fc400144803f0b3fc6b46073300222100280099
:103fd400fff73cfd6b46991d0870002000f04efd74
:103fe4000020b047084b06221a70012307e0012085
:103ff400b047054b01221a70002300e0002318008b
:1040040002b070bd0023fae7ba410020f840002056
:08401400e2400020b44100204d
:020000040000fa
:10401c00f8b5374c656b63689b699847606160695c
:10402c0003f0f0fea66ae76a0023020092197b41b6
:10403c00a262e362002d51d02d4c3022a35c0133df
:10404c00a35403f06ff9646b002c06d0a368002b0b
:10405c0003d101250027264e11e0264d00242e0009
:10406c0021e0e06902f09affe368002b01d020699f
:10407c009847746b002cf0d0a368002bedd12575fc
:10408c006575a378002b02d1e368002be9d12000e1
:10409c0002f0ccf8a378002be6d16770e4e701348a
:1040ac002035052c15d06301f3185b7d002bf6d061
:1040bc006201104b9b1800225a75ab78012beed184
:1040cc0061010c4b59186b688b60280000f0faf8f2
:1040dc00e5e7074930228b5c013b8b5404f044f933
:1040ec00040000f059fb200004f042f9f8bdc04672
:0840fc00883e0020c03a0020bc
:020000040000fa
:10410400f8b5ce46474680b503f066ff2e4b1a68d5
:10411400013a1a601b680024002b03d12b4b1b6847
:10412400002b06d104f014f820000cbc90469946ec
:10413400f8bd0024264eb046264f274b99463368d7
:10414400002b22d04346db68dc682000183003f0e3
:10415400dafc251d280003f0d6fce36a3a68934292
:1041640001d91c4a13609800c01880001b4b181812
:10417400290003f0a5ff1a4b1b68db6ae26a9a4226
:10418400ddd301234a461360d9e7002c01d003f0a4
:1041940001fb144b1c68002c0ed00f4e012502e0cd
:1041a400013c002c05d0fff799f90028f8d03560c0
:1041b400f6e70c4b00221a60074b1c68002cb1d0a8
:1041c40003f0fefe0124ade7784100207041002099
:1041d4000c400020804100209c410020ac3c002089
:0841e40064410020904100201d
:020000040000fa
:1041ec00f0b5060085b00f0015001c008b4265d899
:1041fc0001d1824262d82100280003f025ff39004a
:10420c000090300003f020ff009b21001b1a1a00c5
:10421c002800039303f00cff00900191019bbb421b
:10422c0046d802d1009bb34242d8009b019c039a12
:10423c0001200021f61aa74103f0fafe039b002b84
:10424c002fd0019b009adb0754081c43019b5d088f
:10425c00039b9c46bd422ed801d1b4422bd83200d0
:10426c003b00121bab41012692185b410027b6188c
:10427c005f4101235b429c446346002bead18019c9
:10428c007941039a04000d003000390003f0c4fe9c
:10429c00039a06000f0003f0cbfe241a8d41200078
:1042ac0029000a9b002b01d01e605f6005b0f0bd99
:1042bc0000200021c2e7b6197f41dae70020002177
:0242cc00efe71a
:020000040000fa
:0242ce00704737
:020000040000fa
:1042d000f0b5de4657464e464546e0b585b08146c8
:1042e000002854d0304b596b83689a4600290cd073
:1042f0008b6852460392002290469a4549d3002289
:1043000000238b460092019306e052468260264bc2
:104310005863012034e0e3465e46b6683400002569
:10432000009a019b12196b41009201935e46b66997
:10433000b446002e12d06646b66800210f00009adf
:10434000019bb6185f41474529d8e4d1039b9e42a3
:10435000e1d960465946009a019b01e03000594678
:104360004c46a0618c61002051468a1a4b469a60e7
:104370009b69002b04d04a4691689a68521a9a6049
:1043800005b03cbc90469946a246ab46f0bd002025
:10439000f6e7054b5863816100220120e4e760469f
:0c43a0005946009a019bdbe7883e002094
:020000040000fa
:1043ac0070b504000d000b2861d88300314ad35836
:1043bc009f46032208210d2003f002ff28702000e5
:1043cc0070bd072280210d2003f0fafe287000201a
:1043dc00f6e7002203210d2003f0f2fe28700020e6
:1043ec00eee701220221172003f0eafe28700020dc
:1043fc00e6e700220f21142003f0e2fe28700020d3
:10440c00dee7132001f04cfc28700020d8e70022d6
:10441c000f21052003f0d4fe28700020d0e70022e5
:10442c000f21152003f0ccfe28700020c8e70522d0
:10443c002021162003f0c4fe28700020c0e70422bf
:10444c0010212e2003f0bcfe28700020b8e70422b7
:10445c001021172003f0b4fe28700020b0e70522cd
:10446c002021172003f0acfe28700020a8e788203c
:08447c00a6e7c046d874000059
:020000040000fa
:1044840070b50400002927d02c4b1b7f0422f02197
:104494002c2003f04bfb012c34d9284b1b7d01222b
:1044a4000e212c2003f042fb1920fdf719fe1928d8
:1044b400fad1234b186801780139c9b201f09afd89
:1044c400204b01221a70204c80256d03a561012028
:1044d40003f00afd656170bd00230422f0212c2045
:1044e40003f024fb012cd8d8072301220e212c2011
:1044f40003f01cfb13e0154803f077f9114b00227d
:10450400da70d1e7072301220e212c2003f00efbe1
:104514000a4b1a7f0e4b1a700e4b01221a70012c93
:10452400c2d1084bdb78122be5d8002bbcd09720e6
:1045340003f05bf9034b0022da70b5e7783f002003
:10454400ec400020b43f002000440041570200002a
:08455400b2410020b341002038
:020000040000fa
:10455c0070b50d1e4cd000284dd12848383003f0d2
:10456c00b2fc012802d00120404246e02b68234ccb
:10457c006360db689847e0600026c82200230021b6
:10458c0002f08afc1e4a002302f028fd02220023be
:10459c008018594120620423eb5623722661194b73
:1045ac00a361194be36100220023a262e3626663fc
:1045bc003023e65463681b680021144898476368ed
:1045cc001b69002b02d00d4a108b98470b4ce069ed
:1045dc0080b263685b69984763685b689847a02200
:1045ec0000210b4803f0e2fd02232370200004e0bd
:1045fc000120404201e00120404270bd883e002075
:10460c00006cdc02ffff0000ff7f00001d4000007b
:04461c00c03a002080
:020000040000fa
:1046200010b52a4b1b68002b03d0294b01221a60be
:1046300010bd274b00221a60264b1b681b6b264ab5
:104640001968914202d1596891422fd0214b1868c4
:104650001968343103f0c4fe204b1b689a00d2184d
:1046600092001f495258002a06d1013b9a00d218e5
:1046700092005258002af8d019489a00d11889009f
:1046800041184c6864684c60d21892000832821855
:10469000944212d09a00d218920011498a18526896
:1046a000d1680c4a11600d4a1360c1e799689142c4
:1046b000ccd1db689342c9d1cee760689a00d218aa
:1046c000920007498a185060e4e7c046784100200c
:1046d0009c41002064410020a5a5a5a580410020a3
:0446e000ac3c0020ce
:020000040000fa
:1046e400f0b583b006000d0001921f0008ab1c78e2
:1046f40002f06cfd002845d0244b1b785bb2022be2
:1047040006d00124644203f09df9200003b0f0bdfb
:10471400002d31d0b54232d31d4b1b78002b0bd06a
:104724001c4b01221978002908d001322033052ab4
:10473400f8d101246442e6e70022154b01211970e7
:1047440000215970197559759c705d600199d96083
:104754001f61ad1b9d60104909881404240c0a04d0
:104764001443dc61013189b20c4a914202d00a4af5
:104774001180c8e70121fae701246442c3e7012458
:104784006442c0e701246442bfe7c046883e00207b
:10479400c03a0020e03a002018420020ffff000049
:020000040000fa
:1047a400f0b5c64600b52a4b5a6b59691961002aff
:1047b40042d09168274b994234d9254b5b69002537
:1047c4001c00244a0023a4185d41214b98465b68d1
:1047d4009b6998470027060043461b69834203d917
:1047e4001d4a0023b6185f41194b196a00230a00b9
:1047f40092197b41ab4202d827d1a24225d98e1906
:10480400134bde61124bdb691b0402d1104b0122f6
:10481400da610f4bd86980b25b685b69984704bc66
:104824009046f0bd91680a4b5b6900251c0000238b
:104834000a00a4185d41c8e7054b5b6900251c000c
:10484400044a0023a4185d41bfe7014bdc61d9e7aa
:0c485400883e0020ff7f0000ffff0000f6
:020000040000fa
:1048600010b582b002f03cfc01a80124644204802f
:1048700003f072f81d4803f05bf802f07ff801f0d6
:10488000ddf900f055f902f09ffe02f0b5fe184b7d
:1048900001221a70174b1c801e21174803f013fdcc
:1048a0001e21164803f00ffd1e21154803f00bfdd5
:1048b0001e21144803f007fd1e21134803f003fdd9
:1048c0006b46d91d00230b70fa22013392000f486a
:1048d00001f0acfe431c07d003f098fb0c4b1870a2
:1048e0000c4b187802b010bd0120fbe7b44100204a
:1048f000ba410020e24000206c4000209c40002093
:104900009040002084400020784000201d370000a7
:08491000bb410020b941002069
:020000040000fa
:104918007a210000ea210000b821000006220000e8
:10492800b8210000622100008e210000b82100009b
:10493800b8210000b8210000b8210000b82100000b
:104948002e210000b8210000b8210000b821000085
:10495800b8210000b8210000b82100005022000052
:10496800b8210000b82100009c220000ea210000c4
:10497800b821000006220000b821000062210000d2
:104988008e210000b8210000b8210000b8210000e5
:10499800b8210000b82100002e210000b821000035
:1049a800b8210000b8210000b8210000b82100009b
:1049b800b821000050220000b8210000b8210000f2
:0449c8009c2200002d
:020000040000fa
:1049cc00f0b5c64600b58ab007001a236b44012225
:1049dc0052421a808c2002f06dfc061e3ed00568f7
:1049ec00002d3dd0214c218889b21a236b441a88a2
:1049fc0007abff2001f08afb290007a802f076fc28
:104a0c008046208880b2a97800f0ecfe041e21d0ec
:104a1c0011234246ab5443460133dbb20022ea5425
:104a2c0043460233dbb23f0aef540496104b039318
:104a3c0002921a236b440193022300932b0003323e
:104a4c00414607a8fef772f9041e0ad1300002f0a5
:104a5c0055fd06e0300002f051fd02e0002400e0bc
:104a6c00002420000ab004bc9046f0bde2400020b7
:044a7c006b4e00007d
:020000040000fa
:104a800010b582b00c00022826d008d906283ed0e6
:104a900080282fd0052834d0002002b010bd002877
:104aa00011d001280dd101a80b7803704b78437009
:104ab00002f03eff0028f0d001ab1a88164b1a8096
:104ac000ebe70020e9e7002002f0f9ff0028e4d03e
:104ad0002278124b1a70e0e701a80b7803704b782c
:104ae000437002f039ff0028d7d001ab1a880c4b75
:104af0001a80d2e70b785a1e93410a4a137001209c
:104b0000cbe70422084803f04dfb0120c5e70a78f3
:104b1000064b1a700120c0e7b4410020973f0020e7
:104b2000e2400020c3410020f8400020873e0020e2
:020000040000fa
:104b3000f8b5294b1a682623d35c002b1dd000241e
:104b4000254f01262501906840190822ff2103f016
:104b500033fb3a689368591908000830ff230b7239
:104b600083558370c37091688c4665442b73013400
:104b7000e4b2d93bd35ca342e4d8174b1a6827238d
:104b8000d35c002b27d00025134f0126ac006419fd
:104b9000a400d06800190822ff2103f00dfb3a6839
:104ba000d368191908000830ff230b7283558370ee
:104bb000c370d168091908000c300b7383558370da
:104bc000c370d1688c46644423740135edb2d83b80
:0c4bd000d35cab42dad8f8bd00410020f5
:020000040000fa
:104bdc0070b50500254b1c78002c09d05c780f3c77
:104bec0063425c41644204239c438634200070bdc4
:104bfc00002003f03dfb0420fdf76efa0f2001f0be
:104c0c004ff8012307228021152002f08bff10237f
:104c1c000022ff210e2002f085ff002003f020fb74
:104c2c000620fdf759fa062814d1104b04221a70ed
:104c3c00ff21072001f040f90d4b00221a70f023e0
:104c4c009b00ab40f022920094466344db08094a77
:104c5c001360cbe7002307228021152002f062ffae
:104c6c0008210e2001f028f98524bfe7b43f00206d
:084c7c00af410020f4400020cc
:020000040000fa
:104c8400002941d010b4041c4c40a4460123002246
:104c9400002900d54942002800d5404288422cd33f
:104ca40001242407a14204d2814202d209011b013a
:104cb400f8e7e400a14204d2814202d249005b0039
:104cc400f8e7884201d3401a1a434c08a04202d3a1
:104cd400001b5c0822438c08a04202d3001b9c08e2
:104ce4002243cc08a04202d3001bdc082243002844
:104cf40003d01b0901d00909e3e7101c6446002c0a
:104d040000d5404210bc704701b5002003f06cfb95
:104d140002bdc0460029f7d003b5fff7b3ff0ebcb0
:084d24004243891a1847c046fa
:020000040000fa
:104d2c00f0b583b000221f21012003f049fa0828b6
:104d3c0001d003b0f0bd073000f0b2ff0e2000f040
:104d4c00afff019001210e2001f0b6f8002003f016
:104d5c008ffa0921022001f0aff803f0a8fa040041
:104d6c00154fa0260125bb591d4216d103f09ffa01
:104d7c00001bfa28f7d91a2000f092ff054208d040
:104d8c00a843c1b21a2001f097f803f090fa04007e
:104d9c00e9e701210143c9b2f4e70f2000f080ffdd
:104dac00064b01221a61002003f05afa01990e20d9
:104dbc0001f082f8bde7c0460044004100180040f5
:020000040000fa
:104dcc00f0b585b00600029103921c0003f0ecfada
:104ddc000190b36bf26b934208d30025022c05d0e3
:104dec00019803f0effa280005b0f0bd4523f55cff
:104dfc006db2b76b22000299300000f0a3fe6b1c61
:104e0c0005d001356db24523f5540125e8e7b36ca7
:104e1c00002b10d0022c02d10235002fe0d1300033
:104e2c0001f0f6fd01250028dad0039a002a12d0f1
:104e3c0001231360d4e7736a0125002bd0d0300016
:104e4c00243000f043fe0028cad0039a002a04d074
:0e4e5c0001231360c4e70125c2e70125c0e76a
:020000040000fa
:024e6a0070478f
:020000040000fa
:104e6c0030b587b0fff7f6fc0e2833d000220023b4
:104e7c00049205931f4d0832290004a803f008f88a
:104e8c00040001225242d3170492059309322900df
:104e9c0004a802f0fdff002801d0002c1ed108212f
:104eac00684601f0bffe002812d16946f030fdf7cc
:104ebc000bf802ac2100f020fef79cfb02232370c0
:104ecc0021000320fdf700f821000320fef792fbe0
:104edc0007b030bd084b05221a70c7e708220549f8
:104eec0002a803f059f902a9f020fcf7edff002805
:0c4efc00dfd0ede70c420020bc4100209c
:020000040000fa
:104f08001d4b00229a619a8c80218a439a841a0048
:104f18001023d1680b42fcd0184b1b689b0e3f2b0b
:104f280027d09b02802292001343134a93621023d6
:104f3800d1680b42fcd0104b02229a841a0010232d
:104f4800d1680b42fcd00e4b0e4a5a601a005378b7
:104f58005bb2002bfbdb0a4b0b4a5a800b4a5a8088
:104f68000b4a5a800b4b0c4a1a62034b00221a62f6
:104f78007047203bd5e7c046000800402460800009
:104f8800000c004000070100054000001840000028
:0c4f98001b400000000400404008010025
:020000040000fa
:104fa40070b5234b802252031a6012021a61012148
:104fb4004422995401329954022005329854013202
:104fc4009854002254241a554f3c5c255c552a3dc4
:104fd40033265e5503355a5505355a5504355a5509
:104fe4004235144e5e51403559550f355a550135e9
:104ff4005855013558550d35595501355a552f3ddc
:105004005a5507355a5501355a5507355c554c34b0
:10501400ff3418555130ff3019545420ff301954bf
:105024003831ff315a543a22ff32e339995470bd72
:085034000044004100800080ef
:020000040000fa
:10503c0070b5050002f0ccff4523ec5c64b2002c8b
:10504c001cdd2e0024360be06b6a002b16d03000d2
:10505c0000f03cfd00280ed1013c64b2002c0dd0b8
:10506c00ab6c002bf0d0280001f0d2fc0028f3d060
:10507c0003f054f9f0e703f051f9ede74523ff2273
:10508c00ea5403f061f802f0a3ff4423ec5c64b231
:10509c00002c04dd2b692e001036002b0ed144237e
:1050ac00ff22ea5403f050f870bd03f037f9013ccd
:1050bc0064b2002cf3d02b69002bf0d0300000f040
:0850cc0005fd0028f3d0f0e718
:020000040000fa
:1050d40070b58ab00400ff23034232d0e53b6b4431
:1050e40018801a236b441a881b4b9a4227d08c20b1
:1050f40002f0e4f8051e22d00668002e1fd0174bdc
:10510400198889b207ab2200ff2001f003f83100af
:1051140007a802f0eff80100082333540495104b5c
:105124000393002302931a336b44019302230093e5
:105134003300012207a8fdf7fdfd002807d00ab0bf
:1051440070bd02f0fbfa1a236b441880c9e72800eb
:1051540002f0d8f9f3e7c046ffff0000e240002068
:04516400b73300005d
:020000040000fa
:10516800f0b5ce4600b582b00193040a204b1e6804
:105178003b23f35ca34231d90f0abb4233d9ff2347
:10518800034232d1131c0f2a00d90f23ddb22000ad
:1051980002f0b6fb031e02d00020ab421fd9630009
:1051a800994633694a469f542900200001f02efe93
:1051b8000f490b681a694a44019b1d0953780f204f
:1051c80083431d4355700b681a694a4451780f236d
:1051d8000b4030210b4353700e3800e0002002b022
:1051e80004bc9146f0bd0020f9e70020f7e7c0466f
:0451f8000041002052
:020000040000fa
:1051fc00f0b5c64600b582b0009001911f4b1b68fc
:10520c003a229f5c002f37d0de6a32881c4b9a42c0
:10521c0010d004240023321f904619480133dbb20e
:10522c00bb4227d03119221d4546ad5a854203d0c9
:10523c001400f3e731000024009a0a800f4d2b680c
:10524c00db6a1b19019999703b232968cb5c0133ec
:10525c00dbb21100180000f029ff2a68d36a023073
:10526c004621525c50431c19e070012002b004bc72
:10527c009046f0bd0020f9e70020f7e70041002040
:04528c00ffff000020
:020000040000fa
:1052900070b5224da97b222000f014fee97b23206b
:1052a00000f010fe24242978200000f00bfe0135c8
:1052b0000134e4b22c2cf6d1184c217b202000f0d4
:1052c00001fe617b212000f0fdfda37c0522602111
:1052d000082002f02dfc637d00220f212f2002f018
:1052e00027fca37d032208212e2002f021fce37e6f
:1052f0000422f0212f2002f01bfce37c00221f215e
:10530000082002f015fce07d01f0b0fb0300002254
:105310000f21052002f00cfc70bdc046783f002034
:020000040000fa
:1053200030b583b080256d00184c194b01930423d0
:10533000009300232a0021001648fdf79bfa210064
:105340000c31154b01930523009300232a001348c9
:10535000fdf790fa6d0021001831114b01930323e2
:10536000009300232a000f48fdf784fa210024311e
:105370000d4b01930123009300232a000b48fdf7f6
:1053800079fa01f0a9fa03b030bdc04658760000a2
:1053900044410020ad83000048410020a583000067
:1053a00040410020958300003c4100209d83000087
:020000040000fa
:1053b00070b5041e3cd0c26a1e4b1b68db6a9a4261
:1053c0002ed28369002b05db1a4b1b68d96a052393
:1053d0005b1a836193009b189b00174ad31862697c
:1053e0009a4205d0134b1b68db6ae36201201ee082
:1053f000251d280002f089fb0e4b1b68db6ae36267
:105400000e4a1268934201d90c4a13609800c018e2
:105410008000094b1818290002f054fe012006e014
:10542000044b1b68406cdb6a98428041404270bd6f
:105430000020fce764410020ac3c002080410020bb
:020000040000fa
:1054400070b5002817d01c4b07221a701b4b1b7815
:10545000002b07d01a4b1b78002b03d0164b1b7860
:10546000052b10d0174b02221a70013a9a700020b7
:1054700002f0e6f970bd0522e021022002f0a6fe4e
:105480000d4b1870e2e71920fcf72cfe1928fad111
:105490000d4c80256d03a561183802f027fd65616c
:1054a000074a1378013bdbb21370002be2d1034ba8
:1054b00000221a70dee7c046b6410020b34100204a
:0c54c000b2410020b43f00200044004135
:020000040000fa
:1054cc0010b584b004000378012b17d0002b2fd01b
:1054dc000a3b012b2cd801a900230b70154a164846
:1054ec0001f09ef8431c23d00c23144a1370237034
:1054fc0000222100124802f081fb19e001ab6a4640
:10550c0000210020d08080208000108119700a2496
:10551c005c70f738ff3868440a4a0280120c4280eb
:10552c00094843801b0c83804470017002f018f909
:10553c0004b010bd10270000dd670000bc41002046
:0c554c00d8400020e96e0000dc40002088
:020000040000fa
:10555800002934d00123002210b488422cd301241e
:105568002407a14204d2814202d209011b01f8e7b3
:10557800e400a14204d2814202d249005b00f8e76c
:10558800884201d3401a1a434c08a04202d3001b98
:105598005c0822438c08a04202d3001b9c082243cb
:1055a800cc08a04202d3001bdc082243002803d009
:1055b8001b0901d00909e3e7101c10bc704701b5ad
:1055c800002002f00fff02bd0029f8d003b5fff755
:0c55d800c1ff0ebc4243891a1847c046b0
:020000040000fa
:1055e40070b504001e4d80235b036b61d22002f072
:1055f4007bfc802636029423ee500a2002f074fcd1
:105604009823ee50642002f06ffc00221f21012039
:1056140002f0dafd0a2508280dd0642002f064fcab
:1056240000221f21012002f0cffd013dedb2002d2b
:10563400f1d1852070bd0b4b08225a7000f096f80a
:1056440000f068fb002c07d1fff720fe054b002279
:105654001a709a700020ede701f094f8f4e7c04660
:0856640000440041b43f0020a6
:020000040000fa
:10566c0010b51e4a137801210b43137053785bb2ab
:10567c00002bfbdb194901238b610233cb61022325
:10568c00ff33cb60164b00221a7210321a75202091
:10569c001a540c301a540c301a540c301a540c3056
:1056ac001a540c301a540c3008241c540c301a5454
:1056bc000c301a540c301a540c301a540c301a5436
:1056cc000c301a540c301a540b78022213430b7002
:1056dc000a0053785bb2002bfbdb10bd00180040b6
:0456ec00003a002060
:020000040000fa
:1056f00010b51c4b9b78002b12d01a4b1b78022242
:1057000093430dd1184b1b68002b14d0154b00226e
:105710009a701620fcf7e6fc02f050fb1628f8d130
:10572000124b5b7a002b0ed10e4b1b78022b13d041
:10573000052b14d010bd8c2001f0c2fd0a4b18605f
:105740000028edd0e2e70021084800f051fb0028d6
:10575000ead001f0f9fae7e701f03afbeae701f0f5
:10576000e5f8e7e7b43f0020f04000204840002083
:020000040000fa
:1057700070b5162000f09afa0500c121162000f03d
:10578000a1fb002002f07afd0620fcf7abfc062806
:10579000fad10023072280210f3002f0c9f9082630
:1057a000002405226021062002f010fda400a4b20e
:1057b0000443a4b2012002f099fb013ef6b2002e90
:1057c000efd10320fcf78efc0f2000f06ffa074b9f
:1057d00001221a61002002f049fd200002f0aafd1a
:1057e0002900162000f06efb70bdc0460018004076
:020000040000fa
:1057f000f0b5c64600b582b0009001911a4b1b6807
:105800002a229f5c002f2cd09e693288174b9a4227
:1058100010d004220023311f884614480133dbb224
:10582000bb421cd0b118141d45462d5b854203d0e8
:105830002200f3e731000022009b0b800a48036836
:105840009b699b180199997003682b21595c9b698e
:105850009a18d170012002b004bc9046f0bd00201f
:10586000f9e70020f7e7c04600410020ffff0000f5
:020000040000fa
:1058700030b583b01a4b1b68002b24d01d686b46d3
:10588000dc1d0121200000f0e7fb2178154bd970c9
:105890004bb2002b15db0331c9b26c1a8c342000db
