:020000040000fa
:10000000f07f0020ed600000136900006f6a0000bf
:1000100000000000000000000000000000000000e0
:10002000000000000000000000000000a76f0000ba
:100030000000000000000000d16200007d6e0000a2
:10004000d7640000d7640000d76400005956000050
:10005000d7640000d7640000d7640000d7640000b4
:10006000d7640000d7640000d7640000d7640000a4
:1000700079270000d7640000d7640000d76400002f
:10008000d764000051670000d76400000000000042
:1000900000000000d7640000d7640000d7640000af
:0800a00000000000d76400001d
:020000040000fa
:1000a800f8b5c046f8bc08bc9e467047f55f00002e
:1000b800f8b5c046f8bc08bc9e467047cd5f000046
:020000040000fa
:0800c800fc3b000001000000f8
:020000040000fa
:1000d000f0b5d6464f464646c0b58cb0c34b5b7aaa
:1000e000002b03d0c24b1b78002b09d1c14b5b7a8c
:1000f000002b65d10cb01cbc90469946a246f0bdc1
:100100000021ba4805f0e4f805000468002cedd0a1
:10011000237b627b12021a43a37b1b041a43e37bfb
:100120001b061343b44a1360b44a137801331370a7
:10013000237c627c12021a43a37c1b041a43e37cd7
:100140001b0613432422a25c2521615c0902114392
:100150002622a25c120411432722a25c12060a4343
:100160000392a74a02922122a25c01922022a25c61
:100170000092207d627d12020243a07d00040243b2
:10018000e07d00061043217e627e12020a43a17eba
:1001900009040a43e17e09061143227f667f360285
:1001a0001643a27f12041643e27f1206324300f088
:1001b0000bfe8f4b00221a70280006f01dfb95e7fe
:1001c00001f066fa002895d08e4b19784a07cd08c1
:1001d00001242540ed00d20f03230b40013b5e427a
:1001e000734123405b012a43cd092c40a4011343f2
:1001f0002343854a137049b2002919db814a158ac5
:10020000814b5d80147b1c7391689960967b9e7313
:10021000527b5a731b789b0600d40ee30b78773b16
:10022000dab2632a00d90ce39300784ad3589f4688
:10023000744b5a68744b5a60e0e78c2006f000fa61
:10024000041e00d1fde2724b1b78012b00d0f8e2b6
:10025000704b1b78012b00d9f3e26b4b9b685978ec
:100260006d4a1278914200d0ebe2674a52886b499e
:100270008a4208d06a490988914204d0624a127bb6
:10028000f227022a03d8987803f08efd07005e4b10
:100290009b68db78aa2b32d05e4b1b78012b47d0b2
:1002a0002568002d00d1cce291232b706f705d4b3f
:1002b0001b78ab700322012f08d85b4b1b78eb70c7
:1002c0005a4b1b68db681b782b7102324e4906942f
:1002d000574b05930123049300200390029501924c
:1002e0000a781207d20f00924a68498802f02cfc63
:1002f000002800d0a5e2200006f07efaa1e2424be1
:100300005b689a46494b1b6899460025ff2398462f
:1003100002e01035502dbfd04b465b685e19311d91
:10032000504606f0bdfc0028f3d04346f373f0e7d7
:100330007b1edbb2012bb3d92568002d00d180e2f2
:1003400091232b7062336b70364b1b78ab7003229a
:10035000bce7384b1b78042b00d072e24b78012ba2
:1003600000d96ee22e4b1a882c4b9a420ad0264bab
:100370009b685b78012b14d0002b25d12e4b0022db
:100380005a7011e0262002ab9c46604401235b4278
:100390000380234c258006f0e9fa200006f0d0fa0d
:1003a000e5e7254b06225a70234b0022da70164be4
:1003b0009b68d87803f0f8fc012809d9124b9b6898
:1003c0009a781e4b1a703ce21b4b01225a70ebe7e5
:1003d0000f4b02221a701a4b1b88002b02d1184bac
:1003e0000d321a80174b00221a70e7e7603c00209c
:1003f000ed3d0020543c0020f03c0020933d0020c7
:10040000896b00007c3b0020143c0020a0210000f0
:100410009d3d0020ea3d0020ec3d0020ffff000054
:10042000803d0020923d0020eb3d0020e03c00207c
:10043000fd7200009b3d0020f43b0020993d002010
:100440000a3b0020953d00208c2006f0f9f8041ea0
:1004500000d1f6e1bf4b1b78022b00d9f1e1be4b76
:100460009b685a78bd4b1b789a4200d0e9e100683e
:10047000002800d1e5e197230370b94b1b78437046
:10048000b84b1b68db681b788370b34b5a6859887c
:100490000694b54d05950125049500250395029018
:1004a000032001901b781b07db0f00930123002022
:1004b00002f04afb002800d0c3e1200006f09cf9be
:1004c000bfe1aa4b1b78092b00d0bae1a84c00254c
:1004d0006570a64b07221a70a04b18780021e368bc
:1004e0009847e560ade1a34b1b78022b00d0a8e153
:1004f0004d78052d00d9a4e18b78042b00d9a0e11b
:100500001333ca78934200d09be1042c00d8a0e1b9
:10051000cb79053bdbb2f92b00d892e104230433fd
:10052000dbb29c4200d8a9e1ca18d278053ad2b20f
:10053000f92af4d885e10433dbb29c4200d88ae181
:10054000ca18d278ff2af6d096008b4fbc46b44426
:100550006746fa70ca5c884ff255ca1856786746e3
:100560007e709278ba70e6e70133dbb204319d42c7
:1005700009d008786045f7d14878b042f4d1089c9a
:1005800022000027f0e7002a1fd1002c00d058e1fc
:100590007a4a13780133dbb21370012b00d850e193
:1005a000774b00221a80774b1b68934204d06f4a26
:1005b0001278082a05d098476c4b1b78042b00d181
:1005c0003fe16a4b08221a703be16c4b1f70dce77d
:1005d00000216d4804f07cfe04000368002b00d16c
:1005e0002fe15d68002d04d01a001632187d00211d
:1005f000a847200006f000f923e15e4b1b78012b91
:1006000000d01ee1481c05f0f7f90600ff2800d1d4
:1006100017e18c2006f014f805000468002c00d1c6
:100620000fe1504b1f683601230008337a68911997
:1006300004310822180006f0cffe474a53681978a3
:10064000a1755978e1759b782376127b042a39d9f4
:10065000414b9b689c460423200015306146c95cd1
:10066000c1540133d9b29142f8d3013ad1b2617584
:100670000123e374384b1b781b07db0fdab2944677
:100680006622a3547a689219137b7e208343802bc1
:100690001ad00432002006903c4b059301230493aa
:1006a0000393163402940191634600930300384982
:1006b000098802f049fa002811d02900324806f0d2
:1006c0003bfabee00321d2e7002363600c332374be
:1006d0000b3b637429002f4806f02efab1e0280086
:1006e00006f08af8ade0234b1b78012b00d0a8e080
:1006f000194b5d682c781b4b1b685b6818005030e9
:1007000003e01033984200d19be019001a79a2420d
:10071000f7d15e796a789642f3d19e79aa789642ab
:10072000efd19b7b01338b738be08c2005f088ff2e
:10073000061e00d185e00768002f00d181e09223da
:100740003b70054b5b680993064b1b685d68002492
:1007500027e0c046ea3d0020143c0020ec3d00208c
:10076000eb3d0020e03c0020d75400009b3d0020e2
:10077000043c00209d3d0020543b0020953d00207e
:100780000a3b0020e83c0020483c0020852c00006b
:10079000803d00206c3c00200134e4b21035052c73
:1007a0002ad008952b7b7f2bf6d9291d099806f0b6
:1007b00077fa0028f0d00023089a13737b70052c79
:1007c0001fd002202f4b5a68598806962e4c05944c
:1007d0000124049400240394029701901b781b07c2
:1007e000db0f00930123002002f0aef9002828d18e
:1007f000300006f001f824e00123581cf022fa54de
:10080000e0e70223f9e74b78002b1ad11d4b5e6815
:100810001e4b1b685c682700503702e01034a7426b
:100820000fd0237b7f2bf9d9211d300006f038fa39
:100830000028f3d00023237303e0154b1b78072b0c
:1008400002d005f080f855e4124b1b680d4898471c
:10085000f7e7114b1d704b788a789a42f1d2ca782b
:100860009a42eed30d4b1a7894465e780c4b1f7863
:100870000c49002214001300089078e6064b1d7006
:1008800004235de6143c0020d7540000e03c002027
:100890009b3d0020ec3c0020973d0020dc3d0020eb
:0808a000953d0020543b0020af
:020000040000fa
:1008a8000c3b00201c00000000000000093b002059
:1008b8000100000000000000853d0020010000004c
:1008c800000000001c370020f000000000000000bd
:1008d800863d00200200000000000000893d002045
:1008e80001000000000000007c3a00200400000025
:1008f80000000000283b0020180000000000000055
:10090800b43c00200400000000000000243c00204b
:100918000c00000000000000ec3a00201d00000060
:1009280000000000b83c00200400000000000000a7
:100938008a3d002001000000000000008b3d0020df
:100948000100000000000000bc3c00200400000082
:10095800000000008c3d00200100000000000000a5
:10096800cc3800206800000000000000402f002064
:10097800fc05000000000000303c002018000000ca
:10098800000000009839002050000000000000001e
:10099800883d002001000000000000008d3d00207f
:1009a8000200000000000000e83d002001000000f7
:1009b8000100000001000000c83d002014000000f4
:1009c800010000000000000098390020000000002d
:1009d800e83d002000000000e93d00200100000083
:1009e8000100000008000000ac3c002006000000e8
:1009f80000000000c03c00201800000000000000bb
:100a08008f3d00200200000000000000403b002055
:100a18001400000000000000d83c00200c0000007a
:100a280000000000543b00201400000000000000fb
:100a3800913d00200200000000000000843d0020dd
:100a48000100000000000000483c00200c000000ed
:100a580000000000933d002003000000000000009b
:100a6800b23c00200200000000000000683b0020ab
:100a78001400000000000000e43c00200400000016
:100a880000000000963d002001000000000000006a
:100a98007a3d00200200000000000000973d002081
:100aa8000100000000000000543c00201800000075
:100ab80000000000f43b00201000000000000000cf
:100ac8007e3d002002000000000000006c3c002079
:100ad8000c00000000000000e83c002004000000ba
:100ae80000000000983d0020010000000000000008
:100af8000a3b00200200000000000000783c0020b3
:100b08000c00000000000000993d002001000000da
:100b180000000000803d00200200000000000000ee
:100b28009a3d00200300000000000000ec3c00207b
:100b38000400000000000000043c00201000000039
:100b4800000000009d3d00200100000000000000a2
:100b5800143c00201000000000000000f03c0020c1
:100b68000400000000000000823d00200200000098
:100b780000000000ea3d0020030000000100000022
:100b88000301ff00dc3d0020080000000100000018
:100b9800ab11223344556611ed3d002001000000e1
:100ba80001000000010000009e3d0020010000003f
:100bb80000000000843c0020080000000000000045
:100bc8007c3b002014000000000000007c3d002059
:100bd8000200000000000000f43c002004000000b7
:100be80000000000783d0020020000000000000026
:100bf8009f3d00200300000000000000a23d0020ef
:100c080002000000000000000c380020c0000000b6
:100c180000000000a43d00200100000000000000ca
:100c2800c03a00202c000000000000008c3c00208e
:100c38000800000000000000803a0020400000008a
:100c4800000000003c350020e0010000000000002a
:100c5800a63d002002000000010000000100000085
:100c6800f83c00201400000000000000383a002082
:100c780044000000000000000c3d00200c000000b3
:100c880000000000e43d0020040000000100000016
:100c9800aaaaaaaa183d002004000000000000002b
:100ca80000000020402f0000000000001c3d002034
:100cb8001400000000000000943c00200800000020
:100cc80000000000303d00200c0000000000000083
:100cd8003439002064000000000000003c3d002082
:100ce8001400000000000000903b002028000000d5
:100cf80000000000503d002010000000000000002f
:100d0800b83b00201400000000000000603d0020f7
:100d18000400000000000000cc3b00202800000078
:100d280000000000643d00200800000000000000f2
:100d38009c3c00200800000000000000a53d0020a9
:100d480001000000000000006c3d002004000000cd
:100d580000000000e83900205000000000000000fa
:100d6800703d00200400000000000000a83d0020a5
:100d78002000000001000000010000000300000046
:100d8800000000000000000000000000000000005b
:100d980000000000a43c0020a43c00200800000043
:100da80000000000743d0020040000000000000066
:100db80000000000000000006666666666666666fb
:020000040000fa
:100dc800f0b5de4657464e464546e0b589b0051ca7
:100dd80005900e0006911100090a0792029312abc2
:100de8001c78ad06ed0f0396d7b2cbb20193af4b8b
:100df8001a78af4b1a708c2005f01efc804600282c
:100e080000d14fe10068002800d14de10c2399463c
:100e180081444b46436005ab1b789c465b0700d575
:100e28000127032263461a40012a3ed0514251410c
:100e3800c9b2a04b1b8805ae76899e4237d00023e5
:100e48009b4607339a4653460833002f00d0063b8b
:100e5800019e002e3ad00233dbb204932426b24618
:100e6800664653461e40202e34d0032a34d0a21c96
:100e7800049b9b1803730122531c9c464b469954b0
:100e880005ab6d0119782026b1430d431d70eb4366
:100e98009b0729d0002f7cd0019b002b73d00232f6
:100ea8008823416866468b5581e00321c1e7824e5d
:100eb800b34206d04023194301239b4604339a4684
:100ec800c1e700239b4607339a46bce70833dbb2e9
:100ed8000493c3e73143c8e70123019300250023a6
:100ee8009b4600210022c7e78023416865464b5591
:100ef8006e4d29784b1cdbb22b70d51c023246682c
:100f0800b1546b4a13705b46002b0ad16a1cd2b2eb
:100f180068490b78466873550235edb24b784168dd
:100f28008b54019b002b00d190e0644a13784168f0
:100f38004b55ab1cdbb20135edb2527841684a55ce
:100f4800002c0ad0029a1c19e4b2591c157846687c
:100f5800f5540132cbb29c42f7d1594b149a1a601e
:100f6800434603600122022105f024f9002800d03d
:100f780080e00130159b002b00d18ce0180005f0b3
:100f880037fc012087e00232c823416866468b554a
:100f98000de0019b002b05d002328c234168664688
:100fa8008b5504e00232cc23416866468b553f4995
:100fb8000b785e1c0e7041688b54511cc9b205ab8e
:100fc80004939e7ab446466863467354d11cc9b2ea
:100fd8008946931cdbb29c46049bdb7a46686146d3
:100fe80073546b070ad5ff27436849465f54551d5c
:100ff800edb20432d2b243689f5484e7002f0cd07c
:1010080003990b7845684e46ab55551dedb24b78a4
:101018000432d2b241688b5475e7039b15000b3537
:10102800e9b28c46019e494665469446a1462a0087
:101038004d1c1f78446867540133e9b29142f7d1d7
:10104800624601964c460b32d5b25ce71d4b5e6892
:10105800370008373200ae1ba4461178b318dbb24c
:101068004468e1540132ba42f7d164462b00083390
:10107800dbb265e7144b01221a70144a1378013b5e
:101088001370159b002b02d0180005f0b1fb4046e9
:1010980005f0aefb002009b03cbc90469946a2463c
:1010a800ab46f0bd0020f6e70020f4e79e3d0020a7
:1010b8009c3d00207c3d0020ffff0000783d002083
:1010c800f43c0020843c0020ed3d0020933d0020ae
:020000040000fa
:1010d800f0b5de4657464e464546e0b58bb009901a
:1010e8000e001500089314ab1b78994615ab1f78b2
:1010f80016ab1b789846a34b1b780024072b00d00f
:101108002fe14c2a00d92be1022807d14a78120294
:101118000b789b189bb29c4a934277d08c2005f0a1
:101128008bfa8346002800d127e10468002c00d1ff
:1011380025e1179b6360200008300822310006f083
:1011480047f94b4623756575002323746774663326
:101158004246e2548d4b1b78022b00d0dce0099b01
:10116800082b0ad18a4b1b6859680431300005f0f6
:1011780093fd8246002800d080e0cc23a375337805
:10118800e37573782376b37863762a00089920008c
:101198001a3006f01df90435edb26575002f00d13f
:1011a80098e0032323747a4b1b685a680432794bfe
:1011b800198800230693784b0593012304934b4623
:1011c80003931634029401954346009301230020ab
:1011d80001f0b6fc002875d05946704805f0a8fc07
:1011e8006f4b1c78002c00d0bbe06e4a137b9268d2
:1011f8006d4909786d4804f0abfc6d4b1860431cd1
:1012080064d0674b01221a703c00aae08a3005f0ce
:1012180013fa071e00d1ace00068002800d1aae04c
:10122800179b43604b460375457504746623424615
:10123800c254503b9a4682442a000899504606f008
:10124800c7f8544b198806945a4b059304944b4697
:1012580003935346029301954346009300233200bb
:10126800012001f06dfc041e04d03900524805f03d
:101278005ffc76e0380005f0bbfa72e016342a000d
:101288000899200006f0a4f8424b19880023069319
:10129800484b059304974b460393029401954346a4
:1012a800009300233200002001f04afc041e04d001
:1012b8005946414805f03cfc53e0584605f098fa79
:1012c80054464ee0584605f093fa89e7344b00221d
:1012d8001a7046e02e4b1b685a6804322d4b198849
:1012e800002306933348059004934b460393163422
:1012f80002940195434600930123002001f020fc4d
:10130800041e04d059462c4805f012fc29e0584622
:1013180005f06efa012424e016342a00089920000a
:1013280006f056f81b4b198800230693214b0593aa
:1013380004974b4603930294019543460093002378
:101348003200002001f0fcfb041e04d059461a4864
:1013580005f0eefb05e0584605f04afa012400e0e6
:10136800002420000bb03cbc90469946a246ab46f0
:10137800f0bd0024f5e70024f3e70024f1e700249a
:10138800efe7c0469b3d0020ffff00009d3d002089
:10139800e03c0020803d0020852c0000483c0020d7
:1013a800963d0020683b0020903d00208d4c0000b9
:0c13b800e43c00204d450000783c002083
:020000040000fa
:1013c40010b586b003780f2b00d193e03ad9102bd7
:1013d40000d1e4e0112b41d1a24b1978a24b1b7828
:1013e400013b0024994201d80131ccb29d4b1c70c1
:1013f4009e4b1b78012b00d10ce19d4b18780621e4
:1014040003f038fcc9b24b005918cb005b1a994958
:101414005b1899490a78501c0870a4009749611810
:101424009748039000200290013001900092152209
:101434000230fff74ffe002810d08d4a1378013395
:1014440013700be00e2b09d1884b1b78012b07d0ae
:101454008c4b1a78834b1b789a4228d006b010bd67
:1014640016246c44023b2380814b1878062103f038
:1014740001fcc9b24b005918cb005b1a7d4a9b187a
:101484007d490a78501c08707d490391002102911e
:10149400013101910092152221000220fff71afe6a
:1014a4000028dbd0724a137801331370d6e7704bef
:1014b4001878062103f0defbc9b24b005918cb00a3
:1014c4005b1a6c4a9b186c490a78501c08706c496a
:1014d40003910021029101310191009215226a4980
:1014e4000820fff7f7fd0028b8d0614a13780133cc
:1014f4001370b3e75d4b1b78012b28d0594b1c7834
:10150400a4005e4be4185a4b1878062103f0b2fb92
:10151400c9b24b005918cb005b1a56495b1856499f
:101524000a78501c08705649039100210291013138
:1015340001910092152221000320fff7cbfd002822
:1015440000d18be74a4a13780133137086e71624d7
:101554006c44023b2380464b1878062103f08afb37
:10156400c9b24b005918cb005b1a424a9b18424936
:101574000a78501c087042490391002102910131fc
:1015840001910092152221000220fff7a3fd0028fb
:1015940000d163e7364a1378013313705ee7334ba7
:1015a4001b78012b0ad02f4b1a782f4b1b78013b49
:1015b4009a422bd92b4b00221a704fe716246c4405
:1015c400023b23802a4b1878062103f053fbc9b24f
:1015d4004b005918cb005b1a264a9b1826490a78f7
:1015e400501c087026490391002102910131019198
:1015f4000092152221000220fff76cfd002800d183
:101604002ce71b4a13780133137027e70132154b7b
:101614001a7023e716246c44023b2380144b187879
:10162400062103f027fbc9b24b005918cb005b1a03
:10163400104a9b1810490a78501c087010490391ed
:101644000021029101310191009215222100022012
:10165400fff740fd002800d100e7054a1378013365
:101664001370fbe6a33d0020973d00209d3d002024
:10167400a13d00209c4e0000a23d0020543b0020d0
:0c168400d9640000993d00209c39002032
:020000040000fa
:10169000f8b50021ab4803f01bfe002800d14de156
:1016a0000268002a00d14be1536819785e78402423
:1016b0002640a54b00241c70dc73013c1c8254683e
:1016c000a3783325ab43882b00d197e00ad9c82be8
:1016d0003ad0cc2b6bd08c2b00d1c7e005f08cf826
:1016e00000201ce1082b00d1ece0802bf6d1964bba
:1016f0001c7804252543802464422c431c7001245b
:10170000dc73546824791c74546864795c7454687c
:1017100006345c600c00093c1c73546808349c60ff
:1017200053685c78230700d5e0e007232340012bb2
:1017300000d1dfe0002b00d1fae0032b00d1efe075
:1017400005f05af80020eae0a379ff2b16d07e4d71
:101750002f7880235b423b432b70002e17d02479d7
:101760002c74546864796c74546808346c600c0090
:10177000113c2c7354681034ac60d1e7e379ff2b33
:10178000e5d1714d2b7804273b432b70dfe7247a9a
:101790006d4b1c745468647a5c7454680a345c60e1
:1017a0000c00133c1c73546812349c60b8e7664dff
:1017b0002f7880235b423b432b70002e0ed0247980
:1017c0002c74546864796c7454680e346c600c002a
:1017d000173c2c7354681634ac60a1e7a47b5a4bb9
:1017e0001c745468e47b5c74546810345c600c00b6
:1017f000193c1c73546818349c6091e7a379ff2b43
:101800001ad0514b1d78802464422c431c70012453
:10181000dc73002e19d153681c7a4b4b1c7454682e
:10182000647a5c7454680a345c600c000d3c1c7370
:1018300054680c349c6073e7e379ff2be1d1424c90
:10184000237804252b432370dbe753681c793e4b38
:101850001c74546864795c74546808345c600c00cf
:101860000b3c1c7354680a349c6059e7364b1d7856
:10187000802464422c431c700124dc73002e10d0a1
:1018800053681c79304b1c74546864795c745468d8
:101890000d345c600c00113c1c73546810349c6067
:1018a0003ee753685c7b284b1c745468a47b5c74d3
:1018b00054680f345c600c00133c1c735468123481
:1018c0009c602de7a379ff2b07d01f4c0b00083b32
:1018d000237353680833a36022e7e379ff2bf4d125
:1018e000194c237804252b432370eee704f084ff82
:1018f000002014e0144c23780325ab4323700231fd
:10190000c9b253685b18023b1b780f4ca373536832
:10191000591801390b78637304f06eff0120f8bd8c
:10192000094c23780325ab4301252b432370e6e7bd
:10193000054c237803252b432370e0e70020eee7d6
:0c1940000020ece7543c00207c3b002021
:020000040000fa
:10194c0070b50d009b4b1c78042c00d120e14e2867
:10195c0007d059280ad10a78974b1a77002420000f
:10196c0070bd0a78944b1a750024f8e7914b5b789c
:10197c000f2b00d10ee10b2800d1ffe018d9532812
:10198c0000d1aee078d84f2800d199e089245028b6
:10199c00e5d1894c0b880978a1731b0ae3732220cb
:1019ac0003f0c6fce17b232003f0c2fc0024d6e745
:1019bc00022800d1cae01fd9032800d1d4e00428a2
:1019cc0058d1002c00d0ebe0082b00d1ece0082023
:1019dc0000f0f6f80828fad12e78300000f006fa5c
:1019ec000500162000f0ecf8002d00d1dae0724b67
:1019fc001e7602f04ffdb2e7002839d1002c00d042
:101a0c00cae06d4b1b7e052b7ad00a786b4bd3400a
:101a1c00db0700d4c2e0684bde7c2a78da7402f073
:101a2c0039fd644b5d78082d05d0082000f0c8f80e
:101a3c000828fad11625604b187e052867d05e4b16
:101a4c00db7c002b01d0002e6bd100f0cff904f021
:101a5c00fffa594bd87d04f0f5f90100052003f08d
:101a6c0067fc082d00d17ae7162000f0a9f876e77c
:101a7c00892474e7892472e7572858d08924f028e0
:101a8c0000d06ce70a684b684b4d2a70110a6970dc
:101a9c00110ca970120eea702b711a0a6a711a02d3
:101aac00120eaa711b0eeb7124242978200003f06e
:101abc003ffc01350134e4b22c2cf6d100244ee766
:101acc000b783d4a5375d27e934201d93a4b5a75e5
:101adc00394b5b7d00220f212f2005f027f90024c4
:101aec003de7354c0b88097821731b0a6373202062
:101afc0003f01efc617b212003f01afc00242ee76e
:101b0c000a780a33d340db0785d4882427e7db7cab
:101b1c005b000b33dbb20022ff210e3005f006f91f
:101b2c009fe700221f21082005f000f999e70b78a8
:101b3c00214ad376527d9a4201d91f4a5375042209
:101b4c00f0212f2005f0f2f8002408e70b781a4c4e
:101b5c00e37504f07dfae07d04f074f901000520d2
:101b6c0003f0e6fb0024fae60b78134a9374052283
:101b7c006021082005f0daf80024f0e60b780e4a14
:101b8c009375032208212e2005f0d0f80024e6e6f8
:101b9c008624e4e68124e2e68624e0e68824dee678
:101bac008624dce68824dae60e78300000f01ef994
:101bbc00050019e7283b0020ec3a0020ff07000045
:020000040000fa
:101bcc0070b50400854b5b780f2b07d00338c2b27d
:101bdc00162a6dd89000824a125897460f287cd04e
:101bec007e4d00232b7105f0b3f808236b70082c85
:101bfc0000d1eee0032c00d1ede0201fc3b2152b79
:101c0c0056d89800774b1b589f460321022003f0af
:101c1c008ffb05f0fbfa0400c1b22d2003f088fb0a
:101c2c00a3b21b0a002207212e2005f07ff80f20fb
:101c3c0003f0dcfa10210e2003f07afb012005f0f2
:101c4c0099f8694b802252039a61232005f092f88f
:101c5c00624b0f225a700f203fe0604b5b78082bd1
:101c6c0026d00821022003f063fb012005f082f846
:101c7c001ee0082b1cd00321022003f059fb01208d
:101c8c0005f078f814e0554b5b78082b26d00dd96d
:101c9c00162b01d0192b0bd10821022003f048fb85
:101cac00012005f067f804f0f1fb01e0062bf3d0fe
:101cbc00012003f09bfa1f231840484b58706324f3
:101ccc001d001f2809d1012003f090fa1f23184092
:101cdc006870013ce4b2002cf3d170bd04f0d6fb6b
:101cec00e6e73e4b5b78082b06d0092be0d00421ad
:101cfc00022003f01dfbdbe704f0c8fbd8e7374bf1
:101d0c005b78092b0ed009d8082bd1d106210220e3
:101d1c0003f00efb012005f02df8c9e7162b01d0be
:101d2c00192bc5d10821022003f002fb012005f07c
:101d3c0021f80621022003f0fbfa012005f01af825
:101d4c00b6e7264b5b78082b16d004d9092b04d0a8
:101d5c00192badd101e0062baad10821022003f0ea
:101d6c00e7fa012005f006f81621022003f0e0fa4c
:101d7c00012004f0ffff9be71621022003f0d8faa4
:101d8c00012004f0f7ff93e7144b5b78082b18d075
:101d9c0005d9092b06d0162b00d089e702e0062bbb
:101dac0000d085e70821022003f0c2fa012004f0dc
:101dbc00e1ff1921022003f0bbfa012004f0daff45
:101dcc0076e71921022003f0b3fa012004f0d2ffc8
:101ddc006ee7200081e708207fe7c046283b002003
:0c1dec00ec4300004844000000280040c8
:020000040000fa
:101df80010b5734b1b7e002b00d1cae0704b0a2232
:101e08001a74093a5a7408230132c9e003220821d6
:101e18000c3004f08dff032300220321162004f068
:101e280087ff0023042210210c2004f081ff644b5b
:101e3800db7c002b20d1022204210c2004f078ff47
:101e4800002302220421172004f072ff5c4c0123b6
:101e58005b422372083363720023a372e372002289
:101e68000721142004f064ffe37c00221f210820ce
:101e780004f05eff0123a0e00123022204210c20cc
:101e880004f056ffdce70123032208210c2004f0ac
:101e98004fff022300220321162004f049ff0023ec
:101ea800002203210c2004f043ff00230422102108
:101eb8000c2004f03dff424bdb7c002b20d102229a
:101ec80004210c2004f034ff0023022204211720ef
:101ed80004f02eff3a4c01235b42237208336372ed
:101ee8000023a372e37200220721142004f020ffcc
:101ef800e37c00221f21082004f01aff01235ce084
:101f08000123022204210c2004f012ffdce7012344
:101f1800032208210c2004f00bff022300220321d6
:101f2800162004f005ff0023002203210c2004f0f2
:101f3800fffe0123042210210c2004f0f9fe0123e6
:101f4800022204210c2004f0f3fe002302220421c3
:101f5800172004f0edfe1a4b0f221a7200225a7253
:101f68009a72da72db7c032b01d9154bda740423dd
:101f780000220721142004f0dbfe114bdb7c5b0000
:101f88000b33dbb20022ff21132004f0d1fe012322
:101f980013e00b4b28221a74243a5a742023043273
:101fa8000749d3184b768a76022800d16be70528b3
:101fb800add00023002800d128e7180010bdc04686
:041fc800ec3a0020cf
:020000040000fa
:101fcc00f0b5c64600b584b001900f0002939600a0
:101fdc00300001f051f9051e00d1bae0542001f097
:101fec004bf9041e58d005633200a521280005f0da
:101ffc00f7f9236b9846002f54d03b783422a35426
:10200c00002b09d0012321003431fa5cca54002a78
:10201c0002d00133102bf8d143230022e2540a9d45
:10202c00042d00d90425e56265640027a764231def
:10203c000393180005f0cffa2000183005f0cbfa06
:10204c00246105235b1ba3616462e7645023e7549e
:10205c00301f4044493b9843029a019904f07eff9b
:10206c0020600b9b002b00d01c6005f0b7f83c4a9d
:10207c001368013313603b4b1b68002b16d03a4b93
:10208c001b68002b17d1374b1b68db6ae26a934243
:10209c0011d8344b1c600ee0280003f083fd0120a6
:1020ac00404258e034230022e254b8e72d4b1c6028
:1020bc001368012b23d02d4a136801331360e36a94
:1020cc002b4a1268934201d9294a13609800c01810
:1020dc008000284b1818039905f0e9f805f044f92d
:1020ec00214b1b680120002b35d01e4b1b68da6a74
:1020fc00e36a9a422fd205f065f801202be01d4dc2
:10210c00280005f0c9f82800143005f0c5f828009f
:10211c00283005f0c1f828003c3005f0bdf8280047
:10212c00503005f0b9f8144e300005f0b5f8134de9
:10213c00280005f0b1f8124805f0aef8114805f08a
:10214c00abf8114805f0a8f8104b1e60104b1d6041
:10215c00b1e70120404204b004bc9046f0bdc0463b
:10216c003c3d0020303d0020603d0020483d0020db
:10217c004c3d002034390020903b0020a43b002033
:10218c00b83b0020e03b0020cc3b0020343d00203d
:04219c00383d0020aa
:020000040000fa
:1021a000e60400004208000042080000e6060000c5
:1021b00042080000420800004208000042080000f7
:1021c00042080000420800003a0200002a0700000e
:1021d00042080000420800004208000042080000d7
:1021e00048040000420800004208000042080000c5
:1021f00042080000420800004208000042080000b7
:1022000042080000420800005203000006080000d7
:102210004208000042080000420800004208000096
:10222000c20400004208000042080000420800000a
:102230004208000042080000420800004208000076
:102240004208000042080000420800004208000066
:102250004208000042080000420800004208000056
:102260004208000042080000420800004208000046
:102270004208000042080000420800004208000036
:102280004208000042080000420800004208000026
:102290004208000042080000420800004208000016
:1022a0004208000042080000420800004208000006
:1022b00042080000420800004208000042080000f6
:1022c00042080000420800004208000042080000e6
:1022d00042080000420800004208000042080000d6
:1022e00042080000420800004208000042080000c6
:1022f00042080000fa050000420800004208000001
:1023000042080000420800004208000042080000a5
:102310004208000042080000420800004208000095
:10232000420800004208000042080000d0050000fa
:020000040000fa
:1023300070b50500594c207fc0b2002800d0a7e03e
:1023400000294ad0002d48d0554c666807243440f7
:10235000012c5ed0514805604260002444618461d4
:1023600004614e488160002a58d04c4ad3604b4ae1
:10237000012111774a4a127e520705d5484a0420a6
:10238000916a117e0142fbd1454a518b04200143e1
:102390005183117e80200143117640498a68c968c3
:1023a000914203d93d48c168891a01613c49496895
:1023b000490743d139498969914233d2374a116873
:1023c000087837498862916901319161002b5ad0b0
:1023d000334b04229a7501205be0002b59d0002a70
:1023e00057d02f4c666807243440012c0cd02b4862
:1023f000056042600024446184610461002db0d115
:10240000264900208860aee7002943d1dc07eed5dd
:102410003fe0cc073dd4002be9d0f7e71f4a00216d
:10242000d160a4e71d4a1269002acfd01c4aff21bf
:1024300091621a490a69013a0a61c7e7174a916825
:1024400049089160116949081161d1684908d16052
:10245000916892698a420ad210490a681288d205a4
:10246000d20d0f4882628a6901328a61aee70b4a57
:102470001269002aaad00a4a0a49916207490a69e0
:10248000013a0a61a2e7064b01229a75012000e099
:10249000002070bdcc07b9d5fbe7c046c03a00208c
:0824a00000100042ff010000e2
:020000040000fa
:1024a800f0b5de4657464e464546e0b58bb0534b31
:1024b8001c781321200002f0dbfbc9b200290ad0e6
:1024c8001321200002f098fb0130c3b209931324b2
:1024d80000239a466ae01321200002f08dfbc3b264
:1024e8000993122cf3d80bb03cbc90469946a246ef
:1024f800ab46f0bd3679c6544e46366876687618cf
:102508007679b3465e1cf6b25f468755de1cf6b296
:10251800b3464e463668766871188e79991cc9b2ea
:1025280046540433dbb2594642540132d2b2110048
:10253800a2421ad22e789642f7d90901304e36684f
:1025480076687618377b7f2fd4d86146c154591cda
:10255800c9b266464654d91cc9b29e1cf6b2674633
:1025680087550433dbb24254dfe74f2b07d8c21834
:10257800ff210133dbb2117001324f2bf9d9214a07
:10258800118842460692204a0592012204920022ae
:1025980003920290019300920123012000f0d0fae7
:1025a800002827d01334099b9a459cd28c2004f02c
:1025b80043f88046002896d00068002893d07723f7
:1025c80003700e4b1b784370e3b21a00133ad2b271
:1025d800827051460131c9b28a46c3701100a242c5
:1025e80006d20423054dff26b446054eb146a1e7a1
:1025f8000423bce7404604f0fbf8d3e7943d0020f1
:0c260800e03c0020803d0020d754000082
:020000040000fa
:10261400f0b583b003f08cfd002800d091e0d230f7
:10262400400004f0abfb4c4c982580231b066351ff
:10263400802636029423e65080235b0363610a20dc
:1026440004f09cfb66511e2004f098fb00221f211d
:10265400012004f0d3fe6b46d871da79d2b2da7174
:102664000a24642004f08afb1c2002f0c3fd07281e
:1026740005d0013ce4b2002cf3d1852762e00821a7
:10268400053802f059fe00221f21012004f0b6fe95
:102694000828f2d10021063002f04efe2f4b08220a
:1026a4005a702f4804f07efc00284ed1012001f01e
:1026b400a7f9071e4dd12b4d08e02a4c26000836f9
:1026c40004f0a8fd20700134b442f9d12878697867
:1026d40009020843a97809040143e878000608437d
:1026e40002002879697909020843a9790904014398
:1026f400e87900060843030001204042c11712187c
:102704004b41591c01d1d31cd7d8002216490020b3
:1027140004f074fa002004f0b1fe02f031fd8c20c4
:1027240003f08cff114b1860002810d0ff211048d3
:1027340004f026f804f0f6fc084b822252041a61d5
:1027440000e08527380003b0f0bd8527fae7852728
:10275400f8e78527f6e7c04600280040283b00201c
:102764008c3d0020ec3a002041750000b83c00206c
:04277400243c0020e1
:020000040000fa
:1027780070b5504b586a504b9b7d002b54d04e4936
:102788004c68072214404b4b5a699d699e680b7e22
:102798005b0757d5896a474bdb68934252d9002caf
:1027a80043d1444b5b6899540132434b1b7edb0792
:1027b80016d5414b012119753e4b9b68ab4256d942
:1027c8003c4b1b68595d3c4b99620135394b1b6981
:1027d800002b01d1b54262d0364bdb68934262d000
:1027e800344b5a619d61344b1b7e9b0715d5334b87
:1027f8001b78002b18d02f4bdb68934211d12d4b3f
:1028080000221a772c4907240c752c490a701b6a78
:10281800002b09d0274b1b6a9847284b1b78002ba5
:1028280002d0254b02229a7570bd224b5b6854007a
:10283800e1520132204b1b7edb07d1d51e4b012113
:10284800197508e01c4b1b7edb07c9d51a4b012103
:102858001975002cb0d0174b9b68ab4213d9154b98
:102868001b686900c95a144b99620135aee7114bd0
:102878001b69002baad0104bff2199620d490b69e7
:10288800013b0b61a2e70b4b1b69002b9ed00a4b47
:102898000b49996207490b69013b0b6196e7074ba6
:1028a800012119709ce7044b0121997503311975b1
:1028b80096e7c046c03a002000100042a43d002020
:0428c800ffff00000e
:020000040000fa
:1028cc0070b50400002928d0454b1b7f0422f02151
:1028dc002c2004f02bfa012c5ad9414b1b7d0122e0
:1028ec000e212c2004f022fa1920fff769f919287f
:1028fc00fad13c4b1868017802f0e8fd3a4b012202
:10290c001a703a4c80256d03a561012004f032fa4f
:10291c006561002004f0aefd70bd00230422f0219f
:10292c002c2004f003fa012cd7d8072301220e2106
:10293c002c2004f0fbf938e0294bd87c4342584159
:10294c004042f0239b001840294b9c46604441e0d8
:10295c00002bc9d0224b1b7e002b0fd1204bd87cd7
:10296c0043425841404296235b0018400430ff30ec
:10297c0004f063f81c4b0022da70b5e7184bd87cd6
:10298c0043425841404290235b0018409730efe798
:10299c00072301220e212c2004f0c8f9104b1a7fba
:1029ac00144b1a70144b01221a70012c9cd10e4b33
:1029bc00db78122bccd90a4b1b7e002bbcd1084bdd
:1029cc00d87c434258414042fa239b0018400b4ba1
:1029dc009c46604404f031f8034b0022da7083e724
:1029ec00ec3a0020b43c0020283b0020002800409a
:1029fc0057020000863d0020873d0020bf030000e9
:020000040000fa
:102a0c0010b5072800d183e024d9502858d033d9e9
:102a1c00572800d186e03bd9592800d187e0f0280f
:102a2c0042d1454b1a785878000210439a78120418
:102a3c001043da78120602431c79587900020443d9
:102a4c00987900042043db791b0603430a604b6032
:102a5c0000201ce003284ed006d8012838d045d8d9
:102a6c00354bdb7c0b7012e0052849d055d8324b26
:102a7c001b7e0b7000200ae04e2817d01bd80b28a9
:102a8c0004d12d4b9b7d0b70002000e0892010bde4
:102a9c00532807d1284a107b537b1b0203430b801e
:102aac000020f4e78920f2e78920f0e7224b1b7d18
:102abc000b700020ebe7204b5b7d0b700020e6e7f2
:102acc001d4a907bd37b1b0203430b800020dee767
:102adc001948037a427a12021a43837a1b041a4366
:102aec00c37a1b0613430b600020d0e7124bdb7d2f
:102afc000b700020cbe7104b9b7c0b700020c6e7c3
:102b0c000d4a107c537c1b0203430b800020bee754
:102b1c00094b9b7e0b700020b9e7074b5b7e0b705b
:102b2c000020b4e7044bdb7e0b700020afe7024bb8
:0c2b3c001b7f0b700020aae7ec3a002081
:020000040000fa
:102b4800f0b5de4657464e464546e0b583b006002a
:102b58006846c18000921f000cab187880460dab08
:102b6800187882460fab1878834610ab1d788c20f6
:102b780003f062fd8146002800d178e00468002c4b
:102b880000d176e0734273415b421d4001231d4032
:102b98006d01032217401800304081002f43404642
:102ba8001840c2000f4300216177267701214e406b
:102bb80033409b0117433b43802252421343237502
:102bc8000099a1616b46da88e283002906d0237d4b
:102bd8005b0741d4201d082204f0fafb0e9b2374e6
:102be8000e9b1b0a63740e9b1b0ca3740e9b1b0e7f
:102bf800e374231da361119b2373119b1b0a637349
:102c0800119b1b0ca373119b1b0ee37321235a46c4
:102c1800e254013b5246e2540433129ae254129ba6
:102c28001a0a2523e254129b1b021b0e2622a354c8
:102c3800129b1b0e0132a35449460f4803f078ff3c
:102c480000280fd103f088ff012003b03cbc904658
:102c58009946a246ab46f0bd201d0222009904f019
:102c6800b7fbbbe7484603f0c3fd0020ede70020b3
:0c2c7800ebe70020e9e7c046603c0020cc
:020000040000fa
:102c8400f0b5de464f464646c0b588b007008946d3
:102c94009046444b1b78012b08d000297cd0424b32
:102ca4005b7a002b78d000243f4d5ae03e4b5b7a90
:102cb400002b71d0002431e08c2003f0bffc83464c
:102cc4000068002868d0da230370384b1b683a0187
:102cd4005b689a180432364b19885b460693354b69
:102ce400059301230493002703970290019365330e
:102cf400f35c009301230020fff724ff002822d176
:102d0400584603f077fd1ee02900274803f012ff20
:102d14000134e4b2244b5b7aa3423dd9002122481a
:102d240002f0d4fa051e37d00668002e34d03000e5
:102d340016304045e8d14b46002b04d102f05afe30
:102d44000700ff28b8d1280003f054fde0e7310064
:102d5400154803f0effe0134e4b2134b5b7aa3424f
:102d64001ad90021280002f0b1fa061e14d0036813
:102d7400002b11d01a7dba42e9d11a0016329045bf
:102d8400e5d15b68002b03d042464946380098479a
:102d9400300003f02ffddee708b01cbc90469946d6
:102da400a346f0bd9d3d0020483c0020e03c0020af
:082db400803d0020d75400000f
:020000040000fa
:102dbc00f0b5ce4600b584b00400009101921f001e
:102dcc000025442640e0a66b3a000099200002f052
:102ddc0097f9a36c002b11d0022f00d180e02000ba
:102dec0003f008f8002806d104f0befa012004b064
:102dfc0004bc9146f0bd04f0e5f9f5e7636a002bdd
:102e0c0004d10028f0d004f0ddf9ede720002430e7
:102e1c0002f03af90028e7d004f0d4f9e4e704f022
:102e2c00a3fa0020e3e702a804f0e4f919e0002378
:102e3c00a35520e045230022e25421e0200001f0bc
:102e4c00b7fd00f0c5fe012504f0c8f9a36be26bd9
:102e5c009342b8d3022f3ad0019b002bdfd0002d28
:102e6c00e1d004f081fa04f01dfb04f0b7f9a35d86
:102e7c005bb20133dbd04523e35c5bb20133d9d0c9
:102e8c0004f072fa01a902a802f0b8fe002817d1ca
:102e9c0004f0a4f9a36b9946e56b04f065faa94517
:102eac00ccd120001030019904f0daf8200001f0a8
:102ebc007ffd00f08dfe0028c5d104f083f9c2e738
:102ecc00200001f075fd00f083fe00208fe7a66b5b
:102edc0002220099200002f013f9a36c002b8dd074
:082eec00002e00d080e77ae718
:020000040000fa
:102ef400f0b585b004000191002300930025442619
:102f0400002743e0013ba3632368002b09d0236916
:102f1400002b0ad104f02cfa01230093009805b089
:102f2400f0bd04f0aff8a060f1e72000103002f02b
:102f3400aff80028eed004f049f9ebe704f018faf2
:102f440000230093eae702a804f058f928e0a75503
:102f540030e04523e75432e004f044f9a06801f07e
:102f6400bffd009004f004fa39e0200001f024fdd4
:102f740000f032fe09e0200001f01efd00f02cfefe
:102f8400200004f0fff9002838d1012504f02af9c3
:102f9400a36b002bb6d1019b002bcfd0002dd2d038
:102fa40004f0e6f904f082fa04f01cf9a35d5bb2c4
:102fb4000133ccd04523e35c5bb20133c9d004f0c8
:102fc400d7f901a902a802f01dfe0028d3d12000e0
:102fd40004f0d8f90028c8d02368002bbcd0200006
:102fe4002430019904f040f8200001f0e5fc00f0e1
:102ff400f3fd0028c9d104f0e9f8c6e7009b002bd3
:1030040000d18be704f0eef8616a002903d0236b4a
:103014001b680521c91aa06802f022f904f0a8f976
:06302400002300937ae78f
:020000040000fa
:02302a007047ed
:020000040000fa
:10302c0070b588b0414b1b88002b05d0013b9bb27f
:10303c003e4a1380002b29d03d4b1b88002b05d01a
:10304c00013b9bb23a4a1380002b23d0394b1b888f
:10305c00002b05d0013b9bb2002b1ed0354a1380b0
:10306c00354b1b88002b05d0013b9bb2002b1ad093
:10307c00314a1380314b1b88002b05d0013b9bb28e
:10308c00002b2cd02d4a138008b070bd2c4b002285
:10309c001a70d1e700f05effd8e7264b0f221a809a
:1030ac00fff7fcf9dce7244b3c221a800024254d69
:1030bc00002603e09e730134052cdbd0e0b22b68b4
:1030cc0022015b689b181a7b7f2af4d99a7b002a11
:1030dc00f0d1da7bff2aedd002f0a6fbebe7174b21
:1030ec000f221a808c2003f0a5fa041eccd00368a2
:1030fc00002bc9d07a221a70124a12685268043214
:10310c001149098806901148059001250495002065
:10311c0003900293019500900123fff70ffd002807
:10312c00b2d1200003f062fbaee7c0467a3d00202e
:10313c00b23c0020823d00207e3d00200a3b002056
:10314c009a3d0020e03c0020803d0020a159000069
:020000040000fa
:10315c0000b583b06b4601225242da80314b00221b
:10316c001a70314b01321a70304b314a1a8003f00d
:10317c000dfc304b1b78ff2b39d16b46981d03f09f
:10318c00effb2a4803f0d6fb2b4a2c4b1b781b0178
:10319c0011780b431370fa22294b197801239200f2
:1031ac00284802f0d3fc431c06d0274b64229a60bb
:1031bc00633a1a73254a1a610a21254803f0dcfa8e
:1031cc000a21244803f0d8fa0a21234803f0d4fa40
:1031dc000a21224803f0d0fa0a21214803f0ccfa44
:1031ec00114b1b78072b07d0002003b000bd1149f1
:1031fc00002003f0d1fdc0e71a4b1b78012b0ad03d
:10320c00194b1b88002b02d1174b0f221a80174b1e
:10321c0000221a70e8e7164b3c221a80154b2d3a07
:10322c001a80e1e7843d00209b3d0020803d00207a
:10323c0034120000ec3d0020eb3d0020ea3d002064
:10324c00903d00202d300000683b00208d4c00008c
:10325c00483c0020783c00206c3c0020603c002066
:10326c00543c00209d3d00200a3b0020953d002051
:08327c007e3d0020823d002090
:020000040000fa
:10328400f8b5040004f012f9404b1b68002b15d06c
:103294003f4b1e68344238d1002c3dd02200083206
:1032a400530702d007239a430832002a34d0394bfb
:1032b4001f68974233d338490c6835e0374a5307bf
:1032c40020d0d11d07239943bd239b019c46624412
:1032d400531a0a003048026000214160d318083ba9
:1032e400072083432948036059601960991a516083
:1032f40013602b4b1960274b1960254b8022120653
:103304001a60c5e7bd239b01e4e700f065fc04f007
:1033140069f900252800f8bd00f05efcf7e700f02d
:103324005bfcf4e721001c006368934202d223682b
:10333400002bf7d1154b1b68a3421ed00d6808352e
:1033440023680b6063689b1a102b19d86368ff1af3
:10335400104a1760124a1268974201d2104a176045
:103364001e436660002323600e4a13680133136012
:1033740000f032fc002dcdd1c9e700f02dfcc6e7ea
:10338400a0184360626002f0bdfcdfe7183d002036
:103394001c3d0020203d0020943c00200000002023
:0833a400243d0020283d00201b
:020000040000fa
:1033ac00f0b583b00d0016001c003f4b1b780422b7
:1033bc0093430022012b02d0100003b0f0bd3a4b16
:1033cc0002321a7001283fd0002808d0022864d09d
:1033dc000120a047344b01221a700022ece76b4607
:1033ec0000225a716b46981d01235b4203802f4dbe
:1033fc002f4b2b8003f0b4fa280003f09bfaf30751
:10340c000dd46b4659790131c9b2012200e0190083
:10341c0052004b1cdbb23242f9d06b4659716b46f1
:10342c00591d002003f0b8fc224b01221a701e4bd0
:10343c0006321a70204b35321a80204b2d3a1a80e6
:10344c000020a0470122b7e76b46981d01235b4281
:10345c000380164f164b3b8003f082fa380003f0c2
:10346c0069fa6b46053300222900300000f0ccf9d4
:10347c0001a90870002003f08ffc0e4b01221a707a
:10348c00094b06321a700c4b35321a800b4b2d3a05
:10349c001a800020a04701228ee70120a047024b92
:1034ac0001221a70002287e79b3d0020803d0020fe
:1034bc00341200009d3d00207e3d0020823d002006
:020000040000fa
:1034cc00f0b5c64600b582b03a4b1b68002b65d1ef
:1034dc00394b1a68013290461a60002a18d0374bc3
:1034ec001b68434521d900230193354b1b68da6acd
:1034fc0093009b189b00334a9b58012b01d9012345
:10350c000193314b1b68002b4ed0012301934be0f0
:10351c002e4a11682e4b1868106019602d4a1368da
:10352c000133136003f05efad9e700230193274eb1
:10353c00370033681b68002b28d03b68db68dc68dd
:10354c006368984527d3251d280003f0c9fba36a9f
:10355c00002b03d02000183003f0c2fbe36a1e4a94
:10356c001268934201d91c4a13609800c01880005d
:10357c00144b1818290003f09afe114b1b68e26ad1
:10358c00db6a9a42d5d301230193d2e70b4b01227c
:10359c0052421a60a9e7094a1360a6e70f4a13685a
:1035ac000133136000230193019802b004bc9046d0
:1035bc00f0bdc046443d0020643d0020543d002039
:1035cc00303d002034390020683d0020343d00207f
:1035dc00383d0020583d00204c3d00205c3d002033
:020000040000fa
:1035ec0070b52d4b06225a6003f05ff901f094f987
:1035fc0000f09afe03f074ff02f023fc02f084ff4b
:10360c0001f086fc02f0a2fe2449002000f008fd27
:10361c00234b1860234c244b2360244b6360244bb6
:10362c00a360244be360244b2361244b6361244b44
:10363c00a361244be361244b2362244b6362244b30
:10364c00a362244be362244b2363244b6363244b1c
:10365c00a363244be363244b236400231422012132
:10366c00224802f03df9002314220121204802f0e7
:10367c0037f9204d04224021280003f08bfd29004e
:10368c00200003f0cbf803f007fd02f007fa02f07c
:10369c0005fafef7b9ff70bd00400041bc75000093
:1036ac00143d0020383a0020dd70000059710000f4
:1036bc00ed580000ed6d000071710000e96600002e
:1036cc0013740000a1710000356e00001d6700002e
:1036dc00596e000025740000117300002573000062
:1036ec008f720000757500007d7500000c3d002088
:0836fc00103d0020083d0020f4
:020000040000fa
:1037040030b589b00400394b00221a701e236b4473
:10371400013a1a80364803f0e5fd36480474364908
:10372400fff71afd0f2846d00022002302920393cc
:10373400324d0832290002a803f0c0fc0400012223
:103744005242d317029203930932290002a803f0cc
:10375400b5fc002801d0002c36d1082104a802f0c1
:1037640057fc002807d104a9f030fef7edf804a9ae
:10377400f020fff749f9002003f0e4fb2049002082
:1037840003f00efb041e2bd01d4c2078002101f009
:1037940078f81c4b00221a7020781b4b00930023ee
:1037a4001e326a44022101f0f5fe441ea041c4b257
:1037b400200009b030bd154b1878431e9841c0b2a3
:1037c40001f0b9fd0124f3e708220c4904a803f031
:1037d40001fe04a9f020fef7b7f80028c7d0cae715
:1037e400074b187801f0cbfce2e7c0468d3d002082
:1037f400515a0000c83d0020883d0020dc3d0020d7
:10380400e93d00208e3d0020896200009d3d00209e
:020000040000fa
:10381400f0b5de4657464e464546e0b587b007004c
:103824000d00110003929846334b00221a700029b0
:1038340057d104abda71f0239b00ab40f022920025
:10384400944663449a00d218910052189146322249
:103854005a439346ff2302931c0001951fe0ddb2f7
:103864003378002b08d00199012003f003fd2b1cb1
:103874008542f4d2031cf2e7a54208d204ab073315
:103884001b7802934346002b29d01d702c0004abf7
:10389400da1ddb790133dbb213701f2b23d803f05d
:1038a40063fe04abda79012393403b401842eed027
:1038b40004abd91d002003f073fa104b1b78484663
:1038c400002b00d158460e4901f098f901300d4bf8
:1038d4001880094b01221a70039d1e00c3e72c00b7
:1038e400d5e7ff230293029807b03cbc9046994663
:1038f400a246ab46f0bdc0469a3d0020ec3d0020f8
:0839040040420f007a3d002053
:020000040000fa
:10390c00f0b5c64600b584b00400009101920027c2
:10391c0044260023984638e00099200003f0bafab8
:10392c006b1ea3632369002b06d103f01dfd012040
:10393c0004b004bc9046f0bd2000103001f0a4fb94
:10394c000028f2d003f03efcefe703f00dfd002061
:10395c00eee702a803f04efc21e04346a35528e015
:10396c0045234246e25429e0200001f021f800f002
:10397c002ff909e0200001f01bf800f029f92000d4
:10398c0003f0fcfc002835d1012703f027fca56bc4
:10399c00002dc1d1019b002bd7d0002fd9d003f023
:1039ac00e3fc03f07ffd03f019fca35d5bb2013374
:1039bc00d3d04523e35c5bb20133d1d003f0d4fc0c
:1039cc0001a902a802f01af90028d3d1200003f0b3
:1039dc00d5fc0028c8d020002430019903f040fb0e
:1039ec00200000f0e5ff00f0f3f80028ccd103f044
:0839fc00e9fbc9e700209be78d
:020000040000fa
:103a040070b50400384d80235b036b61d220400005
:103a140003f0b4f9802636029423ee500a2003f012
:103a2400adf99823ee50642003f0a8f900221f2179
:103a3400012003f0e3fc0a2508280dd0642003f0dc
:103a44009df900221f21012003f0d8fc013dedb2b5
:103a5400002df1d1852070bd244b08225a7001f04d
:103a64009ffc002304223021032003f063f9002388
:103a740003220821032003f05df903f0cbfb0500ca
:103a8400c1b22d2001f058fcabb21b0a0022072161
:103a94002e2003f04ff90123052220212e2003f0cc
:103aa40049f90123072280210c2003f043f9012363
:103ab40001220221042003f03df908210e2001f027
:103ac4003bfc062304227021152003f033f9002c5b
:103ad40007d101f05ff9054b00221a709a7000209b
:103ae400b9e702f0ddfaf4e700280040283b0020a3
:020000040000fa
:103af400f8b5374c656b63689b699847606160698a
:103b040003f096faa66ae76a0023020092197b4141
:103b1400a262e362002d51d02d4c3022a35c01330c
:103b2400a35402f0c3fd646b002c06d0a368002be1
:103b340003d101250027264e15e0264d00242e0032
:103b440029e0200001f0b6fda378002b00d16770b6
:103b5400e368002b01d020699847746b002cecd0eb
:103b6400a368002be9d125756575a378002be8d1ee
:103b7400e368002be5d0e06902f02cfce8e7610182
:103b8400144b59186b688b60280000f079f90134e4
:103b940020350f2c0dd06301f3185b7d002bf6d07c
:103ba40062010c4b9b1800225a75ab78012beed1a5
:103bb400e5e7074930228b5c013b8b5403f0e4fcbe
:103bc400040000f057fb200003f0e2fcf8bdc046ff
:083bd400803a00203c3500207e
:020000040000fa
:103bdc00f8b5ce46474680b503f000fb2e4b1a686d
:103bec00013a1a601b680024002b03d12b4b1b6875
:103bfc00002b06d103f0b8fb20000cbc9046994674
:103c0c00f8bd0024264eb046264f274b9946336804
:103c1c00002b22d04346db68dc682000183003f010
:103c2c005ff8251d280003f05bf8e36a3a689342bd
:103c3c0001d91c4a13609800c01880001b4b18183f
:103c4c00290003f034fb1a4b1b68db6ae26a9a42c8
:103c5c00ddd301234a461360d9e7002c01d002f0d2
:103c6c00c1fe144b1c68002c0ed00f4e012502e037
:103c7c00013c002c05d0fff723fc0028f8d0356060
:103c8c00f6e70c4b00221a60074b1c68002cb1d0d5
:103c9c0003f098fa0124ade7443d00203c3d0020a0
:103cac00b83b00204c3d0020683d002034390020fa
:083cbc00303d00205c3d0020ba
:020000040000fa
:103cc400f0b5060085b00f0015001c008b4265d8c6
:103cd40001d1824262d82100280003f0bffa3900e2
:103ce4000090300003f0bafa009b21001b1a1a005e
:103cf4002800039303f0a6fa00900191019bbb42b4
:103d040046d802d1009bb34242d8009b019c039a3f
:103d140001200021f61aa74103f094fa039b002b1b
:103d24002fd0019b009adb0754081c43019b5d08bc
:103d3400039b9c46bd422ed801d1b4422bd83200fd
:103d44003b00121bab41012692185b410027b618b9
:103d54005f4101235b429c446346002bead18019f6
:103d64007941039a04000d003000390003f05efa33
:103d7400039a06000f0003f065fa241a8d4120000f
:103d840029000a9b002b01d01e605f6005b0f0bdc6
:103d940000200021c2e7b6197f41dae700200021a4
:023da400efe747
:020000040000fa
:023da600704764
:020000040000fa
:103da800f0b5c64600b582b001902e4b1e682e4b6a
:103db8005f687568ff23984600240ae0291d3800cb
:103dc80002f06aff002848d10134e4b21035052c0e
:103dd80007d02b7b7f2bf1d84346ff2bf4d1a0468d
:103de800f2e700244346ff2b3ad0204b1b78002be8
:103df8002ed11f4b42461a70100100221a4f7b68c1
:103e0800995c73681b189b1819710132082af6d13e
:103e180073681b18197b883a0a431a7373681b184e
:103e280001210122019d2a401d7b8d4315431d73ed
:103e380073681b1899730c4b9b68da7873681818a9
:103e480042730c4b42461a7002f060fd0a4b187020
:103e5800200002b004bc9046f0bda0460124c1e792
:103e6800f124f5e7e03c0020143c0020ea3d002066
:0c3e7800923d0020913d0020943d002070
:020000040000fa
:103e8400f0b5de4657464e464546e0b585b0814618
:103e9400002854d0304b596b83689a4600290cd0c3
:103ea4008b6852460392002290469a4549d30022d9
:103eb40000238b460092019306e052468260264b13
:103ec4005863012034e0e3465e46b66834000025ba
:103ed400009a019b12196b41009201935e46b669e8
:103ee400b446002e12d06646b66800210f00009a30
:103ef400019bb6185f41474529d8e4d1039b9e42f4
:103f0400e1d960465946009a019b01e030005946c8
:103f14004c46a0618c61002051468a1a4b469a6037
:103f24009b69002b04d04a4691689a68521a9a6099
:103f340005b03cbc90469946a246ab46f0bd002075
:103f4400f6e7054b5863816100220120e4e76046ef
:0c3f54005946009a019bdbe7803a0020f0
:020000040000fa
:103f600010b588b02a4bdb78002b03d0294b1b7887
:103f7000042b11d0264b5878062801d000283ad1be
:103f8000244b07221a70224bdb689847204b0022f3
:103f9000da60042008b010bd8c2002f051fb041e32
:103fa00031d00368002b30d081221a701a4a12785f
:103fb0005a701a4a12789a70194a1268d26812789e
:103fc000da70184a11880690174a05920122049265
:103fd000002203920293042301930092033b0120e9
:103fe000fef7b2fd03000020002bd3d1200002f029
:103ff00003fc0120cee7064b9978064a1170db6876
:1040000001209847c2e70a20c4e70a20c2e7c04659
:10401000f43b00209b3d0020ec3d0020eb3d0020c8
:0c402000e03c0020803d0020c96d000045
:020000040000fa
:10402c0070b50d1e4dd000284ed12948383003f004
:10403c005cf8012802d00120404247e02b68244c58
:10404c006360db689847e0600026c82200230021eb
:10405c0002f05af91f4a002302f0f8f90222002359
:10406c008018594120620423eb56237226611a4ba7
:10407c00a3611a4be36100220023a262e362666330
:10408c003023e65463681b68002115489847636821
:10409c001b69002b02d00e4a108b98470c4ce06920
:1040ac0080b263685b69984763685b689847f022e5
:1040bc00520000210b4803f093f9022323702000d7
:1040cc0004e00120404201e00120404270bdc046a6
:1040dc00803a0020006cdc02ffff0000ff7f000034
:0840ec00f53a00003c3500200c
:020000040000fa
:1040f40010b52a4b1b68002b03d0294b01221a60f0
:1041040010bd274b00221a60264b1b681b6b264ae6
:104114001968914202d1596891422fd0214b1868f5
:104124001968343102f0d0f8204b1b689a00d21879
:1041340092001f495258002a06d1013b9a00d21816
:1041440092005258002af8d019489a00d1188900d0
:1041540041184c6864684c60d21892000832821886
:10416400944212d09a00d218920011498a185268c7
:10417400d1680c4a11600d4a1360c1e799689142f5
:10418400ccd1db689342c9d1cee760689a00d218db
:10419400920007498a185060e4e7c046443d002075
:1041a400683d0020303d0020a5a5a5a54c3d00207c
:0441b400343900207a
:020000040000fa
:1041b800f0b583b006000d0001921f0008ab1c7813
:1041c80002f0e0f9002845d0244b1b785bb2022ba3
:1041d80006d00124644202f037fd200003b0f0bd90
:1041e800002d31d0b54232d31d4b1b78002b0bd09c
:1041f8001c4b01221978002908d0013220330f2adc
:10420800f8d101246442e6e70022154b0121197018
:1042180000215970197559759c705d600199d960b4
:104228001f61ad1b9d60104909881404240c0a0401
:104238001443dc61013189b20c4a914202d00a4a26
:104248001180c8e70121fae701246442c3e7012489
:104258006442c0e701246442bfe7c046803a0020b8
:104268003c3500205c350020a63d0020ffff000003
:020000040000fa
:10427800f0b5c64600b52a4b5a6b59691961002a30
:1042880042d09168274b994234d9254b5b69002568
:104298001c00244a0023a4185d41214b98465b6802
:1042a8009b6998470027060043461b69834203d948
:1042b8001d4a0023b6185f41194b196a00230a00ea
:1042c80092197b41ab4202d827d1a24225d98e1937
:1042d800134bde61124bdb691b0402d1104b012228
:1042e800da610f4bd86980b25b685b69984704bc98
:1042f8009046f0bd91680a4b5b6900251c000023bd
:104308000a00a4185d41c8e7054b5b6900251c003d
:10431800044a0023a4185d41bfe7014bdc61d9e7db
:0c432800803a0020ff7f0000ffff000033
:020000040000fa
:10433400274a002393611361264a082191710739a2
:104344005171254a13831100920dcb681342fcd09e
:10435400224b1b689b0e9b028022920013431e4a31
:10436400d3611100920dcb681342fcd01a4b022288
:104374001a831900d201cb681342fcd0184b194a96
:104384001a62190004224b681a42fcd1144a8c2385
:104394004021d15010004c31402243581a42fcd0e5
:1043a4000f4ad8234021d15010009831402243585d
:1043b4001a42fcd00a4aec234021d1501000ac31ff
:1043c400402243581a42fcd0034b00221a7570470e
:1043d4000010004000040040000c004020608000f9
:0843e400001800400701010070
:020000040000fa
:1043ec007e1c0000ee1c0000bc1c00000a1d00001e
:1043fc00bc1c0000661c0000921c0000bc1c0000d1
:10440c00bc1c0000bc1c0000bc1c0000bc1c000040
:10441c00161c0000bc1c0000bc1c0000bc1c0000d6
:10442c00bc1c0000bc1c0000bc1c00004e1d00008d
:10443c00bc1c0000bc1c0000941d0000ee1c000005
:10444c00bc1c00000a1d0000bc1c0000661c000007
:10445c00921c0000bc1c0000bc1c0000bc1c00001a
:10446c00bc1c0000bc1c0000161c0000bc1c000086
:10447c00bc1c0000bc1c0000bc1c0000bc1c0000d0
:10448c00bc1c00004e1d0000bc1c0000bc1c00002d
:04449c00941d00006b
:020000040000fa
:1044a00010b5294bda7d930613d43f231340264ad7
:1044b000127e052a13d01100123901290fd9002ac2
:1044c0002cd1214ad27c002a19d1062b17dd0623d4
:1044d00034e052421f2313405b425bb2e7e71a49c4
:1044e000c97c002909d0032907d0052a01d0122a46
:1044f00005d10a2b03dd0a2320e0042b1ddc9f22bb
:104500001f2b13dd104ce27501f0a8fde07d01f0da
:104510009ffc0100052000f011ff10bd0a4ad27c6b
:10452000002aecd1032beadd032307e0002b05da98
:10453000803a134081321a43e4e704238022524236
:0c4540001a43d2b2dee7c046ec3a00207d
:020000040000fa
:10454c00f0b58bb00500099117000021234800f04d
:10455c00b9fe061e19d00468002c16d06368002b17
:10456c0006d0a27c012a03d03a000999280098476a
:10457c00e37c002b06d02000163001f037fa040043
:10458c00ff2804d1300002f031f90bb0f0bd8c20c3
:10459c0002f050f8051ef8d00368002bf5d0da2293
:1045ac001a700f4a126824015268121904320d490c
:1045bc00098806900c48059001200490002403946f
:1045cc0002930190009001230020fef7b7fa002817
:1045dc00d8d1280002f00af9d4e7c046783c002074
:0c45ec00e03c0020803d0020d75400007f
:020000040000fa
:1045f80070b50500254b1c78002c09d05c780f3c61
:1046080063425c41644204239c438634200070bdad
:10461800002002f039ff0420fdf7d4fa0f2000f043
:10462800e7fd012307228021152002f081fb1023da
:104638000022ff210e2002f07bfb002002f01cff6d
:104648000620fdf7bffa062814d1104b04221a7071
:10465800ff21072000f06efe0d4b00221a70f02398
:104668009b00ab40f022920094466344db08094a61
:104678001360cbe7002307228021152002f058fba6
:1046880008210e2000f056fe8524bfe7283b0020b5
:084698008b3d0020bc3c00201a
:020000040000fa
:1046a000002941d010b4041c4c40a4460123002230
:1046b000002900d54942002800d5404288422cd329
:1046c00001242407a14204d2814202d209011b0124
:1046d000f8e7e400a14204d2814202d249005b0023
:1046e000f8e7884201d3401a1a434c08a04202d38b
:1046f000001b5c0822438c08a04202d3001b9c08cc
:104700002243cc08a04202d3001bdc08224300282d
:1047100003d01b0901d00909e3e7101c6446002cf3
:1047200000d5404210bc704701b5002002f060ff88
:1047300002bdc0460029f7d003b5fff7b3ff0ebc9a
:084740004243891a1847c046e4
:020000040000fa
:10474800f8b51f4e1f4c23689d68002314220121d1
:104758003000a8471c4d23681b6b1c212800984774
:1047680023685b6b29001948984723685b6b29000d
:1047780030009847164b174a1a60134e164c114fc3
:10478800124d07e00f4b1b68db6800210c48984767
:1047980002f0e0fe3b689b6b104a3100200098470e
:1047a8002368074a12689342ecd02a689342f1d1f1
:1047b800044b1b689b6a0022054904489847e9e7af
:1047c800cc3c0020c43c0020d43c0020c03c00204d
:1047d800c83c0020ac3c0020d03c0020ffff00007b
:020000040000fa
:1047e800f0b585b00600029103921c0002f0e6fec7
:1047f8000190b36bf26b934208d30025022c05d0cd
:10480800019802f0e7fe280005b0f0bd4523f55ced
:104818006db2b76b22000299300000f073fc6b1c7c
:1048280005d001356db24523f5540125e8e7b36c91
:10483800002b10d0022c02d10235002fe0d130001d
:1048480001f0dafa01250028dad0039a002a12d0fa
:1048580001231360d4e7736a0125002bd0d0300000
:10486800243000f013fc0028cad0039a002a04d090
:0e48780001231360c4e70125c2e70125c0e754
:020000040000fa
:02488600704779
:020000040000fa
:1048880070b582b0224b1b68002b34d01e680720fd
:1048980000f0aefc05006b46dc1d0121200000f095
:1048a80047fe21781b4bd9704bb2002b21dbcc1c67
:1048b800e4b2341b8c340231c9b2200000f038fe57
:1048c80074606b46da79a418a570da7973689b1856
:1048d8005a78104b5a750e4c21680f4802f028f987
:1048e8008c2001f0a9fe206000280ad0002002f0e8
:1048f800f7f802b070bd01216b46981d00f018fe54
:10490800f7e70930fdf75ef9024b01229a70ede7ef
:0c491800b83c0020283b0020243c00207c
:020000040000fa
:1049240030b5234b802252031a6012021a6101210e
:104934004422995401329954002254201a540524d3
:1049440008301c542a3833251d5408301a540430b6
:104954001a544230174d1d50403019540f301a5418
:10496400cd38d0255855013558550d355955013593
:104974005a552f3d5a5507355a5501355a5507355d
:104984005c55fb348025ed021d51503418555130cf
:10499400ff304e3cff3c1c545420ff301954383136
:1049a400ff315a543a22ff32e339995430bdc0469c
:0849b400002800400080008093
:020000040000fa
:1049bc0070b5050002f012fc4523ec5c64b2002ccf
:1049cc001cdd2e0024360be06b6a002b16d0300059
:1049dc0000f05afb00280ed1013c64b2002c0dd023
:1049ec00ab6c002bf0d0280001f004fa0028f3d0b7
:1049fc0002f088fdf0e702f085fdede74523ff228c
:104a0c00ea5402f0b1fc02f0e9fb4423ec5c64b222
:104a1c00002c04dd2b692e001036002b0ed1442304
:104a2c00ff22ea5402f0a0fc70bd02f06bfd013cc9
:104a3c0064b2002cf3d02b69002bf0d0300000f0c6
:084a4c0023fb0028f3d0f0e782
:020000040000fa
:104a540030b583b080256d00184c194b01930423a5
:104a6400009300232a0021001648fdf7adfa210027
:104a74000c31154b01930523009300232a0013489e
:104a8400fdf7a2fa6d0021001831114b01930323a5
:104a9400009300232a000f48fdf796fa21002431e1
:104aa4000d4b01930123009300232a000b48fdf7cb
:104ab4008bfa01f051f903b030bdc04658680000cc
:104ac400003d0020b5750000043d0020ad750000d8
:104ad400fc3c00209d750000f83c0020a5750000fa
:020000040000fa
:104ae40070b5041e3cd0c26a1e4b1b68db6a9a4236
:104af4002ed28369002b05db1a4b1b68d96a052368
:104b04005b1a836193009b189b00174ad318626950
:104b14009a4205d0134b1b68db6ae36201201ee056
:104b2400251d280002f0e0f80e4b1b68db6ae362e7
:104b34000e4a1268934201d90c4a13609800c018b7
:104b44008000094b1818290002f0b5fb012006e08b
:104b5400044b1b68406cdb6a98428041404270bd44
:104b64000020fce7303d0020343900204c3d00207b
:020000040000fa
:104b740070b5002817d01c4b07221a701b4b1b78ea
:104b8400002b07d01a4b1b78002b03d0164b1b7835
:104b9400052b10d0174b02221a70013a9a7000208c
:104ba40001f0a0ff70bd0522e021022002f026fce6
:104bb4000d4b1870e2e71920fdf706f81928fad111
:104bc4000d4c80256d03a561183802f0d7f8656196
:104bd400074a1378013bdbb21370002be2d1034b7d
:104be40000221a70dee7c046893d0020873d002080
:0c4bf400863d0020283b002000280040e7
:020000040000fa
:104c0000002934d00123002210b488422cd301247f
:104c10002407a14204d2814202d209011b01f8e714
:104c2000e400a14204d2814202d249005b00f8e7cd
:104c3000884201d3401a1a434c08a04202d3001bf9
:104c40005c0822438c08a04202d3001b9c0822432c
:104c5000cc08a04202d3001bdc082243002803d06a
:104c60001b0901d00909e3e7101c10bc704701b50e
:104c7000002002f0bdfc02bd0029f8d003b5fff70b
:0c4c8000c1ff0ebc4243891a1847c04611
:020000040000fa
:104c8c00f8b51e4b5b7a002b2cd000251b4c270053
:104c9c0008e03100194801f049ff0135edb27b7a8b
:104cac00ab421cd90021200000f00cfb061e18d0d2
:104cbc000168002915d00b7c002bead0013bdbb23c
:104ccc000b74002be5d14b68002b04d00a00163274
:104cdc00087d03219847300001f088fddde7002bab
:104cec0000d0f8bd064c206801f090fb054b00226b
:104cfc001a70206801f06afbf3e7c046483c0020bc
:084d0c00e43c0020963d00206c
:020000040000fa
:104d140010b5041e37d11d4b1b7e022b0ad0052b68
:104d24000ed08920002b1ed1184bdb7c5a1e9341d8
:104d3400643b07e0154bdb7c5a425341633b01e083
:104d440062235b420020085619001a002d3290425b
:104d54000add13000e4a13700f2300220f211520c1
:104d640001f0e8ff200010bd984203dc084a1370ec
:104d74002300f2e7064b1870401a0321fff78efc5c
:104d84000130c3b2e9e78920ede7c046ec3a0020e0
:044d94008a3d002034
:020000040000fa
:104d980070b51f4da97b222000f0ccfae97b2320b7
:104da80000f0c8fa24242978200000f0c3fa01355d
:104db8000134e4b22c2cf6d1154c217b202000f0d4
:104dc800b9fa617b212000f0b5faa37c05226021a5
:104dd800082001f0adff637d00220f212f2001f094
:104de800a7ffe37e0422f0212f2001f0a1ffa37d7d
:104df800032208212e2001f09bff207efcf7f8fffc
:104e0800e07d01f021f80100052000f093fa70bd63
:044e1800ec3a002050
:020000040000fa
:104e1c0010b51c4b9b78002b12d01a4b1b7802221e
:104e2c0093430dd1184b1b68002b14d0154b00224b
:104e3c009a701620fcf7c4fe02f0bef81628f8d1c2
:104e4c00124b5b7a002b0ed10e4b1b78022b13d01e
:104e5c00052b14d010bd8c2001f0ecfb0a4b186014
:104e6c000028edd0e2e70021084800f02bfa0028da
:104e7c00ead001f0bff9e7e701f078f9eae700f0d2
:104e8c0091ffe7e7283b0020b83c0020243c0020a1
:020000040000fa
:104e9c0020b2202020b22020b220b22020202020be
:104eac00b220b20d0ab220b220b220b2202020b221
:104ebc002020b22020b220200d0ab22020b22020c7
:104ecc00b220b220b22020b22020b220b20d0ab201
:104edc002020b22020b220b22020b220b220b2205a
:104eec0020b20d0ab22020b22020b220b220202005
:104efc00b220b2202020b20d0a2020202020202019
:104f0c002020202020202020202020200d0ac046f8
:020000040000fa
:104f1c0010b51d4a137801210b43137011000122a7
:104f2c004b681a42fcd118490123cb6102330b6246
:104f3c000223ff330b61154b00221a8110329a8227
:104f4c001a849a851a8744201a520c301a520c3043
:104f5c001a520c3008241c520c301a520c301a52b3
:104f6c000c301a520c301a520c301a520c301a5295
:104f7c000c301a520b78022213430b7002224b682e
:104f8c001a42fcd110bdc046002400400c38002051
:020000040000fa
:104f9c0070b504000d00174b1e68174b18680430d1
:104fac0001f09efe631c0dd03419134b1b685c6022
:104fbc00a64210d9114b18680f4b1968043101f037
:104fcc008bfc70bd002defd00b4b196804310c48d5
:104fdc0002f06df9f5e70b4b1868074b19680431b3
:104fec0001f07afc084b1b68a342ead9064b1c6003
:104ffc00e7e7c046643d0020303d0020383d0020ee
:0c500c00cc3b0020343d0020543d00202f
:020000040000fa
:10501800f8b504000e0002f0d1fa0500a26b0027d3
:10502800e36b93420bd94523e35c5bb20132a26385
:105038005a1c09d001335bb24522a354012728002a
:1050480002f0c8fa3800f8bda36c002b0ad0200083
:1050580000f0d2fe01370028f1d0002e11d0012334
:105068003360ece7636a0127002be8d02000243086
:1050780000f00cf80028e2d0002e04d001233360a1
:0a508800dde70127dbe70127d9e788
:020000040000fa
:02509200704765
:020000040000fa
:1050940070b5c368dc6825001835280001f024fecb
:1050a400134b1b68002b1ed1251d280001f01cfe8c
:1050b400e36a104a1268934201d90e4a13609800b9
:1050c400c01880000c4b1818290002f0f4f80b4ba0
:1050d4001b68e26adb6a00209a4203d9084b01226a
:1050e4001a60013070bd2900064802f0e4f8eee7ca
:1050f400443d00204c3d002034390020303d002048
:08510400683d0020b83b0020cb
:020000040000fa
:10510c0070b504001600856b026c002a0cd10020cf
:10511c002368002b02d00135a56370bda06800f098
:10512c0025fb0023a360f6e7002e0ed1406802f0a9
:10513c004df96368226c9446634463603000a26846
:10514c009342e8d323686360e5e7c06802f03ef958
:10515c00236c5a42e3689b18e36021688b4203d2ac
:10516c00a3689c466244e2600020022ed3d1002d3d
:06517c00d1d0013dcfe798
:020000040000fa
:02518200704774
:020000040000fa
:10518400f8b50a21164801f0fbfa0321154801f08d
:10519400f7fa154d154c27005037114e25602100a4
:1051a400300001f0c7fc8c350834bc42f6d10f4cfa
:1051b4000f4d2565210050310a4e300001f0bafc34
:1051c4002b002c33a36521005831300001f0b2fcd0
:1051d4005835256621006031300001f0abfcf8bd84
:1051e400303c00203c3c0020402f0020cc380020e4
:0451f400b8340020ab
:020000040000fa
:1051f80010b584b06b46dc1dd871002002f044f96c
:10520800227880235b4213432370134a942380211e
:105218000906d15001f004fd0028fbd101216b469d
:10522800d81d02f065f901f0fbfc0028fbd1012133
:105238000e30684402f030f901f0f2fc0028fbd18e
:10524800054a982380210906d15002f015f90e234a
:0c5258006b44187804b010bd0028004022
:020000040000fa
:1052640070b5041e09d0436c8b4200d20b00e26a75
:105274009a4202d0a16c012900d070bde362a169f9
:10528400002902db0521cb1aa36193009a1892002e
:105294000c4b9a1863699342efd1251d280001f045
:1052a40023fde36a084a1268934201d9064a13604f
:1052b4009800c0188000034b1818290001f0fbff68
:0c52c400dbe7c046343900204c3d0020e0
:020000040000fa
:1052d000f8b505000e00437a002b17d004680029aa
:1052e00026d0002c0cd0270000e01c00716820683c
:1052f0003368984700280bd163682700002bf4d14e
:10530000002413e06f600be06b600fe000240de001
:105310002b68a3420ed063687b606b68a342f1d018
:105320006b7a013b6b722b68002bedd02000f8bd2f
:0a533000271efbd063682b60efe737
:020000040000fa
:02533a007047ba
:020000040000fa
:10533c0010b582b06b46dc1dd8719971002002f05b
:10534c00a1f8227840235b4213432370114a942323
:10535c0080210906d15001f061fc0028fbd101210c
:10536c006b46d81d02f0c2f801f058fc0028fbd1a6
:10537c0001216b46981d02f0b9f801f04ffc002892
:10538c00fbd1044a982380210906d15002f072f80f
:08539c0002b010bd0028004022
:020000040000fa
:1053a40070b50620fcf710fc0628fad1002307226a
:1053b40080210f3001f0befc002002f067f80825c0
:1053c400002405226021062002f018f8a400a4b2eb
:1053d4000443a4b2012001f0d1fc013dedb2002d43
:1053e400efd10320fcf7f0fb0f20fff703ff054b81
:1053f40001225a61002002f041f8200002f098f8de
:0854040070bdc0460024004009
:020000040000fa
:10540c00f0b5c64600b5144b9846144f144e1d000b
:10541c0043461b68002b17d001f0e0fefb68dc68ec
:10542c00201d01f05dfc3368013b33602b68013bb0
:10543c002b6001f099ff206b00f0b4fb200000f012
:10544c00b1fb2b68002be7d1064b1b68012bdfd976
:10545c0001f0b8fedce7c046403d0020e03b0020f8
:08546c003c3d00203439002012
:020000040000fa
:1054740070b504000d0001f0b5fe2268216ce36be9
:105484004b43d018a0600020a06362605b1ad3185d
:10549400e360ff234422a3540132a354002d0fd10f
:1054a4002369002b03d101f063ff012070bd2000ac
:1054b4001030fff7edfd0028f5d001f087fef2e78c
:1054c4002000103001f0ecfe2000243001f0e8fe52
:0254d400e9e706
:020000040000fa
:0254d60070471d
:020000040000fa
:1054d80030b583b004000d00002001f0d5ff134a59
:1054e800942380210906d1506b466022da7101f0bd
:1054f80097fb0028fbd101216b46d81d01f0f8ff6e
:1055080001f08efb0028fbd12900200001f0f0fffc
:1055180001f086fb0028fbd1044a98238021090664
:10552800d15001f0a9ff03b030bdc04600280040ab
:020000040000fa
:1055380030b583b004000d00002001f0a5ff134a28
:10554800942380210906d1506b462022da8001f08d
:1055580067fb0028fbd101216b46981d01f0c8ffad
:1055680001f05efb0028fbd12900200001f094ff28
:1055780001f056fb0028fbd1044a98238021090634
:10558800d15001f079ff03b030bdc046002800407b
:020000040000fa
:1055980070b582b016006b46d871124b1c78002c7f
:1055a80002d1200002b070bd0f4b00221a700f4dbf
:1055b800069beb602970281d0a00310001f008ffe6
:1055c800ac7008236b70053beb70064b04221a7015
:1055d8006b46d91d002001f0e1fbfef7bdfc04007d
:1055e800dfe7c0469b3d0020ea3d0020f43b002059
:020000040000fa
:1055f80030b589b005008c2001f01ef8041e1bd0c0
:105608000368002b18d082221a700e4a12682d01e6
:105618005268521904320c49098806900b480590c3
:105628000125049500200390029301950090012321
:10563800fdf786fa002801d009b030bd200001f03e
:10564800d7f8f9e7e03c0020803d0020d75400005f
:020000040000fa
:10565800f8b50024144d154e03e077610134102c81
:1056680020d063001b199b00eb181b89dbb2e1b249
:105678008b42f3d173690127a7401f42eed0630024
:105688001b199b0008495b58002be6d008006300f3
:1056980019198900411849681b199b001b580800f3
:1056a8009847dae7f8bdc0460c38002000240040cf
:020000040000fa
:1056b80010b5164b5a6b002a24d0824205d1836953
:1056c800002b17d0002208e01a009369002b1bd08a
:1056d8009842f9d18369002b05d084689968091923
:1056e8009960002a08d083699361002300228261af
:1056f800180010bd1a00f4e7044b5a6b92695a63fc
:105708000123f3e70023f3e70023f1e7803a0020c1
:020000040000fa
:1057180070b5040000f036ff002825d0200000f006
:1057280037fe041e1ed043780025002b12d1836853
:10573800002b01d1436883600c4a3023d35c002bd3
:105748000cd1200000f0d8f90023237563750133cc
:105758006370002501f078fa280070bd2000fef77c
:105768008dfbf1e70125f5e70125f5e7803a0020f3
:020000040000fa
:1057780070b5041e23d0836c013b8364c26a416cfc
:105788008a421ed00020002b00d070bd251d2800a5
:1057980001f0a8fa606ce06205231b1aa3610a4baa
:1057a8001b68984201d9084b1860830018188000bc
:1057b800064b1818290001f07cfd0120e5e70020c0
:1057c800e3e70020e1e7c0464c3d002034390020e3
:020000040000fa
:1057d80010b5114b1b78002b08d00f4b1b780133e9
:1057e800dbb2022b14d80c4a137010bd0b4b0c48bb
:1057f8001861fa2292009a605a60002119730023f6
:10580800084900f0a5f9084b1860431ce5d1ece7fe
:10581800014b00221a70e8e78f3d0020403b002032
:0c5828009d5e0000903d0020d83c002058
