:020000040000fa
:10000000f07f0020355d00006f4c0000034f0000c2
:1000100000000000000000000000000000000000e0
:100020000000000000000000000000003756000043
:100030000000000000000000d15e0000d16b000055
:100040007f4b00007f4b00007f4b00007f4b000088
:10005000ed5200007f4b00007f4b00007f4b000003
:100060007f4b00007f4b00007f4b00007f4b000068
:100070007f4b0000f51b00007f4b00007f4b000012
:100080007f4b00007f4b0000a16900007f4b000008
:100090007f4b000000000000000000007f4b0000cc
:0c00a0007f4b0000000000007f4b0000c0
:020000040000fa
:1000ac00f8b5c046f8bc08bc9e4670473d5c0000e5
:1000bc00f8b5c046f8bc08bc9e467047155c0000fd
:020000040000fa
:0800cc00ec2d00000100000012
:020000040000fa
:1000d400603a00201c000000000000009a3b002051
:1000e40002000000000000008c38002050000000d6
:1000f400000000009c3b0020040000000000000001
:100104007c3a00201c00000000000000a03b0020fe
:100114000400000000000000103b00200c00000060
:1001240000000000403a00201d0000000000000014
:10013400a43b002004000000000000007a3c0020e2
:100144000200000000000000a83b002004000000a2
:10015400000000007e3c00200200000000000000bf
:10016400823c002001000000000000005c370020f9
:100174006800000000000000402f0020fc05000083
:10018400000000001c3b00201800000000000000dc
:10019400913c00200100000001000000010000006b
:1001a400643b00200800000000000000833c0020a5
:1001b40001000000000000005d3a00200200000081
:1001c40000000000ac3b002008000000000000001c
:1001d4005f3a00200100000000000000b43b002052
:1001e4000800000000000000923b00200200000014
:1001f40000000000bc3b00200400000000000000e0
:100204003c350020c000000000000000923c0020ab
:100214000200000001000000ffff0000843c0020f9
:100224000100000000000000183a0020280000002f
:1002340000000000c437002064000000000000003b
:10024400943c00202c00000001000000183a00201b
:100254003c0000007800b00434120a40030000009f
:10026400060000000f190301c43700200500000038
:10027400ab11223344556633c03b00200800000014
:1002840000000000343b00200c00000000000000cf
:10029400853c00200200000000000000403b0020dc
:1002a4001800000000000000873c0020030000004c
:1002b40000000000803c002002000000000000005c
:1002c400583b00200c00000000000000c83b002048
:1002d4000400000000000000c63c002001000000f3
:1002e40001000000010000008c3b0020060000001b
:1002f40000000000cc3b00200400000000000000cf
:10030400b03900203c000000000000008a3c0020be
:100314000100000000000000d03b002004000000a9
:10032400000000008b3c00200100000000000000e1
:100334008c3c002001000000000000008d3c0020e7
:1003440001000000000000006c3b002008000000d9
:1003540000000000983a0020140000000000000093
:100364007c3c00200200000000000000d43b002080
:100374000400000000000000783c0020020000009f
:1003840000000000c73c0020020000000100000043
:1003940002010000943b0020060000000000000061
:1003a400d83b00202000000000000000fc350020a5
:1003b400c0000000000000008e3c0020010000008e
:1003c40000000000ec3900202c00000000000000b8
:1003d400743b002008000000000000007039002079
:1003e4004000000000000000bc360020a000000017
:1003f40000000000c43c00200200000001000000d6
:1004040001000000f83b0020040000000000000090
:100414002c3900204400000000000000fc3b0020b8
:100424001c00000000000000c03c0020040000008c
:1004340001000000aaaaaaaa183c00200400000097
:100444000000000000000020402f00000000000019
:100454001c3c002014000000000000007c3b002035
:100464000800000000000000303c00200c000000e8
:100474000000000028380020640000000000000094
:100484003c3c00201400000000000000ac3a0020b6
:100494002800000000000000503c00201000000074
:1004a40000000000d43a0020140000000000000006
:1004b400603c00200400000000000000e83a002036
:1004c4002800000000000000643c00200800000038
:1004d40000000000843b0020080000000000000031
:1004e4008f3c002002000000000000006c3c002053
:1004f4000400000000000000dc3800205000000070
:1005040000000000703c0020080000000000000013
:1005140000000000000000006666666666666666a7
:020000040000fa
:10052400f0b5de4657464e464546e0b58db004006c
:10053400038aa34a12889a4200d034e18568297854
:1005440009aa117069785170a9781172c27b002ac6
:1005540000d00de109aa5278910600d52ae10823ba
:1005640099460be1974b198809ab9980032717e14a
:10057400237b9a46944abc23d05806f009f90028f4
:1005840003d109ab5b785b063fd409ab9b888f4ae8
:10059400934205d88b4a128892b2934200d002e16a
:1005a40009aa5278d20604d5864a128892b2934296
:1005b4002ed0ed1909ab5a7803231340012b6ed0ca
:1005c40009ab5b78db0700d5ede0814b1b78063b7c
:1005d400012b00d9e7e009ab98887c4b984200d8fe
:1005e40084e073781b02ff2231780b437549098834
:1005f400114268d0734a1288120664d4754a904234
:1006040000d0d0e06f4a128864e003f08bfcbce7b2
:100614006e4a9342cdd809ab1a7a9346694a118837
:1006240089b2da8806abff2004f07aff6b462022f9
:100634009b185a461a706b465b7e03229343012231
:100644001343102293436a4653768c2005f032fefe
:1006540080460028add003689b46002ba9d0190022
:1006640006a805f05ffe01005b4a1378013b137096
:1006740032235a46135443460493584b039300239e
:10068400029301964b4600935b46012206a801f0b3
:1006940051f900288dd1404605f064ff89e72b7895
:1006a4000f22934306d0302b8ad1290009a804f0e5
:1006b400f7fc85e7a37b00932b003200494609a889
:1006c40000f054fb7ce73f4a1288120602d5444ae4
:1006d400904268d03b4a1288120615d4394a1288cf
:1006e4009bb2ff218a4393425dd10de009abde88c2
:1006f4001b7a98461900300005f030fe002852d1cc
:100704004146300003f086fd06ab09aad188198062
:100714005146cf1b1f720795a17b9972617b597259
:1007240052780323134006d12e4b1b68002b3ad07a
:1007340006a8984737e0022b35d12b4b1b68002bba
:1007440031d006a898472ee0666809a94b807078d6
:10075400000233780343cb800223994623785b0756
:1007640000d4ffe609ab012149429980032717e031
:1007740009aa52789106e7d402239946666809ab20
:1007840028790002e97801435980a879000269793f
:1007940001439980287a0002e9790143d980092725
:1007a400530700d4e4e60db03cbc90469946a246fb
:1007b400ab46f0bd666809a94b8008239946cde78e
:1007c400803c0020923b00203c350020fcff0000d0
:1007d400883c0020ffff0000893c00201f3c0000f3
:0c07e400fdff0000f43b0020f03b002073
:020000040000fa
:1007f000f0b5de4657464e464546e0b587b0061c86
:1008000003900f0004911400240a0592019310ab89
:100810001d78b606f60f0297d3b29946e3b2984612
:100820008c2005f049fd8246002800d116e10468bd
:10083000002c00d114e123000c33636003ab187863
:10084000430701d50123994603220240012a35d0ee
:1008500051425141c9b28d4b1b8803af7f899f42e2
:100860002ed000239b4607339c46634608334f46f1
:10087000002f00d0063b4746002f30d00233dbb2ba
:100880002427384020282dd0032a2dd0aa1c9b18bd
:100890002373617303ab72011e7820218e431643cc
:1008a0001e70f3439b0727d04b46002b00d184e0fa
:1008b0004346002b6cd08823a3736be00321cae767
:1008c000734fbb4206d04023194301239b46043398
:1008d0009c46cae700239b4607339c46c5e708337e
:1008e000dbb2cde70143cfe7012398460026002382
:1008f0009b4600210733c9e78023a373654a137819
:10090000591c1170e37304265b46002b0ad1721c3c
:10091000d2b25e490b78606883550236f6b24b78e6
:1009200061688b544346002b63d05b4a137861683f
:100930008b55b31cdbb20136f6b2527861688a552a
:10094000002d0ad0019a5d19edb2591c1078666825
:10095000f0540132cbb29d42f7d1504b129a1a603b
:1009600005f0d2fd0f2858d0534623604c4b1a781f
:100970004c4b1978200005f0affb002856d1013010
:10098000139b002b63d0180005f0eefd01205ee004
:10099000c823a3733f4a1378591c1170e37303ab48
:1009a0009a7a2274db7a6374730769d4029a137893
:1009b000a3745378e3740826a6e74346002b51d06e
:1009c0008c23a373334a1378591c1170e37303ab60
:1009d0009a7a2274db7a6374730751d40623029fd8
:1009e000063ffa5c6168ca5401330e2bf9d10e261a
:1009f0008ae72d4b5b681f0008371a00f31aac46d4
:100a000010789918c9b2656868540132ba42f7d1b2
:100a1000654633000833dbb292e7f03005f070ff33
:100a2000002006f00bf905f06ffd9de71f4b01223a
:100a30001a701f4a1378013b1370139b002b02d0ce
:100a4000180005f091fd504605f08efd002007b01e
:100a50003cbc90469946a246ab46f0bd0020f6e766
:100a60000020f4e7cc23a3730a4a1378591c1170b1
:100a7000e37303ab9a7a2274db7a63747307add5a0
:100a8000ff23a374e37408263ee7c0467c3c0020a5
:100a9000ffff00008d3c0020783c0020d43b00206c
:100aa000c83c0020c73c00206c3b0020c63c002016
:040ab000853c002061
:020000040000fa
:100ab400f8b50021ab4804f0edf9002800d14de170
:100ac4000268002a00d14be1536819785e7840240b
:100ad4002640a54b00241c70dc73013c1c82546826
:100ae400a3783325ab43882b00d197e00ad9c82bd0
:100af4003ad0cc2b6bd08c2b00d1c7e005f032fd63
:100b040000201ce1082b00d1ece0802bf6d1964ba1
:100b14001c7804252543802464422c431c70012442
:100b2400dc73546824791c74546864795c74546864
:100b340006345c600c00093c1c73546808349c60e7
:100b440053685c78230700d5e0e007232340012b9a
:100b540000d1dfe0002b00d1fae0032b00d1efe05d
:100b640005f000fd0020eae0a379ff2b16d07e4dae
:100b74002f7880235b423b432b70002e17d02479bf
:100b84002c74546864796c74546808346c600c0078
:100b9400113c2c7354681034ac60d1e7e379ff2b1b
:100ba400e5d1714d2b7804273b432b70dfe7247a82
:100bb4006d4b1c745468647a5c7454680a345c60c9
:100bc4000c00133c1c73546812349c60b8e7664de7
:100bd4002f7880235b423b432b70002e0ed0247968
:100be4002c74546864796c7454680e346c600c0012
:100bf400173c2c7354681634ac60a1e7a47b5a4ba1
:100c04001c745468e47b5c74546810345c600c009d
:100c1400193c1c73546818349c6091e7a379ff2b2a
:100c24001ad0514b1d78802464422c431c7001243b
:100c3400dc73002e19d153681c7a4b4b1c74546816
:100c4400647a5c7454680a345c600c000d3c1c7358
:100c540054680c349c6073e7e379ff2be1d1424c78
:100c6400237804252b432370dbe753681c793e4b20
:100c74001c74546864795c74546808345c600c00b7
:100c84000b3c1c7354680a349c6059e7364b1d783e
:100c9400802464422c431c700124dc73002e10d089
:100ca40053681c79304b1c74546864795c745468c0
:100cb4000e345c600c00113c1c73546810349c604e
:100cc4003ee753685c7b284b1c745468a47b5c74bb
:100cd40054680f345c600c00133c1c735468123469
:100ce4009c602de7a379ff2b07d01f4c0b00083b1a
:100cf400237353680733a36022e7e379ff2bf4d10e
:100d0400194c237804252b432370eee705f02afcc5
:100d1400002014e0144c23780325ab4323700231e4
:100d2400c9b253685b18023b1b780f4ca37353681a
:100d3400591801390b78637305f014fc0120f8bdd0
:100d4400094c23780325ab4301252b432370e6e7a5
:100d5400054c237803252b432370e0e70020eee7be
:0c0d64000020ece7403b0020983a002003
:020000040000fa
:100d7000f0b585b005001c000aab1f782378042b62
:100d800000d183e0082b00d1f2e0022b01d005b0a6
:100d9000f0bd864b1b78032bf9d1854b1b68854a28
:100da00011685a782023cb5c9a421dd3804b1b6874
:100db000804a11685a782023cb5c9a42e7d17e4c56
:100dc000606905f049f9606905f026f9784b196802
:100dd00009230b70754b05221a704878774c2368ed
:100de000984700232360d2e7631d0193744a0821ca
:100df000180001f0efff0028c9d06d4b1e680023da
:100e000033707078002812d0eb889c46338a634593
:100e1000bdd03200223200230133dbb2834206d040
:100e200012321100123909886145f5d1afe7eb881c
:100e30009c46c1000a185200b31862461a82614ae1
:100e400012781a736a88da8162781a72a2785a72f2
:100e5000e2789a7222790b185b00f318da7201308b
:100e6000c3001818400030180822019906f076f9de
:100e7000611d0822544806f071f97278d3009b185e
:100e80005b00f3185f73013272708fe74a4e70692e
:100e900005f0e2f8706905f0bff8444b1b78042bad
:100ea00000d074e76378002b09d0404b05221a70fc
:100eb0006078464c236898470023236067e7e27810
:100ec0001202a3781343424e3380ea88414b1a80c2
:100ed000414f6b883b80300005f0fefc380005f088
:100ee000e7fc344b1b68197e3c4a11702f4a0621df
:100ef00011703b4a002111703188ff221142d7d076
:100f0000334a128812061cd51a895001801a8000b3
:100f10008018c000052105f075fa0200264d6863af
:100f2000a863304828643c230121e95402abd91d51
:100f300000230b70013304f003fc6864431cb7d139
:100f400025e71d4d2848a023e8506e3b9422ab5066
:100f50000432ab5000230432ab5402aad11d0b70f3
:100f6000322204f0edfba423e850431ca0d10ee78d
:100f70001e4b00221a70104ca425605905f06cf825
:100f8000606c05f069f8605905f046f8606c05f092
:100f900043f8064b08221a700d4b093a1a80144b7d
:100fa0001b68002b00d1f2e69847f0e6883c002051
:100fb000bc3b0020c43b00203c350020b43b00205b
:100fc000b83c0020863c0020643b0020b03b002061
:100fd000923b0020923c0020803c00205d3a0020a3
:100fe000853c0020ed3800001b730000833c00208e
:040ff000b83b0020ea
:020000040000fa
:100ff40070b50d007f4b1c78042c00d1e7e04e281f
:1010040007d059280ad10a787b4b1a77002420008c
:1010140070bd0a78784b1a750024f8e7754b5a7836
:101024000f2a00d1d5e00b2800d1c6e016d95328e9
:101034007cd047d84f2868d089245028e7d16e4cfb
:101044000b880978a1731b0ae373222003f08cff39
:10105400e17b232003f088ff0024d8e7022800d195
:1010640082e00cd9032800d19de0042828d1002c6b
:1010740000d0b4e00c78002cc9d08824c7e700283d
:101084001cd1002c00d0a6e00b785c49d940c907dc
:1010940000d4a2e0082a00d1a3e0082000f0b0f8b0
:1010a4000828fad12b78544ad37400221f2108202f
:1010b40005f0fcfc162000f0a3f8a8e78924a6e7b5
:1010c4008924a4e7572840d08924f0289fd10a68ae
:1010d4004b68494d2a70110a6970110ca970120edf
:1010e400ea702b711a0a6a711a02120eaa711b0e87
:1010f400eb7124242978200003f036ff01350134f4
:10110400e4b22c2cf6d1002481e70b783a4a5375cb
:10111400d27e934201d9384b5a75374b5b7d0022fe
:101124000f212f2005f0c2fc002470e7324c0b88fd
:10113400097821731b0a6373202003f015ff617b78
:10114400212003f011ff002461e70b782a4ad376ab
:10115400527d9a4201d9284a53750422f0212f2046
:1011640005f0a4fc002452e70878830612d43f2338
:101174000340042b00dd0420802318431e4bd87544
:1011840004f0d4fc030000220f21052005f08efc9e
:1011940000243ce742421f2313405b425bb21133fd
:1011a400eada2f20e8e70b78134a937405226021ca
:1011b400082005f07bfc002429e70b780e4a937580
:1011c400032208212e2005f071fc00241fe7862449
:1011d4001de781241be7862419e7882417e7862462
:1011e40015e7054ad37400221f21082005f05efc90
:1011f4000de7c0467c3a0020403a002000f8ff0783
:020000040000fa
:1012040070b504007c4b5b780f2b07d00338c2b257
:10121400162a5fd89000794a125897460f286ed044
:10122400754d00232b7105f053fc08236b70082cbb
:1012340000d1dde0032c00d1dce0201fc3b2152b6c
:1012440048d898006e4b1b589f460321022003f098
:101254008bfe0f2003f07cfd10210e2003f084fe92
:10126400654c0f236370012005f01cfe654b802242
:1012740052039a61232005f015fe60783fe05e4b2f
:101284005b78082b26d00821022003f06dfe012094
:1012940005f008fe1ee0082b1cd00321022003f0f9
:1012a40063fe012005f0fefd14e0534b5b78082b30
:1012b40026d00dd9162b01d0192b0bd108210220d1
:1012c40003f052fe012005f0edfd02f007fc01e001
:1012d400062bf3d0012003f03bfd1f231840464b9f
:1012e400587063241d001f2809d1012003f030fd2c
:1012f4001f2318406870013ce4b2002cf3d170bd88
:1013040002f0ecfbe6e73c4b5b78082b06d0092b9c
:10131400e0d00421022003f027fedbe702f0defb2d
:10132400d8e7354b5b78092b11d00cd81f24082b38
:10133400d0d10621022003f017fe05f00dfd204058
:101344000628f6d1c6e7162b01d0192bc2d10821e5
:10135400022003f009fe1f240621022003f004feec
:1013640005f0fafc20400628f6d1b3e7224b5b785f
:101374001f24082b16d004d9092b04d0192ba9d16a
:1013840001e0062ba6d10821022003f0edfd1f2465
:101394001621022003f0e8fd05f0defc20401628ab
:1013a400f6d197e71621022003f0defd05f0d4fc08
:1013b40020401628f6d18de70f4b5b78082b12d00e
:1013c40005d9092b06d0162b00d083e702e0062ba3
:1013d40000d07fe70821022003f0c6fd1921022076
:1013e40003f0c2fd76e71921022003f0bdfd71e789
:1013f400200084e7082082e77c3a0020d8360000e9
:081404003437000000440041f0
:020000040000fa
:10140c00f0b5de4657464e464546e0b583b00190f2
:10141c001e000cab01cb81461b789a460eab1f7895
:10142c005478240213781c43502e00d9b6e0a4b291
:10143c00624b1b889bb29c4200d1b8e0604b1b787e
:10144c00063b0025012b00d9a9e0022900d0a6e01b
:10145c008c2004f02bff8046002800d1a9e0036803
:10146c009b46002b00d1a6e0019b023b5a425a41fd
:10147c0051005b465b7d032293430b435a465375e5
:10148c0014834e4b1b88538301233b401a015b464c
:10149c005b7d10218b4313435a4653755b469677fd
:1014ac0052465a7400235a4693745b460f9a5a60fc
:1014bc003200494658461f3005f04afe414b9c42cb
:1014cc002bd83e4b1988ff2399435b469981002ffb
:1014dc0049d08c4240d03c4b1b68d87b0130c0b209
:1014ec00210003f0cdfe5b469860374b1b689b7e5a
:1014fc0001335a4613749189344a584601f0fafe66
:10150c00002804d15b461b7c013b5a4613744146b0
:10151c002f4805f09ff93d0041e05b465b7d1022b2
:10152c0093435a4653752b4a2b49584601f0e2fe19
:10153c00051e0cd10f9b002b05d05b46587c5a46e0
:10154c0001210f9b9847404605f008f827e04146db
:10155c00224805f07ff922e02100012003f090fee3
:10156c005b469860c1e700235a461374194a5846e3
:10157c0001f0c0fe051e0cd10f9b002b05d05b4665
:10158c00587c5a4601210f9b9847404604f0e6ffd1
:10159c0005e04146114805f05df900e00025280002
:1015ac0003b03cbc90469946a246ab46f0bd002524
:1015bc00f5e70025f3e70025f1e7c046923b002054
:1015cc00883c0020fcff0000c43b0020112b0000d5
:1015dc00343b0020d54f0000ffff0000583b00209b
:020000040000fa
:1015ec00f0b5c64600b584b001900f00029396008a
:1015fc00300000f0c7fe051e00d1bae0542000f008
:10160c00c1fe041e58d005633200a521280005f048
:10161c00a9fd236b9846002f54d03b783422a35459
:10162c00002b09d0012321003431fa5cca54002a62
:10163c0002d00133102bf8d143230022e2540a9d2f
:10164c00042d00d90425e56265640027a764231dd9
:10165c000393180005f0a9fe2000183005f0a5fe34
:10166c00246105235b1ba3616462e7645023e75488
:10167c00301f4044493b9843029a019905f03afbcc
:10168c0020600b9b002b00d01c6005f07ffc3c4abb
:10169c001368013313603b4b1b68002b16d03a4b7d
:1016ac001b68002b17d1374b1b68db6ae26a93422d
:1016bc0011d8344b1c600ee0280004f067f80120b0
:1016cc00404258e034230022e254b8e72d4b1c6012
:1016dc001368012b23d02d4a136801331360e36a7e
:1016ec002b4a1268934201d9294a13609800c018fa
:1016fc008000284b1818039905f0b1fc05f000fd8b
:10170c00214b1b680120002b35d01e4b1b68da6a5d
:10171c00e36a9a422fd205f02dfc01202be01d4ddf
:10172c00280005f091fc2800143005f08dfc2800f1
:10173c00283005f089fc28003c3005f085fc280099
:10174c00503005f081fc144e300005f07dfc134d3b
:10175c00280005f079fc124805f076fc114805f0dc
:10176c0073fc114805f070fc104b1e60104b1d6093
:10177c00b1e70120404204b004bc9046f0bdc04625
:10178c003c3c0020303c0020603c0020483c0020c9
:10179c004c3c002028380020ac3a0020c03a0020f5
:1017ac00d43a0020fc3a0020e83a0020343c0020d7
:0417bc00383c002095
:020000040000fa
:1017c00070b50500594c207fc0b2002800d0a7e0ba
:1017d00000294ad0002d48d0554c66680724344073
:1017e000012c5ed051480560426000244461846150
:1017f00004614e488160002a58d04c4ad3604b4a5d
:10180000012111774a4a127e520705d5484a042021
:10181000916a117e0142fbd1454a518b042001435c
:101820005183117e80200143117640498a68c9683e
:10183000914203d93d48c168891a01613c49496810
:10184000490743d139498969914233d2374a1168ee
:10185000087837498862916901319161002b5ad02b
:10186000334b04229a7501205be0002b59d0002aeb
:1018700057d02f4c666807243440012c0cd02b48dd
:10188000056042600024446184610461002db0d190
:10189000264900208860aee7002943d1dc07eed559
:1018a0003fe0cc073dd4002be9d0f7e71f4a0021e9
:1018b000d160a4e71d4a1269002acfd01c4aff213b
:1018c00091621a490a69013a0a61c7e7174a9168a1
:1018d00049089160116949081161d1684908d160ce
:1018e000916892698a420ad210490a681288d20520
:1018f000d20d0f4882628a6901328a61aee70b4ad3
:101900001269002aaad00a4a0a49916207490a695b
:10191000013a0a61a2e7064b01229a75012000e014
:10192000002070bdcc07b9d5fbe7c046ec390020dc
:0819300000180042ff01000055
:020000040000fa
:10193800f0b5de464f4680b585b00190029103921e
:101948001f000cab1d780eab1b789b460f9e8c209e
:1019580004f0aefc8146002800d18ae00468002c1f
:1019680000d188e000232375022d6ad0237d04224c
:101978009343202213432375237d08229343237521
:101988003e4b1b889bb23e4a93426bd03d4b1a7824
:10199800063ad2b20023012191425b41dbb2637760
:1019a800ab1e5a4253412377237d9a0801215140a7
:1019b80001220a40920140218b4313438022524264
:1019c80013432375019b5b88e38327743b0a637485
:1019d8003b0ca3743b0ee374271d2a000d993800b5
:1019e80005f0b8fba7612673330a6373330ca3733e
:1019f800360ee67321235a46e254029b039a944614
:101a080063442022a3542423109ae254109b1a0af8
:101a18002523e254109b1b021b0e2622a354109b65
:101a28001d0e2723e5544946174804f015ff0028e2
:101a38001ad104f075ff012005b00cbc91469b46f5
:101a4800f0bd0d9b5a7812021b789b189bb20f4a67
:101a5800934200d88ae7237d04221343202293432c
:101a6800237589e700239ae7484604f079fd0020aa
:101a7800e2e70020e0e70020dee7c046923b0020d6
:101a8800ffff0000883c00204c3b0020fcff0000ca
:020000040000fa
:101a9800f8b504f06ff9002800d08fe04c4c982579
:101aa80080231b066351802636026651db0a636178
:101ab800a530400005f0f4f99423e6500a2005f01b
:101ac800eff966510a24642005f0eaf91c2003f0b6
:101ad8003df90b2805d0013ce4b2002cf3d1852751
:101ae8006de00821093803f03dfa642005f0d8f9c3
:101af80000221f21012005f041fb0a2408280cd0f0
:101b0800642005f0cdf900221f21012005f036fbe5
:101b1800013ce4b2002cf1d1e1e72e4b08225a70c7
:101b28002d4805f009f900284bd1012002f0d4fc1a
:101b3800071e4ad1294d08e0284c2600083605f032
:101b48003ffa20700134a642f9d128786978090251
:101b58000843a97809040143e8780006084302000d
:101b68002879697909020843a97909040143e879c0
:101b780000060843030001204042c11712184b41d8
:101b8800591c01d1d31cd7d800221549002004f0d4
:101b9800dbfe002005f04afb03f066f88c2004f019
:101ba80087fb104b186000280dd0ff210e4805f068
:101bb8006afb084b822252045a6100e085273800ec
:101bc800f8bd8527fbe78527f9e78527f7e7c046ae
:101bd800004400417c3a00207a3c0020403a002032
:0c1be80009730000a43b0020103b00200b
:020000040000fa
:101bf40070b5504b586a504b9b7d002b54d04e49c6
:101c04004c68072214404b4b5a699d699e680b7eb1
:101c14005b0757d5896a474bdb68934252d9002c3e
:101c240043d1444b5b6899540132434b1b7edb0721
:101c340016d5414b012119753e4b9b68ab4256d9d1
:101c44003c4b1b68595d3c4b99620135394b1b6910
:101c5400002b01d1b54262d0364bdb68934262d08f
:101c6400344b5a619d61344b1b7e9b0715d5334b16
:101c74001b78002b18d02f4bdb68934211d12d4bce
:101c840000221a772c4907240c752c490a701b6a08
:101c9400002b09d0274b1b6a9847284b1b78002b35
:101ca40002d0254b02229a7570bd224b5b6854000a
:101cb400e1520132204b1b7edb07d1d51e4b0121a3
:101cc400197508e01c4b1b7edb07c9d51a4b012193
:101cd4001975002cb0d0174b9b68ab4213d9154b28
:101ce4001b686900c95a144b99620135aee7114b60
:101cf4001b69002baad0104bff2199620d490b6977
:101d0400013b0b61a2e70b4b1b69002b9ed00a4bd6
:101d14000b49996207490b69013b0b6196e7074b35
:101d2400012119709ce7044b012199750331197540
:101d340096e7c046ec390020001800428e3c002093
:041d4400ffff00009d
:020000040000fa
:101d4800f0b58db04c4b1b88ff229343dd3a6a44b3
:101d580013808c2004f0acfa051e5ad00668002eb9
:101d680057d000230793454aa433d05807a902f057
:101d7800c3fc079b002b4ed1404c4148a023e050a8
:101d8800404b19680a6953019b1a9b009b18db009a
:101d98009422a35009694a01521a92005218d2009b
:101da8009823e25000239c216354813969440b70c5
:101db80003f0c2fca423e050431c2ad0324a137813
:101dc800013313702c4b198889b209ac22276f4450
:101dd8003a882300012003f0a1fb637820221343f3
:101de8001022934363703100200004f099fa010037
:101df800312333540495254b039300230293019711
:101e080002330093330001222000fff791fd0028e0
:101e18000ad00db0f0bd194fa424385904f018f9b0
:101e2800385904f0f5f8a7e7280004f099fb164a9a
:101e38001378013b1370114c1148a023e050114b4b
:101e480019680a6953019b1a9b009b18db009422ae
:101e5800a35009694a01521a92005218d2009823d5
:101e6800e25000239c21635407a90b7003f064fc23
:101e7800a423e050cde7c046923b00203c3500202b
:101e88001b730000c43b0020853c0020213c00005f
:020000040000fa
:101e980070b584b0454b5b7a002b07d0444b1b7858
:101ea800002b03d0434b1b78002b09d0424b5b7aa5
:101eb800002b65d1414b1b78062b69d004b070bd4f
:101ec80000213a4802f0e4ff05000468002cedd038
:101ed800237b627b12021a43a37b1b041a43e37b16
:101ee8001b061343364a1360364a137801331370be
:101ef800237c627c12021a43a37c1b041a43e37cf2
:101f08001b0613432422a25c2521615c09021143ac
:101f18002622a25c120411432722a25c12060a435d
:101f28000392294a02922122a25c01922022a25cf9
:101f38000092207d627d12020243a07d00040243cc
:101f4800e07d00061043217e627e12020a43a17ed4
:101f580009040a43e17e09061143227f667f36029f
:101f68001643a27f12041643e27f12063243fef79d
:101f78003bfc0f4b00221a70280004f0f1fa95e799
:101f8800fef794fd002895d01048fef7c7fa91e7b0
:101f98000f4b1b881b0600d590e70a4b1b78002bbc
:101fa80000d08be7002004f0a7fc87e74c3b00201b
:101fb800c63c0020833c0020403b0020883c002099
:101fc800c83b0020853c002089680000983a002022
:041fd800923b002018
:020000040000fa
:101fdc0010b584b004000378082b3bd022d8022b18
:101fec001ed101aa0a2313706b46002159719971f5
:101ffc00d97102311972073169443d4b0b70180ac3
:10200c0048701802000e88701b0ecb7039480123e3
:10201c000370083343704280120c828004f072fb10
:10202c0004b010bd0a3b012bfad801a900230b7098
:10203c00314a324803f07efb314b1860431cefd021
:10204c000c23304a13702370002221002e4804f018
:10205c0095fde5e704f0b2ff2c4c23001f33e0772d
:10206c00000a587000229a70da7004f0a7ff7f23e0
:10207c00184023002333187000225a709a70000ef7
:10208c00d87004f09bffff231840230027331870ef
:10209c00020a5a70020c9a70000ed87021000a3194
:1020ac00022002f06bfb638963801b0ca38000236e
:1020bc00e380238121001631002002f05ffb210018
:1020cc001431012002f05afb2b232022e25401335d
:1020dc00153ae2540e4ba36306484480240c8480ca
:1020ec003c2343703a3b037004f00cfb98e7c0466a
:1020fc00794600008c3b0020102700006d54000036
:10210c00cc3b00208b3c0020883b0020b0390020c9
:04211c00f145000089
:020000040000fa
:10212000f0b5ce4600b584b00400009101921f00c6
:102130000025442640e0a66b3a000099200002f0fa
:102140005bfda36c002b11d0022f00d180e020009a
:1021500003f0c6fc002806d104f0d8ff012004b02b
:1021600004bc9146f0bd04f00bfff5e7636a002b59
:1021700004d10028f0d004f003ffede72000243064
:1021800002f0fefc0028e7d004f0fafee4e704f0d9
:10219000bdff0020e3e702a804f00aff19e00023d6
:1021a000a35520e045230022e25421e0200001f065
:1021b0009fff00f09bfd012504f0eefea36be26b98
:1021c0009342b8d3022f3ad0019b002bdfd0002dd1
:1021d000e1d004f09bff05f045f804f0ddfea35dbf
:1021e0005bb20133dbd04523e35c5bb20133d9d072
:1021f00004f08cff01a902a803f0fafa002817d115
:1022000004f0cafea36b9946e56b04f07fffa94575
:10221000ccd120001030019904f0f4fd200001f031
:1022200067ff00f063fd0028c5d104f0a9fec2e7f6
:10223000200001f05dff00f059fd00208fe7a66b44
:1022400002220099200002f0d7fca36c002b8dd055
:08225000002e00d080e77ae7c0
:020000040000fa
:10225800f0b585b0040001910023009300254426c1
:10226800002743e0013ba3632368002b09d02369bf
:10227800002b0ad104f046ff01230093009805b013
:10228800f0bd04f0c9fda060f1e72000103002f0b5
:1022980073fc0028eed004f06ffeebe704f032ff89
:1022a80000230093eae702a804f07efe28e0a75581
:1022b80030e04523e75432e004f06afea06802f0fb
:1022c80037f8009004f01eff39e0200001f00cff01
:1022d80000f008fd09e0200001f006ff00f002fd13
:1022e800200004f019ff002838d1012504f050fe21
:1022f800a36b002bb6d1019b002bcfd0002dd2d0e1
:1023080004f000ff04f0aaff04f042fea35d5bb2f4
:102318000133ccd04523e35c5bb20133c9d004f070
:10232800f1fe01a902a803f05ffa0028d3d120002a
:1023380004f0f2fe0028c8d02368002bbcd020008f
:102348002430019904f05afd200001f0cdfe00f080
:10235800c9fc0028c9d104f00ffec6e7009b002b7a
:1023680000d18be704f014fe616a002903d0236bc7
:102378001b680521c91aa06802f054fd04f0c2feca
:06238800002300937ae738
:020000040000fa
:02238e00704796
:020000040000fa
:10239000f8b5040004f066ff404b1b68002b15d015
:1023a0003f4b1e68344238d1002c3dd02200083209
:1023b000530702d007239a430832002a34d0394bfe
:1023c0001f68974233d338490c6835e0374a5307c2
:1023d00020d0d11d07239943bd239b019c46624415
:1023e000531a0a003048026000214160d318083bac
:1023f000072083432948036059601960991a516086
:1024000013602b4b1960274b1960254b8022120655
:102410001a60c5e7bd239b01e4e700f067fc04f008
:10242000d1ff00252800f8bd00f060fcf7e700f0c0
:102430005dfcf4e721001c006368934202d223682c
:10244000002bf7d1154b1b68a3421ed00d68083531
:1024500023680b6063689b1a102b19d86368ff1af6
:10246000104a1760124a1268974201d2104a176048
:102470001e436660002323600e4a13680133136015
:1024800000f034fc002dcdd1c9e700f02ffcc6e7e9
:10249000a0184360626003f07ffadfe7183c002079
:1024a0001c3c0020203c00207c3b00200000002041
:0824b000243c0020283c002020
:020000040000fa
:1024b800f0b5c64600b582b03a4b1b68002b65d113
:1024c800394b1a68013290461a60002a18d0374be7
:1024d8001b68434521d900230193354b1b68da6af1
:1024e80093009b189b00334a9b58012b01d9012369
:1024f8000193314b1b68002b4ed0012301934be015
:102508002e4a11682e4b1868106019602d4a1368fe
:102518000133136004f024f9d9e700230193274e0f
:10252800370033681b68002b28d03b68db68dc6801
:102538006368984527d3251d280004f0a2faa36aea
:10254800002b03d02000183004f09bfae36a1e4adf
:102558001268934201d91c4a13609800c018800081
:10256800144b1818290004f07cfd114b1b68e26a13
:10257800db6a9a42d5d301230193d2e70b4b0122a0
:1025880052421a60a9e7094a1360a6e70f4a13687e
:102598000133136000230193019802b004bc9046f4
:1025a800f0bdc046443c0020643c0020543c002060
:1025b800303c002028380020683c0020343c0020b3
:1025c800383c0020583c00204c3c00205c3c00205b
:020000040000fa
:1025d80010b50b00072800d171e012d9502846d059
:1025e80021d9572800d174e029d9592800d175e09c
:1025f800f02830d108223c49180004f0abfd002037
:102608001ce003284ed006d8012838d045d8364ad1
:10261800d27c0a7012e0052849d055d8324a127e79
:102628000a7000200ae04e2817d01bd80b2804d1c6
:102638002d4a927d0a70002000e0892010bd5328a1
:1026480007d12949087b4a7b120202431a800020dd
:10265800f4e78920f2e78920f0e7234a127d0a701f
:102668000020ebe7204a527d0a700020e6e71e4969
:10267800887bca7b120202431a800020dee71a48d0
:10268800027a417a09021143827a12041143c27a0a
:1026980012060a431a600020d0e7134ad27d0a7056
:1026a8000020cbe7104a927c0a700020c6e70e494a
:1026b800087c4a7c120202431a800020bee70a4abc
:1026c800927e0a700020b9e7074a527e0a700020fd
:1026d800b4e7054ad27e0a700020afe7024a127fab
:0c26e8000a700020aae7c046403a00201b
:020000040000fa
:1026f40070b52b4b06225a6001f0acfc01f078fb5c
:1027040004f0d6fd03f022fd02f07ef803f042fc53
:102714002449002000f05cfe234b1860234c244b1a
:102724002360244b6360244ba360244be360244b5d
:102734002361244b6361244ba361244be361244b49
:102744002362244b6362244ba362244be362244b35
:102754002363244b6363244ba363244be363244b21
:102764002364002314220121224802f035ff0023b0
:1027740014220121204802f02fff204d0422402181
:10278400280004f0cbfb2900200003f003ff04f031
:1027940053fb02f07bff02f079fffff77bf970bd7a
:1027a400004000416c730000043c00202c390020e0
:1027b400756e0000d96e0000dd550000416b00000d
:1027c400f16e000039640000a9710000216f00005f
:1027d400896b00006d640000ad6b0000bb710000ec
:1027e400a9700000bd700000297000003d73000056
:1027f40045730000fc3b0020003c0020f83b002017
:020000040000fa
:10280400f0b5ce4600b58cb014001f001f266e44f0
:102814003070384b1b685a68089204f089fd33788d
:10282400d840c3075ad5129a002a5cd0324b187884
:10283400002854d08c2003f03dfd051e55d00668b9
:10284400002e54d01f216944002000f09dff2a4b24
:1028540004221a70294b06971f7009af63781b0274
:102864002278d21892b23b002549012002f058fe8a
:102874007b78202213437b703100380003f052fd33
:1028840081460323335403000133dbb20122f254a3
:1028940003000233dbb2069af2540330c0b230189c
:1028a400042208a904f058fc164b129a1a600495e5
:1028b400154b0393002302930194023300933300d6
:1028c400072249463800fff735f803000120002ba2
:1028d40005d1280003f046fe002000e001200cb0e2
:1028e40004bc9146f0bd0120f9e70020f7e7002081
:1028f400f5e7c046c43b0020883c00205e3a002037
:0c290400ffff0000b03b00202d5200003f
:020000040000fa
:10291000f8b5394e394c23689d68002314220121f3
:102920003000a847364d23681b6b1c2128009847b0
:1029300023685b6b29003348984723685b6b290049
:1029400030009847304b314a1a60314c2b4f2d4d97
:1029500007e02a4b1b68db6800212748984704f0f2
:10296000e4fc3b689b6b2b4a254920009847236871
:10297000214a12689342ecd02a689342f1d1224e48
:102980001e4b1b689b6a002231001e489847336823
:102990001a78012a0ed0022ae3d19878da78120246
:1029a000024318790004024358790006104301f0ed
:1029b00007fbd6e79978da78120211431a791204e4
:1029c0000a435b791b0613435a799979090211432b
:1029d000da79120411431a7a12060a435978987860
:1029e00000020843d978090408431979090601430c
:1029f000187801f04dfab4e7e43b0020dc3b0020fe
:102a0000ec3b0020d83b0020e03b0020943b002022
:082a1000e83b0020ffff00007d
:020000040000fa
:102a1800f0b5c64600b584b00400009101920027c5
:102a280044260023984638e00099200004f0def898
:102a38006b1ea3632369002b06d104f063fb0120fe
:102a480004b004bc9046f0bd2000103002f094f8a9
:102a58000028f2d004f090faefe704f053fb0020ce
:102a6800eee702a804f0a0fa21e04346a35528e0c7
:102a780045234246e25429e0200001f035fb00f0ee
:102a880031f909e0200001f02ffb00f02bf92000bc
:102a980004f042fb002835d1012704f079faa56b30
:102aa800002dc1d1019b002bd7d0002fd9d004f025
:102ab80029fb04f0d3fb04f06bfaa35d5bb201338e
:102ac800d3d04523e35c5bb20133d1d004f01afbc9
:102ad80001a902a802f088fe0028d3d1200004f042
:102ae8001bfb0028c8d020002430019904f086f987
:102af800200001f0f9fa00f0f5f80028ccd104f034
:082b08003bfac9e700209be73e
:020000040000fa
:102b1000f0b5d6464f4680b583b081468a460192cd
:102b2000177b334b1a88ff231a4205d1314b5b7a4e
:102b3000002b57d000242ce0080002f0d3f8f5e772
:102b40000123b374b1892c4a300000f0d9fb00286e
:102b500002d1337c013b33742900264803f080fe08
:102b600011e0318b254b1b68d87b0130c0b202f0dd
:102b70008dfbb06029001f4803f072fe03e02900be
:102b80001c4803f06dfe0134e4b21a4b5b7aa34299
:102b900028d90021174802f07ff9051e22d00668c7
:102ba000002e1fd0337fbb42e9d1737c4b45e6d169
:102bb0005346002bd5d0337c002b04d0013bdbb235
:102bc0003374002b03d00e4b1b78082bb8d17368dd
:102bd000002b03d0019a514648469847280003f03d
:102be000c3fcd0e703b00cbc91469a46f0bdc0468a
:102bf000923b0020343b0020112b0000c43b0020fe
:042c0000883c0020ec
:020000040000fa
:102c0400f8b5374c656b63689b6998476061606988
:102c140004f0daf8a66ae76a0023020092197b41fd
:102c2400a262e362002d51d02d4c3022a35c01330b
:102c3400a35403f0affb646b002c06d0a368002bf5
:102c440003d101250027264e11e0264d00242e0035
:102c540021e0e06903f0def9e368002b01d020698c
:102c64009847746b002cf0d0a368002bedd1257528
:102c74006575a378002b02d1e368002be9d120000d
:102c840002f062fba378002be6d16770e4e701341d
:102c94002035052c15d06301f3185b7d002bf6d08d
:102ca4006201104b9b1800225a75ab78012beed1b0
:102cb40061010c4b59186b688b60280000f06cf9ab
:102cc400e5e7074930228b5c013b8b5404f040fb61
:102cd400040000f0a1fc200004f03efbf8bdc04657
:082ce40070390020bc3600200d
:020000040000fa
:102cec00f8b5ce46474680b504f050f92e4b1a681d
:102cfc00013a1a601b680024002b03d12b4b1b6874
:102d0c00002b06d104f0fcf920000cbc904699462f
:102d1c00f8bd0024264eb046264f274b9946336803
:102d2c00002b22d04346db68dc682000183003f00f
:102d3c00a6fe251d280003f0a2fee36a3a68934222
:102d4c0001d91c4a13609800c01880001b4b18183e
:102d5c00290004f084f91a4b1b68db6ae26a9a4278
:102d6c00ddd301234a461360d9e7002c01d003f0d0
:102d7c00f5fc144b1c68002c0ed00f4e012502e004
:102d8c00013c002c05d0fff791fb0028f8d03560f2
:102d9c00f6e70c4b00221a60074b1c68002cb1d0d4
:102dac0004f0e8f80124ade7443c00203c3c002052
:102dbc00d43a00204c3c0020683c002028380020ed
:082dcc00303c00205c3c0020bb
:020000040000fa
:102dd400f0b5ce46474680b583b081468846324b2f
:102de4001e78002e59d1cd00013debb2019317009e
:102df4001500083500202d4c0fe04000604080b2e3
:102e0400013bdbb2002b05d001b20029f5db400009
:102e140080b2f5e70132954204d013781b02584082
:102e24000823f1e7002422490fe064004c40a4b2d7
:102e3400013bdbb2002b05d022b2002af5db640093
:102e4400a4b2f5e70137bd4204d03b781b025c40d5
:102e54000823f1e7019d290000f0e4fd0f0029009b
:102e6400200000f0dffd4346013bcab2d2089a1aa3
:102e74004846805cfab2d2089b1a07221740063ae9
:102e8400ba404c46e35c1a4207d007231940012696
:102e94008e400640731e9e41f6b2300003b00cbc57
:102ea40090469946f0bdc046913c00202110000098
:042eb4000580ffff97
:020000040000fa
:102eb800f0b5060085b00f0015001c008b4265d8e0
:102ec80001d1824262d82100280004f09df839001f
:102ed8000090300004f098f8009b21001b1a1a009b
:102ee8002800039304f084f800900191019bbb42f1
:102ef80046d802d1009bb34242d8009b019c039a5a
:102f080001200021f61aa74104f072f8039b002b58
:102f18002fd0019b009adb0754081c43019b5d08d6
:102f2800039b9c46bd422ed801d1b4422bd8320017
:102f38003b00121bab41012692185b410027b618d3
:102f48005f4101235b429c446346002bead1801910
:102f58007941039a04000d003000390004f03cf870
:102f6800039a06000f0004f043f8241a8d4120004c
:102f780029000a9b002b01d01e605f6005b0f0bde0
:102f880000200021c2e7b6197f41dae700200021be
:022f9800efe761
:020000040000fa
:022f9a0070477e
:020000040000fa
:102f9c00f0b5de4657464e464546e0b585b081460f
:102fac00002854d0304b596b83689a4600290cd0ba
:102fbc008b6852460392002290469a4549d30022d0
:102fcc0000238b460092019306e052468260264b0a
:102fdc005863012034e0e3465e46b66834000025b1
:102fec00009a019b12196b41009201935e46b669df
:102ffc00b446002e12d06646b66800210f00009a27
:10300c00019bb6185f41474529d8e4d1039b9e42ea
:10301c00e1d960465946009a019b01e030005946bf
:10302c004c46a0618c61002051468a1a4b469a602e
:10303c009b69002b04d04a4691689a68521a9a6090
:10304c0005b03cbc90469946a246ab46f0bd00206c
:10305c00f6e7054b5863816100220120e4e76046e6
:0c306c005946009a019bdbe770390020f8
:020000040000fa
:1030780070b504000d000b2861d88300314ad3587d
:103088009f46032208210d2004f078f828702000bc
:1030980070bd072280210d2004f070f828700020f0
:1030a800f6e7002203210d2004f068f828700020bc
:1030b800eee701220221172004f060f828700020b2
:1030c800e6e700220f21142004f058f828700020a9
:1030d800dee7132001f03afe28700020d8e700222e
:1030e8000f21052004f04af828700020d0e70022bc
:1030f8000f21152004f042f828700020c8e70522a7
:103108002021162004f03af828700020c0e7042295
:1031180010212e2004f032f828700020b8e704228d
:103128001021172004f02af828700020b0e70522a3
:103138002021172004f022f828700020a8e7882012
:08314800a6e7c046386500004f
:020000040000fa
:1031500070b50400002927d02c4b1b7f0422f021de
:103160002c2003f0a5fc012c34d9284b1b7d012217
:103170000e212c2003f09cfc1920fef743f819289f
:10318000fad1234b186801780139c9b201f0eeff7a
:10319000204b01221a70204c80256d03a56101206f
:1031a00003f082fe656170bd00230422f0212c2013
:1031b00003f07efc012cd8d8072301220e212c20fd
:1031c00003f076fc13e0154803f0f9fa114b0022e6
:1031d000da70d1e7072301220e212c2003f068fcce
:1031e0000a4b1a7f0e4b1a700e4b01221a70012cdb
:1031f000c2d1084bdb78122be5d8002bbcd097202e
:1032000003f0ddfa034b0022da70b5e7403a002004
:10321000a03b00207c3a00200044004157020000ff
:083220007e3c00207f3c0020f1
:020000040000fa
:10322800f0b58bb006002f4b1c781a2c4dd801270f
:103238001d0007e00a2053e00a2051e00134e3b200
:103248001a2b42d8e2b27368e3401f42f6d02a70c4
:103258002900002000f096fa0028efd01a236b44ca
:10326800012252421a808c2003f022f8061ee1d077
:103278000568002de0d007ac1a276f443a88230070
:103288001949012002f04af9637820221343637038
:103298002900200003f044f8010001232b54049670
:1032a800124b0393002302930197023300932b00e0
:1032b80001222000fef73cfb03000020002b0fd169
:1032c800300003f04df90a200ae0094b05221a7074
:1032d8007078084c31002368984700232360002049
:1032e8000bb0f0bd863c0020ffff00003d3a000017
:0832f800883c0020b43b0020db
:020000040000fa
:10330000f0b58db0040006921e236b4419808c200a
:1033100002f0d2ff071e50d02c4b1b889bb21e22fe
:103320006a4412889a424ad0002c4ad00668002e7d
:1033300049d009ad228b618b2b00ff2002f0f2f8ff
:10334000627d9107890f6b78032083430d30024023
:103350000b4310218b4313436b703100280002f0a4
:10336000e3ff0500a37c002b20d0237fb370184a15
:103370001378013b13707019a27f21001f3103f0f5
:10338000edfea27f0497069b0393637c02931e23aa
:103390006b440193022300933300290009a8fef730
:1033a000cbfa041e05d020000db0f0bdb378237712
:1033b000e1e7380003f0d8f8f5e70024f3e700244c
:1033c000f1e70024efe70024ede7c046923b002040
:0433d000893c002014
:020000040000fa
:1033d40070b50d1e4cd000284dd12848383003f06c
:1033e40054fd012802d00120404246e02b68234cc2
:1033f4006360db689847e0600026c8220023002150
:1034040002f086fd1e4a002302f044fe022200233d
:103414008018594120620423eb5623722661194b0c
:10342400a361194be36100220023a262e362666395
:103434003023e65463681b68002114489847636886
:103444001b69002b02d00d4a108b98470b4ce06986
:1034540080b263685b69984763685b689847a02299
:1034640000210b4803f082fe02232370200004e0b5
:103474000120404201e00120404270bd703900202b
:10348400006cdc02ffff0000ff7f0000052c000041
:04349400bc36002022
:020000040000fa
:1034980010b52a4b1b68002b03d0294b01221a6058
:1034a80010bd274b00221a60264b1b681b6b264a4f
:1034b8001968914202d1596891422fd0214b18685e
:1034c8001968343103f078ff204b1b689a00d21832
:1034d80092001f495258002a06d1013b9a00d2187f
:1034e80092005258002af8d019489a00d118890039
:1034f80041184c6864684c60d218920008328218ef
:10350800944212d09a00d218920011498a1852682f
:10351800d1680c4a11600d4a1360c1e7996891425d
:10352800ccd1db689342c9d1cee760689a00d21843
:10353800920007498a185060e4e7c046443c0020de
:10354800683c0020303c0020a5a5a5a54c3c0020e7
:0435580028380020ef
:020000040000fa
:10355c00f0b583b006000d0001921f0008ab1c787b
:10356c0002f02cfe002845d0244b1b785bb2022bba
:10357c0006d00124644203f021fa200003b0f0bd10
:10358c00002d31d0b54232d31d4b1b78002b0bd004
:10359c001c4b01221978002908d001322033052a4e
:1035ac00f8d101246442e6e70022154b0121197081
:1035bc0000215970197559759c705d600199d9601d
:1035cc001f61ad1b9d60104909881404240c0a046a
:1035dc001443dc61013189b20c4a914202d00a4a8f
:1035ec001180c8e70121fae701246442c3e70124f2
:1035fc006442c0e701246442bfe7c0467039002032
:10360c00bc360020dc360020c43c0020ffff00004c
:020000040000fa
:10361c00f0b5c64600b52a4b5a6b59691961002a98
:10362c0042d09168274b994234d9254b5b690025d0
:10363c001c00244a0023a4185d41214b98465b686a
:10364c009b6998470027060043461b69834203d9b0
:10365c001d4a0023b6185f41194b196a00230a0052
:10366c0092197b41ab4202d827d1a24225d98e199f
:10367c00134bde61124bdb691b0402d1104b012290
:10368c00da610f4bd86980b25b685b69984704bc00
:10369c009046f0bd91680a4b5b6900251c00002325
:1036ac000a00a4185d41c8e7054b5b6900251c00a6
:1036bc00044a0023a4185d41bfe7014bdc61d9e744
:0c36cc0070390020ff7f0000ffff0000ad
:020000040000fa
:1036d8009a1200000a130000d812000026130000f6
:1036e800d812000082120000ae120000d8120000aa
:1036f800d8120000d8120000d8120000d81200001a
:103708004e120000d8120000d8120000d812000093
:10371800d8120000d8120000d81200007013000060
:10372800d8120000d8120000bc1300000a130000d1
:10373800d812000026130000d812000082120000e0
:10374800ae120000d8120000d8120000d8120000f3
:10375800d8120000d81200004e120000d812000043
:10376800d8120000d8120000d8120000d8120000a9
:10377800d812000070130000d8120000d812000000
:04378800bc1300006e
:020000040000fa
:10378c0010b582b00c00022826d008d906283ed0ed
:10379c0080282fd0052834d0002002b010bd00287e
:1037ac0011d001280dd101a80b7803704b78437010
:1037bc0003f078f80028f0d001ab1a88164b1a8069
:1037cc00ebe70020e9e7002003f033f90028e4d010
:1037dc002278124b1a70e0e701a80b7803704b7833
:1037ec00437003f073f80028d7d001ab1a880c4b48
:1037fc001a80d2e70b785a1e93410a4a13700120a3
:10380c00cbe70422084803f0a3fc0120c5e70a78a3
:10381c00064b1a700120c0e7803c0020863c00203b
:10382c00923b0020913c0020ac3b00205e3a0020f3
:020000040000fa
:10383c00f8b5284b5b7a002b49d00025254f23e0a7
:10384c000123a374a189244a2000fff753fd00280b
:10385c0002d1237c013b2374218b204b1b68d87b2a
:10386c000130c0b201f00cfda0603100194802f02b
:10387c00f1ff03e03100174802f0ecff0135edb227
:10388c00144b5b7aab4222d90021380001f0feface
:10389c00061e1cd00468002c19d0a368002be9d09c
:1038ac00013ba360002be5d1237c002bc8d0013b4e
:1038bc00dbb22374002bc3d16368002b03d0607c74
:1038cc00220003219847300002f048fed6e702f0b0
:1038dc0009f8f8bd343b0020112b0000c43b00203c
:020000040000fa
:1038ec0070b58ab01a236b4400221a80214b1a88b7
:1038fc00ff231a4209d0204b1b881a226a441380da
:10390c001e4a934201d10ab070bd8c2002f0cefc4d
:10391c00051ef8d00468002cf5d0164b198889b216
:10392c00154b1a8807abff2001f0f6fd210007a804
:10393c0002f0f4fc0600072323540130c0b2201817
:10394c0008220f4903f004fc04950e4b039300234b
:10395c0002931a336b440193022300932300092230
:10396c00310007a8fdf7e2ff0028ccd1280002f0b7
:10397c00f5fdc8e7923b0020923c0020ffff0000c1
:08398c00b83c0020796d000039
:020000040000fa
:10399400002941d010b4041c4c40a4460123002249
:1039a400002900d54942002800d5404288422cd342
:1039b40001242407a14204d2814202d209011b013d
:1039c400f8e7e400a14204d2814202d249005b003c
:1039d400f8e7884201d3401a1a434c08a04202d3a4
:1039e400001b5c0822438c08a04202d3001b9c08e5
:1039f4002243cc08a04202d3001bdc082243002847
:103a040003d01b0901d00909e3e7101c6446002c0c
:103a140000d5404210bc704701b5002003f0d4fc2f
:103a240002bdc0460029f7d003b5fff7b3ff0ebcb3
:083a34004243891a1847c046fd
:020000040000fa
:103a3c00f0b583b000292dd1204d214eae65214f1c
:103a4c003b78012422009a40130001331801c01a5c
:103a5c00800103f0adfcfa21890000f0f5fce8646c
:103a6c003b789c4001342001001b800103f0a0fc3a
:103a7c00fa21890000f0e8fc02002865002354219b
:103a8c006b54694607310b70300001f053fee8654a
:103a9c0003b0f0bd0c4b1868fff7c0fb0028f7d043
:103aac00094b19680870094b05221a704878084ca4
:103abc002368984700232360eae7c0463c35002082
:103acc00a55c00005f3a0020bc3b0020883c002035
:043adc00b43b0020d7
:020000040000fa
:103ae000f0b583b000221f21012003f04bfb082812
:103af00001d003b0f0bd073001f02cf90e2001f029
:103b000029f9019001210e2001f030fa002003f084
:103b100099fb0921022001f029fa03f0b2fb04000d
:103b2000154fa0260125bb591d4216d103f0a9fb54
:103b3000001bfa28f7d91a2001f00cf9054208d029
:103b4000a843c1b21a2001f011fa03f09afb040055
:103b5000e9e701210143c9b2f4e70f2001f0faf8c7
:103b6000064b01221a61002003f064fb01990e202c
:103b700001f0fcf9bde7c0460044004100180040d8
:020000040000fa
:103b8000f0b585b00600029103921c0003f002fc20
:103b90000190b36bf26b934208d30025022c05d041
:103ba000019803f005fc280005b0f0bd4523f55c45
:103bb0006db2b76b22000299300001f01df86b1c4a
:103bc00005d001356db24523f5540125e8e7b36c06
:103bd000002b10d0022c02d10235002fe0d1300092
:103be00001f07eff01250028dad0039a002a12d0c6
:103bf00001231360d4e7736a0125002bd0d0300075
:103c0000243000f0bdff0028cad0039a002a04d057
:0e3c100001231360c4e70125c2e70125c0e7c8
:020000040000fa
:023c1e007047ed
:020000040000fa
:103c200070b582b00c1e09d11f4b06221a7000f02d
:103c30007bf9200001f056f802b070bd1b4ea425a0
:103c4000705902f009fa705902f0e6f9184a13782f
:103c5000013bdbb21370002b22d0144d1548a0237a
:103c6000e850154b19680a6953019b1a9b009b1871
:103c7000db009422ab5009694a01521a9200521893
:103c8000d2009823ea5000239c216b5469460731e7
:103c90000b7001f055fda423e850431cc9d1cbe7bc
:103ca000002002f02dfed8e7883c00203c350020a3
:0c3cb000853c00201b730000c43b00207a
:020000040000fa
:103cbc0010b582b002f028fa01a8012464420480f5
:103ccc0002f004fe174802f0edfd02f031fd164b38
:103cdc0001221a70154b1c801e21154803f0d1fad5
:103cec001e21144803f0cdfa1e21134803f0c9fa23
:103cfc001e21124803f0c5fa6b46d91d00230b7028
:103d0c00fa22013392000e4801f014fd431c07d037
:103d1c0003f054f90b4b18700b4b187802b010bd14
:103d2c000120fbe7803c0020883c0020923b0020d7
:103d3c00343b0020583b00204c3b0020403b0020f3
:0c3d4c003d380000893c0020873c00202e
:020000040000fa
:103d580030b587b0fff7aeff0e2833d0002200231e
:103d6800049205931f4d0832290004a803f070f847
:103d7800040001225242d317049205930932290004
:103d880004a803f065f8002801d0002c1ed10821f2
:103d9800684601f05fff002812d16946f030fdf750
:103da80025f902ac2100f020fef712fc0223237053
:103db80021000320fdf71af921000320fef708fc73
:103dc80007b030bd084b05221a70c7e7082205491d
:103dd80002a803f0bff902a9f020fdf707f90028af
:0c3de800dfd0ede7b83c00208b3c002051
:020000040000fa
:103df4001d4b00229a619a8c80218a439a841a006e
:103e04001023d1680b42fcd0184b1b689b0e3f2b30
:103e140027d09b02802292001343134a93621023fb
:103e2400d1680b42fcd0104b02229a841a00102352
:103e3400d1680b42fcd00e4b0e4a5a601a005378dc
:103e44005bb2002bfbdb0a4b0b4a5a800b4a5a80ad
:103e54000b4a5a800b4b0c4a1a62034b00221a621b
:103e64007047203bd5e7c04600080040246080002e
:103e7400000c00400007010005400000184000004d
:0c3e84001b40000000040040400801004a
:020000040000fa
:103e900070b50e2836d8002a36d01c4b1c78042367
:103ea00025009d43012d02d00123082c28d1174b5a
:103eb00003241c70164b1870164b1960164b1b68a8
:103ec000db691648036000245c7008201870596094
:103ed000134b1a6003f02efa124b1c70c3070ad45e
:103ee0000121012200e0190052004b1cdbb202420a
:103ef000f9d00c4b1970094b1868fff795f90300be
:103f0000180070bd0123fbe70123f9e7883c00207e
:103f10005f3a0020ac3b0020c43b0020bc3b0020ab
:083f2000b43b0020863c0020a8
:020000040000fa
:103f280070b582b0204b1b780a249c42a4413123ef
:103f38009c4364341d4dbc26a85902f089f8a85941
:103f480002f066f800230193a433e85801a900f0b1
:103f5800d3fb019b002b21d0144ea425705902f0ed
:103f680077f8705902f054f8104d1148b823e8500a
:103f78000c3bec500433ec500023b422ab546a469b
:103f8800d11c0b70220001f0d7fbbc23e850431c66
:103f980002d0084b01221a7002b070bd034aa42354
:103fa800d05802f035f8dfe7863c00203c35002089
:083fb80069450000833c002074
:020000040000fa
:103fc00010b5c6b0040012236b4400221a800020f2
:103fd00003f028f9e075000a20763823e35c3922e3
:103fe000a25c12021a433a23e35c1b041a433b23ec
:103ff000e35c1b061343029301230193134b1b78cd
:10400000009323003c2212216944022002f004fda7
:1040100000280fd00d4a13780133137009230c4a7e
:10402000137005aa1370002205a90a4802f0acfd1e
:1040300046b010bd0a2305aa1370054a137000226a
:1040400005a9044802f0a0fdf2e7c0468c3c002020
:084050008b3c0020883b00209e
:020000040000fa
:1040580070b5234b802252031a6012021a610121a3
:10406800442299540132995402200532985401325d
:104078009854002254241a554f3c5c255c552a3d1f
:1040880033265e5503355a5505355a5504355a5564
:104098004235144e5e51403559550f355a55013544
:1040a8005855013558550d35595501355a552f3d37
:1040b8005a5507355a5501355a5507355c554c340c
:1040c800ff3418555130ff3019545420ff3019541b
:1040d8003831ff315a543a22ff32e339995470bdce
:0840e80000440041008000804b
:020000040000fa
:1040f00070b5050002f050ff4523ec5c64b2002c63
:104100001cdd2e0024360be06b6a002b16d030002d
:1041100000f036fd00280ed1013c64b2002c0dd019
:10412000ab6c002bf0d0280001f0dafc0028f3d0b3
:1041300003f0def8f0e703f0dbf8ede74523ff22bc
:10414000ea5402f0e3ff02f027ff4423ec5c64b280
:10415000002c04dd2b692e001036002b0ed14423d9
:10416000ff22ea5402f0d2ff70bd03f0c1f8013c17
:1041700064b2002cf3d02b69002bf0d0300000f09b
:08418000fffc0028f3d0f0e77a
:020000040000fa
:1041880070b5224da97b222000f0ecfee97b2320ac
:1041980000f0e8fe24242978200000f0e3fe013531
:1041a8000134e4b22c2cf6d1184c217b202000f0ed
:1041b800d9fe617b212000f0d5fea37c0522602179
:1041c800082002f071fc637d00220f212f2002f0ed
:1041d8006bfca37d032208212e2002f065fce37e00
:1041e8000422f0212f2002f05ffce37c00221f2133
:1041f800082002f059fce07d01f096fc0300002243
:104208000f21052002f050fc70bdc046403a002046
:020000040000fa
:10421800f0b5c64600b582b0009001911e4b1b68f0
:104228009f7b002f35d01e6832881c4b9a4210d0d5
:1042380004240023321f904618480133dbb2bb42e6
:1042480025d03119221d4546ad5a854203d01400a8
:10425800f3e731000024009a0a800f4d2b681b6891
:104268001b19019999702b68db7b0133dbb21100b4
:10427800180001f007f82a6813680230927e50434c
:104288001c19e070012002b004bc9046f0bd00206b
:10429800f9e70020f7e7c046c43b0020ffff000015
:020000040000fa
:1042a80030b583b080256d00184c194b0193042359
:1042b800009300232a0021001648fdf793f92100f6
:1042c8000c31154b01930523009300232a00134852
:1042d800fdf788f96d0021001831114b0193032374
:1042e800009300232a000f48fdf77cf921002431b0
:1042f8000d4b01930123009300232a000b48fdf77f
:1043080071f901f06ffb03b030bdc046586600007c
:10431800103c00208d730000143c002085730000c1
:104328000c3c002075730000083c00207d730000e1
:020000040000fa
:1043380070b5041e3cd0c26a1e4b1b68db6a9a42e9
:104348002ed28369002b05db1a4b1b68d96a05231b
:104358005b1a836193009b189b00174ad318626904
:104368009a4205d0134b1b68db6ae36201201ee00a
:10437800251d280002f085fb0e4b1b68db6ae362f3
:104388000e4a1268934201d90c4a13609800c0186b
:104398008000094b1818290002f063fe012006e08e
:1043a800044b1b68406cdb6a98428041404270bdf8
:1043b8000020fce7303c0020283800204c3c00203e
:020000040000fa
:1043c80070b5002817d01c4b07221a701b4b1b789e
:1043d800002b07d01a4b1b78002b03d0164b1b78e9
:1043e800052b10d0174b02221a70013a9a70002040
:1043f80002f00afa70bd0522e021022002f0befe9a
:104408000d4b1870e2e71920fcf7f8fe1928fad1cd
:104418000d4c80256d03a561183802f041fd6561da
:10442800074a1378013bdbb21370002be2d1034b30
:1044380000221a70dee7c046823c00207f3c002044
:0c4448007e3c00207c3a00200044004133
:020000040000fa
:10445400002934d00123002210b488422cd3012433
:104464002407a14204d2814202d209011b01f8e7c8
:10447400e400a14204d2814202d249005b00f8e781
:10448400884201d3401a1a434c08a04202d3001bad
:104494005c0822438c08a04202d3001b9c082243e0
:1044a400cc08a04202d3001bdc082243002803d01e
:1044b4001b0901d00909e3e7101c10bc704701b5c2
:1044c400002002f081ff02bd0029f8d003b5fff7f8
:0c44d400c1ff0ebc4243891a1847c046c5
:020000040000fa
:1044e00070b504001e4d80235b036b61d22002f087
:1044f000dbfc802636029423ee500a2002f0d4fc26
:104500009823ee50642002f0cffc00221f210120ee
:1045100002f038fe0a2508280dd0642002f0c4fc01
:1045200000221f21012002f02dfe013dedb2002de1
:10453000f1d1852070bd0b4b08225a7000f0e8f9cc
:1045400000f03efc002c07d1fff71efe054b0022b9
:104550001a709a700020ede701f0a0f9f4e7c04668
:08456000004400417c3a0020f8
:020000040000fa
:1045680030b583b01b4b00221a701b4da424285968
:1045780001f06efd285901f04bfd184a1378013bf4
:10458800dbb21370002b21d0134c1548a023e05048
:10459800144b19680a6953019b1a9b009b18db008e
:1045a8009422a35009694a01521a92005218d20063
:1045b8009823e25000239c216354694607310b700d
:1045c80001f0baf8a423e05003b030bd002002f097
:1045d80093f9d9e7833c00203c350020853c002036
:0845e8001b730000c43b00201e
:020000040000fa
:1045f00000b5c3b0002913d11a4b1b78002b07d08c
:10460000194b1b78092b22d00e2b20d043b000bdb4
:10461000164b186801f020fd124b01221a70efe7cb
:10462000104b1b78002bebd06b460022da70fa326d
:1046300001239200694603310d4801f081f80b4bcc
:104640001860431ce2d0074b00221a70d8e70a23f7
:10465000054a137001aa1370002201a9054802f04f
:1046600093fad3e78a3c00208b3c0020d03b00200b
:084670008f230000883b0020ad
:020000040000fa
:1046780030b5c5b000282ed00a0009320023ff2526
:1046880004e00133dbb21232984206d01478002cd1
:10469800f7d0002bf5d11d00f3e7ff2d10d0eb006c
:1046a8005a19520010328a185b195b00c918087b26
:1046b8000e4b009306230221fef7a0f845b030bd4b
:1046c80002230b4a137003aa1370002203a9094896
:1046d80002f056faf2e70223054a137003aa137090
:1046e800002203a9034802f04bfae7e7595f0000ec
:0846f8008b3c0020883b0020f0
:020000040000fa
:1047000070b504000d0001f05ffd002834d0002dcd
:1047100030d0200001f060fc0124002822d0437832
:104720000022002b1cd0174b5c6b002c1ed0a0422b
:104730001ed00023a2689b18a469002c01d0a042bf
:10474000f8d1a668f6180f4b5b689b69984702f092
:104750003dfb864212d3301a6168002288420fd98d
:104760002a60002402f030f9200070bd0023e8e741
:104770000023e6e70124f5e70124f5e7616800205e
:084780000a1aede77039002070
:020000040000fa
:1047880010b50b0006282cd88000174a12589746f7
:10479800164a12780a70012010bd154a118819703e
:1047a8001288120a5a700120f6e7124a1188197005
:1047b8001288120a5a700120eee70f4a1188197000
:1047c8001288120a5a700120e6e704220b491800e1
:1047d80002f0c0fc0120dfe7094a12780a700120c4
:1047e800dae70020d8e7c046946d0000863c002038
:1047f800923b0020923c0020803c0020ac3b0020f3
:044808005e3a0020f4
:020000040000fa
:10480c0010b51e4a137801210b43137053785bb219
:10481c00002bfbdb194901238b610233cb61022393
:10482c00ff33cb60164b00221a7210321a752020ff
:10483c001a540c301a540c301a540c301a540c30c4
:10484c001a540c301a540c3008241c540c301a54c2
:10485c000c301a540c301a540c301a540c301a54a4
:10486c000c301a540c301a540b78022213430b7070
:10487c000a0053785bb2002bfbdb10bd0018004024
:04488c00fc350020d7
:020000040000fa
:1048900010b51c4b9b78002b12d01a4b1b780222b0
:1048a00093430dd1184b1b68002b14d0154b0022dd
:1048b0009a701620fcf7a6fc02f050fa1628f8d1e0
:1048c000124b5b7a002b0ed10e4b1b78022b13d0b0
:1048d000052b14d010bd8c2001f0eefc0a4b1860a3
:1048e0000028edd0e2e70021084800f0d5fa0028c2
:1048f000ead001f087fae7e701f0c8faeae701f049
:104900009ff8e7e77c3a0020a43b0020103b002002
:020000040000fa
:1049100070b5162000f01efa0500c121162000f027
:1049200025fb002002f08efc0620fcf76bfc06281d
:10493000fad10023072280210f3002f0b9f80826af
:10494000002405226021062002f01cfca400a4b271
:104950000443a4b2012002f0a7fa013ef6b2002ef1
:10496000efd10320fcf74efc0f2000f0f3f9074bca
:1049700001221a61002002f05dfc200002f0befc62
:104980002900162000f0f2fa70bdc0460018004061
:020000040000fa
:1049900030b583b01a4b1b68002b24d01d686b46c2
:1049a000dc1d0121200000f011fc2178154bd9708d
:1049b0004bb2002b15db0331c9b26c1a8c342000ca
:1049c00000f004fc6c600e4c21680f4801f048ffb9
:1049d0008c2001f071fc206000280ad0002001f03a
:1049e00017ff03b030bd01216b46981d00f0eefbb0
:1049f000f7e70930fcf706fc024b01229a70ede75d
:0c4a0000a43b00207c3a0020103b00206a
:020000040000fa
:104a0c0010b51c48012202700223437000210024bf
:104a1c0044808480c48004810023438188235b0408
:104a2c00c36080239b040361c47504764176817650
:104a3c00c2760c23037703001f330022c2775a700f
:104a4c009a70da70030023331a705a709a70da7005
:104a5c00030027331a705a709a70da702b232032a5
:104a6c00c2540133153ac2542d30034902f070fb85
:0c4a7c0010bdc046b0390020a872000038
:020000040000fa
:104a880070b504000d00174b1e68174b18680430ea
:104a980001f0f7ff631c0dd03419134b1b685c60e1
:104aa800a64210d9114b18680f4b1968043101f050
:104ab800fefd70bd002defd00b4b196804310c487a
:104ac80002f0cffaf5e70b4b1868074b1968043169
:104ad80001f0edfd084b1b68a342ead9064b1c60a8
:104ae800e7e7c046643c0020303c0020383c00200a
:0c4af800e83a0020343c0020543c002030
:020000040000fa
:104b0400f8b504000e0002f043fc0500a26b002778
:104b1400e36b93420bd94523e35c5bb20132a2639e
:104b24005a1c09d001335bb24522a3540127280043
:104b340002f03cfc3800f8bda36c002b0ad0200026
:104b440000f0ccff01370028f1d0002e11d0012352
:104b54003360ece7636a0127002be8d0200024309f
:104b640000f00cf80028e2d0002e04d001233360ba
:0a4b7400dde70127dbe70127d9e7a1
:020000040000fa
:024b7e00fee750
:020000040000fa
:104b800070b5c368dc6825001835280001f07dff8a
:104b9000134b1b68002b1ed1251d280001f075ff4b
:104ba000e36a104a1268934201d90e4a13609800d2
:104bb000c01880000c4b1818290002f056fa0b4b55
:104bc0001b68e26adb6a00209a4203d9084b012283
:104bd0001a60013070bd2900064802f046faeee77f
:104be000443c00204c3c002028380020303c002071
:084bf000683c0020d43a0020cb
:020000040000fa
:104bf80070b504001600856b026c002a0cd10020e9
:104c08002368002b02d00135a56370bda06800f0b1
:104c1800f9fb0023a360f6e7002e0ed1406802f0ee
:104c280099fa6368226c9446634463603000a26812
:104c38009342e8d323686360e5e7c06802f08afa24
:104c4800236c5a42e3689b18e36021688b4203d2c5
:104c5800a3689c466244e2600020022ed3d1002d56
:064c6800d1d0013dcfe7b1
:020000040000fa
:024c6e00fee75f
:020000040000fa
:104c7000f8b50a21164802f00afb0321154802f094
:104c800006fb154d154c27005037114e25602100ad
:104c9000300001f0e5fd8c350834bc42f6d10f4cf4
:104ca0000f4d2565210050310a4e300001f0d8fd2e
:104cb0002b002c33a36521005831300001f0d0fdca
:104cc0005835256621006031300001f0c9fdf8bd7e
:104cd0001c3b0020283b0020402f00205c37002098
:044ce000b8340020c4
:020000040000fa
:104ce40070b5032805d0134b1b681a7e124b1a703b
:104cf40070bd114b1b78002bfad0013bdbb20e4a7e
:104d04001370002bf4d10d4b00221a700c4da42407
:104d1400285901f09ff9285901f07cf9094b082220
:104d24001a70094b093a1a80084b1b68002bdfd014
:104d34009847dde7c43b00205d3a0020833c002017
:104d44003c350020883c0020923b0020b83b0020ea
:020000040000fa
:104d540010b584b06b46dc1dd871002002f070fae7
:104d6400227880235b4213432370134a94238021c7
:104d74000906d15001f0fefd0028fbd101216b464c
:104d8400d81d02f09bfa01f0f5fd0028fbd10121aa
:104d94000e30684402f05cfa01f0ecfd0028fbd10f
:104da400054a982380210906d15002f041fa0e23c6
:0c4db4006b44187804b010bd00440041ae
:020000040000fa
:104dc00010b5002303220821032001f071fe012306
:104dd00000220721032001f06bfe02f0f5f8040029
:104de000c1b22d2000f0c2f8a3b21b0a0022072195
:104df0002e2001f05dfe01230622c0212e2001f0ad
:104e000057fe0123052220212e2001f051fe01230f
:104e1000072280210c2001f04bfe08210e2000f01b
:0c4e2000a5f8ff21162000f0a1f810bd3d
:020000040000fa
:104e2c0070b5041e09d0436c8b4200d20b00e26ab1
:104e3c009a4202d0a16c012900d070bde362a16935
:104e4c00002902db0521cb1aa36193009a1892006a
:104e5c000c4b9a1863699342efd1251d280001f081
:104e6c000efee36a084a1268934201d9064a13609f
:104e7c009800c0188000034b1818290002f0eff8b6
:0c4e8c00dbe7c046283800204c3c00202a
:020000040000fa
:104e9800f8b505000e00437a002b17d004680029e6
:104ea80026d0002c0cd0270000e01c007168206878
:104eb8003368984700280bd163682700002bf4d18a
:104ec800002413e06f600be06b600fe000240de03e
:104ed8002b68a3420ed063687b606b68a342f1d055
:104ee8006b7a013b6b722b68002bedd02000f8bd6c
:0a4ef800271efbd063682b60efe774
:020000040000fa
:024f0200fee7c8
:020000040000fa
:104f04002e65000020650000266500002e65000067
:104f14002e6500002e6500001c6500002e65000053
:104f24002e6500002e6500002e6500002e65000031
:104f34002e6500002e6500002e650000226500002d
:104f44002a65000020650000266500002e6500002b
:104f54002e6500002e6500001c6500002e65000013
:084f64002e650000226500002b
:020000040000fa
:104f6c0010b582b06b46dc1dd8719971002002f02f
:104f7c0063f9227840235b4213432370114a942334
:104f8c0080210906d15001f0f1fc0028fbd1012150
:104f9c006b46d81d02f08ef901f0e8fc0028fbd11d
:104fac0001216b46981d02f085f901f0dffc002809
:104fbc00fbd1044a982380210906d15002f034f920
:084fcc0002b010bd00440041d9
:020000040000fa
:104fd400f0b583b001900c001600144b5b7a002be3
:104fe40001d103b0f0bd00211048fff753ff071ea5
:104ff400f7d005680e4b1a88ff231a420cd1002df6
:105004000ed06b68002b03d0320021000198984722
:10501400380001f0a7fae4e72000fff761feeee7ad
:10502400044b1b78082bf3d1ebe7c046583b002018
:08503400923b0020883c0020a3
:020000040000fa
:10503c00f0b5c64600b5144b9846144f144e1d00df
:10504c0043461b68002b17d001f0a0fffb68dc68ff
:10505c00201d01f014fd3368013b33602b68013bcc
:10506c002b6002f04df8206b00f090fb200000f05c
:10507c008dfb2b68002be7d1064b1b68012bdfd96e
:10508c0001f078ffdce7c046403c0020fc3a0020f1
:08509c003c3c002028380020f4
:020000040000fa
:1050a400f8b507000b78322b00d0f8bd144b5b7aaf
:1050b400002bfad00024124e08e02900104801f019
:1050c400cdfb0134e4b2737aa342eed900210c483b
:1050d400fff7e0fe05000268002ae6d0397a137f64
:1050e4009942ead1f988138b9942e6d15368002b8f
:1050f40002d0507c00219847280001f033fae0e701
:04510400343b002018
:020000040000fa
:1051080070b504000d0001f043ff2268216ce36bc9
:105118004b43d018a0600020a06362605b1ad318cc
:10512800e360ff234422a3540132a354002d0fd17e
:105138002369002b03d101f0e5ff012070bd200099
:105148001030fff719fd0028f5d001f015fff2e740
:105158002000103001f07aff2000243001f076ffa3
:02516800e9e775
:020000040000fa
:02516a0070478c
:020000040000fa
:10516c0030b583b004000d00002002f065f8134a3e
:10517c00942380210906d1506b466022da7101f02c
:10518c00f5fb0028fbd101216b46d81d02f092f8eb
:10519c0001f0ecfb0028fbd12900200002f08af87a
:1051ac0001f0e4fb0028fbd1044a98238021090676
:1051bc00d15002f039f803b030bdc0460044004174
:020000040000fa
:1051cc0030b583b004000d00002002f035f8134a0e
:1051dc00942380210906d1506b462022da8001f0fd
:1051ec00c5fb0028fbd101216b46981d02f062f82b
:1051fc0001f0bcfb0028fbd12900200002f024f8b0
:10520c0001f0b4fb0028fbd1044a98238021090645
:10521c00d15002f009f803b030bdc0460044004143
:020000040000fa
:10522c0070b582b000290ad0104b05221a70104cb0
:10523c000800236898470023236002b070bd6b46ba
:10524c00d91d00260e700b4c0b4820610b4b1b68b4
:10525c005d7e6a01521b92005219d2006260a260fc
:10526c002673002300f066fa6061e6e7883c0020b4
:10527c00b03b00203c350020c16c0000c43b00203a
:020000040000fa
:10528c0010b543001b181b011800134a1488ff2289
:10529c0014420cd0104a1288120608d40f4a126815
:1052ac0054696001001b80000019c0001818ff230e
:1052bc000b420ad00b0608d4084b1b6859694b01ea
:1052cc005b1a9b005b18db00c018fa218900fff702
:1052dc00bbf80130c0b210bd923b0020c43b002093
:020000040000fa
:1052ec00f8b50024144d154e03e037610134102c31
:1052fc0020d063001b199b00eb181b7adbb2e1b2c8
:10530c008b42f3d133690127a7401f42eed06300d3
:10531c001b199b0008495b58002be6d00800630062
:10532c0019198900411849681b199b001b58080062
:10533c009847dae7f8bdc046fc350020001800405d
:020000040000fa
:10534c0010b5164b5a6b002a24d0824205d18369c2
:10535c00002b17d0002208e01a009369002b1bd0f9
:10536c009842f9d18369002b05d084689968091992
:10537c009960002a08d0836993610023002282611e
:10538c00180010bd1a00f4e7044b5a6b92695a636b
:10539c000123f3e70023f3e70023f1e77039002042
:020000040000fa
:1053ac0070b5040000f00aff002825d0200000f0a2
:1053bc000dfe041e1ed043780025002b12d18368ed
:1053cc00002b01d1436883600c4a3023d35c002b43
:1053dc000cd1200000f082f9002323756375013392
:1053ec006370002501f0eafa280070bd2000fdf77b
:1053fc00cffdf1e70125f5e70125f5e77039002030
:020000040000fa
:10540c0070b5041e23d0836c013b8364c26a416c6b
:10541c008a421ed00020002b00d070bd251d280014
:10542c0001f02dfb606ce06205231b1aa3610a4b93
:10543c001b68984201d9084b18608300181880002b
:10544c00064b1818290001f00afe0120e5e70020a0
:10545c00e3e70020e1e7c0464c3c00202838002060
:020000040000fa
:10546c0000b5c3b0104b1b78022293430c2b0fd00a
:10547c000d4b0c221a706b460022da7000230b4a7b
:10548c00694603310a4800f055f90a4b186009e0e7
:10549c00043b054a137001aa1370002201a90648a7
:1054ac0001f06cfb43b000bd8b3c002010270000ca
:0c54bc006d540000cc3b0020883b002019
:020000040000fa
:1054c80030b5c3b0104da424285900f0c1fd2859a7
:1054d80000f09efd0d4c206800f0bafd206800f039
:1054e80097fd0b4c206800f0b3fd206800f090fd9c
:1054f8000223084a137001aa1370002201a9064862
:1055080001f03efb43b030bd3c350020cc3b0020d1
:0c551800d03b00208b3c0020883b002092
:020000040000fa
:1055240010b5ff281ed0187058780324a043012416
:1055340020430824a043043ca0431c34a04320344b
:10554400a043303ca0436f34204058700848008882
:1055540058809a80d98007490a780132d2b20a70f9
:105564001a7210bd04480068c07b0130c0b2dae78b
:0c557400803c0020893c0020c43b00204b
:020000040000fa
:1055800000230e4a10b513600d4a13600d4a1360d4
:105590000d4a13600d4a13600d4a536213610133c3
:1055a000936000f0c4fa00f0c2fa0a4c0a4b9c4225
:1055b00000d310bd08cc9847f8e7c046743c0020e3
:1055c000e8380020e4380020dc380020e0380020f3
:0c55d000ec380020b8000000bc00000017
:020000040000fa
:1055dc0070b504001d00002906d001291bd0002342
:1055ec000360012040421fe00020012b1cd8032245
:1055fc000021013000f068ff2060002810d0012d40
:10560c000ed1002300220021fcf784fd0138434217
:10561c00584140b208e01900100001f085fd2060ef
:0a562c002068431e984140b270bd93
:020000040000fa
:025636007047bb
:020000040000fa
:1056380010b5134b1b78002b1fd100280dd0114b30
:105648001b68002b11d01620fbf7d8fd1f2401f092
:1056580081fb20401628fad110e00830fbf7cefd78
:10566800074b00229a70082008e0054b01229a7027
:10567800002001f0c9f8162000e0122010bdc04635
:085688007c3a0020a43b002045
:020000040000fa
:10569000bff35f8f62b6114bc12189005a58ff20ba
:1056a0008243bf3802435a5010221a60c320800040
:1056b0001a580b491140802212020a431a508022c4
:1056c00092011a6004301a5806491140c02212048f
:1056d0000a431a508022d2021a60704700e100e0ab
:0856e000ff00ffffffff00ffc8
:020000040000fa
:1056e800f0b583b00190134c63689b69984760617b
:1056f800606901f067fb050000f04afe01f026fe34
:10570800a66ae76a00232a0092197b41a262e36233
:1057180001f020fe0198fdf73dfc002801d103b0ff
:10572800f0bd01f013fe0400fdf774ff200001f046
:0857380011fef4e770390020b6
:020000040000fa
:1057400070b582b005000e001c1e01d100281ed0cd
:10575000002a04d101246442200002b070bd0d4b28
:10576000d8680023002100f0d5fbfa229200002324
