:020000040000fa
:10000000f87f002061570000476d0000cb6d0000b5
:1000100000000000000000000000000000000000e0
:10002000000000000000000000000000736e0000ef
:10003000000000000000000091590000516600001f
:10004000476b0000476b0000476b0000854d0000c8
:10005000476b0000476b0000476b0000476b0000d8
:10006000476b0000476b0000476b0000476b0000c8
:10007000611f0000476b0000476b0000476b0000ea
:10008000476b00008d5e0000476b00000000000021
:1000900000000000476b0000476b0000476b00004a
:0800a00000000000476b0000a6
:020000040000fa
:1000a800f8b5c046f8bc08bc9e46704769560000c3
:1000b800f8b5c046f8bc08bc9e46704741560000db
:020000040000fa
:0800c8003031000001000000ce
:020000040000fa
:1000d000f0b58db0cb4b5b7a002b03d0ca4b1b78ad
:1000e000002b05d1c94b5b7a002b61d10db0f0bd5f
:1000f0000021c44804f07efc05000468002cf1d007
:10010000237b627b12021a43a37b1b041a43e37b0b
:100110001b061343be4a1360be4a137801331370a3
:10012000237c627c12021a43a37c1b041a43e37ce7
:100130001b0613432422a25c2521615c09021143a2
:100140002622a25c120411432722a25c12060a4353
:100150000392b14a02922122a25c01922022a25c67
:100160000092207d627d12020243a07d00040243c2
:10017000e07d00061043217e627e12020a43a17eca
:1001800009040a43e17e09061143227f667f360295
:100190001643a27f12041643e27f1206324300f098
:1001a000bbfd994b00221a70280005f0d7fe99e795
:1001b00000f032ff002899d0984b19784a07cc08f4
:1001c00001200440e400d20f03230b40013b5d42b9
:1001d0006b4103405b012243cc0920408001134363
:1001e00003438f4a137049b2002919db8b4a148ae2
:1001f0008b4b5c80117b197391689960907b98732d
:10020000527b5a731b789b0600d485e10b787f33b1
:10021000dab2162a00d983e19300824ad3589f4666
:100220007e4b5a687e4b5a60e0e78c2005f08afdd1
:10023000041e00d174e17c4b1b78012b00d96fe1c7
:10024000774b9b685978794a1278914200d067e1e0
:10025000734a528876498a4208d076490988914281
:1002600004d06f4a127b022a00d961e1987803f02a
:10027000a3f802006c4b1b78012b2dd02368002bb8
:1002800000d14de1912119705a700220012a08d83d
:10029000694a12789a70694a1268d2681278da70dc
:1002a00002305f4d6a6869880694654e059601269e
:1002b000049600260396029301902b781b07db0f10
:1002c00000930123002001f095ff002800d027e1d2
:1002d000200005f043fe23e10138c0b20128cdd94a
:1002e0002368002b00d11be191221a7062325a70f0
:1002f0000220d6e7534b1b78042b00d010e14b783b
:10030000012b00d90ce14b4b1a88494b9a420ad079
:10031000434b9b685b78012b14d0002b1ed14a4bba
:1003200000225a7011e0262002ab9c466044012353
:100330005b4203803f4d2c8005f0b4fe280005f0a1
:100340009bfee5e7404b06225a703f4b0022da70d5
:10035000334b9b68987803f02ff8e1e03a4b012289
:100360005a70f2e78c2005f0edfc041e00d1d7e0b6
:100370002d4b1b78022b00d9d2e0294b9b685a7871
:100380002a4b1b789a4200d0cae00368002b00d1a8
:10039000c6e097221a70284a12785a70274a1268c3
:1003a000d26812789a701e48426841880694274d98
:1003b00005950125049500250395029303230193d8
:1003c00003781b07db0f00930123002001f012ffcd
:1003d000002800d0a4e0200005f0c0fda0e0194beb
:1003e0001b78092b00d09be0194c00256570154b3c
:1003f00007221a700d4b18780021e3689847e560d2
:100400008ee0c046303a0020ae3b0020243a002067
:10041000983a00205e3b0020e96200005839002035
:10042000f0390020044f0000aa3b0020ad3b002023
:10043000ffff0000543b0020ab3b0020a43a00200b
:100440002f390000613b0020d0390020db32000052
:10045000e0390020022005f075fc061e60d005681a
:10046000002d5dd092232b70354b5b680993354b83
:100470001b685f68002404e00134e4b20a37052ced
:1004800029d008973b7a7f2bf6d93900099805f0d7
:10049000dfff0028f0d00023089a13726b70052c40
:1004a0001ed00224264b5a68598806962648059085
:1004b0000120049000200390029501941b781b07f3
:1004c000db0f0093012301f095fe002828d13000b6
:1004d00005f044fd24e001235c1cf022ea54e1e72e
:1004e0000223f9e74b78002b1ad1154b5e68154ba8
:1004f0001b685c682700323702e00a34bc420fd028
:10050000237a7f2bf9d92100300005f0a1ff0028c4
:10051000f3d00023237203e00c4b1b78072b02d08f
:1005200003f073fbe2e50a4b1b6805489847f7e7c1
:10053000084b1b78012b00d1d2e6f2229ee6c04682
:10054000f0390020a43a0020db320000613b00209b
:08055000903a0020aa3b0020b4
:020000040000fa
:10055800103900201c000000000000004e3b002065
:100568000200000000000000683700205000000072
:1005780000000000523b00200200000000000000c4
:10058800563b002001000000000000004c3800200d
:1005980004000000000000002c39002018000000b2
:1005a80000000000843a0020040000000000000061
:1005b800003a00200c00000000000000f038002085
:1005c8001d00000000000000883a00200400000020
:1005d80000000000573b0020010000000000000060
:1005e8000d39002001000000000000008c3a0020b6
:1005f80004000000000000000e3900200100000087
:10060800000000009c360020680000000000000088
:10061800402f0020fc050000000000000c3a0020dc
:1006280018000000000000000f3900200100000041
:1006380000000000493b002003000000000000000b
:10064800593b002003000000000000005c3b002034
:100658000200000000000000583b002001000000dc
:10066800000000005e3b00200200000000000000c7
:10067800c23800200200000000000000823a00207a
:100688000200000000000000243a002018000000ca
:1006980000000000d0390020100000000000000019
:1006a8003c3a00201800000000000000543b0020e5
:1006b8000200000000000000603b00200200000073
:1006c80000000000903a0020080000000000000030
:1006d800e03900202000000000000000983a0020c7
:1006e8000400000000000000aa3b002002000000f7
:1006f8000100000003010000ad3b002001000000e4
:1007080001000000ff0000009c3b002008000000e2
:1007180001000000ab11223344556622ae3b002095
:10072800010000000100000001000000623b002001
:1007380002000000000000004439002014000000fe
:10074800000000009c3a00200c000000000000009f
:10075800643b00200100000000000000543a002023
:1007680008000000000000005839002014000000b4
:1007780000000000503b00200200000000000000c4
:10078800a83a002004000000000000004c3b0020b4
:1007980002000000000000007c3a00200600000073
:1007a80000000000ac3a0020180000000000000023
:1007b800903800203200000000000000483b002074
:1007c8000100000000000000653b0020010000005f
:1007d80000000000ac3b0020010000000100000008
:1007e80001000000883b0020140000000100000008
:1007f800000000009038002000000000ac3b002002
:1008080000000000af3b00200100000001000000d4
:10081800080000003c350020c00000000000000077
:10082800663b00200100000000000000c4380020e2
:100838002c000000000000005c3a002008000000c6
:1008480000000000503800204000000000000000b8
:10085800fc350020a000000000000000a83b00209c
:10086800020000000100000001000000c43a00205e
:1008780014000000000000000838002044000000b8
:1008880000000000d83a00200c0000000000000022
:10089800a43b00200400000001000000aaaaaaaaa4
:1008a800e43a0020040000000000000000000020de
:1008b800402f000000000000e83a0020140000006b
:1008c80000000000643a002008000000000000005a
:1008d800fc3a00200c000000000000000437002053
:1008e8006400000000000000083b00201400000025
:1008f800000000006c390020280000000000000003
:100908001c3b00201000000000000000943900206b
:1009180014000000000000002c3b00200400000030
:1009280000000000a8390020280000000000000096
:10093800303b002008000000000000006c3a002056
:100948000800000000000000673b002001000000d4
:1009580000000000383b00200400000000000000f8
:10096800b837002050000000000000003c3b002089
:100978000400000000000000683b00202000000088
:10098800010000000100000003000000000000005a
:10099800000000000000000000000000000000004f
:1009a800743a0020743a002008000000000000009b
:1009b800403b00200800000000000000000000008c
:1009c8000000000066666666666666666666666657
:020000040000fa
:1009d8000023f0b506001500b1b0079103930799fd
:1009e8000b78002b00d10de101235b420c9310ab77
:1009f80000240e9380230b940d940f930b5d002b12
:100a080001d0252b2ad1002c06d02200300005f079
:100a1800e9f9079b1b190793079b1a78252a00d029
:100a2800e5e0013304930793022301219c46102734
:100a3800079803782b2b1ad025d8202b1ad0232bd4
:100a48001dd02a2b28d005f083f80d90079b1a7823
:100a5800303a092a31d801330793f7e70134cde753
:100a68000b9b05930b4301300b930790e0e704239e
:100a78000b9a0fe00b9b0593059a08230ae00b9b42
:100a880005933b43efe72d2bead0302bd9d16246b3
:100a98000b9b05931343e6e72b6801301a1d1b686f
:100aa80007902a600d93002b07da0b9a5b42059298
:100ab800012205990d934a400b920b9bda0702d548
:100ac800022293430b93079b1a782e2a0ed10022f9
:100ad800581c0c9207905a782a2a28d10233079377
:100ae8002b681a1d1b682a6005930c9307a805f04c
:100af800fdf9079b0700187806f013f9692800d15b
:100b080083e035dc632800d1dde01bdc252800d13b
:100b1800eae0612859d0049b01220793002352423e
:100b28000c920b930d93784900930232e7e005f09d
:100b38000ff80c90079b1a78303a092ad6d8013357
:100b48000793f7e7642860d06728e4dc2a003900b7
:100b580008a805f010fb002800d1b0e0079b0ba9fe
:100b68005a1c07921b7808aa300006f07cf93de071
:100b7800702800d17de016dc6e2800d198e06f283f
:100b8800c9d12b000022390008a802f06dfe002808
:100b980000d194e0079b08aa01330ba93000079302
:100ba80006f05ff922e0752840d078284fd07328e6
:100bb800b1d1802f00d082e0079b2a6801330793c8
:100bc800131d2b601268002389e02a00390008a849
:100bd80005f0d1fa002800d171e0079b0ba95a1c37
:100be80007921b7808aa300006f03df92418039be9
:100bf8001c19a34200dc84e04f22444b1a600123f5
:100c08005b420393039831b0f0bd2b0001223900f9
:100c180008a802f029fe002851d0079b08aa013332
:100c28000ba93000079302f093ffdfe72b000022a7
:100c3800390008a802f018fe002840d0079b08aa2f
:100c480001330ba93000079306f00bf9cee72b0010
:100c58000022390008a802f007fe00282fd0079bc1
:100c68005a1c07921b7808aa0ba9300001f093fcc4
:100c7800bce72b000022f02108a802f0f5fd0028af
:100c88001dd0079b099a01330793089b13430dd185
:100c98001d4f1637380005f0dffe390002000b9ba8
:100ca80000930d9b300003f00cfd9fe77823dae7f3
:100cb800039b39001a1908a82b0003f069ff079b4a
:100cc8000133079393e7802ff9d1079b01330793eb
:100cd8002b681a1d1b682a6008aa137001230ba928
:100ce800300004f09bfb81e7802fe8d10122079bad
:100cf8000549013307930b9b049300930d9b1c310b
:100d0800d0e703946be6c0469c670000443b002094
:020000040000fa
:100d1800f0b5de4657464e464546e0b589b0051c57
:100d280005900e0006911100090a0792029312ab72
:100d38001c78ad06ed0f0396d7b2cbb201938c2089
:100d480004f0fcff8046002800d14ce10068002830
:100d580000d14ae10c23994681444b46436005abd8
:100d68001b789c465b0700d50127032263461a407f
:100d7800012a3ed051425141c9b29d4b1b8805ae54
:100d880076899e4237d000239b4607339a465346be
:100d98000833002f00d0063b019e002e3ad00233c4
:100da800dbb204932426b246664653461e40202ee4
:100db80034d0032a34d0a21c049b9b18037301224d
:100dc800531c9c464b46995405ab6d011978202657
:100dd800b1430d431d70eb439b0729d0002f79d0f9
:100de800019b002b70d002328823416866468b55e0
:100df8007ee00321c1e77f4eb34206d0402319436a
:100e080001239b4604339a46c1e700239b460733d8
:100e18009a46bce70833dbb20493c3e73143c8e71b
:100e280001230193002500239b4600210022c7e7e8
:100e38008023416865464b556f490b785d1c0d70e2
:100e4800d51c023241688b545b46002b0ad16a1cc0
:100e5800d2b267490b78466873550235edb24b78c4
:100e680041688b54019b002b00d190e0634a1378b2
:100e780041684b55ab1cdbb20135edb25278416885
:100e88004a55002c0ad0029a1c19e4b2591c15784c
:100e98004668f5540132cbb29c42f7d1584b149aac
:100ea8001a60434603600122022104f0bdfc0028b9
:100eb80000d080e00130159b002b00d18ce0180099
:100ec80005f048f8012087e00232c82341686646e9
:100ed8008b550de0019b002b05d002328c23416815
:100ee80066468b5504e00232cc23416866468b5532
:100ef80041490b785e1c0e7041688b54511cc9b275
:100f080005ab04939e7ab446466863467354d11c75
:100f1800c9b28946931cdbb29c46049bdb7a4668bf
:100f2800614673546b070ad5ff27436849465f54e7
:100f3800551dedb20432d2b243689f5484e7002fa6
:100f48000cd003990b7845684e46ab55551dedb24c
:100f58004b780432d2b241688b5475e7039b150075
:100f68000b35e9b28c46019e494665469446a14632
:100f78002a004d1c1f78446867540133e9b2914236
:100f8800f7d1624601964c460b32d5b25ce71d4b51
:100f98005e68370008373200ae1ba4461178b318d4
:100fa800dbb24468e1540132ba42f7d164462b00ff
:100fb8000833dbb265e7144b01221a70134a137821
:100fc800013b1370159b002b02d0180004f0c2ffe0
:100fd800404604f0bfff002009b03cbc904699464b
:100fe800a246ab46f0bd0020f6e70020f4e7c04675
:100ff800503b0020ffff0000643b00204c3b0020da
:10100800a83a0020543a0020ae3b00205e3b002066
:020000040000fa
:10101800f8b50021ab4803f0e9fc002800d14de108
:101028000268002a00d14be1536819785e784024a1
:101038002640a54b00241c70dc73013c1c825468bc
:10104800a3783325ab43882b00d197e00ad9c82b66
:101058003ad0cc2b6bd08c2b00d1c7e004f07affb0
:1010680000201ce1082b00d1ece0802bf6d1964b38
:101078001c7804252543802464422c431c700124d9
:10108800dc73546824791c74546864795c745468fb
:1010980006345c600c00093c1c73546808349c607e
:1010a80053685c78230700d5e0e007232340012b31
:1010b80000d1dfe0002b00d1fae0032b00d1efe0f4
:1010c80004f048ff0020eae0a379ff2b16d07e4dfc
:1010d8002f7880235b423b432b70002e17d0247956
:1010e8002c74546864796c74546808346c600c000f
:1010f800113c2c7354681034ac60d1e7e379ff2bb2
:10110800e5d1714d2b7804273b432b70dfe7247a18
:101118006d4b1c745468647a5c7454680a345c605f
:101128000c00133c1c73546812349c60b8e7664d7d
:101138002f7880235b423b432b70002e0ed02479fe
:101148002c74546864796c7454680e346c600c00a8
:10115800173c2c7354681634ac60a1e7a47b5a4b37
:101168001c745468e47b5c74546810345c600c0034
:10117800193c1c73546818349c6091e7a379ff2bc1
:101188001ad0514b1d78802464422c431c700124d2
:10119800dc73002e19d153681c7a4b4b1c745468ad
:1011a800647a5c7454680a345c600c000d3c1c73ef
:1011b80054680c349c6073e7e379ff2be1d1424c0f
:1011c800237804252b432370dbe753681c793e4bb7
:1011d8001c74546864795c74546808345c600c004e
:1011e8000b3c1c7354680a349c6059e7364b1d78d5
:1011f800802464422c431c700124dc73002e10d020
:1012080053681c79304b1c74546864795c74546856
:101218000d345c600c00113c1c73546810349c60e5
:101228003ee753685c7b284b1c745468a47b5c7451
:1012380054680f345c600c00133c1c7354681234ff
:101248009c602de7a379ff2b07d01f4c0b00083bb0
:10125800237353680833a36022e7e379ff2bf4d1a3
:10126800194c237804252b432370eee704f072fe13
:10127800002014e0144c23780325ab43237002317b
:10128800c9b253685b18023b1b780f4ca3735368b1
:10129800591801390b78637304f05cfe0120f8bd1e
:1012a800094c23780325ab4301252b432370e6e73c
:1012b800054c237803252b432370e0e70020eee755
:0c12c8000020ece7243a002058390020f8
:020000040000fa
:1012d40070b50d009b4b1c78042c00d120e14e28e6
:1012e40007d059280ad10a78974b1a77002420008e
:1012f40070bd0a78944b1a750024f8e7914b5b781b
:101304000f2b00d10ee10b2800d1ffe018d9532890
:1013140000d1aee078d84f2800d199e08924502834
:10132400e5d1894c0b880978a1731b0ae373222049
:1013340003f094fbe17b232003f090fb0024d6e729
:10134400022800d1cae01fd9032800d1d4e0042820
:1013540058d1002c00d0ebe0082b00d1ece00820a1
:1013640000f0f6f80828fad12e78300000f006fada
:101374000500162000f0ecf8002d00d1dae0724be5
:101384001e7602f041fcb2e7002839d1002c00d0cf
:10139400cae06d4b1b7e052b7ad00a786b4bd34089
:1013a400db0700d4c2e0684bde7c2a78da7402f0f2
:1013b4002bfc644b5d78082d05d0082000f0c8f89c
:1013c4000828fad11625604b187e052867d05e4b95
:1013d400db7c002b01d0002e6bd100f0cff904f0a0
:1013e40051f9594bd87d04f06bf80100052003f046
:1013f40035fb082d00d17ae7162000f0a9f876e72e
:10140400892474e7892472e7572858d08924f0285e
:1014140000d06ce70a684b684b4d2a70110a69705a
:10142400110ca970120eea702b711a0a6a711a0251
:10143400120eaa711b0eeb7124242978200003f0ec
:101444000dfb01350134e4b22c2cf6d100244ee717
:101454000b783d4a5375d27e934201d93a4b5a7563
:10146400394b5b7d00220f212f2005f03bf800242f
:101474003de7354c0b88097821731b0a63732020e0
:1014840003f0ecfa617b212003f0e8fa00242ee754
:101494000a780a33d340db0785d4882427e7db7c2a
:1014a4005b000b33dbb20022ff210e3005f01af88b
:1014b4009fe700221f21082005f014f899e70b7814
:1014c400214ad376527d9a4201d91f4a5375042288
:1014d400f0212f2005f006f8002408e70b781a4cb9
:1014e400e37504f0cff8e07d03f0eaff0100052086
:1014f40003f0b4fa0024fae60b78134a9374052235
:101504006021082004f0eeff0024f0e60b780e4a78
:101514009375032208212e2004f0e4ff0024e6e65c
:101524008624e4e68124e2e68624e0e68824dee6f6
:101534008624dce68824dae60e78300000f01ef912
:10154400050019e72c390020f0380020ff070000bf
:020000040000fa
:1015540070b50400854b5b780f2b07d00338c2b2fb
:10156400162a6dd89000824a125897460f287cd0cc
:101574007e4d00232b7104f0c7ff08236b70082ce9
:1015840000d1eee0032c00d1ede0201fc3b2152bf7
:1015940056d89800774b1b589f460321022003f02e
:1015a4005dfa05f04ffa0400c1b22d2003f056fa9b
:1015b400a3b21b0a002207212e2004f093ff0f2060
:1015c40003f0aaf910210e2003f048fa012004f0d8
:1015d400adff694b802252039a61232004f0a6ffd9
:1015e400624b0f225a700f203fe0604b5b78082b50
:1015f40026d00821022003f031fa012004f096ffde
:101604001ee0082b1cd00321022003f027fa01203e
:1016140004f08cff14e0554b5b78082b26d00dd9d1
:10162400162b01d0192b0bd10821022003f016fa36
:10163400012004f07bff04f0cdfa01e0062bf3d087
:10164400012003f069f91f231840484b58706324a4
:101654001d001f2809d1012003f05ef91f23184043
:101664006870013ce4b2002cf3d170bd04f0b2fa0e
:10167400e6e73e4b5b78082b06d0092be0d004212b
:10168400022003f0ebf9dbe704f0a4fad8e7374bc8
:101694005b78092b0ed009d8082bd1d10621022062
:1016a40003f0dcf9012004f041ffc9e7162b01d057
:1016b400192bc5d10821022003f0d0f9012004f030
:1016c40035ff0621022003f0c9f9012004f02effa2
:1016d400b6e7264b5b78082b16d004d9092b04d027
:1016e400192badd101e0062baad10821022003f069
:1016f400b5f9012004f01aff1621022003f0aef917
:10170400012004f013ff9be71621022003f0a6f941
:10171400012004f00bff93e7144b5b78082b18d0df
:1017240005d9092b06d0162b00d089e702e0062b39
:1017340000d085e70821022003f090f9012004f08d
:10174400f5fe1921022003f089f9012004f0eefed0
:1017540076e71921022003f081f9012004f0e6fe66
:101764006ee7200081e708207fe7c0462c3900207f
:0c177400a43a0000003b000000280040e8
:020000040000fa
:1017800010b5734b1b7e002b00d1cae0704b0a22b0
:101790001a74093a5a7408230132c9e00322082155
:1017a0000c3004f0a1fe032300220321162004f0d4
:1017b0009bfe0023042210210c2004f095fe644bb4
:1017c000db7c002b20d1022204210c2004f08cfeb3
:1017d000002302220421172004f086fe5c4c012322
:1017e0005b422372083363720023a372e372002208
:1017f0000721142004f078fee37c00221f2108203a
:1018000004f072fe0123a0e00123022204210c2037
:1018100004f06afedce70123032208210c2004f017
:1018200063fe022300220321162004f05dfe002344
:10183000002203210c2004f057fe00230422102173
:101840000c2004f051fe424bdb7c002b20d1022205
:1018500004210c2004f048fe00230222042117205a
:1018600004f042fe3a4c01235b4223720833637258
:101870000023a372e37200220721142004f034fe37
:10188000e37c00221f21082004f02efe01235ce0ef
:101890000123022204210c2004f026fedce70123b0
:1018a000032208210c2004f01ffe02230022032142
:1018b000162004f019fe0023002203210c2004f05e
:1018c00013fe0123042210210c2004f00dfe01233d
:1018d000022204210c2004f007fe0023022204212e
:1018e000172004f001fe1a4b0f221a7200225a72be
:1018f0009a72da72db7c032b01d9154bda7404235c
:1019000000220721142004f0effd114bdb7c5b006b
:101910000b33dbb20022ff21132004f0e5fd01238d
:1019200013e00b4b28221a74243a5a7420230432f1
:101930000749d3184b768a76022800d16be7052831
:10194000add00023002800d128e7180010bdc04604
:04195000f03800204b
:020000040000fa
:10195400f0b5c64600b584b001900f00029396001e
:10196400300000f047ff051e00d1bae0542000f01b
:1019740041ff041e58d005633200a521280005f05c
:1019840059f9236b9846002f54d03b783422a35442
:10199400002b09d0012321003431fa5cca54002af7
:1019a40002d00133102bf8d143230022e2540a9dc4
:1019b400042d00d90425e56265640027a764231d6e
:1019c4000393180005f046fa2000183005f042fa97
:1019d400246105235b1ba3616462e7645023e7541d
:1019e400301f4044493b9843029a019904f0b4fee5
:1019f40020600b9b002b00d01c6005f00bf83c4ac8
:101a04001368013313603b4b1b68002b16d03a4b11
:101a14001b68002b17d1374b1b68db6ae26a9342c1
:101a240011d8344b1c600ee0280003f0d1fb0120d8
:101a3400404258e034230022e254b8e72d4b1c60a6
:101a44001368012b23d02d4a136801331360e36a12
:101a54002b4a1268934201d9294a13609800c0188e
:101a64008000284b1818039905f055f805f0a6f8de
:101a7400214b1b680120002b35d01e4b1b68da6af2
:101a8400e36a9a422fd204f0b9ff01202be01d4de6
:101a9400280005f035f82800143005f031f8280046
:101aa400283005f02df828003c3005f029f82800ee
:101ab400503005f025f8144e300005f021f8134d90
:101ac400280005f01df8124805f01af8114805f031
:101ad40017f8114805f014f8104b1e60104b1d60e8
:101ae400b1e70120404204b004bc9046f0bdc046ba
:101af400083b0020fc3a00202c3b0020143b002033
:101b0400183b0020043700206c3900208039002065
:101b140094390020bc390020a8390020003b002063
:041b2400043b00205e
:020000040000fa
:101b280070b50500594c207fc0b2002800d0a7e04e
:101b380000294ad0002d48d0554c66680724344007
:101b4800012c5ed0514805604260002444618461e4
:101b580004614e488160002a58d04c4ad3604b4af1
:101b6800012111774a4a127e520705d5484a0420b6
:101b7800916a117e0142fbd1454a518b04200143f1
:101b88005183117e80200143117640498a68c968d3
:101b9800914203d93d48c168891a01613c494968a5
:101ba800490743d139498969914233d2374a116883
:101bb800087837498862916901319161002b5ad0c0
:101bc800334b04229a7501205be0002b59d0002a80
:101bd80057d02f4c666807243440012c0cd02b4872
:101be800056042600024446184610461002db0d125
:101bf800264900208860aee7002943d1dc07eed5ee
:101c08003fe0cc073dd4002be9d0f7e71f4a00217d
:101c1800d160a4e71d4a1269002acfd01c4aff21cf
:101c280091621a490a69013a0a61c7e7174a916835
:101c380049089160116949081161d1684908d16062
:101c4800916892698a420ad210490a681288d205b4
:101c5800d20d0f4882628a6901328a61aee70b4a67
:101c68001269002aaad00a4a0a49916207490a69f0
:101c7800013a0a61a2e7064b01229a75012000e0a9
:101c8800002070bdcc07b9d5fbe7c046c43800209a
:081c980000100042ff010000f2
:020000040000fa
:101ca000f0b583b003f080fd002800d091e0d23081
:101cb000400004f03dfc4c4c982580231b066351ea
:101cc000802636029423e65080235b0363610a205a
:101cd00004f02efc66511e2004f02afc00221f2175
:101ce000012004f0b3ff6b46d871da79d2b2da7111
:101cf0000a24642004f01cfc1c2002f00ffe0728bc
:101d000005d0013ce4b2002cf3d1852762e0082124
:101d1000053802f0a5fe00221f21012004f096ffe5
:101d20000828f2d10021063002f09afe2f4b08223b
:101d30005a702f4804f050fd00284ed1012001f0c8
:101d400083f8071e4dd12b4d08e02a4c260008369b
:101d500004f07afe20700134b442f9d12878697811
:101d600009020843a97809040143e87800060843fa
:101d700002002879697909020843a9790904014315
:101d8000e87900060843030001204042c1171218f9
:101d90004b41591c01d1d31cd7d800221649002031
:101da00004f006fb002004f091ff02f07dfd8c2082
:101db00003f0c8ff114b1860002810d0ff21104815
:101dc00003f0e0fd04f0c8fd084b822252041a61c2
:101dd00000e08527380003b0f0bd8527fae78527a6
:101de000f8e78527f6e7c046002800402c39002098
:101df0000e390020f03800209d6d0000883a002048
:041e0000003a002084
:020000040000fa
:101e0400f0b5de4657464e46c0b58ab00891150077
:101e1400099312ab1b78994613ab1b789a4614ab03
:101e24001f78494b1b780024072b00d07fe04c2af5
:101e340000d97be0022807d14a7812020b789b185c
:101e44009bb2424a934238d08c2003f079ff8346f8
:101e5400002800d176e006680024002e67d0159b88
:101e64007360300008300822089904f0d9fe4b460c
:101e7400337575753474534673746623f754163684
:101e84002a000999300004f0cbfe314b19880694de
:101e9400304b0593534604934b46039302960195a6
:101ea40000970023089a002000f0a2f9041e38d0fd
:101eb4005946294804f0eef939e08a3003f040ff2e
:101ec400061e3bd0006800283ad0159b43604b4661
:101ed4000375457504746623c754503b9a4682447f
:101ee4002a000999504604f09bfe194b1988069460
:101ef400184b059304944b46039353460293019560
:101f040000970023089a012000f072f9041e04d0ff
:101f14003100114804f0bef909e0300004f01cf867
:101f240005e0584604f018f8012400e000242000dd
:101f34000ab01cbc91469a46a346f0bd0024f6e7bd
:101f44000024f4e70024f2e7613b0020ffff0000d7
:0c1f5400543b0020195a0000483a0020bd
:020000040000fa
:101f600070b5504b586a504b9b7d002b54d04e4956
:101f70004c68072214404b4b5a699d699e680b7e42
:101f80005b0757d5896a474bdb68934252d9002ccf
:101f900043d1444b5b6899540132434b1b7edb07b2
:101fa00016d5414b012119753e4b9b68ab4256d962
:101fb0003c4b1b68595d3c4b99620135394b1b69a1
:101fc000002b01d1b54262d0364bdb68934262d020
:101fd000344b5a619d61344b1b7e9b0715d5334ba7
:101fe0001b78002b18d02f4bdb68934211d12d4b5f
:101ff00000221a772c4907240c752c490a701b6a99
:10200000002b09d0274b1b6a9847284b1b78002bc5
:1020100002d0254b02229a7570bd224b5b6854009a
:10202000e1520132204b1b7edb07d1d51e4b012133
:10203000197508e01c4b1b7edb07c9d51a4b012123
:102040001975002cb0d0174b9b68ab4213d9154bb8
:102050001b686900c95a144b99620135aee7114bf0
:102060001b69002baad0104bff2199620d490b6907
:10207000013b0b61a2e70b4b1b69002b9ed00a4b67
:102080000b49996207490b69013b0b6196e7074bc6
:10209000012119709ce7044b0121997503311975d1
:1020a00096e7c046c438002000100042663b00207e
:0420b000ffff00002e
:020000040000fa
:1020b40070b50400002928d0454b1b7f0422f02171
:1020c4002c2004f00ffa012c5ad9414b1b7d01221c
:1020d4000e212c2004f006fa1920fff739fa1928ea
:1020e400fad13c4b1868017802f0bafd3a4b012250
:1020f4001a703a4c80256d03a561012004f016fa8c
:102104006561002004f0e0fd70bd00230422f0218d
:102114002c2004f0e7f9012cd7d8072301220e2143
:102124002c2004f0dff938e0294bd87c4342584195
:102134004042f0239b001840294b9c46604441e0f8
:10214400002bc9d0224b1b7e002b0fd1204bd87cf7
:1021540043425841404296235b0018400430ff300c
:1021640004f020f81c4b0022da70b5e7184bd87c39
:1021740043425841404290235b0018409730efe7b8
:10218400072301220e212c2004f0acf9104b1a7ff6
:10219400144b1a70144b01221a70012c9cd10e4b53
:1021a400db78122bccd90a4b1b7e002bbcd1084bfd
:1021b400d87c434258414042fa239b0018400b4bc1
:1021c4009c46604403f0eeff034b0022da7083e781
:1021d400f0380020843a00202c39002000280040e8
:1021e40057020000523b0020533b0020bf03000075
:020000040000fa
:1021f400f0b5de4657464e464546e0b583b0060088
:102204006846c18000921f000cab187880460dab65
:10221400187882460fab1878834610ab1d788c2053
:1022240003f08efd8146002800d178e00468002c7c
:1022340000d176e0734273415b421d4001231d408f
:102244006d01032217401800304081002f4340469f
:102254001840c2000f4300216177267701214e40c8
:1022640033409b0117433b4380225242134323755f
:102274000099a1616b46da88e283002906d0237da8
:102284005b0741d4201d082204f0cafc0e9b237472
:102294000e9b1b0a63740e9b1b0ca3740e9b1b0edc
:1022a400e374231da361119b2373119b1b0a6373a6
:1022b400119b1b0ca373119b1b0ee37321235a4622
:1022c400e254013b5246e2540433129ae254129b04
:1022d4001a0a2523e254129b1b021b0e2622a35426
:1022e400129b1b0e0132a35449460f4803f0d2ff40
:1022f40000280fd104f046f8012003b03cbc9046fe
:102304009946a246ab46f0bd201d0222009904f076
:1023140087fcbbe7484603f01ffe0020ede70020e2
:0c232400ebe70020e9e7c046303a00205b
:020000040000fa
:10233000f0b5ce4600b584b00400009101921f00b4
:102340000025442640e0a66b3a000099200002f0e8
:1023500035faa36c002b11d0022f00d180e02000b1
:1023600003f088f8002806d104f02afc012004b00c
:1023700004bc9146f0bd04f043fbf5e7636a002b13
:1023800004d10028f0d004f03bfbede7200024301e
:1023900002f0d8f90028e7d004f032fbe4e704f0bb
:1023a0000ffc0020e3e702a804f042fb19e0002341
:1023b000a35520e045230022e25421e0200001f053
:1023c0005dfe00f0a5fe012504f026fba36be26b89
:1023d0009342b8d3022f3ad0019b002bdfd0002dbf
:1023e000e1d004f0edfb04f089fc04f015fba35de3
:1023f0005bb20133dbd04523e35c5bb20133d9d060
:1024000004f0defb01a902a802f010ff002817d19a
:1024100004f002fba36b9946e56b04f0d1fba945e0
:10242000ccd120001030019904f038fa200001f0de
:1024300025fe00f06dfe0028c5d104f0e1fac2e7e8
:10244000200001f01bfe00f063fe00208fe7a66b6a
:1024500002220099200002f0b1f9a36c002b8dd06c
:08246000002e00d080e77ae7ae
:020000040000fa
:10246800f0b585b0040001910023009300254426af
:10247800002743e0013ba3632368002b09d02369ad
:10248800002b0ad104f098fb01230093009805b0b3
:10249800f0bd04f00dfaa060f1e72000103002f062
:1024a8004df90028eed004f0a7faebe704f084fb1e
:1024b80000230093eae702a804f0b6fa28e0a7553b
:1024c80030e04523e75432e004f0a2faa06801f0b6
:1024d80065fe009004f070fb39e0200001f0cafdb1
:1024e80000f012fe09e0200001f0c4fd00f00cfe2f
:1024f800200004f06bfb002838d1012504f088fa8d
:10250800a36b002bb6d1019b002bcfd0002dd2d0ce
:1025180004f052fb04f0eefb04f07afaa35d5bb220
:102528000133ccd04523e35c5bb20133c9d004f05e
:1025380043fb01a902a802f075fe0028d3d12000b0
:1025480004f044fb0028c8d02368002bbcd020002e
:102558002430019904f09ef9200001f08bfd00f071
:10256800d3fd0028c9d104f047fac6e7009b002b29
:1025780000d18be704f04cfa616a002903d0236b81
:102588001b680521c91aa06802f0faf904f014fbc7
:06259800002300937ae726
:020000040000fa
:10259e00f0b58fb00d934b680c9006938b680d00c1
:1025ae000793cb6816000393069b0f68002b44db42
:1025be0002239f4310233b400a93079b04930a9bdd
:1025ce00002b07d0726833681343079a02d01300aa
:1025de00023b049308233b400b935a1e9341049aeb
:1025ee00d31a04933368039a0893736809932b697b
:1025fe005c1e00231355069b0593012c20dc0a9bc1
:10260e00002b51d10b9b002b03d02023039a013cae
:10261e0013552b6900975a1e039b121b19190c9800
:10262e00079b02f04bf80c9b5b68db0503d56b68d0
:10263e00984200da18000fb0f0bd01230693b9e7f7
:10264e00089b099a13430bd1059b002b08dc069ab5
:10265e00049b9b1a059a9b18002bd0ddbb07ced589
:10266e000f23089a013c134018005730092b01dc48
:10267e00303318000d9b413b192b06d82023034302
:10268e00613b192b01d804f050fb039b1855059b99
:10269e00013b0593099b1a07089b1b091a43099bcb
:1026ae0008921b090993a8e70cce1343aad0039beb
:1026be000d9a1b19013b1a703023039a023c1355d5
:0226ce00a0e783
:020000040000fa
:1026d00070b588b004001e236b44012252421a8058
:1026e0003b4804f031fa3b4804743b4901f000f8e0
:1026f0000f284ad00022002302920393374d08325c
:10270000290002a804f0f4f8040001225242d31771
:10271000029203930932290002a804f0e9f8002884
:1027200001d0002c08d12d4c2500083504f08cf97f
:1027300020700134ac42f9d10822284904a804f0e1
:1027400071fa04a9f020fef7c5fd002003f0e6ffb2
:102750002349002003f010ff041e33d0204c2078c2
:10276000002102f07efa1f4b00221a7020781e4bc7
:10277000009300231e326a44022102f0d3fa441e61
:10278000a041c4b2200008b070bd184c200003f076
:10279000f5ff174e717825000c35280003f0eeff89
:1027a0003178280003f0eaff2000103003f0e6ff44
:1027b000104b197820001c3003f0e0ff02f059fca8
:1027c0000124dfe7064b187803f025fadae7c04664
:1027d00055650000883b0020483b00209c3b0020c2
:1027e000af3b0020653b0020fd5800003c67000027
:0827f000543b0020ad3b00202a
:020000040000fa
:1027f800f8b5040004f07efa404b1b68002b15d096
:102808003f4b1e68344238d1002c3dd0220008329c
:10281800530702d007239a430832002a34d0394b91
:102828001f68974233d338490c6835e0374a530755
:1028380020d0d11d07239943bd239b019c466244a8
:10284800531a0a003048026000214160d318083b3f
:10285800072083432948036059601960991a516019
:1028680013602b4b1960274b1960254b80221206e9
:102878001a60c5e7bd239b01e4e700f045fc04f0be
:10288800ecfa00252800f8bd00f03efcf7e700f060
:102898003bfcf4e721001c006368934202d22368e2
:1028a800002bf7d1154b1b68a3421ed00d680835c5
:1028b80023680b6063689b1a102b19d86368ff1a8a
:1028c800104a1760124a1268974201d2104a1760dc
:1028d8001e436660002323600e4a136801331360a9
:1028e80000f012fc002dcdd1c9e700f00dfcc6e7c1
:1028f800a0184360626002f015fddfe7e43a0020ab
:10290800e83a0020ec3a0020643a00200000002059
:08291800f03a0020f43a00201f
:020000040000fa
:10292000f0b5c64600b582b03a4b1b68002b65d1a6
:10293000394b1a68013290461a60002a18d0374b7a
:102940001b68434521d900230193354b1b68da6a84
:1029500093009b189b00334a9b58012b01d90123fc
:102960000193314b1b68002b4ed0012301934be0a8
:102970002e4a11682e4b1868106019602d4a136892
:102980000133136003f0d0fbd9e700230193274ef6
:10299000370033681b68002b28d03b68db68dc6895
:1029a0006368984527d3251d280003f077fda36aa7
:1029b000002b03d02000183003f070fde36a1e4a9c
:1029c0001268934201d91c4a13609800c018800015
:1029d000144b1818290004f0a0f8114b1b68e26a88
:1029e000db6a9a42d5d301230193d2e70b4b012234
:1029f00052421a60a9e7094a1360a6e70f4a136812
:102a00000133136000230193019802b004bc904687
:102a1000f0bdc046103b0020303b0020203b002092
:102a2000fc3a002004370020343b0020003b00200b
:102a3000043b0020243b0020183b0020283b0020c2
:020000040000fa
:102a400070b52d4b06225a6003f0e7fa01f0cafa7e
:102a500000f0ccff04f078f903f00dfb03f0dcf894
:102a600001f078fd02f0f8ff2449002000f07cfd21
:102a7000234b1860234c244b2360244b6360244b6e
:102a8000a360244be360244b2361244b6361244bfc
:102a9000a361244be361244b2362244b6362244be8
:102aa000a362244be362244b2363244b6363244bd4
:102ab000a363244be363244b2364002314220121ea
:102ac000224802f0a9fa002314220121204802f032
:102ad000a3fa204d04224021280003f079ff2900a9
:102ae000200003f053fa03f0f5fe02f0effa02f0d3
:102af000edfafff7d5f870bd00400041246e0000ec
:102b0000e03a0020083800200d69000089690000c3
:102b100019500000c1650000a1690000255e000099
:102b20005f6c0000d169000009660000595e00007a
:102b30002d660000716c00005d6b0000716b000081
:102b4000ef6a0000dd6d0000e56d0000d83a00205e
:082b5000dc3a0020d43a002019
:020000040000fa
:102b580010b586b00378122b05d0132b2bd0102b71
:102b680054d006b010bd16246c4401235b42238068
:102b78002e4b1878062101f0dbfbc9b24b0059181f
:102b8800cb005b1a2a495b182a490a78501c08703e
:102b980029490391002102910131019100921522e6
:102ba80021000220fff72af90028dad01f4a1378fb
:102bb80001331370d5e70024204b1c70204b187884
:102bc800062101f0b5fbc9b28b005b185b005b18ee
:102bd8001c4a11785b181c495b1816490a78501c66
:102be80008701549039102940121019100920b226a
:102bf80016490820fff702f9002804d0104a137874
:102c080001331370ade703f0a4f9aae70b4b1a7868
:102c18000f4b1b78023b9a4203d9084b00221a70cb
:102c28009fe70132054b1a709be7c0464a3b0020dc
:102c3800d44400005a3b0020c16200005b3b0020e6
:102c48004b3b0020593b00204059000090380020a1
:042c58005f3b0020be
:020000040000fa
:102c5c00f0b5c64600b584b004000091019200277f
:102c6c0044260023984638e00099200003f0fcfc31
:102c7c006b1ea3632369002b06d103f09bff01207d
:102c8c0004b004bc9046f0bd2000103001f054fd9f
:102c9c000028f2d003f0aefeefe703f08bff00202c
:102cac00eee702a803f0befe21e04346a35528e060
:102cbc0045234246e25429e0200001f0d9f900f006
:102ccc0021fa09e0200001f0d3f900f01bfa2000f2
:102cdc0003f07aff002835d1012703f097fea56b8e
:102cec00002dc1d1019b002bd7d0002fd9d003f0e0
:102cfc0061ff03f0fdff03f089fea35d5bb20133be
:102d0c00d3d04523e35c5bb20133d1d003f052ff47
:102d1c0001a902a802f084fa0028d3d1200003f004
:102d2c0053ff0028c8d020002430019903f0b0fdd7
:102d3c00200001f09df900f0e5f90028ccd103f05a
:082d4c0059fec9e700209be7d6
:020000040000fa
:102d5400f0b5de4657464e464546e0b587b0070017
:102d64000d00110003929846304b00221a7000297e
:102d740051d104abda710123ab4001332c4a5a43dd
:102d840091462c4a5a439346ff2302931c00019513
:102d94001fe0ddb23378002b08d00199012003f045
:102da40099fe2b1c8542f4d2031cf2e7a54208d2fb
:102db40004ab07331b7802934346002b29d01d70c4
:102dc4002c0004abda1ddb790133dbb213701f2b4b
:102dd40023d803f0f9ff04abda79012393403b4095
:102de4001842eed004abd91d002003f0c3fb124bf4
:102df4001b784846002b00d15846104901f05efa72
:102e040001300f4b1880094b01221a70039d1e00dc
:102e1400c3e72c00d5e7ff230293029807b03cbc1c
:102e240090469946a246ab46f0bdc046603b0020a2
:102e3400c05d000080bb0000ad3b002040420f009d
:042e4400823a0020ae
:020000040000fa
:102e480070b50400384d80235b036b61d2204000cd
:102e580003f06afb802636029423ee500a2003f022
:102e680063fb9823ee50642003f05efb00221f21d1
:102e7800012003f0e7fe0a2508280dd0642003f09e
:102e880053fb00221f21012003f0dcfe013dedb2bf
:102e9800002df1d1852070bd244b08225a7001f015
:102ea8000ffe002304223021032003f019fb002326
:102eb80003220821032003f013fb03f0c1fd0500e2
:102ec800c1b22d2001f0c8fdabb21b0a00220721b8
:102ed8002e2003f005fb0123052220212e2003f0dc
:102ee800fffa0123072280210c2003f0f9fa0123bd
:102ef80001220221042003f0f3fa08210e2001f038
:102f0800abfd062304227021152003f0e9fa002cfa
:102f180007d101f059fa054b00221a709a70002067
:102f2800b9e702f0d1fbf4e7002800402c39002073
:020000040000fa
:102f3800f0b583b00d0016001c00364b1b78042238
:102f480093430022012b02d0100003b0f0bd314b97
:102f580002321a70012836d0002808d0022852d030
:102f68000120a0472b4b01221a700022ece76b4688
:102f780000225a716b46981d01235b420380264d3f
:102f8800264b2b8003f08af8280003f071f8f3072a
:102f98000dd46b4659790131c9b2012200e01900fc
:102fa80052004b1cdbb23242f9d06b4659716b466a
:102fb800591d002003f0dcfa164b07221a70002076
:102fc800a0470122c0e76b46981d01235b4203809e
:102fd800114f124b3b8003f061f8380003f048f8ba
:102fe8006b460533002229003000fff7affe01a928
:102ff8000870002003f0bcfa064b07221a70002064
:10300800a0470122a0e70120a047024b01221a7025
:10301800002299e7613b0020543b00203412000055
:020000040000fa
:10302800f8b5374c656b63689b6998476061606960
:1030380003f014fca66ae76a0023020092197b4198
:10304800a262e362002d51d02d4c3022a35c0133e3
:10305800a35402f0abfe646b002c06d0a368002bcf
:1030680003d101250027264e11e0264d00242e000d
:1030780021e0e06902f02cfde368002b01d0206913
:103088009847746b002cf0d0a368002bedd1257500
:103098006575a378002b02d1e368002be9d12000e5
:1030a80001f09cfea378002be6d16770e4e70134b9
:1030b8002035052c15d06301f3185b7d002bf6d065
:1030c8006201104b9b1800225a75ab78012beed188
:1030d80061010c4b59186b688b60280000f0faf8f6
:1030e800e5e7074930228b5c013b8b5403f07efef9
:1030f800040000f019fc200003f07cfef8bdc04677
:0831080050380020fc350020c6
:020000040000fa
:10311000f8b5ce46474680b503f07efc2e4b1a68c4
:10312000013a1a601b680024002b03d12b4b1b684b
:10313000002b06d103f044fd20000cbc90469946bc
:10314000f8bd0024264eb046264f274b99463368db
:10315000002b22d04346db68dc682000183003f0e7
:103160009df9251d280003f099f9e36a3a68934216
:1031700001d91c4a13609800c01880001b4b181816
:10318000290003f0cafc1a4b1b68db6ae26a9a4208
:10319000ddd301234a461360d9e7002c01d002f0a9
:1031a000c3ff144b1c68002c0ed00f4e012502e00b
:1031b000013c002c05d0fff7b3fb0028f8d03560a8
:1031c000f6e70c4b00221a60074b1c68002cb1d0ac
:1031d00003f016fc0124ade7103b0020083b002063
:1031e00094390020183b0020343b00200437002095
:0831f000fc3a0020283b0020fe
:020000040000fa
:1031f800f0b5060085b00f0015001c008b4265d89d
:1032080001d1824262d82100280003f055fc390020
:103218000090300003f050fc009b21001b1a1a009c
:103228002800039303f03cfc00900191019bbb42f2
:1032380046d802d1009bb34242d8009b019c039a16
:1032480001200021f61aa74103f02afc039b002b5a
:103258002fd0019b009adb0754081c43019b5d0893
:10326800039b9c46bd422ed801d1b4422bd83200d4
:103278003b00121bab41012692185b410027b61890
:103288005f4101235b429c446346002bead18019cd
:103298007941039a04000d003000390003f0f4fb73
:1032a800039a06000f0003f0fbfb241a8d4120004f
:1032b80029000a9b002b01d01e605f6005b0f0bd9d
:1032c80000200021c2e7b6197f41dae7002000217b
:0232d800efe71e
:020000040000fa
:0232da0070473b
:020000040000fa
:1032dc00f0b5de4657464e464546e0b585b08146cc
:1032ec00002854d0304b596b83689a4600290cd077
:1032fc008b6852460392002290469a4549d300228d
:10330c0000238b460092019306e052468260264bc6
:10331c005863012034e0e3465e46b668340000256d
:10332c00009a019b12196b41009201935e46b6699b
:10333c00b446002e12d06646b66800210f00009ae3
:10334c00019bb6185f41474529d8e4d1039b9e42a7
:10335c00e1d960465946009a019b01e0300059467c
:10336c004c46a0618c61002051468a1a4b469a60eb
:10337c009b69002b04d04a4691689a68521a9a604d
:10338c0005b03cbc90469946a246ab46f0bd002029
:10339c00f6e7054b5863816100220120e4e76046a3
:0c33ac005946009a019bdbe750380020d6
:020000040000fa
:1033b800f0b583b001902e4b5e682e4b1b685d689c
:1033c800ff2700240ae02900300003f03df8002818
:1033d80047d10134e4b20a35052c06d02b7a7f2b6d
:1033e800f1d8ff2ff5d12700f3e700230093ff2f33
:1033f8003bd0214b1b78002b30d1204b1f70bb00da
:10340800db195c0025000023194e1a487268d15c4c
:10341800026852685219d1540133082bf6d1154b62
:103428001a6853681b19187a802149420143197296
:1034380053681b190121019801401d7a0120854319
:103448000d431d720a4b9b68d97853681b19597232
:103458000b4b1f7002f058ff0a4b1870009803b00e
:10346800f0bd270001230093c1e7f1230093f5e79e
:10347800f0390020a43a0020aa3b00205d3b002040
:083488005c3b00205f3b0020cb
:020000040000fa
:1034900010b588b02c4bdb78002b03d02b4b1b785e
:1034a000042b15d0284b5878062801d000283ed18f
:1034b000264b07221a70244bdb689847224b0022c8
:1034c000da60234b186802f027fb042008b010bd17
:1034d0008c2002f037fc041e31d00368002b30d062
:1034e00081221a701b4a12785a701b4a12789a70fd
:1034f0001a4a1268d2681278da70194a118806904e
:10350000184a059201220492002203920293042396
:1035100001930092033b0120fef76cfe03000020a4
:10352000002bd3d1200002f019fd0120cee7064b7d
:103530009978064a1170db6801209847bee70a2097
:10354000c4e70a20c2e7c046d0390020613b002012
:10355000943a0020ad3b0020ab3b0020a43a002071
:08356000543b00209d650000b2
:020000040000fa
:1035680070b50d1e4cd000284dd12848383003f0d6
:10357800d6f9012802d00120404246e02b68234cae
:103588006360db689847e0600026c82200230021ba
:1035980002f01cfa1e4a002302f0fafa0222002363
:1035a8008018594120620423eb5623722661194b77
:1035b800a361194be36100220023a262e362666300
:1035c8003023e65463681b680021144898476368f1
:1035d8001b69002b02d00d4a108b98470b4ce069f1
:1035e80080b263685b69984763685b689847a02204
:1035f80000210b4803f01cfb02232370200004e089
:103608000120404201e00120404270bd50380020b6
:10361800006cdc02ffff0000ff7f00002930000083
:04362800fc3500204d
:020000040000fa
:10362c0010b52a4b1b68002b03d0294b01221a60c2
:10363c0010bd274b00221a60264b1b681b6b264ab9
:10364c001968914202d1596891422fd0214b1868c8
:10365c001968343103f0fdfb204b1b689a00d2181b
:10366c0092001f495258002a06d1013b9a00d218e9
:10367c0092005258002af8d019489a00d1188900a3
:10368c0041184c6864684c60d21892000832821859
:10369c00944212d09a00d218920011498a1852689a
:1036ac00d1680c4a11600d4a1360c1e799689142c8
:1036bc00ccd1db689342c9d1cee760689a00d218ae
:1036cc00920007498a185060e4e7c046103b00207e
:1036dc00343b0020fc3a0020a5a5a5a5183b0020f2
:0436ec00043700207f
:020000040000fa
:1036f00000b583b06b4601225242da801e4b002295
:103700001a701e4b01321a701d4b1e4a1a8002f0ad
:10371000dffc1d4b1b78ff2b29d16b46981d02f057
:10372000c1fc174802f0a8fc184a194b1b781b0172
:1037300011780b431370174b197801230122164897
:1037400001f01cfd154b18600a21154802f01af90a
:103750000a21144802f016f90a21134802f012f95e
:103760000a21124802f00ef9002003b000bd0649fc
:10377000002002f001ffd0e7583b0020613b002011
:10378000543b002034120000ad3b0020ab3b002036
:10379000aa3b0020633b002019570000943a002008
:1037a000483a00203c3a0020303a0020243a0020d9
:020000040000fa
:1037b000f0b583b006000d0001921f0008ab1c7825
:1037c00002f066fa002845d0244b1b785bb2022b2e
:1037d00006d00124644202f013fe200003b0f0bdc5
:1037e000002d31d0b54232d31d4b1b78002b0bd0ae
:1037f0001c4b01221978002908d001322033052af8
:10380000f8d101246442e6e70022154b012119702a
:1038100000215970197559759c705d600199d960c6
:103820001f61ad1b9d60104909881404240c0a0413
:103830001443dc61013189b20c4a914202d00a4a38
:103840001180c8e70121fae701246442c3e701249b
:103850006442c0e701246442bfe7c04650380020fc
:10386000fc3500201c360020a83b0020ffff000094
:020000040000fa
:1038700010b588293cd015dc81294dd003dc802986
:103880004ad0002010bd822911d08429f9d11968ad
:10389000002a26d00a1d1a6000228b5e0360db1707
:1038a000436011e0a02930d010dc9029e9d11968db
:1038b0000724002a2ed00919a1430a0008321a60f1
:1038c0000b684c68036044600120dbe7c02901d02d
:1038d000f029d6d11a68111d1960136803600023fe
:1038e000dee70c1d1c600b689bb203604260ebe7d7
:1038f0001968002a04d00a1d1a600023cb56cde7b0
:103900000c1d1c600b68dbb2efe71a68111d196013
:103910001368c3e70731cfe71968002a03d00a1def
:0e3920001a600b68bae70c1d1c600b68dde72f
:020000040000fa
:02392e007047e0
:020000040000fa
:10393000f0b5c64600b52a4b5a6b59691961002a81
:1039400042d09168274b994234d9254b5b690025b9
:103950001c00244a0023a4185d41214b98465b6853
:103960009b6998470027060043461b69834203d999
:103970001d4a0023b6185f41194b196a00230a003b
:1039800092197b41ab4202d827d1a24225d98e1988
:10399000134bde61124bdb691b0402d1104b012279
:1039a000da610f4bd86980b25b685b69984704bce9
:1039b0009046f0bd91680a4b5b6900251c0000230e
:1039c0000a00a4185d41c8e7054b5b6900251c008f
:1039d000044a0023a4185d41bfe7014bdc61d9e72d
:0c39e00050380020ff7f0000ffff0000b7
:020000040000fa
:1039ec00274a002393611361264a082191710739f4
:1039fc005171254a13831100920dcb681342fcd0f0
:103a0c00224b1b689b0e9b028022920013431e4a82
:103a1c00d3611100920dcb681342fcd01a4b0222d9
:103a2c001a831900d201cb681342fcd0184b194ae7
:103a3c001a62190004224b681a42fcd1144a8c23d6
:103a4c004021d15010004c31402243581a42fcd036
:103a5c000f4ad8234021d1501000983140224358ae
:103a6c001a42fcd00a4aec234021d1501000ac3150
:103a7c00402243581a42fcd0034b00221a7570475f
:103a8c000010004000040040000c0040206080004a
:083a9c000018004007010100c1
:020000040000fa
:103aa4000616000076160000441600009216000068
:103ab40044160000ee1500001a160000441600001b
:103ac400441600004416000044160000441600008a
:103ad4009e15000044160000441600004416000021
:103ae400441600004416000044160000d6160000d8
:103af40044160000441600001c170000761600004f
:103b0400441600009216000044160000ee15000052
:103b14001a16000044160000441600004416000063
:103b240044160000441600009e15000044160000d0
:103b34004416000044160000441600004416000019
:103b440044160000d6160000441600004416000077
:043b54001c1700003a
:020000040000fa
:103b5800f0b54b6889b005930b6807009c4607933e
:103b6800cb680c008e68049310685168cd0f44d060
:103b78000b000200002150429941059b002b08dbf5
:103b88000222634693430793002d02d1079b5a07ed
:103b98002ad5731e07aa02920a22009301920b00eb
:103ba8000200200000f041fe002d02d1079b5a07b9
:103bb8001ed501382d23002d00d1023b049a135441
:103bc80023695a1e049b121a1918079b3800009380
:103bd800330000f076fd7b68db0503d56368984207
:103be80000da180009b0f0bd1b07db0ff31ad1e7a4
:103bf8001b07e5d501382023e0e7059b002bbfda3a
:023c0800c4e70f
:020000040000fa
:023c0a00704701
:020000040000fa
:103c0c0010b5294bda7d930613d43f231340264a73
:103c1c00127e052a13d01100123901290fd9002a5e
:103c2c002cd1214ad27c002a19d1062b17dd062370
:103c3c0034e052421f2313405b425bb2e7e71a4960
:103c4c00c97c002909d0032907d0052a01d0122ae2
:103c5c0005d10a2b03dd0a2320e0042b1ddc9f2257
:103c6c001f2b13dd104ce27501f008fde07d01f017
:103c7c0023fc0100052000f0edfe10bd0a4ad27ca9
:103c8c00002aecd1032beadd032307e0002b05da35
:103c9c00803a134081321a43e4e7042380225242d3
:0c3cac001a43d2b2dee7c046f038002018
:020000040000fa
:103cb80070b50500254b1c78002c09d05c780f3caa
:103cc80063425c41644204239c438634200070bdf7
:103cd800002002f0ffff0420fdf738fc0f2000f061
:103ce80019fe012307228021152002f0f9fb102379
:103cf8000022ff210e2002f0f3fb002002f0e2ff79
:103d08000620fdf723fc062814d1104b04221a7054
:103d1800ff21072000f0a0fe0d4b00221a70f023af
:103d28009b00ab40f022920094466344db08094aaa
:103d38001360cbe7002307228021152002f0d0fb77
:103d480008210e2000f088fe8524bfe72c390020ca
:083d58000d3900208c3a002017
:020000040000fa
:103d6000002941d010b4041c4c40a4460123002279
:103d7000002900d54942002800d5404288422cd372
:103d800001242407a14204d2814202d209011b016d
:103d9000f8e7e400a14204d2814202d249005b006c
:103da000f8e7884201d3401a1a434c08a04202d3d4
:103db000001b5c0822438c08a04202d3001b9c0815
:103dc0002243cc08a04202d3001bdc082243002877
:103dd00003d01b0901d00909e3e7101c6446002c3d
:103de00000d5404210bc704701b5002003f042f8f6
:103df00002bdc0460029f7d003b5fff7b3ff0ebce4
:083e00004243891a1847c0462d
:020000040000fa
:103e0800f8b51f4e1f4c23689d680023142201211a
:103e18003000a8471c4d23681b6b1c2128009847bd
:103e280023685b6b29001948984723685b6b290056
:103e380030009847164b174a1a60134e164c114f0c
:103e4800124d07e00f4b1b68db6800210c489847b0
:103e580002f0bcff3b689b6b104a3100200098477a
:103e68002368074a12689342ecd02a689342f1d13a
:103e7800044b1b689b6a0022054904489847e9e7f8
:103e8800b83a0020b03a0020c03a0020ac3a0020ee
:103e9800b43a00207c3a0020bc3a0020ffff000022
:020000040000fa
:103ea800f0b585b00600029103921c0002f0baff3b
:103eb8000190b36bf26b934208d30025022c05d016
:103ec800019802f0c2ff280005b0f0bd4523f55c5b
:103ed8006db2b76b22000299300000f06bfc6b1cce
:103ee80005d001356db24523f5540125e8e7b36cdb
:103ef800002b10d0022c02d10235002fe0d1300067
:103f080001f0b4fa01250028dad0039a002a12d069
:103f180001231360d4e7736a0125002bd0d0300049
:103f2800243000f00bfc0028cad0039a002a04d0e1
:0e3f380001231360c4e70125c2e70125c0e79d
:020000040000fa
:023f46007047c2
:020000040000fa
:103f480070b582b0224b1b68002b34d01e68072046
:103f580000f0e0fc05006b46dc1d0121200000f0ac
:103f6800adfe21781b4bd9704bb2002b21dbcc1c4a
:103f7800e4b2341b8c340231c9b2200000f09efe3a
:103f880074606b46da79a418a570da7973689b189f
:103f98005a78104b5a750e4c21680f4802f078f980
:103fa8008c2001f0cbfe206000280ad0002002f00f
:103fb80047f902b070bd01216b46981d00f07efee6
:103fc800f7e70930fdf7c2fa024b01229a70ede7d4
:0c3fd800883a00202c390020003a00201c
:020000040000fa
:103fe40030b5234b802252031a6012021a61012158
:103ff4004422995401329954002254201a5405241d
:1040040008301c542a3833251d5408301a540430ff
:104014001a544230174d1d50403019540f301a5461
:10402400cd38d0255855013558550d3559550135dc
:104034005a552f3d5a5507355a5501355a550735a6
:104044005c55fb348025ed021d5150341855513018
:10405400ff304e3cff3c1c545420ff30195438317f
:10406400ff315a543a22ff32e339995430bdc046e5
:084074000028004000800080dc
:020000040000fa
:10407c0070b5050002f0cafc4523ec5c64b2002c60
:10408c001cdd2e0024360be06b6a002b16d03000a2
:10409c0000f052fb00280ed1013c64b2002c0dd074
:1040ac00ab6c002bf0d0280001f0def90028f3d027
:1040bc0002f056fef0e702f053feede74523ff2237
:1040cc00ea5402f077fd02f0a1fc4423ec5c64b2ec
:1040dc00002c04dd2b692e001036002b0ed144234e
:1040ec00ff22ea5402f066fd70bd02f039fe013c7d
:1040fc0064b2002cf3d02b69002bf0d0300000f010
:08410c001bfb0028f3d0f0e7d3
:020000040000fa
:1041140030b583b080256d00184c194b01930423ee
:10412400009300232a0021001648fdf711fc21000a
:104134000c31154b01930523009300232a001348e7
:10414400fdf706fc6d0021001831114b0193032388
:10415400009300232a000f48fdf7fafb21002431c5
:104164000d4b01930123009300232a000b48fdf714
:10417400effb01f003f903b030bdc046bc5f0000a3
:10418400cc3a00201d6e0000d03a0020156e0000cd
:10419400c83a0020056e0000c43a00200d6e0000ed
:020000040000fa
:1041a40070b5041e3cd0c26a1e4b1b68db6a9a427f
:1041b4002ed28369002b05db1a4b1b68d96a0523b1
:1041c4005b1a836193009b189b00174ad31862699a
:1041d4009a4205d0134b1b68db6ae36201201ee0a0
:1041e400251d280002f058f90e4b1b68db6ae362b8
:1041f4000e4a1268934201d90c4a13609800c01801
:104204008000094b1818290002f085fc012006e003
:10421400044b1b68406cdb6a98428041404270bd8d
:104224000020fce7fc3a002004370020183b002063
:020000040000fa
:1042340070b5002817d01c4b07221a701b4b1b7833
:10424400002b07d01a4b1b78002b03d0164b1b787e
:10425400052b10d0174b02221a70013a9a700020d5
:1042640001f0f0ff70bd0522e021022002f0ecfc19
:104274000d4b1870e2e71920fdf76af91928fad1f5
:104284000d4c80256d03a561183802f04ff9656166
:10429400074a1378013bdbb21370002be2d1034bc6
:1042a40000221a70dee7c046563b0020533b002034
:0c42b400523b00202c3900200028004064
:020000040000fa
:1042c000002934d00123002210b488422cd30124c9
:1042d0002407a14204d2814202d209011b01f8e75e
:1042e000e400a14204d2814202d249005b00f8e717
:1042f000884201d3401a1a434c08a04202d3001b43
:104300005c0822438c08a04202d3001b9c08224375
:10431000cc08a04202d3001bdc082243002803d0b3
:104320001b0901d00909e3e7101c10bc704701b557
:10433000002002f09ffd02bd0029f8d003b5fff771
:0c434000c1ff0ebc4243891a1847c0465a
:020000040000fa
:10434c0010b5041e37d11d4b1b7e022b0ad0052b3a
:10435c000ed08920002b1ed1184bdb7c5a1e9341aa
:10436c00643b07e0154bdb7c5a425341633b01e055
:10437c0062235b420020085619001a002d3290422d
:10438c000add13000e4a13700f2300220f21152093
:10439c0002f0a4f8200010bd984203dc084a137008
:1043ac002300f2e7064b1870401a0321fff7d2fcea
:1043bc000130c3b2e9e78920ede7c046f0380020b0
:0443cc00573b00203b
:020000040000fa
:1043d00070b51f4da97b222000f042fbe97b232012
:1043e00000f03efb24242978200000f039fb013541
:1043f0000134e4b22c2cf6d1154c217b202000f0a6
:104400002ffb617b212000f02bfba37c0522602188
:10441000082002f069f8637d00220f212f2002f0ae
:1044200063f8e37e0422f0212f2002f05df8a37de3
:10443000032208212e2002f057f8207efdf7a0f974
:10444000e07d01f03ff80100052000f009fb70bda0
:04445000f038002020
:020000040000fa
:1044540010b51c4b9b78002b12d01a4b1b780222f0
:1044640093430dd1184b1b68002b14d0154b00221d
:104474009a701620fdf76cf802f0baf91628f8d1f4
:10448400124b5b7a002b0ed10e4b1b78022b13d0f0
:10449400052b14d010bd8c2001f052fc0a4b18607f
:1044a4000028edd0e2e70021084800f0a1fa002836
:1044b400ead001f0ddf9e7e701f096f9eae700f068
:1044c40087ffe7e72c390020883a0020003a0020d3
:020000040000fa
:1044d40020b2202020b22020b220b2202020202090
:1044e400b220b20d0ab220b220b220b2202020b2f3
:1044f4002020b22020b220200d0ab22020b2202099
:10450400b220b220b22020b22020b220b20d0ab2d2
:104514002020b22020b220b22020b220b220b2202b
:1045240020b20d0ab22020b22020b220b2202020d6
:10453400b220b2202020b20d0a20202020202020ea
:104544002020202020202020202020200d0ac046ca
:020000040000fa
:1045540010b51d4a137801210b4313701100012279
:104564004b681a42fcd118490123cb6102330b6218
:104574000223ff330b61154b00221a8110329a82f9
:104584001a849a851a8744201a520c301a520c3015
:104594001a520c3008241c520c301a520c301a5285
:1045a4000c301a520c301a520c301a520c301a5267
:1045b4000c301a520b78022213430b7002224b6800
:1045c4001a42fcd110bdc046002400403c350020f6
:020000040000fa
:1045d40070b504000d00174b1e68174b18680430a3
:1045e40001f05aff631c0dd03419134b1b685c6037
:1045f400a64210d9114b18680f4b1968043101f009
:1046040021fd70bd002defd00b4b196804310c480f
:1046140002f081faf5e70b4b1868074b196804316f
:1046240001f010fd084b1b68a342ead9064b1c603d
:10463400e7e7c046303b0020fc3a0020043b002062
:0c464400a8390020003b0020203b002093
:020000040000fa
:10465000f8b504000e0002f0e9fb0500a26b00278c
:10466000e36b93420bd94523e35c5bb20132a26357
:104670005a1c09d001335bb24522a35401272800fc
:1046800002f0e7fb3800f8bda36c002b0ad0200035
:1046900000f0f0fe01370028f1d0002e11d00123e8
:1046a0003360ece7636a0127002be8d02000243058
:1046b00000f048f80028e2d0002e04d00123336037
:0a46c000dde70127dbe70127d9e75a
:020000040000fa
:1046ca00f0b51d00012389b014000e9a06001a40a5
:1046da000391029201d1a5420ad82200039930001f
:1046ea0001f07ffba54203d82500280009b0f0bde0
:1046fa002f1b01973a00102f00d91022202104a85d
:10470a0002f095fa019b0f2b0ed80f2204a93a400a
:10471a00300001f066fb029b002be6d122000399d0
:10472a00300001f05efbe0e7102204a9300001f03e
:0a473a0058fb019b103b0193e4e7dc
:020000040000fa
:1047440070b5c368dc6825001835280001f0a4fea4
:10475400134b1b68002b1ed1251d280001f09cfe65
:10476400e36a104a1268934201d90e4a1360980012
:10477400c01880000c4b1818290002f0ccf90b4b20
:104784001b68e26adb6a00209a4203d9084b0122c3
:104794001a60013070bd2900064802f0bcf9eee74a
:1047a400103b0020183b002004370020fc3a002076
:0847b400343b00209439002081
:020000040000fa
:1047bc0070b504001600856b026c002a0cd1002029
:1047cc002368002b02d00135a56370bda06800f0f2
:1047dc0063fb0023a360f6e7002e0ed1406802f0c5
:1047ec001bfa6368226c9446634463603000a268d1
:1047fc009342e8d323686360e5e7c06802f00cfae3
:10480c00236c5a42e3689b18e36021688b4203d205
:10481c00a3689c466244e2600020022ed3d1002d96
:06482c00d1d0013dcfe7f1
:020000040000fa
:10483200f7b5040019000a9fe368666800933b68b5
:10484200100001932369013b1c00002e00da0126af
:104852000022009dea5435000123002c03dc002bca
:104862001cd02000febd02000a4309d1002d07dc46
:10487200089a921b5219002af1dd019a9207eed58d
:10488200099b099adb1701f086f98c460099013cd5
:10489200130030320a55013d6146dee710233a68c3
:0648a2009a433a60dde7d5
:020000040000fa
:1048a800f8b50a21164801f069f80321154801f006
:1048b80065f8154d154c27005037114e256021001d
:1048c800300001f0e5fc8c350834bc42f6d10f4cc1
:1048d8000f4d2565210050310a4e300001f0d8fcfb
:1048e8002b002c33a36521005831300001f0d0fc97
:1048f8005835256621006031300001f0c9fcf8bd4b
:104908000c3a0020183a0020402f00209c36002046
:04491800b83400208f
:020000040000fa
:10491c0010b584b06b46dc1dd871002002f0d8f9bc
:10492c00227880235b4213432370134a9423802103
:10493c000906d15001f04afd0028fbd101216b463c
:10494c00d81d02f001fa01f041fd0028fbd1012134
:10495c000e30684402f0c4f901f038fd0028fbd198
:10496c00054a982380210906d15002f0a9f90e239b
:0c497c006b44187804b010bd0028004007
:020000040000fa
:1049880070b5041e09d0436c8b4200d20b00e26a5a
:104998009a4202d0a16c012900d070bde362a169de
:1049a800002902db0521cb1aa36193009a18920013
:1049b8000c4b9a1863699342efd1251d280001f02a
:1049c80069fde36a084a1268934201d9064a1360ee
:1049d8009800c0188000034b1818290002f099f8b5
:0c49e800dbe7c04604370020183b00202d
:020000040000fa
:1049f400f8b505000e00437a002b17d0046800298f
:104a040026d0002c0cd0270000e01c007168206820
:104a14003368984700280bd163682700002bf4d132
:104a2400002413e06f600be06b600fe000240de0e6
:104a34002b68a3420ed063687b606b68a342f1d0fd
:104a44006b7a013b6b722b68002bedd02000f8bd14
:0a4a5400271efbd063682b60efe71c
:020000040000fa
:024a5e0070479f
:020000040000fa
:104a600010b582b06b46dc1dd8719971002002f040
:104a700035f9227840235b4213432370114a942373
:104a800080210906d15001f0a7fc0028fbd10121ab
:104a90006b46d81d02f05ef901f09efc0028fbd1a8
:104aa00001216b46981d02f055f901f095fc002894
:104ab000fbd1044a982380210906d15002f006f95f
:084ac00002b010bd0028004007
:020000040000fa
:104ac80070b50620fcf742fd0628fad1002307221c
:104ad80080210f3001f004fd002002f0fbf80825ca
:104ae800002405226021062002f0acf8a400a4b23c
:104af8000443a4b2012001f017fd013dedb2002de1
:104b0800efd10320fcf722fd0f20fff703ff054b31
:104b180001225a61002002f0d5f8200002f034f991
:084b280070bdc04600240040ee
:020000040000fa
:104b3000f0b5c64600b5144b9846144f144e1d00f0
:104b400043461b68002b17d001f066fffb68dc684a
:104b5000201d01f0a3fc3368013b33602b68013b4f
:104b60002b6002f02df8206b00f034fb200000f0e9
:104b700031fb2b68002be7d1064b1b68012bdfd9db
:104b800001f03effdce7c0460c3b0020bc390020b2
:084b9000083b0020043700205f
:020000040000fa
:104b980010b584291fd007dc812915d0822922d09d
:104ba800802911d0002010bd90291cd008dc88294c
:104bb800f8d119680c1d1c600b6803601a7010e0ae
:104bc800a02901d0c029edd119680c1d1c600b6803
:104bd80003601a6005e019680c1d1c600b6803600f
:104be8001a800120dfe719680c1d1c600b68036040
:084bf8001a60d2175a60f4e7bd
:020000040000fa
:104c000070b504000d0001f007ff2268216ce36b12
:104c10004b43d018a0600020a06362605b1ad318d9
:104c2000e360ff234422a3540132a354002d0fd18b
:104c30002369002b03d101f0c3ff012070bd2000c8
:104c40001030fff77ffd0028f5d001f0d9fef2e724
:104c50002000103001f056ff2000243001f052fff8
:024c6000e9e782
:020000040000fa
:024c6200704799
:020000040000fa
:104c640030b583b004000d00002002f035f8134a7b
:104c7400942380210906d1506b466022da7101f039
:104c8400a9fb0028fbd101216b46d81d02f060f876
:104c940001f0a0fb0028fbd12900200002f058f805
:104ca40001f098fb0028fbd1044a982380210906cf
:104cb400d15002f009f803b030bdc04600280040ce
:020000040000fa
:104cc40030b583b004000d00002002f005f8134a4b
:104cd400942380210906d1506b462022da8001f00a
:104ce40079fb0028fbd101216b46981d02f030f8b6
:104cf40001f070fb0028fbd12900200001f0f4ff33
:104d040001f068fb0028fbd1044a9823802109069e
:104d1400d15001f0d9ff03b030bdc0460028004097
:020000040000fa
:104d240070b582b016006b46d871124b1c78002cfb
:104d340002d1200002b070bd0f4b00221a700f4d3b
:104d4400069beb602970281d0a00310001f068ff02
:104d5400ac7008236b70053beb70064b04221a7091
:104d64006b46d91d002001f005fcfef78ffb040003
:104d7400dfe7c046613b0020aa3b0020d039002079
:020000040000fa
:104d8400f8b50024144d154e03e077610134102c5e
:104d940020d063001b199b00eb181b89dbb2e1b226
:104da4008b42f3d173690127a7401f42eed0630001
:104db4001b199b0008495b58002be6d008006300d0
:104dc40019198900411849681b199b001b580800d0
:104dd4009847dae7f8bdc0463c350020002400407f
:020000040000fa
:104de40010b5164b5a6b002a24d0824205d1836930
:104df400002b17d0002208e01a009369002b1bd067
:104e04009842f9d18369002b05d0846899680919ff
:104e14009960002a08d0836993610023002282618b
:104e2400180010bd1a00f4e7044b5a6b92695a63d8
:104e34000123f3e70023f3e70023f1e750380020d0
:020000040000fa
:104e440070b5040000f022ff002825d0200000f0f7
:104e540021fe041e1ed043780025002b12d1836846
:104e6400002b01d1436883600c4a3023d35c002bb0
:104e74000cd1200000f054f900232375637501332d
:104e84006370002501f0bafa280070bd2000fef717
:104e940023faf1e70125f5e70125f5e7503800206d
:020000040000fa
:104ea40070b5041e23d0836c013b8364c26a416cd9
:104eb4008a421ed00020002b00d070bd251d280082
:104ec40001f0eafa606ce06205231b1aa3610a4b45
:104ed4001b68984201d9084b186083001818800099
:104ee400064b1818290001f016fe0120e5e7002002
:104ef400e3e70020e1e7c046183b00200437002028
:020000040000fa
:104f04002a020000540400002005000020050000cf
:104f140020050000200500006403000020050000b7
:104f240020050000200500002005000020050000e9
:104f340020050000200500002005000020050000d9
:104f4400f4020000e4040000200500002005000035
:0c4f54002005000020050000de03000026
:020000040000fa
:104f600010b5114b1b78002b08d00f4b1b78013369
:104f7000dbb2022b14d80c4a137010bd0b4b0c483b
:104f80001861fa2292009a605a6000211973002376
:104f9000084900f0f3f8084b1860431ce5d1ece732
:104fa000014b00221a70e8e7623b002044390020e0
:0c4fb00011550000633b00209c3a0020db
:020000040000fa
:104fbc0000230e4a10b513600d4a13600d4a13609e
:104fcc000d4a13600d4a13600d4a5362136101338d
:104fdc00936001f095fe01f049ff0a4c0a4b9c428c
:104fec0000d310bd08cc9847f8e7c046403b0020e2
:104ffc00c4370020c0370020b8370020bc37002051
:0c500c00c8370020b4000000b80000000d
:020000040000fa
:1050180070b504001d00002906d001291bd000230b
:105028000360012040421fe00020012b1cd803220e
:105038000021013000f074ff2060002810d0012dfd
:105048000ed1002300220021fdf76ef901384342fa
:10505800584140b208e01900100001f0c1fd20607d
:0a5068002068431e984140b270bd5d
:020000040000fa
:02507200704785
:020000040000fa
:1050740010b5134b1b78002b1fd100280dd0114bfa
:105084001b68002b11d01620fcf762fa1f2401f0d4
:10509400affb20401628fad110e00830fcf758fa8c
:1050a400074b00229a70082008e0054b01229a70f1
:1050b400002001f0c7f8162000e0122010bdc04601
:0850c4002c390020883a00207d
:020000040000fa
:1050cc00bff35f8f62b6124bc02080001a581202d9
:1050dc00120a8021c9050a431a5008221a60c321fa
:1050ec0089005a58ff2082437f3802435a5080224d
:1050fc0052011a60c42080001a5806491140c0227f
:10510c0012020a431a50802292021a607047c0465b
:08511c0000e100e0ff00ffffcd
:020000040000fa
:10512400f0b583b00190134c63689b699847606144
:10513400606901f095fb050000f03afe01f058fead
:10514400a66ae76a00232a0092197b41a262e362fd
:1051540001f052fe0198fef7bff8002801d103b018
:10516400f0bd01f045fe0400fef7e0fb200001f075
:0851740043fef4e7503800206f
:020000040000fa
:10517c0070b582b005000e001c1e01d100281ed097
:10518c00002a04d101246442200002b070bd0d4bf2
:10519c00d8680023002100f017fcfa2292000023ab
:1051ac0000f0f4fc0100009433002a000020fef70c
:1051bc00f9fa0400431ce7d0fff73efee4e70124b4
:0851cc006442e1e750380020c5
:020000040000fa
:1051d40010b500280bd00300083b5b680f4a126827
:1051e4001a4204d0010008390968002900d010bd12
:1051f400083804009343436001f07efd084a636865
:1052040011688c4663441360200000f08df8054a51
:10521400136801331360fdf779ffe8e7e83a0020eb
:08522400ec3a0020f83a0020ea
:020000040000fa
:10522c0070b504000d0001f0f1fb114b1a682b68ee
:10523c00591c17d061680f4800682668864202d056
:10524c00012691420fd9501a834203d800232b60b8
:10525c00012608e09b1a5b182b60200001f0e2fb92
:10526c00002600e0002601f0a5fc300070bdc04611
:08527c00303b0020243b002020
:020000040000fa
:1052840010b50f20fff748fbc3060ed5104b1b7853
:10529400042b04d00e4b5b780f2b03d010bd00f011
:1052a40009fbfbe701f04afbf8e70307f6d5084bd7
:1052b4001b78012b09d1430603d50120fef7b8ff63
:1052c400ece70020fef7b4ffe8e7fef73bfee5e776
:0452d4002c39002051
:020000040000fa
:1052d80010b582b002000c1e1ed00123002802d196
:1052e800180002b010bd0d4bd8680023002100f053
:1052f8006dfb0b4a002300f04bfc010000230093d8
:1053080000220020fef750fa20600123421ce7d05b
:10531800fff794fd0023e3e70123e1e7503800207d
:0453280040420f00f0
:020000040000fa
:10532c0010b5124a00e01a0013688342fbd351688f
:10533c005418a04208d041684418a34209d0036015
:10534c00904200d0106010bd4068411851601000b0
:10535c00f1e7074c2468a34206d05b6859184160fa
:10536c0013681b680360ebe70460e9e7643a00200c
:04537c00e43a0020ef
:020000040000fa
:1053800000b583b00d4b01930023009380220c499c
:105390000c48fcf7dffa012801d003b000bd72b65b
:1053a000094b012252421a60084b02321a60084b24
:1053b00000221a6000f08afcefe7c0461c3b002088
:1053c000346e0000314b0000203b00202c3b0020bd
:0453d000303b00204e
:020000040000fa
:1053d40010b5002307228021152001f083f808214d
:1053e4000e20fff73bfb002001f06efc0a4b00226d
:1053f4001a701620fcf7acf8084b1b78ff203e2be4
:1054040005d81802c01a3e21fef758ffc0b2034b5c
:10541400187000f08fff10bd2c3900200d390020ca
:020000040000fa
:10542400f0b50f0087b0039015001049072204a8b7
:105434001c0001f0f5fbbb687e6802933f68002df9
:1054440000d104ad002c03d1280001f007fb0400b7
:10545400002e02dbb44200d934000097029b2200e4
:1054640029000398fff72ff907b0f0bd446e000040
:020000040000fa
:1054740070b582b00190846ca36b0026e26b9342fa
:1054840002d3300002b070bd4523e55c6db200224a
:1054940001a92000fff790f906006b1c04d0013528
:1054a4006db24523e554ece7636a002be9d0200094
:0e54b4002430fff745f90028e3d00126e1e798
:020000040000fa
:0254c200704731
:020000040000fa
:1054c40083060dd43f2318400c4b1b7e052b0dd0b7
:1054d4000a4bdb7c002b0dd1094b181ac07a08e06b
:1054e40043421f201840404240b2ede7054b181ad2
:1054f400c07a7047044b181ac07afae7f0380020d3
:0c550400f8610000d0610000206200008f
:020000040000fa
:1055100000b5c3b00f4b1b78022b03d0012b0dd06d
:1055200043b000bd0b4b00221a7001ab12321a704f
:1055300000221900084801f067f8f1e7054b032243
:105540001a7001ab10321a7000221900024801f0e3
:0c5550005bf8e5e7623b0020703a0020a9
:020000040000fa
:10555c0070b5050043681e788c2000f0edfb041e2e
:10556c0019d00368002b16d0981b8c305860002e75
:10557c0005d06968002902d0320001f04dfb2100f2
:10558c00054800f083fe2868002801d000f0e0fcfc
:0c559c00002000f0f3fe70bd243a002057
:020000040000fa
:1055a80000b5c3b00e4b1b78002b03d0012b0bd0da
:1055b80043b000bd01f001fc0a4b1b78002bf7d06b
:1055c800074b01221a70f3e70548074a01a904307e
:1055d80001f028f80028ebd001a8fdf7b9fae7e7b1
:0c55e8006c3a0020673b0020ffff000031
:020000040000fa
:1055f40010b50e4b0e4a934207d30e48016800299a
:1056040007d14368002b04d110bd00211970013368
:10561400f1e704008368084a9bb20c349b009b5852
:1056240042682000984780002018e7e70000002027
:0c5634000000002058050000fc6b000086
:020000040000fa
:1056400010b5064c2378002b07d1054b002b02d058
:10565000044800e000bf0123237010bd1039002072
:105660000000000000000000044b10b5002b03d028
:105670000349044800e000bf10bdc0460000000020
:085680001439002000000000b5
:020000040000fa
:10568800104bda7d930606d43f2313400b2b11dc15
:10569800002b10da09e052421f2313405b425bb231
:1056a8001a001832f2da19235b421f2213408132a2
:1056b800134304e00b23802252421343dbb2014a16
:0856c800d3757047f038002093
:020000040000fa
:1056d00070b5104c0423237503226275053ba37338
:1056e000e373237363730126e6740025257629335b
:1056f00023740423637428236376203ba376033b3f
:10570000e37622778533e375fff7beffa674a575b0
:0857100070bdc046f038002016
:020000040000fa
:1057180010b50e4b1b88002b05d0013b9bb20b4ae2
:105728001380002b0ad00a4b1b88002b05d0013ba5
:105738009bb2074a1380002b04d010bd054b0022f2
:105748001a70f0e7fdf7a0fef7e7c046823a00209e
:08575800c2380020603b002074
:020000040000fa
