:020000040000fa
:10000000f0ff0120812b0101dd4a0101df4a0101de
:10001000e34a0101e54a0101e74a0101000000004d
:1000200000000000000000000000000079f6000160
:10003000e14a010100000000d9f6000145f7000186
:10004000bf38010109190101bf3801010dfa000192
:10005000bf380101bf380101bf380101bf380101bc
:10006000bf380101bf380101bf380101bf380101ac
:100070006dac0001bf380101bf380101bf3801017b
:10008000bf380101bf380101bf380101e50c010192
:10009000bf380101bf380101bf380101bf3801017c
:1000a000bf380101bf380101bf380101bf3801016c
:1000b000bf380101bf3801019d060101bf380101b0
:1000c000bf380101bd1d0101bf380101bf38010169
:1000d000bf380101bf380101bf380101bf3801013c
:020000040000fa
:020000040004f6
:045f8800ffff000017
:020000040000fa
:020000040004f6
:045f8c0000400e843f
:020000040000fa
:020000040004f6
:045f900038fc745f06
:020000040000fa
:020000040004f6
:045f94003844121467
:020000040000fa
:020000040004f6
:045f98000300007191
:020000040000fa
:020000040004f6
:045f9c000000000001
:020000040000fa
:020000040004f6
:045fbc0000000010d1
:020000040000fa
:020000040100f9
:104000000710010044eb0020000000000000000049
:104010000610320018000020000000000000000020
:1040200005100100e3ec002000000000000000008b
:1040300004100100e1ec002000000000000000007e
:1040400003100800e8ec0020000000000000000061
:1040500002100200840000200000000000000000a8
:10406000c44a01010600010cf8b500bff8bc08bc49
:104070009e467047e53d0101f8b500bff8bc08bc9d
:084080009e467047c13d01019d
:020000040000fa
:020000040100f9
:08408800ac9c000001000000e7
:020000040000fa
:020000040100f9
:10409000074b1b681b6823b9054b4ff0ff325a6072
:1040a0007047034b1a68d26812685a60704700bfa5
:1040b00030e7002070b504460e46234b9d68da6851
:1040c000002182f85110d86804300ef002fd40b98a
:1040d0001d4bd9681a69c86a0121814022ea010290
:1040e0001a61b4f1ff3f0cd02c44174bdb685c60c5
:1040f000a5421dd9144b986ad96804310ef0cffc43
:1041000070bd002ef0d0104b9a69d9688a60d968ca
:104110009068c860d96804314160d9680431916001
:10412000da6803f1140151615a6901325a61e7e713
:10413000054d2868e96804310ef0b1fc6b68a342b4
:1041400088bf6c60dce700bf30e7002080b5154c0d
:10415000154f4ff0805606e03e60bff34f8fbff320
:104160006f8f0ff0d8fde36abbb10bf09cfae36be5
:10417000dd68281d0ef0adfc636c013b6364e36aef
:10418000013be3620bf09efa286b0af019f928460e
:104190000af016f9e36a002be7d1a36c012bdbd8f8
:1041a000dfe700bf30e7002004ed00e02de9f84331
:1041b00007460e469846950028460af083f80028e0
:1041c00000f0d180814654200af07cf80446002893
:1041d00000f08f805422002110f010fcc4f83090c1
:1041e0002a46a521484610f009fc043d236b1d44d6
:1041f00025f007058eb1337884f8343053b1334657
:1042000004f134010f3613f8012f01f8012f0ab120
:10421000b342f8d1002384f84330089b042b28bf15
:1042200004239946e3626364261d30460ef029fca0
:1042300004f118000ef025fc2461c9f10503a36107
:1042400064624246394628460bf000fa2060099b1a
:1042500003b11c600bf027fa474b5a6c01325a64c9
:10426000db68002b4bd0444bd3f8e8303bb9424bd2
:10427000db68da6ae36a9a429cbf3f4bdc603e4de2
:10428000d5f8ec300133c5f8ec30e36a2969012236
:104290009a400a432a6103eb830305eb8303db6c3b
:1042a000a3609a68e26056609e60e26a05f1480188
:1042b0009300981801eb8001616105eb8001896c26
:1042c000013105eb800399640bf0fcf9d5f8e83077
:1042d000002b4cd0eb68da6ae36a9a4249d2274b4a
:1042e0004ff080521a60bff34f8fbff36f8f0120e2
:1042f0003be048460af064f84ff0ff3035e01e4bd3
:10430000dc605b6c012bbad11b4d05f148000ef04f
:10431000adfb05f15c000ef0a9fb05f170000ef09d
:10432000a5fb05f184000ef0a1fb05f198000ef04d
:104330009dfb05f1ac0840460ef098fb05f1c00767
:1043400038460ef093fb05f1d4000ef08ffb05f11b
:1043500030000ef08bfb05f114000ef087fbc5f862
:104360000080af628be74ff0ff30bde8f88301209b
:10437000fbe70120f9e700bf30e7002004ed00e093
:1043800070b504460bf08ff9002c3ed0251d284651
:104390000ef09ffb78b9e26a02eb8201264b03eb39
:1043a00081039b6c3bb924480369012101fa02f2a5
:1043b00023ea02020261a36a1bb104f118000ef0a5
:1043c00088fb1d4bd3f8ec200132c3f8ec20db68ee
:1043d000a3421dd0184a536c013b5364fff758feab
:1043e0000bf070f9144bdb68a34205d0206b09f089
:1043f000e7ff204609f0e4ff0f4bd3f8e8301bb18c
:104400000d4bdb68a3420dd070bd0b4bdc68bde7e4
:10441000094e294606f130000ef036fbf36a0133ef
:10442000f362dde7054b4ff080521a60bff34f8f08
:10443000bff36f8fe8e700bf30e7002004ed00e036
:10444000f8b5184bdb68834223d004460bf02bf9f8
:104450006569144b1e689f6a0bf034f9b5421ad097
:10446000bd421ad0104b9d4207d0104b9d4216d032
:10447000002d0cbf042001200ce0a36a0bb1022028
:1044800008e094f85030dbb2012b0cbf022003206f
:1044900000e00020f8bd0220fce70220fae704203b
:1044a000f8e700bf30e7002044e7002060e7002085
:1044b00010b504460bf0f7f824b1e46a0bf002f9ea
:1044c000204610bd014bdc68f7e700bf30e7002055
:1044d000eff311834ff0200282f31188bff36f8f47
:1044e000bff34f8f18b1c06a83f311887047014a38
:1044f000d068f8e730e70020f8b50446042928bf63
:1045000004210d460bf0cff87cb1636cab4231d087
:104510000ed2324ad268a2422fd0304ad268d76a2d
:10452000af428cbf0027012708e02c4bdc68ece78a
:104530002a4ad768a74214bf00270127e66ab34278
:1045400008bfe5626564a369002ba4bfc5f105053a
:10455000a56106eb8603224a02eb830362699a4255
:104560000dd03fb11f4b4ff080521a60bff34f8ff9
:10457000bff36f8f0bf0a6f8f8bd0027dee7251d0f
:1045800028460ef0a6fa38b914490b69012202fa3e
:1045900006f623ea06060e61e26a104b186901214d
:1045a00091400143196102eb820203eb8202d26c5b
:1045b000a2609168e1604d609560e16a03f1480096
:1045c0008a00551800eb8500606103eb8500806c64
:1045d000013003eb85039864c3e700bf30e7002098
:1045e00078e7002004ed00e038b5234bdb68834218
:1045f00009d040b104460bf056f862691f4b9a424d
:1046000002d00bf05ff838bda36a1d4a9342f8d080
:10461000002bf6d1251d28460ef05bfae26a164bf8
:104620001869012191400143196102eb820203ebf9
:104630008202d26ca2609168e1604d609560e16a8f
:1046400003f148008a00551800eb8500606103eb18
:104650008500806c013003eb85029064db68e26ac0
:10466000db6a9a42cdd3074b4ff080521a60bff3fa
:104670004f8fbff36f8fc4e730e7002044e700207f
:1046800004e8002004ed00e000b583b0124b019374
:10469000002300934ff4807210491148fff786fd04
:1046a000012804d00f4b1b6803b05df804fb4ff0ea
:1046b000200383f31188bff36f8fbff34f8f0a4b33
:1046c0004ff0ff325a600122c3f8e82000229a60be
:1046d0000bf060f8e6e700bf20e80020484b01013e
:1046e0004d41000108ed002030e7002008b54ff0f3
:1046f000200383f31188bff36f8fbff34f8f034bfa
:104700000022c3f8e8200af0cdff08bd30e7002002
:10471000034ad2f8f4300133c2f8f430704700bfd6
:1047200030e70020014b9868704700bf30e7002059
:10473000014b9868704700bf30e70020014b586c70
:10474000704700bf30e70020034610b103f134008a
:104750007047014bdb68f9e730e700202de9f843ab
:10476000614bd3f8f430002b40f0b3805e4b9d6872
:1047700001359d60f5b15c4b5b68ab4226d90024e6
:10478000594bda68d26a02eb820203eb82039b6c1c
:10479000022b28bf0124544bd3f8fc30002b00f02f
:1047a0009580514bd3f80031002b18bf01242046cf
:1047b000bde8f8831a68996a19609a62d3f8f820fc
:1047c0000132c3f8f820fff763fcd4e70024464a1f
:1047d00020464ff0010902f148063de0424b4ff000
:1047e000ff325a60cce7404b5960c9e7d96ad2f82a
:1047f000108009fa01fe4eea080ec2f810e001eb43
:10480000810102eb8101c96c9960d1f808e0c3f81d
:104810000ce0cef804c0c1f808c0d3f82cc04feab1
:104820008c0101eb0c0e06eb8e0ec3f814e001ebcd
:104830000c0e02eb8e0edef848e00ef1010e614424
:1048400002eb8101c1f848e0d2f80cc0d96adcf86b
:104850002c30994288bf012413681b68002bbdd0ff
:104860001368db68db6859688d42bcd3d3f814e069
:10487000d9689f68b9609f684f6003f1040cdef847
:104880000410614504bfd968cef804105861def801
:1048900000100139cef80010d3f828e0bef1000f67
:1048a000a4d0196adf69b960df694f6003f11808a5
:1048b000def80410414504bf196acef8041098626e
:1048c000def800100139cef800108fe70ff024fa5f
:1048d00067e7054ad2f8fc300133c2f8fc300ff02c
:1048e0001bfa002463e700bf30e70020f8b50af0a8
:1048f000dafe494bd3f8f420013ac3f8f420d3f898
:10490000f430002b40f08280434b5b6c0bb90024e9
:104910007de00023404a1c46012502f14806d2f8fa
:10492000d41000294dd0d2f8e030db68996ad869fc
:104930001f6a8760186adf69476003f118004f68d3
:10494000874204bf186a48609c62086801380860a2
:1049500059699f68d868b8609f684760181d4f689c
:10496000874204bfdf684f605c610f68013f0f60e2
:10497000d96ad2f810c005fa01f747ea0c071761a7
:1049800001eb810102eb8101c96c99608f68df60e6
:1049900078608860d86a81000f1806eb87075f612e
:1049a0000f1802eb8707bf6c0137014402eb81014e
:1049b0008f64d168d86ac96a8842b0d3c2f80051fe
:1049c000ade70bb1fff764fb134bd3f8fc407cb1b0
:1049d0001e46012501e0013c06d0fff7bffe00287e
:1049e000f9d0c6f80051f6e70b4b0022c3f8fc20c3
:1049f000094bd3f8004154b1084b4ff080521a6074
:104a0000bff34f8fbff36f8f012400e000240af043
:104a100059fe2046f8bd00bf30e7002004ed00e05d
:104a200038b505460c46fff773fe164b98682a68a2
:104a3000144482420bd9a24202d82c60002410e018
:104a4000a04202d32c6000240be02c6004e0a242c0
:104a500001d8a04212d22c600021201afff72afbb5
:104a60000124fff743ff38b9074b4ff080521a601b
:104a7000bff34f8fbff36f8f204638bd2c600024eb
:104a8000efe700bf30e7002004ed00e010b540b9cb
:104a90000a4b4ff080521a60bff34f8fbff36f8ff6
:104aa00010bd0446fff734fe00212046fff702fb4d
:104ab000fff71cff0028f3d1eae700bf04ed00e098
:104ac00010b50446fff724fe0af0edfd054bd3f8c0
:104ad000fc002044c3f8fc000af0f4fdfff706ffd9
:104ae00010bd00bf30e7002038b50446fff710fec8
:104af0002046fff7a5fc022804d00024fff7f6fead
:104b0000204638bd251d28460df0e3ff0af0cbfdf9
:104b1000a36a33b104f118000df0dbff012384f820
:104b200051300af0cffde26a154b1869012191401e
:104b30000143196102eb820203eb8202d26ca26094
:104b40009168e1604d609560e16a03f148008a0078
:104b5000551800eb8500606103eb8500806c013027
:104b600003eb85029064db68e26adb6a9a4204d94f
:104b70000124034bc3f80041c0e70124bee700bf96
:104b800030e70020244bd3f8f43023b1224b01222c
:104b9000c3f80021704710b51f4b0022c3f8002155
:104ba000db681b6b1a68b2f1a53f03d15a68b2f1fa
:104bb000a53f21d0184bd868d96834310ff099f847
:104bc000154a1369b3fa83f3dbb2c3f11f039900eb
:104bd000c81802eb8000c46c6468c46419440246bf
:104be0005032944211d00c4a03eb830302eb83034f
:104bf000db6cdb68d36010bd9a68b2f1a53fd9d1f8
:104c0000db68b3f1a53fd5d1dae760680a4602490f
:104c100001eb8202d064e6e730e7002038b50446b5
:104c20000af041fd8cb3251d28460df052ff78b9de
:104c3000e26a02eb8201264b03eb81039b6c3bb9da
:104c400023480369012101fa02f223ea0202026108
:104c5000a36a1bb104f118000df03bff29461d4863
:104c60000df012ff94f85030dbb2012b04bf00238b
:104c700084f850300af026fd154bd3f8e8303bb9e4
:104c8000134bdb68a3420ad038bd114bdc68cae77e
:104c90000af009fdfff7fcf90af014fdf0e70c4bf0
:104ca000d3f8e83043b10c4b4ff080521a60bff399
:104cb0004f8fbff36f8fe7e7054b5a695b6c9a42e2
:104cc00003d1034b0022da60dee7fff75bffdbe78f
:104cd00030e7002044e7002004ed00e010b50c466a
:104ce000044bd96818310df0dafe01212046fff798
:104cf000e1f910bd30e7002038b50d4bdc6841f01c
:104d00000041a1614168dc68e161dc688d68256271
:104d1000dc6818346c60dc6818348c60db6898627e
:104d200003680133036001211046fff7c3f938bd62
:104d300030e7002030b4c368db689a6ad869196a22
:104d40008160d869486003f118005168814204bf4e
:104d5000196a5160002199621168013911602a4a6b
:104d6000d2f8f420002a3dd15a699868d968816048
:104d7000986848601c1d5168a14204bfd968516001
:104d800000215961116801391160d96a1e4a1569fb
:104d9000012088402843106101eb810102eb810171
:104da000c96c99608868d86044608c60d86a02f1e8
:104db000480481000d1804eb85045c6102eb850456
:104dc000a46c013402eb850294640f4ad168da6a5c
:104dd000cb6a9a4283bf01200b4bc3f8000100202d
:104de00030bc7047084ad2f8d810d9618c681c6270
:104df0006060886002f1d4019962d2f8d410013168
:104e0000c2f8d410e1e700bf30e7002030b441f031
:104e100000410160c3680269416884688c608168f0
:104e200044684c605168814204bf81685160002130
:104e300001611168013911605a699868d968816007
:104e4000986848601c1d5168a14204bfd968516030
:104e500000215961116801391160d96a144a156934
:104e6000012088402843106101eb810102eb8101a0
:104e7000c96c99608868d86044608c60d86a02f117
:104e8000480481000d1804eb85045c6102eb850485
:104e9000a46c013402eb85018c64d168da6acb6ab8
:104ea0009a4203d9024b0122c3f8002130bc70475b
:104eb00030e7002010b504460af0f5fb044bd3f8a8
:104ec000f82022609b6863600af0fcfb10bd00bf05
:104ed00030e70020034bd3f8f82002609b68436062
:104ee000704700bf30e7002070b505460c460af059
:104ef000dafb194b9a68db6893f851304bb1164bcb
:104f0000db68002283f8512001240af0dbfb2046f5
:104f100070bd2368b3f1ff3f1bd069680e48d0f81d
:104f2000f8002e68864205d0914203d80023236002
:104f30000124eae7501a834203d8002323600124a6
:104f4000e3e79b1a0b4423602846fff7c3ff0024c6
:104f5000dbe70024d9e700bf30e70020024b012245
:104f6000c3f80021704700bf30e70020014bd8682c
:104f7000704700bf30e70020002858d070b50446c5
:104f8000c26a2c49c968c96a8a4247d28169002924
:104f900005db2849c968c96ac1f10501816102ebd5
:104fa0008202254901eb82026169914205d0214ac2
:104fb000d268d26ae262012038e0251d28460df051
:104fc00088fd38b91b490b69e06a0122824023ea57
:104fd00002030b61174bda68d26ae2621e69012094
:104fe00000fa02f13143196102eb820203eb820203
:104ff000d26ca2609168e1604d609560e16a03f156
:1050000048058a00561805eb8605656103eb8604a2
:10501000a46c044403eb86039c6407e0054ad26851
:10502000406cd36a98422cbf0020012070bd002044
:10503000704700bf30e7002078e7002000283ed00e
:1050400070b50446826c013a8264c06a616c884221
:1050500037d00ab1002070bd251d28460df039fd5e
:1050600038b919490b69e06a0122824023ea020338
:105070000b61636ce362c3f10502a261124a166917
:10508000012000fa03f13143116103eb830302ebca
:105090008303db6ca3609968e1604d609d60e16a09
:1050a00002f148058b005e1805eb8605656102eb91
:1050b0008604a46c044402eb86029464cbe70020cf
:1050c00070470020c7e700bf30e70020002849d024
:1050d00038b50446426c914238bf1146c26a8a42d2
:1050e00002d0806c012800d038bde162a0690028a0
:1050f000a4bfc1f10501a16102eb82021a4901ebd3
:10510000820261699142efd1251d28460df0e1fc34
:1051100038b916490b69e06a0122824023ea02038a
:105120000b61e26a114b1869012191400143196139
:1051300002eb820203eb8202d26ca2609168e16012
:105140004d609560e16a03f148008a00551800eb54
:105150008500606103eb8500806c013003eb850303
:105160009864c1e7704700bf78e7002030e700206f
:10517000044bda689069d968da68cb6ac3f1050331
:105180009361704730e70020054bdb6823b1044b87
:10519000da68936c01339364014bd868704700bfa1
:1051a00030e7002070b504460e4615460af07bfa3b
:1051b000204bdb6804f1120203eb82035b6833b916
:1051c0001c4bdb682344012283f85020e5b90af028
:1051d00079fa0af068fa174bdb6804f1120203eb64
:1051e00082035d6835b1e6b1124bdb6803eb8203e5
:1051f00000225a600f4bdb681c44002384f85030b7
:105200000af060fa284670bd11462846fef752ffa4
:10521000094b4ff080521a60bff34f8fbff36f8f6f
:10522000d5e7044bdb686a1e04f1120103eb81032e
:105230005a60dfe730e7002004ed00e0f8b50446ef
:105240000f4615461e460af02efa274bdb6823440c
:1052500093f85030dbb2022b0ed02349cb6803eb1e
:105260008403da6c22ea0707df64cb682344012257
:1052700083f85020069bfbb90af024fa0af013facf
:105280003eb1194bdb6804f1120203eb82035b6849
:105290003360154bdb68234493f85030dbb2022bac
:1052a00017d00025104bdb681c44002384f85030d5
:1052b0000af008fa2846f8bd11461846fef7fafe2d
:1052c0000a4b4ff080521a60bff34f8fbff36f8fbe
:1052d000d2e7054bdb6803eb8403da6c22ea0505b1
:1052e000dd640125dee700bf30e7002004ed00e0cb
:1052f0002de9f04104460d4617461e46ddf818809c
:105300000af0d1f9b8f1000f06d005f1120304eb51
:1053100083035b68c8f80030631993f85010c9b272
:10532000022283f85020731e032b08d8dfe803f015
:10533000020f151a04eb8505eb6c1f43ef6401297e
:1053400017d001240af0bef92046bde8f08104eb35
:105350008505eb6c0133eb64f1e7123504eb850551
:105360006f60ece7022945d0123504eb85056f60cc
:10537000e5e76369a268e1689160e268a16851604d
:10538000201d5a68824204bfe2685a6000226261ae
:105390001a68013a1a60e36a18490d6901229a40b5
:1053a0002a430a6103eb830301eb8303db6ca360f5
:1053b0009a68e26050609860e26a01f148009300e8
:1053c0009d1800eb8500606101eb8500806c013069
:1053d00001eb85039864cb68e26adb6a9a420bd9d9
:1053e000074b4ff080521a60bff34f8fbff36f8fa0
:1053f0000124a7e70024a5e70124a3e730e7002064
:1054000004ed00e0f0b4049deff311864ff02004aa
:1054100084f31188bff36f8fbff34f8f2db101f16c
:10542000120400eb840464682c60451895f8504021
:10543000e4b2022785f85070013b032b08d8dfe85f
:1054400003f0020e141900eb8101cb6c1a43ca64fd
:10545000012c16d0012086f31188f0bc704700ebb8
:105460008101cb6c0133cb64f2e7123100eb810197
:105470004a60ede7022c5ed0123100eb81014a60f8
:10548000e6e72f4bd3f8f430002b41d14369826813
:10549000c1689160c26881685160041d5a68a24267
:1054a00004bfc2685a60002242611a68013a1a6059
:1054b000c26a234b1d69012191402943196102eb06
:1054c000820203eb8202d26c82609168c1604c6000
:1054d0009460c16a03f148048a00551804eb8504fe
:1054e000446103eb8504a46c013403eb85039c64e5
:1054f000134bdb68c26adb6a9a421ed9059b13b163
:105500000123059a136001200d4bc3f80001a2e7a7
:105510000b4bd3f8d820c2619468046200f11801e3
:105520006160916003f1d4028262d3f8d420013229
:10553000c3f8d420dce700208de701208be700bf13
:1055400030e70020f0b4eff311854ff0200383f330
:105550001188bff36f8fbff34f8f441894f850300a
:10556000dbb2022684f8506000eb8101cc6c013480
:10557000cc64012b03d085f31188f0bc70472c4b11
:10558000d3f8f430002b3fd143698168c4688c6044
:10559000c16884684c60061d5968b14204bfc16887
:1055a000596000214161196801391960c16a204bb5
:1055b0001f6901248c403c431c6101eb810103eb1a
:1055c0008101c96c81608c68c46066608e60c46a49
:1055d00003f14806a1000f1906eb8706466103ebad
:1055e0008706b66c013603eb87039e64104bdb68bd
:1055f000c16adb6a9942bed90ab1012313600c4b20
:105600000122c3f80021b6e7094bd3f8d810c161d5
:105610008e68066200f1180474608c6003f1d40196
:105620008162d3f8d4100131c3f8d410dee700bf93
:1056300030e7002038b50d46044660b10af033f873
:10564000631993f85030dbb2022b07d000240af024
:1056500039f8204638bd044bdc68efe72c440023c2
:1056600084f850300124f2e730e7002070b50e4690
:105670001546044660b10af016f804eb8601cc6cbe
:10568000ca6c22ea0502ca640af01cf8204670bd02
:0c569000014bdc68efe700bf30e70020b2
:020000040000fa
:020000040100f9
:10569c00704738b5054b1c78013c1c70044c012537
:1056ac0025705b6803b1984738bd00bf2ceb002018
:1056bc00e0ec002070472de9f04106460f4690467d
:1056cc0000210a480cf0dbf970b1044603685bb1a9
:1056dc005d6835b19b7c012b03d042463946304680
:1056ec00a84720460df0d0ffbde8f08164000020f3
:1056fc0018b1012806d000207047064b5b780b7060
:10570c0001207047044b1a880a701b881b0a4b70c7
:10571c0001207047e0ec00208400002038b510b167
:10572c000025284638bd0c4604f041fc05460028ef
:10573c00f7d02278034b5a7041f2040005f054fc68
:10574c00efe700bfe0ec002010b582b004464ff646
:10575c00ff73adf806300023514a1370514a138081
:10576c00037c002b42d1504b01221a724d4b41f25b
:10577c0034221a800023194662681a441172626836
:10578c00d018d15041600a33322bf5d1002404f0eb
:10579c0023fc464b5b78ff2b7cd10df1060004f00b
:1057ac00ddfb404804f0c4fb404bd9789a7842eac0
:1057bc0001129a7001231a463d4909783d4803f0bd
:1057cc0027f9394bd8600a213b480cf03ff90a21e4
:1057dc003a480cf03bf90a2139480cf037f90a2108
:1057ec0038480cf033f9204602b010bd40f60140a9
:1057fc0005f048fda8bb40f6014005f066fda0bbd6
:10580c0041f208014ff480500df010fa41f2010101
:10581c004ff480500df00afa41f202014ff480501f
:10582c000df004fa41f203014ff480500df0fef933
:10583c0041f204014ff480500df0f8f941f20501ea
:10584c004ff480500df0f2f941f206014ff4805004
:10585c000df0ecf941f207014ff480500df0e6f930
:10586c0003e040f6014005f030fd0e4b1b88013b78
:10587c009bb24ff6fd7293423ff675af0a4b07226f
:10588c001a72114b1b681bb1002098470f247ee73e
:10589c000f247ce70d490020fff740ff7de700bf98
:1058ac0098000020840000202ceb0020e0ec00206d
:1058bc00b4eb00208d5d000164000020700000201e
:1058cc00880000205400002080000020e1ec002023
:1058dc00032800d9704708b5064ad070937803f0b6
:1058ec000f0343ea0010907041f2050005f07cfbb9
:1058fc0008bd00bfe0ec00202de9f04f85b02b4c2b
:10590c0000252574002a4bd101929b460e468146f8
:10591c008df80f5001238b400133c3eb0315ad02ff
:10592c00234ba3fb0535ad0c01354ff0ff0acdf829
:10593c0000a008e0a2469df80f300133dbb28df8d1
:10594c000f301f2b2ed804f03ffe9df80f200123a3
:10595c00934003ea09030342edd00df10f0100203f
:10596c00fff7dcfe114b5d8201221a74019c9046fc
:10597c001f463146404604f007fe844238bf0446b9
:10598c00e4b23b7c002bf4d15445d4d29df80f30bb
:10599c000093bbf1000fcdd08bf80040a246cae7b4
:1059ac00ff230093009805b0bde8f08f2ceb00208e
:1059bc0083de1b43f0b583b03e4e357a05f0fb0514
:1059cc00012d02d0002003b0f0bd1d4614460e463a
:1059dc00384b02221a7201283dd043b243b1904297
:1059ec0060d00120a847334b01221a720020eae74d
:1059fc0000238df805304ff6ff73adf806302e4eb0
:105a0c0041f2342333800df1060004f0a7fa30463e
:105a1c0004f08efa14f0010f0dd19df8052001321f
:105a2c00d2b2012000e00a464000511cc9b2044227
:105a3c00f9d08df805200df105010020fff76efe61
:105a4c001c4b07221a7240f6014005f0cdfa0020db
:105a5c00a8470120b7e74ff6ff73adf80630164f95
:105a6c0041f234233b800df1060004f077fa3846fe
:105a7c0004f05efa0df10503002231462046fff7d3
:105a8c003bff8df8040001a90020fff747fe094bee
:105a9c0007221a7240f6014005f0a6fa0020a8472a
:105aac00012090e70120a847024b01221a72002026
:105abc0089e700bf2ceb00208400002018b1034aba
:105acc005061012070470020704700bf2ceb002074
:105adc00074b1b685b6803f13201002093f9082027
:105aec00002abcbf0130c0b20a338b42f6d17047da
:105afc00aceb002002780b789a420ed110b403461e
:105b0c00073013f8014f11f8012f944207d183424b
:105b1c00f7d101205df8044b70470020704700203e
:105b2c00f8e72de9f84307462e4bd3f804902e4b9b
:105b3c001b685d680024ff2609e029464846fff7ec
:105b4c00d9ff002849d101340a35052c09d05ffa58
:105b5c0084f895f90830002befdbff2e08bf464682
:105b6c00f1e70024ff2e3bd0204bdb78002b31d10a
:105b7c001f4b1e7006eb860e4fea4e0ef4460023aa
:105b8c00184d19486a68d15c026852686244d15455
:105b9c000133082bf6d1144b1a6853687344197ae5
:105bac0041f08001197253687344197a67f300014c
:105bbc0019720c4b9b68d97853689e448ef8091067
:105bcc000c4b1e70fff784ff0b4b187641f207004d
:105bdc0005f00afa2046bde8f88346460124c1e7e1
:105bec00f124f7e7c8000020aceb0020e0ec00202b
:105bfc0094000020600000202ceb00202de9f843dd
:105c0c0080460f4615461c469df830908c200df0b2
:105c1c0033fd00284ad006460268002a48d0b8f165
:105c2c00000f18bf4ff0000904f0030369f345138c
:105c3c0068f382039df8201061f3c30300215177b0
:105c4c0082f81c8088f0010868f3861363f07f03e8
:105c5c0013759561d7832db1dbb213f0040f1bd0f4
:105c6c002b8893800a9b1361131d93610d9bd3604a
:105c7c009df82c3082f821309df8243082f82030a9
:105c8c000e9b536231460b480bf0e6fe48b90bf005
:105c9c00a5ff0120bde8f88329686b68516093600b
:105cac00e0e730460df0f0fc0020f3e70020f1e7d0
:105cbc000020efe78800002010b588b02a4bdb7875
:105ccc001bb12a4b1b7a042b15d0274b587806286e
:105cdc0001d000283cd1254b07221a72224bdb68dd
:105cec009847214b0022da60204bd86802f08efdd9
:105cfc00042008b010bd8c200df0befc044600281a
:105d0c002ed00368002b2dd081221a70184a51789e
:105d1c00597092789a70174a1268d2681278da70b1
:105d2c000690154a059201200490002203920293da
:105d3c00042301930092034610490988fff75eff84
:105d4c0008b10020d5e720460df09efc0120d0e7dd
:105d5c00054b9978054a1172db6801209847c0e71a
:105d6c000a20c6e70a20c4e79c0000202ceb002088
:105d7c00e0ec0020aceb00202d5e00018400002044
:105d8c002de9f041244b5b8a23b1013b9bb2224aa3
:105d9c00538283b1204b5b8b23b1013b9bb21e4ad8
:105dac00538363b11d4b5b7a002b33d000241b4f04
:105dbc00a0463e460fe0134600221a74eae7fff7ae
:105dcc007bffefe7294630460bf046fe01347a7a2a
:105ddc00e3b29a421ed9414630460bf050fe0546be
:105dec00c0b100680028f1d0037c002bead0013b45
:105dfc00dbb20374002be5d143683bb1827c012af2
:105e0c0004d000f116020521007d984728460df0bc
:105e1c003bfcdbe7bde8f0812ceb002070000020a0
:105e2c0008b5064ad378013bd37019b9044b02224a
:105e3c005a8308bdfff740fffbe700bf9c00002022
:105e4c002ceb002070b582b08df80700124b1c7a39
:105e5c0014b9204602b070bd13460a4600260f49fd
:105e6c00ce700f4d0699e960284600f8042b1946b0
:105e7c000ef02efdac7008236b700323eb70064bf9
:105e8c0004221a720df107013046fff747fcfff7a9
:105e9c0013ff0446dde700bf2ceb0020e0ec0020f4
:105eac009c00002030b589b0044601200df0e4fbc5
:105ebc00d0b105460168b9b182230b700d4b1b683c
:105ecc0004eb84045a6806900b4b0593012304934e
:105edc000020039002910193009002eb44020749c9
:105eec000988fff78bfe08b109b030bd28460df0cc
:105efc00cbfbf9e7aceb00209d56000184000020a1
:105f0c00f8b5ff280bd000eb80046400184b1b681d
:105f1c005b68234493f90830002b1cdbf8bd00248c
:105f2c002546134e27460be033685b6823441f72eb
:105f3c0041f2060005f058f801350a34052dedd074
:105f4c00e8b233685b68234493f90830002bebda32
:105f5c00fff7a8ffe8e7fff7a5ff054b1b685b6899
:105f6c001c440023237241f2060005f03df8d5e7ee
:105f7c00aceb00202de9f04f8bb09df850909df8c4
:105f8c0054a09df85880884c247a072c40f0f68059
:105f9c004c2a00f2f880099316460d46022805d0cb
:105fac00824b1b685c6804f1320b7ce04a780b78fe
:105fbc0003eb02239bb24ff6ff729342f0d1002405
:105fcc0021e0179b7b60794b1b685b6823441a6844
:105fdc005b68ba60fb6087f814907e75324609994d
:105fec0007f116000ef074fc0c233b7400237b7439
:105ffc000123bb7487f8668051466d480bf02cfd6d
:10600c000a34322c14d0694b1b685b6823441b7a0e
:10601c0003f08103802bf3d18c200df02dfb8246f5
:10602c00002800f0b2800768002fcad10027a6e034
:10603c008c200df021fb0446002800f0a88003689a
:10604c00002b00f0a680179a5a6083f814905e75a6
:10605c0000271f7483f8668003f1160a32460999eb
:10606c0050460ef035fc0697524b05930497cdf82d
:10607c000c90cdf808a00196cdf800803b462a463e
:10608c004d4909880120fff7b9fd074620b121468b
:10609c004a480bf0e1fc72e020460df0f5fa6ee098
:1060ac000a34a3452ed0237a03f08103802bf7d139
:1060bc0021462846fff71efd07460028f0d08c200d
:1060cc000df0dafa8346002865d00468002c64d001
:1060dc00179b63602a686b68a260e36084f8149075
:1060ec0066753246099904f116000ef0f1fb0c238b
:1060fc00237484f811a084f8668059462c480bf060
:10610c00abfc3ce08c200df0b7fa8346002846d05f
:10611c000468002c45d0179b63602a686b68a260ea
:10612c00e36084f8149066750027277484f811a036
:10613c0084f8668016343246099920460ef0c8fb66
:10614c0006971c4b0593cdf810a0cdf80c9002943b
:10615c000196cdf800803b462a46174909883846f7
:10616c00fff74cfd074620b1594614480bf074fc60
:10617c0005e058460df088fa012700e00027384664
:10618c000bb0bde8f08f0027f9e70027f7e70027f1
:10619c00f5e70027f3e70027f1e70027efe70027f3
:1061ac00ede70027ebe700bf2ceb0020aceb002069
:1061bc0070000020c3560001840000206400002001
:1061cc002de9f0478ab0a34b5b7a13b1a24b1b7835
:1061dc002bb9a24b5b7a3bbb0ab0bde8f087002120
:1061ec009c480bf04cfc04460268002af1d09c4bf6
:1061fc00d16859601978013119701369516a03918a
:10620c009849029192f82110019192f82010009176
:10621c0050699169d26903f0f5fe8f4b00221a7018
:10622c0020460df031fad4e704f053f80028d3d00f
:10623c008d4b1a78c2f3c001c2f3800361f3c30320
:10624c0002f00301012914bf0021012161f3451360
:10625c00c2f3c01161f3861384490b7012f0800fe6
:10626c0028d1814a108a814b5880117b197391680f
:10627c009960947b9c73527b5a731b7813f0200f9c
:10628c0000f0fb810b78872b00f0fc8016d8812b5b
:10629c003ad0822b00f08781042b40f0f281744bb2
:1062ac005b7a002b00f0ed810025dff8c4912f46be
:1062bc00c84645e16c4b5a684a60d2e7922b00f015
:1062cc00be81972b00f01a81912b40f0da81644b40
:1062dc001b7a042b40f0d5814b78012b00f2d18135
:1062ec00644b1a884ff6ff739a4200f08e805f4b16
:1062fc009b685b78012b00f09880002b40f0a58008
:10630c005d4b00225a7093e08c200df0b5f90446d9
:10631c00002800f0b681504bdb78012b00f2b181e4
:10632c00524b9b6859784c4a5278914240f0a98163
:10633c004e4a52884ff6ff718a4208d04d4909885f
:10634c00914204d0494a127b022a00f2a281987829
:10635c00fff7e7fb0546404bdb78012b2cd022687e
:10636c00002a00f08e81912313705570012d4ad8ac
:10637c00394b9b789370414b1b68db681b78d3704f
:10638c0004263a4906943e4b0593012304930020be
:10639c000390029201960a78c2f3c00200924a68f6
:1063ac004988fff72bfc50b3002d40f06a8141f275
:1063bc00060004f019fe64e1431edbb2012bced9ba
:1063cc002268002a00f05d8191231370f32353702f
:1063dc00264906942a4b059301230493002003902d
:1063ec000292022201920a78c2f3c00200924a6819
:1063fc004988fff703fc002840f04381f325204631
:10640c000df042f9d0e70226bbe7adf82630194c67
:10641c0020800df1260003f0a1fd204603f088fd3d
:10642c0041f2020004f0e0fd61e7134b06225a70c2
:10643c00114b0022da700d4b9b689878fff771fbbb
:10644c0040f6014004f0d0fd1be10b4b01225a70c9
:10645c00eee700bf88000020e0ec00205400002094
:10646c002ceb00209f560001e8000020c800002003
:10647c0070000020840000209c000020aceb002069
:10648c00c15600018c200df0f7f80446002800f0ee
:10649c00f880834bdb78022b00f2f380814b9b68f6
:1064ac005a787f4b5b789a4240f0eb800268002a66
:1064bc0000f0e78097231370794b9b7853707a4bdd
:1064cc001b68db681b78937076490690774b0593b5
:1064dc0001230493002003900292032201920a7874
:1064ec00c2f3c00200924a684988fff787fb002874
:1064fc0040f0c78020460df0c7f8c2e06c4b1b7a09
:10650c00092b40f0be806b4c00256570684b072250
:10651c001a72e3682946624a50789847e560b0e001
:10652c00314665480bf098faabe0314640460bf02b
:10653c0093fa013599f80920ebb29a4240f2a18006
:10654c00394640460bf09bfa06460468002cf0d006
:10655c0004f1080a5146534b5868fff7cbfa002850
:10656c00e3d0a07c0697554b0593637c003318bf92
:10657c0001230493237d039304f116030293637d9b
:10658c00019394f8663000933b4652464c49098877
:10659c00003018bf0120fff731fb0028c0d1304676
:1065ac000df072f8c5e702200df066f88046002861
:1065bc0067d00768002f64d092233b70394bd3f817
:1065cc000490394b1b685d68002404e00134e4b28c
:1065dc000a35052c2cd02e4695f90830002bf5da0f
:1065ec0029464846fff786fa0028efd00025357279
:1065fc0041f2060004f0f8fc7d70052c1dd002223f
:10660c002849cdf81880294b0593012304930020c9
:10661c000390029701920a78c2f3c00200924a6872
:10662c004988fff7ebfa60bb40460df02df828e0e7
:10663c0001235a1cf021f954e2e70223f9e74b78c5
:10664c00fbb9184b5f68184b1b685c6804f132058a
:10665c0002e00a34ac4214d094f90830002bf8da7a
:10666c0021463846fff746fa0028f2d00023237261
:10667c0041f2060004f0b8fc03e00d4b1b7a072b2b
:10668c0002d003f025fea7e5094b5b690548984746
:10669c00f7e7034bdb78012b3ff492aef2255ee675
:1066ac00e0ec0020c8000020aceb00209d5600015f
:1066bc002ceb0020b800002064000020c356000121
:1066cc008400002018b1034a10600120704700209c
:1066dc00704700bf8000002008b5012004f09cfc2e
:1066ec0008b9002008bdbff34f8f0549ca6802f4f2
:1066fc00e062044b1343cb60bff34f8f00bffde749
:08670c0000ed00e00400fa05b5
:020000040000fa
:020000040100f9
:1067140008b5044b186818b1804780f00100c0b276
:1067240008bd00bfd8e0002009b91046704780b109
:10673400037883ea122383ea131343ea022282eae8
:10674400033282ea431292b200b10130013989b2b4
:10675400eae7ff23ede72de9f04f85b081460e9e71
:106764008a46904606b11e4443449cb24746554669
:10677400a74203d1012005b0bde8f08f95b36a4666
:1067840010232946484606f0a9febdf80420944289
:1067940008d9bdf8063013449bb29f4202d29c42f2
:1067a40003d91f46bdf80a50e8e79742a4eb02015b
:1067b40028bfe31b89b234bf0b469bb2a4eb03048e
:1067c40032bfbdf80ab04746d346a4b246b110352d
:1067d4002944f61ac91a324689b2484606f07efea2
:1067e4005d46c5e72846c6e72de9f74fd488968865
:1067f400dff8588082468b4644f307254ff6ff772f
:10680400002d03da384603b0bde8f08f1ad0a4f5a2
:1068140080741ffa84f94ff48074cdf80080234605
:10682400324659465046fff796ff38b13a4621465c
:106834004046fff779ff2644b6b20746013d6db2e4
:106844004c46dde7002cddd0a146e6e7dce0002085
:1068540010b5094c94f8040106f0defe4ff4005222
:10686400002194f8040106f001ff18b14ff480737d
:10687400a4f8063110bd00bfd8e000202de9f04196
:10688400094c05460e46174613460a46014694f837
:10689400040106f059fe3b463246294694f80401a9
:1068a400bde8f04106f030bfd8e0002003292cd821
:1068b400dfe801f002091b23184bb3f8062110444a
:1068c400a3f806017047154ab2f80631184480b29d
:1068d400c11c4ff6fc730b40984203d90430a2f854
:1068e40006017047a2f8063170470c4ab2f8063127
:1068f4000f33184420f00f00f1e7084ab2f80631cc
:106904003f33184420f03f00e9e74ff0200383f3be
:106914001188bff36f8fbff34f8ffee7d8e00020dd
:106924004ff0200383f31188bff36f8fbff34f8fb2
:10693400fee770b50c4a92f808410023d9b28c42a4
:1069440001d800200be05d1c9b00d118b1f809614f
:10695400864207d1b1f80b2112b10448184470bd26
:10696400fff7deff2b46e9e7d8e00020e1e1002055
:1069740008b5fff7deff00b1408808bd10b5044636
:10698400fff7d7ff40b14ff0200383f31188bff323
:106994006f8fbff34f8ffee7094b93f80801020690
:1069a40001d5fff7bdff421c83f8082103eb8002e9
:1069b40003f20913a2f8094103eb800010bd00bfe4
:1069c400d8e0002008b5fff7b4ff08b9fff7a8ff27
:1069d400064a92f80831013bdbb282f8083102eb37
:1069e4008303d3f80931036008bd00bfd8e0002059
:1069f4002de9f041244cb4f80a33b4f80c63034491
:106a04009bb204f20e37ff2b0546a4f80a3307ebba
:106a1400060004f104080ad82a46414635440df01c
:106a24005bff0126a4f80c533046bde8f081c6f59f
:106a3400807241460df050ff4ff480723946b4f82d
:106a44000601fff71bff06460028edd000214ff496
:106a54008070fff72bffb4f80a53b4f80c13a5f5b4
:106a640080750023adb2a4f80c33a4f80a53002daa
:106a7400dad0c1f580712a4618fa81f138460df052
:106a84002bffa4f80c53cfe7d8e000207fb545f2e4
:106a94004143adf806300d4bcde902300c4bc043f9
:106aa400b3f80e3404904ff6ff7210210df1060076
:106ab400adf81430fff738fe1222adf8040001a936
:106ac4000020fff7dbfe07b05df804fb534e76327f
:106ad400d8e000202de9f04f724c94f804710025a1
:106ae4008fb0122309aa29463846a4f81054a4f8f2
:106af4001254a4f80c53a4f80a5306f0effc0b9bb1
:106b0400039394f804310133dbb2012b94bf84f86e
:106b1400043184f8045194f80431bb4208d14ff095
:106b2400200383f31188bff36f8fbff34f8ffee70a
:106b3400fff78efe0028e4d04ff0000adff87081e2
:106b440080e004eb8a091023b9f80bb105aa594671
:106b5400384606f0c3fc0026bdf81c50adf81a50a8
:106b640005aa59463846adf81860adf81e60adf870
:106b74002060fff739fe4ff6ff72adf814000e21c6
:106b840005a8fff7d1fdf022adf82200ff21464809
:106b94000df032ff05ab03cb1035c8f80000c8f880
:106ba4000410b4f80c2303cbb4f80631c8f8080079
:106bb400adb21344b5f5807fc8f80c10a9f80b31b9
:106bc40019d8394b00933246bdf81c305946384623
:106bd400fff7c1fd50b1b4f80631b4f80c231344e7
:106be400a9f80b312846fff703ff38bb00242046e1
:106bf4000fb0bde8f08f1023b5f5807f2a4628bf7b
:106c04004ff48072a2eb03091ffa89f943440292fc
:106c1400009332464b4659463846fff79cfd002800
:106c2400e4d00298fff7e4fe0028dfd0029bed1abf
:106c34004e44adb2b6b20023002dddd10af10103fa
:106c44005ffa83fa94f8083153453ff67aafb4f803
:106c54000a23fab9b4f80a030021fff727feb4f8af
:106c64000631a4f80e34039b581efff70fff0446a9
:106c74000028bbd002210020fff718fe1222ff21ba
:106c840009a80df0b9fe122309aa0021384606f01e
:106c94005bfcace70549b4f80601fff7effd0028fb
:106ca400d8d1a3e7d8e00020ece00020e6e3002000
:106cb400dce0002008b50a4bb3f80631c3f50053f5
:106cc4009bb283420bd2fff705ff40b94ff020037c
:106cd40083f31188bff36f8fbff34f8ffee708bdb7
:106ce400d8e000202de9f84f344e0446351d89467e
:106cf4004ff48072ff2128460df07efee1884ff6a6
:106d0400ff724846fff710fd4ff6ff7220800e21f8
:106d14002046fff709fd2346e08103cb70606960dc
:106d240003cba860e960e28802f11007bfb2b9f1b1
:106d3400000f07d0b7f5807f17d8494606f1140035
:106d44000df0cafde2881e49b6f80601f02a28bff4
:106d5400f022103292b2fff791fd8046e0881030a5
:106d6400022180b2fff7a2fd25e04ff0000b1020b6
:106d7400b7f5807f3c4628bf4ff48074a4eb000a2b
:106d8400524609eb0b0128440df0a6fd22460c499e
:106d9400b6f80601fff772fd804660b12046022175
:106da4003f1bfff783fdbfb20beb0a031ffa83fb04
:106db4000020002fdcd14046bde8f88fd8e0002049
:106dc400dce000202de9f041674c00258eb084f80a
:106dd40008514ff0ff38ff27122304aa0021284648
:106de40006f07cfbdde906637340013326d19df890
:106df4001230412b22d19df81330542b1ed19df813
:106e04001430532b1ad19df815304e2b16d19df802
:106e14001630762b12d19df81730322b0ed14ff647
:106e2400ff7210210df11200fff77efcbdf8103047
:106e3400834203d146453cbfb0462f46e5b1ff2f00
:106e44002cd1002384f804314ff6ff766ff001054e
:106e5400fff7fefc90b994f804310133dbb2012b47
:106e640084f80431f4d94ff0200383f31188bff37d
:106e74006f8fbff34f8ffee70125ade72846a4f8d7
:106e84000e64fff703fe0028e5d0002384f80831e0
:106e9400012384f814340eb0bde8f0814ff48073fc
:106ea400a4f806313846122309aa002184f8047193
:106eb40006f014fb4ff6ff77b4f80631b3f5005f24
:106ec400e6d2bdf83420ba4201d09a4217d8022142
:106ed4000020fff7ebfc022510236a46b4f80611e4
:106ee40094f8040106f0fafa6a46102312f8011b1a
:106ef400ff291ed1013b9bb2002bf7d1c8e7002527
:106f0400eae729461020fff7d1fcd5e7bdf8026077
:106f14003046fff70efd10b93046fff72ffdb4f8e9
:106f240006314380bdf80830bbb93046fff74afd4f
:106f340013e03a460e216846fff7f6fbbdf80e60f3
:106f44008642ded16a46b4f8061194f80401fff7cc
:106f54004bfcbdf800308342d8d0bdf80600103099
:106f6400294680b2cfe700bfd8e00020034b93f856
:106f740014340bb9fff726bf704700bfd8e00020d8
:106f84002de9ff478a4616469846054630b12bb18f
:106f9400fff7befb044650b1052045e04ff0200347
:106fa40083f31188bff36f8fbff34f8ffee706f1b2
:106fb400100080b2fff77efe2846fff7bafc0746b2
:106fc400a8b3b0f802901d4d10236a46494695f8bf
:106fd400040106f083fabdf808300aeb06029a426f
:106fe40027d8b34218bfbdf80c40adf804a01cbfad
:106ff4000134a4b241466846adf80c40adf80660d1
:10700400adf80a90b5f80641fff76cfe98b1bdf8eb
:107014000c307c80642b4ff0000005d9bdf80230a1
:10702400a5f81034a5f8120404b0bde8f0870320d5
:10703400fae70420f8e70120f6e700bfd8e00020d3
:1070440073b50c4615461e46c0b1bbb1fff790fca4
:1070540080b16319b3f5803f09d201460c4800960c
:107064002b46224690f80401fff775fb20b9042053
:1070740002b070bd0320fbe70020f9e74ff02003c6
:1070840083f31188bff36f8fbff34f8ffee700bf09
:10709400d8e000201fb540b94ff0200383f31188d6
:1070a400bff36f8fbff34f8ffee7fff761fc48b16b
:1070b40001460648102390f804016a4606f00efac9
:1070c400bdf8080005b05df804fb00bfd8e000205f
:1070d4002de9f04f431e14469bb24ff6fd729342c6
:1070e4008bb080460e461dd8b1f5006f1ad8fff755
:1070f4003ffc00bbfff70cfb054648bb06f1100044
:1071040080b2fff7d7fd8d4b93f90821002a80f256
:10711400f7804ff0200383f31188bff36f8fbff321
:107124004f8ffee74ff0200383f31188bff36f8f77
:10713400bff34f8ffee74046fff7acff86420fd008
:107144007e4da5f81084a5f81264fff7e1fa08b1a2
:1071540005200ee0b5f8120470b9b5f810347bb907
:10716400002c00f0e6802346324600214046fff71b
:1071740067ff0bb0bde8f08f103080b2fff79afdc7
:10718400b5f81004fff7d5fb81460028e8d0b0f825
:1071940002b095f80401102306aa594606f09ef998
:1071a400b5f81234ebb9bdf82000103080b2fff707
:1071b40081fdb5f81004fff7bcfb814640b94ff0e0
:1071c400200383f31188bff36f8fbff34f8ffee764
:1071d400b0f802b095f80401102306aa594606f047
:1071e4007df9b5f81224b5f806310493bdf82030c2
:1071f40022b19342adf8202028bf13460022bdf8e7
:107204002010adf81c20adf81e10adf82220adf80a
:1072140024200df1180cbce80300dff824a16860f9
:1072240003f11007caf80410bce80300bfb2b7f5b5
:10723400807fcaf80800caf80c1030d80af110018f
:10724400009195f804015946fff785fa002872d099
:1072540006ab03cbbdf81e206860caf8041003cb4c
:107264001032caf80800caf80c1092b25146b5f8a8
:107274000601fff703fb00283ff472afbdf81e00c0
:107284001030022180b2fff711fb2c4b0022a3f82f
:107294001024a3f81224049ba9f8023060e71546d1
:1072a4001023cdf814a0b7f5807fba4628bf4ff459
:1072b400807aaaeb030292b20392059a1f48134400
:1072c40000932a46039b90f804015946fff743faba
:1072d40088b31b495246b1f80201fff7cffa0028e0
:1072e4003ff43eaf02215046fff7e0fa039ba7ebc1
:1072f4000a072b44bfb29db20023002fd3d1c4e7a9
:10730400214606a8b3f80671adf81a80adf81c50f2
:10731400adf81e60adf82060adf82250adf82450f1
:10732400fff7e0fc38b14046fff728fb4780022016
:107334001fe720461de701201be700bfd8e000201f
:10734400dce00020f0b5074685b040b94ff02003db
:1073540083f31188bff36f8fbff34f8ffee7fff7ff
:1073640007fb00283fd0fff7d3f9044600283cd19f
:107374001020fff79ffc4ff6ff720e216846adf810
:107384000020adf80270cde90144adf80c40fff7e0
:10739400cbf96b46adf80e0003cb154d6860a960c0
:1073a40003cb2e1de860296110223146b5f8060191
:1073b400fff764fa68b91022b5f8061195f80401cc
:1073c40006f054f918b902211020fff76ffa0120d2
:1073d40007e002211020fff769fa3846fff7f2fab6
:1073e400204605b0f0bd0320fbe70520f9e700bf08
:1073f400d8e00020f8b50446fff78af9054668bbd3
:1074040064b106f009f9012006f006f94ff40072a0
:10741400294613480df0f0fa002020e0114d95f8ac
:107424000871e3b29f420cd8fff754fb0028f3d154
:107434004ff0200383f31188bff36f8fbff34f8f97
:10744400fee705eb8403b3f80961304603f0dafd87
:1074540010b93046fff7b6fa0134e2e70520f8bd6b
:10746400e1e10020d8e00020014b1860704700bf24
:10747400d8e0002008b5fff77bfa003018bf0120e0
:1074840008bd08b5fff726fb40b94ff0200383f38e
:107494001188bff36f8fbff34f8ffee708bd00bfa6
:020000040000fa
:020000040100f9
:0474a400012070470c
:020000040000fa
:020000040100f9
:1074a80080b400af4b4b03f5aa5308334a4a1a601d
:1074b800484b03f5b85304334ff480421a60454be8
:1074c80003f5b8531c334ff014521a60414b03f5bf
:1074d800b953424a1a603f4b03f5b9530433404a43
:1074e8001a603c4b03f5b95308333e4a1a60394bce
:1074f80003f5b9530c333c4a1a60364b03f5b953bc
:1075080010333a4a1a60334b03f5b9531433e02267
:107518001a60304b03f5b9531833354a1a602d4bae
:1075280003f5b9531c33334a1a602a4b03f5ba538f
:107538004ff440321a60274b03f5ba5304332e4aee
:107548001a60244b03f5ba5308332c4a1a60214bae
:1075580003f5ba530c332a4a1a601e4b03f5ba5383
:10756800103306221a601b4b03f5ba531433254a0d
:107578001a60184b03f5ba531833234a1a60154b8f
:1075880003f5ba531c334ff400421a60114b03f54c
:10759800bb531e4a1a600f4b03f5bb5304331c4af6
:1075a8001a600c4b03f5bb53083345f233621a607b
:1075b800084b03f5bb530c334ff4f0521a60054bdc
:1075c80003f5bb53103340221a6000bfbd465df877
:1075d800047b7047002001411e00ffffc04646544f
:1075e800a040000c10928fbe18d410007aa64f400d
:1075f80053a948214b055046f1813d8cd3080c0c0a
:107608009002061820875c006400ffff110d4006f9
:107618000529240080b483b000af0023fb7118e073
:1076280000bf00bf00bf00bf00bf00bf00bf00bf5a
:1076380000bf00bf00bf00bf00bf00bf00bf00bf4a
:1076480000bf00bf00bf00bf00bf00bffb79013310
:10765800fb71fb79c72be3d900bf0c37bd465df83a
:10766800047b704780b500af40f65a21012006f030
:107678008bf84ff49e71032006f086f84ff498714a
:10768800042006f081f843f21521052006f07cf865
:1076980043f20601072006f077f84ff40061132043
:1076a80006f072f840f2ad21142006f06df844f2ad
:1076b800e001172006f068f84ff48941182006f019
:1076c80063f84cf68621192006f05ef84ff47e71b7
:1076d8001f2006f059f84ff46861332006f054f87b
:1076e80046f27a213a2006f04ff841f604013e208e
:1076f80006f04af84cf60521442006f045f8012129
:10770800472006f041f84cf60721482006f03cf8df
:10771800ff214f2006f038f84af6ac31512006f028
:1077280033f84df660016b2006f02ef847f6780125
:107738006c2006f029f84ef618116d2006f024f892
:107748004ff6e171712006f01ff84ff6486172207c
:1077580006f01af800bf80bd80b500af4ef24e317a
:10776800082006f011f84ef254313d2006f00cf8ce
:1077780042f20201492006f007f842f2ff61622056
:1077880006f002f842f2ff01642005f0fdff42f224
:1077980002016a2005f0f8ff42f20401752005f0a5
:1077a800f3ff42f204017d2005f0eeff42f2ff7183
:1077b800802005f0e9ff4ef24e31812005f0e4ff0c
:1077c80042f2fa71822005f0dfff4ef24e3183203b
:1077d80005f0daff42f2f571842005f0d5ff4ef28c
:1077e8004e31852005f0d0ff42f2f271862005f077
:1077f800cbff4ef24e31872005f0c6ff42f2ea7108
:10780800882005f0c1ff4ef24e31892005f0bcfffb
:1078180042f2e0718a2005f0b7ff4ef24e318b201c
:1078280005f0b2ff42f2d6718c2005f0adff4ef2a2
:107838004e318d2005f0a8ff42f2fb118e2005f095
:10784800a3ff4ef254318f2005f09eff42f2ed1156
:10785800902005f099ff4ef25431912005f094ffe5
:1078680042f2e011922005f08fff4ef2543193203e
:1078780005f08aff42f2d611942005f085ff4ef2fa
:107888005431952005f080ff42f2ca11962005f088
:107898007bff4ef25431972005f076ff4ff40751e5
:1078a800982005f071ff4ef25431992005f06cffd5
:1078b80042f296119a2005f067ff4ef254319b2050
:1078c80005f062ff42f290119c2005f05dff4ef238
:1078d80054319d2005f058ff42f28a119e2005f090
:1078e80053ff4ef254319f2005f04eff00bf80bd7c
:1078f80080b582b000af0821602005f045ff002365
:10790800fb7104e0fff786fefb790133fb71fb791d
:10791800042bf7d90021602005f036ff00bf083797
:10792800bd4680bd80b586b000af002005f05eff83
:107938000346fb821f2005f059ff0346bb821d202a
:1079480005f054ff03467b82602005f04fff034695
:107958003b82542005f04aff0346fb81592005f07d
:1079680045ff0346bb811a2005f040ff03467b8193
:10797800552005f03bff03463b814f2005f036ffbd
:107988000346fb80742005f031ff0346bb80fb886b
:1079980043f480739bb219464f2005f0f5feb7f902
:1079a8000430c3f30b031bb243f440531bb2bb8038
:1079b800bb881946742005f0e7fe5221002005f027
:1079c800e3fe40f6f8311f2005f0defe4ff62001f9
:1079d8001d2005f0d9fe0421602005f0d5fe42f6f1
:1079e800b051542005f0d0fe48f21c01592005f092
:1079f800cbfe48f21c011a2005f0c6fe4ef210011b
:107a0800552005f0c1fefff705fefff703fe314bd9
:107a1800d3f83c342f4a43f00803c2f83c34fff74c
:107a2800f9fd2c4b03f5aa531b682a4943f400724d
:107a380001f5aa531a6000bf264b03f5aa531b6829
:107a480003f40073002bf7d1224b03f5aa5310332c
:107a58001b681b0c9bb2c3f309037b801d4bd3f837
:107a68003c341c4a23f00803c2f83c34fb8823f456
:107a780080739bb219464f2005f086febb8a1946d3
:107a88001f2005f081fe7b8a19461d2005f07cfe2b
:107a98003b8a1946602005f077fefb891946542079
:107aa80005f072febb891946592005f06dfe7b89e9
:107ab80019461a2005f068fe3b891946552005f03d
:107ac80063fe0021122005f05ffe7b8818461837f8
:107ad800bd4680bd00200141b0b586b000af034669
:107ae8000a46fb8013467b712b23bb7507f10e03f7
:107af800184608f073fbfb89002b7ed0fb891a46d9
:107b0800fb88d31a18460cf03bfe43a3d3e90023a5
:107b180009f0c8fa03460c46184621460cf02ef820
:107b280003463b61bb7d18460cf02afe04460d4611
:107b3800d7ed047ab3ee047ac7ee876a16ee900a98
:107b48000cf048fb02460b4643ec112b9fed2e0b25
:107b580004f096fd53ec102b2046294609f0a2fab2
:107b680003460c4644ec173bb0ee470af0ee670ab2
:107b78000bf08af854ec103b184621460cf0dcfd5b
:107b88000346fb75fb7d3c2b02d93c23fb7504e0c7
:107b9800fb7d1d2b01d81e23fb751d4b03f5bb5325
:107ba80008331b681a4923f4fc4201f5bb53083318
:107bb8001a60174b03f5bb5308331a68fb7d5b0249
:107bc80003f4fc4312491a4301f5bb5308331a6006
:107bd8007b7903f00203002b0fd00e4b93f8a030f3
:107be800dbb25bb223f03f035ab297f91730134365
:107bf8005ab2084bd2b283f8a02000bf1837bd464e
:107c0800b0bd00bfaff300800000000000002440ba
:107c18000020014100000141e59b6d6e4c4f883ffb
:107c280080b584b000af03460a46fb8013467b71db
:107c380007f10803184608f0d1fa3b89002b36d023
:107c48003b891a46fb88d21a13469b0013445a01f3
:107c58001344194a82fb0312d211db17d31a1933c2
:107c6800fb6007f10a03184601f0b7fbfb68502bcd
:107c780006dd97f90a30dbb2023bdbb25bb201e00a
:107c880097f90a30fb727b7903f00203002b0ed0c0
:107c98000a4b93f8a430dbb25bb223f01f035ab24d
:107ca800fb7a13435ab2054bd2b283f8a42000bf23
:107cb8001037bd4680bd00bf53d9de7500000141b5
:107cc80080b586b000af0346fb8007f10e03184667
:107cd80008f084fafb89002b54d0fb891a46fb88ec
:107ce800d21a13469b0013445a011344274a82fbb5
:107cf8000312d211db17d31a19337b616d2005f0fb
:107d080075fd03469b11dbb203f00703fb74fb7c94
:107d1800052b37d17b69002b18da012005f066fda9
:107d280003463b82b7f9103023f0e0031bb243f05f
:107d380060031bb23b823b8a1946012005f024fdf3
:107d4800fff7d6fd124b01221a701be0104b1b786f
:107d5800002b17d0012005f049fd03463b82b7f9f7
:107d6800103023f0e0031bb243f040031bb23b8208
:107d78003b8a1946012005f007fdfff7b9fd044bc2
:107d880000221a7000bf1837bd4680bd53d9de7572
:107d98008001002080b400af104b03f5f153083385
:107da8001b680f4a13600f4b1b78002b0ad00c4b33
:107db8001a680d4b1b68d31ab3f5403f02d90b4b19
:107dc80001221a70094b1b78002b14bf01230023d2
:107dd800dbb21846bd465df8047b704700200141c0
:107de800880100207c010020840100208c010020f3
:107df80080b586b000af0346fb710023fb81fff717
:107e080091fd0346fb8207f10e03184608f0e6f9d8
:107e1800fb89002b40d0fb891a46fb8ad21a1346ed
:107e28009b0013445a011344244a82fb0312d211c3
:107e3800db17d31a19333b61214bb3f900301a46cb
:107e48003b6993420edd1e4bb3f900301a463b697d
:107e58009b1a132b14ddfff74bfd3b691ab2184b25
:107e68001a800de0164bb3f900301a463b69d31a55
:107e7800132b05ddfff73cfd3b691ab2104b1a8046
:107e8800fa79fb8a11461846fff726fefa79fb8a2b
:107e980011461846fff7c4fe0a4b00221a700a4b17
:107ea80003f5f15308331b68084a1360074b1b6836
:107eb800074a136000bf1837bd4680bd53d9de7529
:107ec8007e0100208c010020002001418801002053
:107ed8008401002080b584b000af0346fb71002305
:107ee8007b73fb79002b03d0fff7bcfbfff7d8fab5
:107ef800fa7907f10d031946072001f00df9fb790e
:107f0800002b3fd07b7b002b01d1fff725fcfff72f
:107f1800effc07f10e03184608f060f9fb89002b07
:107f280006d01a4b19221a80194b01221a7005e043
:107f3800164bff221a80164b00221a70154b00228e
:107f48001a60154b00221a60144b00221a70144b49
:107f580000221a704ff08843124a1a65124b40f2f9
:107f680071429a60fb79012b03d10f4bff229a6172
:107f780002e00d4b7f229a610b4b13221a600a4bc9
:107f88004022da6000bf1037bd4680bd7e01002068
:107f98007c01002088010020840100208c01002041
:107fa800800100204c0040e00010014180b500af86
:107fb800064b4ff088721a6046f2e2515e2005f0d7
:107fc800e3fb00f005f800bf80bd00bf00400141a1
:107fd80080b500af0021122005f0d6fb00bf80bda0
:020000040000fa
:020000040100f9
:107fe800431e13f1030f0fd883b2042b0ed80a4a8d
:107ff80002eb4312d26982420ad15a0106498a5ccd
:1080080042b101eb431070470020704700207047d1
:10801800002070470020704738e800202de9f84319
:10802800314bd3f8d420d3f8b410c3f8b010002ad9
:108038004ad09368b3f5004f3cd32b4bd3f8b430f8
:1080480047f6ff74002514eb030845f10009264e96
:10805800d6f8a4309b69984782b20023d6f8b010ae
:10806800814206d94ff6ff7152184ff0000141ebdb
:1080780003031d49d1f8c010561843f10007b9454c
:1080880008bfb0452bd20a44174bc3f8bc20164b87
:10809800d3f8bc309bb21bb9134b0122c3f8bc20e8
:1080a800114bd3f8bc00d3f8a4305b6980b2984771
:1080b800bde8f88394680c4bd3f8b430002514eb72
:1080c800030845f10009c2e7074bd3f8b43047f677
:1080d800ff74002514eb030845f10009b7e7024bcc
:1080e800c3f8bc80d3e700bf38e80020164bd3f8ac
:1080f800d4202ab310b40146824204d18369abb1bb
:10810800002206e01a469369e3b19942fad18b69d5
:1081180023b18c689868204498604ab18b69936150
:10812800002000238b615df8044b70471a46f4e782
:10813800054bd3f8d4209269c3f8d4200120f0e786
:10814800002070470020eee738e8002040b32de912
:10815800f0418646214bd3f8d420d0f80880c2b12c
:1081680093684046002198451cd300240025936855
:10817800e41845f100059369e3b1d3f808c014eb9e
:108188000c0645f10007b94208bfb04212d31a469f
:10819800ede7c0f80880114bc3f8d40001201ae0bd
:1081a800002070470d4bc3f8d4e0cef81820002407
:1081b800012004e0cef81830c2f818e00020a8eb3f
:1081c8000404cef80840def8183023b1def80810b1
:1081d8009a68521a9a60bde8f08100bf38e800201a
:1081e800044bd3f8b030834232bfc01ac3f5803392
:1081f800c018704738e800200c4bd3f8d43073b15e
:1082080068b1002105e09a68801a99609b6933b1ca
:1082180028b19a688242f6d39a68101a9860034b7c
:10822800d3f8b420c3f8b020704700bf38e8002066
:108238002de978480546144cd4f8a4309b69984732
:10824800c4f8b400d4f8b400fff7caff0646fff735
:10825800d3ff0af0e3fdd4e932bc1beb06024cf174
:108268000003c4e932230af0ddfd2846fff76eff5c
:1082780008b9bde878880af0d1fd0446fff7cefebc
:1082880020460af0cffdf4e738e800200c4b93f8bd
:10829800d0300bb10120704710b54ff0ff310948bd
:1082a80008f0d8f9012801d0002010bd044c94f939
:1082b800a8000af0bbfd84f8d1000120f5e700bf53
:1082c80038e8002010e9002010b5084c94f8d110c7
:1082d80094f9a8000af0ccfd94f8d03003b110bd91
:1082e80004f1d80008f0bff9f9e700bf38e800202a
:1082f800f8b505460c4617461e46fff7c7ff002887
:1083080042d0234b93f9a030022b05d04ff0ff3415
:10831800fff7daff2046f8bd002c2fd0ac4230d34f
:108328001b4b1b7853b11b4a0123117841b1013310
:108338002032052bf9d14ff0ff34e9e70023144a26
:108348000121117000215170117551759df8181097
:1083580091705460d7601661641b94600e49098857
:108368009bb243ea0144d4614b1c9bb24ff6ff72a7
:10837800934208bf0123084a1380c9e74ff0ff342e
:10838800c6e74ff0ff34c3e74ff0ff34c2e700bf42
:1083980038e8002058e80020deec0020002964d0ee
:1083a800f8b50e46002863d1334808f03af9012899
:1083b80002d04ff0ff305de03368304cc4f8a43091
:1083c800db689847c4f8ac0007460021c300420f99
:1083d8001b1a62eb0102550145ead36558011818ca
:1083e80042eb0505264a0023c01945eb01010bf0b5
:1083f800ebff0230c4f8c00096f9043084f8a830c6
:108408000021c4f8b0104ff6ff73c4f8b83047f62f
:10841800ff73c4f8bc3000220023c4e93223c4f837
:10842800d41084f8d010d4f8a4301b6815489847a5
:10843800d4f8a4301b6913b1b4f8b80098470f4cae
:10844800d4f8bc00d4f8a4305b6980b29847d4f85b
:10845800a4305b689847a022002120460cf0cafa95
:108468002046022300f8a03f04e04ff0ff30704799
:108478004ff0ff30f8bd00bf10e9002038e80020b9
:108488000090d003dd8600010b4b834200d070477b
:1084980010b5a3f1a004d4f8a4309b689847a02293
:1084a800002120460cf0a6fa4022002104f1a00089
:1084b8000cf0a0fa10bd00bfd8e80020034b83429f
:1084c80006bfa03b93f9a00000207047d8e8002021
:1084d800014bd3f8ac00704738e8002070b50af0bb
:1084e8009dfc0646084cd4f8a4309b699847fff7d2
:1084f80077fed4e93223141843f1000530460af018
:1085080091fc2046294670bd38e8002008b5fff7e1
:10851800e5ff08bd38b504460af080fc002503498c
:10852800c1e932450af07efc38bd00bf38e80020ba
:1085380038b5054600214301c20e1b1a62eb010241
:10854800500240ead3505c020246631941eb020232
:10855800940144ea93649801c01a64eb0204054b41
:10856800d3f8ac200b46401944eb01010bf02cff6b
:1085780038bd00bf38e8002038b502460024430162
:10858800c10e181a61eb04018b0043ea9073850051
:108598001946a81844eb0101cb0043ea5073c20006
:1085a80010461946034bd3f8ac2023460bf00cffba
:1085b80038bd00bf38e8002008b5054bd3f8ac102b
:1085c800044a0023a1fb00010bf0fefe08bd00bf1a
:1085d80038e8002040420f0008b5054bd3f8ac102e
:1085e8004ff47a720023a1fb00010bf0edfe08bde9
:1085f80038e8002010b582b09df8104004b922b1c7
:108608000094fff775fe02b010bd4ff0ff30fae797
:108618002de9f0410646884614461f469df81c5031
:10862800fff734fe98b305b94fb13046fff7d8fcd1
:10863800064620b32cb3444505d2012422e0fff7b7
:1086480043fe012420e0fff751fd002333757375c5
:10865800b5707460a4eb0804b460f760069b3361de
:108668000c4b93f8d03033b93046fff7e1fd0123c6
:108678007370002406e03046fff768fdf7e7012431
:1086880000e00124fff720fe2046bde8f081012428
:10869800fae700bf38e8002010b50446fff7f6fdfa
:1086a800b0b12046fff79cfc044678b1437843b943
:1086b80000202075607520700446fff705fe2046ef
:1086c80010bdfff713fd00236370f1e70124f4e701
:1086d8000124f4e7f8b5374cd4f8d450d4f8a430d2
:1086e8009b699847c4f8b400d4f8b400fff778fd44
:1086f800d4e93267321847f10003c4e93223002d68
:108708004ed094f8d030013384f8d030fff774fda0
:10871800d4f8d4402cb1a3681bb901250027254ef5
:1087280011e0244d00242e4620e0e069fff7b4ff55
:10873800e3680bb120699847d6f8d440002cf0d0f4
:10874800a368002bedd125756575a37813b9e36887
:10875800002bead12046fff7c9fca378002be7d10c
:108768006770e5e701342035052c13d006eb441378
:108778005b7d002bf6d006eb441300225a75ab78cc
:10878800012befd16b6806eb44118b602846fff78d
:10879800ddfce7e7074a92f8d030013b82f8d03099
:1087a8000af03cfb0446fff739fc20460af03afb86
:1087b800f8bd00bf38e8002038b50446fff766fd6d
:1087c80010b32046fff70cfc0546b0b14378b3b9a7
:1087d80083680bb9436883600c4b93f8d03043b976
:1087e8002846fff725fd00242c756c7501236b7056
:1087f80006e02846fff7aafcf5e7012400e000247c
:10880800fff762fd204638bd0124fbe738e8002069
:1088180038b50446fff73afdb0b12046fff7e0fb54
:10882800054678b1437823b90024fff74dfd20466b
:1088380038bdfff75bfc00242c756c756c706b6899
:10884800ab60f2e70124f0e70124f0e770b50446d5
:108858000d46fff71bfd002835d085b32046fff7ee
:10886800bffb014668b3437813b31a4bd3f8d4401f
:10887800d4b1a0421ad00023a2681344a4690cb151
:10888800a142f9d1a6681e44124bd3f8a4309b69c3
:108898009847fff7a5fc864217d3331a6668b34298
:1088a80088bf002305d812e00023ebe70023e9e79f
:1088b80000232b600024fff707fd204670bd01242c
:1088c800f9e70124f7e70124f7e766680023f31abc
:1088d800efe700bf38e8002038b50546fff7d6fcbb
:1088e800044648b12846fff77bfb38b1047de4b263
:1088f80000220275fff7e8fc204638bd0024f9e79e
:1089080009b330b583b00c4610b9012003b030bdaf
:108918000e4bd3f8ac1000250d4a0023a1fb000133
:108928000bf052fd00952b462a4601462846fff7d4
:10893800dffc2060b0f1ff3f01d10120e6e7fff73f
:108948003bff2846e2e70120704700bf38e80020d7
:1089580040420f0011b330b583b00c4610b9012066
:1089680003b030bd0e4bd3f8ac1000254ff47a722b
:108978000023a1fb00010bf027fd00952b462a469a
:1089880001462846fff7b4fc2060b0f1ff3f01d153
:108998000120e5e7fff710ff2846e1e701207047cf
:1089a80038e8002038b50546fff796ff044608b9b1
:1089b800204638bd2846fff76ffef9e7f0b583b0cb
:1089c8001f4603b9f8b122b94ff0ff34204603b06f
:1089d800f0bd14460e4605460c4bd3f8ac000c4ac5
:1089e8000023a0fb04010bf0effc009733462a4656
:1089f80001460020fff77cfc0446b0f1ff3fe5d0bc
:108a0800fff7dafee2e74ff0ff34dfe738e800204f
:108a180040420f00f0b583b01f4603b900b322b936
:108a28004ff0ff34204603b0f0bd14460e4605460d
:108a38000d4bd3f8ac004ff47a720023a0fb04016d
:108a48000bf0c2fc009733462a4601460020fff788
:108a58004ffc0446b0f1ff3fe4d0fff7adfee1e77d
:0c8a68004ff0ff34dee700bf38e80020cc
:020000040000fa
:020000040100f9
:108a740080b485b000af4ff4c043fb6000237b603b
:108a84000ee00023bb6005e0fb680133fb60bb68bc
:108a94000133bb60bb680f2bf6d97b6801337b6065
:108aa4007b68092bedd946f65073fb600023bb604d
:108ab40005e0fb680133fb60bb680133bb60bb6846
:108ac4000f2bf6d9fb68b3f5e04fefd100bf143795
:108ad400bd465df8047b704780b485b000af786014
:108ae4000b467b804ff6ff737b817b88002b03d181
:108af4007b89db439bb22ce00023fb737b685a1c0d
:108b04007a601b78bb8117e07a89bb8953409bb29a
:108b140003f00103002b06d07b895b089ab2104b4b
:108b240053407b8102e07b895b087b81fb7b0133c3
:108b3400fb73bb895b08bb81fb7b072be4d97b8878
:108b4400013b7b807b88002bd6d17b89db437b81f7
:108b54007b8918461437bd465df8047b704700bf17
:108b64000884ffff80b586b000aff8600b467a60da
:108b74007b817b687b617b691b78ed2b21d17b69d1
:108b84005b78032b1dd17b699b78002b01d10023db
:108b940018e07b699b78012b13d17b891946f8680f
:108ba400fff79aff03467b827a8a7b691b791b0253
:108bb4007969c9780b449a4201d1002302e0012368
:108bc40000e0012318461837bd4680bd80b489b043
:108bd40000af78607b68bb61bb695a78274ba3fb05
:108be400021399080b465b000b445b00d31adbb2fb
:108bf400002b01d001233ae0bb695b781f4aa2fb3a
:108c040003239b08fb757b6802337b600023fb779f
:108c140028e07b683b613b695b781b023a69127808
:108c2400134403f1824303f59033fb60fb683a6914
:108c340092781a70fb6801331a463b69db7813702b
:108c4400fb6802331a463b691b791370fb680333d4
:108c54001a463b695b7913707b6806337b60fb7f44
:108c64000133fb77fa7ffb7d9a42d2d30023184667
:108c74002437bd465df8047b704700bfabaaaaaa9f
:108c840080b489b000af78607b68bb61bb695a78f7
:108c94002f4ba3fb021399080b465b000b445b00ac
:108ca400d31adbb2002b01d001234ae0bb695b7805
:108cb400274aa2fb03239b08fb757b6802337b6076
:108cc4000023fb7738e07b683b613b695b789bb2b0
:108cd4001b029ab23b691b789bb21344fb81fb894c
:108ce40003f1824303f58033bb60bb683a69927831
:108cf4001a70bb6801331a463b69db781370bb6892
:108d040002331a463b691b791370bb6803331a4656
:108d14003b695b791370fb89a42b07d13b699b7872
:108d24005bb203f01f035ab20a4b1a707b68063316
:108d34007b60fb7f0133fb77fa7ffb7d9a42c2d3d2
:108d4400002318462437bd465df8047b704700bff6
:108d5400abaaaaaaddec002080b485b000af78608d
:108d64007b68fb60fb685b78022b0dd1fb68db78ca
:108d74009bb21b029ab2fb689b789bb213449ab2d3
:108d8400054b1a80002300e0012318461437bd4622
:108d94005df8047b704700bfe6eb002080b485b02b
:108da40000af78607b68fb607b680233bb60fb6864
:108db4005b78042b12d1bb68db781a06bb689b78fe
:108dc4001b041a43bb685b781b021343ba6812780e
:108dd4001343064a1360064b01221a7000231846f7
:108de4001437bd465df8047b704700bfe0eb0020fc
:108df400e4eb002080b586b000af786039600023d2
:108e0400fb7582e07b681b78dbb2ff2b2ad17b6881
:108e140003f00f03002b03d17b6843f07f437ce016
:108e24000023bb757b6823f0030304337b607a68fb
:108e34003b689a4202d34ff0ff336ee07b681b68b5
:108e4400b3f1ff3f0ed17b6810331b68b3f1ff3fd2
:108e540008d17b6803f00f03002b03d17b6843f038
:108e64007f435ae07b683b613b691b78012b49d106
:108e74003b695b78012b45d13b699b781a467b683b
:108e840013440533fb607b68033318463b699b78c6
:108e94009bb2fa681946fff765fe0346002b31d1f1
:108ea4007b683ae03b68083b7a689a4200d32ce03e
:108eb4007b681b68b3f1ff3f00d126e07b681b7819
:108ec400dbb2ef2b1bd17b6801331b78dbb2002ba9
:108ed40011d17b6802331b78dbb2ed2b0bd17b689d
:108ee40003331b78dbb2032b05d10123fb757b68ad
:108ef40007337b6006e07b6804337b6002e07b68b9
:108f040001337b60fb7d002bccd03b68083b7a6847
:108f14009a42fff477af4ff0ff3318461837bd4637
:108f240080bd80b588b000aff860b9603b6013467f
:108f3400fb710023fb77fb68bb61bb699b789bb229
:108f440003339bb2bb837ee0fb687b617b693b613f
:108f54000023fb773b691b78fa799a4202d13b687c
:108f640001221a703b691b78082b1dd0082b04dce6
:108f7400022b09d0072b0dd04ae00a2b24d00a2b50
:108f840018db552b2ed043e07869fff7e5fe034646
:108f9400fb773de097f82830002b32d0786907f052
:108fa400dbf80346fb772ce0786907f063f80346a7
:108fb400fb772de097f82830002b24d07869fff751
:108fc40005fe0346fb771ee097f82830022b03d0fa
:108fd40097f82830032b18d17869fff751fe034620
:108fe400fb7712e0fb68b3f5c04f10d3fb6846f67d
:108ff4006f7293420bd87869fff7d0fe0346fb7774
:1090040005e000bf04e000bf02e000bf00e000bfd5
:10901400fb7f012b1cd0b7f91c30002b18ddfa683c
:10902400bb689a4214d2ba8b3b695b789bb2d31a61
:109034009bb2023b9bb2bb833b695b781a46fb68dd
:1090440013440233fb60b7f91c30002b3ff77cafad
:10905400fb7f18462037bd4680bd80b588b002af7f
:109064003a601a460346fb710b46bb7113467b718b
:109074000023fb75fb79002b06d14ff4c0433b6101
:1090840046f67073fb6037e0224b1b78002b01d14e
:1090940085233ae0204b1b683b611f4b1b6803f59b
:1090a4007763fb6028e0f9683869fff7a3fe38614d
:1090b4003b69bb603b6903f07f43002b07d03b69ee
:1090c4009bb2b3f5c04f1cd10123fb7519e03b697a
:1090d400b3f1ff3f17d0ba797b7900933b68f96805
:1090e4003869fff71eff0346fb75bb689b781a4679
:1090f4003b6913440a333b613a69fb689a42d2d311
:1091040002e000bf00e000bffb7d18461837bd46f3
:1091140080bd00bfe4eb0020e0eb002080b584b00c
:1091240000af03463960fb711346bb71bb79f97913
:109134003a680020fff791ff0346fb73084b1b7846
:10914400002b08d0bb7907f10e0200210120fff7a4
:1091540084ff0346fb73fb7b18461037bd4680bd76
:10916400e4eb002080b588b000aff860b9603b60e4
:109174001346fb710023fb77fb68bb61bb699b78db
:109184009bb203339bb2bb83b6e0fb681b78fb75d1
:10919400fb683b61fb79ff2b21d1fb7d002b00f0a9
:1091a4008c80fb7dff2b00f08880bb6a1b881a46ed
:1091b4003b689818f9683b695b7802331a460bf0f0
:1091c4008bfbbb6a1a883b695b789bb213449bb2e6
:1091d40002339ab2bb6a1a800123fb776de0fa7df1
:1091e400fb799a4269d197f82c30002b4cd0fb7d47
:1091f400062b03d13b695b78072b22d0fb7d0b2b1d
:1092040003d13b695b78042b1bd0fb7d0c2b03d172
:109214003b695b78012b14d0fb7d102b03d13b6998
:109224005b78022b0dd0fb7d152b03d13b695b785a
:10923400082b06d0fb7d182b1ad13b695b78042bd5
:1092440016d1fb68023319463b695b781a463868c5
:109254000bf042fbbb6a1a883b695b789bb21344f0
:109264009bb202339ab2bb6a1a800123fb7724e0d3
:10927400bb6a1a883b695b789bb213449bb2023386
:109284009ab2bb6a1a8018e0bb6a1b881a463b680c
:109294009818f9683b695b7802331a460bf01cfb9b
:1092a400bb6a1a883b695b789bb213449bb2023356
:1092b4009ab2bb6a1a800123fb77ba8b3b695b784d
:1092c4009bb2d31a9bb2023b9bb2bb833b695b78d4
:1092d4001a46fb6813440233fb60b7f91c30002bb9
:1092e40003ddfa68bb689a4206d3fb7f012b01d1e8
:1092f400002306e0802304e0b7f91c30002b3ff77d
:1093040044af18462037bd4680bd80b58ab002af51
:1093140003463960fb714ff4c043fb6146f670733a
:109324007b610023fb810023fb7626e07969f869e1
:10933400fff760fdf861fb693b61fb6903f07f4364
:10934400002b1ed1fb69b3f1ff3f1ad0fa79012338
:10935400019307f10e0300933b687969f869fff7fd
:1093640001ff0346002b01d10123fb763b699b7867
:109374001a46fb6913440a33fb61fa697b699a4212
:10938400d4d3fb7e012b01d1002300e080231846b7
:109394002037bd4680bd80b582b000af7860796863
:1093a4000620fff7b2ff0346002b01d1012300e0a2
:1093b400002318460837bd4680bd80b582b000af93
:1093c400786079681520fff7a0ff0346002b01d1d0
:1093d400012300e0002318460837bd4680bd80b451
:1093e40083b000af7860064b93f900207b681a7055
:1093f400012318460c37bd465df8047b704700bf57
:10940400ddec002080b584b000af786007f10c0378
:1094140019460b20fff779ff0346002b05d1b7f956
:109424000c207b681a80012300e0002318461037c3
:10943400bd4680bd80b584b000af786007f10c03f1
:1094440019460b20fff761ff0346002b05d1b7f93e
:109454000e207b681a80012300e000231846103791
:10946400bd4680bd80b584b000af786007f10f03be
:1094740019460c20fff749ff0346002b05d197f945
:109484000f207b681a70012300e000231846103770
:10949400bd4680bd80b400af034b1b781846bd4663
:1094a4005df8047b704700bfe4eb002080b483b018
:1094b40000af0346fb71044afb79137000bf0c37fd
:1094c400bd465df8047b7047e4eb002080b400af38
:1094d400034b1b681846bd465df8047b704700bf0c
:0494e400e0eb002099
:020000040000fa
:020000040100f9
:1094e80010b5044606f0dbf8a46b06f0e7f8b4fa0a
:1094f80084f0400910bd70b504461646856b026cb1
:109508005ab903681bb100200135a56370bd806896
:10951800fbf790fd0023a360f6e76eb940680bf0f7
:10952800d9f96368226c13446360a268934219d323
:10953800236863603046e7e7c0680bf0cbf9226c1c
:109548005242e3681344e36021688b4202d2a36865
:109558001a44e260022e01d00020d5e725b1013d72
:109568000020d1e73046cfe70020cde7026c72b18a
:1095780010b5c3681344c3608468a34224bf03685a
:10958800c3600c46c16820460bf0a4f910bd7047b3
:1095980070b582b00190846ca26be36b9a4203d3de
:1095a8000025284602b070bd94f8456076b20022c6
:1095b80001a92046fff79fff0546b6f1ff3f0ad1f4
:1095c800636a002bedd004f12400fbf7affb002801
:1095d80018bf0125e5e7fbf7adf88642e1d2013671
:1095e80076b284f84560dce770b5054606f057f8b2
:1095f80095f8454064b2002c19dd05f1240608e011
:109608006b6aa3b13046fbf791fb68b9013c64b2c1
:109618006cb1ab6c002bf3d02846fff7b9ff0028dc
:10962800f4d0fbf797fcf1e7fbf794fceee7ff2398
:1096380085f8453006f042f806f031f895f84440d0
:1096480064b2002c11dd2b697bb105f1100606e030
:10965800fbf780fc013c64b23cb12b692bb130466e
:10966800fbf764fb0028f5d0f2e7ff2385f84430c8
:1096780006f024f870bd00283ed038b50446c36b08
:10968800002b3bd0006ca0fb03230bb1002036e07d
:109698000d4606f004f82268216ce36b03fb01f326
:1096a800d018a0600020a06362605b1a1344e360d6
:1096b800ff2384f8443084f84530a5b923691bb9e1
:1096c80005f0fcff01201ae004f11000fbf72efb67
:1096d8000028f5d00a4b4ff080521a60bff34f8f25
:1096e800bff36f8fece704f1100009f0bbf904f148
:1096f800240009f0b7f9e3e700207047002038bddf
:1097080004ed00e070b5e8b10546a0fb0132e2b90e
:1097180001fb00f010f14d0f19d80c464c3004f045
:10972800cdfd064678b114b100f14c0300e00346c4
:109738003360f563346401213046fff79cff002352
:10974800b36400e00026304670bd0026fbe7002623
:10975800f9e760b188420cd310b50c46022200210b
:10976800fff7d0ff034600b18463184610bd0023fd
:1097780000e00023184670472de9f04385b0044601
:10978800884601921d460027534e46e0a66b2a469e
:1097980041462046fff7affea36ca3b1022d00f0af
:1097a80096802046fff7f4fe38b14b4b4ff08052bd
:1097b8001a60bff34f8fbff36f8f05f07fff012053
:1097c80005b0bde8f083636a53b90028f5d0424b71
:1097d8004ff080521a60bff34f8fbff36f8fece7e3
:1097e80004f12400fbf7a2fa0028e6d03a4b4ff028
:1097f80080521a60bff34f8fbff36f8fdde705f01c
:109808005dff0020dce702a8fbf760fb12e02046c2
:10981800fff7eafefbf766f8012705f040ffa26ba9
:10982800e36b9a42b2d3022d47d0019b002be6d0be
:10983800002fe8d005f042fffaf766ff05f02fff8a
:1098480094f844305bb2b3f1ff3f04bf002384f8bf
:10985800443094f845305bb2b3f1ff3f04bf0023b6
:1098680084f8453005f02aff01a902a8fbf738fb68
:10987800e0b905f014ffd4f83890e76b05f01eff47
:10988800b945c4d1019904f11000fbf723fa204629
:10989800fff7aafefbf726f80028bdd14ff080534a
:1098a8003360bff34f8fbff36f8fb5e72046fff7e5
:1098b8009bfefbf717f8002082e7a66b02224146c1
:1098c8002046fff718fea36c002b3ff47caf002e58
:1098d8007ff473af65e700bf04ed00e010b5024602
:1098e80000210120fff70eff044638b100218160f6
